{
	"contracts/IERC1155/ERC1155.sol": {
		"ERC1155": {
			"abi": [
				{
					"inputs": [
						{
							"internalType": "string",
							"name": "name_",
							"type": "string"
						},
						{
							"internalType": "string",
							"name": "symbol_",
							"type": "string"
						}
					],
					"stateMutability": "nonpayable",
					"type": "constructor"
				},
				{
					"anonymous": false,
					"inputs": [
						{
							"indexed": true,
							"internalType": "address",
							"name": "account",
							"type": "address"
						},
						{
							"indexed": true,
							"internalType": "address",
							"name": "operator",
							"type": "address"
						},
						{
							"indexed": false,
							"internalType": "bool",
							"name": "approved",
							"type": "bool"
						}
					],
					"name": "ApprovalForAll",
					"type": "event"
				},
				{
					"anonymous": false,
					"inputs": [
						{
							"indexed": true,
							"internalType": "address",
							"name": "operator",
							"type": "address"
						},
						{
							"indexed": true,
							"internalType": "address",
							"name": "from",
							"type": "address"
						},
						{
							"indexed": true,
							"internalType": "address",
							"name": "to",
							"type": "address"
						},
						{
							"indexed": false,
							"internalType": "uint256[]",
							"name": "ids",
							"type": "uint256[]"
						},
						{
							"indexed": false,
							"internalType": "uint256[]",
							"name": "values",
							"type": "uint256[]"
						}
					],
					"name": "TransferBatch",
					"type": "event"
				},
				{
					"anonymous": false,
					"inputs": [
						{
							"indexed": true,
							"internalType": "address",
							"name": "operator",
							"type": "address"
						},
						{
							"indexed": true,
							"internalType": "address",
							"name": "from",
							"type": "address"
						},
						{
							"indexed": true,
							"internalType": "address",
							"name": "to",
							"type": "address"
						},
						{
							"indexed": false,
							"internalType": "uint256",
							"name": "id",
							"type": "uint256"
						},
						{
							"indexed": false,
							"internalType": "uint256",
							"name": "value",
							"type": "uint256"
						}
					],
					"name": "TransferSingle",
					"type": "event"
				},
				{
					"anonymous": false,
					"inputs": [
						{
							"indexed": false,
							"internalType": "string",
							"name": "value",
							"type": "string"
						},
						{
							"indexed": true,
							"internalType": "uint256",
							"name": "id",
							"type": "uint256"
						}
					],
					"name": "URI",
					"type": "event"
				},
				{
					"inputs": [
						{
							"internalType": "address",
							"name": "account",
							"type": "address"
						},
						{
							"internalType": "uint256",
							"name": "id",
							"type": "uint256"
						}
					],
					"name": "balanceOf",
					"outputs": [
						{
							"internalType": "uint256",
							"name": "",
							"type": "uint256"
						}
					],
					"stateMutability": "view",
					"type": "function"
				},
				{
					"inputs": [
						{
							"internalType": "address[]",
							"name": "accounts",
							"type": "address[]"
						},
						{
							"internalType": "uint256[]",
							"name": "ids",
							"type": "uint256[]"
						}
					],
					"name": "balanceOfBatch",
					"outputs": [
						{
							"internalType": "uint256[]",
							"name": "",
							"type": "uint256[]"
						}
					],
					"stateMutability": "view",
					"type": "function"
				},
				{
					"inputs": [
						{
							"internalType": "address",
							"name": "account",
							"type": "address"
						},
						{
							"internalType": "address",
							"name": "operator",
							"type": "address"
						}
					],
					"name": "isApprovedForAll",
					"outputs": [
						{
							"internalType": "bool",
							"name": "",
							"type": "bool"
						}
					],
					"stateMutability": "view",
					"type": "function"
				},
				{
					"inputs": [],
					"name": "name",
					"outputs": [
						{
							"internalType": "string",
							"name": "",
							"type": "string"
						}
					],
					"stateMutability": "view",
					"type": "function"
				},
				{
					"inputs": [
						{
							"internalType": "address",
							"name": "from",
							"type": "address"
						},
						{
							"internalType": "address",
							"name": "to",
							"type": "address"
						},
						{
							"internalType": "uint256[]",
							"name": "ids",
							"type": "uint256[]"
						},
						{
							"internalType": "uint256[]",
							"name": "amounts",
							"type": "uint256[]"
						},
						{
							"internalType": "bytes",
							"name": "data",
							"type": "bytes"
						}
					],
					"name": "safeBatchTransferFrom",
					"outputs": [],
					"stateMutability": "nonpayable",
					"type": "function"
				},
				{
					"inputs": [
						{
							"internalType": "address",
							"name": "from",
							"type": "address"
						},
						{
							"internalType": "address",
							"name": "to",
							"type": "address"
						},
						{
							"internalType": "uint256",
							"name": "id",
							"type": "uint256"
						},
						{
							"internalType": "uint256",
							"name": "amount",
							"type": "uint256"
						},
						{
							"internalType": "bytes",
							"name": "data",
							"type": "bytes"
						}
					],
					"name": "safeTransferFrom",
					"outputs": [],
					"stateMutability": "nonpayable",
					"type": "function"
				},
				{
					"inputs": [
						{
							"internalType": "address",
							"name": "operator",
							"type": "address"
						},
						{
							"internalType": "bool",
							"name": "approved",
							"type": "bool"
						}
					],
					"name": "setApprovalForAll",
					"outputs": [],
					"stateMutability": "nonpayable",
					"type": "function"
				},
				{
					"inputs": [
						{
							"internalType": "bytes4",
							"name": "interfaceId",
							"type": "bytes4"
						}
					],
					"name": "supportsInterface",
					"outputs": [
						{
							"internalType": "bool",
							"name": "",
							"type": "bool"
						}
					],
					"stateMutability": "view",
					"type": "function"
				},
				{
					"inputs": [],
					"name": "symbol",
					"outputs": [
						{
							"internalType": "string",
							"name": "",
							"type": "string"
						}
					],
					"stateMutability": "view",
					"type": "function"
				},
				{
					"inputs": [
						{
							"internalType": "uint256",
							"name": "id",
							"type": "uint256"
						}
					],
					"name": "uri",
					"outputs": [
						{
							"internalType": "string",
							"name": "",
							"type": "string"
						}
					],
					"stateMutability": "view",
					"type": "function"
				}
			],
			"devdoc": {
				"details": "ERC1155多代币标准 见 https://eips.ethereum.org/EIPS/eip-1155",
				"events": {
					"ApprovalForAll(address,address,bool)": {
						"details": "批量授权事件 当`account`将所有代币授权给`operator`时释放"
					},
					"TransferBatch(address,address,address,uint256[],uint256[])": {
						"details": "多类代币转账事件 ids和values为转账的代币种类和数量数组"
					},
					"TransferSingle(address,address,address,uint256,uint256)": {
						"details": "单类代币转账事件 当`value`个`id`种类的代币被`operator`从`from`转账到`to`时释放."
					},
					"URI(string,uint256)": {
						"details": "当`id`种类的代币的URI发生变化时释放，`value`为新的URI"
					}
				},
				"kind": "dev",
				"methods": {
					"balanceOf(address,uint256)": {
						"details": "持仓查询 实现IERC1155的balanceOf，返回account地址的id种类代币持仓量。"
					},
					"balanceOfBatch(address[],uint256[])": {
						"details": "批量持仓查询 要求: - `accounts` 和 `ids` 数组长度相等."
					},
					"isApprovedForAll(address,address)": {
						"details": "查询批量授权."
					},
					"safeBatchTransferFrom(address,address,uint256[],uint256[],bytes)": {
						"details": "批量安全转账，将`amounts`数组单位的`ids`数组种类代币从`from`转账到`to` 释放 {TransferSingle} 事件. 要求: - to 不能是0地址. - from拥有足够的持仓量，且调用者拥有授权 - 如果 to 是智能合约, 他必须支持 IERC1155Receiver-onERC1155BatchReceived. - ids和amounts数组长度相等"
					},
					"safeTransferFrom(address,address,uint256,uint256,bytes)": {
						"details": "安全转账，将`amount`单位的`id`种类代币从`from`转账到`to` 释放 {TransferSingle} 事件. 要求: - to 不能是0地址. - from拥有足够的持仓量，且调用者拥有授权 - 如果 to 是智能合约, 他必须支持 IERC1155Receiver-onERC1155Received."
					},
					"setApprovalForAll(address,bool)": {
						"details": "批量授权，调用者授权operator使用其所有代币 释放{ApprovalForAll}事件 条件：msg.sender != operator"
					},
					"supportsInterface(bytes4)": {
						"details": "See {IERC165-supportsInterface}."
					},
					"uri(uint256)": {
						"details": "返回ERC1155的id种类代币的uri，存储metadata，类似ERC721的tokenURI."
					}
				},
				"version": 1
			},
			"evm": {
				"assembly": "    /* \"contracts/IERC1155/ERC1155.sol\":341:11261  contract ERC1155 is IERC165, IERC1155, IERC1155MetadataURI {... */\n  mstore(0x40, 0x80)\n    /* \"contracts/IERC1155/ERC1155.sol\":1045:1159  constructor(string memory name_, string memory symbol_) {... */\n  callvalue\n  dup1\n  iszero\n  tag_1\n  jumpi\n  0x00\n  dup1\n  revert\ntag_1:\n  pop\n  mload(0x40)\n  sub(codesize, bytecodeSize)\n  dup1\n  bytecodeSize\n  dup4\n  codecopy\n  dup2\n  dup2\n  add\n  0x40\n  mstore\n  dup2\n  add\n  swap1\n  tag_2\n  swap2\n  swap1\n  tag_3\n  jump\t// in\ntag_2:\n    /* \"contracts/IERC1155/ERC1155.sol\":1119:1124  name_ */\n  dup2\n    /* \"contracts/IERC1155/ERC1155.sol\":1112:1116  name */\n  0x00\n    /* \"contracts/IERC1155/ERC1155.sol\":1112:1124  name = name_ */\n  swap1\n  dup2\n  tag_6\n  swap2\n  swap1\n  tag_7\n  jump\t// in\ntag_6:\n  pop\n    /* \"contracts/IERC1155/ERC1155.sol\":1144:1151  symbol_ */\n  dup1\n    /* \"contracts/IERC1155/ERC1155.sol\":1135:1141  symbol */\n  0x01\n    /* \"contracts/IERC1155/ERC1155.sol\":1135:1151  symbol = symbol_ */\n  swap1\n  dup2\n  tag_8\n  swap2\n  swap1\n  tag_7\n  jump\t// in\ntag_8:\n  pop\n    /* \"contracts/IERC1155/ERC1155.sol\":1045:1159  constructor(string memory name_, string memory symbol_) {... */\n  pop\n  pop\n    /* \"contracts/IERC1155/ERC1155.sol\":341:11261  contract ERC1155 is IERC165, IERC1155, IERC1155MetadataURI {... */\n  jump(tag_9)\n    /* \"#utility.yul\":7:82   */\ntag_10:\n    /* \"#utility.yul\":40:46   */\n  0x00\n    /* \"#utility.yul\":73:75   */\n  0x40\n    /* \"#utility.yul\":67:76   */\n  mload\n    /* \"#utility.yul\":57:76   */\n  swap1\n  pop\n    /* \"#utility.yul\":7:82   */\n  swap1\n  jump\t// out\n    /* \"#utility.yul\":88:205   */\ntag_11:\n    /* \"#utility.yul\":197:198   */\n  0x00\n    /* \"#utility.yul\":194:195   */\n  dup1\n    /* \"#utility.yul\":187:199   */\n  revert\n    /* \"#utility.yul\":211:328   */\ntag_12:\n    /* \"#utility.yul\":320:321   */\n  0x00\n    /* \"#utility.yul\":317:318   */\n  dup1\n    /* \"#utility.yul\":310:322   */\n  revert\n    /* \"#utility.yul\":334:451   */\ntag_13:\n    /* \"#utility.yul\":443:444   */\n  0x00\n    /* \"#utility.yul\":440:441   */\n  dup1\n    /* \"#utility.yul\":433:445   */\n  revert\n    /* \"#utility.yul\":457:574   */\ntag_14:\n    /* \"#utility.yul\":566:567   */\n  0x00\n    /* \"#utility.yul\":563:564   */\n  dup1\n    /* \"#utility.yul\":556:568   */\n  revert\n    /* \"#utility.yul\":580:682   */\ntag_15:\n    /* \"#utility.yul\":621:627   */\n  0x00\n    /* \"#utility.yul\":672:674   */\n  0x1f\n    /* \"#utility.yul\":668:675   */\n  not\n    /* \"#utility.yul\":663:665   */\n  0x1f\n    /* \"#utility.yul\":656:661   */\n  dup4\n    /* \"#utility.yul\":652:666   */\n  add\n    /* \"#utility.yul\":648:676   */\n  and\n    /* \"#utility.yul\":638:676   */\n  swap1\n  pop\n    /* \"#utility.yul\":580:682   */\n  swap2\n  swap1\n  pop\n  jump\t// out\n    /* \"#utility.yul\":688:868   */\ntag_16:\n    /* \"#utility.yul\":736:813   */\n  0x4e487b7100000000000000000000000000000000000000000000000000000000\n    /* \"#utility.yul\":733:734   */\n  0x00\n    /* \"#utility.yul\":726:814   */\n  mstore\n    /* \"#utility.yul\":833:837   */\n  0x41\n    /* \"#utility.yul\":830:831   */\n  0x04\n    /* \"#utility.yul\":823:838   */\n  mstore\n    /* \"#utility.yul\":857:861   */\n  0x24\n    /* \"#utility.yul\":854:855   */\n  0x00\n    /* \"#utility.yul\":847:862   */\n  revert\n    /* \"#utility.yul\":874:1155   */\ntag_17:\n    /* \"#utility.yul\":957:984   */\n  tag_51\n    /* \"#utility.yul\":979:983   */\n  dup3\n    /* \"#utility.yul\":957:984   */\n  tag_15\n  jump\t// in\ntag_51:\n    /* \"#utility.yul\":949:955   */\n  dup2\n    /* \"#utility.yul\":945:985   */\n  add\n    /* \"#utility.yul\":1087:1093   */\n  dup2\n    /* \"#utility.yul\":1075:1085   */\n  dup2\n    /* \"#utility.yul\":1072:1094   */\n  lt\n    /* \"#utility.yul\":1051:1069   */\n  0xffffffffffffffff\n    /* \"#utility.yul\":1039:1049   */\n  dup3\n    /* \"#utility.yul\":1036:1070   */\n  gt\n    /* \"#utility.yul\":1033:1095   */\n  or\n    /* \"#utility.yul\":1030:1118   */\n  iszero\n  tag_52\n  jumpi\n    /* \"#utility.yul\":1098:1116   */\n  tag_53\n  tag_16\n  jump\t// in\ntag_53:\n    /* \"#utility.yul\":1030:1118   */\ntag_52:\n    /* \"#utility.yul\":1138:1148   */\n  dup1\n    /* \"#utility.yul\":1134:1136   */\n  0x40\n    /* \"#utility.yul\":1127:1149   */\n  mstore\n    /* \"#utility.yul\":917:1155   */\n  pop\n    /* \"#utility.yul\":874:1155   */\n  pop\n  pop\n  jump\t// out\n    /* \"#utility.yul\":1161:1290   */\ntag_18:\n    /* \"#utility.yul\":1195:1201   */\n  0x00\n    /* \"#utility.yul\":1222:1242   */\n  tag_55\n  tag_10\n  jump\t// in\ntag_55:\n    /* \"#utility.yul\":1212:1242   */\n  swap1\n  pop\n    /* \"#utility.yul\":1251:1284   */\n  tag_56\n    /* \"#utility.yul\":1279:1283   */\n  dup3\n    /* \"#utility.yul\":1271:1277   */\n  dup3\n    /* \"#utility.yul\":1251:1284   */\n  tag_17\n  jump\t// in\ntag_56:\n    /* \"#utility.yul\":1161:1290   */\n  swap2\n  swap1\n  pop\n  jump\t// out\n    /* \"#utility.yul\":1296:1604   */\ntag_19:\n    /* \"#utility.yul\":1358:1362   */\n  0x00\n    /* \"#utility.yul\":1448:1466   */\n  0xffffffffffffffff\n    /* \"#utility.yul\":1440:1446   */\n  dup3\n    /* \"#utility.yul\":1437:1467   */\n  gt\n    /* \"#utility.yul\":1434:1490   */\n  iszero\n  tag_58\n  jumpi\n    /* \"#utility.yul\":1470:1488   */\n  tag_59\n  tag_16\n  jump\t// in\ntag_59:\n    /* \"#utility.yul\":1434:1490   */\ntag_58:\n    /* \"#utility.yul\":1508:1537   */\n  tag_60\n    /* \"#utility.yul\":1530:1536   */\n  dup3\n    /* \"#utility.yul\":1508:1537   */\n  tag_15\n  jump\t// in\ntag_60:\n    /* \"#utility.yul\":1500:1537   */\n  swap1\n  pop\n    /* \"#utility.yul\":1592:1596   */\n  0x20\n    /* \"#utility.yul\":1586:1590   */\n  dup2\n    /* \"#utility.yul\":1582:1597   */\n  add\n    /* \"#utility.yul\":1574:1597   */\n  swap1\n  pop\n    /* \"#utility.yul\":1296:1604   */\n  swap2\n  swap1\n  pop\n  jump\t// out\n    /* \"#utility.yul\":1610:1749   */\ntag_20:\n    /* \"#utility.yul\":1699:1705   */\n  dup3\n    /* \"#utility.yul\":1694:1697   */\n  dup2\n    /* \"#utility.yul\":1689:1692   */\n  dup4\n    /* \"#utility.yul\":1683:1706   */\n  mcopy\n    /* \"#utility.yul\":1740:1741   */\n  0x00\n    /* \"#utility.yul\":1731:1737   */\n  dup4\n    /* \"#utility.yul\":1726:1729   */\n  dup4\n    /* \"#utility.yul\":1722:1738   */\n  add\n    /* \"#utility.yul\":1715:1742   */\n  mstore\n    /* \"#utility.yul\":1610:1749   */\n  pop\n  pop\n  pop\n  jump\t// out\n    /* \"#utility.yul\":1755:2189   */\ntag_21:\n    /* \"#utility.yul\":1844:1849   */\n  0x00\n    /* \"#utility.yul\":1869:1935   */\n  tag_63\n    /* \"#utility.yul\":1885:1934   */\n  tag_64\n    /* \"#utility.yul\":1927:1933   */\n  dup5\n    /* \"#utility.yul\":1885:1934   */\n  tag_19\n  jump\t// in\ntag_64:\n    /* \"#utility.yul\":1869:1935   */\n  tag_18\n  jump\t// in\ntag_63:\n    /* \"#utility.yul\":1860:1935   */\n  swap1\n  pop\n    /* \"#utility.yul\":1958:1964   */\n  dup3\n    /* \"#utility.yul\":1951:1956   */\n  dup2\n    /* \"#utility.yul\":1944:1965   */\n  mstore\n    /* \"#utility.yul\":1996:2000   */\n  0x20\n    /* \"#utility.yul\":1989:1994   */\n  dup2\n    /* \"#utility.yul\":1985:2001   */\n  add\n    /* \"#utility.yul\":2034:2037   */\n  dup5\n    /* \"#utility.yul\":2025:2031   */\n  dup5\n    /* \"#utility.yul\":2020:2023   */\n  dup5\n    /* \"#utility.yul\":2016:2032   */\n  add\n    /* \"#utility.yul\":2013:2038   */\n  gt\n    /* \"#utility.yul\":2010:2122   */\n  iszero\n  tag_65\n  jumpi\n    /* \"#utility.yul\":2041:2120   */\n  tag_66\n  tag_14\n  jump\t// in\ntag_66:\n    /* \"#utility.yul\":2010:2122   */\ntag_65:\n    /* \"#utility.yul\":2131:2183   */\n  tag_67\n    /* \"#utility.yul\":2176:2182   */\n  dup5\n    /* \"#utility.yul\":2171:2174   */\n  dup3\n    /* \"#utility.yul\":2166:2169   */\n  dup6\n    /* \"#utility.yul\":2131:2183   */\n  tag_20\n  jump\t// in\ntag_67:\n    /* \"#utility.yul\":1850:2189   */\n  pop\n    /* \"#utility.yul\":1755:2189   */\n  swap4\n  swap3\n  pop\n  pop\n  pop\n  jump\t// out\n    /* \"#utility.yul\":2209:2564   */\ntag_22:\n    /* \"#utility.yul\":2276:2281   */\n  0x00\n    /* \"#utility.yul\":2325:2328   */\n  dup3\n    /* \"#utility.yul\":2318:2322   */\n  0x1f\n    /* \"#utility.yul\":2310:2316   */\n  dup4\n    /* \"#utility.yul\":2306:2323   */\n  add\n    /* \"#utility.yul\":2302:2329   */\n  slt\n    /* \"#utility.yul\":2292:2414   */\n  tag_69\n  jumpi\n    /* \"#utility.yul\":2333:2412   */\n  tag_70\n  tag_13\n  jump\t// in\ntag_70:\n    /* \"#utility.yul\":2292:2414   */\ntag_69:\n    /* \"#utility.yul\":2443:2449   */\n  dup2\n    /* \"#utility.yul\":2437:2450   */\n  mload\n    /* \"#utility.yul\":2468:2558   */\n  tag_71\n    /* \"#utility.yul\":2554:2557   */\n  dup5\n    /* \"#utility.yul\":2546:2552   */\n  dup3\n    /* \"#utility.yul\":2539:2543   */\n  0x20\n    /* \"#utility.yul\":2531:2537   */\n  dup7\n    /* \"#utility.yul\":2527:2544   */\n  add\n    /* \"#utility.yul\":2468:2558   */\n  tag_21\n  jump\t// in\ntag_71:\n    /* \"#utility.yul\":2459:2558   */\n  swap2\n  pop\n    /* \"#utility.yul\":2282:2564   */\n  pop\n    /* \"#utility.yul\":2209:2564   */\n  swap3\n  swap2\n  pop\n  pop\n  jump\t// out\n    /* \"#utility.yul\":2570:3423   */\ntag_3:\n    /* \"#utility.yul\":2669:2675   */\n  0x00\n    /* \"#utility.yul\":2677:2683   */\n  dup1\n    /* \"#utility.yul\":2726:2728   */\n  0x40\n    /* \"#utility.yul\":2714:2723   */\n  dup4\n    /* \"#utility.yul\":2705:2712   */\n  dup6\n    /* \"#utility.yul\":2701:2724   */\n  sub\n    /* \"#utility.yul\":2697:2729   */\n  slt\n    /* \"#utility.yul\":2694:2813   */\n  iszero\n  tag_73\n  jumpi\n    /* \"#utility.yul\":2732:2811   */\n  tag_74\n  tag_11\n  jump\t// in\ntag_74:\n    /* \"#utility.yul\":2694:2813   */\ntag_73:\n    /* \"#utility.yul\":2873:2874   */\n  0x00\n    /* \"#utility.yul\":2862:2871   */\n  dup4\n    /* \"#utility.yul\":2858:2875   */\n  add\n    /* \"#utility.yul\":2852:2876   */\n  mload\n    /* \"#utility.yul\":2903:2921   */\n  0xffffffffffffffff\n    /* \"#utility.yul\":2895:2901   */\n  dup2\n    /* \"#utility.yul\":2892:2922   */\n  gt\n    /* \"#utility.yul\":2889:3006   */\n  iszero\n  tag_75\n  jumpi\n    /* \"#utility.yul\":2925:3004   */\n  tag_76\n  tag_12\n  jump\t// in\ntag_76:\n    /* \"#utility.yul\":2889:3006   */\ntag_75:\n    /* \"#utility.yul\":3030:3104   */\n  tag_77\n    /* \"#utility.yul\":3096:3103   */\n  dup6\n    /* \"#utility.yul\":3087:3093   */\n  dup3\n    /* \"#utility.yul\":3076:3085   */\n  dup7\n    /* \"#utility.yul\":3072:3094   */\n  add\n    /* \"#utility.yul\":3030:3104   */\n  tag_22\n  jump\t// in\ntag_77:\n    /* \"#utility.yul\":3020:3104   */\n  swap3\n  pop\n    /* \"#utility.yul\":2823:3114   */\n  pop\n    /* \"#utility.yul\":3174:3176   */\n  0x20\n    /* \"#utility.yul\":3163:3172   */\n  dup4\n    /* \"#utility.yul\":3159:3177   */\n  add\n    /* \"#utility.yul\":3153:3178   */\n  mload\n    /* \"#utility.yul\":3205:3223   */\n  0xffffffffffffffff\n    /* \"#utility.yul\":3197:3203   */\n  dup2\n    /* \"#utility.yul\":3194:3224   */\n  gt\n    /* \"#utility.yul\":3191:3308   */\n  iszero\n  tag_78\n  jumpi\n    /* \"#utility.yul\":3227:3306   */\n  tag_79\n  tag_12\n  jump\t// in\ntag_79:\n    /* \"#utility.yul\":3191:3308   */\ntag_78:\n    /* \"#utility.yul\":3332:3406   */\n  tag_80\n    /* \"#utility.yul\":3398:3405   */\n  dup6\n    /* \"#utility.yul\":3389:3395   */\n  dup3\n    /* \"#utility.yul\":3378:3387   */\n  dup7\n    /* \"#utility.yul\":3374:3396   */\n  add\n    /* \"#utility.yul\":3332:3406   */\n  tag_22\n  jump\t// in\ntag_80:\n    /* \"#utility.yul\":3322:3406   */\n  swap2\n  pop\n    /* \"#utility.yul\":3124:3416   */\n  pop\n    /* \"#utility.yul\":2570:3423   */\n  swap3\n  pop\n  swap3\n  swap1\n  pop\n  jump\t// out\n    /* \"#utility.yul\":3429:3528   */\ntag_23:\n    /* \"#utility.yul\":3481:3487   */\n  0x00\n    /* \"#utility.yul\":3515:3520   */\n  dup2\n    /* \"#utility.yul\":3509:3521   */\n  mload\n    /* \"#utility.yul\":3499:3521   */\n  swap1\n  pop\n    /* \"#utility.yul\":3429:3528   */\n  swap2\n  swap1\n  pop\n  jump\t// out\n    /* \"#utility.yul\":3534:3714   */\ntag_24:\n    /* \"#utility.yul\":3582:3659   */\n  0x4e487b7100000000000000000000000000000000000000000000000000000000\n    /* \"#utility.yul\":3579:3580   */\n  0x00\n    /* \"#utility.yul\":3572:3660   */\n  mstore\n    /* \"#utility.yul\":3679:3683   */\n  0x22\n    /* \"#utility.yul\":3676:3677   */\n  0x04\n    /* \"#utility.yul\":3669:3684   */\n  mstore\n    /* \"#utility.yul\":3703:3707   */\n  0x24\n    /* \"#utility.yul\":3700:3701   */\n  0x00\n    /* \"#utility.yul\":3693:3708   */\n  revert\n    /* \"#utility.yul\":3720:4040   */\ntag_25:\n    /* \"#utility.yul\":3764:3770   */\n  0x00\n    /* \"#utility.yul\":3801:3802   */\n  0x02\n    /* \"#utility.yul\":3795:3799   */\n  dup3\n    /* \"#utility.yul\":3791:3803   */\n  div\n    /* \"#utility.yul\":3781:3803   */\n  swap1\n  pop\n    /* \"#utility.yul\":3848:3849   */\n  0x01\n    /* \"#utility.yul\":3842:3846   */\n  dup3\n    /* \"#utility.yul\":3838:3850   */\n  and\n    /* \"#utility.yul\":3869:3887   */\n  dup1\n    /* \"#utility.yul\":3859:3940   */\n  tag_84\n  jumpi\n    /* \"#utility.yul\":3925:3929   */\n  0x7f\n    /* \"#utility.yul\":3917:3923   */\n  dup3\n    /* \"#utility.yul\":3913:3930   */\n  and\n    /* \"#utility.yul\":3903:3930   */\n  swap2\n  pop\n    /* \"#utility.yul\":3859:3940   */\ntag_84:\n    /* \"#utility.yul\":3987:3989   */\n  0x20\n    /* \"#utility.yul\":3979:3985   */\n  dup3\n    /* \"#utility.yul\":3976:3990   */\n  lt\n    /* \"#utility.yul\":3956:3974   */\n  dup2\n    /* \"#utility.yul\":3953:3991   */\n  sub\n    /* \"#utility.yul\":3950:4034   */\n  tag_85\n  jumpi\n    /* \"#utility.yul\":4006:4024   */\n  tag_86\n  tag_24\n  jump\t// in\ntag_86:\n    /* \"#utility.yul\":3950:4034   */\ntag_85:\n    /* \"#utility.yul\":3771:4040   */\n  pop\n    /* \"#utility.yul\":3720:4040   */\n  swap2\n  swap1\n  pop\n  jump\t// out\n    /* \"#utility.yul\":4046:4187   */\ntag_26:\n    /* \"#utility.yul\":4095:4099   */\n  0x00\n    /* \"#utility.yul\":4118:4121   */\n  dup2\n    /* \"#utility.yul\":4110:4121   */\n  swap1\n  pop\n    /* \"#utility.yul\":4141:4144   */\n  dup2\n    /* \"#utility.yul\":4138:4139   */\n  0x00\n    /* \"#utility.yul\":4131:4145   */\n  mstore\n    /* \"#utility.yul\":4175:4179   */\n  0x20\n    /* \"#utility.yul\":4172:4173   */\n  0x00\n    /* \"#utility.yul\":4162:4180   */\n  keccak256\n    /* \"#utility.yul\":4154:4180   */\n  swap1\n  pop\n    /* \"#utility.yul\":4046:4187   */\n  swap2\n  swap1\n  pop\n  jump\t// out\n    /* \"#utility.yul\":4193:4286   */\ntag_27:\n    /* \"#utility.yul\":4230:4236   */\n  0x00\n    /* \"#utility.yul\":4277:4279   */\n  0x20\n    /* \"#utility.yul\":4272:4274   */\n  0x1f\n    /* \"#utility.yul\":4265:4270   */\n  dup4\n    /* \"#utility.yul\":4261:4275   */\n  add\n    /* \"#utility.yul\":4257:4280   */\n  div\n    /* \"#utility.yul\":4247:4280   */\n  swap1\n  pop\n    /* \"#utility.yul\":4193:4286   */\n  swap2\n  swap1\n  pop\n  jump\t// out\n    /* \"#utility.yul\":4292:4399   */\ntag_28:\n    /* \"#utility.yul\":4336:4344   */\n  0x00\n    /* \"#utility.yul\":4386:4391   */\n  dup3\n    /* \"#utility.yul\":4380:4384   */\n  dup3\n    /* \"#utility.yul\":4376:4392   */\n  shl\n    /* \"#utility.yul\":4355:4392   */\n  swap1\n  pop\n    /* \"#utility.yul\":4292:4399   */\n  swap3\n  swap2\n  pop\n  pop\n  jump\t// out\n    /* \"#utility.yul\":4405:4798   */\ntag_29:\n    /* \"#utility.yul\":4474:4480   */\n  0x00\n    /* \"#utility.yul\":4524:4525   */\n  0x08\n    /* \"#utility.yul\":4512:4522   */\n  dup4\n    /* \"#utility.yul\":4508:4526   */\n  mul\n    /* \"#utility.yul\":4547:4644   */\n  tag_91\n    /* \"#utility.yul\":4577:4643   */\n  0xffffffffffffffffffffffffffffffffffffffffffffffffffffffffffffffff\n    /* \"#utility.yul\":4566:4575   */\n  dup3\n    /* \"#utility.yul\":4547:4644   */\n  tag_28\n  jump\t// in\ntag_91:\n    /* \"#utility.yul\":4665:4704   */\n  tag_92\n    /* \"#utility.yul\":4695:4703   */\n  dup7\n    /* \"#utility.yul\":4684:4693   */\n  dup4\n    /* \"#utility.yul\":4665:4704   */\n  tag_28\n  jump\t// in\ntag_92:\n    /* \"#utility.yul\":4653:4704   */\n  swap6\n  pop\n    /* \"#utility.yul\":4737:4741   */\n  dup1\n    /* \"#utility.yul\":4733:4742   */\n  not\n    /* \"#utility.yul\":4726:4731   */\n  dup5\n    /* \"#utility.yul\":4722:4743   */\n  and\n    /* \"#utility.yul\":4713:4743   */\n  swap4\n  pop\n    /* \"#utility.yul\":4786:4790   */\n  dup1\n    /* \"#utility.yul\":4776:4784   */\n  dup7\n    /* \"#utility.yul\":4772:4791   */\n  and\n    /* \"#utility.yul\":4765:4770   */\n  dup5\n    /* \"#utility.yul\":4762:4792   */\n  or\n    /* \"#utility.yul\":4752:4792   */\n  swap3\n  pop\n    /* \"#utility.yul\":4481:4798   */\n  pop\n  pop\n    /* \"#utility.yul\":4405:4798   */\n  swap4\n  swap3\n  pop\n  pop\n  pop\n  jump\t// out\n    /* \"#utility.yul\":4804:4881   */\ntag_30:\n    /* \"#utility.yul\":4841:4848   */\n  0x00\n    /* \"#utility.yul\":4870:4875   */\n  dup2\n    /* \"#utility.yul\":4859:4875   */\n  swap1\n  pop\n    /* \"#utility.yul\":4804:4881   */\n  swap2\n  swap1\n  pop\n  jump\t// out\n    /* \"#utility.yul\":4887:4947   */\ntag_31:\n    /* \"#utility.yul\":4915:4918   */\n  0x00\n    /* \"#utility.yul\":4936:4941   */\n  dup2\n    /* \"#utility.yul\":4929:4941   */\n  swap1\n  pop\n    /* \"#utility.yul\":4887:4947   */\n  swap2\n  swap1\n  pop\n  jump\t// out\n    /* \"#utility.yul\":4953:5095   */\ntag_32:\n    /* \"#utility.yul\":5003:5012   */\n  0x00\n    /* \"#utility.yul\":5036:5089   */\n  tag_96\n    /* \"#utility.yul\":5054:5088   */\n  tag_97\n    /* \"#utility.yul\":5063:5087   */\n  tag_98\n    /* \"#utility.yul\":5081:5086   */\n  dup5\n    /* \"#utility.yul\":5063:5087   */\n  tag_30\n  jump\t// in\ntag_98:\n    /* \"#utility.yul\":5054:5088   */\n  tag_31\n  jump\t// in\ntag_97:\n    /* \"#utility.yul\":5036:5089   */\n  tag_30\n  jump\t// in\ntag_96:\n    /* \"#utility.yul\":5023:5089   */\n  swap1\n  pop\n    /* \"#utility.yul\":4953:5095   */\n  swap2\n  swap1\n  pop\n  jump\t// out\n    /* \"#utility.yul\":5101:5176   */\ntag_33:\n    /* \"#utility.yul\":5144:5147   */\n  0x00\n    /* \"#utility.yul\":5165:5170   */\n  dup2\n    /* \"#utility.yul\":5158:5170   */\n  swap1\n  pop\n    /* \"#utility.yul\":5101:5176   */\n  swap2\n  swap1\n  pop\n  jump\t// out\n    /* \"#utility.yul\":5182:5451   */\ntag_34:\n    /* \"#utility.yul\":5292:5331   */\n  tag_101\n    /* \"#utility.yul\":5323:5330   */\n  dup4\n    /* \"#utility.yul\":5292:5331   */\n  tag_32\n  jump\t// in\ntag_101:\n    /* \"#utility.yul\":5353:5444   */\n  tag_102\n    /* \"#utility.yul\":5402:5443   */\n  tag_103\n    /* \"#utility.yul\":5426:5442   */\n  dup3\n    /* \"#utility.yul\":5402:5443   */\n  tag_33\n  jump\t// in\ntag_103:\n    /* \"#utility.yul\":5394:5400   */\n  dup5\n    /* \"#utility.yul\":5387:5391   */\n  dup5\n    /* \"#utility.yul\":5381:5392   */\n  sload\n    /* \"#utility.yul\":5353:5444   */\n  tag_29\n  jump\t// in\ntag_102:\n    /* \"#utility.yul\":5347:5351   */\n  dup3\n    /* \"#utility.yul\":5340:5445   */\n  sstore\n    /* \"#utility.yul\":5258:5451   */\n  pop\n    /* \"#utility.yul\":5182:5451   */\n  pop\n  pop\n  pop\n  jump\t// out\n    /* \"#utility.yul\":5457:5530   */\ntag_35:\n    /* \"#utility.yul\":5502:5505   */\n  0x00\n    /* \"#utility.yul\":5457:5530   */\n  swap1\n  jump\t// out\n    /* \"#utility.yul\":5536:5725   */\ntag_36:\n    /* \"#utility.yul\":5613:5645   */\n  tag_106\n  tag_35\n  jump\t// in\ntag_106:\n    /* \"#utility.yul\":5654:5719   */\n  tag_107\n    /* \"#utility.yul\":5712:5718   */\n  dup2\n    /* \"#utility.yul\":5704:5710   */\n  dup5\n    /* \"#utility.yul\":5698:5702   */\n  dup5\n    /* \"#utility.yul\":5654:5719   */\n  tag_34\n  jump\t// in\ntag_107:\n    /* \"#utility.yul\":5589:5725   */\n  pop\n    /* \"#utility.yul\":5536:5725   */\n  pop\n  pop\n  jump\t// out\n    /* \"#utility.yul\":5731:5917   */\ntag_37:\n    /* \"#utility.yul\":5791:5911   */\ntag_109:\n    /* \"#utility.yul\":5808:5811   */\n  dup2\n    /* \"#utility.yul\":5801:5806   */\n  dup2\n    /* \"#utility.yul\":5798:5812   */\n  lt\n    /* \"#utility.yul\":5791:5911   */\n  iszero\n  tag_111\n  jumpi\n    /* \"#utility.yul\":5862:5901   */\n  tag_112\n    /* \"#utility.yul\":5899:5900   */\n  0x00\n    /* \"#utility.yul\":5892:5897   */\n  dup3\n    /* \"#utility.yul\":5862:5901   */\n  tag_36\n  jump\t// in\ntag_112:\n    /* \"#utility.yul\":5835:5836   */\n  0x01\n    /* \"#utility.yul\":5828:5833   */\n  dup2\n    /* \"#utility.yul\":5824:5837   */\n  add\n    /* \"#utility.yul\":5815:5837   */\n  swap1\n  pop\n    /* \"#utility.yul\":5791:5911   */\n  jump(tag_109)\ntag_111:\n    /* \"#utility.yul\":5731:5917   */\n  pop\n  pop\n  jump\t// out\n    /* \"#utility.yul\":5923:6466   */\ntag_38:\n    /* \"#utility.yul\":6024:6026   */\n  0x1f\n    /* \"#utility.yul\":6019:6022   */\n  dup3\n    /* \"#utility.yul\":6016:6027   */\n  gt\n    /* \"#utility.yul\":6013:6459   */\n  iszero\n  tag_114\n  jumpi\n    /* \"#utility.yul\":6058:6096   */\n  tag_115\n    /* \"#utility.yul\":6090:6095   */\n  dup2\n    /* \"#utility.yul\":6058:6096   */\n  tag_26\n  jump\t// in\ntag_115:\n    /* \"#utility.yul\":6142:6171   */\n  tag_116\n    /* \"#utility.yul\":6160:6170   */\n  dup5\n    /* \"#utility.yul\":6142:6171   */\n  tag_27\n  jump\t// in\ntag_116:\n    /* \"#utility.yul\":6132:6140   */\n  dup2\n    /* \"#utility.yul\":6128:6172   */\n  add\n    /* \"#utility.yul\":6325:6327   */\n  0x20\n    /* \"#utility.yul\":6313:6323   */\n  dup6\n    /* \"#utility.yul\":6310:6328   */\n  lt\n    /* \"#utility.yul\":6307:6356   */\n  iszero\n  tag_117\n  jumpi\n    /* \"#utility.yul\":6346:6354   */\n  dup2\n    /* \"#utility.yul\":6331:6354   */\n  swap1\n  pop\n    /* \"#utility.yul\":6307:6356   */\ntag_117:\n    /* \"#utility.yul\":6369:6449   */\n  tag_118\n    /* \"#utility.yul\":6425:6447   */\n  tag_119\n    /* \"#utility.yul\":6443:6446   */\n  dup6\n    /* \"#utility.yul\":6425:6447   */\n  tag_27\n  jump\t// in\ntag_119:\n    /* \"#utility.yul\":6415:6423   */\n  dup4\n    /* \"#utility.yul\":6411:6448   */\n  add\n    /* \"#utility.yul\":6398:6409   */\n  dup3\n    /* \"#utility.yul\":6369:6449   */\n  tag_37\n  jump\t// in\ntag_118:\n    /* \"#utility.yul\":6028:6459   */\n  pop\n  pop\n    /* \"#utility.yul\":6013:6459   */\ntag_114:\n    /* \"#utility.yul\":5923:6466   */\n  pop\n  pop\n  pop\n  jump\t// out\n    /* \"#utility.yul\":6472:6589   */\ntag_39:\n    /* \"#utility.yul\":6526:6534   */\n  0x00\n    /* \"#utility.yul\":6576:6581   */\n  dup3\n    /* \"#utility.yul\":6570:6574   */\n  dup3\n    /* \"#utility.yul\":6566:6582   */\n  shr\n    /* \"#utility.yul\":6545:6582   */\n  swap1\n  pop\n    /* \"#utility.yul\":6472:6589   */\n  swap3\n  swap2\n  pop\n  pop\n  jump\t// out\n    /* \"#utility.yul\":6595:6764   */\ntag_40:\n    /* \"#utility.yul\":6639:6645   */\n  0x00\n    /* \"#utility.yul\":6672:6723   */\n  tag_122\n    /* \"#utility.yul\":6720:6721   */\n  0x00\n    /* \"#utility.yul\":6716:6722   */\n  not\n    /* \"#utility.yul\":6708:6713   */\n  dup5\n    /* \"#utility.yul\":6705:6706   */\n  0x08\n    /* \"#utility.yul\":6701:6714   */\n  mul\n    /* \"#utility.yul\":6672:6723   */\n  tag_39\n  jump\t// in\ntag_122:\n    /* \"#utility.yul\":6668:6724   */\n  not\n    /* \"#utility.yul\":6753:6757   */\n  dup1\n    /* \"#utility.yul\":6747:6751   */\n  dup4\n    /* \"#utility.yul\":6743:6758   */\n  and\n    /* \"#utility.yul\":6733:6758   */\n  swap2\n  pop\n    /* \"#utility.yul\":6646:6764   */\n  pop\n    /* \"#utility.yul\":6595:6764   */\n  swap3\n  swap2\n  pop\n  pop\n  jump\t// out\n    /* \"#utility.yul\":6769:7064   */\ntag_41:\n    /* \"#utility.yul\":6845:6849   */\n  0x00\n    /* \"#utility.yul\":6991:7020   */\n  tag_124\n    /* \"#utility.yul\":7016:7019   */\n  dup4\n    /* \"#utility.yul\":7010:7014   */\n  dup4\n    /* \"#utility.yul\":6991:7020   */\n  tag_40\n  jump\t// in\ntag_124:\n    /* \"#utility.yul\":6983:7020   */\n  swap2\n  pop\n    /* \"#utility.yul\":7053:7056   */\n  dup3\n    /* \"#utility.yul\":7050:7051   */\n  0x02\n    /* \"#utility.yul\":7046:7057   */\n  mul\n    /* \"#utility.yul\":7040:7044   */\n  dup3\n    /* \"#utility.yul\":7037:7058   */\n  or\n    /* \"#utility.yul\":7029:7058   */\n  swap1\n  pop\n    /* \"#utility.yul\":6769:7064   */\n  swap3\n  swap2\n  pop\n  pop\n  jump\t// out\n    /* \"#utility.yul\":7069:8464   */\ntag_7:\n    /* \"#utility.yul\":7186:7223   */\n  tag_126\n    /* \"#utility.yul\":7219:7222   */\n  dup3\n    /* \"#utility.yul\":7186:7223   */\n  tag_23\n  jump\t// in\ntag_126:\n    /* \"#utility.yul\":7288:7306   */\n  0xffffffffffffffff\n    /* \"#utility.yul\":7280:7286   */\n  dup2\n    /* \"#utility.yul\":7277:7307   */\n  gt\n    /* \"#utility.yul\":7274:7330   */\n  iszero\n  tag_127\n  jumpi\n    /* \"#utility.yul\":7310:7328   */\n  tag_128\n  tag_16\n  jump\t// in\ntag_128:\n    /* \"#utility.yul\":7274:7330   */\ntag_127:\n    /* \"#utility.yul\":7354:7392   */\n  tag_129\n    /* \"#utility.yul\":7386:7390   */\n  dup3\n    /* \"#utility.yul\":7380:7391   */\n  sload\n    /* \"#utility.yul\":7354:7392   */\n  tag_25\n  jump\t// in\ntag_129:\n    /* \"#utility.yul\":7439:7506   */\n  tag_130\n    /* \"#utility.yul\":7499:7505   */\n  dup3\n    /* \"#utility.yul\":7491:7497   */\n  dup3\n    /* \"#utility.yul\":7485:7489   */\n  dup6\n    /* \"#utility.yul\":7439:7506   */\n  tag_38\n  jump\t// in\ntag_130:\n    /* \"#utility.yul\":7533:7534   */\n  0x00\n    /* \"#utility.yul\":7557:7561   */\n  0x20\n    /* \"#utility.yul\":7544:7561   */\n  swap1\n  pop\n    /* \"#utility.yul\":7589:7591   */\n  0x1f\n    /* \"#utility.yul\":7581:7587   */\n  dup4\n    /* \"#utility.yul\":7578:7592   */\n  gt\n    /* \"#utility.yul\":7606:7607   */\n  0x01\n    /* \"#utility.yul\":7601:8219   */\n  dup2\n  eq\n  tag_132\n  jumpi\n    /* \"#utility.yul\":8263:8264   */\n  0x00\n    /* \"#utility.yul\":8280:8286   */\n  dup5\n    /* \"#utility.yul\":8277:8354   */\n  iszero\n  tag_133\n  jumpi\n    /* \"#utility.yul\":8329:8338   */\n  dup3\n    /* \"#utility.yul\":8324:8327   */\n  dup8\n    /* \"#utility.yul\":8320:8339   */\n  add\n    /* \"#utility.yul\":8314:8340   */\n  mload\n    /* \"#utility.yul\":8305:8340   */\n  swap1\n  pop\n    /* \"#utility.yul\":8277:8354   */\ntag_133:\n    /* \"#utility.yul\":8380:8447   */\n  tag_134\n    /* \"#utility.yul\":8440:8446   */\n  dup6\n    /* \"#utility.yul\":8433:8438   */\n  dup3\n    /* \"#utility.yul\":8380:8447   */\n  tag_41\n  jump\t// in\ntag_134:\n    /* \"#utility.yul\":8374:8378   */\n  dup7\n    /* \"#utility.yul\":8367:8448   */\n  sstore\n    /* \"#utility.yul\":8236:8458   */\n  pop\n    /* \"#utility.yul\":7571:8458   */\n  jump(tag_131)\n    /* \"#utility.yul\":7601:8219   */\ntag_132:\n    /* \"#utility.yul\":7653:7657   */\n  0x1f\n    /* \"#utility.yul\":7649:7658   */\n  not\n    /* \"#utility.yul\":7641:7647   */\n  dup5\n    /* \"#utility.yul\":7637:7659   */\n  and\n    /* \"#utility.yul\":7687:7724   */\n  tag_135\n    /* \"#utility.yul\":7719:7723   */\n  dup7\n    /* \"#utility.yul\":7687:7724   */\n  tag_26\n  jump\t// in\ntag_135:\n    /* \"#utility.yul\":7746:7747   */\n  0x00\n    /* \"#utility.yul\":7760:7968   */\ntag_136:\n    /* \"#utility.yul\":7774:7781   */\n  dup3\n    /* \"#utility.yul\":7771:7772   */\n  dup2\n    /* \"#utility.yul\":7768:7782   */\n  lt\n    /* \"#utility.yul\":7760:7968   */\n  iszero\n  tag_138\n  jumpi\n    /* \"#utility.yul\":7853:7862   */\n  dup5\n    /* \"#utility.yul\":7848:7851   */\n  dup10\n    /* \"#utility.yul\":7844:7863   */\n  add\n    /* \"#utility.yul\":7838:7864   */\n  mload\n    /* \"#utility.yul\":7830:7836   */\n  dup3\n    /* \"#utility.yul\":7823:7865   */\n  sstore\n    /* \"#utility.yul\":7904:7905   */\n  0x01\n    /* \"#utility.yul\":7896:7902   */\n  dup3\n    /* \"#utility.yul\":7892:7906   */\n  add\n    /* \"#utility.yul\":7882:7906   */\n  swap2\n  pop\n    /* \"#utility.yul\":7951:7953   */\n  0x20\n    /* \"#utility.yul\":7940:7949   */\n  dup6\n    /* \"#utility.yul\":7936:7954   */\n  add\n    /* \"#utility.yul\":7923:7954   */\n  swap5\n  pop\n    /* \"#utility.yul\":7797:7801   */\n  0x20\n    /* \"#utility.yul\":7794:7795   */\n  dup2\n    /* \"#utility.yul\":7790:7802   */\n  add\n    /* \"#utility.yul\":7785:7802   */\n  swap1\n  pop\n    /* \"#utility.yul\":7760:7968   */\n  jump(tag_136)\ntag_138:\n    /* \"#utility.yul\":7996:8002   */\n  dup7\n    /* \"#utility.yul\":7987:7994   */\n  dup4\n    /* \"#utility.yul\":7984:8003   */\n  lt\n    /* \"#utility.yul\":7981:8160   */\n  iszero\n  tag_139\n  jumpi\n    /* \"#utility.yul\":8054:8063   */\n  dup5\n    /* \"#utility.yul\":8049:8052   */\n  dup10\n    /* \"#utility.yul\":8045:8064   */\n  add\n    /* \"#utility.yul\":8039:8065   */\n  mload\n    /* \"#utility.yul\":8097:8145   */\n  tag_140\n    /* \"#utility.yul\":8139:8143   */\n  0x1f\n    /* \"#utility.yul\":8131:8137   */\n  dup10\n    /* \"#utility.yul\":8127:8144   */\n  and\n    /* \"#utility.yul\":8116:8125   */\n  dup3\n    /* \"#utility.yul\":8097:8145   */\n  tag_40\n  jump\t// in\ntag_140:\n    /* \"#utility.yul\":8089:8095   */\n  dup4\n    /* \"#utility.yul\":8082:8146   */\n  sstore\n    /* \"#utility.yul\":8004:8160   */\n  pop\n    /* \"#utility.yul\":7981:8160   */\ntag_139:\n    /* \"#utility.yul\":8206:8207   */\n  0x01\n    /* \"#utility.yul\":8202:8203   */\n  0x02\n    /* \"#utility.yul\":8194:8200   */\n  dup9\n    /* \"#utility.yul\":8190:8204   */\n  mul\n    /* \"#utility.yul\":8186:8208   */\n  add\n    /* \"#utility.yul\":8180:8184   */\n  dup9\n    /* \"#utility.yul\":8173:8209   */\n  sstore\n    /* \"#utility.yul\":7608:8219   */\n  pop\n  pop\n  pop\n    /* \"#utility.yul\":7571:8458   */\ntag_131:\n  pop\n    /* \"#utility.yul\":7161:8464   */\n  pop\n  pop\n  pop\n    /* \"#utility.yul\":7069:8464   */\n  pop\n  pop\n  jump\t// out\n    /* \"contracts/IERC1155/ERC1155.sol\":341:11261  contract ERC1155 is IERC165, IERC1155, IERC1155MetadataURI {... */\ntag_9:\n  dataSize(sub_0)\n  dup1\n  dataOffset(sub_0)\n  0x00\n  codecopy\n  0x00\n  return\nstop\n\nsub_0: assembly {\n        /* \"contracts/IERC1155/ERC1155.sol\":341:11261  contract ERC1155 is IERC165, IERC1155, IERC1155MetadataURI {... */\n      mstore(0x40, 0x80)\n      callvalue\n      dup1\n      iszero\n      tag_1\n      jumpi\n      0x00\n      dup1\n      revert\n    tag_1:\n      pop\n      jumpi(tag_2, lt(calldatasize, 0x04))\n      shr(0xe0, calldataload(0x00))\n      dup1\n      0x4e1273f4\n      gt\n      tag_13\n      jumpi\n      dup1\n      0x4e1273f4\n      eq\n      tag_8\n      jumpi\n      dup1\n      0x95d89b41\n      eq\n      tag_9\n      jumpi\n      dup1\n      0xa22cb465\n      eq\n      tag_10\n      jumpi\n      dup1\n      0xe985e9c5\n      eq\n      tag_11\n      jumpi\n      dup1\n      0xf242432a\n      eq\n      tag_12\n      jumpi\n      jump(tag_2)\n    tag_13:\n      dup1\n      0xfdd58e\n      eq\n      tag_3\n      jumpi\n      dup1\n      0x01ffc9a7\n      eq\n      tag_4\n      jumpi\n      dup1\n      0x06fdde03\n      eq\n      tag_5\n      jumpi\n      dup1\n      0x0e89341c\n      eq\n      tag_6\n      jumpi\n      dup1\n      0x2eb2c2d6\n      eq\n      tag_7\n      jumpi\n    tag_2:\n      0x00\n      dup1\n      revert\n        /* \"contracts/IERC1155/ERC1155.sol\":1658:1888  function balanceOf(address account, uint256 id) public view virtual override returns (uint256) {... */\n    tag_3:\n      tag_14\n      0x04\n      dup1\n      calldatasize\n      sub\n      dup2\n      add\n      swap1\n      tag_15\n      swap2\n      swap1\n      tag_16\n      jump\t// in\n    tag_15:\n      tag_17\n      jump\t// in\n    tag_14:\n      mload(0x40)\n      tag_18\n      swap2\n      swap1\n      tag_19\n      jump\t// in\n    tag_18:\n      mload(0x40)\n      dup1\n      swap2\n      sub\n      swap1\n      return\n        /* \"contracts/IERC1155/ERC1155.sol\":1231:1528  function supportsInterface(bytes4 interfaceId) public view virtual override returns (bool) {... */\n    tag_4:\n      tag_20\n      0x04\n      dup1\n      calldatasize\n      sub\n      dup2\n      add\n      swap1\n      tag_21\n      swap2\n      swap1\n      tag_22\n      jump\t// in\n    tag_21:\n      tag_23\n      jump\t// in\n    tag_20:\n      mload(0x40)\n      tag_24\n      swap2\n      swap1\n      tag_25\n      jump\t// in\n    tag_24:\n      mload(0x40)\n      dup1\n      swap2\n      sub\n      swap1\n      return\n        /* \"contracts/IERC1155/ERC1155.sol\":577:595  string public name */\n    tag_5:\n      tag_26\n      tag_27\n      jump\t// in\n    tag_26:\n      mload(0x40)\n      tag_28\n      swap2\n      swap1\n      tag_29\n      jump\t// in\n    tag_28:\n      mload(0x40)\n      dup1\n      swap2\n      sub\n      swap1\n      return\n        /* \"contracts/IERC1155/ERC1155.sol\":10809:11039  function uri(uint256 id) public view virtual override returns (string memory) {... */\n    tag_6:\n      tag_30\n      0x04\n      dup1\n      calldatasize\n      sub\n      dup2\n      add\n      swap1\n      tag_31\n      swap2\n      swap1\n      tag_32\n      jump\t// in\n    tag_31:\n      tag_33\n      jump\t// in\n    tag_30:\n      mload(0x40)\n      tag_34\n      swap2\n      swap1\n      tag_29\n      jump\t// in\n    tag_34:\n      mload(0x40)\n      dup1\n      swap2\n      sub\n      swap1\n      return\n        /* \"contracts/IERC1155/ERC1155.sol\":5023:6304  function safeBatchTransferFrom(... */\n    tag_7:\n      tag_35\n      0x04\n      dup1\n      calldatasize\n      sub\n      dup2\n      add\n      swap1\n      tag_36\n      swap2\n      swap1\n      tag_37\n      jump\t// in\n    tag_36:\n      tag_38\n      jump\t// in\n    tag_35:\n      stop\n        /* \"contracts/IERC1155/ERC1155.sol\":2013:2504  function balanceOfBatch(address[] memory accounts, uint256[] memory ids)... */\n    tag_8:\n      tag_39\n      0x04\n      dup1\n      calldatasize\n      sub\n      dup2\n      add\n      swap1\n      tag_40\n      swap2\n      swap1\n      tag_41\n      jump\t// in\n    tag_40:\n      tag_42\n      jump\t// in\n    tag_39:\n      mload(0x40)\n      tag_43\n      swap2\n      swap1\n      tag_44\n      jump\t// in\n    tag_43:\n      mload(0x40)\n      dup1\n      swap2\n      sub\n      swap1\n      return\n        /* \"contracts/IERC1155/ERC1155.sol\":622:642  string public symbol */\n    tag_9:\n      tag_45\n      tag_46\n      jump\t// in\n    tag_45:\n      mload(0x40)\n      tag_47\n      swap2\n      swap1\n      tag_29\n      jump\t// in\n    tag_47:\n      mload(0x40)\n      dup1\n      swap2\n      sub\n      swap1\n      return\n        /* \"contracts/IERC1155/ERC1155.sol\":2680:2983  function setApprovalForAll(address operator, bool approved) public virtual override {... */\n    tag_10:\n      tag_48\n      0x04\n      dup1\n      calldatasize\n      sub\n      dup2\n      add\n      swap1\n      tag_49\n      swap2\n      swap1\n      tag_50\n      jump\t// in\n    tag_49:\n      tag_51\n      jump\t// in\n    tag_48:\n      stop\n        /* \"contracts/IERC1155/ERC1155.sol\":3042:3210  function isApprovedForAll(address account, address operator) public view virtual override returns (bool) {... */\n    tag_11:\n      tag_52\n      0x04\n      dup1\n      calldatasize\n      sub\n      dup2\n      add\n      swap1\n      tag_53\n      swap2\n      swap1\n      tag_54\n      jump\t// in\n    tag_53:\n      tag_55\n      jump\t// in\n    tag_52:\n      mload(0x40)\n      tag_56\n      swap2\n      swap1\n      tag_25\n      jump\t// in\n    tag_56:\n      mload(0x40)\n      dup1\n      swap2\n      sub\n      swap1\n      return\n        /* \"contracts/IERC1155/ERC1155.sol\":3565:4601  function safeTransferFrom(... */\n    tag_12:\n      tag_57\n      0x04\n      dup1\n      calldatasize\n      sub\n      dup2\n      add\n      swap1\n      tag_58\n      swap2\n      swap1\n      tag_59\n      jump\t// in\n    tag_58:\n      tag_60\n      jump\t// in\n    tag_57:\n      stop\n        /* \"contracts/IERC1155/ERC1155.sol\":1658:1888  function balanceOf(address account, uint256 id) public view virtual override returns (uint256) {... */\n    tag_17:\n        /* \"contracts/IERC1155/ERC1155.sol\":1744:1751  uint256 */\n      0x00\n        /* \"contracts/IERC1155/ERC1155.sol\":1791:1792  0 */\n      dup1\n        /* \"contracts/IERC1155/ERC1155.sol\":1772:1793  account != address(0) */\n      0xffffffffffffffffffffffffffffffffffffffff\n      and\n        /* \"contracts/IERC1155/ERC1155.sol\":1772:1779  account */\n      dup4\n        /* \"contracts/IERC1155/ERC1155.sol\":1772:1793  account != address(0) */\n      0xffffffffffffffffffffffffffffffffffffffff\n      and\n      sub\n        /* \"contracts/IERC1155/ERC1155.sol\":1764:1840  require(account != address(0), \"ERC1155: address zero is not a valid owner\") */\n      tag_62\n      jumpi\n      mload(0x40)\n      0x08c379a000000000000000000000000000000000000000000000000000000000\n      dup2\n      mstore\n      0x04\n      add\n      tag_63\n      swap1\n      tag_64\n      jump\t// in\n    tag_63:\n      mload(0x40)\n      dup1\n      swap2\n      sub\n      swap1\n      revert\n    tag_62:\n        /* \"contracts/IERC1155/ERC1155.sol\":1858:1867  _balances */\n      0x02\n        /* \"contracts/IERC1155/ERC1155.sol\":1858:1871  _balances[id] */\n      0x00\n        /* \"contracts/IERC1155/ERC1155.sol\":1868:1870  id */\n      dup4\n        /* \"contracts/IERC1155/ERC1155.sol\":1858:1871  _balances[id] */\n      dup2\n      mstore\n      0x20\n      add\n      swap1\n      dup2\n      mstore\n      0x20\n      add\n      0x00\n      keccak256\n        /* \"contracts/IERC1155/ERC1155.sol\":1858:1880  _balances[id][account] */\n      0x00\n        /* \"contracts/IERC1155/ERC1155.sol\":1872:1879  account */\n      dup5\n        /* \"contracts/IERC1155/ERC1155.sol\":1858:1880  _balances[id][account] */\n      0xffffffffffffffffffffffffffffffffffffffff\n      and\n      0xffffffffffffffffffffffffffffffffffffffff\n      and\n      dup2\n      mstore\n      0x20\n      add\n      swap1\n      dup2\n      mstore\n      0x20\n      add\n      0x00\n      keccak256\n      sload\n        /* \"contracts/IERC1155/ERC1155.sol\":1851:1880  return _balances[id][account] */\n      swap1\n      pop\n        /* \"contracts/IERC1155/ERC1155.sol\":1658:1888  function balanceOf(address account, uint256 id) public view virtual override returns (uint256) {... */\n      swap3\n      swap2\n      pop\n      pop\n      jump\t// out\n        /* \"contracts/IERC1155/ERC1155.sol\":1231:1528  function supportsInterface(bytes4 interfaceId) public view virtual override returns (bool) {... */\n    tag_23:\n        /* \"contracts/IERC1155/ERC1155.sol\":1316:1320  bool */\n      0x00\n        /* \"contracts/IERC1155/ERC1155.sol\":1368:1394  type(IERC1155).interfaceId */\n      0xd9b67a2600000000000000000000000000000000000000000000000000000000\n        /* \"contracts/IERC1155/ERC1155.sol\":1353:1394  interfaceId == type(IERC1155).interfaceId */\n      not(0xffffffffffffffffffffffffffffffffffffffffffffffffffffffff)\n      and\n        /* \"contracts/IERC1155/ERC1155.sol\":1353:1364  interfaceId */\n      dup3\n        /* \"contracts/IERC1155/ERC1155.sol\":1353:1394  interfaceId == type(IERC1155).interfaceId */\n      not(0xffffffffffffffffffffffffffffffffffffffffffffffffffffffff)\n      and\n      eq\n        /* \"contracts/IERC1155/ERC1155.sol\":1353:1463  interfaceId == type(IERC1155).interfaceId ||... */\n      dup1\n      tag_66\n      jumpi\n      pop\n        /* \"contracts/IERC1155/ERC1155.sol\":1426:1463  type(IERC1155MetadataURI).interfaceId */\n      0x0e89341c00000000000000000000000000000000000000000000000000000000\n        /* \"contracts/IERC1155/ERC1155.sol\":1411:1463  interfaceId == type(IERC1155MetadataURI).interfaceId */\n      not(0xffffffffffffffffffffffffffffffffffffffffffffffffffffffff)\n      and\n        /* \"contracts/IERC1155/ERC1155.sol\":1411:1422  interfaceId */\n      dup3\n        /* \"contracts/IERC1155/ERC1155.sol\":1411:1463  interfaceId == type(IERC1155MetadataURI).interfaceId */\n      not(0xffffffffffffffffffffffffffffffffffffffffffffffffffffffff)\n      and\n      eq\n        /* \"contracts/IERC1155/ERC1155.sol\":1353:1463  interfaceId == type(IERC1155).interfaceId ||... */\n    tag_66:\n        /* \"contracts/IERC1155/ERC1155.sol\":1353:1520  interfaceId == type(IERC1155).interfaceId ||... */\n      dup1\n      tag_67\n      jumpi\n      pop\n        /* \"contracts/IERC1155/ERC1155.sol\":1495:1520  type(IERC165).interfaceId */\n      0x01ffc9a700000000000000000000000000000000000000000000000000000000\n        /* \"contracts/IERC1155/ERC1155.sol\":1480:1520  interfaceId == type(IERC165).interfaceId */\n      not(0xffffffffffffffffffffffffffffffffffffffffffffffffffffffff)\n      and\n        /* \"contracts/IERC1155/ERC1155.sol\":1480:1491  interfaceId */\n      dup3\n        /* \"contracts/IERC1155/ERC1155.sol\":1480:1520  interfaceId == type(IERC165).interfaceId */\n      not(0xffffffffffffffffffffffffffffffffffffffffffffffffffffffff)\n      and\n      eq\n        /* \"contracts/IERC1155/ERC1155.sol\":1353:1520  interfaceId == type(IERC1155).interfaceId ||... */\n    tag_67:\n        /* \"contracts/IERC1155/ERC1155.sol\":1333:1520  return... */\n      swap1\n      pop\n        /* \"contracts/IERC1155/ERC1155.sol\":1231:1528  function supportsInterface(bytes4 interfaceId) public view virtual override returns (bool) {... */\n      swap2\n      swap1\n      pop\n      jump\t// out\n        /* \"contracts/IERC1155/ERC1155.sol\":577:595  string public name */\n    tag_27:\n      0x00\n      dup1\n      sload\n      tag_68\n      swap1\n      tag_69\n      jump\t// in\n    tag_68:\n      dup1\n      0x1f\n      add\n      0x20\n      dup1\n      swap2\n      div\n      mul\n      0x20\n      add\n      mload(0x40)\n      swap1\n      dup2\n      add\n      0x40\n      mstore\n      dup1\n      swap3\n      swap2\n      swap1\n      dup2\n      dup2\n      mstore\n      0x20\n      add\n      dup3\n      dup1\n      sload\n      tag_70\n      swap1\n      tag_69\n      jump\t// in\n    tag_70:\n      dup1\n      iszero\n      tag_71\n      jumpi\n      dup1\n      0x1f\n      lt\n      tag_72\n      jumpi\n      0x0100\n      dup1\n      dup4\n      sload\n      div\n      mul\n      dup4\n      mstore\n      swap2\n      0x20\n      add\n      swap2\n      jump(tag_71)\n    tag_72:\n      dup3\n      add\n      swap2\n      swap1\n      0x00\n      mstore\n      keccak256(0x00, 0x20)\n      swap1\n    tag_73:\n      dup2\n      sload\n      dup2\n      mstore\n      swap1\n      0x01\n      add\n      swap1\n      0x20\n      add\n      dup1\n      dup4\n      gt\n      tag_73\n      jumpi\n      dup3\n      swap1\n      sub\n      0x1f\n      and\n      dup3\n      add\n      swap2\n    tag_71:\n      pop\n      pop\n      pop\n      pop\n      pop\n      dup2\n      jump\t// out\n        /* \"contracts/IERC1155/ERC1155.sol\":10809:11039  function uri(uint256 id) public view virtual override returns (string memory) {... */\n    tag_33:\n        /* \"contracts/IERC1155/ERC1155.sol\":10872:10885  string memory */\n      0x60\n        /* \"contracts/IERC1155/ERC1155.sol\":10898:10919  string memory baseURI */\n      0x00\n        /* \"contracts/IERC1155/ERC1155.sol\":10922:10932  _baseURI() */\n      tag_75\n        /* \"contracts/IERC1155/ERC1155.sol\":10922:10930  _baseURI */\n      tag_76\n        /* \"contracts/IERC1155/ERC1155.sol\":10922:10932  _baseURI() */\n      jump\t// in\n    tag_75:\n        /* \"contracts/IERC1155/ERC1155.sol\":10898:10932  string memory baseURI = _baseURI() */\n      swap1\n      pop\n        /* \"contracts/IERC1155/ERC1155.sol\":10974:10975  0 */\n      0x00\n        /* \"contracts/IERC1155/ERC1155.sol\":10956:10963  baseURI */\n      dup2\n        /* \"contracts/IERC1155/ERC1155.sol\":10950:10971  bytes(baseURI).length */\n      mload\n        /* \"contracts/IERC1155/ERC1155.sol\":10950:10975  bytes(baseURI).length > 0 */\n      gt\n        /* \"contracts/IERC1155/ERC1155.sol\":10950:11031  bytes(baseURI).length > 0 ? string(abi.encodePacked(baseURI, id.toString())) : \"\" */\n      tag_77\n      jumpi\n      mload(0x40)\n      dup1\n      0x20\n      add\n      0x40\n      mstore\n      dup1\n      0x00\n      dup2\n      mstore\n      pop\n      jump(tag_78)\n    tag_77:\n        /* \"contracts/IERC1155/ERC1155.sol\":11002:11009  baseURI */\n      dup1\n        /* \"contracts/IERC1155/ERC1155.sol\":11011:11024  id.toString() */\n      tag_79\n        /* \"contracts/IERC1155/ERC1155.sol\":11011:11013  id */\n      dup5\n        /* \"contracts/IERC1155/ERC1155.sol\":11011:11022  id.toString */\n      tag_80\n        /* \"contracts/IERC1155/ERC1155.sol\":11011:11024  id.toString() */\n      jump\t// in\n    tag_79:\n        /* \"contracts/IERC1155/ERC1155.sol\":10985:11025  abi.encodePacked(baseURI, id.toString()) */\n      add(0x20, mload(0x40))\n      tag_81\n      swap3\n      swap2\n      swap1\n      tag_82\n      jump\t// in\n    tag_81:\n      mload(0x40)\n      0x20\n      dup2\n      dup4\n      sub\n      sub\n      dup2\n      mstore\n      swap1\n      0x40\n      mstore\n        /* \"contracts/IERC1155/ERC1155.sol\":10950:11031  bytes(baseURI).length > 0 ? string(abi.encodePacked(baseURI, id.toString())) : \"\" */\n    tag_78:\n        /* \"contracts/IERC1155/ERC1155.sol\":10943:11031  return bytes(baseURI).length > 0 ? string(abi.encodePacked(baseURI, id.toString())) : \"\" */\n      swap2\n      pop\n      pop\n        /* \"contracts/IERC1155/ERC1155.sol\":10809:11039  function uri(uint256 id) public view virtual override returns (string memory) {... */\n      swap2\n      swap1\n      pop\n      jump\t// out\n        /* \"contracts/IERC1155/ERC1155.sol\":5023:6304  function safeBatchTransferFrom(... */\n    tag_38:\n        /* \"contracts/IERC1155/ERC1155.sol\":5234:5250  address operator */\n      0x00\n        /* \"contracts/IERC1155/ERC1155.sol\":5253:5263  msg.sender */\n      caller\n        /* \"contracts/IERC1155/ERC1155.sol\":5234:5263  address operator = msg.sender */\n      swap1\n      pop\n        /* \"contracts/IERC1155/ERC1155.sol\":5353:5361  operator */\n      dup1\n        /* \"contracts/IERC1155/ERC1155.sol\":5345:5361  from == operator */\n      0xffffffffffffffffffffffffffffffffffffffff\n      and\n        /* \"contracts/IERC1155/ERC1155.sol\":5345:5349  from */\n      dup7\n        /* \"contracts/IERC1155/ERC1155.sol\":5345:5361  from == operator */\n      0xffffffffffffffffffffffffffffffffffffffff\n      and\n      eq\n        /* \"contracts/IERC1155/ERC1155.sol\":5345:5397  from == operator || isApprovedForAll(from, operator) */\n      dup1\n      tag_84\n      jumpi\n      pop\n        /* \"contracts/IERC1155/ERC1155.sol\":5365:5397  isApprovedForAll(from, operator) */\n      tag_85\n        /* \"contracts/IERC1155/ERC1155.sol\":5382:5386  from */\n      dup7\n        /* \"contracts/IERC1155/ERC1155.sol\":5388:5396  operator */\n      dup3\n        /* \"contracts/IERC1155/ERC1155.sol\":5365:5381  isApprovedForAll */\n      tag_55\n        /* \"contracts/IERC1155/ERC1155.sol\":5365:5397  isApprovedForAll(from, operator) */\n      jump\t// in\n    tag_85:\n        /* \"contracts/IERC1155/ERC1155.sol\":5345:5397  from == operator || isApprovedForAll(from, operator) */\n    tag_84:\n        /* \"contracts/IERC1155/ERC1155.sol\":5323:5472  require(... */\n      tag_86\n      jumpi\n      mload(0x40)\n      0x08c379a000000000000000000000000000000000000000000000000000000000\n      dup2\n      mstore\n      0x04\n      add\n      tag_87\n      swap1\n      tag_88\n      jump\t// in\n    tag_87:\n      mload(0x40)\n      dup1\n      swap2\n      sub\n      swap1\n      revert\n    tag_86:\n        /* \"contracts/IERC1155/ERC1155.sol\":5505:5512  amounts */\n      dup3\n        /* \"contracts/IERC1155/ERC1155.sol\":5505:5519  amounts.length */\n      mload\n        /* \"contracts/IERC1155/ERC1155.sol\":5491:5494  ids */\n      dup5\n        /* \"contracts/IERC1155/ERC1155.sol\":5491:5501  ids.length */\n      mload\n        /* \"contracts/IERC1155/ERC1155.sol\":5491:5519  ids.length == amounts.length */\n      eq\n        /* \"contracts/IERC1155/ERC1155.sol\":5483:5564  require(ids.length == amounts.length, \"ERC1155: ids and amounts length mismatch\") */\n      tag_89\n      jumpi\n      mload(0x40)\n      0x08c379a000000000000000000000000000000000000000000000000000000000\n      dup2\n      mstore\n      0x04\n      add\n      tag_90\n      swap1\n      tag_91\n      jump\t// in\n    tag_90:\n      mload(0x40)\n      dup1\n      swap2\n      sub\n      swap1\n      revert\n    tag_89:\n        /* \"contracts/IERC1155/ERC1155.sol\":5597:5598  0 */\n      0x00\n        /* \"contracts/IERC1155/ERC1155.sol\":5583:5599  to != address(0) */\n      0xffffffffffffffffffffffffffffffffffffffff\n      and\n        /* \"contracts/IERC1155/ERC1155.sol\":5583:5585  to */\n      dup6\n        /* \"contracts/IERC1155/ERC1155.sol\":5583:5599  to != address(0) */\n      0xffffffffffffffffffffffffffffffffffffffff\n      and\n      sub\n        /* \"contracts/IERC1155/ERC1155.sol\":5575:5641  require(to != address(0), \"ERC1155: transfer to the zero address\") */\n      tag_92\n      jumpi\n      mload(0x40)\n      0x08c379a000000000000000000000000000000000000000000000000000000000\n      dup2\n      mstore\n      0x04\n      add\n      tag_93\n      swap1\n      tag_94\n      jump\t// in\n    tag_93:\n      mload(0x40)\n      dup1\n      swap2\n      sub\n      swap1\n      revert\n    tag_92:\n        /* \"contracts/IERC1155/ERC1155.sol\":5701:5710  uint256 i */\n      0x00\n        /* \"contracts/IERC1155/ERC1155.sol\":5696:6117  for (uint256 i = 0; i < ids.length; ++i) {... */\n    tag_95:\n        /* \"contracts/IERC1155/ERC1155.sol\":5720:5723  ids */\n      dup5\n        /* \"contracts/IERC1155/ERC1155.sol\":5720:5730  ids.length */\n      mload\n        /* \"contracts/IERC1155/ERC1155.sol\":5716:5717  i */\n      dup2\n        /* \"contracts/IERC1155/ERC1155.sol\":5716:5730  i < ids.length */\n      lt\n        /* \"contracts/IERC1155/ERC1155.sol\":5696:6117  for (uint256 i = 0; i < ids.length; ++i) {... */\n      iszero\n      tag_96\n      jumpi\n        /* \"contracts/IERC1155/ERC1155.sol\":5752:5762  uint256 id */\n      0x00\n        /* \"contracts/IERC1155/ERC1155.sol\":5765:5768  ids */\n      dup6\n        /* \"contracts/IERC1155/ERC1155.sol\":5769:5770  i */\n      dup3\n        /* \"contracts/IERC1155/ERC1155.sol\":5765:5771  ids[i] */\n      dup2\n      mload\n      dup2\n      lt\n      tag_98\n      jumpi\n      tag_99\n      tag_100\n      jump\t// in\n    tag_99:\n    tag_98:\n      0x20\n      mul\n      0x20\n      add\n      add\n      mload\n        /* \"contracts/IERC1155/ERC1155.sol\":5752:5771  uint256 id = ids[i] */\n      swap1\n      pop\n        /* \"contracts/IERC1155/ERC1155.sol\":5786:5800  uint256 amount */\n      0x00\n        /* \"contracts/IERC1155/ERC1155.sol\":5803:5810  amounts */\n      dup6\n        /* \"contracts/IERC1155/ERC1155.sol\":5811:5812  i */\n      dup4\n        /* \"contracts/IERC1155/ERC1155.sol\":5803:5813  amounts[i] */\n      dup2\n      mload\n      dup2\n      lt\n      tag_101\n      jumpi\n      tag_102\n      tag_100\n      jump\t// in\n    tag_102:\n    tag_101:\n      0x20\n      mul\n      0x20\n      add\n      add\n      mload\n        /* \"contracts/IERC1155/ERC1155.sol\":5786:5813  uint256 amount = amounts[i] */\n      swap1\n      pop\n        /* \"contracts/IERC1155/ERC1155.sol\":5830:5849  uint256 fromBalance */\n      0x00\n        /* \"contracts/IERC1155/ERC1155.sol\":5852:5861  _balances */\n      0x02\n        /* \"contracts/IERC1155/ERC1155.sol\":5852:5865  _balances[id] */\n      0x00\n        /* \"contracts/IERC1155/ERC1155.sol\":5862:5864  id */\n      dup5\n        /* \"contracts/IERC1155/ERC1155.sol\":5852:5865  _balances[id] */\n      dup2\n      mstore\n      0x20\n      add\n      swap1\n      dup2\n      mstore\n      0x20\n      add\n      0x00\n      keccak256\n        /* \"contracts/IERC1155/ERC1155.sol\":5852:5871  _balances[id][from] */\n      0x00\n        /* \"contracts/IERC1155/ERC1155.sol\":5866:5870  from */\n      dup12\n        /* \"contracts/IERC1155/ERC1155.sol\":5852:5871  _balances[id][from] */\n      0xffffffffffffffffffffffffffffffffffffffff\n      and\n      0xffffffffffffffffffffffffffffffffffffffff\n      and\n      dup2\n      mstore\n      0x20\n      add\n      swap1\n      dup2\n      mstore\n      0x20\n      add\n      0x00\n      keccak256\n      sload\n        /* \"contracts/IERC1155/ERC1155.sol\":5830:5871  uint256 fromBalance = _balances[id][from] */\n      swap1\n      pop\n        /* \"contracts/IERC1155/ERC1155.sol\":5909:5915  amount */\n      dup2\n        /* \"contracts/IERC1155/ERC1155.sol\":5894:5905  fromBalance */\n      dup2\n        /* \"contracts/IERC1155/ERC1155.sol\":5894:5915  fromBalance >= amount */\n      lt\n      iszero\n        /* \"contracts/IERC1155/ERC1155.sol\":5886:5962  require(fromBalance >= amount, \"ERC1155: insufficient balance for transfer\") */\n      tag_103\n      jumpi\n      mload(0x40)\n      0x08c379a000000000000000000000000000000000000000000000000000000000\n      dup2\n      mstore\n      0x04\n      add\n      tag_104\n      swap1\n      tag_105\n      jump\t// in\n    tag_104:\n      mload(0x40)\n      dup1\n      swap2\n      sub\n      swap1\n      revert\n    tag_103:\n        /* \"contracts/IERC1155/ERC1155.sol\":6042:6048  amount */\n      dup2\n        /* \"contracts/IERC1155/ERC1155.sol\":6028:6039  fromBalance */\n      dup2\n        /* \"contracts/IERC1155/ERC1155.sol\":6028:6048  fromBalance - amount */\n      sub\n        /* \"contracts/IERC1155/ERC1155.sol\":6006:6015  _balances */\n      0x02\n        /* \"contracts/IERC1155/ERC1155.sol\":6006:6019  _balances[id] */\n      0x00\n        /* \"contracts/IERC1155/ERC1155.sol\":6016:6018  id */\n      dup6\n        /* \"contracts/IERC1155/ERC1155.sol\":6006:6019  _balances[id] */\n      dup2\n      mstore\n      0x20\n      add\n      swap1\n      dup2\n      mstore\n      0x20\n      add\n      0x00\n      keccak256\n        /* \"contracts/IERC1155/ERC1155.sol\":6006:6025  _balances[id][from] */\n      0x00\n        /* \"contracts/IERC1155/ERC1155.sol\":6020:6024  from */\n      dup13\n        /* \"contracts/IERC1155/ERC1155.sol\":6006:6025  _balances[id][from] */\n      0xffffffffffffffffffffffffffffffffffffffff\n      and\n      0xffffffffffffffffffffffffffffffffffffffff\n      and\n      dup2\n      mstore\n      0x20\n      add\n      swap1\n      dup2\n      mstore\n      0x20\n      add\n      0x00\n      keccak256\n        /* \"contracts/IERC1155/ERC1155.sol\":6006:6048  _balances[id][from] = fromBalance - amount */\n      dup2\n      swap1\n      sstore\n      pop\n        /* \"contracts/IERC1155/ERC1155.sol\":6099:6105  amount */\n      dup2\n        /* \"contracts/IERC1155/ERC1155.sol\":6078:6087  _balances */\n      0x02\n        /* \"contracts/IERC1155/ERC1155.sol\":6078:6091  _balances[id] */\n      0x00\n        /* \"contracts/IERC1155/ERC1155.sol\":6088:6090  id */\n      dup6\n        /* \"contracts/IERC1155/ERC1155.sol\":6078:6091  _balances[id] */\n      dup2\n      mstore\n      0x20\n      add\n      swap1\n      dup2\n      mstore\n      0x20\n      add\n      0x00\n      keccak256\n        /* \"contracts/IERC1155/ERC1155.sol\":6078:6095  _balances[id][to] */\n      0x00\n        /* \"contracts/IERC1155/ERC1155.sol\":6092:6094  to */\n      dup12\n        /* \"contracts/IERC1155/ERC1155.sol\":6078:6095  _balances[id][to] */\n      0xffffffffffffffffffffffffffffffffffffffff\n      and\n      0xffffffffffffffffffffffffffffffffffffffff\n      and\n      dup2\n      mstore\n      0x20\n      add\n      swap1\n      dup2\n      mstore\n      0x20\n      add\n      0x00\n      keccak256\n      0x00\n        /* \"contracts/IERC1155/ERC1155.sol\":6078:6105  _balances[id][to] += amount */\n      dup3\n      dup3\n      sload\n      tag_106\n      swap2\n      swap1\n      tag_107\n      jump\t// in\n    tag_106:\n      swap3\n      pop\n      pop\n      dup2\n      swap1\n      sstore\n      pop\n        /* \"contracts/IERC1155/ERC1155.sol\":5737:6117  {... */\n      pop\n      pop\n      pop\n        /* \"contracts/IERC1155/ERC1155.sol\":5732:5735  ++i */\n      dup1\n      0x01\n      add\n      swap1\n      pop\n        /* \"contracts/IERC1155/ERC1155.sol\":5696:6117  for (uint256 i = 0; i < ids.length; ++i) {... */\n      jump(tag_95)\n    tag_96:\n      pop\n        /* \"contracts/IERC1155/ERC1155.sol\":6164:6166  to */\n      dup5\n        /* \"contracts/IERC1155/ERC1155.sol\":6134:6181  TransferBatch(operator, from, to, ids, amounts) */\n      0xffffffffffffffffffffffffffffffffffffffff\n      and\n        /* \"contracts/IERC1155/ERC1155.sol\":6158:6162  from */\n      dup7\n        /* \"contracts/IERC1155/ERC1155.sol\":6134:6181  TransferBatch(operator, from, to, ids, amounts) */\n      0xffffffffffffffffffffffffffffffffffffffff\n      and\n        /* \"contracts/IERC1155/ERC1155.sol\":6148:6156  operator */\n      dup3\n        /* \"contracts/IERC1155/ERC1155.sol\":6134:6181  TransferBatch(operator, from, to, ids, amounts) */\n      0xffffffffffffffffffffffffffffffffffffffff\n      and\n      0x4a39dc06d4c0dbc64b70af90fd698a233a518aa5d07e595d983b8c0526c8f7fb\n        /* \"contracts/IERC1155/ERC1155.sol\":6168:6171  ids */\n      dup8\n        /* \"contracts/IERC1155/ERC1155.sol\":6173:6180  amounts */\n      dup8\n        /* \"contracts/IERC1155/ERC1155.sol\":6134:6181  TransferBatch(operator, from, to, ids, amounts) */\n      mload(0x40)\n      tag_108\n      swap3\n      swap2\n      swap1\n      tag_109\n      jump\t// in\n    tag_108:\n      mload(0x40)\n      dup1\n      swap2\n      sub\n      swap1\n      log4\n        /* \"contracts/IERC1155/ERC1155.sol\":6217:6292  _doSafeBatchTransferAcceptanceCheck(operator, from, to, ids, amounts, data) */\n      tag_110\n        /* \"contracts/IERC1155/ERC1155.sol\":6253:6261  operator */\n      dup2\n        /* \"contracts/IERC1155/ERC1155.sol\":6263:6267  from */\n      dup8\n        /* \"contracts/IERC1155/ERC1155.sol\":6269:6271  to */\n      dup8\n        /* \"contracts/IERC1155/ERC1155.sol\":6273:6276  ids */\n      dup8\n        /* \"contracts/IERC1155/ERC1155.sol\":6278:6285  amounts */\n      dup8\n        /* \"contracts/IERC1155/ERC1155.sol\":6287:6291  data */\n      dup8\n        /* \"contracts/IERC1155/ERC1155.sol\":6217:6252  _doSafeBatchTransferAcceptanceCheck */\n      tag_111\n        /* \"contracts/IERC1155/ERC1155.sol\":6217:6292  _doSafeBatchTransferAcceptanceCheck(operator, from, to, ids, amounts, data) */\n      jump\t// in\n    tag_110:\n        /* \"contracts/IERC1155/ERC1155.sol\":5223:6304  {... */\n      pop\n        /* \"contracts/IERC1155/ERC1155.sol\":5023:6304  function safeBatchTransferFrom(... */\n      pop\n      pop\n      pop\n      pop\n      pop\n      jump\t// out\n        /* \"contracts/IERC1155/ERC1155.sol\":2013:2504  function balanceOfBatch(address[] memory accounts, uint256[] memory ids)... */\n    tag_42:\n        /* \"contracts/IERC1155/ERC1155.sol\":2142:2158  uint256[] memory */\n      0x60\n        /* \"contracts/IERC1155/ERC1155.sol\":2203:2206  ids */\n      dup2\n        /* \"contracts/IERC1155/ERC1155.sol\":2203:2213  ids.length */\n      mload\n        /* \"contracts/IERC1155/ERC1155.sol\":2184:2192  accounts */\n      dup4\n        /* \"contracts/IERC1155/ERC1155.sol\":2184:2199  accounts.length */\n      mload\n        /* \"contracts/IERC1155/ERC1155.sol\":2184:2213  accounts.length == ids.length */\n      eq\n        /* \"contracts/IERC1155/ERC1155.sol\":2176:2259  require(accounts.length == ids.length, \"ERC1155: accounts and ids length mismatch\") */\n      tag_113\n      jumpi\n      mload(0x40)\n      0x08c379a000000000000000000000000000000000000000000000000000000000\n      dup2\n      mstore\n      0x04\n      add\n      tag_114\n      swap1\n      tag_115\n      jump\t// in\n    tag_114:\n      mload(0x40)\n      dup1\n      swap2\n      sub\n      swap1\n      revert\n    tag_113:\n        /* \"contracts/IERC1155/ERC1155.sol\":2270:2300  uint256[] memory batchBalances */\n      0x00\n        /* \"contracts/IERC1155/ERC1155.sol\":2317:2325  accounts */\n      dup4\n        /* \"contracts/IERC1155/ERC1155.sol\":2317:2332  accounts.length */\n      mload\n        /* \"contracts/IERC1155/ERC1155.sol\":2303:2333  new uint256[](accounts.length) */\n      0xffffffffffffffff\n      dup2\n      gt\n      iszero\n      tag_116\n      jumpi\n      tag_117\n      tag_118\n      jump\t// in\n    tag_117:\n    tag_116:\n      mload(0x40)\n      swap1\n      dup1\n      dup3\n      mstore\n      dup1\n      0x20\n      mul\n      0x20\n      add\n      dup3\n      add\n      0x40\n      mstore\n      dup1\n      iszero\n      tag_119\n      jumpi\n      dup2\n      0x20\n      add\n      0x20\n      dup3\n      mul\n      dup1\n      calldatasize\n      dup4\n      calldatacopy\n      dup1\n      dup3\n      add\n      swap2\n      pop\n      pop\n      swap1\n      pop\n    tag_119:\n      pop\n        /* \"contracts/IERC1155/ERC1155.sol\":2270:2333  uint256[] memory batchBalances = new uint256[](accounts.length) */\n      swap1\n      pop\n        /* \"contracts/IERC1155/ERC1155.sol\":2349:2358  uint256 i */\n      0x00\n        /* \"contracts/IERC1155/ERC1155.sol\":2344:2466  for (uint256 i = 0; i < accounts.length; ++i) {... */\n    tag_120:\n        /* \"contracts/IERC1155/ERC1155.sol\":2368:2376  accounts */\n      dup5\n        /* \"contracts/IERC1155/ERC1155.sol\":2368:2383  accounts.length */\n      mload\n        /* \"contracts/IERC1155/ERC1155.sol\":2364:2365  i */\n      dup2\n        /* \"contracts/IERC1155/ERC1155.sol\":2364:2383  i < accounts.length */\n      lt\n        /* \"contracts/IERC1155/ERC1155.sol\":2344:2466  for (uint256 i = 0; i < accounts.length; ++i) {... */\n      iszero\n      tag_121\n      jumpi\n        /* \"contracts/IERC1155/ERC1155.sol\":2424:2454  balanceOf(accounts[i], ids[i]) */\n      tag_123\n        /* \"contracts/IERC1155/ERC1155.sol\":2434:2442  accounts */\n      dup6\n        /* \"contracts/IERC1155/ERC1155.sol\":2443:2444  i */\n      dup3\n        /* \"contracts/IERC1155/ERC1155.sol\":2434:2445  accounts[i] */\n      dup2\n      mload\n      dup2\n      lt\n      tag_124\n      jumpi\n      tag_125\n      tag_100\n      jump\t// in\n    tag_125:\n    tag_124:\n      0x20\n      mul\n      0x20\n      add\n      add\n      mload\n        /* \"contracts/IERC1155/ERC1155.sol\":2447:2450  ids */\n      dup6\n        /* \"contracts/IERC1155/ERC1155.sol\":2451:2452  i */\n      dup4\n        /* \"contracts/IERC1155/ERC1155.sol\":2447:2453  ids[i] */\n      dup2\n      mload\n      dup2\n      lt\n      tag_126\n      jumpi\n      tag_127\n      tag_100\n      jump\t// in\n    tag_127:\n    tag_126:\n      0x20\n      mul\n      0x20\n      add\n      add\n      mload\n        /* \"contracts/IERC1155/ERC1155.sol\":2424:2433  balanceOf */\n      tag_17\n        /* \"contracts/IERC1155/ERC1155.sol\":2424:2454  balanceOf(accounts[i], ids[i]) */\n      jump\t// in\n    tag_123:\n        /* \"contracts/IERC1155/ERC1155.sol\":2405:2418  batchBalances */\n      dup3\n        /* \"contracts/IERC1155/ERC1155.sol\":2419:2420  i */\n      dup3\n        /* \"contracts/IERC1155/ERC1155.sol\":2405:2421  batchBalances[i] */\n      dup2\n      mload\n      dup2\n      lt\n      tag_128\n      jumpi\n      tag_129\n      tag_100\n      jump\t// in\n    tag_129:\n    tag_128:\n      0x20\n      mul\n      0x20\n      add\n      add\n        /* \"contracts/IERC1155/ERC1155.sol\":2405:2454  batchBalances[i] = balanceOf(accounts[i], ids[i]) */\n      dup2\n      dup2\n      mstore\n      pop\n      pop\n        /* \"contracts/IERC1155/ERC1155.sol\":2385:2388  ++i */\n      dup1\n      0x01\n      add\n      swap1\n      pop\n        /* \"contracts/IERC1155/ERC1155.sol\":2344:2466  for (uint256 i = 0; i < accounts.length; ++i) {... */\n      jump(tag_120)\n    tag_121:\n      pop\n        /* \"contracts/IERC1155/ERC1155.sol\":2483:2496  batchBalances */\n      dup1\n        /* \"contracts/IERC1155/ERC1155.sol\":2476:2496  return batchBalances */\n      swap2\n      pop\n      pop\n        /* \"contracts/IERC1155/ERC1155.sol\":2013:2504  function balanceOfBatch(address[] memory accounts, uint256[] memory ids)... */\n      swap3\n      swap2\n      pop\n      pop\n      jump\t// out\n        /* \"contracts/IERC1155/ERC1155.sol\":622:642  string public symbol */\n    tag_46:\n      0x01\n      dup1\n      sload\n      tag_130\n      swap1\n      tag_69\n      jump\t// in\n    tag_130:\n      dup1\n      0x1f\n      add\n      0x20\n      dup1\n      swap2\n      div\n      mul\n      0x20\n      add\n      mload(0x40)\n      swap1\n      dup2\n      add\n      0x40\n      mstore\n      dup1\n      swap3\n      swap2\n      swap1\n      dup2\n      dup2\n      mstore\n      0x20\n      add\n      dup3\n      dup1\n      sload\n      tag_131\n      swap1\n      tag_69\n      jump\t// in\n    tag_131:\n      dup1\n      iszero\n      tag_132\n      jumpi\n      dup1\n      0x1f\n      lt\n      tag_133\n      jumpi\n      0x0100\n      dup1\n      dup4\n      sload\n      div\n      mul\n      dup4\n      mstore\n      swap2\n      0x20\n      add\n      swap2\n      jump(tag_132)\n    tag_133:\n      dup3\n      add\n      swap2\n      swap1\n      0x00\n      mstore\n      keccak256(0x00, 0x20)\n      swap1\n    tag_134:\n      dup2\n      sload\n      dup2\n      mstore\n      swap1\n      0x01\n      add\n      swap1\n      0x20\n      add\n      dup1\n      dup4\n      gt\n      tag_134\n      jumpi\n      dup3\n      swap1\n      sub\n      0x1f\n      and\n      dup3\n      add\n      swap2\n    tag_132:\n      pop\n      pop\n      pop\n      pop\n      pop\n      dup2\n      jump\t// out\n        /* \"contracts/IERC1155/ERC1155.sol\":2680:2983  function setApprovalForAll(address operator, bool approved) public virtual override {... */\n    tag_51:\n        /* \"contracts/IERC1155/ERC1155.sol\":2797:2805  operator */\n      dup2\n        /* \"contracts/IERC1155/ERC1155.sol\":2783:2805  msg.sender != operator */\n      0xffffffffffffffffffffffffffffffffffffffff\n      and\n        /* \"contracts/IERC1155/ERC1155.sol\":2783:2793  msg.sender */\n      caller\n        /* \"contracts/IERC1155/ERC1155.sol\":2783:2805  msg.sender != operator */\n      0xffffffffffffffffffffffffffffffffffffffff\n      and\n      sub\n        /* \"contracts/IERC1155/ERC1155.sol\":2775:2851  require(msg.sender != operator, \"ERC1155: setting approval status for self\") */\n      tag_136\n      jumpi\n      mload(0x40)\n      0x08c379a000000000000000000000000000000000000000000000000000000000\n      dup2\n      mstore\n      0x04\n      add\n      tag_137\n      swap1\n      tag_138\n      jump\t// in\n    tag_137:\n      mload(0x40)\n      dup1\n      swap2\n      sub\n      swap1\n      revert\n    tag_136:\n        /* \"contracts/IERC1155/ERC1155.sol\":2905:2913  approved */\n      dup1\n        /* \"contracts/IERC1155/ERC1155.sol\":2862:2880  _operatorApprovals */\n      0x03\n        /* \"contracts/IERC1155/ERC1155.sol\":2862:2892  _operatorApprovals[msg.sender] */\n      0x00\n        /* \"contracts/IERC1155/ERC1155.sol\":2881:2891  msg.sender */\n      caller\n        /* \"contracts/IERC1155/ERC1155.sol\":2862:2892  _operatorApprovals[msg.sender] */\n      0xffffffffffffffffffffffffffffffffffffffff\n      and\n      0xffffffffffffffffffffffffffffffffffffffff\n      and\n      dup2\n      mstore\n      0x20\n      add\n      swap1\n      dup2\n      mstore\n      0x20\n      add\n      0x00\n      keccak256\n        /* \"contracts/IERC1155/ERC1155.sol\":2862:2902  _operatorApprovals[msg.sender][operator] */\n      0x00\n        /* \"contracts/IERC1155/ERC1155.sol\":2893:2901  operator */\n      dup5\n        /* \"contracts/IERC1155/ERC1155.sol\":2862:2902  _operatorApprovals[msg.sender][operator] */\n      0xffffffffffffffffffffffffffffffffffffffff\n      and\n      0xffffffffffffffffffffffffffffffffffffffff\n      and\n      dup2\n      mstore\n      0x20\n      add\n      swap1\n      dup2\n      mstore\n      0x20\n      add\n      0x00\n      keccak256\n      0x00\n        /* \"contracts/IERC1155/ERC1155.sol\":2862:2913  _operatorApprovals[msg.sender][operator] = approved */\n      0x0100\n      exp\n      dup2\n      sload\n      dup2\n      0xff\n      mul\n      not\n      and\n      swap1\n      dup4\n      iszero\n      iszero\n      mul\n      or\n      swap1\n      sstore\n      pop\n        /* \"contracts/IERC1155/ERC1155.sol\":2956:2964  operator */\n      dup2\n        /* \"contracts/IERC1155/ERC1155.sol\":2929:2975  ApprovalForAll(msg.sender, operator, approved) */\n      0xffffffffffffffffffffffffffffffffffffffff\n      and\n        /* \"contracts/IERC1155/ERC1155.sol\":2944:2954  msg.sender */\n      caller\n        /* \"contracts/IERC1155/ERC1155.sol\":2929:2975  ApprovalForAll(msg.sender, operator, approved) */\n      0xffffffffffffffffffffffffffffffffffffffff\n      and\n      0x17307eab39ab6107e8899845ad3d59bd9653f200f220920489ca2b5937696c31\n        /* \"contracts/IERC1155/ERC1155.sol\":2966:2974  approved */\n      dup4\n        /* \"contracts/IERC1155/ERC1155.sol\":2929:2975  ApprovalForAll(msg.sender, operator, approved) */\n      mload(0x40)\n      tag_139\n      swap2\n      swap1\n      tag_25\n      jump\t// in\n    tag_139:\n      mload(0x40)\n      dup1\n      swap2\n      sub\n      swap1\n      log3\n        /* \"contracts/IERC1155/ERC1155.sol\":2680:2983  function setApprovalForAll(address operator, bool approved) public virtual override {... */\n      pop\n      pop\n      jump\t// out\n        /* \"contracts/IERC1155/ERC1155.sol\":3042:3210  function isApprovedForAll(address account, address operator) public view virtual override returns (bool) {... */\n    tag_55:\n        /* \"contracts/IERC1155/ERC1155.sol\":3141:3145  bool */\n      0x00\n        /* \"contracts/IERC1155/ERC1155.sol\":3165:3183  _operatorApprovals */\n      0x03\n        /* \"contracts/IERC1155/ERC1155.sol\":3165:3192  _operatorApprovals[account] */\n      0x00\n        /* \"contracts/IERC1155/ERC1155.sol\":3184:3191  account */\n      dup5\n        /* \"contracts/IERC1155/ERC1155.sol\":3165:3192  _operatorApprovals[account] */\n      0xffffffffffffffffffffffffffffffffffffffff\n      and\n      0xffffffffffffffffffffffffffffffffffffffff\n      and\n      dup2\n      mstore\n      0x20\n      add\n      swap1\n      dup2\n      mstore\n      0x20\n      add\n      0x00\n      keccak256\n        /* \"contracts/IERC1155/ERC1155.sol\":3165:3202  _operatorApprovals[account][operator] */\n      0x00\n        /* \"contracts/IERC1155/ERC1155.sol\":3193:3201  operator */\n      dup4\n        /* \"contracts/IERC1155/ERC1155.sol\":3165:3202  _operatorApprovals[account][operator] */\n      0xffffffffffffffffffffffffffffffffffffffff\n      and\n      0xffffffffffffffffffffffffffffffffffffffff\n      and\n      dup2\n      mstore\n      0x20\n      add\n      swap1\n      dup2\n      mstore\n      0x20\n      add\n      0x00\n      keccak256\n      0x00\n      swap1\n      sload\n      swap1\n      0x0100\n      exp\n      swap1\n      div\n      0xff\n      and\n        /* \"contracts/IERC1155/ERC1155.sol\":3158:3202  return _operatorApprovals[account][operator] */\n      swap1\n      pop\n        /* \"contracts/IERC1155/ERC1155.sol\":3042:3210  function isApprovedForAll(address account, address operator) public view virtual override returns (bool) {... */\n      swap3\n      swap2\n      pop\n      pop\n      jump\t// out\n        /* \"contracts/IERC1155/ERC1155.sol\":3565:4601  function safeTransferFrom(... */\n    tag_60:\n        /* \"contracts/IERC1155/ERC1155.sol\":3751:3767  address operator */\n      0x00\n        /* \"contracts/IERC1155/ERC1155.sol\":3770:3780  msg.sender */\n      caller\n        /* \"contracts/IERC1155/ERC1155.sol\":3751:3780  address operator = msg.sender */\n      swap1\n      pop\n        /* \"contracts/IERC1155/ERC1155.sol\":3870:3878  operator */\n      dup1\n        /* \"contracts/IERC1155/ERC1155.sol\":3862:3878  from == operator */\n      0xffffffffffffffffffffffffffffffffffffffff\n      and\n        /* \"contracts/IERC1155/ERC1155.sol\":3862:3866  from */\n      dup7\n        /* \"contracts/IERC1155/ERC1155.sol\":3862:3878  from == operator */\n      0xffffffffffffffffffffffffffffffffffffffff\n      and\n      eq\n        /* \"contracts/IERC1155/ERC1155.sol\":3862:3914  from == operator || isApprovedForAll(from, operator) */\n      dup1\n      tag_142\n      jumpi\n      pop\n        /* \"contracts/IERC1155/ERC1155.sol\":3882:3914  isApprovedForAll(from, operator) */\n      tag_143\n        /* \"contracts/IERC1155/ERC1155.sol\":3899:3903  from */\n      dup7\n        /* \"contracts/IERC1155/ERC1155.sol\":3905:3913  operator */\n      dup3\n        /* \"contracts/IERC1155/ERC1155.sol\":3882:3898  isApprovedForAll */\n      tag_55\n        /* \"contracts/IERC1155/ERC1155.sol\":3882:3914  isApprovedForAll(from, operator) */\n      jump\t// in\n    tag_143:\n        /* \"contracts/IERC1155/ERC1155.sol\":3862:3914  from == operator || isApprovedForAll(from, operator) */\n    tag_142:\n        /* \"contracts/IERC1155/ERC1155.sol\":3840:3989  require(... */\n      tag_144\n      jumpi\n      mload(0x40)\n      0x08c379a000000000000000000000000000000000000000000000000000000000\n      dup2\n      mstore\n      0x04\n      add\n      tag_145\n      swap1\n      tag_88\n      jump\t// in\n    tag_145:\n      mload(0x40)\n      dup1\n      swap2\n      sub\n      swap1\n      revert\n    tag_144:\n        /* \"contracts/IERC1155/ERC1155.sol\":4022:4023  0 */\n      0x00\n        /* \"contracts/IERC1155/ERC1155.sol\":4008:4024  to != address(0) */\n      0xffffffffffffffffffffffffffffffffffffffff\n      and\n        /* \"contracts/IERC1155/ERC1155.sol\":4008:4010  to */\n      dup6\n        /* \"contracts/IERC1155/ERC1155.sol\":4008:4024  to != address(0) */\n      0xffffffffffffffffffffffffffffffffffffffff\n      and\n      sub\n        /* \"contracts/IERC1155/ERC1155.sol\":4000:4066  require(to != address(0), \"ERC1155: transfer to the zero address\") */\n      tag_146\n      jumpi\n      mload(0x40)\n      0x08c379a000000000000000000000000000000000000000000000000000000000\n      dup2\n      mstore\n      0x04\n      add\n      tag_147\n      swap1\n      tag_94\n      jump\t// in\n    tag_147:\n      mload(0x40)\n      dup1\n      swap2\n      sub\n      swap1\n      revert\n    tag_146:\n        /* \"contracts/IERC1155/ERC1155.sol\":4115:4134  uint256 fromBalance */\n      0x00\n        /* \"contracts/IERC1155/ERC1155.sol\":4137:4146  _balances */\n      0x02\n        /* \"contracts/IERC1155/ERC1155.sol\":4137:4150  _balances[id] */\n      0x00\n        /* \"contracts/IERC1155/ERC1155.sol\":4147:4149  id */\n      dup7\n        /* \"contracts/IERC1155/ERC1155.sol\":4137:4150  _balances[id] */\n      dup2\n      mstore\n      0x20\n      add\n      swap1\n      dup2\n      mstore\n      0x20\n      add\n      0x00\n      keccak256\n        /* \"contracts/IERC1155/ERC1155.sol\":4137:4156  _balances[id][from] */\n      0x00\n        /* \"contracts/IERC1155/ERC1155.sol\":4151:4155  from */\n      dup9\n        /* \"contracts/IERC1155/ERC1155.sol\":4137:4156  _balances[id][from] */\n      0xffffffffffffffffffffffffffffffffffffffff\n      and\n      0xffffffffffffffffffffffffffffffffffffffff\n      and\n      dup2\n      mstore\n      0x20\n      add\n      swap1\n      dup2\n      mstore\n      0x20\n      add\n      0x00\n      keccak256\n      sload\n        /* \"contracts/IERC1155/ERC1155.sol\":4115:4156  uint256 fromBalance = _balances[id][from] */\n      swap1\n      pop\n        /* \"contracts/IERC1155/ERC1155.sol\":4190:4196  amount */\n      dup4\n        /* \"contracts/IERC1155/ERC1155.sol\":4175:4186  fromBalance */\n      dup2\n        /* \"contracts/IERC1155/ERC1155.sol\":4175:4196  fromBalance >= amount */\n      lt\n      iszero\n        /* \"contracts/IERC1155/ERC1155.sol\":4167:4243  require(fromBalance >= amount, \"ERC1155: insufficient balance for transfer\") */\n      tag_148\n      jumpi\n      mload(0x40)\n      0x08c379a000000000000000000000000000000000000000000000000000000000\n      dup2\n      mstore\n      0x04\n      add\n      tag_149\n      swap1\n      tag_105\n      jump\t// in\n    tag_149:\n      mload(0x40)\n      dup1\n      swap2\n      sub\n      swap1\n      revert\n    tag_148:\n        /* \"contracts/IERC1155/ERC1155.sol\":4343:4349  amount */\n      dup4\n        /* \"contracts/IERC1155/ERC1155.sol\":4329:4340  fromBalance */\n      dup2\n        /* \"contracts/IERC1155/ERC1155.sol\":4329:4349  fromBalance - amount */\n      sub\n        /* \"contracts/IERC1155/ERC1155.sol\":4307:4316  _balances */\n      0x02\n        /* \"contracts/IERC1155/ERC1155.sol\":4307:4320  _balances[id] */\n      0x00\n        /* \"contracts/IERC1155/ERC1155.sol\":4317:4319  id */\n      dup8\n        /* \"contracts/IERC1155/ERC1155.sol\":4307:4320  _balances[id] */\n      dup2\n      mstore\n      0x20\n      add\n      swap1\n      dup2\n      mstore\n      0x20\n      add\n      0x00\n      keccak256\n        /* \"contracts/IERC1155/ERC1155.sol\":4307:4326  _balances[id][from] */\n      0x00\n        /* \"contracts/IERC1155/ERC1155.sol\":4321:4325  from */\n      dup10\n        /* \"contracts/IERC1155/ERC1155.sol\":4307:4326  _balances[id][from] */\n      0xffffffffffffffffffffffffffffffffffffffff\n      and\n      0xffffffffffffffffffffffffffffffffffffffff\n      and\n      dup2\n      mstore\n      0x20\n      add\n      swap1\n      dup2\n      mstore\n      0x20\n      add\n      0x00\n      keccak256\n        /* \"contracts/IERC1155/ERC1155.sol\":4307:4349  _balances[id][from] = fromBalance - amount */\n      dup2\n      swap1\n      sstore\n      pop\n        /* \"contracts/IERC1155/ERC1155.sol\":4392:4398  amount */\n      dup4\n        /* \"contracts/IERC1155/ERC1155.sol\":4371:4380  _balances */\n      0x02\n        /* \"contracts/IERC1155/ERC1155.sol\":4371:4384  _balances[id] */\n      0x00\n        /* \"contracts/IERC1155/ERC1155.sol\":4381:4383  id */\n      dup8\n        /* \"contracts/IERC1155/ERC1155.sol\":4371:4384  _balances[id] */\n      dup2\n      mstore\n      0x20\n      add\n      swap1\n      dup2\n      mstore\n      0x20\n      add\n      0x00\n      keccak256\n        /* \"contracts/IERC1155/ERC1155.sol\":4371:4388  _balances[id][to] */\n      0x00\n        /* \"contracts/IERC1155/ERC1155.sol\":4385:4387  to */\n      dup9\n        /* \"contracts/IERC1155/ERC1155.sol\":4371:4388  _balances[id][to] */\n      0xffffffffffffffffffffffffffffffffffffffff\n      and\n      0xffffffffffffffffffffffffffffffffffffffff\n      and\n      dup2\n      mstore\n      0x20\n      add\n      swap1\n      dup2\n      mstore\n      0x20\n      add\n      0x00\n      keccak256\n      0x00\n        /* \"contracts/IERC1155/ERC1155.sol\":4371:4398  _balances[id][to] += amount */\n      dup3\n      dup3\n      sload\n      tag_150\n      swap2\n      swap1\n      tag_107\n      jump\t// in\n    tag_150:\n      swap3\n      pop\n      pop\n      dup2\n      swap1\n      sstore\n      pop\n        /* \"contracts/IERC1155/ERC1155.sol\":4470:4472  to */\n      dup6\n        /* \"contracts/IERC1155/ERC1155.sol\":4439:4485  TransferSingle(operator, from, to, id, amount) */\n      0xffffffffffffffffffffffffffffffffffffffff\n      and\n        /* \"contracts/IERC1155/ERC1155.sol\":4464:4468  from */\n      dup8\n        /* \"contracts/IERC1155/ERC1155.sol\":4439:4485  TransferSingle(operator, from, to, id, amount) */\n      0xffffffffffffffffffffffffffffffffffffffff\n      and\n        /* \"contracts/IERC1155/ERC1155.sol\":4454:4462  operator */\n      dup4\n        /* \"contracts/IERC1155/ERC1155.sol\":4439:4485  TransferSingle(operator, from, to, id, amount) */\n      0xffffffffffffffffffffffffffffffffffffffff\n      and\n      0xc3d58168c5ae7397731d063d5bbf3d657854427343f4c083240f7aacaa2d0f62\n        /* \"contracts/IERC1155/ERC1155.sol\":4474:4476  id */\n      dup9\n        /* \"contracts/IERC1155/ERC1155.sol\":4478:4484  amount */\n      dup9\n        /* \"contracts/IERC1155/ERC1155.sol\":4439:4485  TransferSingle(operator, from, to, id, amount) */\n      mload(0x40)\n      tag_151\n      swap3\n      swap2\n      swap1\n      tag_152\n      jump\t// in\n    tag_151:\n      mload(0x40)\n      dup1\n      swap2\n      sub\n      swap1\n      log4\n        /* \"contracts/IERC1155/ERC1155.sol\":4521:4589  _doSafeTransferAcceptanceCheck(operator, from, to, id, amount, data) */\n      tag_153\n        /* \"contracts/IERC1155/ERC1155.sol\":4552:4560  operator */\n      dup3\n        /* \"contracts/IERC1155/ERC1155.sol\":4562:4566  from */\n      dup9\n        /* \"contracts/IERC1155/ERC1155.sol\":4568:4570  to */\n      dup9\n        /* \"contracts/IERC1155/ERC1155.sol\":4572:4574  id */\n      dup9\n        /* \"contracts/IERC1155/ERC1155.sol\":4576:4582  amount */\n      dup9\n        /* \"contracts/IERC1155/ERC1155.sol\":4584:4588  data */\n      dup9\n        /* \"contracts/IERC1155/ERC1155.sol\":4521:4551  _doSafeTransferAcceptanceCheck */\n      tag_154\n        /* \"contracts/IERC1155/ERC1155.sol\":4521:4589  _doSafeTransferAcceptanceCheck(operator, from, to, id, amount, data) */\n      jump\t// in\n    tag_153:\n        /* \"contracts/IERC1155/ERC1155.sol\":3740:4601  {... */\n      pop\n      pop\n        /* \"contracts/IERC1155/ERC1155.sol\":3565:4601  function safeTransferFrom(... */\n      pop\n      pop\n      pop\n      pop\n      pop\n      jump\t// out\n        /* \"contracts/IERC1155/ERC1155.sol\":11164:11258  function _baseURI() internal view virtual returns (string memory) {... */\n    tag_76:\n        /* \"contracts/IERC1155/ERC1155.sol\":11215:11228  string memory */\n      0x60\n        /* \"contracts/IERC1155/ERC1155.sol\":11241:11250  return \"\" */\n      mload(0x40)\n      dup1\n      0x20\n      add\n      0x40\n      mstore\n      dup1\n      0x00\n      dup2\n      mstore\n      pop\n      swap1\n      pop\n        /* \"contracts/IERC1155/ERC1155.sol\":11164:11258  function _baseURI() internal view virtual returns (string memory) {... */\n      swap1\n      jump\t// out\n        /* \"contracts/IERC721/String.sol\":393:1096  function toString(uint256 value) internal pure returns (string memory) {... */\n    tag_80:\n        /* \"contracts/IERC721/String.sol\":449:462  string memory */\n      0x60\n        /* \"contracts/IERC721/String.sol\":675:676  0 */\n      0x00\n        /* \"contracts/IERC721/String.sol\":666:671  value */\n      dup3\n        /* \"contracts/IERC721/String.sol\":666:676  value == 0 */\n      sub\n        /* \"contracts/IERC721/String.sol\":662:713  if (value == 0) {... */\n      tag_157\n      jumpi\n        /* \"contracts/IERC721/String.sol\":692:702  return \"0\" */\n      mload(0x40)\n      dup1\n      0x40\n      add\n      0x40\n      mstore\n      dup1\n      0x01\n      dup2\n      mstore\n      0x20\n      add\n      0x3000000000000000000000000000000000000000000000000000000000000000\n      dup2\n      mstore\n      pop\n      swap1\n      pop\n      jump(tag_156)\n        /* \"contracts/IERC721/String.sol\":662:713  if (value == 0) {... */\n    tag_157:\n        /* \"contracts/IERC721/String.sol\":722:734  uint256 temp */\n      0x00\n        /* \"contracts/IERC721/String.sol\":737:742  value */\n      dup3\n        /* \"contracts/IERC721/String.sol\":722:742  uint256 temp = value */\n      swap1\n      pop\n        /* \"contracts/IERC721/String.sol\":752:766  uint256 digits */\n      0x00\n        /* \"contracts/IERC721/String.sol\":776:851  while (temp != 0) {... */\n    tag_158:\n        /* \"contracts/IERC721/String.sol\":791:792  0 */\n      0x00\n        /* \"contracts/IERC721/String.sol\":783:787  temp */\n      dup3\n        /* \"contracts/IERC721/String.sol\":783:792  temp != 0 */\n      eq\n        /* \"contracts/IERC721/String.sol\":776:851  while (temp != 0) {... */\n      tag_159\n      jumpi\n        /* \"contracts/IERC721/String.sol\":808:816  digits++ */\n      dup1\n      dup1\n      tag_160\n      swap1\n      tag_161\n      jump\t// in\n    tag_160:\n      swap2\n      pop\n      pop\n        /* \"contracts/IERC721/String.sol\":838:840  10 */\n      0x0a\n        /* \"contracts/IERC721/String.sol\":830:840  temp /= 10 */\n      dup3\n      tag_162\n      swap2\n      swap1\n      tag_163\n      jump\t// in\n    tag_162:\n      swap2\n      pop\n        /* \"contracts/IERC721/String.sol\":776:851  while (temp != 0) {... */\n      jump(tag_158)\n    tag_159:\n        /* \"contracts/IERC721/String.sol\":860:879  bytes memory buffer */\n      0x00\n        /* \"contracts/IERC721/String.sol\":892:898  digits */\n      dup2\n        /* \"contracts/IERC721/String.sol\":882:899  new bytes(digits) */\n      0xffffffffffffffff\n      dup2\n      gt\n      iszero\n      tag_164\n      jumpi\n      tag_165\n      tag_118\n      jump\t// in\n    tag_165:\n    tag_164:\n      mload(0x40)\n      swap1\n      dup1\n      dup3\n      mstore\n      dup1\n      0x1f\n      add\n      not(0x1f)\n      and\n      0x20\n      add\n      dup3\n      add\n      0x40\n      mstore\n      dup1\n      iszero\n      tag_166\n      jumpi\n      dup2\n      0x20\n      add\n      0x01\n      dup3\n      mul\n      dup1\n      calldatasize\n      dup4\n      calldatacopy\n      dup1\n      dup3\n      add\n      swap2\n      pop\n      pop\n      swap1\n      pop\n    tag_166:\n      pop\n        /* \"contracts/IERC721/String.sol\":860:899  bytes memory buffer = new bytes(digits) */\n      swap1\n      pop\n        /* \"contracts/IERC721/String.sol\":909:1059  while (value != 0) {... */\n    tag_167:\n        /* \"contracts/IERC721/String.sol\":925:926  0 */\n      0x00\n        /* \"contracts/IERC721/String.sol\":916:921  value */\n      dup6\n        /* \"contracts/IERC721/String.sol\":916:926  value != 0 */\n      eq\n        /* \"contracts/IERC721/String.sol\":909:1059  while (value != 0) {... */\n      tag_168\n      jumpi\n        /* \"contracts/IERC721/String.sol\":952:953  1 */\n      0x01\n        /* \"contracts/IERC721/String.sol\":942:953  digits -= 1 */\n      dup3\n      tag_169\n      swap2\n      swap1\n      tag_170\n      jump\t// in\n    tag_169:\n      swap2\n      pop\n        /* \"contracts/IERC721/String.sol\":1018:1020  10 */\n      0x0a\n        /* \"contracts/IERC721/String.sol\":1010:1015  value */\n      dup6\n        /* \"contracts/IERC721/String.sol\":1010:1020  value % 10 */\n      tag_171\n      swap2\n      swap1\n      tag_172\n      jump\t// in\n    tag_171:\n        /* \"contracts/IERC721/String.sol\":997:999  48 */\n      0x30\n        /* \"contracts/IERC721/String.sol\":997:1021  48 + uint256(value % 10) */\n      tag_173\n      swap2\n      swap1\n      tag_107\n      jump\t// in\n    tag_173:\n        /* \"contracts/IERC721/String.sol\":984:1023  bytes1(uint8(48 + uint256(value % 10))) */\n      0xf8\n      shl\n        /* \"contracts/IERC721/String.sol\":967:973  buffer */\n      dup2\n        /* \"contracts/IERC721/String.sol\":974:980  digits */\n      dup4\n        /* \"contracts/IERC721/String.sol\":967:981  buffer[digits] */\n      dup2\n      mload\n      dup2\n      lt\n      tag_174\n      jumpi\n      tag_175\n      tag_100\n      jump\t// in\n    tag_175:\n    tag_174:\n      0x20\n      add\n      add\n        /* \"contracts/IERC721/String.sol\":967:1023  buffer[digits] = bytes1(uint8(48 + uint256(value % 10))) */\n      swap1\n      not(0xffffffffffffffffffffffffffffffffffffffffffffffffffffffffffffff)\n      and\n      swap1\n      dup2\n      0x00\n      byte\n      swap1\n      mstore8\n      pop\n        /* \"contracts/IERC721/String.sol\":1046:1048  10 */\n      0x0a\n        /* \"contracts/IERC721/String.sol\":1037:1048  value /= 10 */\n      dup6\n      tag_176\n      swap2\n      swap1\n      tag_163\n      jump\t// in\n    tag_176:\n      swap5\n      pop\n        /* \"contracts/IERC721/String.sol\":909:1059  while (value != 0) {... */\n      jump(tag_167)\n    tag_168:\n        /* \"contracts/IERC721/String.sol\":1082:1088  buffer */\n      dup1\n        /* \"contracts/IERC721/String.sol\":1068:1089  return string(buffer) */\n      swap4\n      pop\n      pop\n      pop\n      pop\n        /* \"contracts/IERC721/String.sol\":393:1096  function toString(uint256 value) internal pure returns (string memory) {... */\n    tag_156:\n      swap2\n      swap1\n      pop\n      jump\t// out\n        /* \"contracts/IERC1155/ERC1155.sol\":9876:10689  function _doSafeBatchTransferAcceptanceCheck(... */\n    tag_111:\n        /* \"contracts/IERC1155/ERC1155.sol\":10116:10131  to.isContract() */\n      tag_178\n        /* \"contracts/IERC1155/ERC1155.sol\":10116:10118  to */\n      dup5\n        /* \"contracts/IERC1155/ERC1155.sol\":10116:10129  to.isContract */\n      0xffffffffffffffffffffffffffffffffffffffff\n      and\n      tag_179\n        /* \"contracts/IERC1155/ERC1155.sol\":10116:10131  to.isContract() */\n      jump\t// in\n    tag_178:\n        /* \"contracts/IERC1155/ERC1155.sol\":10112:10682  if (to.isContract()) {... */\n      iszero\n      tag_180\n      jumpi\n        /* \"contracts/IERC1155/ERC1155.sol\":10169:10171  to */\n      dup4\n        /* \"contracts/IERC1155/ERC1155.sol\":10152:10195  IERC1155Receiver(to).onERC1155BatchReceived */\n      0xffffffffffffffffffffffffffffffffffffffff\n      and\n      0xbc197c81\n        /* \"contracts/IERC1155/ERC1155.sol\":10196:10204  operator */\n      dup8\n        /* \"contracts/IERC1155/ERC1155.sol\":10206:10210  from */\n      dup8\n        /* \"contracts/IERC1155/ERC1155.sol\":10212:10215  ids */\n      dup7\n        /* \"contracts/IERC1155/ERC1155.sol\":10217:10224  amounts */\n      dup7\n        /* \"contracts/IERC1155/ERC1155.sol\":10226:10230  data */\n      dup7\n        /* \"contracts/IERC1155/ERC1155.sol\":10152:10231  IERC1155Receiver(to).onERC1155BatchReceived(operator, from, ids, amounts, data) */\n      mload(0x40)\n      dup7\n      0xffffffff\n      and\n      0xe0\n      shl\n      dup2\n      mstore\n      0x04\n      add\n      tag_181\n      swap6\n      swap5\n      swap4\n      swap3\n      swap2\n      swap1\n      tag_182\n      jump\t// in\n    tag_181:\n      0x20\n      mload(0x40)\n      dup1\n      dup4\n      sub\n      dup2\n      0x00\n      dup8\n      gas\n      call\n      swap3\n      pop\n      pop\n      pop\n      dup1\n      iszero\n      tag_183\n      jumpi\n      pop\n      mload(0x40)\n      returndatasize\n      not(0x1f)\n      0x1f\n      dup3\n      add\n      and\n      dup3\n      add\n      dup1\n      0x40\n      mstore\n      pop\n      dup2\n      add\n      swap1\n      tag_184\n      swap2\n      swap1\n      tag_185\n      jump\t// in\n    tag_184:\n      0x01\n    tag_183:\n        /* \"contracts/IERC1155/ERC1155.sol\":10148:10671  try IERC1155Receiver(to).onERC1155BatchReceived(operator, from, ids, amounts, data) returns (... */\n      tag_186\n      jumpi\n      tag_190\n      tag_191\n      jump\t// in\n    tag_190:\n      dup1\n      0x08c379a0\n      sub\n      tag_189\n      jumpi\n      pop\n      tag_192\n      tag_193\n      jump\t// in\n    tag_192:\n      dup1\n      tag_194\n      jumpi\n      pop\n      jump(tag_188)\n    tag_194:\n        /* \"contracts/IERC1155/ERC1155.sol\":10544:10550  reason */\n      dup1\n        /* \"contracts/IERC1155/ERC1155.sol\":10537:10551  revert(reason) */\n      mload(0x40)\n      0x08c379a000000000000000000000000000000000000000000000000000000000\n      dup2\n      mstore\n      0x04\n      add\n      tag_195\n      swap2\n      swap1\n      tag_29\n      jump\t// in\n    tag_195:\n      mload(0x40)\n      dup1\n      swap2\n      sub\n      swap1\n      revert\n        /* \"contracts/IERC1155/ERC1155.sol\":10148:10671  try IERC1155Receiver(to).onERC1155BatchReceived(operator, from, ids, amounts, data) returns (... */\n    tag_189:\n      pop\n    tag_188:\n        /* \"contracts/IERC1155/ERC1155.sol\":10593:10655  revert(\"ERC1155: transfer to non-ERC1155Receiver implementer\") */\n      mload(0x40)\n      0x08c379a000000000000000000000000000000000000000000000000000000000\n      dup2\n      mstore\n      0x04\n      add\n      tag_196\n      swap1\n      tag_197\n      jump\t// in\n    tag_196:\n      mload(0x40)\n      dup1\n      swap2\n      sub\n      swap1\n      revert\n        /* \"contracts/IERC1155/ERC1155.sol\":10148:10671  try IERC1155Receiver(to).onERC1155BatchReceived(operator, from, ids, amounts, data) returns (... */\n    tag_186:\n        /* \"contracts/IERC1155/ERC1155.sol\":10325:10373  IERC1155Receiver.onERC1155BatchReceived.selector */\n      shl(0xe0, 0xbc197c81)\n        /* \"contracts/IERC1155/ERC1155.sol\":10313:10373  response != IERC1155Receiver.onERC1155BatchReceived.selector */\n      not(0xffffffffffffffffffffffffffffffffffffffffffffffffffffffff)\n      and\n        /* \"contracts/IERC1155/ERC1155.sol\":10313:10321  response */\n      dup2\n        /* \"contracts/IERC1155/ERC1155.sol\":10313:10373  response != IERC1155Receiver.onERC1155BatchReceived.selector */\n      not(0xffffffffffffffffffffffffffffffffffffffffffffffffffffffff)\n      and\n      eq\n        /* \"contracts/IERC1155/ERC1155.sol\":10309:10468  if (response != IERC1155Receiver.onERC1155BatchReceived.selector) {... */\n      tag_199\n      jumpi\n        /* \"contracts/IERC1155/ERC1155.sol\":10398:10448  revert(\"ERC1155: ERC1155Receiver rejected tokens\") */\n      mload(0x40)\n      0x08c379a000000000000000000000000000000000000000000000000000000000\n      dup2\n      mstore\n      0x04\n      add\n      tag_200\n      swap1\n      tag_201\n      jump\t// in\n    tag_200:\n      mload(0x40)\n      dup1\n      swap2\n      sub\n      swap1\n      revert\n        /* \"contracts/IERC1155/ERC1155.sol\":10309:10468  if (response != IERC1155Receiver.onERC1155BatchReceived.selector) {... */\n    tag_199:\n        /* \"contracts/IERC1155/ERC1155.sol\":10232:10483  returns (... */\n      pop\n        /* \"contracts/IERC1155/ERC1155.sol\":10112:10682  if (to.isContract()) {... */\n    tag_180:\n        /* \"contracts/IERC1155/ERC1155.sol\":9876:10689  function _doSafeBatchTransferAcceptanceCheck(... */\n      pop\n      pop\n      pop\n      pop\n      pop\n      pop\n      jump\t// out\n        /* \"contracts/IERC1155/ERC1155.sol\":9076:9820  function _doSafeTransferAcceptanceCheck(... */\n    tag_154:\n        /* \"contracts/IERC1155/ERC1155.sol\":9291:9306  to.isContract() */\n      tag_203\n        /* \"contracts/IERC1155/ERC1155.sol\":9291:9293  to */\n      dup5\n        /* \"contracts/IERC1155/ERC1155.sol\":9291:9304  to.isContract */\n      0xffffffffffffffffffffffffffffffffffffffff\n      and\n      tag_179\n        /* \"contracts/IERC1155/ERC1155.sol\":9291:9306  to.isContract() */\n      jump\t// in\n    tag_203:\n        /* \"contracts/IERC1155/ERC1155.sol\":9287:9813  if (to.isContract()) {... */\n      iszero\n      tag_204\n      jumpi\n        /* \"contracts/IERC1155/ERC1155.sol\":9344:9346  to */\n      dup4\n        /* \"contracts/IERC1155/ERC1155.sol\":9327:9365  IERC1155Receiver(to).onERC1155Received */\n      0xffffffffffffffffffffffffffffffffffffffff\n      and\n      0xf23a6e61\n        /* \"contracts/IERC1155/ERC1155.sol\":9366:9374  operator */\n      dup8\n        /* \"contracts/IERC1155/ERC1155.sol\":9376:9380  from */\n      dup8\n        /* \"contracts/IERC1155/ERC1155.sol\":9382:9384  id */\n      dup7\n        /* \"contracts/IERC1155/ERC1155.sol\":9386:9392  amount */\n      dup7\n        /* \"contracts/IERC1155/ERC1155.sol\":9394:9398  data */\n      dup7\n        /* \"contracts/IERC1155/ERC1155.sol\":9327:9399  IERC1155Receiver(to).onERC1155Received(operator, from, id, amount, data) */\n      mload(0x40)\n      dup7\n      0xffffffff\n      and\n      0xe0\n      shl\n      dup2\n      mstore\n      0x04\n      add\n      tag_205\n      swap6\n      swap5\n      swap4\n      swap3\n      swap2\n      swap1\n      tag_206\n      jump\t// in\n    tag_205:\n      0x20\n      mload(0x40)\n      dup1\n      dup4\n      sub\n      dup2\n      0x00\n      dup8\n      gas\n      call\n      swap3\n      pop\n      pop\n      pop\n      dup1\n      iszero\n      tag_207\n      jumpi\n      pop\n      mload(0x40)\n      returndatasize\n      not(0x1f)\n      0x1f\n      dup3\n      add\n      and\n      dup3\n      add\n      dup1\n      0x40\n      mstore\n      pop\n      dup2\n      add\n      swap1\n      tag_208\n      swap2\n      swap1\n      tag_185\n      jump\t// in\n    tag_208:\n      0x01\n    tag_207:\n        /* \"contracts/IERC1155/ERC1155.sol\":9323:9802  try IERC1155Receiver(to).onERC1155Received(operator, from, id, amount, data) returns (bytes4 response) {... */\n      tag_209\n      jumpi\n      tag_213\n      tag_191\n      jump\t// in\n    tag_213:\n      dup1\n      0x08c379a0\n      sub\n      tag_212\n      jumpi\n      pop\n      tag_214\n      tag_193\n      jump\t// in\n    tag_214:\n      dup1\n      tag_215\n      jumpi\n      pop\n      jump(tag_211)\n    tag_215:\n        /* \"contracts/IERC1155/ERC1155.sol\":9675:9681  reason */\n      dup1\n        /* \"contracts/IERC1155/ERC1155.sol\":9668:9682  revert(reason) */\n      mload(0x40)\n      0x08c379a000000000000000000000000000000000000000000000000000000000\n      dup2\n      mstore\n      0x04\n      add\n      tag_216\n      swap2\n      swap1\n      tag_29\n      jump\t// in\n    tag_216:\n      mload(0x40)\n      dup1\n      swap2\n      sub\n      swap1\n      revert\n        /* \"contracts/IERC1155/ERC1155.sol\":9323:9802  try IERC1155Receiver(to).onERC1155Received(operator, from, id, amount, data) returns (bytes4 response) {... */\n    tag_212:\n      pop\n    tag_211:\n        /* \"contracts/IERC1155/ERC1155.sol\":9724:9786  revert(\"ERC1155: transfer to non-ERC1155Receiver implementer\") */\n      mload(0x40)\n      0x08c379a000000000000000000000000000000000000000000000000000000000\n      dup2\n      mstore\n      0x04\n      add\n      tag_217\n      swap1\n      tag_197\n      jump\t// in\n    tag_217:\n      mload(0x40)\n      dup1\n      swap2\n      sub\n      swap1\n      revert\n        /* \"contracts/IERC1155/ERC1155.sol\":9323:9802  try IERC1155Receiver(to).onERC1155Received(operator, from, id, amount, data) returns (bytes4 response) {... */\n    tag_209:\n        /* \"contracts/IERC1155/ERC1155.sol\":9461:9504  IERC1155Receiver.onERC1155Received.selector */\n      shl(0xe0, 0xf23a6e61)\n        /* \"contracts/IERC1155/ERC1155.sol\":9449:9504  response != IERC1155Receiver.onERC1155Received.selector */\n      not(0xffffffffffffffffffffffffffffffffffffffffffffffffffffffff)\n      and\n        /* \"contracts/IERC1155/ERC1155.sol\":9449:9457  response */\n      dup2\n        /* \"contracts/IERC1155/ERC1155.sol\":9449:9504  response != IERC1155Receiver.onERC1155Received.selector */\n      not(0xffffffffffffffffffffffffffffffffffffffffffffffffffffffff)\n      and\n      eq\n        /* \"contracts/IERC1155/ERC1155.sol\":9445:9599  if (response != IERC1155Receiver.onERC1155Received.selector) {... */\n      tag_219\n      jumpi\n        /* \"contracts/IERC1155/ERC1155.sol\":9529:9579  revert(\"ERC1155: ERC1155Receiver rejected tokens\") */\n      mload(0x40)\n      0x08c379a000000000000000000000000000000000000000000000000000000000\n      dup2\n      mstore\n      0x04\n      add\n      tag_220\n      swap1\n      tag_201\n      jump\t// in\n    tag_220:\n      mload(0x40)\n      dup1\n      swap2\n      sub\n      swap1\n      revert\n        /* \"contracts/IERC1155/ERC1155.sol\":9445:9599  if (response != IERC1155Receiver.onERC1155Received.selector) {... */\n    tag_219:\n        /* \"contracts/IERC1155/ERC1155.sol\":9400:9614  returns (bytes4 response) {... */\n      pop\n        /* \"contracts/IERC1155/ERC1155.sol\":9287:9813  if (to.isContract()) {... */\n    tag_204:\n        /* \"contracts/IERC1155/ERC1155.sol\":9076:9820  function _doSafeTransferAcceptanceCheck(... */\n      pop\n      pop\n      pop\n      pop\n      pop\n      pop\n      jump\t// out\n        /* \"contracts/IERC1155/Address.sol\":376:716  function isContract(address account) internal view returns (bool) {... */\n    tag_179:\n        /* \"contracts/IERC1155/Address.sol\":436:440  bool */\n      0x00\n        /* \"contracts/IERC1155/Address.sol\":535:547  uint256 size */\n      dup1\n        /* \"contracts/IERC1155/Address.sol\":664:671  account */\n      dup3\n        /* \"contracts/IERC1155/Address.sol\":652:672  extcodesize(account) */\n      extcodesize\n        /* \"contracts/IERC1155/Address.sol\":644:672  size := extcodesize(account) */\n      swap1\n      pop\n        /* \"contracts/IERC1155/Address.sol\":707:708  0 */\n      0x00\n        /* \"contracts/IERC1155/Address.sol\":700:704  size */\n      dup2\n        /* \"contracts/IERC1155/Address.sol\":700:708  size > 0 */\n      gt\n        /* \"contracts/IERC1155/Address.sol\":693:708  return size > 0 */\n      swap2\n      pop\n      pop\n        /* \"contracts/IERC1155/Address.sol\":376:716  function isContract(address account) internal view returns (bool) {... */\n      swap2\n      swap1\n      pop\n      jump\t// out\n        /* \"#utility.yul\":7:82   */\n    tag_222:\n        /* \"#utility.yul\":40:46   */\n      0x00\n        /* \"#utility.yul\":73:75   */\n      0x40\n        /* \"#utility.yul\":67:76   */\n      mload\n        /* \"#utility.yul\":57:76   */\n      swap1\n      pop\n        /* \"#utility.yul\":7:82   */\n      swap1\n      jump\t// out\n        /* \"#utility.yul\":88:205   */\n    tag_223:\n        /* \"#utility.yul\":197:198   */\n      0x00\n        /* \"#utility.yul\":194:195   */\n      dup1\n        /* \"#utility.yul\":187:199   */\n      revert\n        /* \"#utility.yul\":211:328   */\n    tag_224:\n        /* \"#utility.yul\":320:321   */\n      0x00\n        /* \"#utility.yul\":317:318   */\n      dup1\n        /* \"#utility.yul\":310:322   */\n      revert\n        /* \"#utility.yul\":334:460   */\n    tag_225:\n        /* \"#utility.yul\":371:378   */\n      0x00\n        /* \"#utility.yul\":411:453   */\n      0xffffffffffffffffffffffffffffffffffffffff\n        /* \"#utility.yul\":404:409   */\n      dup3\n        /* \"#utility.yul\":400:454   */\n      and\n        /* \"#utility.yul\":389:454   */\n      swap1\n      pop\n        /* \"#utility.yul\":334:460   */\n      swap2\n      swap1\n      pop\n      jump\t// out\n        /* \"#utility.yul\":466:562   */\n    tag_226:\n        /* \"#utility.yul\":503:510   */\n      0x00\n        /* \"#utility.yul\":532:556   */\n      tag_302\n        /* \"#utility.yul\":550:555   */\n      dup3\n        /* \"#utility.yul\":532:556   */\n      tag_225\n      jump\t// in\n    tag_302:\n        /* \"#utility.yul\":521:556   */\n      swap1\n      pop\n        /* \"#utility.yul\":466:562   */\n      swap2\n      swap1\n      pop\n      jump\t// out\n        /* \"#utility.yul\":568:690   */\n    tag_227:\n        /* \"#utility.yul\":641:665   */\n      tag_304\n        /* \"#utility.yul\":659:664   */\n      dup2\n        /* \"#utility.yul\":641:665   */\n      tag_226\n      jump\t// in\n    tag_304:\n        /* \"#utility.yul\":634:639   */\n      dup2\n        /* \"#utility.yul\":631:666   */\n      eq\n        /* \"#utility.yul\":621:684   */\n      tag_305\n      jumpi\n        /* \"#utility.yul\":680:681   */\n      0x00\n        /* \"#utility.yul\":677:678   */\n      dup1\n        /* \"#utility.yul\":670:682   */\n      revert\n        /* \"#utility.yul\":621:684   */\n    tag_305:\n        /* \"#utility.yul\":568:690   */\n      pop\n      jump\t// out\n        /* \"#utility.yul\":696:835   */\n    tag_228:\n        /* \"#utility.yul\":742:747   */\n      0x00\n        /* \"#utility.yul\":780:786   */\n      dup2\n        /* \"#utility.yul\":767:787   */\n      calldataload\n        /* \"#utility.yul\":758:787   */\n      swap1\n      pop\n        /* \"#utility.yul\":796:829   */\n      tag_307\n        /* \"#utility.yul\":823:828   */\n      dup2\n        /* \"#utility.yul\":796:829   */\n      tag_227\n      jump\t// in\n    tag_307:\n        /* \"#utility.yul\":696:835   */\n      swap3\n      swap2\n      pop\n      pop\n      jump\t// out\n        /* \"#utility.yul\":841:918   */\n    tag_229:\n        /* \"#utility.yul\":878:885   */\n      0x00\n        /* \"#utility.yul\":907:912   */\n      dup2\n        /* \"#utility.yul\":896:912   */\n      swap1\n      pop\n        /* \"#utility.yul\":841:918   */\n      swap2\n      swap1\n      pop\n      jump\t// out\n        /* \"#utility.yul\":924:1046   */\n    tag_230:\n        /* \"#utility.yul\":997:1021   */\n      tag_310\n        /* \"#utility.yul\":1015:1020   */\n      dup2\n        /* \"#utility.yul\":997:1021   */\n      tag_229\n      jump\t// in\n    tag_310:\n        /* \"#utility.yul\":990:995   */\n      dup2\n        /* \"#utility.yul\":987:1022   */\n      eq\n        /* \"#utility.yul\":977:1040   */\n      tag_311\n      jumpi\n        /* \"#utility.yul\":1036:1037   */\n      0x00\n        /* \"#utility.yul\":1033:1034   */\n      dup1\n        /* \"#utility.yul\":1026:1038   */\n      revert\n        /* \"#utility.yul\":977:1040   */\n    tag_311:\n        /* \"#utility.yul\":924:1046   */\n      pop\n      jump\t// out\n        /* \"#utility.yul\":1052:1191   */\n    tag_231:\n        /* \"#utility.yul\":1098:1103   */\n      0x00\n        /* \"#utility.yul\":1136:1142   */\n      dup2\n        /* \"#utility.yul\":1123:1143   */\n      calldataload\n        /* \"#utility.yul\":1114:1143   */\n      swap1\n      pop\n        /* \"#utility.yul\":1152:1185   */\n      tag_313\n        /* \"#utility.yul\":1179:1184   */\n      dup2\n        /* \"#utility.yul\":1152:1185   */\n      tag_230\n      jump\t// in\n    tag_313:\n        /* \"#utility.yul\":1052:1191   */\n      swap3\n      swap2\n      pop\n      pop\n      jump\t// out\n        /* \"#utility.yul\":1197:1671   */\n    tag_16:\n        /* \"#utility.yul\":1265:1271   */\n      0x00\n        /* \"#utility.yul\":1273:1279   */\n      dup1\n        /* \"#utility.yul\":1322:1324   */\n      0x40\n        /* \"#utility.yul\":1310:1319   */\n      dup4\n        /* \"#utility.yul\":1301:1308   */\n      dup6\n        /* \"#utility.yul\":1297:1320   */\n      sub\n        /* \"#utility.yul\":1293:1325   */\n      slt\n        /* \"#utility.yul\":1290:1409   */\n      iszero\n      tag_315\n      jumpi\n        /* \"#utility.yul\":1328:1407   */\n      tag_316\n      tag_223\n      jump\t// in\n    tag_316:\n        /* \"#utility.yul\":1290:1409   */\n    tag_315:\n        /* \"#utility.yul\":1448:1449   */\n      0x00\n        /* \"#utility.yul\":1473:1526   */\n      tag_317\n        /* \"#utility.yul\":1518:1525   */\n      dup6\n        /* \"#utility.yul\":1509:1515   */\n      dup3\n        /* \"#utility.yul\":1498:1507   */\n      dup7\n        /* \"#utility.yul\":1494:1516   */\n      add\n        /* \"#utility.yul\":1473:1526   */\n      tag_228\n      jump\t// in\n    tag_317:\n        /* \"#utility.yul\":1463:1526   */\n      swap3\n      pop\n        /* \"#utility.yul\":1419:1536   */\n      pop\n        /* \"#utility.yul\":1575:1577   */\n      0x20\n        /* \"#utility.yul\":1601:1654   */\n      tag_318\n        /* \"#utility.yul\":1646:1653   */\n      dup6\n        /* \"#utility.yul\":1637:1643   */\n      dup3\n        /* \"#utility.yul\":1626:1635   */\n      dup7\n        /* \"#utility.yul\":1622:1644   */\n      add\n        /* \"#utility.yul\":1601:1654   */\n      tag_231\n      jump\t// in\n    tag_318:\n        /* \"#utility.yul\":1591:1654   */\n      swap2\n      pop\n        /* \"#utility.yul\":1546:1664   */\n      pop\n        /* \"#utility.yul\":1197:1671   */\n      swap3\n      pop\n      swap3\n      swap1\n      pop\n      jump\t// out\n        /* \"#utility.yul\":1677:1795   */\n    tag_232:\n        /* \"#utility.yul\":1764:1788   */\n      tag_320\n        /* \"#utility.yul\":1782:1787   */\n      dup2\n        /* \"#utility.yul\":1764:1788   */\n      tag_229\n      jump\t// in\n    tag_320:\n        /* \"#utility.yul\":1759:1762   */\n      dup3\n        /* \"#utility.yul\":1752:1789   */\n      mstore\n        /* \"#utility.yul\":1677:1795   */\n      pop\n      pop\n      jump\t// out\n        /* \"#utility.yul\":1801:2023   */\n    tag_19:\n        /* \"#utility.yul\":1894:1898   */\n      0x00\n        /* \"#utility.yul\":1932:1934   */\n      0x20\n        /* \"#utility.yul\":1921:1930   */\n      dup3\n        /* \"#utility.yul\":1917:1935   */\n      add\n        /* \"#utility.yul\":1909:1935   */\n      swap1\n      pop\n        /* \"#utility.yul\":1945:2016   */\n      tag_322\n        /* \"#utility.yul\":2013:2014   */\n      0x00\n        /* \"#utility.yul\":2002:2011   */\n      dup4\n        /* \"#utility.yul\":1998:2015   */\n      add\n        /* \"#utility.yul\":1989:1995   */\n      dup5\n        /* \"#utility.yul\":1945:2016   */\n      tag_232\n      jump\t// in\n    tag_322:\n        /* \"#utility.yul\":1801:2023   */\n      swap3\n      swap2\n      pop\n      pop\n      jump\t// out\n        /* \"#utility.yul\":2029:2178   */\n    tag_233:\n        /* \"#utility.yul\":2065:2072   */\n      0x00\n        /* \"#utility.yul\":2105:2171   */\n      0xffffffff00000000000000000000000000000000000000000000000000000000\n        /* \"#utility.yul\":2098:2103   */\n      dup3\n        /* \"#utility.yul\":2094:2172   */\n      and\n        /* \"#utility.yul\":2083:2172   */\n      swap1\n      pop\n        /* \"#utility.yul\":2029:2178   */\n      swap2\n      swap1\n      pop\n      jump\t// out\n        /* \"#utility.yul\":2184:2304   */\n    tag_234:\n        /* \"#utility.yul\":2256:2279   */\n      tag_325\n        /* \"#utility.yul\":2273:2278   */\n      dup2\n        /* \"#utility.yul\":2256:2279   */\n      tag_233\n      jump\t// in\n    tag_325:\n        /* \"#utility.yul\":2249:2254   */\n      dup2\n        /* \"#utility.yul\":2246:2280   */\n      eq\n        /* \"#utility.yul\":2236:2298   */\n      tag_326\n      jumpi\n        /* \"#utility.yul\":2294:2295   */\n      0x00\n        /* \"#utility.yul\":2291:2292   */\n      dup1\n        /* \"#utility.yul\":2284:2296   */\n      revert\n        /* \"#utility.yul\":2236:2298   */\n    tag_326:\n        /* \"#utility.yul\":2184:2304   */\n      pop\n      jump\t// out\n        /* \"#utility.yul\":2310:2447   */\n    tag_235:\n        /* \"#utility.yul\":2355:2360   */\n      0x00\n        /* \"#utility.yul\":2393:2399   */\n      dup2\n        /* \"#utility.yul\":2380:2400   */\n      calldataload\n        /* \"#utility.yul\":2371:2400   */\n      swap1\n      pop\n        /* \"#utility.yul\":2409:2441   */\n      tag_328\n        /* \"#utility.yul\":2435:2440   */\n      dup2\n        /* \"#utility.yul\":2409:2441   */\n      tag_234\n      jump\t// in\n    tag_328:\n        /* \"#utility.yul\":2310:2447   */\n      swap3\n      swap2\n      pop\n      pop\n      jump\t// out\n        /* \"#utility.yul\":2453:2780   */\n    tag_22:\n        /* \"#utility.yul\":2511:2517   */\n      0x00\n        /* \"#utility.yul\":2560:2562   */\n      0x20\n        /* \"#utility.yul\":2548:2557   */\n      dup3\n        /* \"#utility.yul\":2539:2546   */\n      dup5\n        /* \"#utility.yul\":2535:2558   */\n      sub\n        /* \"#utility.yul\":2531:2563   */\n      slt\n        /* \"#utility.yul\":2528:2647   */\n      iszero\n      tag_330\n      jumpi\n        /* \"#utility.yul\":2566:2645   */\n      tag_331\n      tag_223\n      jump\t// in\n    tag_331:\n        /* \"#utility.yul\":2528:2647   */\n    tag_330:\n        /* \"#utility.yul\":2686:2687   */\n      0x00\n        /* \"#utility.yul\":2711:2763   */\n      tag_332\n        /* \"#utility.yul\":2755:2762   */\n      dup5\n        /* \"#utility.yul\":2746:2752   */\n      dup3\n        /* \"#utility.yul\":2735:2744   */\n      dup6\n        /* \"#utility.yul\":2731:2753   */\n      add\n        /* \"#utility.yul\":2711:2763   */\n      tag_235\n      jump\t// in\n    tag_332:\n        /* \"#utility.yul\":2701:2763   */\n      swap2\n      pop\n        /* \"#utility.yul\":2657:2773   */\n      pop\n        /* \"#utility.yul\":2453:2780   */\n      swap3\n      swap2\n      pop\n      pop\n      jump\t// out\n        /* \"#utility.yul\":2786:2876   */\n    tag_236:\n        /* \"#utility.yul\":2820:2827   */\n      0x00\n        /* \"#utility.yul\":2863:2868   */\n      dup2\n        /* \"#utility.yul\":2856:2869   */\n      iszero\n        /* \"#utility.yul\":2849:2870   */\n      iszero\n        /* \"#utility.yul\":2838:2870   */\n      swap1\n      pop\n        /* \"#utility.yul\":2786:2876   */\n      swap2\n      swap1\n      pop\n      jump\t// out\n        /* \"#utility.yul\":2882:2991   */\n    tag_237:\n        /* \"#utility.yul\":2963:2984   */\n      tag_335\n        /* \"#utility.yul\":2978:2983   */\n      dup2\n        /* \"#utility.yul\":2963:2984   */\n      tag_236\n      jump\t// in\n    tag_335:\n        /* \"#utility.yul\":2958:2961   */\n      dup3\n        /* \"#utility.yul\":2951:2985   */\n      mstore\n        /* \"#utility.yul\":2882:2991   */\n      pop\n      pop\n      jump\t// out\n        /* \"#utility.yul\":2997:3207   */\n    tag_25:\n        /* \"#utility.yul\":3084:3088   */\n      0x00\n        /* \"#utility.yul\":3122:3124   */\n      0x20\n        /* \"#utility.yul\":3111:3120   */\n      dup3\n        /* \"#utility.yul\":3107:3125   */\n      add\n        /* \"#utility.yul\":3099:3125   */\n      swap1\n      pop\n        /* \"#utility.yul\":3135:3200   */\n      tag_337\n        /* \"#utility.yul\":3197:3198   */\n      0x00\n        /* \"#utility.yul\":3186:3195   */\n      dup4\n        /* \"#utility.yul\":3182:3199   */\n      add\n        /* \"#utility.yul\":3173:3179   */\n      dup5\n        /* \"#utility.yul\":3135:3200   */\n      tag_237\n      jump\t// in\n    tag_337:\n        /* \"#utility.yul\":2997:3207   */\n      swap3\n      swap2\n      pop\n      pop\n      jump\t// out\n        /* \"#utility.yul\":3213:3312   */\n    tag_238:\n        /* \"#utility.yul\":3265:3271   */\n      0x00\n        /* \"#utility.yul\":3299:3304   */\n      dup2\n        /* \"#utility.yul\":3293:3305   */\n      mload\n        /* \"#utility.yul\":3283:3305   */\n      swap1\n      pop\n        /* \"#utility.yul\":3213:3312   */\n      swap2\n      swap1\n      pop\n      jump\t// out\n        /* \"#utility.yul\":3318:3487   */\n    tag_239:\n        /* \"#utility.yul\":3402:3413   */\n      0x00\n        /* \"#utility.yul\":3436:3442   */\n      dup3\n        /* \"#utility.yul\":3431:3434   */\n      dup3\n        /* \"#utility.yul\":3424:3443   */\n      mstore\n        /* \"#utility.yul\":3476:3480   */\n      0x20\n        /* \"#utility.yul\":3471:3474   */\n      dup3\n        /* \"#utility.yul\":3467:3481   */\n      add\n        /* \"#utility.yul\":3452:3481   */\n      swap1\n      pop\n        /* \"#utility.yul\":3318:3487   */\n      swap3\n      swap2\n      pop\n      pop\n      jump\t// out\n        /* \"#utility.yul\":3493:3632   */\n    tag_240:\n        /* \"#utility.yul\":3582:3588   */\n      dup3\n        /* \"#utility.yul\":3577:3580   */\n      dup2\n        /* \"#utility.yul\":3572:3575   */\n      dup4\n        /* \"#utility.yul\":3566:3589   */\n      mcopy\n        /* \"#utility.yul\":3623:3624   */\n      0x00\n        /* \"#utility.yul\":3614:3620   */\n      dup4\n        /* \"#utility.yul\":3609:3612   */\n      dup4\n        /* \"#utility.yul\":3605:3621   */\n      add\n        /* \"#utility.yul\":3598:3625   */\n      mstore\n        /* \"#utility.yul\":3493:3632   */\n      pop\n      pop\n      pop\n      jump\t// out\n        /* \"#utility.yul\":3638:3740   */\n    tag_241:\n        /* \"#utility.yul\":3679:3685   */\n      0x00\n        /* \"#utility.yul\":3730:3732   */\n      0x1f\n        /* \"#utility.yul\":3726:3733   */\n      not\n        /* \"#utility.yul\":3721:3723   */\n      0x1f\n        /* \"#utility.yul\":3714:3719   */\n      dup4\n        /* \"#utility.yul\":3710:3724   */\n      add\n        /* \"#utility.yul\":3706:3734   */\n      and\n        /* \"#utility.yul\":3696:3734   */\n      swap1\n      pop\n        /* \"#utility.yul\":3638:3740   */\n      swap2\n      swap1\n      pop\n      jump\t// out\n        /* \"#utility.yul\":3746:4123   */\n    tag_242:\n        /* \"#utility.yul\":3834:3837   */\n      0x00\n        /* \"#utility.yul\":3862:3901   */\n      tag_343\n        /* \"#utility.yul\":3895:3900   */\n      dup3\n        /* \"#utility.yul\":3862:3901   */\n      tag_238\n      jump\t// in\n    tag_343:\n        /* \"#utility.yul\":3917:3988   */\n      tag_344\n        /* \"#utility.yul\":3981:3987   */\n      dup2\n        /* \"#utility.yul\":3976:3979   */\n      dup6\n        /* \"#utility.yul\":3917:3988   */\n      tag_239\n      jump\t// in\n    tag_344:\n        /* \"#utility.yul\":3910:3988   */\n      swap4\n      pop\n        /* \"#utility.yul\":3997:4062   */\n      tag_345\n        /* \"#utility.yul\":4055:4061   */\n      dup2\n        /* \"#utility.yul\":4050:4053   */\n      dup6\n        /* \"#utility.yul\":4043:4047   */\n      0x20\n        /* \"#utility.yul\":4036:4041   */\n      dup7\n        /* \"#utility.yul\":4032:4048   */\n      add\n        /* \"#utility.yul\":3997:4062   */\n      tag_240\n      jump\t// in\n    tag_345:\n        /* \"#utility.yul\":4087:4116   */\n      tag_346\n        /* \"#utility.yul\":4109:4115   */\n      dup2\n        /* \"#utility.yul\":4087:4116   */\n      tag_241\n      jump\t// in\n    tag_346:\n        /* \"#utility.yul\":4082:4085   */\n      dup5\n        /* \"#utility.yul\":4078:4117   */\n      add\n        /* \"#utility.yul\":4071:4117   */\n      swap2\n      pop\n        /* \"#utility.yul\":3838:4123   */\n      pop\n        /* \"#utility.yul\":3746:4123   */\n      swap3\n      swap2\n      pop\n      pop\n      jump\t// out\n        /* \"#utility.yul\":4129:4442   */\n    tag_29:\n        /* \"#utility.yul\":4242:4246   */\n      0x00\n        /* \"#utility.yul\":4280:4282   */\n      0x20\n        /* \"#utility.yul\":4269:4278   */\n      dup3\n        /* \"#utility.yul\":4265:4283   */\n      add\n        /* \"#utility.yul\":4257:4283   */\n      swap1\n      pop\n        /* \"#utility.yul\":4329:4338   */\n      dup2\n        /* \"#utility.yul\":4323:4327   */\n      dup2\n        /* \"#utility.yul\":4319:4339   */\n      sub\n        /* \"#utility.yul\":4315:4316   */\n      0x00\n        /* \"#utility.yul\":4304:4313   */\n      dup4\n        /* \"#utility.yul\":4300:4317   */\n      add\n        /* \"#utility.yul\":4293:4340   */\n      mstore\n        /* \"#utility.yul\":4357:4435   */\n      tag_348\n        /* \"#utility.yul\":4430:4434   */\n      dup2\n        /* \"#utility.yul\":4421:4427   */\n      dup5\n        /* \"#utility.yul\":4357:4435   */\n      tag_242\n      jump\t// in\n    tag_348:\n        /* \"#utility.yul\":4349:4435   */\n      swap1\n      pop\n        /* \"#utility.yul\":4129:4442   */\n      swap3\n      swap2\n      pop\n      pop\n      jump\t// out\n        /* \"#utility.yul\":4448:4777   */\n    tag_32:\n        /* \"#utility.yul\":4507:4513   */\n      0x00\n        /* \"#utility.yul\":4556:4558   */\n      0x20\n        /* \"#utility.yul\":4544:4553   */\n      dup3\n        /* \"#utility.yul\":4535:4542   */\n      dup5\n        /* \"#utility.yul\":4531:4554   */\n      sub\n        /* \"#utility.yul\":4527:4559   */\n      slt\n        /* \"#utility.yul\":4524:4643   */\n      iszero\n      tag_350\n      jumpi\n        /* \"#utility.yul\":4562:4641   */\n      tag_351\n      tag_223\n      jump\t// in\n    tag_351:\n        /* \"#utility.yul\":4524:4643   */\n    tag_350:\n        /* \"#utility.yul\":4682:4683   */\n      0x00\n        /* \"#utility.yul\":4707:4760   */\n      tag_352\n        /* \"#utility.yul\":4752:4759   */\n      dup5\n        /* \"#utility.yul\":4743:4749   */\n      dup3\n        /* \"#utility.yul\":4732:4741   */\n      dup6\n        /* \"#utility.yul\":4728:4750   */\n      add\n        /* \"#utility.yul\":4707:4760   */\n      tag_231\n      jump\t// in\n    tag_352:\n        /* \"#utility.yul\":4697:4760   */\n      swap2\n      pop\n        /* \"#utility.yul\":4653:4770   */\n      pop\n        /* \"#utility.yul\":4448:4777   */\n      swap3\n      swap2\n      pop\n      pop\n      jump\t// out\n        /* \"#utility.yul\":4783:4900   */\n    tag_243:\n        /* \"#utility.yul\":4892:4893   */\n      0x00\n        /* \"#utility.yul\":4889:4890   */\n      dup1\n        /* \"#utility.yul\":4882:4894   */\n      revert\n        /* \"#utility.yul\":4906:5086   */\n    tag_118:\n        /* \"#utility.yul\":4954:5031   */\n      0x4e487b7100000000000000000000000000000000000000000000000000000000\n        /* \"#utility.yul\":4951:4952   */\n      0x00\n        /* \"#utility.yul\":4944:5032   */\n      mstore\n        /* \"#utility.yul\":5051:5055   */\n      0x41\n        /* \"#utility.yul\":5048:5049   */\n      0x04\n        /* \"#utility.yul\":5041:5056   */\n      mstore\n        /* \"#utility.yul\":5075:5079   */\n      0x24\n        /* \"#utility.yul\":5072:5073   */\n      0x00\n        /* \"#utility.yul\":5065:5080   */\n      revert\n        /* \"#utility.yul\":5092:5373   */\n    tag_244:\n        /* \"#utility.yul\":5175:5202   */\n      tag_356\n        /* \"#utility.yul\":5197:5201   */\n      dup3\n        /* \"#utility.yul\":5175:5202   */\n      tag_241\n      jump\t// in\n    tag_356:\n        /* \"#utility.yul\":5167:5173   */\n      dup2\n        /* \"#utility.yul\":5163:5203   */\n      add\n        /* \"#utility.yul\":5305:5311   */\n      dup2\n        /* \"#utility.yul\":5293:5303   */\n      dup2\n        /* \"#utility.yul\":5290:5312   */\n      lt\n        /* \"#utility.yul\":5269:5287   */\n      0xffffffffffffffff\n        /* \"#utility.yul\":5257:5267   */\n      dup3\n        /* \"#utility.yul\":5254:5288   */\n      gt\n        /* \"#utility.yul\":5251:5313   */\n      or\n        /* \"#utility.yul\":5248:5336   */\n      iszero\n      tag_357\n      jumpi\n        /* \"#utility.yul\":5316:5334   */\n      tag_358\n      tag_118\n      jump\t// in\n    tag_358:\n        /* \"#utility.yul\":5248:5336   */\n    tag_357:\n        /* \"#utility.yul\":5356:5366   */\n      dup1\n        /* \"#utility.yul\":5352:5354   */\n      0x40\n        /* \"#utility.yul\":5345:5367   */\n      mstore\n        /* \"#utility.yul\":5135:5373   */\n      pop\n        /* \"#utility.yul\":5092:5373   */\n      pop\n      pop\n      jump\t// out\n        /* \"#utility.yul\":5379:5508   */\n    tag_245:\n        /* \"#utility.yul\":5413:5419   */\n      0x00\n        /* \"#utility.yul\":5440:5460   */\n      tag_360\n      tag_222\n      jump\t// in\n    tag_360:\n        /* \"#utility.yul\":5430:5460   */\n      swap1\n      pop\n        /* \"#utility.yul\":5469:5502   */\n      tag_361\n        /* \"#utility.yul\":5497:5501   */\n      dup3\n        /* \"#utility.yul\":5489:5495   */\n      dup3\n        /* \"#utility.yul\":5469:5502   */\n      tag_244\n      jump\t// in\n    tag_361:\n        /* \"#utility.yul\":5379:5508   */\n      swap2\n      swap1\n      pop\n      jump\t// out\n        /* \"#utility.yul\":5514:5825   */\n    tag_246:\n        /* \"#utility.yul\":5591:5595   */\n      0x00\n        /* \"#utility.yul\":5681:5699   */\n      0xffffffffffffffff\n        /* \"#utility.yul\":5673:5679   */\n      dup3\n        /* \"#utility.yul\":5670:5700   */\n      gt\n        /* \"#utility.yul\":5667:5723   */\n      iszero\n      tag_363\n      jumpi\n        /* \"#utility.yul\":5703:5721   */\n      tag_364\n      tag_118\n      jump\t// in\n    tag_364:\n        /* \"#utility.yul\":5667:5723   */\n    tag_363:\n        /* \"#utility.yul\":5753:5757   */\n      0x20\n        /* \"#utility.yul\":5745:5751   */\n      dup3\n        /* \"#utility.yul\":5741:5758   */\n      mul\n        /* \"#utility.yul\":5733:5758   */\n      swap1\n      pop\n        /* \"#utility.yul\":5813:5817   */\n      0x20\n        /* \"#utility.yul\":5807:5811   */\n      dup2\n        /* \"#utility.yul\":5803:5818   */\n      add\n        /* \"#utility.yul\":5795:5818   */\n      swap1\n      pop\n        /* \"#utility.yul\":5514:5825   */\n      swap2\n      swap1\n      pop\n      jump\t// out\n        /* \"#utility.yul\":5831:5948   */\n    tag_247:\n        /* \"#utility.yul\":5940:5941   */\n      0x00\n        /* \"#utility.yul\":5937:5938   */\n      dup1\n        /* \"#utility.yul\":5930:5942   */\n      revert\n        /* \"#utility.yul\":5971:6681   */\n    tag_248:\n        /* \"#utility.yul\":6067:6072   */\n      0x00\n        /* \"#utility.yul\":6092:6173   */\n      tag_367\n        /* \"#utility.yul\":6108:6172   */\n      tag_368\n        /* \"#utility.yul\":6165:6171   */\n      dup5\n        /* \"#utility.yul\":6108:6172   */\n      tag_246\n      jump\t// in\n    tag_368:\n        /* \"#utility.yul\":6092:6173   */\n      tag_245\n      jump\t// in\n    tag_367:\n        /* \"#utility.yul\":6083:6173   */\n      swap1\n      pop\n        /* \"#utility.yul\":6193:6198   */\n      dup1\n        /* \"#utility.yul\":6222:6228   */\n      dup4\n        /* \"#utility.yul\":6215:6220   */\n      dup3\n        /* \"#utility.yul\":6208:6229   */\n      mstore\n        /* \"#utility.yul\":6256:6260   */\n      0x20\n        /* \"#utility.yul\":6249:6254   */\n      dup3\n        /* \"#utility.yul\":6245:6261   */\n      add\n        /* \"#utility.yul\":6238:6261   */\n      swap1\n      pop\n        /* \"#utility.yul\":6309:6313   */\n      0x20\n        /* \"#utility.yul\":6301:6307   */\n      dup5\n        /* \"#utility.yul\":6297:6314   */\n      mul\n        /* \"#utility.yul\":6289:6295   */\n      dup4\n        /* \"#utility.yul\":6285:6315   */\n      add\n        /* \"#utility.yul\":6338:6341   */\n      dup6\n        /* \"#utility.yul\":6330:6336   */\n      dup2\n        /* \"#utility.yul\":6327:6342   */\n      gt\n        /* \"#utility.yul\":6324:6446   */\n      iszero\n      tag_369\n      jumpi\n        /* \"#utility.yul\":6357:6436   */\n      tag_370\n      tag_247\n      jump\t// in\n    tag_370:\n        /* \"#utility.yul\":6324:6446   */\n    tag_369:\n        /* \"#utility.yul\":6472:6478   */\n      dup4\n        /* \"#utility.yul\":6455:6675   */\n    tag_371:\n        /* \"#utility.yul\":6489:6495   */\n      dup2\n        /* \"#utility.yul\":6484:6487   */\n      dup2\n        /* \"#utility.yul\":6481:6496   */\n      lt\n        /* \"#utility.yul\":6455:6675   */\n      iszero\n      tag_373\n      jumpi\n        /* \"#utility.yul\":6564:6567   */\n      dup1\n        /* \"#utility.yul\":6593:6630   */\n      tag_374\n        /* \"#utility.yul\":6626:6629   */\n      dup9\n        /* \"#utility.yul\":6614:6624   */\n      dup3\n        /* \"#utility.yul\":6593:6630   */\n      tag_231\n      jump\t// in\n    tag_374:\n        /* \"#utility.yul\":6588:6591   */\n      dup5\n        /* \"#utility.yul\":6581:6631   */\n      mstore\n        /* \"#utility.yul\":6660:6664   */\n      0x20\n        /* \"#utility.yul\":6655:6658   */\n      dup5\n        /* \"#utility.yul\":6651:6665   */\n      add\n        /* \"#utility.yul\":6644:6665   */\n      swap4\n      pop\n        /* \"#utility.yul\":6531:6675   */\n      pop\n        /* \"#utility.yul\":6515:6519   */\n      0x20\n        /* \"#utility.yul\":6510:6513   */\n      dup2\n        /* \"#utility.yul\":6506:6520   */\n      add\n        /* \"#utility.yul\":6499:6520   */\n      swap1\n      pop\n        /* \"#utility.yul\":6455:6675   */\n      jump(tag_371)\n    tag_373:\n        /* \"#utility.yul\":6459:6480   */\n      pop\n        /* \"#utility.yul\":6073:6681   */\n      pop\n      pop\n        /* \"#utility.yul\":5971:6681   */\n      swap4\n      swap3\n      pop\n      pop\n      pop\n      jump\t// out\n        /* \"#utility.yul\":6704:7074   */\n    tag_249:\n        /* \"#utility.yul\":6775:6780   */\n      0x00\n        /* \"#utility.yul\":6824:6827   */\n      dup3\n        /* \"#utility.yul\":6817:6821   */\n      0x1f\n        /* \"#utility.yul\":6809:6815   */\n      dup4\n        /* \"#utility.yul\":6805:6822   */\n      add\n        /* \"#utility.yul\":6801:6828   */\n      slt\n        /* \"#utility.yul\":6791:6913   */\n      tag_376\n      jumpi\n        /* \"#utility.yul\":6832:6911   */\n      tag_377\n      tag_243\n      jump\t// in\n    tag_377:\n        /* \"#utility.yul\":6791:6913   */\n    tag_376:\n        /* \"#utility.yul\":6949:6955   */\n      dup2\n        /* \"#utility.yul\":6936:6956   */\n      calldataload\n        /* \"#utility.yul\":6974:7068   */\n      tag_378\n        /* \"#utility.yul\":7064:7067   */\n      dup5\n        /* \"#utility.yul\":7056:7062   */\n      dup3\n        /* \"#utility.yul\":7049:7053   */\n      0x20\n        /* \"#utility.yul\":7041:7047   */\n      dup7\n        /* \"#utility.yul\":7037:7054   */\n      add\n        /* \"#utility.yul\":6974:7068   */\n      tag_248\n      jump\t// in\n    tag_378:\n        /* \"#utility.yul\":6965:7068   */\n      swap2\n      pop\n        /* \"#utility.yul\":6781:7074   */\n      pop\n        /* \"#utility.yul\":6704:7074   */\n      swap3\n      swap2\n      pop\n      pop\n      jump\t// out\n        /* \"#utility.yul\":7080:7197   */\n    tag_250:\n        /* \"#utility.yul\":7189:7190   */\n      0x00\n        /* \"#utility.yul\":7186:7187   */\n      dup1\n        /* \"#utility.yul\":7179:7191   */\n      revert\n        /* \"#utility.yul\":7203:7510   */\n    tag_251:\n        /* \"#utility.yul\":7264:7268   */\n      0x00\n        /* \"#utility.yul\":7354:7372   */\n      0xffffffffffffffff\n        /* \"#utility.yul\":7346:7352   */\n      dup3\n        /* \"#utility.yul\":7343:7373   */\n      gt\n        /* \"#utility.yul\":7340:7396   */\n      iszero\n      tag_381\n      jumpi\n        /* \"#utility.yul\":7376:7394   */\n      tag_382\n      tag_118\n      jump\t// in\n    tag_382:\n        /* \"#utility.yul\":7340:7396   */\n    tag_381:\n        /* \"#utility.yul\":7414:7443   */\n      tag_383\n        /* \"#utility.yul\":7436:7442   */\n      dup3\n        /* \"#utility.yul\":7414:7443   */\n      tag_241\n      jump\t// in\n    tag_383:\n        /* \"#utility.yul\":7406:7443   */\n      swap1\n      pop\n        /* \"#utility.yul\":7498:7502   */\n      0x20\n        /* \"#utility.yul\":7492:7496   */\n      dup2\n        /* \"#utility.yul\":7488:7503   */\n      add\n        /* \"#utility.yul\":7480:7503   */\n      swap1\n      pop\n        /* \"#utility.yul\":7203:7510   */\n      swap2\n      swap1\n      pop\n      jump\t// out\n        /* \"#utility.yul\":7516:7664   */\n    tag_252:\n        /* \"#utility.yul\":7614:7620   */\n      dup3\n        /* \"#utility.yul\":7609:7612   */\n      dup2\n        /* \"#utility.yul\":7604:7607   */\n      dup4\n        /* \"#utility.yul\":7591:7621   */\n      calldatacopy\n        /* \"#utility.yul\":7655:7656   */\n      0x00\n        /* \"#utility.yul\":7646:7652   */\n      dup4\n        /* \"#utility.yul\":7641:7644   */\n      dup4\n        /* \"#utility.yul\":7637:7653   */\n      add\n        /* \"#utility.yul\":7630:7657   */\n      mstore\n        /* \"#utility.yul\":7516:7664   */\n      pop\n      pop\n      pop\n      jump\t// out\n        /* \"#utility.yul\":7670:8093   */\n    tag_253:\n        /* \"#utility.yul\":7747:7752   */\n      0x00\n        /* \"#utility.yul\":7772:7837   */\n      tag_386\n        /* \"#utility.yul\":7788:7836   */\n      tag_387\n        /* \"#utility.yul\":7829:7835   */\n      dup5\n        /* \"#utility.yul\":7788:7836   */\n      tag_251\n      jump\t// in\n    tag_387:\n        /* \"#utility.yul\":7772:7837   */\n      tag_245\n      jump\t// in\n    tag_386:\n        /* \"#utility.yul\":7763:7837   */\n      swap1\n      pop\n        /* \"#utility.yul\":7860:7866   */\n      dup3\n        /* \"#utility.yul\":7853:7858   */\n      dup2\n        /* \"#utility.yul\":7846:7867   */\n      mstore\n        /* \"#utility.yul\":7898:7902   */\n      0x20\n        /* \"#utility.yul\":7891:7896   */\n      dup2\n        /* \"#utility.yul\":7887:7903   */\n      add\n        /* \"#utility.yul\":7936:7939   */\n      dup5\n        /* \"#utility.yul\":7927:7933   */\n      dup5\n        /* \"#utility.yul\":7922:7925   */\n      dup5\n        /* \"#utility.yul\":7918:7934   */\n      add\n        /* \"#utility.yul\":7915:7940   */\n      gt\n        /* \"#utility.yul\":7912:8024   */\n      iszero\n      tag_388\n      jumpi\n        /* \"#utility.yul\":7943:8022   */\n      tag_389\n      tag_250\n      jump\t// in\n    tag_389:\n        /* \"#utility.yul\":7912:8024   */\n    tag_388:\n        /* \"#utility.yul\":8033:8087   */\n      tag_390\n        /* \"#utility.yul\":8080:8086   */\n      dup5\n        /* \"#utility.yul\":8075:8078   */\n      dup3\n        /* \"#utility.yul\":8070:8073   */\n      dup6\n        /* \"#utility.yul\":8033:8087   */\n      tag_252\n      jump\t// in\n    tag_390:\n        /* \"#utility.yul\":7753:8093   */\n      pop\n        /* \"#utility.yul\":7670:8093   */\n      swap4\n      swap3\n      pop\n      pop\n      pop\n      jump\t// out\n        /* \"#utility.yul\":8112:8450   */\n    tag_254:\n        /* \"#utility.yul\":8167:8172   */\n      0x00\n        /* \"#utility.yul\":8216:8219   */\n      dup3\n        /* \"#utility.yul\":8209:8213   */\n      0x1f\n        /* \"#utility.yul\":8201:8207   */\n      dup4\n        /* \"#utility.yul\":8197:8214   */\n      add\n        /* \"#utility.yul\":8193:8220   */\n      slt\n        /* \"#utility.yul\":8183:8305   */\n      tag_392\n      jumpi\n        /* \"#utility.yul\":8224:8303   */\n      tag_393\n      tag_243\n      jump\t// in\n    tag_393:\n        /* \"#utility.yul\":8183:8305   */\n    tag_392:\n        /* \"#utility.yul\":8341:8347   */\n      dup2\n        /* \"#utility.yul\":8328:8348   */\n      calldataload\n        /* \"#utility.yul\":8366:8444   */\n      tag_394\n        /* \"#utility.yul\":8440:8443   */\n      dup5\n        /* \"#utility.yul\":8432:8438   */\n      dup3\n        /* \"#utility.yul\":8425:8429   */\n      0x20\n        /* \"#utility.yul\":8417:8423   */\n      dup7\n        /* \"#utility.yul\":8413:8430   */\n      add\n        /* \"#utility.yul\":8366:8444   */\n      tag_253\n      jump\t// in\n    tag_394:\n        /* \"#utility.yul\":8357:8444   */\n      swap2\n      pop\n        /* \"#utility.yul\":8173:8450   */\n      pop\n        /* \"#utility.yul\":8112:8450   */\n      swap3\n      swap2\n      pop\n      pop\n      jump\t// out\n        /* \"#utility.yul\":8456:9965   */\n    tag_37:\n        /* \"#utility.yul\":8610:8616   */\n      0x00\n        /* \"#utility.yul\":8618:8624   */\n      dup1\n        /* \"#utility.yul\":8626:8632   */\n      0x00\n        /* \"#utility.yul\":8634:8640   */\n      dup1\n        /* \"#utility.yul\":8642:8648   */\n      0x00\n        /* \"#utility.yul\":8691:8694   */\n      0xa0\n        /* \"#utility.yul\":8679:8688   */\n      dup7\n        /* \"#utility.yul\":8670:8677   */\n      dup9\n        /* \"#utility.yul\":8666:8689   */\n      sub\n        /* \"#utility.yul\":8662:8695   */\n      slt\n        /* \"#utility.yul\":8659:8779   */\n      iszero\n      tag_396\n      jumpi\n        /* \"#utility.yul\":8698:8777   */\n      tag_397\n      tag_223\n      jump\t// in\n    tag_397:\n        /* \"#utility.yul\":8659:8779   */\n    tag_396:\n        /* \"#utility.yul\":8818:8819   */\n      0x00\n        /* \"#utility.yul\":8843:8896   */\n      tag_398\n        /* \"#utility.yul\":8888:8895   */\n      dup9\n        /* \"#utility.yul\":8879:8885   */\n      dup3\n        /* \"#utility.yul\":8868:8877   */\n      dup10\n        /* \"#utility.yul\":8864:8886   */\n      add\n        /* \"#utility.yul\":8843:8896   */\n      tag_228\n      jump\t// in\n    tag_398:\n        /* \"#utility.yul\":8833:8896   */\n      swap6\n      pop\n        /* \"#utility.yul\":8789:8906   */\n      pop\n        /* \"#utility.yul\":8945:8947   */\n      0x20\n        /* \"#utility.yul\":8971:9024   */\n      tag_399\n        /* \"#utility.yul\":9016:9023   */\n      dup9\n        /* \"#utility.yul\":9007:9013   */\n      dup3\n        /* \"#utility.yul\":8996:9005   */\n      dup10\n        /* \"#utility.yul\":8992:9014   */\n      add\n        /* \"#utility.yul\":8971:9024   */\n      tag_228\n      jump\t// in\n    tag_399:\n        /* \"#utility.yul\":8961:9024   */\n      swap5\n      pop\n        /* \"#utility.yul\":8916:9034   */\n      pop\n        /* \"#utility.yul\":9101:9103   */\n      0x40\n        /* \"#utility.yul\":9090:9099   */\n      dup7\n        /* \"#utility.yul\":9086:9104   */\n      add\n        /* \"#utility.yul\":9073:9105   */\n      calldataload\n        /* \"#utility.yul\":9132:9150   */\n      0xffffffffffffffff\n        /* \"#utility.yul\":9124:9130   */\n      dup2\n        /* \"#utility.yul\":9121:9151   */\n      gt\n        /* \"#utility.yul\":9118:9235   */\n      iszero\n      tag_400\n      jumpi\n        /* \"#utility.yul\":9154:9233   */\n      tag_401\n      tag_224\n      jump\t// in\n    tag_401:\n        /* \"#utility.yul\":9118:9235   */\n    tag_400:\n        /* \"#utility.yul\":9259:9337   */\n      tag_402\n        /* \"#utility.yul\":9329:9336   */\n      dup9\n        /* \"#utility.yul\":9320:9326   */\n      dup3\n        /* \"#utility.yul\":9309:9318   */\n      dup10\n        /* \"#utility.yul\":9305:9327   */\n      add\n        /* \"#utility.yul\":9259:9337   */\n      tag_249\n      jump\t// in\n    tag_402:\n        /* \"#utility.yul\":9249:9337   */\n      swap4\n      pop\n        /* \"#utility.yul\":9044:9347   */\n      pop\n        /* \"#utility.yul\":9414:9416   */\n      0x60\n        /* \"#utility.yul\":9403:9412   */\n      dup7\n        /* \"#utility.yul\":9399:9417   */\n      add\n        /* \"#utility.yul\":9386:9418   */\n      calldataload\n        /* \"#utility.yul\":9445:9463   */\n      0xffffffffffffffff\n        /* \"#utility.yul\":9437:9443   */\n      dup2\n        /* \"#utility.yul\":9434:9464   */\n      gt\n        /* \"#utility.yul\":9431:9548   */\n      iszero\n      tag_403\n      jumpi\n        /* \"#utility.yul\":9467:9546   */\n      tag_404\n      tag_224\n      jump\t// in\n    tag_404:\n        /* \"#utility.yul\":9431:9548   */\n    tag_403:\n        /* \"#utility.yul\":9572:9650   */\n      tag_405\n        /* \"#utility.yul\":9642:9649   */\n      dup9\n        /* \"#utility.yul\":9633:9639   */\n      dup3\n        /* \"#utility.yul\":9622:9631   */\n      dup10\n        /* \"#utility.yul\":9618:9640   */\n      add\n        /* \"#utility.yul\":9572:9650   */\n      tag_249\n      jump\t// in\n    tag_405:\n        /* \"#utility.yul\":9562:9650   */\n      swap3\n      pop\n        /* \"#utility.yul\":9357:9660   */\n      pop\n        /* \"#utility.yul\":9727:9730   */\n      0x80\n        /* \"#utility.yul\":9716:9725   */\n      dup7\n        /* \"#utility.yul\":9712:9731   */\n      add\n        /* \"#utility.yul\":9699:9732   */\n      calldataload\n        /* \"#utility.yul\":9759:9777   */\n      0xffffffffffffffff\n        /* \"#utility.yul\":9751:9757   */\n      dup2\n        /* \"#utility.yul\":9748:9778   */\n      gt\n        /* \"#utility.yul\":9745:9862   */\n      iszero\n      tag_406\n      jumpi\n        /* \"#utility.yul\":9781:9860   */\n      tag_407\n      tag_224\n      jump\t// in\n    tag_407:\n        /* \"#utility.yul\":9745:9862   */\n    tag_406:\n        /* \"#utility.yul\":9886:9948   */\n      tag_408\n        /* \"#utility.yul\":9940:9947   */\n      dup9\n        /* \"#utility.yul\":9931:9937   */\n      dup3\n        /* \"#utility.yul\":9920:9929   */\n      dup10\n        /* \"#utility.yul\":9916:9938   */\n      add\n        /* \"#utility.yul\":9886:9948   */\n      tag_254\n      jump\t// in\n    tag_408:\n        /* \"#utility.yul\":9876:9948   */\n      swap2\n      pop\n        /* \"#utility.yul\":9670:9958   */\n      pop\n        /* \"#utility.yul\":8456:9965   */\n      swap3\n      swap6\n      pop\n      swap3\n      swap6\n      swap1\n      swap4\n      pop\n      jump\t// out\n        /* \"#utility.yul\":9971:10282   */\n    tag_255:\n        /* \"#utility.yul\":10048:10052   */\n      0x00\n        /* \"#utility.yul\":10138:10156   */\n      0xffffffffffffffff\n        /* \"#utility.yul\":10130:10136   */\n      dup3\n        /* \"#utility.yul\":10127:10157   */\n      gt\n        /* \"#utility.yul\":10124:10180   */\n      iszero\n      tag_410\n      jumpi\n        /* \"#utility.yul\":10160:10178   */\n      tag_411\n      tag_118\n      jump\t// in\n    tag_411:\n        /* \"#utility.yul\":10124:10180   */\n    tag_410:\n        /* \"#utility.yul\":10210:10214   */\n      0x20\n        /* \"#utility.yul\":10202:10208   */\n      dup3\n        /* \"#utility.yul\":10198:10215   */\n      mul\n        /* \"#utility.yul\":10190:10215   */\n      swap1\n      pop\n        /* \"#utility.yul\":10270:10274   */\n      0x20\n        /* \"#utility.yul\":10264:10268   */\n      dup2\n        /* \"#utility.yul\":10260:10275   */\n      add\n        /* \"#utility.yul\":10252:10275   */\n      swap1\n      pop\n        /* \"#utility.yul\":9971:10282   */\n      swap2\n      swap1\n      pop\n      jump\t// out\n        /* \"#utility.yul\":10305:11015   */\n    tag_256:\n        /* \"#utility.yul\":10401:10406   */\n      0x00\n        /* \"#utility.yul\":10426:10507   */\n      tag_413\n        /* \"#utility.yul\":10442:10506   */\n      tag_414\n        /* \"#utility.yul\":10499:10505   */\n      dup5\n        /* \"#utility.yul\":10442:10506   */\n      tag_255\n      jump\t// in\n    tag_414:\n        /* \"#utility.yul\":10426:10507   */\n      tag_245\n      jump\t// in\n    tag_413:\n        /* \"#utility.yul\":10417:10507   */\n      swap1\n      pop\n        /* \"#utility.yul\":10527:10532   */\n      dup1\n        /* \"#utility.yul\":10556:10562   */\n      dup4\n        /* \"#utility.yul\":10549:10554   */\n      dup3\n        /* \"#utility.yul\":10542:10563   */\n      mstore\n        /* \"#utility.yul\":10590:10594   */\n      0x20\n        /* \"#utility.yul\":10583:10588   */\n      dup3\n        /* \"#utility.yul\":10579:10595   */\n      add\n        /* \"#utility.yul\":10572:10595   */\n      swap1\n      pop\n        /* \"#utility.yul\":10643:10647   */\n      0x20\n        /* \"#utility.yul\":10635:10641   */\n      dup5\n        /* \"#utility.yul\":10631:10648   */\n      mul\n        /* \"#utility.yul\":10623:10629   */\n      dup4\n        /* \"#utility.yul\":10619:10649   */\n      add\n        /* \"#utility.yul\":10672:10675   */\n      dup6\n        /* \"#utility.yul\":10664:10670   */\n      dup2\n        /* \"#utility.yul\":10661:10676   */\n      gt\n        /* \"#utility.yul\":10658:10780   */\n      iszero\n      tag_415\n      jumpi\n        /* \"#utility.yul\":10691:10770   */\n      tag_416\n      tag_247\n      jump\t// in\n    tag_416:\n        /* \"#utility.yul\":10658:10780   */\n    tag_415:\n        /* \"#utility.yul\":10806:10812   */\n      dup4\n        /* \"#utility.yul\":10789:11009   */\n    tag_417:\n        /* \"#utility.yul\":10823:10829   */\n      dup2\n        /* \"#utility.yul\":10818:10821   */\n      dup2\n        /* \"#utility.yul\":10815:10830   */\n      lt\n        /* \"#utility.yul\":10789:11009   */\n      iszero\n      tag_419\n      jumpi\n        /* \"#utility.yul\":10898:10901   */\n      dup1\n        /* \"#utility.yul\":10927:10964   */\n      tag_420\n        /* \"#utility.yul\":10960:10963   */\n      dup9\n        /* \"#utility.yul\":10948:10958   */\n      dup3\n        /* \"#utility.yul\":10927:10964   */\n      tag_228\n      jump\t// in\n    tag_420:\n        /* \"#utility.yul\":10922:10925   */\n      dup5\n        /* \"#utility.yul\":10915:10965   */\n      mstore\n        /* \"#utility.yul\":10994:10998   */\n      0x20\n        /* \"#utility.yul\":10989:10992   */\n      dup5\n        /* \"#utility.yul\":10985:10999   */\n      add\n        /* \"#utility.yul\":10978:10999   */\n      swap4\n      pop\n        /* \"#utility.yul\":10865:11009   */\n      pop\n        /* \"#utility.yul\":10849:10853   */\n      0x20\n        /* \"#utility.yul\":10844:10847   */\n      dup2\n        /* \"#utility.yul\":10840:10854   */\n      add\n        /* \"#utility.yul\":10833:10854   */\n      swap1\n      pop\n        /* \"#utility.yul\":10789:11009   */\n      jump(tag_417)\n    tag_419:\n        /* \"#utility.yul\":10793:10814   */\n      pop\n        /* \"#utility.yul\":10407:11015   */\n      pop\n      pop\n        /* \"#utility.yul\":10305:11015   */\n      swap4\n      swap3\n      pop\n      pop\n      pop\n      jump\t// out\n        /* \"#utility.yul\":11038:11408   */\n    tag_257:\n        /* \"#utility.yul\":11109:11114   */\n      0x00\n        /* \"#utility.yul\":11158:11161   */\n      dup3\n        /* \"#utility.yul\":11151:11155   */\n      0x1f\n        /* \"#utility.yul\":11143:11149   */\n      dup4\n        /* \"#utility.yul\":11139:11156   */\n      add\n        /* \"#utility.yul\":11135:11162   */\n      slt\n        /* \"#utility.yul\":11125:11247   */\n      tag_422\n      jumpi\n        /* \"#utility.yul\":11166:11245   */\n      tag_423\n      tag_243\n      jump\t// in\n    tag_423:\n        /* \"#utility.yul\":11125:11247   */\n    tag_422:\n        /* \"#utility.yul\":11283:11289   */\n      dup2\n        /* \"#utility.yul\":11270:11290   */\n      calldataload\n        /* \"#utility.yul\":11308:11402   */\n      tag_424\n        /* \"#utility.yul\":11398:11401   */\n      dup5\n        /* \"#utility.yul\":11390:11396   */\n      dup3\n        /* \"#utility.yul\":11383:11387   */\n      0x20\n        /* \"#utility.yul\":11375:11381   */\n      dup7\n        /* \"#utility.yul\":11371:11388   */\n      add\n        /* \"#utility.yul\":11308:11402   */\n      tag_256\n      jump\t// in\n    tag_424:\n        /* \"#utility.yul\":11299:11402   */\n      swap2\n      pop\n        /* \"#utility.yul\":11115:11408   */\n      pop\n        /* \"#utility.yul\":11038:11408   */\n      swap3\n      swap2\n      pop\n      pop\n      jump\t// out\n        /* \"#utility.yul\":11414:12308   */\n    tag_41:\n        /* \"#utility.yul\":11532:11538   */\n      0x00\n        /* \"#utility.yul\":11540:11546   */\n      dup1\n        /* \"#utility.yul\":11589:11591   */\n      0x40\n        /* \"#utility.yul\":11577:11586   */\n      dup4\n        /* \"#utility.yul\":11568:11575   */\n      dup6\n        /* \"#utility.yul\":11564:11587   */\n      sub\n        /* \"#utility.yul\":11560:11592   */\n      slt\n        /* \"#utility.yul\":11557:11676   */\n      iszero\n      tag_426\n      jumpi\n        /* \"#utility.yul\":11595:11674   */\n      tag_427\n      tag_223\n      jump\t// in\n    tag_427:\n        /* \"#utility.yul\":11557:11676   */\n    tag_426:\n        /* \"#utility.yul\":11743:11744   */\n      0x00\n        /* \"#utility.yul\":11732:11741   */\n      dup4\n        /* \"#utility.yul\":11728:11745   */\n      add\n        /* \"#utility.yul\":11715:11746   */\n      calldataload\n        /* \"#utility.yul\":11773:11791   */\n      0xffffffffffffffff\n        /* \"#utility.yul\":11765:11771   */\n      dup2\n        /* \"#utility.yul\":11762:11792   */\n      gt\n        /* \"#utility.yul\":11759:11876   */\n      iszero\n      tag_428\n      jumpi\n        /* \"#utility.yul\":11795:11874   */\n      tag_429\n      tag_224\n      jump\t// in\n    tag_429:\n        /* \"#utility.yul\":11759:11876   */\n    tag_428:\n        /* \"#utility.yul\":11900:11978   */\n      tag_430\n        /* \"#utility.yul\":11970:11977   */\n      dup6\n        /* \"#utility.yul\":11961:11967   */\n      dup3\n        /* \"#utility.yul\":11950:11959   */\n      dup7\n        /* \"#utility.yul\":11946:11968   */\n      add\n        /* \"#utility.yul\":11900:11978   */\n      tag_257\n      jump\t// in\n    tag_430:\n        /* \"#utility.yul\":11890:11978   */\n      swap3\n      pop\n        /* \"#utility.yul\":11686:11988   */\n      pop\n        /* \"#utility.yul\":12055:12057   */\n      0x20\n        /* \"#utility.yul\":12044:12053   */\n      dup4\n        /* \"#utility.yul\":12040:12058   */\n      add\n        /* \"#utility.yul\":12027:12059   */\n      calldataload\n        /* \"#utility.yul\":12086:12104   */\n      0xffffffffffffffff\n        /* \"#utility.yul\":12078:12084   */\n      dup2\n        /* \"#utility.yul\":12075:12105   */\n      gt\n        /* \"#utility.yul\":12072:12189   */\n      iszero\n      tag_431\n      jumpi\n        /* \"#utility.yul\":12108:12187   */\n      tag_432\n      tag_224\n      jump\t// in\n    tag_432:\n        /* \"#utility.yul\":12072:12189   */\n    tag_431:\n        /* \"#utility.yul\":12213:12291   */\n      tag_433\n        /* \"#utility.yul\":12283:12290   */\n      dup6\n        /* \"#utility.yul\":12274:12280   */\n      dup3\n        /* \"#utility.yul\":12263:12272   */\n      dup7\n        /* \"#utility.yul\":12259:12281   */\n      add\n        /* \"#utility.yul\":12213:12291   */\n      tag_249\n      jump\t// in\n    tag_433:\n        /* \"#utility.yul\":12203:12291   */\n      swap2\n      pop\n        /* \"#utility.yul\":11998:12301   */\n      pop\n        /* \"#utility.yul\":11414:12308   */\n      swap3\n      pop\n      swap3\n      swap1\n      pop\n      jump\t// out\n        /* \"#utility.yul\":12314:12428   */\n    tag_258:\n        /* \"#utility.yul\":12381:12387   */\n      0x00\n        /* \"#utility.yul\":12415:12420   */\n      dup2\n        /* \"#utility.yul\":12409:12421   */\n      mload\n        /* \"#utility.yul\":12399:12421   */\n      swap1\n      pop\n        /* \"#utility.yul\":12314:12428   */\n      swap2\n      swap1\n      pop\n      jump\t// out\n        /* \"#utility.yul\":12434:12618   */\n    tag_259:\n        /* \"#utility.yul\":12533:12544   */\n      0x00\n        /* \"#utility.yul\":12567:12573   */\n      dup3\n        /* \"#utility.yul\":12562:12565   */\n      dup3\n        /* \"#utility.yul\":12555:12574   */\n      mstore\n        /* \"#utility.yul\":12607:12611   */\n      0x20\n        /* \"#utility.yul\":12602:12605   */\n      dup3\n        /* \"#utility.yul\":12598:12612   */\n      add\n        /* \"#utility.yul\":12583:12612   */\n      swap1\n      pop\n        /* \"#utility.yul\":12434:12618   */\n      swap3\n      swap2\n      pop\n      pop\n      jump\t// out\n        /* \"#utility.yul\":12624:12756   */\n    tag_260:\n        /* \"#utility.yul\":12691:12695   */\n      0x00\n        /* \"#utility.yul\":12714:12717   */\n      dup2\n        /* \"#utility.yul\":12706:12717   */\n      swap1\n      pop\n        /* \"#utility.yul\":12744:12748   */\n      0x20\n        /* \"#utility.yul\":12739:12742   */\n      dup3\n        /* \"#utility.yul\":12735:12749   */\n      add\n        /* \"#utility.yul\":12727:12749   */\n      swap1\n      pop\n        /* \"#utility.yul\":12624:12756   */\n      swap2\n      swap1\n      pop\n      jump\t// out\n        /* \"#utility.yul\":12762:12870   */\n    tag_261:\n        /* \"#utility.yul\":12839:12863   */\n      tag_438\n        /* \"#utility.yul\":12857:12862   */\n      dup2\n        /* \"#utility.yul\":12839:12863   */\n      tag_229\n      jump\t// in\n    tag_438:\n        /* \"#utility.yul\":12834:12837   */\n      dup3\n        /* \"#utility.yul\":12827:12864   */\n      mstore\n        /* \"#utility.yul\":12762:12870   */\n      pop\n      pop\n      jump\t// out\n        /* \"#utility.yul\":12876:13055   */\n    tag_262:\n        /* \"#utility.yul\":12945:12955   */\n      0x00\n        /* \"#utility.yul\":12966:13012   */\n      tag_440\n        /* \"#utility.yul\":13008:13011   */\n      dup4\n        /* \"#utility.yul\":13000:13006   */\n      dup4\n        /* \"#utility.yul\":12966:13012   */\n      tag_261\n      jump\t// in\n    tag_440:\n        /* \"#utility.yul\":13044:13048   */\n      0x20\n        /* \"#utility.yul\":13039:13042   */\n      dup4\n        /* \"#utility.yul\":13035:13049   */\n      add\n        /* \"#utility.yul\":13021:13049   */\n      swap1\n      pop\n        /* \"#utility.yul\":12876:13055   */\n      swap3\n      swap2\n      pop\n      pop\n      jump\t// out\n        /* \"#utility.yul\":13061:13174   */\n    tag_263:\n        /* \"#utility.yul\":13131:13135   */\n      0x00\n        /* \"#utility.yul\":13163:13167   */\n      0x20\n        /* \"#utility.yul\":13158:13161   */\n      dup3\n        /* \"#utility.yul\":13154:13168   */\n      add\n        /* \"#utility.yul\":13146:13168   */\n      swap1\n      pop\n        /* \"#utility.yul\":13061:13174   */\n      swap2\n      swap1\n      pop\n      jump\t// out\n        /* \"#utility.yul\":13210:13942   */\n    tag_264:\n        /* \"#utility.yul\":13329:13332   */\n      0x00\n        /* \"#utility.yul\":13358:13412   */\n      tag_443\n        /* \"#utility.yul\":13406:13411   */\n      dup3\n        /* \"#utility.yul\":13358:13412   */\n      tag_258\n      jump\t// in\n    tag_443:\n        /* \"#utility.yul\":13428:13514   */\n      tag_444\n        /* \"#utility.yul\":13507:13513   */\n      dup2\n        /* \"#utility.yul\":13502:13505   */\n      dup6\n        /* \"#utility.yul\":13428:13514   */\n      tag_259\n      jump\t// in\n    tag_444:\n        /* \"#utility.yul\":13421:13514   */\n      swap4\n      pop\n        /* \"#utility.yul\":13538:13594   */\n      tag_445\n        /* \"#utility.yul\":13588:13593   */\n      dup4\n        /* \"#utility.yul\":13538:13594   */\n      tag_260\n      jump\t// in\n    tag_445:\n        /* \"#utility.yul\":13617:13624   */\n      dup1\n        /* \"#utility.yul\":13648:13649   */\n      0x00\n        /* \"#utility.yul\":13633:13917   */\n    tag_446:\n        /* \"#utility.yul\":13658:13664   */\n      dup4\n        /* \"#utility.yul\":13655:13656   */\n      dup2\n        /* \"#utility.yul\":13652:13665   */\n      lt\n        /* \"#utility.yul\":13633:13917   */\n      iszero\n      tag_448\n      jumpi\n        /* \"#utility.yul\":13734:13740   */\n      dup2\n        /* \"#utility.yul\":13728:13741   */\n      mload\n        /* \"#utility.yul\":13761:13824   */\n      tag_449\n        /* \"#utility.yul\":13820:13823   */\n      dup9\n        /* \"#utility.yul\":13805:13818   */\n      dup3\n        /* \"#utility.yul\":13761:13824   */\n      tag_262\n      jump\t// in\n    tag_449:\n        /* \"#utility.yul\":13754:13824   */\n      swap8\n      pop\n        /* \"#utility.yul\":13847:13907   */\n      tag_450\n        /* \"#utility.yul\":13900:13906   */\n      dup4\n        /* \"#utility.yul\":13847:13907   */\n      tag_263\n      jump\t// in\n    tag_450:\n        /* \"#utility.yul\":13837:13907   */\n      swap3\n      pop\n        /* \"#utility.yul\":13693:13917   */\n      pop\n        /* \"#utility.yul\":13680:13681   */\n      0x01\n        /* \"#utility.yul\":13677:13678   */\n      dup2\n        /* \"#utility.yul\":13673:13682   */\n      add\n        /* \"#utility.yul\":13668:13682   */\n      swap1\n      pop\n        /* \"#utility.yul\":13633:13917   */\n      jump(tag_446)\n    tag_448:\n        /* \"#utility.yul\":13637:13651   */\n      pop\n        /* \"#utility.yul\":13933:13936   */\n      dup6\n        /* \"#utility.yul\":13926:13936   */\n      swap4\n      pop\n        /* \"#utility.yul\":13334:13942   */\n      pop\n      pop\n      pop\n        /* \"#utility.yul\":13210:13942   */\n      swap3\n      swap2\n      pop\n      pop\n      jump\t// out\n        /* \"#utility.yul\":13948:14321   */\n    tag_44:\n        /* \"#utility.yul\":14091:14095   */\n      0x00\n        /* \"#utility.yul\":14129:14131   */\n      0x20\n        /* \"#utility.yul\":14118:14127   */\n      dup3\n        /* \"#utility.yul\":14114:14132   */\n      add\n        /* \"#utility.yul\":14106:14132   */\n      swap1\n      pop\n        /* \"#utility.yul\":14178:14187   */\n      dup2\n        /* \"#utility.yul\":14172:14176   */\n      dup2\n        /* \"#utility.yul\":14168:14188   */\n      sub\n        /* \"#utility.yul\":14164:14165   */\n      0x00\n        /* \"#utility.yul\":14153:14162   */\n      dup4\n        /* \"#utility.yul\":14149:14166   */\n      add\n        /* \"#utility.yul\":14142:14189   */\n      mstore\n        /* \"#utility.yul\":14206:14314   */\n      tag_452\n        /* \"#utility.yul\":14309:14313   */\n      dup2\n        /* \"#utility.yul\":14300:14306   */\n      dup5\n        /* \"#utility.yul\":14206:14314   */\n      tag_264\n      jump\t// in\n    tag_452:\n        /* \"#utility.yul\":14198:14314   */\n      swap1\n      pop\n        /* \"#utility.yul\":13948:14321   */\n      swap3\n      swap2\n      pop\n      pop\n      jump\t// out\n        /* \"#utility.yul\":14327:14443   */\n    tag_265:\n        /* \"#utility.yul\":14397:14418   */\n      tag_454\n        /* \"#utility.yul\":14412:14417   */\n      dup2\n        /* \"#utility.yul\":14397:14418   */\n      tag_236\n      jump\t// in\n    tag_454:\n        /* \"#utility.yul\":14390:14395   */\n      dup2\n        /* \"#utility.yul\":14387:14419   */\n      eq\n        /* \"#utility.yul\":14377:14437   */\n      tag_455\n      jumpi\n        /* \"#utility.yul\":14433:14434   */\n      0x00\n        /* \"#utility.yul\":14430:14431   */\n      dup1\n        /* \"#utility.yul\":14423:14435   */\n      revert\n        /* \"#utility.yul\":14377:14437   */\n    tag_455:\n        /* \"#utility.yul\":14327:14443   */\n      pop\n      jump\t// out\n        /* \"#utility.yul\":14449:14582   */\n    tag_266:\n        /* \"#utility.yul\":14492:14497   */\n      0x00\n        /* \"#utility.yul\":14530:14536   */\n      dup2\n        /* \"#utility.yul\":14517:14537   */\n      calldataload\n        /* \"#utility.yul\":14508:14537   */\n      swap1\n      pop\n        /* \"#utility.yul\":14546:14576   */\n      tag_457\n        /* \"#utility.yul\":14570:14575   */\n      dup2\n        /* \"#utility.yul\":14546:14576   */\n      tag_265\n      jump\t// in\n    tag_457:\n        /* \"#utility.yul\":14449:14582   */\n      swap3\n      swap2\n      pop\n      pop\n      jump\t// out\n        /* \"#utility.yul\":14588:15056   */\n    tag_50:\n        /* \"#utility.yul\":14653:14659   */\n      0x00\n        /* \"#utility.yul\":14661:14667   */\n      dup1\n        /* \"#utility.yul\":14710:14712   */\n      0x40\n        /* \"#utility.yul\":14698:14707   */\n      dup4\n        /* \"#utility.yul\":14689:14696   */\n      dup6\n        /* \"#utility.yul\":14685:14708   */\n      sub\n        /* \"#utility.yul\":14681:14713   */\n      slt\n        /* \"#utility.yul\":14678:14797   */\n      iszero\n      tag_459\n      jumpi\n        /* \"#utility.yul\":14716:14795   */\n      tag_460\n      tag_223\n      jump\t// in\n    tag_460:\n        /* \"#utility.yul\":14678:14797   */\n    tag_459:\n        /* \"#utility.yul\":14836:14837   */\n      0x00\n        /* \"#utility.yul\":14861:14914   */\n      tag_461\n        /* \"#utility.yul\":14906:14913   */\n      dup6\n        /* \"#utility.yul\":14897:14903   */\n      dup3\n        /* \"#utility.yul\":14886:14895   */\n      dup7\n        /* \"#utility.yul\":14882:14904   */\n      add\n        /* \"#utility.yul\":14861:14914   */\n      tag_228\n      jump\t// in\n    tag_461:\n        /* \"#utility.yul\":14851:14914   */\n      swap3\n      pop\n        /* \"#utility.yul\":14807:14924   */\n      pop\n        /* \"#utility.yul\":14963:14965   */\n      0x20\n        /* \"#utility.yul\":14989:15039   */\n      tag_462\n        /* \"#utility.yul\":15031:15038   */\n      dup6\n        /* \"#utility.yul\":15022:15028   */\n      dup3\n        /* \"#utility.yul\":15011:15020   */\n      dup7\n        /* \"#utility.yul\":15007:15029   */\n      add\n        /* \"#utility.yul\":14989:15039   */\n      tag_266\n      jump\t// in\n    tag_462:\n        /* \"#utility.yul\":14979:15039   */\n      swap2\n      pop\n        /* \"#utility.yul\":14934:15049   */\n      pop\n        /* \"#utility.yul\":14588:15056   */\n      swap3\n      pop\n      swap3\n      swap1\n      pop\n      jump\t// out\n        /* \"#utility.yul\":15062:15536   */\n    tag_54:\n        /* \"#utility.yul\":15130:15136   */\n      0x00\n        /* \"#utility.yul\":15138:15144   */\n      dup1\n        /* \"#utility.yul\":15187:15189   */\n      0x40\n        /* \"#utility.yul\":15175:15184   */\n      dup4\n        /* \"#utility.yul\":15166:15173   */\n      dup6\n        /* \"#utility.yul\":15162:15185   */\n      sub\n        /* \"#utility.yul\":15158:15190   */\n      slt\n        /* \"#utility.yul\":15155:15274   */\n      iszero\n      tag_464\n      jumpi\n        /* \"#utility.yul\":15193:15272   */\n      tag_465\n      tag_223\n      jump\t// in\n    tag_465:\n        /* \"#utility.yul\":15155:15274   */\n    tag_464:\n        /* \"#utility.yul\":15313:15314   */\n      0x00\n        /* \"#utility.yul\":15338:15391   */\n      tag_466\n        /* \"#utility.yul\":15383:15390   */\n      dup6\n        /* \"#utility.yul\":15374:15380   */\n      dup3\n        /* \"#utility.yul\":15363:15372   */\n      dup7\n        /* \"#utility.yul\":15359:15381   */\n      add\n        /* \"#utility.yul\":15338:15391   */\n      tag_228\n      jump\t// in\n    tag_466:\n        /* \"#utility.yul\":15328:15391   */\n      swap3\n      pop\n        /* \"#utility.yul\":15284:15401   */\n      pop\n        /* \"#utility.yul\":15440:15442   */\n      0x20\n        /* \"#utility.yul\":15466:15519   */\n      tag_467\n        /* \"#utility.yul\":15511:15518   */\n      dup6\n        /* \"#utility.yul\":15502:15508   */\n      dup3\n        /* \"#utility.yul\":15491:15500   */\n      dup7\n        /* \"#utility.yul\":15487:15509   */\n      add\n        /* \"#utility.yul\":15466:15519   */\n      tag_228\n      jump\t// in\n    tag_467:\n        /* \"#utility.yul\":15456:15519   */\n      swap2\n      pop\n        /* \"#utility.yul\":15411:15529   */\n      pop\n        /* \"#utility.yul\":15062:15536   */\n      swap3\n      pop\n      swap3\n      swap1\n      pop\n      jump\t// out\n        /* \"#utility.yul\":15542:16631   */\n    tag_59:\n        /* \"#utility.yul\":15646:15652   */\n      0x00\n        /* \"#utility.yul\":15654:15660   */\n      dup1\n        /* \"#utility.yul\":15662:15668   */\n      0x00\n        /* \"#utility.yul\":15670:15676   */\n      dup1\n        /* \"#utility.yul\":15678:15684   */\n      0x00\n        /* \"#utility.yul\":15727:15730   */\n      0xa0\n        /* \"#utility.yul\":15715:15724   */\n      dup7\n        /* \"#utility.yul\":15706:15713   */\n      dup9\n        /* \"#utility.yul\":15702:15725   */\n      sub\n        /* \"#utility.yul\":15698:15731   */\n      slt\n        /* \"#utility.yul\":15695:15815   */\n      iszero\n      tag_469\n      jumpi\n        /* \"#utility.yul\":15734:15813   */\n      tag_470\n      tag_223\n      jump\t// in\n    tag_470:\n        /* \"#utility.yul\":15695:15815   */\n    tag_469:\n        /* \"#utility.yul\":15854:15855   */\n      0x00\n        /* \"#utility.yul\":15879:15932   */\n      tag_471\n        /* \"#utility.yul\":15924:15931   */\n      dup9\n        /* \"#utility.yul\":15915:15921   */\n      dup3\n        /* \"#utility.yul\":15904:15913   */\n      dup10\n        /* \"#utility.yul\":15900:15922   */\n      add\n        /* \"#utility.yul\":15879:15932   */\n      tag_228\n      jump\t// in\n    tag_471:\n        /* \"#utility.yul\":15869:15932   */\n      swap6\n      pop\n        /* \"#utility.yul\":15825:15942   */\n      pop\n        /* \"#utility.yul\":15981:15983   */\n      0x20\n        /* \"#utility.yul\":16007:16060   */\n      tag_472\n        /* \"#utility.yul\":16052:16059   */\n      dup9\n        /* \"#utility.yul\":16043:16049   */\n      dup3\n        /* \"#utility.yul\":16032:16041   */\n      dup10\n        /* \"#utility.yul\":16028:16050   */\n      add\n        /* \"#utility.yul\":16007:16060   */\n      tag_228\n      jump\t// in\n    tag_472:\n        /* \"#utility.yul\":15997:16060   */\n      swap5\n      pop\n        /* \"#utility.yul\":15952:16070   */\n      pop\n        /* \"#utility.yul\":16109:16111   */\n      0x40\n        /* \"#utility.yul\":16135:16188   */\n      tag_473\n        /* \"#utility.yul\":16180:16187   */\n      dup9\n        /* \"#utility.yul\":16171:16177   */\n      dup3\n        /* \"#utility.yul\":16160:16169   */\n      dup10\n        /* \"#utility.yul\":16156:16178   */\n      add\n        /* \"#utility.yul\":16135:16188   */\n      tag_231\n      jump\t// in\n    tag_473:\n        /* \"#utility.yul\":16125:16188   */\n      swap4\n      pop\n        /* \"#utility.yul\":16080:16198   */\n      pop\n        /* \"#utility.yul\":16237:16239   */\n      0x60\n        /* \"#utility.yul\":16263:16316   */\n      tag_474\n        /* \"#utility.yul\":16308:16315   */\n      dup9\n        /* \"#utility.yul\":16299:16305   */\n      dup3\n        /* \"#utility.yul\":16288:16297   */\n      dup10\n        /* \"#utility.yul\":16284:16306   */\n      add\n        /* \"#utility.yul\":16263:16316   */\n      tag_231\n      jump\t// in\n    tag_474:\n        /* \"#utility.yul\":16253:16316   */\n      swap3\n      pop\n        /* \"#utility.yul\":16208:16326   */\n      pop\n        /* \"#utility.yul\":16393:16396   */\n      0x80\n        /* \"#utility.yul\":16382:16391   */\n      dup7\n        /* \"#utility.yul\":16378:16397   */\n      add\n        /* \"#utility.yul\":16365:16398   */\n      calldataload\n        /* \"#utility.yul\":16425:16443   */\n      0xffffffffffffffff\n        /* \"#utility.yul\":16417:16423   */\n      dup2\n        /* \"#utility.yul\":16414:16444   */\n      gt\n        /* \"#utility.yul\":16411:16528   */\n      iszero\n      tag_475\n      jumpi\n        /* \"#utility.yul\":16447:16526   */\n      tag_476\n      tag_224\n      jump\t// in\n    tag_476:\n        /* \"#utility.yul\":16411:16528   */\n    tag_475:\n        /* \"#utility.yul\":16552:16614   */\n      tag_477\n        /* \"#utility.yul\":16606:16613   */\n      dup9\n        /* \"#utility.yul\":16597:16603   */\n      dup3\n        /* \"#utility.yul\":16586:16595   */\n      dup10\n        /* \"#utility.yul\":16582:16604   */\n      add\n        /* \"#utility.yul\":16552:16614   */\n      tag_254\n      jump\t// in\n    tag_477:\n        /* \"#utility.yul\":16542:16614   */\n      swap2\n      pop\n        /* \"#utility.yul\":16336:16624   */\n      pop\n        /* \"#utility.yul\":15542:16631   */\n      swap3\n      swap6\n      pop\n      swap3\n      swap6\n      swap1\n      swap4\n      pop\n      jump\t// out\n        /* \"#utility.yul\":16637:16866   */\n    tag_267:\n        /* \"#utility.yul\":16777:16811   */\n      0x455243313135353a2061646472657373207a65726f206973206e6f7420612076\n        /* \"#utility.yul\":16773:16774   */\n      0x00\n        /* \"#utility.yul\":16765:16771   */\n      dup3\n        /* \"#utility.yul\":16761:16775   */\n      add\n        /* \"#utility.yul\":16754:16812   */\n      mstore\n        /* \"#utility.yul\":16846:16858   */\n      0x616c6964206f776e657200000000000000000000000000000000000000000000\n        /* \"#utility.yul\":16841:16843   */\n      0x20\n        /* \"#utility.yul\":16833:16839   */\n      dup3\n        /* \"#utility.yul\":16829:16844   */\n      add\n        /* \"#utility.yul\":16822:16859   */\n      mstore\n        /* \"#utility.yul\":16637:16866   */\n      pop\n      jump\t// out\n        /* \"#utility.yul\":16872:17238   */\n    tag_268:\n        /* \"#utility.yul\":17014:17017   */\n      0x00\n        /* \"#utility.yul\":17035:17102   */\n      tag_480\n        /* \"#utility.yul\":17099:17101   */\n      0x2a\n        /* \"#utility.yul\":17094:17097   */\n      dup4\n        /* \"#utility.yul\":17035:17102   */\n      tag_239\n      jump\t// in\n    tag_480:\n        /* \"#utility.yul\":17028:17102   */\n      swap2\n      pop\n        /* \"#utility.yul\":17111:17204   */\n      tag_481\n        /* \"#utility.yul\":17200:17203   */\n      dup3\n        /* \"#utility.yul\":17111:17204   */\n      tag_267\n      jump\t// in\n    tag_481:\n        /* \"#utility.yul\":17229:17231   */\n      0x40\n        /* \"#utility.yul\":17224:17227   */\n      dup3\n        /* \"#utility.yul\":17220:17232   */\n      add\n        /* \"#utility.yul\":17213:17232   */\n      swap1\n      pop\n        /* \"#utility.yul\":16872:17238   */\n      swap2\n      swap1\n      pop\n      jump\t// out\n        /* \"#utility.yul\":17244:17663   */\n    tag_64:\n        /* \"#utility.yul\":17410:17414   */\n      0x00\n        /* \"#utility.yul\":17448:17450   */\n      0x20\n        /* \"#utility.yul\":17437:17446   */\n      dup3\n        /* \"#utility.yul\":17433:17451   */\n      add\n        /* \"#utility.yul\":17425:17451   */\n      swap1\n      pop\n        /* \"#utility.yul\":17497:17506   */\n      dup2\n        /* \"#utility.yul\":17491:17495   */\n      dup2\n        /* \"#utility.yul\":17487:17507   */\n      sub\n        /* \"#utility.yul\":17483:17484   */\n      0x00\n        /* \"#utility.yul\":17472:17481   */\n      dup4\n        /* \"#utility.yul\":17468:17485   */\n      add\n        /* \"#utility.yul\":17461:17508   */\n      mstore\n        /* \"#utility.yul\":17525:17656   */\n      tag_483\n        /* \"#utility.yul\":17651:17655   */\n      dup2\n        /* \"#utility.yul\":17525:17656   */\n      tag_268\n      jump\t// in\n    tag_483:\n        /* \"#utility.yul\":17517:17656   */\n      swap1\n      pop\n        /* \"#utility.yul\":17244:17663   */\n      swap2\n      swap1\n      pop\n      jump\t// out\n        /* \"#utility.yul\":17669:17849   */\n    tag_269:\n        /* \"#utility.yul\":17717:17794   */\n      0x4e487b7100000000000000000000000000000000000000000000000000000000\n        /* \"#utility.yul\":17714:17715   */\n      0x00\n        /* \"#utility.yul\":17707:17795   */\n      mstore\n        /* \"#utility.yul\":17814:17818   */\n      0x22\n        /* \"#utility.yul\":17811:17812   */\n      0x04\n        /* \"#utility.yul\":17804:17819   */\n      mstore\n        /* \"#utility.yul\":17838:17842   */\n      0x24\n        /* \"#utility.yul\":17835:17836   */\n      0x00\n        /* \"#utility.yul\":17828:17843   */\n      revert\n        /* \"#utility.yul\":17855:18175   */\n    tag_69:\n        /* \"#utility.yul\":17899:17905   */\n      0x00\n        /* \"#utility.yul\":17936:17937   */\n      0x02\n        /* \"#utility.yul\":17930:17934   */\n      dup3\n        /* \"#utility.yul\":17926:17938   */\n      div\n        /* \"#utility.yul\":17916:17938   */\n      swap1\n      pop\n        /* \"#utility.yul\":17983:17984   */\n      0x01\n        /* \"#utility.yul\":17977:17981   */\n      dup3\n        /* \"#utility.yul\":17973:17985   */\n      and\n        /* \"#utility.yul\":18004:18022   */\n      dup1\n        /* \"#utility.yul\":17994:18075   */\n      tag_486\n      jumpi\n        /* \"#utility.yul\":18060:18064   */\n      0x7f\n        /* \"#utility.yul\":18052:18058   */\n      dup3\n        /* \"#utility.yul\":18048:18065   */\n      and\n        /* \"#utility.yul\":18038:18065   */\n      swap2\n      pop\n        /* \"#utility.yul\":17994:18075   */\n    tag_486:\n        /* \"#utility.yul\":18122:18124   */\n      0x20\n        /* \"#utility.yul\":18114:18120   */\n      dup3\n        /* \"#utility.yul\":18111:18125   */\n      lt\n        /* \"#utility.yul\":18091:18109   */\n      dup2\n        /* \"#utility.yul\":18088:18126   */\n      sub\n        /* \"#utility.yul\":18085:18169   */\n      tag_487\n      jumpi\n        /* \"#utility.yul\":18141:18159   */\n      tag_488\n      tag_269\n      jump\t// in\n    tag_488:\n        /* \"#utility.yul\":18085:18169   */\n    tag_487:\n        /* \"#utility.yul\":17906:18175   */\n      pop\n        /* \"#utility.yul\":17855:18175   */\n      swap2\n      swap1\n      pop\n      jump\t// out\n        /* \"#utility.yul\":18181:18329   */\n    tag_270:\n        /* \"#utility.yul\":18283:18294   */\n      0x00\n        /* \"#utility.yul\":18320:18323   */\n      dup2\n        /* \"#utility.yul\":18305:18323   */\n      swap1\n      pop\n        /* \"#utility.yul\":18181:18329   */\n      swap3\n      swap2\n      pop\n      pop\n      jump\t// out\n        /* \"#utility.yul\":18335:18725   */\n    tag_271:\n        /* \"#utility.yul\":18441:18444   */\n      0x00\n        /* \"#utility.yul\":18469:18508   */\n      tag_491\n        /* \"#utility.yul\":18502:18507   */\n      dup3\n        /* \"#utility.yul\":18469:18508   */\n      tag_238\n      jump\t// in\n    tag_491:\n        /* \"#utility.yul\":18524:18613   */\n      tag_492\n        /* \"#utility.yul\":18606:18612   */\n      dup2\n        /* \"#utility.yul\":18601:18604   */\n      dup6\n        /* \"#utility.yul\":18524:18613   */\n      tag_270\n      jump\t// in\n    tag_492:\n        /* \"#utility.yul\":18517:18613   */\n      swap4\n      pop\n        /* \"#utility.yul\":18622:18687   */\n      tag_493\n        /* \"#utility.yul\":18680:18686   */\n      dup2\n        /* \"#utility.yul\":18675:18678   */\n      dup6\n        /* \"#utility.yul\":18668:18672   */\n      0x20\n        /* \"#utility.yul\":18661:18666   */\n      dup7\n        /* \"#utility.yul\":18657:18673   */\n      add\n        /* \"#utility.yul\":18622:18687   */\n      tag_240\n      jump\t// in\n    tag_493:\n        /* \"#utility.yul\":18712:18718   */\n      dup1\n        /* \"#utility.yul\":18707:18710   */\n      dup5\n        /* \"#utility.yul\":18703:18719   */\n      add\n        /* \"#utility.yul\":18696:18719   */\n      swap2\n      pop\n        /* \"#utility.yul\":18445:18725   */\n      pop\n        /* \"#utility.yul\":18335:18725   */\n      swap3\n      swap2\n      pop\n      pop\n      jump\t// out\n        /* \"#utility.yul\":18731:19166   */\n    tag_82:\n        /* \"#utility.yul\":18911:18914   */\n      0x00\n        /* \"#utility.yul\":18933:19028   */\n      tag_495\n        /* \"#utility.yul\":19024:19027   */\n      dup3\n        /* \"#utility.yul\":19015:19021   */\n      dup6\n        /* \"#utility.yul\":18933:19028   */\n      tag_271\n      jump\t// in\n    tag_495:\n        /* \"#utility.yul\":18926:19028   */\n      swap2\n      pop\n        /* \"#utility.yul\":19045:19140   */\n      tag_496\n        /* \"#utility.yul\":19136:19139   */\n      dup3\n        /* \"#utility.yul\":19127:19133   */\n      dup5\n        /* \"#utility.yul\":19045:19140   */\n      tag_271\n      jump\t// in\n    tag_496:\n        /* \"#utility.yul\":19038:19140   */\n      swap2\n      pop\n        /* \"#utility.yul\":19157:19160   */\n      dup2\n        /* \"#utility.yul\":19150:19160   */\n      swap1\n      pop\n        /* \"#utility.yul\":18731:19166   */\n      swap4\n      swap3\n      pop\n      pop\n      pop\n      jump\t// out\n        /* \"#utility.yul\":19172:19406   */\n    tag_272:\n        /* \"#utility.yul\":19312:19346   */\n      0x455243313135353a2063616c6c6572206973206e6f7420746f6b656e206f776e\n        /* \"#utility.yul\":19308:19309   */\n      0x00\n        /* \"#utility.yul\":19300:19306   */\n      dup3\n        /* \"#utility.yul\":19296:19310   */\n      add\n        /* \"#utility.yul\":19289:19347   */\n      mstore\n        /* \"#utility.yul\":19381:19398   */\n      0x6572206e6f7220617070726f7665640000000000000000000000000000000000\n        /* \"#utility.yul\":19376:19378   */\n      0x20\n        /* \"#utility.yul\":19368:19374   */\n      dup3\n        /* \"#utility.yul\":19364:19379   */\n      add\n        /* \"#utility.yul\":19357:19399   */\n      mstore\n        /* \"#utility.yul\":19172:19406   */\n      pop\n      jump\t// out\n        /* \"#utility.yul\":19412:19778   */\n    tag_273:\n        /* \"#utility.yul\":19554:19557   */\n      0x00\n        /* \"#utility.yul\":19575:19642   */\n      tag_499\n        /* \"#utility.yul\":19639:19641   */\n      0x2f\n        /* \"#utility.yul\":19634:19637   */\n      dup4\n        /* \"#utility.yul\":19575:19642   */\n      tag_239\n      jump\t// in\n    tag_499:\n        /* \"#utility.yul\":19568:19642   */\n      swap2\n      pop\n        /* \"#utility.yul\":19651:19744   */\n      tag_500\n        /* \"#utility.yul\":19740:19743   */\n      dup3\n        /* \"#utility.yul\":19651:19744   */\n      tag_272\n      jump\t// in\n    tag_500:\n        /* \"#utility.yul\":19769:19771   */\n      0x40\n        /* \"#utility.yul\":19764:19767   */\n      dup3\n        /* \"#utility.yul\":19760:19772   */\n      add\n        /* \"#utility.yul\":19753:19772   */\n      swap1\n      pop\n        /* \"#utility.yul\":19412:19778   */\n      swap2\n      swap1\n      pop\n      jump\t// out\n        /* \"#utility.yul\":19784:20203   */\n    tag_88:\n        /* \"#utility.yul\":19950:19954   */\n      0x00\n        /* \"#utility.yul\":19988:19990   */\n      0x20\n        /* \"#utility.yul\":19977:19986   */\n      dup3\n        /* \"#utility.yul\":19973:19991   */\n      add\n        /* \"#utility.yul\":19965:19991   */\n      swap1\n      pop\n        /* \"#utility.yul\":20037:20046   */\n      dup2\n        /* \"#utility.yul\":20031:20035   */\n      dup2\n        /* \"#utility.yul\":20027:20047   */\n      sub\n        /* \"#utility.yul\":20023:20024   */\n      0x00\n        /* \"#utility.yul\":20012:20021   */\n      dup4\n        /* \"#utility.yul\":20008:20025   */\n      add\n        /* \"#utility.yul\":20001:20048   */\n      mstore\n        /* \"#utility.yul\":20065:20196   */\n      tag_502\n        /* \"#utility.yul\":20191:20195   */\n      dup2\n        /* \"#utility.yul\":20065:20196   */\n      tag_273\n      jump\t// in\n    tag_502:\n        /* \"#utility.yul\":20057:20196   */\n      swap1\n      pop\n        /* \"#utility.yul\":19784:20203   */\n      swap2\n      swap1\n      pop\n      jump\t// out\n        /* \"#utility.yul\":20209:20436   */\n    tag_274:\n        /* \"#utility.yul\":20349:20383   */\n      0x455243313135353a2069647320616e6420616d6f756e7473206c656e67746820\n        /* \"#utility.yul\":20345:20346   */\n      0x00\n        /* \"#utility.yul\":20337:20343   */\n      dup3\n        /* \"#utility.yul\":20333:20347   */\n      add\n        /* \"#utility.yul\":20326:20384   */\n      mstore\n        /* \"#utility.yul\":20418:20428   */\n      0x6d69736d61746368000000000000000000000000000000000000000000000000\n        /* \"#utility.yul\":20413:20415   */\n      0x20\n        /* \"#utility.yul\":20405:20411   */\n      dup3\n        /* \"#utility.yul\":20401:20416   */\n      add\n        /* \"#utility.yul\":20394:20429   */\n      mstore\n        /* \"#utility.yul\":20209:20436   */\n      pop\n      jump\t// out\n        /* \"#utility.yul\":20442:20808   */\n    tag_275:\n        /* \"#utility.yul\":20584:20587   */\n      0x00\n        /* \"#utility.yul\":20605:20672   */\n      tag_505\n        /* \"#utility.yul\":20669:20671   */\n      0x28\n        /* \"#utility.yul\":20664:20667   */\n      dup4\n        /* \"#utility.yul\":20605:20672   */\n      tag_239\n      jump\t// in\n    tag_505:\n        /* \"#utility.yul\":20598:20672   */\n      swap2\n      pop\n        /* \"#utility.yul\":20681:20774   */\n      tag_506\n        /* \"#utility.yul\":20770:20773   */\n      dup3\n        /* \"#utility.yul\":20681:20774   */\n      tag_274\n      jump\t// in\n    tag_506:\n        /* \"#utility.yul\":20799:20801   */\n      0x40\n        /* \"#utility.yul\":20794:20797   */\n      dup3\n        /* \"#utility.yul\":20790:20802   */\n      add\n        /* \"#utility.yul\":20783:20802   */\n      swap1\n      pop\n        /* \"#utility.yul\":20442:20808   */\n      swap2\n      swap1\n      pop\n      jump\t// out\n        /* \"#utility.yul\":20814:21233   */\n    tag_91:\n        /* \"#utility.yul\":20980:20984   */\n      0x00\n        /* \"#utility.yul\":21018:21020   */\n      0x20\n        /* \"#utility.yul\":21007:21016   */\n      dup3\n        /* \"#utility.yul\":21003:21021   */\n      add\n        /* \"#utility.yul\":20995:21021   */\n      swap1\n      pop\n        /* \"#utility.yul\":21067:21076   */\n      dup2\n        /* \"#utility.yul\":21061:21065   */\n      dup2\n        /* \"#utility.yul\":21057:21077   */\n      sub\n        /* \"#utility.yul\":21053:21054   */\n      0x00\n        /* \"#utility.yul\":21042:21051   */\n      dup4\n        /* \"#utility.yul\":21038:21055   */\n      add\n        /* \"#utility.yul\":21031:21078   */\n      mstore\n        /* \"#utility.yul\":21095:21226   */\n      tag_508\n        /* \"#utility.yul\":21221:21225   */\n      dup2\n        /* \"#utility.yul\":21095:21226   */\n      tag_275\n      jump\t// in\n    tag_508:\n        /* \"#utility.yul\":21087:21226   */\n      swap1\n      pop\n        /* \"#utility.yul\":20814:21233   */\n      swap2\n      swap1\n      pop\n      jump\t// out\n        /* \"#utility.yul\":21239:21463   */\n    tag_276:\n        /* \"#utility.yul\":21379:21413   */\n      0x455243313135353a207472616e7366657220746f20746865207a65726f206164\n        /* \"#utility.yul\":21375:21376   */\n      0x00\n        /* \"#utility.yul\":21367:21373   */\n      dup3\n        /* \"#utility.yul\":21363:21377   */\n      add\n        /* \"#utility.yul\":21356:21414   */\n      mstore\n        /* \"#utility.yul\":21448:21455   */\n      0x6472657373000000000000000000000000000000000000000000000000000000\n        /* \"#utility.yul\":21443:21445   */\n      0x20\n        /* \"#utility.yul\":21435:21441   */\n      dup3\n        /* \"#utility.yul\":21431:21446   */\n      add\n        /* \"#utility.yul\":21424:21456   */\n      mstore\n        /* \"#utility.yul\":21239:21463   */\n      pop\n      jump\t// out\n        /* \"#utility.yul\":21469:21835   */\n    tag_277:\n        /* \"#utility.yul\":21611:21614   */\n      0x00\n        /* \"#utility.yul\":21632:21699   */\n      tag_511\n        /* \"#utility.yul\":21696:21698   */\n      0x25\n        /* \"#utility.yul\":21691:21694   */\n      dup4\n        /* \"#utility.yul\":21632:21699   */\n      tag_239\n      jump\t// in\n    tag_511:\n        /* \"#utility.yul\":21625:21699   */\n      swap2\n      pop\n        /* \"#utility.yul\":21708:21801   */\n      tag_512\n        /* \"#utility.yul\":21797:21800   */\n      dup3\n        /* \"#utility.yul\":21708:21801   */\n      tag_276\n      jump\t// in\n    tag_512:\n        /* \"#utility.yul\":21826:21828   */\n      0x40\n        /* \"#utility.yul\":21821:21824   */\n      dup3\n        /* \"#utility.yul\":21817:21829   */\n      add\n        /* \"#utility.yul\":21810:21829   */\n      swap1\n      pop\n        /* \"#utility.yul\":21469:21835   */\n      swap2\n      swap1\n      pop\n      jump\t// out\n        /* \"#utility.yul\":21841:22260   */\n    tag_94:\n        /* \"#utility.yul\":22007:22011   */\n      0x00\n        /* \"#utility.yul\":22045:22047   */\n      0x20\n        /* \"#utility.yul\":22034:22043   */\n      dup3\n        /* \"#utility.yul\":22030:22048   */\n      add\n        /* \"#utility.yul\":22022:22048   */\n      swap1\n      pop\n        /* \"#utility.yul\":22094:22103   */\n      dup2\n        /* \"#utility.yul\":22088:22092   */\n      dup2\n        /* \"#utility.yul\":22084:22104   */\n      sub\n        /* \"#utility.yul\":22080:22081   */\n      0x00\n        /* \"#utility.yul\":22069:22078   */\n      dup4\n        /* \"#utility.yul\":22065:22082   */\n      add\n        /* \"#utility.yul\":22058:22105   */\n      mstore\n        /* \"#utility.yul\":22122:22253   */\n      tag_514\n        /* \"#utility.yul\":22248:22252   */\n      dup2\n        /* \"#utility.yul\":22122:22253   */\n      tag_277\n      jump\t// in\n    tag_514:\n        /* \"#utility.yul\":22114:22253   */\n      swap1\n      pop\n        /* \"#utility.yul\":21841:22260   */\n      swap2\n      swap1\n      pop\n      jump\t// out\n        /* \"#utility.yul\":22266:22446   */\n    tag_100:\n        /* \"#utility.yul\":22314:22391   */\n      0x4e487b7100000000000000000000000000000000000000000000000000000000\n        /* \"#utility.yul\":22311:22312   */\n      0x00\n        /* \"#utility.yul\":22304:22392   */\n      mstore\n        /* \"#utility.yul\":22411:22415   */\n      0x32\n        /* \"#utility.yul\":22408:22409   */\n      0x04\n        /* \"#utility.yul\":22401:22416   */\n      mstore\n        /* \"#utility.yul\":22435:22439   */\n      0x24\n        /* \"#utility.yul\":22432:22433   */\n      0x00\n        /* \"#utility.yul\":22425:22440   */\n      revert\n        /* \"#utility.yul\":22452:22681   */\n    tag_278:\n        /* \"#utility.yul\":22592:22626   */\n      0x455243313135353a20696e73756666696369656e742062616c616e636520666f\n        /* \"#utility.yul\":22588:22589   */\n      0x00\n        /* \"#utility.yul\":22580:22586   */\n      dup3\n        /* \"#utility.yul\":22576:22590   */\n      add\n        /* \"#utility.yul\":22569:22627   */\n      mstore\n        /* \"#utility.yul\":22661:22673   */\n      0x72207472616e7366657200000000000000000000000000000000000000000000\n        /* \"#utility.yul\":22656:22658   */\n      0x20\n        /* \"#utility.yul\":22648:22654   */\n      dup3\n        /* \"#utility.yul\":22644:22659   */\n      add\n        /* \"#utility.yul\":22637:22674   */\n      mstore\n        /* \"#utility.yul\":22452:22681   */\n      pop\n      jump\t// out\n        /* \"#utility.yul\":22687:23053   */\n    tag_279:\n        /* \"#utility.yul\":22829:22832   */\n      0x00\n        /* \"#utility.yul\":22850:22917   */\n      tag_518\n        /* \"#utility.yul\":22914:22916   */\n      0x2a\n        /* \"#utility.yul\":22909:22912   */\n      dup4\n        /* \"#utility.yul\":22850:22917   */\n      tag_239\n      jump\t// in\n    tag_518:\n        /* \"#utility.yul\":22843:22917   */\n      swap2\n      pop\n        /* \"#utility.yul\":22926:23019   */\n      tag_519\n        /* \"#utility.yul\":23015:23018   */\n      dup3\n        /* \"#utility.yul\":22926:23019   */\n      tag_278\n      jump\t// in\n    tag_519:\n        /* \"#utility.yul\":23044:23046   */\n      0x40\n        /* \"#utility.yul\":23039:23042   */\n      dup3\n        /* \"#utility.yul\":23035:23047   */\n      add\n        /* \"#utility.yul\":23028:23047   */\n      swap1\n      pop\n        /* \"#utility.yul\":22687:23053   */\n      swap2\n      swap1\n      pop\n      jump\t// out\n        /* \"#utility.yul\":23059:23478   */\n    tag_105:\n        /* \"#utility.yul\":23225:23229   */\n      0x00\n        /* \"#utility.yul\":23263:23265   */\n      0x20\n        /* \"#utility.yul\":23252:23261   */\n      dup3\n        /* \"#utility.yul\":23248:23266   */\n      add\n        /* \"#utility.yul\":23240:23266   */\n      swap1\n      pop\n        /* \"#utility.yul\":23312:23321   */\n      dup2\n        /* \"#utility.yul\":23306:23310   */\n      dup2\n        /* \"#utility.yul\":23302:23322   */\n      sub\n        /* \"#utility.yul\":23298:23299   */\n      0x00\n        /* \"#utility.yul\":23287:23296   */\n      dup4\n        /* \"#utility.yul\":23283:23300   */\n      add\n        /* \"#utility.yul\":23276:23323   */\n      mstore\n        /* \"#utility.yul\":23340:23471   */\n      tag_521\n        /* \"#utility.yul\":23466:23470   */\n      dup2\n        /* \"#utility.yul\":23340:23471   */\n      tag_279\n      jump\t// in\n    tag_521:\n        /* \"#utility.yul\":23332:23471   */\n      swap1\n      pop\n        /* \"#utility.yul\":23059:23478   */\n      swap2\n      swap1\n      pop\n      jump\t// out\n        /* \"#utility.yul\":23484:23664   */\n    tag_280:\n        /* \"#utility.yul\":23532:23609   */\n      0x4e487b7100000000000000000000000000000000000000000000000000000000\n        /* \"#utility.yul\":23529:23530   */\n      0x00\n        /* \"#utility.yul\":23522:23610   */\n      mstore\n        /* \"#utility.yul\":23629:23633   */\n      0x11\n        /* \"#utility.yul\":23626:23627   */\n      0x04\n        /* \"#utility.yul\":23619:23634   */\n      mstore\n        /* \"#utility.yul\":23653:23657   */\n      0x24\n        /* \"#utility.yul\":23650:23651   */\n      0x00\n        /* \"#utility.yul\":23643:23658   */\n      revert\n        /* \"#utility.yul\":23670:23861   */\n    tag_107:\n        /* \"#utility.yul\":23710:23713   */\n      0x00\n        /* \"#utility.yul\":23729:23749   */\n      tag_524\n        /* \"#utility.yul\":23747:23748   */\n      dup3\n        /* \"#utility.yul\":23729:23749   */\n      tag_229\n      jump\t// in\n    tag_524:\n        /* \"#utility.yul\":23724:23749   */\n      swap2\n      pop\n        /* \"#utility.yul\":23763:23783   */\n      tag_525\n        /* \"#utility.yul\":23781:23782   */\n      dup4\n        /* \"#utility.yul\":23763:23783   */\n      tag_229\n      jump\t// in\n    tag_525:\n        /* \"#utility.yul\":23758:23783   */\n      swap3\n      pop\n        /* \"#utility.yul\":23806:23807   */\n      dup3\n        /* \"#utility.yul\":23803:23804   */\n      dup3\n        /* \"#utility.yul\":23799:23808   */\n      add\n        /* \"#utility.yul\":23792:23808   */\n      swap1\n      pop\n        /* \"#utility.yul\":23827:23830   */\n      dup1\n        /* \"#utility.yul\":23824:23825   */\n      dup3\n        /* \"#utility.yul\":23821:23831   */\n      gt\n        /* \"#utility.yul\":23818:23854   */\n      iszero\n      tag_526\n      jumpi\n        /* \"#utility.yul\":23834:23852   */\n      tag_527\n      tag_280\n      jump\t// in\n    tag_527:\n        /* \"#utility.yul\":23818:23854   */\n    tag_526:\n        /* \"#utility.yul\":23670:23861   */\n      swap3\n      swap2\n      pop\n      pop\n      jump\t// out\n        /* \"#utility.yul\":23867:24501   */\n    tag_109:\n        /* \"#utility.yul\":24088:24092   */\n      0x00\n        /* \"#utility.yul\":24126:24128   */\n      0x40\n        /* \"#utility.yul\":24115:24124   */\n      dup3\n        /* \"#utility.yul\":24111:24129   */\n      add\n        /* \"#utility.yul\":24103:24129   */\n      swap1\n      pop\n        /* \"#utility.yul\":24175:24184   */\n      dup2\n        /* \"#utility.yul\":24169:24173   */\n      dup2\n        /* \"#utility.yul\":24165:24185   */\n      sub\n        /* \"#utility.yul\":24161:24162   */\n      0x00\n        /* \"#utility.yul\":24150:24159   */\n      dup4\n        /* \"#utility.yul\":24146:24163   */\n      add\n        /* \"#utility.yul\":24139:24186   */\n      mstore\n        /* \"#utility.yul\":24203:24311   */\n      tag_529\n        /* \"#utility.yul\":24306:24310   */\n      dup2\n        /* \"#utility.yul\":24297:24303   */\n      dup6\n        /* \"#utility.yul\":24203:24311   */\n      tag_264\n      jump\t// in\n    tag_529:\n        /* \"#utility.yul\":24195:24311   */\n      swap1\n      pop\n        /* \"#utility.yul\":24358:24367   */\n      dup2\n        /* \"#utility.yul\":24352:24356   */\n      dup2\n        /* \"#utility.yul\":24348:24368   */\n      sub\n        /* \"#utility.yul\":24343:24345   */\n      0x20\n        /* \"#utility.yul\":24332:24341   */\n      dup4\n        /* \"#utility.yul\":24328:24346   */\n      add\n        /* \"#utility.yul\":24321:24369   */\n      mstore\n        /* \"#utility.yul\":24386:24494   */\n      tag_530\n        /* \"#utility.yul\":24489:24493   */\n      dup2\n        /* \"#utility.yul\":24480:24486   */\n      dup5\n        /* \"#utility.yul\":24386:24494   */\n      tag_264\n      jump\t// in\n    tag_530:\n        /* \"#utility.yul\":24378:24494   */\n      swap1\n      pop\n        /* \"#utility.yul\":23867:24501   */\n      swap4\n      swap3\n      pop\n      pop\n      pop\n      jump\t// out\n        /* \"#utility.yul\":24507:24735   */\n    tag_281:\n        /* \"#utility.yul\":24647:24681   */\n      0x455243313135353a206163636f756e747320616e6420696473206c656e677468\n        /* \"#utility.yul\":24643:24644   */\n      0x00\n        /* \"#utility.yul\":24635:24641   */\n      dup3\n        /* \"#utility.yul\":24631:24645   */\n      add\n        /* \"#utility.yul\":24624:24682   */\n      mstore\n        /* \"#utility.yul\":24716:24727   */\n      0x206d69736d617463680000000000000000000000000000000000000000000000\n        /* \"#utility.yul\":24711:24713   */\n      0x20\n        /* \"#utility.yul\":24703:24709   */\n      dup3\n        /* \"#utility.yul\":24699:24714   */\n      add\n        /* \"#utility.yul\":24692:24728   */\n      mstore\n        /* \"#utility.yul\":24507:24735   */\n      pop\n      jump\t// out\n        /* \"#utility.yul\":24741:25107   */\n    tag_282:\n        /* \"#utility.yul\":24883:24886   */\n      0x00\n        /* \"#utility.yul\":24904:24971   */\n      tag_533\n        /* \"#utility.yul\":24968:24970   */\n      0x29\n        /* \"#utility.yul\":24963:24966   */\n      dup4\n        /* \"#utility.yul\":24904:24971   */\n      tag_239\n      jump\t// in\n    tag_533:\n        /* \"#utility.yul\":24897:24971   */\n      swap2\n      pop\n        /* \"#utility.yul\":24980:25073   */\n      tag_534\n        /* \"#utility.yul\":25069:25072   */\n      dup3\n        /* \"#utility.yul\":24980:25073   */\n      tag_281\n      jump\t// in\n    tag_534:\n        /* \"#utility.yul\":25098:25100   */\n      0x40\n        /* \"#utility.yul\":25093:25096   */\n      dup3\n        /* \"#utility.yul\":25089:25101   */\n      add\n        /* \"#utility.yul\":25082:25101   */\n      swap1\n      pop\n        /* \"#utility.yul\":24741:25107   */\n      swap2\n      swap1\n      pop\n      jump\t// out\n        /* \"#utility.yul\":25113:25532   */\n    tag_115:\n        /* \"#utility.yul\":25279:25283   */\n      0x00\n        /* \"#utility.yul\":25317:25319   */\n      0x20\n        /* \"#utility.yul\":25306:25315   */\n      dup3\n        /* \"#utility.yul\":25302:25320   */\n      add\n        /* \"#utility.yul\":25294:25320   */\n      swap1\n      pop\n        /* \"#utility.yul\":25366:25375   */\n      dup2\n        /* \"#utility.yul\":25360:25364   */\n      dup2\n        /* \"#utility.yul\":25356:25376   */\n      sub\n        /* \"#utility.yul\":25352:25353   */\n      0x00\n        /* \"#utility.yul\":25341:25350   */\n      dup4\n        /* \"#utility.yul\":25337:25354   */\n      add\n        /* \"#utility.yul\":25330:25377   */\n      mstore\n        /* \"#utility.yul\":25394:25525   */\n      tag_536\n        /* \"#utility.yul\":25520:25524   */\n      dup2\n        /* \"#utility.yul\":25394:25525   */\n      tag_282\n      jump\t// in\n    tag_536:\n        /* \"#utility.yul\":25386:25525   */\n      swap1\n      pop\n        /* \"#utility.yul\":25113:25532   */\n      swap2\n      swap1\n      pop\n      jump\t// out\n        /* \"#utility.yul\":25538:25766   */\n    tag_283:\n        /* \"#utility.yul\":25678:25712   */\n      0x455243313135353a2073657474696e6720617070726f76616c20737461747573\n        /* \"#utility.yul\":25674:25675   */\n      0x00\n        /* \"#utility.yul\":25666:25672   */\n      dup3\n        /* \"#utility.yul\":25662:25676   */\n      add\n        /* \"#utility.yul\":25655:25713   */\n      mstore\n        /* \"#utility.yul\":25747:25758   */\n      0x20666f722073656c660000000000000000000000000000000000000000000000\n        /* \"#utility.yul\":25742:25744   */\n      0x20\n        /* \"#utility.yul\":25734:25740   */\n      dup3\n        /* \"#utility.yul\":25730:25745   */\n      add\n        /* \"#utility.yul\":25723:25759   */\n      mstore\n        /* \"#utility.yul\":25538:25766   */\n      pop\n      jump\t// out\n        /* \"#utility.yul\":25772:26138   */\n    tag_284:\n        /* \"#utility.yul\":25914:25917   */\n      0x00\n        /* \"#utility.yul\":25935:26002   */\n      tag_539\n        /* \"#utility.yul\":25999:26001   */\n      0x29\n        /* \"#utility.yul\":25994:25997   */\n      dup4\n        /* \"#utility.yul\":25935:26002   */\n      tag_239\n      jump\t// in\n    tag_539:\n        /* \"#utility.yul\":25928:26002   */\n      swap2\n      pop\n        /* \"#utility.yul\":26011:26104   */\n      tag_540\n        /* \"#utility.yul\":26100:26103   */\n      dup3\n        /* \"#utility.yul\":26011:26104   */\n      tag_283\n      jump\t// in\n    tag_540:\n        /* \"#utility.yul\":26129:26131   */\n      0x40\n        /* \"#utility.yul\":26124:26127   */\n      dup3\n        /* \"#utility.yul\":26120:26132   */\n      add\n        /* \"#utility.yul\":26113:26132   */\n      swap1\n      pop\n        /* \"#utility.yul\":25772:26138   */\n      swap2\n      swap1\n      pop\n      jump\t// out\n        /* \"#utility.yul\":26144:26563   */\n    tag_138:\n        /* \"#utility.yul\":26310:26314   */\n      0x00\n        /* \"#utility.yul\":26348:26350   */\n      0x20\n        /* \"#utility.yul\":26337:26346   */\n      dup3\n        /* \"#utility.yul\":26333:26351   */\n      add\n        /* \"#utility.yul\":26325:26351   */\n      swap1\n      pop\n        /* \"#utility.yul\":26397:26406   */\n      dup2\n        /* \"#utility.yul\":26391:26395   */\n      dup2\n        /* \"#utility.yul\":26387:26407   */\n      sub\n        /* \"#utility.yul\":26383:26384   */\n      0x00\n        /* \"#utility.yul\":26372:26381   */\n      dup4\n        /* \"#utility.yul\":26368:26385   */\n      add\n        /* \"#utility.yul\":26361:26408   */\n      mstore\n        /* \"#utility.yul\":26425:26556   */\n      tag_542\n        /* \"#utility.yul\":26551:26555   */\n      dup2\n        /* \"#utility.yul\":26425:26556   */\n      tag_284\n      jump\t// in\n    tag_542:\n        /* \"#utility.yul\":26417:26556   */\n      swap1\n      pop\n        /* \"#utility.yul\":26144:26563   */\n      swap2\n      swap1\n      pop\n      jump\t// out\n        /* \"#utility.yul\":26569:26901   */\n    tag_152:\n        /* \"#utility.yul\":26690:26694   */\n      0x00\n        /* \"#utility.yul\":26728:26730   */\n      0x40\n        /* \"#utility.yul\":26717:26726   */\n      dup3\n        /* \"#utility.yul\":26713:26731   */\n      add\n        /* \"#utility.yul\":26705:26731   */\n      swap1\n      pop\n        /* \"#utility.yul\":26741:26812   */\n      tag_544\n        /* \"#utility.yul\":26809:26810   */\n      0x00\n        /* \"#utility.yul\":26798:26807   */\n      dup4\n        /* \"#utility.yul\":26794:26811   */\n      add\n        /* \"#utility.yul\":26785:26791   */\n      dup6\n        /* \"#utility.yul\":26741:26812   */\n      tag_232\n      jump\t// in\n    tag_544:\n        /* \"#utility.yul\":26822:26894   */\n      tag_545\n        /* \"#utility.yul\":26890:26892   */\n      0x20\n        /* \"#utility.yul\":26879:26888   */\n      dup4\n        /* \"#utility.yul\":26875:26893   */\n      add\n        /* \"#utility.yul\":26866:26872   */\n      dup5\n        /* \"#utility.yul\":26822:26894   */\n      tag_232\n      jump\t// in\n    tag_545:\n        /* \"#utility.yul\":26569:26901   */\n      swap4\n      swap3\n      pop\n      pop\n      pop\n      jump\t// out\n        /* \"#utility.yul\":26907:27140   */\n    tag_161:\n        /* \"#utility.yul\":26946:26949   */\n      0x00\n        /* \"#utility.yul\":26969:26993   */\n      tag_547\n        /* \"#utility.yul\":26987:26992   */\n      dup3\n        /* \"#utility.yul\":26969:26993   */\n      tag_229\n      jump\t// in\n    tag_547:\n        /* \"#utility.yul\":26960:26993   */\n      swap2\n      pop\n        /* \"#utility.yul\":27015:27081   */\n      0xffffffffffffffffffffffffffffffffffffffffffffffffffffffffffffffff\n        /* \"#utility.yul\":27008:27013   */\n      dup3\n        /* \"#utility.yul\":27005:27082   */\n      sub\n        /* \"#utility.yul\":27002:27105   */\n      tag_548\n      jumpi\n        /* \"#utility.yul\":27085:27103   */\n      tag_549\n      tag_280\n      jump\t// in\n    tag_549:\n        /* \"#utility.yul\":27002:27105   */\n    tag_548:\n        /* \"#utility.yul\":27132:27133   */\n      0x01\n        /* \"#utility.yul\":27125:27130   */\n      dup3\n        /* \"#utility.yul\":27121:27134   */\n      add\n        /* \"#utility.yul\":27114:27134   */\n      swap1\n      pop\n        /* \"#utility.yul\":26907:27140   */\n      swap2\n      swap1\n      pop\n      jump\t// out\n        /* \"#utility.yul\":27146:27326   */\n    tag_285:\n        /* \"#utility.yul\":27194:27271   */\n      0x4e487b7100000000000000000000000000000000000000000000000000000000\n        /* \"#utility.yul\":27191:27192   */\n      0x00\n        /* \"#utility.yul\":27184:27272   */\n      mstore\n        /* \"#utility.yul\":27291:27295   */\n      0x12\n        /* \"#utility.yul\":27288:27289   */\n      0x04\n        /* \"#utility.yul\":27281:27296   */\n      mstore\n        /* \"#utility.yul\":27315:27319   */\n      0x24\n        /* \"#utility.yul\":27312:27313   */\n      0x00\n        /* \"#utility.yul\":27305:27320   */\n      revert\n        /* \"#utility.yul\":27332:27517   */\n    tag_163:\n        /* \"#utility.yul\":27372:27373   */\n      0x00\n        /* \"#utility.yul\":27389:27409   */\n      tag_552\n        /* \"#utility.yul\":27407:27408   */\n      dup3\n        /* \"#utility.yul\":27389:27409   */\n      tag_229\n      jump\t// in\n    tag_552:\n        /* \"#utility.yul\":27384:27409   */\n      swap2\n      pop\n        /* \"#utility.yul\":27423:27443   */\n      tag_553\n        /* \"#utility.yul\":27441:27442   */\n      dup4\n        /* \"#utility.yul\":27423:27443   */\n      tag_229\n      jump\t// in\n    tag_553:\n        /* \"#utility.yul\":27418:27443   */\n      swap3\n      pop\n        /* \"#utility.yul\":27462:27463   */\n      dup3\n        /* \"#utility.yul\":27452:27487   */\n      tag_554\n      jumpi\n        /* \"#utility.yul\":27467:27485   */\n      tag_555\n      tag_285\n      jump\t// in\n    tag_555:\n        /* \"#utility.yul\":27452:27487   */\n    tag_554:\n        /* \"#utility.yul\":27509:27510   */\n      dup3\n        /* \"#utility.yul\":27506:27507   */\n      dup3\n        /* \"#utility.yul\":27502:27511   */\n      div\n        /* \"#utility.yul\":27497:27511   */\n      swap1\n      pop\n        /* \"#utility.yul\":27332:27517   */\n      swap3\n      swap2\n      pop\n      pop\n      jump\t// out\n        /* \"#utility.yul\":27523:27717   */\n    tag_170:\n        /* \"#utility.yul\":27563:27567   */\n      0x00\n        /* \"#utility.yul\":27583:27603   */\n      tag_557\n        /* \"#utility.yul\":27601:27602   */\n      dup3\n        /* \"#utility.yul\":27583:27603   */\n      tag_229\n      jump\t// in\n    tag_557:\n        /* \"#utility.yul\":27578:27603   */\n      swap2\n      pop\n        /* \"#utility.yul\":27617:27637   */\n      tag_558\n        /* \"#utility.yul\":27635:27636   */\n      dup4\n        /* \"#utility.yul\":27617:27637   */\n      tag_229\n      jump\t// in\n    tag_558:\n        /* \"#utility.yul\":27612:27637   */\n      swap3\n      pop\n        /* \"#utility.yul\":27661:27662   */\n      dup3\n        /* \"#utility.yul\":27658:27659   */\n      dup3\n        /* \"#utility.yul\":27654:27663   */\n      sub\n        /* \"#utility.yul\":27646:27663   */\n      swap1\n      pop\n        /* \"#utility.yul\":27685:27686   */\n      dup2\n        /* \"#utility.yul\":27679:27683   */\n      dup2\n        /* \"#utility.yul\":27676:27687   */\n      gt\n        /* \"#utility.yul\":27673:27710   */\n      iszero\n      tag_559\n      jumpi\n        /* \"#utility.yul\":27690:27708   */\n      tag_560\n      tag_280\n      jump\t// in\n    tag_560:\n        /* \"#utility.yul\":27673:27710   */\n    tag_559:\n        /* \"#utility.yul\":27523:27717   */\n      swap3\n      swap2\n      pop\n      pop\n      jump\t// out\n        /* \"#utility.yul\":27723:27899   */\n    tag_172:\n        /* \"#utility.yul\":27755:27756   */\n      0x00\n        /* \"#utility.yul\":27772:27792   */\n      tag_562\n        /* \"#utility.yul\":27790:27791   */\n      dup3\n        /* \"#utility.yul\":27772:27792   */\n      tag_229\n      jump\t// in\n    tag_562:\n        /* \"#utility.yul\":27767:27792   */\n      swap2\n      pop\n        /* \"#utility.yul\":27806:27826   */\n      tag_563\n        /* \"#utility.yul\":27824:27825   */\n      dup4\n        /* \"#utility.yul\":27806:27826   */\n      tag_229\n      jump\t// in\n    tag_563:\n        /* \"#utility.yul\":27801:27826   */\n      swap3\n      pop\n        /* \"#utility.yul\":27845:27846   */\n      dup3\n        /* \"#utility.yul\":27835:27870   */\n      tag_564\n      jumpi\n        /* \"#utility.yul\":27850:27868   */\n      tag_565\n      tag_285\n      jump\t// in\n    tag_565:\n        /* \"#utility.yul\":27835:27870   */\n    tag_564:\n        /* \"#utility.yul\":27891:27892   */\n      dup3\n        /* \"#utility.yul\":27888:27889   */\n      dup3\n        /* \"#utility.yul\":27884:27893   */\n      mod\n        /* \"#utility.yul\":27879:27893   */\n      swap1\n      pop\n        /* \"#utility.yul\":27723:27899   */\n      swap3\n      swap2\n      pop\n      pop\n      jump\t// out\n        /* \"#utility.yul\":27905:28023   */\n    tag_286:\n        /* \"#utility.yul\":27992:28016   */\n      tag_567\n        /* \"#utility.yul\":28010:28015   */\n      dup2\n        /* \"#utility.yul\":27992:28016   */\n      tag_226\n      jump\t// in\n    tag_567:\n        /* \"#utility.yul\":27987:27990   */\n      dup3\n        /* \"#utility.yul\":27980:28017   */\n      mstore\n        /* \"#utility.yul\":27905:28023   */\n      pop\n      pop\n      jump\t// out\n        /* \"#utility.yul\":28029:28127   */\n    tag_287:\n        /* \"#utility.yul\":28080:28086   */\n      0x00\n        /* \"#utility.yul\":28114:28119   */\n      dup2\n        /* \"#utility.yul\":28108:28120   */\n      mload\n        /* \"#utility.yul\":28098:28120   */\n      swap1\n      pop\n        /* \"#utility.yul\":28029:28127   */\n      swap2\n      swap1\n      pop\n      jump\t// out\n        /* \"#utility.yul\":28133:28301   */\n    tag_288:\n        /* \"#utility.yul\":28216:28227   */\n      0x00\n        /* \"#utility.yul\":28250:28256   */\n      dup3\n        /* \"#utility.yul\":28245:28248   */\n      dup3\n        /* \"#utility.yul\":28238:28257   */\n      mstore\n        /* \"#utility.yul\":28290:28294   */\n      0x20\n        /* \"#utility.yul\":28285:28288   */\n      dup3\n        /* \"#utility.yul\":28281:28295   */\n      add\n        /* \"#utility.yul\":28266:28295   */\n      swap1\n      pop\n        /* \"#utility.yul\":28133:28301   */\n      swap3\n      swap2\n      pop\n      pop\n      jump\t// out\n        /* \"#utility.yul\":28307:28680   */\n    tag_289:\n        /* \"#utility.yul\":28393:28396   */\n      0x00\n        /* \"#utility.yul\":28421:28459   */\n      tag_571\n        /* \"#utility.yul\":28453:28458   */\n      dup3\n        /* \"#utility.yul\":28421:28459   */\n      tag_287\n      jump\t// in\n    tag_571:\n        /* \"#utility.yul\":28475:28545   */\n      tag_572\n        /* \"#utility.yul\":28538:28544   */\n      dup2\n        /* \"#utility.yul\":28533:28536   */\n      dup6\n        /* \"#utility.yul\":28475:28545   */\n      tag_288\n      jump\t// in\n    tag_572:\n        /* \"#utility.yul\":28468:28545   */\n      swap4\n      pop\n        /* \"#utility.yul\":28554:28619   */\n      tag_573\n        /* \"#utility.yul\":28612:28618   */\n      dup2\n        /* \"#utility.yul\":28607:28610   */\n      dup6\n        /* \"#utility.yul\":28600:28604   */\n      0x20\n        /* \"#utility.yul\":28593:28598   */\n      dup7\n        /* \"#utility.yul\":28589:28605   */\n      add\n        /* \"#utility.yul\":28554:28619   */\n      tag_240\n      jump\t// in\n    tag_573:\n        /* \"#utility.yul\":28644:28673   */\n      tag_574\n        /* \"#utility.yul\":28666:28672   */\n      dup2\n        /* \"#utility.yul\":28644:28673   */\n      tag_241\n      jump\t// in\n    tag_574:\n        /* \"#utility.yul\":28639:28642   */\n      dup5\n        /* \"#utility.yul\":28635:28674   */\n      add\n        /* \"#utility.yul\":28628:28674   */\n      swap2\n      pop\n        /* \"#utility.yul\":28397:28680   */\n      pop\n        /* \"#utility.yul\":28307:28680   */\n      swap3\n      swap2\n      pop\n      pop\n      jump\t// out\n        /* \"#utility.yul\":28686:29739   */\n    tag_182:\n        /* \"#utility.yul\":29009:29013   */\n      0x00\n        /* \"#utility.yul\":29047:29050   */\n      0xa0\n        /* \"#utility.yul\":29036:29045   */\n      dup3\n        /* \"#utility.yul\":29032:29051   */\n      add\n        /* \"#utility.yul\":29024:29051   */\n      swap1\n      pop\n        /* \"#utility.yul\":29061:29132   */\n      tag_576\n        /* \"#utility.yul\":29129:29130   */\n      0x00\n        /* \"#utility.yul\":29118:29127   */\n      dup4\n        /* \"#utility.yul\":29114:29131   */\n      add\n        /* \"#utility.yul\":29105:29111   */\n      dup9\n        /* \"#utility.yul\":29061:29132   */\n      tag_286\n      jump\t// in\n    tag_576:\n        /* \"#utility.yul\":29142:29214   */\n      tag_577\n        /* \"#utility.yul\":29210:29212   */\n      0x20\n        /* \"#utility.yul\":29199:29208   */\n      dup4\n        /* \"#utility.yul\":29195:29213   */\n      add\n        /* \"#utility.yul\":29186:29192   */\n      dup8\n        /* \"#utility.yul\":29142:29214   */\n      tag_286\n      jump\t// in\n    tag_577:\n        /* \"#utility.yul\":29261:29270   */\n      dup2\n        /* \"#utility.yul\":29255:29259   */\n      dup2\n        /* \"#utility.yul\":29251:29271   */\n      sub\n        /* \"#utility.yul\":29246:29248   */\n      0x40\n        /* \"#utility.yul\":29235:29244   */\n      dup4\n        /* \"#utility.yul\":29231:29249   */\n      add\n        /* \"#utility.yul\":29224:29272   */\n      mstore\n        /* \"#utility.yul\":29289:29397   */\n      tag_578\n        /* \"#utility.yul\":29392:29396   */\n      dup2\n        /* \"#utility.yul\":29383:29389   */\n      dup7\n        /* \"#utility.yul\":29289:29397   */\n      tag_264\n      jump\t// in\n    tag_578:\n        /* \"#utility.yul\":29281:29397   */\n      swap1\n      pop\n        /* \"#utility.yul\":29444:29453   */\n      dup2\n        /* \"#utility.yul\":29438:29442   */\n      dup2\n        /* \"#utility.yul\":29434:29454   */\n      sub\n        /* \"#utility.yul\":29429:29431   */\n      0x60\n        /* \"#utility.yul\":29418:29427   */\n      dup4\n        /* \"#utility.yul\":29414:29432   */\n      add\n        /* \"#utility.yul\":29407:29455   */\n      mstore\n        /* \"#utility.yul\":29472:29580   */\n      tag_579\n        /* \"#utility.yul\":29575:29579   */\n      dup2\n        /* \"#utility.yul\":29566:29572   */\n      dup6\n        /* \"#utility.yul\":29472:29580   */\n      tag_264\n      jump\t// in\n    tag_579:\n        /* \"#utility.yul\":29464:29580   */\n      swap1\n      pop\n        /* \"#utility.yul\":29628:29637   */\n      dup2\n        /* \"#utility.yul\":29622:29626   */\n      dup2\n        /* \"#utility.yul\":29618:29638   */\n      sub\n        /* \"#utility.yul\":29612:29615   */\n      0x80\n        /* \"#utility.yul\":29601:29610   */\n      dup4\n        /* \"#utility.yul\":29597:29616   */\n      add\n        /* \"#utility.yul\":29590:29639   */\n      mstore\n        /* \"#utility.yul\":29656:29732   */\n      tag_580\n        /* \"#utility.yul\":29727:29731   */\n      dup2\n        /* \"#utility.yul\":29718:29724   */\n      dup5\n        /* \"#utility.yul\":29656:29732   */\n      tag_289\n      jump\t// in\n    tag_580:\n        /* \"#utility.yul\":29648:29732   */\n      swap1\n      pop\n        /* \"#utility.yul\":28686:29739   */\n      swap7\n      swap6\n      pop\n      pop\n      pop\n      pop\n      pop\n      pop\n      jump\t// out\n        /* \"#utility.yul\":29745:29886   */\n    tag_290:\n        /* \"#utility.yul\":29801:29806   */\n      0x00\n        /* \"#utility.yul\":29832:29838   */\n      dup2\n        /* \"#utility.yul\":29826:29839   */\n      mload\n        /* \"#utility.yul\":29817:29839   */\n      swap1\n      pop\n        /* \"#utility.yul\":29848:29880   */\n      tag_582\n        /* \"#utility.yul\":29874:29879   */\n      dup2\n        /* \"#utility.yul\":29848:29880   */\n      tag_234\n      jump\t// in\n    tag_582:\n        /* \"#utility.yul\":29745:29886   */\n      swap3\n      swap2\n      pop\n      pop\n      jump\t// out\n        /* \"#utility.yul\":29892:30241   */\n    tag_185:\n        /* \"#utility.yul\":29961:29967   */\n      0x00\n        /* \"#utility.yul\":30010:30012   */\n      0x20\n        /* \"#utility.yul\":29998:30007   */\n      dup3\n        /* \"#utility.yul\":29989:29996   */\n      dup5\n        /* \"#utility.yul\":29985:30008   */\n      sub\n        /* \"#utility.yul\":29981:30013   */\n      slt\n        /* \"#utility.yul\":29978:30097   */\n      iszero\n      tag_584\n      jumpi\n        /* \"#utility.yul\":30016:30095   */\n      tag_585\n      tag_223\n      jump\t// in\n    tag_585:\n        /* \"#utility.yul\":29978:30097   */\n    tag_584:\n        /* \"#utility.yul\":30136:30137   */\n      0x00\n        /* \"#utility.yul\":30161:30224   */\n      tag_586\n        /* \"#utility.yul\":30216:30223   */\n      dup5\n        /* \"#utility.yul\":30207:30213   */\n      dup3\n        /* \"#utility.yul\":30196:30205   */\n      dup6\n        /* \"#utility.yul\":30192:30214   */\n      add\n        /* \"#utility.yul\":30161:30224   */\n      tag_290\n      jump\t// in\n    tag_586:\n        /* \"#utility.yul\":30151:30224   */\n      swap2\n      pop\n        /* \"#utility.yul\":30107:30234   */\n      pop\n        /* \"#utility.yul\":29892:30241   */\n      swap3\n      swap2\n      pop\n      pop\n      jump\t// out\n        /* \"#utility.yul\":30247:30353   */\n    tag_291:\n        /* \"#utility.yul\":30291:30299   */\n      0x00\n        /* \"#utility.yul\":30340:30345   */\n      dup2\n        /* \"#utility.yul\":30335:30338   */\n      0xe0\n        /* \"#utility.yul\":30331:30346   */\n      shr\n        /* \"#utility.yul\":30310:30346   */\n      swap1\n      pop\n        /* \"#utility.yul\":30247:30353   */\n      swap2\n      swap1\n      pop\n      jump\t// out\n        /* \"#utility.yul\":30359:30542   */\n    tag_191:\n        /* \"#utility.yul\":30394:30397   */\n      0x00\n        /* \"#utility.yul\":30432:30433   */\n      0x03\n        /* \"#utility.yul\":30414:30430   */\n      returndatasize\n        /* \"#utility.yul\":30411:30434   */\n      gt\n        /* \"#utility.yul\":30408:30536   */\n      iszero\n      tag_589\n      jumpi\n        /* \"#utility.yul\":30470:30471   */\n      0x04\n        /* \"#utility.yul\":30467:30468   */\n      0x00\n        /* \"#utility.yul\":30464:30465   */\n      dup1\n        /* \"#utility.yul\":30449:30472   */\n      returndatacopy\n        /* \"#utility.yul\":30492:30526   */\n      tag_590\n        /* \"#utility.yul\":30523:30524   */\n      0x00\n        /* \"#utility.yul\":30517:30525   */\n      mload\n        /* \"#utility.yul\":30492:30526   */\n      tag_291\n      jump\t// in\n    tag_590:\n        /* \"#utility.yul\":30485:30526   */\n      swap1\n      pop\n        /* \"#utility.yul\":30408:30536   */\n    tag_589:\n        /* \"#utility.yul\":30359:30542   */\n      swap1\n      jump\t// out\n        /* \"#utility.yul\":30548:31259   */\n    tag_193:\n        /* \"#utility.yul\":30587:30590   */\n      0x00\n        /* \"#utility.yul\":30625:30629   */\n      0x44\n        /* \"#utility.yul\":30607:30623   */\n      returndatasize\n        /* \"#utility.yul\":30604:30630   */\n      lt\n        /* \"#utility.yul\":30633:30638   */\n      tag_591\n        /* \"#utility.yul\":30601:30640   */\n      jumpi\n        /* \"#utility.yul\":30662:30682   */\n      tag_593\n      tag_222\n      jump\t// in\n    tag_593:\n        /* \"#utility.yul\":30737:30738   */\n      0x04\n        /* \"#utility.yul\":30719:30735   */\n      returndatasize\n        /* \"#utility.yul\":30715:30739   */\n      sub\n        /* \"#utility.yul\":30712:30713   */\n      0x04\n        /* \"#utility.yul\":30706:30710   */\n      dup3\n        /* \"#utility.yul\":30691:30740   */\n      returndatacopy\n        /* \"#utility.yul\":30770:30774   */\n      dup1\n        /* \"#utility.yul\":30764:30775   */\n      mload\n        /* \"#utility.yul\":30869:30885   */\n      returndatasize\n        /* \"#utility.yul\":30862:30866   */\n      0x24\n        /* \"#utility.yul\":30854:30860   */\n      dup3\n        /* \"#utility.yul\":30850:30867   */\n      add\n        /* \"#utility.yul\":30847:30886   */\n      gt\n        /* \"#utility.yul\":30814:30832   */\n      0xffffffffffffffff\n        /* \"#utility.yul\":30806:30812   */\n      dup3\n        /* \"#utility.yul\":30803:30833   */\n      gt\n        /* \"#utility.yul\":30787:30900   */\n      or\n        /* \"#utility.yul\":30784:30930   */\n      iszero\n      tag_594\n      jumpi\n        /* \"#utility.yul\":30915:30920   */\n      pop\n      pop\n      jump(tag_591)\n        /* \"#utility.yul\":30784:30930   */\n    tag_594:\n        /* \"#utility.yul\":30961:30967   */\n      dup1\n        /* \"#utility.yul\":30955:30959   */\n      dup3\n        /* \"#utility.yul\":30951:30968   */\n      add\n        /* \"#utility.yul\":30997:31000   */\n      dup1\n        /* \"#utility.yul\":30991:31001   */\n      mload\n        /* \"#utility.yul\":31024:31042   */\n      0xffffffffffffffff\n        /* \"#utility.yul\":31016:31022   */\n      dup2\n        /* \"#utility.yul\":31013:31043   */\n      gt\n        /* \"#utility.yul\":31010:31053   */\n      iszero\n      tag_595\n      jumpi\n        /* \"#utility.yul\":31046:31051   */\n      pop\n      pop\n      pop\n      pop\n      jump(tag_591)\n        /* \"#utility.yul\":31010:31053   */\n    tag_595:\n        /* \"#utility.yul\":31094:31100   */\n      dup1\n        /* \"#utility.yul\":31087:31091   */\n      0x20\n        /* \"#utility.yul\":31082:31085   */\n      dup4\n        /* \"#utility.yul\":31078:31092   */\n      add\n        /* \"#utility.yul\":31074:31101   */\n      add\n        /* \"#utility.yul\":31153:31154   */\n      0x04\n        /* \"#utility.yul\":31135:31151   */\n      returndatasize\n        /* \"#utility.yul\":31131:31155   */\n      sub\n        /* \"#utility.yul\":31125:31129   */\n      dup6\n        /* \"#utility.yul\":31121:31156   */\n      add\n        /* \"#utility.yul\":31116:31119   */\n      dup2\n        /* \"#utility.yul\":31113:31157   */\n      gt\n        /* \"#utility.yul\":31110:31167   */\n      iszero\n      tag_596\n      jumpi\n        /* \"#utility.yul\":31160:31165   */\n      pop\n      pop\n      pop\n      pop\n      pop\n      jump(tag_591)\n        /* \"#utility.yul\":31110:31167   */\n    tag_596:\n        /* \"#utility.yul\":31177:31234   */\n      tag_597\n        /* \"#utility.yul\":31225:31231   */\n      dup3\n        /* \"#utility.yul\":31219:31223   */\n      0x20\n        /* \"#utility.yul\":31215:31232   */\n      add\n        /* \"#utility.yul\":31207:31213   */\n      dup6\n        /* \"#utility.yul\":31203:31233   */\n      add\n        /* \"#utility.yul\":31197:31201   */\n      dup7\n        /* \"#utility.yul\":31177:31234   */\n      tag_244\n      jump\t// in\n    tag_597:\n        /* \"#utility.yul\":31250:31253   */\n      dup3\n        /* \"#utility.yul\":31243:31253   */\n      swap6\n      pop\n        /* \"#utility.yul\":30591:31259   */\n      pop\n      pop\n      pop\n      pop\n      pop\n        /* \"#utility.yul\":30548:31259   */\n    tag_591:\n      swap1\n      jump\t// out\n        /* \"#utility.yul\":31265:31504   */\n    tag_292:\n        /* \"#utility.yul\":31405:31439   */\n      0x455243313135353a207472616e7366657220746f206e6f6e2d45524331313535\n        /* \"#utility.yul\":31401:31402   */\n      0x00\n        /* \"#utility.yul\":31393:31399   */\n      dup3\n        /* \"#utility.yul\":31389:31403   */\n      add\n        /* \"#utility.yul\":31382:31440   */\n      mstore\n        /* \"#utility.yul\":31474:31496   */\n      0x526563656976657220696d706c656d656e746572000000000000000000000000\n        /* \"#utility.yul\":31469:31471   */\n      0x20\n        /* \"#utility.yul\":31461:31467   */\n      dup3\n        /* \"#utility.yul\":31457:31472   */\n      add\n        /* \"#utility.yul\":31450:31497   */\n      mstore\n        /* \"#utility.yul\":31265:31504   */\n      pop\n      jump\t// out\n        /* \"#utility.yul\":31510:31876   */\n    tag_293:\n        /* \"#utility.yul\":31652:31655   */\n      0x00\n        /* \"#utility.yul\":31673:31740   */\n      tag_600\n        /* \"#utility.yul\":31737:31739   */\n      0x34\n        /* \"#utility.yul\":31732:31735   */\n      dup4\n        /* \"#utility.yul\":31673:31740   */\n      tag_239\n      jump\t// in\n    tag_600:\n        /* \"#utility.yul\":31666:31740   */\n      swap2\n      pop\n        /* \"#utility.yul\":31749:31842   */\n      tag_601\n        /* \"#utility.yul\":31838:31841   */\n      dup3\n        /* \"#utility.yul\":31749:31842   */\n      tag_292\n      jump\t// in\n    tag_601:\n        /* \"#utility.yul\":31867:31869   */\n      0x40\n        /* \"#utility.yul\":31862:31865   */\n      dup3\n        /* \"#utility.yul\":31858:31870   */\n      add\n        /* \"#utility.yul\":31851:31870   */\n      swap1\n      pop\n        /* \"#utility.yul\":31510:31876   */\n      swap2\n      swap1\n      pop\n      jump\t// out\n        /* \"#utility.yul\":31882:32301   */\n    tag_197:\n        /* \"#utility.yul\":32048:32052   */\n      0x00\n        /* \"#utility.yul\":32086:32088   */\n      0x20\n        /* \"#utility.yul\":32075:32084   */\n      dup3\n        /* \"#utility.yul\":32071:32089   */\n      add\n        /* \"#utility.yul\":32063:32089   */\n      swap1\n      pop\n        /* \"#utility.yul\":32135:32144   */\n      dup2\n        /* \"#utility.yul\":32129:32133   */\n      dup2\n        /* \"#utility.yul\":32125:32145   */\n      sub\n        /* \"#utility.yul\":32121:32122   */\n      0x00\n        /* \"#utility.yul\":32110:32119   */\n      dup4\n        /* \"#utility.yul\":32106:32123   */\n      add\n        /* \"#utility.yul\":32099:32146   */\n      mstore\n        /* \"#utility.yul\":32163:32294   */\n      tag_603\n        /* \"#utility.yul\":32289:32293   */\n      dup2\n        /* \"#utility.yul\":32163:32294   */\n      tag_293\n      jump\t// in\n    tag_603:\n        /* \"#utility.yul\":32155:32294   */\n      swap1\n      pop\n        /* \"#utility.yul\":31882:32301   */\n      swap2\n      swap1\n      pop\n      jump\t// out\n        /* \"#utility.yul\":32307:32534   */\n    tag_294:\n        /* \"#utility.yul\":32447:32481   */\n      0x455243313135353a204552433131353552656365697665722072656a65637465\n        /* \"#utility.yul\":32443:32444   */\n      0x00\n        /* \"#utility.yul\":32435:32441   */\n      dup3\n        /* \"#utility.yul\":32431:32445   */\n      add\n        /* \"#utility.yul\":32424:32482   */\n      mstore\n        /* \"#utility.yul\":32516:32526   */\n      0x6420746f6b656e73000000000000000000000000000000000000000000000000\n        /* \"#utility.yul\":32511:32513   */\n      0x20\n        /* \"#utility.yul\":32503:32509   */\n      dup3\n        /* \"#utility.yul\":32499:32514   */\n      add\n        /* \"#utility.yul\":32492:32527   */\n      mstore\n        /* \"#utility.yul\":32307:32534   */\n      pop\n      jump\t// out\n        /* \"#utility.yul\":32540:32906   */\n    tag_295:\n        /* \"#utility.yul\":32682:32685   */\n      0x00\n        /* \"#utility.yul\":32703:32770   */\n      tag_606\n        /* \"#utility.yul\":32767:32769   */\n      0x28\n        /* \"#utility.yul\":32762:32765   */\n      dup4\n        /* \"#utility.yul\":32703:32770   */\n      tag_239\n      jump\t// in\n    tag_606:\n        /* \"#utility.yul\":32696:32770   */\n      swap2\n      pop\n        /* \"#utility.yul\":32779:32872   */\n      tag_607\n        /* \"#utility.yul\":32868:32871   */\n      dup3\n        /* \"#utility.yul\":32779:32872   */\n      tag_294\n      jump\t// in\n    tag_607:\n        /* \"#utility.yul\":32897:32899   */\n      0x40\n        /* \"#utility.yul\":32892:32895   */\n      dup3\n        /* \"#utility.yul\":32888:32900   */\n      add\n        /* \"#utility.yul\":32881:32900   */\n      swap1\n      pop\n        /* \"#utility.yul\":32540:32906   */\n      swap2\n      swap1\n      pop\n      jump\t// out\n        /* \"#utility.yul\":32912:33331   */\n    tag_201:\n        /* \"#utility.yul\":33078:33082   */\n      0x00\n        /* \"#utility.yul\":33116:33118   */\n      0x20\n        /* \"#utility.yul\":33105:33114   */\n      dup3\n        /* \"#utility.yul\":33101:33119   */\n      add\n        /* \"#utility.yul\":33093:33119   */\n      swap1\n      pop\n        /* \"#utility.yul\":33165:33174   */\n      dup2\n        /* \"#utility.yul\":33159:33163   */\n      dup2\n        /* \"#utility.yul\":33155:33175   */\n      sub\n        /* \"#utility.yul\":33151:33152   */\n      0x00\n        /* \"#utility.yul\":33140:33149   */\n      dup4\n        /* \"#utility.yul\":33136:33153   */\n      add\n        /* \"#utility.yul\":33129:33176   */\n      mstore\n        /* \"#utility.yul\":33193:33324   */\n      tag_609\n        /* \"#utility.yul\":33319:33323   */\n      dup2\n        /* \"#utility.yul\":33193:33324   */\n      tag_295\n      jump\t// in\n    tag_609:\n        /* \"#utility.yul\":33185:33324   */\n      swap1\n      pop\n        /* \"#utility.yul\":32912:33331   */\n      swap2\n      swap1\n      pop\n      jump\t// out\n        /* \"#utility.yul\":33337:34088   */\n    tag_206:\n        /* \"#utility.yul\":33560:33564   */\n      0x00\n        /* \"#utility.yul\":33598:33601   */\n      0xa0\n        /* \"#utility.yul\":33587:33596   */\n      dup3\n        /* \"#utility.yul\":33583:33602   */\n      add\n        /* \"#utility.yul\":33575:33602   */\n      swap1\n      pop\n        /* \"#utility.yul\":33612:33683   */\n      tag_611\n        /* \"#utility.yul\":33680:33681   */\n      0x00\n        /* \"#utility.yul\":33669:33678   */\n      dup4\n        /* \"#utility.yul\":33665:33682   */\n      add\n        /* \"#utility.yul\":33656:33662   */\n      dup9\n        /* \"#utility.yul\":33612:33683   */\n      tag_286\n      jump\t// in\n    tag_611:\n        /* \"#utility.yul\":33693:33765   */\n      tag_612\n        /* \"#utility.yul\":33761:33763   */\n      0x20\n        /* \"#utility.yul\":33750:33759   */\n      dup4\n        /* \"#utility.yul\":33746:33764   */\n      add\n        /* \"#utility.yul\":33737:33743   */\n      dup8\n        /* \"#utility.yul\":33693:33765   */\n      tag_286\n      jump\t// in\n    tag_612:\n        /* \"#utility.yul\":33775:33847   */\n      tag_613\n        /* \"#utility.yul\":33843:33845   */\n      0x40\n        /* \"#utility.yul\":33832:33841   */\n      dup4\n        /* \"#utility.yul\":33828:33846   */\n      add\n        /* \"#utility.yul\":33819:33825   */\n      dup7\n        /* \"#utility.yul\":33775:33847   */\n      tag_232\n      jump\t// in\n    tag_613:\n        /* \"#utility.yul\":33857:33929   */\n      tag_614\n        /* \"#utility.yul\":33925:33927   */\n      0x60\n        /* \"#utility.yul\":33914:33923   */\n      dup4\n        /* \"#utility.yul\":33910:33928   */\n      add\n        /* \"#utility.yul\":33901:33907   */\n      dup6\n        /* \"#utility.yul\":33857:33929   */\n      tag_232\n      jump\t// in\n    tag_614:\n        /* \"#utility.yul\":33977:33986   */\n      dup2\n        /* \"#utility.yul\":33971:33975   */\n      dup2\n        /* \"#utility.yul\":33967:33987   */\n      sub\n        /* \"#utility.yul\":33961:33964   */\n      0x80\n        /* \"#utility.yul\":33950:33959   */\n      dup4\n        /* \"#utility.yul\":33946:33965   */\n      add\n        /* \"#utility.yul\":33939:33988   */\n      mstore\n        /* \"#utility.yul\":34005:34081   */\n      tag_615\n        /* \"#utility.yul\":34076:34080   */\n      dup2\n        /* \"#utility.yul\":34067:34073   */\n      dup5\n        /* \"#utility.yul\":34005:34081   */\n      tag_289\n      jump\t// in\n    tag_615:\n        /* \"#utility.yul\":33997:34081   */\n      swap1\n      pop\n        /* \"#utility.yul\":33337:34088   */\n      swap7\n      swap6\n      pop\n      pop\n      pop\n      pop\n      pop\n      pop\n      jump\t// out\n\n    auxdata: 0xa26469706673582212203b776fe27768f497cada6f4e1d770938105589aa1ec47cd79cdec102afa0cf4664736f6c634300081a0033\n}\n",
				"bytecode": {
					"linkReferences": {},
					"object": "608060405234801561000f575f80fd5b50604051612b61380380612b61833981810160405281019061003191906101a4565b815f908161003f9190610427565b50806001908161004f9190610427565b5050506104f6565b5f604051905090565b5f80fd5b5f80fd5b5f80fd5b5f80fd5b5f601f19601f8301169050919050565b7f4e487b71000000000000000000000000000000000000000000000000000000005f52604160045260245ffd5b6100b682610070565b810181811067ffffffffffffffff821117156100d5576100d4610080565b5b80604052505050565b5f6100e7610057565b90506100f382826100ad565b919050565b5f67ffffffffffffffff82111561011257610111610080565b5b61011b82610070565b9050602081019050919050565b8281835e5f83830152505050565b5f610148610143846100f8565b6100de565b9050828152602081018484840111156101645761016361006c565b5b61016f848285610128565b509392505050565b5f82601f83011261018b5761018a610068565b5b815161019b848260208601610136565b91505092915050565b5f80604083850312156101ba576101b9610060565b5b5f83015167ffffffffffffffff8111156101d7576101d6610064565b5b6101e385828601610177565b925050602083015167ffffffffffffffff81111561020457610203610064565b5b61021085828601610177565b9150509250929050565b5f81519050919050565b7f4e487b71000000000000000000000000000000000000000000000000000000005f52602260045260245ffd5b5f600282049050600182168061026857607f821691505b60208210810361027b5761027a610224565b5b50919050565b5f819050815f5260205f209050919050565b5f6020601f8301049050919050565b5f82821b905092915050565b5f600883026102dd7fffffffffffffffffffffffffffffffffffffffffffffffffffffffffffffffff826102a2565b6102e786836102a2565b95508019841693508086168417925050509392505050565b5f819050919050565b5f819050919050565b5f61032b610326610321846102ff565b610308565b6102ff565b9050919050565b5f819050919050565b61034483610311565b61035861035082610332565b8484546102ae565b825550505050565b5f90565b61036c610360565b61037781848461033b565b505050565b5b8181101561039a5761038f5f82610364565b60018101905061037d565b5050565b601f8211156103df576103b081610281565b6103b984610293565b810160208510156103c8578190505b6103dc6103d485610293565b83018261037c565b50505b505050565b5f82821c905092915050565b5f6103ff5f19846008026103e4565b1980831691505092915050565b5f61041783836103f0565b9150826002028217905092915050565b6104308261021a565b67ffffffffffffffff81111561044957610448610080565b5b6104538254610251565b61045e82828561039e565b5f60209050601f83116001811461048f575f841561047d578287015190505b610487858261040c565b8655506104ee565b601f19841661049d86610281565b5f5b828110156104c45784890151825560018201915060208501945060208101905061049f565b868310156104e157848901516104dd601f8916826103f0565b8355505b6001600288020188555050505b505050505050565b61265e806105035f395ff3fe608060405234801561000f575f80fd5b506004361061009b575f3560e01c80634e1273f4116100645780634e1273f41461016957806395d89b4114610199578063a22cb465146101b7578063e985e9c5146101d3578063f242432a146102035761009b565b8062fdd58e1461009f57806301ffc9a7146100cf57806306fdde03146100ff5780630e89341c1461011d5780632eb2c2d61461014d575b5f80fd5b6100b960048036038101906100b49190611493565b61021f565b6040516100c691906114e0565b60405180910390f35b6100e960048036038101906100e4919061154e565b6102e3565b6040516100f69190611593565b60405180910390f35b61010761041c565b604051610114919061161c565b60405180910390f35b6101376004803603810190610132919061163c565b6104a7565b604051610144919061161c565b60405180910390f35b61016760048036038101906101629190611857565b610503565b005b610183600480360381019061017e91906119e2565b61086a565b6040516101909190611b0f565b60405180910390f35b6101a161097b565b6040516101ae919061161c565b60405180910390f35b6101d160048036038101906101cc9190611b59565b610a07565b005b6101ed60048036038101906101e89190611b97565b610b6d565b6040516101fa9190611593565b60405180910390f35b61021d60048036038101906102189190611bd5565b610bfb565b005b5f8073ffffffffffffffffffffffffffffffffffffffff168373ffffffffffffffffffffffffffffffffffffffff160361028e576040517f08c379a000000000000000000000000000000000000000000000000000000000815260040161028590611cd8565b60405180910390fd5b60025f8381526020019081526020015f205f8473ffffffffffffffffffffffffffffffffffffffff1673ffffffffffffffffffffffffffffffffffffffff1681526020019081526020015f2054905092915050565b5f7fd9b67a26000000000000000000000000000000000000000000000000000000007bffffffffffffffffffffffffffffffffffffffffffffffffffffffff1916827bffffffffffffffffffffffffffffffffffffffffffffffffffffffff191614806103ad57507f0e89341c000000000000000000000000000000000000000000000000000000007bffffffffffffffffffffffffffffffffffffffffffffffffffffffff1916827bffffffffffffffffffffffffffffffffffffffffffffffffffffffff1916145b8061041557507f01ffc9a7000000000000000000000000000000000000000000000000000000007bffffffffffffffffffffffffffffffffffffffffffffffffffffffff1916827bffffffffffffffffffffffffffffffffffffffffffffffffffffffff1916145b9050919050565b5f805461042890611d23565b80601f016020809104026020016040519081016040528092919081815260200182805461045490611d23565b801561049f5780601f106104765761010080835404028352916020019161049f565b820191905f5260205f20905b81548152906001019060200180831161048257829003601f168201915b505050505081565b60605f6104b2610ec9565b90505f8151116104d05760405180602001604052805f8152506104fb565b806104da84610edf565b6040516020016104eb929190611d8d565b6040516020818303038152906040525b915050919050565b5f3390508073ffffffffffffffffffffffffffffffffffffffff168673ffffffffffffffffffffffffffffffffffffffff16148061054757506105468682610b6d565b5b610586576040517f08c379a000000000000000000000000000000000000000000000000000000000815260040161057d90611e20565b60405180910390fd5b82518451146105ca576040517f08c379a00000000000000000000000000000000000000000000000000000000081526004016105c190611eae565b60405180910390fd5b5f73ffffffffffffffffffffffffffffffffffffffff168573ffffffffffffffffffffffffffffffffffffffff1603610638576040517f08c379a000000000000000000000000000000000000000000000000000000000815260040161062f90611f3c565b60405180910390fd5b5f5b84518110156107d5575f85828151811061065757610656611f5a565b5b602002602001015190505f85838151811061067557610674611f5a565b5b602002602001015190505f60025f8481526020019081526020015f205f8b73ffffffffffffffffffffffffffffffffffffffff1673ffffffffffffffffffffffffffffffffffffffff1681526020019081526020015f2054905081811015610712576040517f08c379a000000000000000000000000000000000000000000000000000000000815260040161070990611ff7565b60405180910390fd5b81810360025f8581526020019081526020015f205f8c73ffffffffffffffffffffffffffffffffffffffff1673ffffffffffffffffffffffffffffffffffffffff1681526020019081526020015f20819055508160025f8581526020019081526020015f205f8b73ffffffffffffffffffffffffffffffffffffffff1673ffffffffffffffffffffffffffffffffffffffff1681526020019081526020015f205f8282546107c09190612042565b9250508190555050505080600101905061063a565b508473ffffffffffffffffffffffffffffffffffffffff168673ffffffffffffffffffffffffffffffffffffffff168273ffffffffffffffffffffffffffffffffffffffff167f4a39dc06d4c0dbc64b70af90fd698a233a518aa5d07e595d983b8c0526c8f7fb878760405161084c929190612075565b60405180910390a4610862818787878787611038565b505050505050565b606081518351146108b0576040517f08c379a00000000000000000000000000000000000000000000000000000000081526004016108a79061211a565b60405180910390fd5b5f835167ffffffffffffffff8111156108cc576108cb61166b565b5b6040519080825280602002602001820160405280156108fa5781602001602082028036833780820191505090505b5090505f5b84518110156109705761094685828151811061091e5761091d611f5a565b5b602002602001015185838151811061093957610938611f5a565b5b602002602001015161021f565b82828151811061095957610958611f5a565b5b6020026020010181815250508060010190506108ff565b508091505092915050565b6001805461098890611d23565b80601f01602080910402602001604051908101604052809291908181526020018280546109b490611d23565b80156109ff5780601f106109d6576101008083540402835291602001916109ff565b820191905f5260205f20905b8154815290600101906020018083116109e257829003601f168201915b505050505081565b8173ffffffffffffffffffffffffffffffffffffffff163373ffffffffffffffffffffffffffffffffffffffff1603610a75576040517f08c379a0000000000000000000000000000000000000000000000000000000008152600401610a6c906121a8565b60405180910390fd5b8060035f3373ffffffffffffffffffffffffffffffffffffffff1673ffffffffffffffffffffffffffffffffffffffff1681526020019081526020015f205f8473ffffffffffffffffffffffffffffffffffffffff1673ffffffffffffffffffffffffffffffffffffffff1681526020019081526020015f205f6101000a81548160ff0219169083151502179055508173ffffffffffffffffffffffffffffffffffffffff163373ffffffffffffffffffffffffffffffffffffffff167f17307eab39ab6107e8899845ad3d59bd9653f200f220920489ca2b5937696c3183604051610b619190611593565b60405180910390a35050565b5f60035f8473ffffffffffffffffffffffffffffffffffffffff1673ffffffffffffffffffffffffffffffffffffffff1681526020019081526020015f205f8373ffffffffffffffffffffffffffffffffffffffff1673ffffffffffffffffffffffffffffffffffffffff1681526020019081526020015f205f9054906101000a900460ff16905092915050565b5f3390508073ffffffffffffffffffffffffffffffffffffffff168673ffffffffffffffffffffffffffffffffffffffff161480610c3f5750610c3e8682610b6d565b5b610c7e576040517f08c379a0000000000000000000000000000000000000000000000000000000008152600401610c7590611e20565b60405180910390fd5b5f73ffffffffffffffffffffffffffffffffffffffff168573ffffffffffffffffffffffffffffffffffffffff1603610cec576040517f08c379a0000000000000000000000000000000000000000000000000000000008152600401610ce390611f3c565b60405180910390fd5b5f60025f8681526020019081526020015f205f8873ffffffffffffffffffffffffffffffffffffffff1673ffffffffffffffffffffffffffffffffffffffff1681526020019081526020015f2054905083811015610d7f576040517f08c379a0000000000000000000000000000000000000000000000000000000008152600401610d7690611ff7565b60405180910390fd5b83810360025f8781526020019081526020015f205f8973ffffffffffffffffffffffffffffffffffffffff1673ffffffffffffffffffffffffffffffffffffffff1681526020019081526020015f20819055508360025f8781526020019081526020015f205f8873ffffffffffffffffffffffffffffffffffffffff1673ffffffffffffffffffffffffffffffffffffffff1681526020019081526020015f205f828254610e2d9190612042565b925050819055508573ffffffffffffffffffffffffffffffffffffffff168773ffffffffffffffffffffffffffffffffffffffff168373ffffffffffffffffffffffffffffffffffffffff167fc3d58168c5ae7397731d063d5bbf3d657854427343f4c083240f7aacaa2d0f628888604051610eaa9291906121c6565b60405180910390a4610ec082888888888861120e565b50505050505050565b606060405180602001604052805f815250905090565b60605f8203610f25576040518060400160405280600181526020017f30000000000000000000000000000000000000000000000000000000000000008152509050611033565b5f8290505f5b5f8214610f54578080610f3d906121ed565b915050600a82610f4d9190612261565b9150610f2b565b5f8167ffffffffffffffff811115610f6f57610f6e61166b565b5b6040519080825280601f01601f191660200182016040528015610fa15781602001600182028036833780820191505090505b5090505b5f851461102c57600182610fb99190612291565b9150600a85610fc891906122c4565b6030610fd49190612042565b60f81b818381518110610fea57610fe9611f5a565b5b60200101907effffffffffffffffffffffffffffffffffffffffffffffffffffffffffffff191690815f1a905350600a856110259190612261565b9450610fa5565b8093505050505b919050565b6110578473ffffffffffffffffffffffffffffffffffffffff166113e4565b15611206578373ffffffffffffffffffffffffffffffffffffffff1663bc197c8187878686866040518663ffffffff1660e01b815260040161109d959493929190612355565b6020604051808303815f875af19250505080156110d857506040513d601f19601f820116820180604052508101906110d591906123cf565b60015b61117d576110e4612406565b806308c379a00361114057506110f8612425565b806111035750611142565b806040517f08c379a0000000000000000000000000000000000000000000000000000000008152600401611137919061161c565b60405180910390fd5b505b6040517f08c379a000000000000000000000000000000000000000000000000000000000815260040161117490612524565b60405180910390fd5b63bc197c8160e01b7bffffffffffffffffffffffffffffffffffffffffffffffffffffffff1916817bffffffffffffffffffffffffffffffffffffffffffffffffffffffff191614611204576040517f08c379a00000000000000000000000000000000000000000000000000000000081526004016111fb906125b2565b60405180910390fd5b505b505050505050565b61122d8473ffffffffffffffffffffffffffffffffffffffff166113e4565b156113dc578373ffffffffffffffffffffffffffffffffffffffff1663f23a6e6187878686866040518663ffffffff1660e01b81526004016112739594939291906125d0565b6020604051808303815f875af19250505080156112ae57506040513d601f19601f820116820180604052508101906112ab91906123cf565b60015b611353576112ba612406565b806308c379a00361131657506112ce612425565b806112d95750611318565b806040517f08c379a000000000000000000000000000000000000000000000000000000000815260040161130d919061161c565b60405180910390fd5b505b6040517f08c379a000000000000000000000000000000000000000000000000000000000815260040161134a90612524565b60405180910390fd5b63f23a6e6160e01b7bffffffffffffffffffffffffffffffffffffffffffffffffffffffff1916817bffffffffffffffffffffffffffffffffffffffffffffffffffffffff1916146113da576040517f08c379a00000000000000000000000000000000000000000000000000000000081526004016113d1906125b2565b60405180910390fd5b505b505050505050565b5f80823b90505f8111915050919050565b5f604051905090565b5f80fd5b5f80fd5b5f73ffffffffffffffffffffffffffffffffffffffff82169050919050565b5f61142f82611406565b9050919050565b61143f81611425565b8114611449575f80fd5b50565b5f8135905061145a81611436565b92915050565b5f819050919050565b61147281611460565b811461147c575f80fd5b50565b5f8135905061148d81611469565b92915050565b5f80604083850312156114a9576114a86113fe565b5b5f6114b68582860161144c565b92505060206114c78582860161147f565b9150509250929050565b6114da81611460565b82525050565b5f6020820190506114f35f8301846114d1565b92915050565b5f7fffffffff0000000000000000000000000000000000000000000000000000000082169050919050565b61152d816114f9565b8114611537575f80fd5b50565b5f8135905061154881611524565b92915050565b5f60208284031215611563576115626113fe565b5b5f6115708482850161153a565b91505092915050565b5f8115159050919050565b61158d81611579565b82525050565b5f6020820190506115a65f830184611584565b92915050565b5f81519050919050565b5f82825260208201905092915050565b8281835e5f83830152505050565b5f601f19601f8301169050919050565b5f6115ee826115ac565b6115f881856115b6565b93506116088185602086016115c6565b611611816115d4565b840191505092915050565b5f6020820190508181035f83015261163481846115e4565b905092915050565b5f60208284031215611651576116506113fe565b5b5f61165e8482850161147f565b91505092915050565b5f80fd5b7f4e487b71000000000000000000000000000000000000000000000000000000005f52604160045260245ffd5b6116a1826115d4565b810181811067ffffffffffffffff821117156116c0576116bf61166b565b5b80604052505050565b5f6116d26113f5565b90506116de8282611698565b919050565b5f67ffffffffffffffff8211156116fd576116fc61166b565b5b602082029050602081019050919050565b5f80fd5b5f61172461171f846116e3565b6116c9565b905080838252602082019050602084028301858111156117475761174661170e565b5b835b81811015611770578061175c888261147f565b845260208401935050602081019050611749565b5050509392505050565b5f82601f83011261178e5761178d611667565b5b813561179e848260208601611712565b91505092915050565b5f80fd5b5f67ffffffffffffffff8211156117c5576117c461166b565b5b6117ce826115d4565b9050602081019050919050565b828183375f83830152505050565b5f6117fb6117f6846117ab565b6116c9565b905082815260208101848484011115611817576118166117a7565b5b6118228482856117db565b509392505050565b5f82601f83011261183e5761183d611667565b5b813561184e8482602086016117e9565b91505092915050565b5f805f805f60a086880312156118705761186f6113fe565b5b5f61187d8882890161144c565b955050602061188e8882890161144c565b945050604086013567ffffffffffffffff8111156118af576118ae611402565b5b6118bb8882890161177a565b935050606086013567ffffffffffffffff8111156118dc576118db611402565b5b6118e88882890161177a565b925050608086013567ffffffffffffffff81111561190957611908611402565b5b6119158882890161182a565b9150509295509295909350565b5f67ffffffffffffffff82111561193c5761193b61166b565b5b602082029050602081019050919050565b5f61195f61195a84611922565b6116c9565b905080838252602082019050602084028301858111156119825761198161170e565b5b835b818110156119ab5780611997888261144c565b845260208401935050602081019050611984565b5050509392505050565b5f82601f8301126119c9576119c8611667565b5b81356119d984826020860161194d565b91505092915050565b5f80604083850312156119f8576119f76113fe565b5b5f83013567ffffffffffffffff811115611a1557611a14611402565b5b611a21858286016119b5565b925050602083013567ffffffffffffffff811115611a4257611a41611402565b5b611a4e8582860161177a565b9150509250929050565b5f81519050919050565b5f82825260208201905092915050565b5f819050602082019050919050565b611a8a81611460565b82525050565b5f611a9b8383611a81565b60208301905092915050565b5f602082019050919050565b5f611abd82611a58565b611ac78185611a62565b9350611ad283611a72565b805f5b83811015611b02578151611ae98882611a90565b9750611af483611aa7565b925050600181019050611ad5565b5085935050505092915050565b5f6020820190508181035f830152611b278184611ab3565b905092915050565b611b3881611579565b8114611b42575f80fd5b50565b5f81359050611b5381611b2f565b92915050565b5f8060408385031215611b6f57611b6e6113fe565b5b5f611b7c8582860161144c565b9250506020611b8d85828601611b45565b9150509250929050565b5f8060408385031215611bad57611bac6113fe565b5b5f611bba8582860161144c565b9250506020611bcb8582860161144c565b9150509250929050565b5f805f805f60a08688031215611bee57611bed6113fe565b5b5f611bfb8882890161144c565b9550506020611c0c8882890161144c565b9450506040611c1d8882890161147f565b9350506060611c2e8882890161147f565b925050608086013567ffffffffffffffff811115611c4f57611c4e611402565b5b611c5b8882890161182a565b9150509295509295909350565b7f455243313135353a2061646472657373207a65726f206973206e6f74206120765f8201527f616c6964206f776e657200000000000000000000000000000000000000000000602082015250565b5f611cc2602a836115b6565b9150611ccd82611c68565b604082019050919050565b5f6020820190508181035f830152611cef81611cb6565b9050919050565b7f4e487b71000000000000000000000000000000000000000000000000000000005f52602260045260245ffd5b5f6002820490506001821680611d3a57607f821691505b602082108103611d4d57611d4c611cf6565b5b50919050565b5f81905092915050565b5f611d67826115ac565b611d718185611d53565b9350611d818185602086016115c6565b80840191505092915050565b5f611d988285611d5d565b9150611da48284611d5d565b91508190509392505050565b7f455243313135353a2063616c6c6572206973206e6f7420746f6b656e206f776e5f8201527f6572206e6f7220617070726f7665640000000000000000000000000000000000602082015250565b5f611e0a602f836115b6565b9150611e1582611db0565b604082019050919050565b5f6020820190508181035f830152611e3781611dfe565b9050919050565b7f455243313135353a2069647320616e6420616d6f756e7473206c656e677468205f8201527f6d69736d61746368000000000000000000000000000000000000000000000000602082015250565b5f611e986028836115b6565b9150611ea382611e3e565b604082019050919050565b5f6020820190508181035f830152611ec581611e8c565b9050919050565b7f455243313135353a207472616e7366657220746f20746865207a65726f2061645f8201527f6472657373000000000000000000000000000000000000000000000000000000602082015250565b5f611f266025836115b6565b9150611f3182611ecc565b604082019050919050565b5f6020820190508181035f830152611f5381611f1a565b9050919050565b7f4e487b71000000000000000000000000000000000000000000000000000000005f52603260045260245ffd5b7f455243313135353a20696e73756666696369656e742062616c616e636520666f5f8201527f72207472616e7366657200000000000000000000000000000000000000000000602082015250565b5f611fe1602a836115b6565b9150611fec82611f87565b604082019050919050565b5f6020820190508181035f83015261200e81611fd5565b9050919050565b7f4e487b71000000000000000000000000000000000000000000000000000000005f52601160045260245ffd5b5f61204c82611460565b915061205783611460565b925082820190508082111561206f5761206e612015565b5b92915050565b5f6040820190508181035f83015261208d8185611ab3565b905081810360208301526120a18184611ab3565b90509392505050565b7f455243313135353a206163636f756e747320616e6420696473206c656e6774685f8201527f206d69736d617463680000000000000000000000000000000000000000000000602082015250565b5f6121046029836115b6565b915061210f826120aa565b604082019050919050565b5f6020820190508181035f830152612131816120f8565b9050919050565b7f455243313135353a2073657474696e6720617070726f76616c207374617475735f8201527f20666f722073656c660000000000000000000000000000000000000000000000602082015250565b5f6121926029836115b6565b915061219d82612138565b604082019050919050565b5f6020820190508181035f8301526121bf81612186565b9050919050565b5f6040820190506121d95f8301856114d1565b6121e660208301846114d1565b9392505050565b5f6121f782611460565b91507fffffffffffffffffffffffffffffffffffffffffffffffffffffffffffffffff820361222957612228612015565b5b600182019050919050565b7f4e487b71000000000000000000000000000000000000000000000000000000005f52601260045260245ffd5b5f61226b82611460565b915061227683611460565b92508261228657612285612234565b5b828204905092915050565b5f61229b82611460565b91506122a683611460565b92508282039050818111156122be576122bd612015565b5b92915050565b5f6122ce82611460565b91506122d983611460565b9250826122e9576122e8612234565b5b828206905092915050565b6122fd81611425565b82525050565b5f81519050919050565b5f82825260208201905092915050565b5f61232782612303565b612331818561230d565b93506123418185602086016115c6565b61234a816115d4565b840191505092915050565b5f60a0820190506123685f8301886122f4565b61237560208301876122f4565b81810360408301526123878186611ab3565b9050818103606083015261239b8185611ab3565b905081810360808301526123af818461231d565b90509695505050505050565b5f815190506123c981611524565b92915050565b5f602082840312156123e4576123e36113fe565b5b5f6123f1848285016123bb565b91505092915050565b5f8160e01c9050919050565b5f60033d11156124225760045f803e61241f5f516123fa565b90505b90565b5f60443d106124b1576124366113f5565b60043d036004823e80513d602482011167ffffffffffffffff8211171561245e5750506124b1565b808201805167ffffffffffffffff81111561247c57505050506124b1565b80602083010160043d0385018111156124995750505050506124b1565b6124a882602001850186611698565b82955050505050505b90565b7f455243313135353a207472616e7366657220746f206e6f6e2d455243313135355f8201527f526563656976657220696d706c656d656e746572000000000000000000000000602082015250565b5f61250e6034836115b6565b9150612519826124b4565b604082019050919050565b5f6020820190508181035f83015261253b81612502565b9050919050565b7f455243313135353a204552433131353552656365697665722072656a656374655f8201527f6420746f6b656e73000000000000000000000000000000000000000000000000602082015250565b5f61259c6028836115b6565b91506125a782612542565b604082019050919050565b5f6020820190508181035f8301526125c981612590565b9050919050565b5f60a0820190506125e35f8301886122f4565b6125f060208301876122f4565b6125fd60408301866114d1565b61260a60608301856114d1565b818103608083015261261c818461231d565b9050969550505050505056fea26469706673582212203b776fe27768f497cada6f4e1d770938105589aa1ec47cd79cdec102afa0cf4664736f6c634300081a0033",
					"opcodes": "PUSH1 0x80 PUSH1 0x40 MSTORE CALLVALUE DUP1 ISZERO PUSH2 0xF JUMPI PUSH0 DUP1 REVERT JUMPDEST POP PUSH1 0x40 MLOAD PUSH2 0x2B61 CODESIZE SUB DUP1 PUSH2 0x2B61 DUP4 CODECOPY DUP2 DUP2 ADD PUSH1 0x40 MSTORE DUP2 ADD SWAP1 PUSH2 0x31 SWAP2 SWAP1 PUSH2 0x1A4 JUMP JUMPDEST DUP2 PUSH0 SWAP1 DUP2 PUSH2 0x3F SWAP2 SWAP1 PUSH2 0x427 JUMP JUMPDEST POP DUP1 PUSH1 0x1 SWAP1 DUP2 PUSH2 0x4F SWAP2 SWAP1 PUSH2 0x427 JUMP JUMPDEST POP POP POP PUSH2 0x4F6 JUMP JUMPDEST PUSH0 PUSH1 0x40 MLOAD SWAP1 POP SWAP1 JUMP JUMPDEST PUSH0 DUP1 REVERT JUMPDEST PUSH0 DUP1 REVERT JUMPDEST PUSH0 DUP1 REVERT JUMPDEST PUSH0 DUP1 REVERT JUMPDEST PUSH0 PUSH1 0x1F NOT PUSH1 0x1F DUP4 ADD AND SWAP1 POP SWAP2 SWAP1 POP JUMP JUMPDEST PUSH32 0x4E487B7100000000000000000000000000000000000000000000000000000000 PUSH0 MSTORE PUSH1 0x41 PUSH1 0x4 MSTORE PUSH1 0x24 PUSH0 REVERT JUMPDEST PUSH2 0xB6 DUP3 PUSH2 0x70 JUMP JUMPDEST DUP2 ADD DUP2 DUP2 LT PUSH8 0xFFFFFFFFFFFFFFFF DUP3 GT OR ISZERO PUSH2 0xD5 JUMPI PUSH2 0xD4 PUSH2 0x80 JUMP JUMPDEST JUMPDEST DUP1 PUSH1 0x40 MSTORE POP POP POP JUMP JUMPDEST PUSH0 PUSH2 0xE7 PUSH2 0x57 JUMP JUMPDEST SWAP1 POP PUSH2 0xF3 DUP3 DUP3 PUSH2 0xAD JUMP JUMPDEST SWAP2 SWAP1 POP JUMP JUMPDEST PUSH0 PUSH8 0xFFFFFFFFFFFFFFFF DUP3 GT ISZERO PUSH2 0x112 JUMPI PUSH2 0x111 PUSH2 0x80 JUMP JUMPDEST JUMPDEST PUSH2 0x11B DUP3 PUSH2 0x70 JUMP JUMPDEST SWAP1 POP PUSH1 0x20 DUP2 ADD SWAP1 POP SWAP2 SWAP1 POP JUMP JUMPDEST DUP3 DUP2 DUP4 MCOPY PUSH0 DUP4 DUP4 ADD MSTORE POP POP POP JUMP JUMPDEST PUSH0 PUSH2 0x148 PUSH2 0x143 DUP5 PUSH2 0xF8 JUMP JUMPDEST PUSH2 0xDE JUMP JUMPDEST SWAP1 POP DUP3 DUP2 MSTORE PUSH1 0x20 DUP2 ADD DUP5 DUP5 DUP5 ADD GT ISZERO PUSH2 0x164 JUMPI PUSH2 0x163 PUSH2 0x6C JUMP JUMPDEST JUMPDEST PUSH2 0x16F DUP5 DUP3 DUP6 PUSH2 0x128 JUMP JUMPDEST POP SWAP4 SWAP3 POP POP POP JUMP JUMPDEST PUSH0 DUP3 PUSH1 0x1F DUP4 ADD SLT PUSH2 0x18B JUMPI PUSH2 0x18A PUSH2 0x68 JUMP JUMPDEST JUMPDEST DUP2 MLOAD PUSH2 0x19B DUP5 DUP3 PUSH1 0x20 DUP7 ADD PUSH2 0x136 JUMP JUMPDEST SWAP2 POP POP SWAP3 SWAP2 POP POP JUMP JUMPDEST PUSH0 DUP1 PUSH1 0x40 DUP4 DUP6 SUB SLT ISZERO PUSH2 0x1BA JUMPI PUSH2 0x1B9 PUSH2 0x60 JUMP JUMPDEST JUMPDEST PUSH0 DUP4 ADD MLOAD PUSH8 0xFFFFFFFFFFFFFFFF DUP2 GT ISZERO PUSH2 0x1D7 JUMPI PUSH2 0x1D6 PUSH2 0x64 JUMP JUMPDEST JUMPDEST PUSH2 0x1E3 DUP6 DUP3 DUP7 ADD PUSH2 0x177 JUMP JUMPDEST SWAP3 POP POP PUSH1 0x20 DUP4 ADD MLOAD PUSH8 0xFFFFFFFFFFFFFFFF DUP2 GT ISZERO PUSH2 0x204 JUMPI PUSH2 0x203 PUSH2 0x64 JUMP JUMPDEST JUMPDEST PUSH2 0x210 DUP6 DUP3 DUP7 ADD PUSH2 0x177 JUMP JUMPDEST SWAP2 POP POP SWAP3 POP SWAP3 SWAP1 POP JUMP JUMPDEST PUSH0 DUP2 MLOAD SWAP1 POP SWAP2 SWAP1 POP JUMP JUMPDEST PUSH32 0x4E487B7100000000000000000000000000000000000000000000000000000000 PUSH0 MSTORE PUSH1 0x22 PUSH1 0x4 MSTORE PUSH1 0x24 PUSH0 REVERT JUMPDEST PUSH0 PUSH1 0x2 DUP3 DIV SWAP1 POP PUSH1 0x1 DUP3 AND DUP1 PUSH2 0x268 JUMPI PUSH1 0x7F DUP3 AND SWAP2 POP JUMPDEST PUSH1 0x20 DUP3 LT DUP2 SUB PUSH2 0x27B JUMPI PUSH2 0x27A PUSH2 0x224 JUMP JUMPDEST JUMPDEST POP SWAP2 SWAP1 POP JUMP JUMPDEST PUSH0 DUP2 SWAP1 POP DUP2 PUSH0 MSTORE PUSH1 0x20 PUSH0 KECCAK256 SWAP1 POP SWAP2 SWAP1 POP JUMP JUMPDEST PUSH0 PUSH1 0x20 PUSH1 0x1F DUP4 ADD DIV SWAP1 POP SWAP2 SWAP1 POP JUMP JUMPDEST PUSH0 DUP3 DUP3 SHL SWAP1 POP SWAP3 SWAP2 POP POP JUMP JUMPDEST PUSH0 PUSH1 0x8 DUP4 MUL PUSH2 0x2DD PUSH32 0xFFFFFFFFFFFFFFFFFFFFFFFFFFFFFFFFFFFFFFFFFFFFFFFFFFFFFFFFFFFFFFFF DUP3 PUSH2 0x2A2 JUMP JUMPDEST PUSH2 0x2E7 DUP7 DUP4 PUSH2 0x2A2 JUMP JUMPDEST SWAP6 POP DUP1 NOT DUP5 AND SWAP4 POP DUP1 DUP7 AND DUP5 OR SWAP3 POP POP POP SWAP4 SWAP3 POP POP POP JUMP JUMPDEST PUSH0 DUP2 SWAP1 POP SWAP2 SWAP1 POP JUMP JUMPDEST PUSH0 DUP2 SWAP1 POP SWAP2 SWAP1 POP JUMP JUMPDEST PUSH0 PUSH2 0x32B PUSH2 0x326 PUSH2 0x321 DUP5 PUSH2 0x2FF JUMP JUMPDEST PUSH2 0x308 JUMP JUMPDEST PUSH2 0x2FF JUMP JUMPDEST SWAP1 POP SWAP2 SWAP1 POP JUMP JUMPDEST PUSH0 DUP2 SWAP1 POP SWAP2 SWAP1 POP JUMP JUMPDEST PUSH2 0x344 DUP4 PUSH2 0x311 JUMP JUMPDEST PUSH2 0x358 PUSH2 0x350 DUP3 PUSH2 0x332 JUMP JUMPDEST DUP5 DUP5 SLOAD PUSH2 0x2AE JUMP JUMPDEST DUP3 SSTORE POP POP POP POP JUMP JUMPDEST PUSH0 SWAP1 JUMP JUMPDEST PUSH2 0x36C PUSH2 0x360 JUMP JUMPDEST PUSH2 0x377 DUP2 DUP5 DUP5 PUSH2 0x33B JUMP JUMPDEST POP POP POP JUMP JUMPDEST JUMPDEST DUP2 DUP2 LT ISZERO PUSH2 0x39A JUMPI PUSH2 0x38F PUSH0 DUP3 PUSH2 0x364 JUMP JUMPDEST PUSH1 0x1 DUP2 ADD SWAP1 POP PUSH2 0x37D JUMP JUMPDEST POP POP JUMP JUMPDEST PUSH1 0x1F DUP3 GT ISZERO PUSH2 0x3DF JUMPI PUSH2 0x3B0 DUP2 PUSH2 0x281 JUMP JUMPDEST PUSH2 0x3B9 DUP5 PUSH2 0x293 JUMP JUMPDEST DUP2 ADD PUSH1 0x20 DUP6 LT ISZERO PUSH2 0x3C8 JUMPI DUP2 SWAP1 POP JUMPDEST PUSH2 0x3DC PUSH2 0x3D4 DUP6 PUSH2 0x293 JUMP JUMPDEST DUP4 ADD DUP3 PUSH2 0x37C JUMP JUMPDEST POP POP JUMPDEST POP POP POP JUMP JUMPDEST PUSH0 DUP3 DUP3 SHR SWAP1 POP SWAP3 SWAP2 POP POP JUMP JUMPDEST PUSH0 PUSH2 0x3FF PUSH0 NOT DUP5 PUSH1 0x8 MUL PUSH2 0x3E4 JUMP JUMPDEST NOT DUP1 DUP4 AND SWAP2 POP POP SWAP3 SWAP2 POP POP JUMP JUMPDEST PUSH0 PUSH2 0x417 DUP4 DUP4 PUSH2 0x3F0 JUMP JUMPDEST SWAP2 POP DUP3 PUSH1 0x2 MUL DUP3 OR SWAP1 POP SWAP3 SWAP2 POP POP JUMP JUMPDEST PUSH2 0x430 DUP3 PUSH2 0x21A JUMP JUMPDEST PUSH8 0xFFFFFFFFFFFFFFFF DUP2 GT ISZERO PUSH2 0x449 JUMPI PUSH2 0x448 PUSH2 0x80 JUMP JUMPDEST JUMPDEST PUSH2 0x453 DUP3 SLOAD PUSH2 0x251 JUMP JUMPDEST PUSH2 0x45E DUP3 DUP3 DUP6 PUSH2 0x39E JUMP JUMPDEST PUSH0 PUSH1 0x20 SWAP1 POP PUSH1 0x1F DUP4 GT PUSH1 0x1 DUP2 EQ PUSH2 0x48F JUMPI PUSH0 DUP5 ISZERO PUSH2 0x47D JUMPI DUP3 DUP8 ADD MLOAD SWAP1 POP JUMPDEST PUSH2 0x487 DUP6 DUP3 PUSH2 0x40C JUMP JUMPDEST DUP7 SSTORE POP PUSH2 0x4EE JUMP JUMPDEST PUSH1 0x1F NOT DUP5 AND PUSH2 0x49D DUP7 PUSH2 0x281 JUMP JUMPDEST PUSH0 JUMPDEST DUP3 DUP2 LT ISZERO PUSH2 0x4C4 JUMPI DUP5 DUP10 ADD MLOAD DUP3 SSTORE PUSH1 0x1 DUP3 ADD SWAP2 POP PUSH1 0x20 DUP6 ADD SWAP5 POP PUSH1 0x20 DUP2 ADD SWAP1 POP PUSH2 0x49F JUMP JUMPDEST DUP7 DUP4 LT ISZERO PUSH2 0x4E1 JUMPI DUP5 DUP10 ADD MLOAD PUSH2 0x4DD PUSH1 0x1F DUP10 AND DUP3 PUSH2 0x3F0 JUMP JUMPDEST DUP4 SSTORE POP JUMPDEST PUSH1 0x1 PUSH1 0x2 DUP9 MUL ADD DUP9 SSTORE POP POP POP JUMPDEST POP POP POP POP POP POP JUMP JUMPDEST PUSH2 0x265E DUP1 PUSH2 0x503 PUSH0 CODECOPY PUSH0 RETURN INVALID PUSH1 0x80 PUSH1 0x40 MSTORE CALLVALUE DUP1 ISZERO PUSH2 0xF JUMPI PUSH0 DUP1 REVERT JUMPDEST POP PUSH1 0x4 CALLDATASIZE LT PUSH2 0x9B JUMPI PUSH0 CALLDATALOAD PUSH1 0xE0 SHR DUP1 PUSH4 0x4E1273F4 GT PUSH2 0x64 JUMPI DUP1 PUSH4 0x4E1273F4 EQ PUSH2 0x169 JUMPI DUP1 PUSH4 0x95D89B41 EQ PUSH2 0x199 JUMPI DUP1 PUSH4 0xA22CB465 EQ PUSH2 0x1B7 JUMPI DUP1 PUSH4 0xE985E9C5 EQ PUSH2 0x1D3 JUMPI DUP1 PUSH4 0xF242432A EQ PUSH2 0x203 JUMPI PUSH2 0x9B JUMP JUMPDEST DUP1 PUSH3 0xFDD58E EQ PUSH2 0x9F JUMPI DUP1 PUSH4 0x1FFC9A7 EQ PUSH2 0xCF JUMPI DUP1 PUSH4 0x6FDDE03 EQ PUSH2 0xFF JUMPI DUP1 PUSH4 0xE89341C EQ PUSH2 0x11D JUMPI DUP1 PUSH4 0x2EB2C2D6 EQ PUSH2 0x14D JUMPI JUMPDEST PUSH0 DUP1 REVERT JUMPDEST PUSH2 0xB9 PUSH1 0x4 DUP1 CALLDATASIZE SUB DUP2 ADD SWAP1 PUSH2 0xB4 SWAP2 SWAP1 PUSH2 0x1493 JUMP JUMPDEST PUSH2 0x21F JUMP JUMPDEST PUSH1 0x40 MLOAD PUSH2 0xC6 SWAP2 SWAP1 PUSH2 0x14E0 JUMP JUMPDEST PUSH1 0x40 MLOAD DUP1 SWAP2 SUB SWAP1 RETURN JUMPDEST PUSH2 0xE9 PUSH1 0x4 DUP1 CALLDATASIZE SUB DUP2 ADD SWAP1 PUSH2 0xE4 SWAP2 SWAP1 PUSH2 0x154E JUMP JUMPDEST PUSH2 0x2E3 JUMP JUMPDEST PUSH1 0x40 MLOAD PUSH2 0xF6 SWAP2 SWAP1 PUSH2 0x1593 JUMP JUMPDEST PUSH1 0x40 MLOAD DUP1 SWAP2 SUB SWAP1 RETURN JUMPDEST PUSH2 0x107 PUSH2 0x41C JUMP JUMPDEST PUSH1 0x40 MLOAD PUSH2 0x114 SWAP2 SWAP1 PUSH2 0x161C JUMP JUMPDEST PUSH1 0x40 MLOAD DUP1 SWAP2 SUB SWAP1 RETURN JUMPDEST PUSH2 0x137 PUSH1 0x4 DUP1 CALLDATASIZE SUB DUP2 ADD SWAP1 PUSH2 0x132 SWAP2 SWAP1 PUSH2 0x163C JUMP JUMPDEST PUSH2 0x4A7 JUMP JUMPDEST PUSH1 0x40 MLOAD PUSH2 0x144 SWAP2 SWAP1 PUSH2 0x161C JUMP JUMPDEST PUSH1 0x40 MLOAD DUP1 SWAP2 SUB SWAP1 RETURN JUMPDEST PUSH2 0x167 PUSH1 0x4 DUP1 CALLDATASIZE SUB DUP2 ADD SWAP1 PUSH2 0x162 SWAP2 SWAP1 PUSH2 0x1857 JUMP JUMPDEST PUSH2 0x503 JUMP JUMPDEST STOP JUMPDEST PUSH2 0x183 PUSH1 0x4 DUP1 CALLDATASIZE SUB DUP2 ADD SWAP1 PUSH2 0x17E SWAP2 SWAP1 PUSH2 0x19E2 JUMP JUMPDEST PUSH2 0x86A JUMP JUMPDEST PUSH1 0x40 MLOAD PUSH2 0x190 SWAP2 SWAP1 PUSH2 0x1B0F JUMP JUMPDEST PUSH1 0x40 MLOAD DUP1 SWAP2 SUB SWAP1 RETURN JUMPDEST PUSH2 0x1A1 PUSH2 0x97B JUMP JUMPDEST PUSH1 0x40 MLOAD PUSH2 0x1AE SWAP2 SWAP1 PUSH2 0x161C JUMP JUMPDEST PUSH1 0x40 MLOAD DUP1 SWAP2 SUB SWAP1 RETURN JUMPDEST PUSH2 0x1D1 PUSH1 0x4 DUP1 CALLDATASIZE SUB DUP2 ADD SWAP1 PUSH2 0x1CC SWAP2 SWAP1 PUSH2 0x1B59 JUMP JUMPDEST PUSH2 0xA07 JUMP JUMPDEST STOP JUMPDEST PUSH2 0x1ED PUSH1 0x4 DUP1 CALLDATASIZE SUB DUP2 ADD SWAP1 PUSH2 0x1E8 SWAP2 SWAP1 PUSH2 0x1B97 JUMP JUMPDEST PUSH2 0xB6D JUMP JUMPDEST PUSH1 0x40 MLOAD PUSH2 0x1FA SWAP2 SWAP1 PUSH2 0x1593 JUMP JUMPDEST PUSH1 0x40 MLOAD DUP1 SWAP2 SUB SWAP1 RETURN JUMPDEST PUSH2 0x21D PUSH1 0x4 DUP1 CALLDATASIZE SUB DUP2 ADD SWAP1 PUSH2 0x218 SWAP2 SWAP1 PUSH2 0x1BD5 JUMP JUMPDEST PUSH2 0xBFB JUMP JUMPDEST STOP JUMPDEST PUSH0 DUP1 PUSH20 0xFFFFFFFFFFFFFFFFFFFFFFFFFFFFFFFFFFFFFFFF AND DUP4 PUSH20 0xFFFFFFFFFFFFFFFFFFFFFFFFFFFFFFFFFFFFFFFF AND SUB PUSH2 0x28E JUMPI PUSH1 0x40 MLOAD PUSH32 0x8C379A000000000000000000000000000000000000000000000000000000000 DUP2 MSTORE PUSH1 0x4 ADD PUSH2 0x285 SWAP1 PUSH2 0x1CD8 JUMP JUMPDEST PUSH1 0x40 MLOAD DUP1 SWAP2 SUB SWAP1 REVERT JUMPDEST PUSH1 0x2 PUSH0 DUP4 DUP2 MSTORE PUSH1 0x20 ADD SWAP1 DUP2 MSTORE PUSH1 0x20 ADD PUSH0 KECCAK256 PUSH0 DUP5 PUSH20 0xFFFFFFFFFFFFFFFFFFFFFFFFFFFFFFFFFFFFFFFF AND PUSH20 0xFFFFFFFFFFFFFFFFFFFFFFFFFFFFFFFFFFFFFFFF AND DUP2 MSTORE PUSH1 0x20 ADD SWAP1 DUP2 MSTORE PUSH1 0x20 ADD PUSH0 KECCAK256 SLOAD SWAP1 POP SWAP3 SWAP2 POP POP JUMP JUMPDEST PUSH0 PUSH32 0xD9B67A2600000000000000000000000000000000000000000000000000000000 PUSH28 0xFFFFFFFFFFFFFFFFFFFFFFFFFFFFFFFFFFFFFFFFFFFFFFFFFFFFFFFF NOT AND DUP3 PUSH28 0xFFFFFFFFFFFFFFFFFFFFFFFFFFFFFFFFFFFFFFFFFFFFFFFFFFFFFFFF NOT AND EQ DUP1 PUSH2 0x3AD JUMPI POP PUSH32 0xE89341C00000000000000000000000000000000000000000000000000000000 PUSH28 0xFFFFFFFFFFFFFFFFFFFFFFFFFFFFFFFFFFFFFFFFFFFFFFFFFFFFFFFF NOT AND DUP3 PUSH28 0xFFFFFFFFFFFFFFFFFFFFFFFFFFFFFFFFFFFFFFFFFFFFFFFFFFFFFFFF NOT AND EQ JUMPDEST DUP1 PUSH2 0x415 JUMPI POP PUSH32 0x1FFC9A700000000000000000000000000000000000000000000000000000000 PUSH28 0xFFFFFFFFFFFFFFFFFFFFFFFFFFFFFFFFFFFFFFFFFFFFFFFFFFFFFFFF NOT AND DUP3 PUSH28 0xFFFFFFFFFFFFFFFFFFFFFFFFFFFFFFFFFFFFFFFFFFFFFFFFFFFFFFFF NOT AND EQ JUMPDEST SWAP1 POP SWAP2 SWAP1 POP JUMP JUMPDEST PUSH0 DUP1 SLOAD PUSH2 0x428 SWAP1 PUSH2 0x1D23 JUMP JUMPDEST DUP1 PUSH1 0x1F ADD PUSH1 0x20 DUP1 SWAP2 DIV MUL PUSH1 0x20 ADD PUSH1 0x40 MLOAD SWAP1 DUP2 ADD PUSH1 0x40 MSTORE DUP1 SWAP3 SWAP2 SWAP1 DUP2 DUP2 MSTORE PUSH1 0x20 ADD DUP3 DUP1 SLOAD PUSH2 0x454 SWAP1 PUSH2 0x1D23 JUMP JUMPDEST DUP1 ISZERO PUSH2 0x49F JUMPI DUP1 PUSH1 0x1F LT PUSH2 0x476 JUMPI PUSH2 0x100 DUP1 DUP4 SLOAD DIV MUL DUP4 MSTORE SWAP2 PUSH1 0x20 ADD SWAP2 PUSH2 0x49F JUMP JUMPDEST DUP3 ADD SWAP2 SWAP1 PUSH0 MSTORE PUSH1 0x20 PUSH0 KECCAK256 SWAP1 JUMPDEST DUP2 SLOAD DUP2 MSTORE SWAP1 PUSH1 0x1 ADD SWAP1 PUSH1 0x20 ADD DUP1 DUP4 GT PUSH2 0x482 JUMPI DUP3 SWAP1 SUB PUSH1 0x1F AND DUP3 ADD SWAP2 JUMPDEST POP POP POP POP POP DUP2 JUMP JUMPDEST PUSH1 0x60 PUSH0 PUSH2 0x4B2 PUSH2 0xEC9 JUMP JUMPDEST SWAP1 POP PUSH0 DUP2 MLOAD GT PUSH2 0x4D0 JUMPI PUSH1 0x40 MLOAD DUP1 PUSH1 0x20 ADD PUSH1 0x40 MSTORE DUP1 PUSH0 DUP2 MSTORE POP PUSH2 0x4FB JUMP JUMPDEST DUP1 PUSH2 0x4DA DUP5 PUSH2 0xEDF JUMP JUMPDEST PUSH1 0x40 MLOAD PUSH1 0x20 ADD PUSH2 0x4EB SWAP3 SWAP2 SWAP1 PUSH2 0x1D8D JUMP JUMPDEST PUSH1 0x40 MLOAD PUSH1 0x20 DUP2 DUP4 SUB SUB DUP2 MSTORE SWAP1 PUSH1 0x40 MSTORE JUMPDEST SWAP2 POP POP SWAP2 SWAP1 POP JUMP JUMPDEST PUSH0 CALLER SWAP1 POP DUP1 PUSH20 0xFFFFFFFFFFFFFFFFFFFFFFFFFFFFFFFFFFFFFFFF AND DUP7 PUSH20 0xFFFFFFFFFFFFFFFFFFFFFFFFFFFFFFFFFFFFFFFF AND EQ DUP1 PUSH2 0x547 JUMPI POP PUSH2 0x546 DUP7 DUP3 PUSH2 0xB6D JUMP JUMPDEST JUMPDEST PUSH2 0x586 JUMPI PUSH1 0x40 MLOAD PUSH32 0x8C379A000000000000000000000000000000000000000000000000000000000 DUP2 MSTORE PUSH1 0x4 ADD PUSH2 0x57D SWAP1 PUSH2 0x1E20 JUMP JUMPDEST PUSH1 0x40 MLOAD DUP1 SWAP2 SUB SWAP1 REVERT JUMPDEST DUP3 MLOAD DUP5 MLOAD EQ PUSH2 0x5CA JUMPI PUSH1 0x40 MLOAD PUSH32 0x8C379A000000000000000000000000000000000000000000000000000000000 DUP2 MSTORE PUSH1 0x4 ADD PUSH2 0x5C1 SWAP1 PUSH2 0x1EAE JUMP JUMPDEST PUSH1 0x40 MLOAD DUP1 SWAP2 SUB SWAP1 REVERT JUMPDEST PUSH0 PUSH20 0xFFFFFFFFFFFFFFFFFFFFFFFFFFFFFFFFFFFFFFFF AND DUP6 PUSH20 0xFFFFFFFFFFFFFFFFFFFFFFFFFFFFFFFFFFFFFFFF AND SUB PUSH2 0x638 JUMPI PUSH1 0x40 MLOAD PUSH32 0x8C379A000000000000000000000000000000000000000000000000000000000 DUP2 MSTORE PUSH1 0x4 ADD PUSH2 0x62F SWAP1 PUSH2 0x1F3C JUMP JUMPDEST PUSH1 0x40 MLOAD DUP1 SWAP2 SUB SWAP1 REVERT JUMPDEST PUSH0 JUMPDEST DUP5 MLOAD DUP2 LT ISZERO PUSH2 0x7D5 JUMPI PUSH0 DUP6 DUP3 DUP2 MLOAD DUP2 LT PUSH2 0x657 JUMPI PUSH2 0x656 PUSH2 0x1F5A JUMP JUMPDEST JUMPDEST PUSH1 0x20 MUL PUSH1 0x20 ADD ADD MLOAD SWAP1 POP PUSH0 DUP6 DUP4 DUP2 MLOAD DUP2 LT PUSH2 0x675 JUMPI PUSH2 0x674 PUSH2 0x1F5A JUMP JUMPDEST JUMPDEST PUSH1 0x20 MUL PUSH1 0x20 ADD ADD MLOAD SWAP1 POP PUSH0 PUSH1 0x2 PUSH0 DUP5 DUP2 MSTORE PUSH1 0x20 ADD SWAP1 DUP2 MSTORE PUSH1 0x20 ADD PUSH0 KECCAK256 PUSH0 DUP12 PUSH20 0xFFFFFFFFFFFFFFFFFFFFFFFFFFFFFFFFFFFFFFFF AND PUSH20 0xFFFFFFFFFFFFFFFFFFFFFFFFFFFFFFFFFFFFFFFF AND DUP2 MSTORE PUSH1 0x20 ADD SWAP1 DUP2 MSTORE PUSH1 0x20 ADD PUSH0 KECCAK256 SLOAD SWAP1 POP DUP2 DUP2 LT ISZERO PUSH2 0x712 JUMPI PUSH1 0x40 MLOAD PUSH32 0x8C379A000000000000000000000000000000000000000000000000000000000 DUP2 MSTORE PUSH1 0x4 ADD PUSH2 0x709 SWAP1 PUSH2 0x1FF7 JUMP JUMPDEST PUSH1 0x40 MLOAD DUP1 SWAP2 SUB SWAP1 REVERT JUMPDEST DUP2 DUP2 SUB PUSH1 0x2 PUSH0 DUP6 DUP2 MSTORE PUSH1 0x20 ADD SWAP1 DUP2 MSTORE PUSH1 0x20 ADD PUSH0 KECCAK256 PUSH0 DUP13 PUSH20 0xFFFFFFFFFFFFFFFFFFFFFFFFFFFFFFFFFFFFFFFF AND PUSH20 0xFFFFFFFFFFFFFFFFFFFFFFFFFFFFFFFFFFFFFFFF AND DUP2 MSTORE PUSH1 0x20 ADD SWAP1 DUP2 MSTORE PUSH1 0x20 ADD PUSH0 KECCAK256 DUP2 SWAP1 SSTORE POP DUP2 PUSH1 0x2 PUSH0 DUP6 DUP2 MSTORE PUSH1 0x20 ADD SWAP1 DUP2 MSTORE PUSH1 0x20 ADD PUSH0 KECCAK256 PUSH0 DUP12 PUSH20 0xFFFFFFFFFFFFFFFFFFFFFFFFFFFFFFFFFFFFFFFF AND PUSH20 0xFFFFFFFFFFFFFFFFFFFFFFFFFFFFFFFFFFFFFFFF AND DUP2 MSTORE PUSH1 0x20 ADD SWAP1 DUP2 MSTORE PUSH1 0x20 ADD PUSH0 KECCAK256 PUSH0 DUP3 DUP3 SLOAD PUSH2 0x7C0 SWAP2 SWAP1 PUSH2 0x2042 JUMP JUMPDEST SWAP3 POP POP DUP2 SWAP1 SSTORE POP POP POP POP DUP1 PUSH1 0x1 ADD SWAP1 POP PUSH2 0x63A JUMP JUMPDEST POP DUP5 PUSH20 0xFFFFFFFFFFFFFFFFFFFFFFFFFFFFFFFFFFFFFFFF AND DUP7 PUSH20 0xFFFFFFFFFFFFFFFFFFFFFFFFFFFFFFFFFFFFFFFF AND DUP3 PUSH20 0xFFFFFFFFFFFFFFFFFFFFFFFFFFFFFFFFFFFFFFFF AND PUSH32 0x4A39DC06D4C0DBC64B70AF90FD698A233A518AA5D07E595D983B8C0526C8F7FB DUP8 DUP8 PUSH1 0x40 MLOAD PUSH2 0x84C SWAP3 SWAP2 SWAP1 PUSH2 0x2075 JUMP JUMPDEST PUSH1 0x40 MLOAD DUP1 SWAP2 SUB SWAP1 LOG4 PUSH2 0x862 DUP2 DUP8 DUP8 DUP8 DUP8 DUP8 PUSH2 0x1038 JUMP JUMPDEST POP POP POP POP POP POP JUMP JUMPDEST PUSH1 0x60 DUP2 MLOAD DUP4 MLOAD EQ PUSH2 0x8B0 JUMPI PUSH1 0x40 MLOAD PUSH32 0x8C379A000000000000000000000000000000000000000000000000000000000 DUP2 MSTORE PUSH1 0x4 ADD PUSH2 0x8A7 SWAP1 PUSH2 0x211A JUMP JUMPDEST PUSH1 0x40 MLOAD DUP1 SWAP2 SUB SWAP1 REVERT JUMPDEST PUSH0 DUP4 MLOAD PUSH8 0xFFFFFFFFFFFFFFFF DUP2 GT ISZERO PUSH2 0x8CC JUMPI PUSH2 0x8CB PUSH2 0x166B JUMP JUMPDEST JUMPDEST PUSH1 0x40 MLOAD SWAP1 DUP1 DUP3 MSTORE DUP1 PUSH1 0x20 MUL PUSH1 0x20 ADD DUP3 ADD PUSH1 0x40 MSTORE DUP1 ISZERO PUSH2 0x8FA JUMPI DUP2 PUSH1 0x20 ADD PUSH1 0x20 DUP3 MUL DUP1 CALLDATASIZE DUP4 CALLDATACOPY DUP1 DUP3 ADD SWAP2 POP POP SWAP1 POP JUMPDEST POP SWAP1 POP PUSH0 JUMPDEST DUP5 MLOAD DUP2 LT ISZERO PUSH2 0x970 JUMPI PUSH2 0x946 DUP6 DUP3 DUP2 MLOAD DUP2 LT PUSH2 0x91E JUMPI PUSH2 0x91D PUSH2 0x1F5A JUMP JUMPDEST JUMPDEST PUSH1 0x20 MUL PUSH1 0x20 ADD ADD MLOAD DUP6 DUP4 DUP2 MLOAD DUP2 LT PUSH2 0x939 JUMPI PUSH2 0x938 PUSH2 0x1F5A JUMP JUMPDEST JUMPDEST PUSH1 0x20 MUL PUSH1 0x20 ADD ADD MLOAD PUSH2 0x21F JUMP JUMPDEST DUP3 DUP3 DUP2 MLOAD DUP2 LT PUSH2 0x959 JUMPI PUSH2 0x958 PUSH2 0x1F5A JUMP JUMPDEST JUMPDEST PUSH1 0x20 MUL PUSH1 0x20 ADD ADD DUP2 DUP2 MSTORE POP POP DUP1 PUSH1 0x1 ADD SWAP1 POP PUSH2 0x8FF JUMP JUMPDEST POP DUP1 SWAP2 POP POP SWAP3 SWAP2 POP POP JUMP JUMPDEST PUSH1 0x1 DUP1 SLOAD PUSH2 0x988 SWAP1 PUSH2 0x1D23 JUMP JUMPDEST DUP1 PUSH1 0x1F ADD PUSH1 0x20 DUP1 SWAP2 DIV MUL PUSH1 0x20 ADD PUSH1 0x40 MLOAD SWAP1 DUP2 ADD PUSH1 0x40 MSTORE DUP1 SWAP3 SWAP2 SWAP1 DUP2 DUP2 MSTORE PUSH1 0x20 ADD DUP3 DUP1 SLOAD PUSH2 0x9B4 SWAP1 PUSH2 0x1D23 JUMP JUMPDEST DUP1 ISZERO PUSH2 0x9FF JUMPI DUP1 PUSH1 0x1F LT PUSH2 0x9D6 JUMPI PUSH2 0x100 DUP1 DUP4 SLOAD DIV MUL DUP4 MSTORE SWAP2 PUSH1 0x20 ADD SWAP2 PUSH2 0x9FF JUMP JUMPDEST DUP3 ADD SWAP2 SWAP1 PUSH0 MSTORE PUSH1 0x20 PUSH0 KECCAK256 SWAP1 JUMPDEST DUP2 SLOAD DUP2 MSTORE SWAP1 PUSH1 0x1 ADD SWAP1 PUSH1 0x20 ADD DUP1 DUP4 GT PUSH2 0x9E2 JUMPI DUP3 SWAP1 SUB PUSH1 0x1F AND DUP3 ADD SWAP2 JUMPDEST POP POP POP POP POP DUP2 JUMP JUMPDEST DUP2 PUSH20 0xFFFFFFFFFFFFFFFFFFFFFFFFFFFFFFFFFFFFFFFF AND CALLER PUSH20 0xFFFFFFFFFFFFFFFFFFFFFFFFFFFFFFFFFFFFFFFF AND SUB PUSH2 0xA75 JUMPI PUSH1 0x40 MLOAD PUSH32 0x8C379A000000000000000000000000000000000000000000000000000000000 DUP2 MSTORE PUSH1 0x4 ADD PUSH2 0xA6C SWAP1 PUSH2 0x21A8 JUMP JUMPDEST PUSH1 0x40 MLOAD DUP1 SWAP2 SUB SWAP1 REVERT JUMPDEST DUP1 PUSH1 0x3 PUSH0 CALLER PUSH20 0xFFFFFFFFFFFFFFFFFFFFFFFFFFFFFFFFFFFFFFFF AND PUSH20 0xFFFFFFFFFFFFFFFFFFFFFFFFFFFFFFFFFFFFFFFF AND DUP2 MSTORE PUSH1 0x20 ADD SWAP1 DUP2 MSTORE PUSH1 0x20 ADD PUSH0 KECCAK256 PUSH0 DUP5 PUSH20 0xFFFFFFFFFFFFFFFFFFFFFFFFFFFFFFFFFFFFFFFF AND PUSH20 0xFFFFFFFFFFFFFFFFFFFFFFFFFFFFFFFFFFFFFFFF AND DUP2 MSTORE PUSH1 0x20 ADD SWAP1 DUP2 MSTORE PUSH1 0x20 ADD PUSH0 KECCAK256 PUSH0 PUSH2 0x100 EXP DUP2 SLOAD DUP2 PUSH1 0xFF MUL NOT AND SWAP1 DUP4 ISZERO ISZERO MUL OR SWAP1 SSTORE POP DUP2 PUSH20 0xFFFFFFFFFFFFFFFFFFFFFFFFFFFFFFFFFFFFFFFF AND CALLER PUSH20 0xFFFFFFFFFFFFFFFFFFFFFFFFFFFFFFFFFFFFFFFF AND PUSH32 0x17307EAB39AB6107E8899845AD3D59BD9653F200F220920489CA2B5937696C31 DUP4 PUSH1 0x40 MLOAD PUSH2 0xB61 SWAP2 SWAP1 PUSH2 0x1593 JUMP JUMPDEST PUSH1 0x40 MLOAD DUP1 SWAP2 SUB SWAP1 LOG3 POP POP JUMP JUMPDEST PUSH0 PUSH1 0x3 PUSH0 DUP5 PUSH20 0xFFFFFFFFFFFFFFFFFFFFFFFFFFFFFFFFFFFFFFFF AND PUSH20 0xFFFFFFFFFFFFFFFFFFFFFFFFFFFFFFFFFFFFFFFF AND DUP2 MSTORE PUSH1 0x20 ADD SWAP1 DUP2 MSTORE PUSH1 0x20 ADD PUSH0 KECCAK256 PUSH0 DUP4 PUSH20 0xFFFFFFFFFFFFFFFFFFFFFFFFFFFFFFFFFFFFFFFF AND PUSH20 0xFFFFFFFFFFFFFFFFFFFFFFFFFFFFFFFFFFFFFFFF AND DUP2 MSTORE PUSH1 0x20 ADD SWAP1 DUP2 MSTORE PUSH1 0x20 ADD PUSH0 KECCAK256 PUSH0 SWAP1 SLOAD SWAP1 PUSH2 0x100 EXP SWAP1 DIV PUSH1 0xFF AND SWAP1 POP SWAP3 SWAP2 POP POP JUMP JUMPDEST PUSH0 CALLER SWAP1 POP DUP1 PUSH20 0xFFFFFFFFFFFFFFFFFFFFFFFFFFFFFFFFFFFFFFFF AND DUP7 PUSH20 0xFFFFFFFFFFFFFFFFFFFFFFFFFFFFFFFFFFFFFFFF AND EQ DUP1 PUSH2 0xC3F JUMPI POP PUSH2 0xC3E DUP7 DUP3 PUSH2 0xB6D JUMP JUMPDEST JUMPDEST PUSH2 0xC7E JUMPI PUSH1 0x40 MLOAD PUSH32 0x8C379A000000000000000000000000000000000000000000000000000000000 DUP2 MSTORE PUSH1 0x4 ADD PUSH2 0xC75 SWAP1 PUSH2 0x1E20 JUMP JUMPDEST PUSH1 0x40 MLOAD DUP1 SWAP2 SUB SWAP1 REVERT JUMPDEST PUSH0 PUSH20 0xFFFFFFFFFFFFFFFFFFFFFFFFFFFFFFFFFFFFFFFF AND DUP6 PUSH20 0xFFFFFFFFFFFFFFFFFFFFFFFFFFFFFFFFFFFFFFFF AND SUB PUSH2 0xCEC JUMPI PUSH1 0x40 MLOAD PUSH32 0x8C379A000000000000000000000000000000000000000000000000000000000 DUP2 MSTORE PUSH1 0x4 ADD PUSH2 0xCE3 SWAP1 PUSH2 0x1F3C JUMP JUMPDEST PUSH1 0x40 MLOAD DUP1 SWAP2 SUB SWAP1 REVERT JUMPDEST PUSH0 PUSH1 0x2 PUSH0 DUP7 DUP2 MSTORE PUSH1 0x20 ADD SWAP1 DUP2 MSTORE PUSH1 0x20 ADD PUSH0 KECCAK256 PUSH0 DUP9 PUSH20 0xFFFFFFFFFFFFFFFFFFFFFFFFFFFFFFFFFFFFFFFF AND PUSH20 0xFFFFFFFFFFFFFFFFFFFFFFFFFFFFFFFFFFFFFFFF AND DUP2 MSTORE PUSH1 0x20 ADD SWAP1 DUP2 MSTORE PUSH1 0x20 ADD PUSH0 KECCAK256 SLOAD SWAP1 POP DUP4 DUP2 LT ISZERO PUSH2 0xD7F JUMPI PUSH1 0x40 MLOAD PUSH32 0x8C379A000000000000000000000000000000000000000000000000000000000 DUP2 MSTORE PUSH1 0x4 ADD PUSH2 0xD76 SWAP1 PUSH2 0x1FF7 JUMP JUMPDEST PUSH1 0x40 MLOAD DUP1 SWAP2 SUB SWAP1 REVERT JUMPDEST DUP4 DUP2 SUB PUSH1 0x2 PUSH0 DUP8 DUP2 MSTORE PUSH1 0x20 ADD SWAP1 DUP2 MSTORE PUSH1 0x20 ADD PUSH0 KECCAK256 PUSH0 DUP10 PUSH20 0xFFFFFFFFFFFFFFFFFFFFFFFFFFFFFFFFFFFFFFFF AND PUSH20 0xFFFFFFFFFFFFFFFFFFFFFFFFFFFFFFFFFFFFFFFF AND DUP2 MSTORE PUSH1 0x20 ADD SWAP1 DUP2 MSTORE PUSH1 0x20 ADD PUSH0 KECCAK256 DUP2 SWAP1 SSTORE POP DUP4 PUSH1 0x2 PUSH0 DUP8 DUP2 MSTORE PUSH1 0x20 ADD SWAP1 DUP2 MSTORE PUSH1 0x20 ADD PUSH0 KECCAK256 PUSH0 DUP9 PUSH20 0xFFFFFFFFFFFFFFFFFFFFFFFFFFFFFFFFFFFFFFFF AND PUSH20 0xFFFFFFFFFFFFFFFFFFFFFFFFFFFFFFFFFFFFFFFF AND DUP2 MSTORE PUSH1 0x20 ADD SWAP1 DUP2 MSTORE PUSH1 0x20 ADD PUSH0 KECCAK256 PUSH0 DUP3 DUP3 SLOAD PUSH2 0xE2D SWAP2 SWAP1 PUSH2 0x2042 JUMP JUMPDEST SWAP3 POP POP DUP2 SWAP1 SSTORE POP DUP6 PUSH20 0xFFFFFFFFFFFFFFFFFFFFFFFFFFFFFFFFFFFFFFFF AND DUP8 PUSH20 0xFFFFFFFFFFFFFFFFFFFFFFFFFFFFFFFFFFFFFFFF AND DUP4 PUSH20 0xFFFFFFFFFFFFFFFFFFFFFFFFFFFFFFFFFFFFFFFF AND PUSH32 0xC3D58168C5AE7397731D063D5BBF3D657854427343F4C083240F7AACAA2D0F62 DUP9 DUP9 PUSH1 0x40 MLOAD PUSH2 0xEAA SWAP3 SWAP2 SWAP1 PUSH2 0x21C6 JUMP JUMPDEST PUSH1 0x40 MLOAD DUP1 SWAP2 SUB SWAP1 LOG4 PUSH2 0xEC0 DUP3 DUP9 DUP9 DUP9 DUP9 DUP9 PUSH2 0x120E JUMP JUMPDEST POP POP POP POP POP POP POP JUMP JUMPDEST PUSH1 0x60 PUSH1 0x40 MLOAD DUP1 PUSH1 0x20 ADD PUSH1 0x40 MSTORE DUP1 PUSH0 DUP2 MSTORE POP SWAP1 POP SWAP1 JUMP JUMPDEST PUSH1 0x60 PUSH0 DUP3 SUB PUSH2 0xF25 JUMPI PUSH1 0x40 MLOAD DUP1 PUSH1 0x40 ADD PUSH1 0x40 MSTORE DUP1 PUSH1 0x1 DUP2 MSTORE PUSH1 0x20 ADD PUSH32 0x3000000000000000000000000000000000000000000000000000000000000000 DUP2 MSTORE POP SWAP1 POP PUSH2 0x1033 JUMP JUMPDEST PUSH0 DUP3 SWAP1 POP PUSH0 JUMPDEST PUSH0 DUP3 EQ PUSH2 0xF54 JUMPI DUP1 DUP1 PUSH2 0xF3D SWAP1 PUSH2 0x21ED JUMP JUMPDEST SWAP2 POP POP PUSH1 0xA DUP3 PUSH2 0xF4D SWAP2 SWAP1 PUSH2 0x2261 JUMP JUMPDEST SWAP2 POP PUSH2 0xF2B JUMP JUMPDEST PUSH0 DUP2 PUSH8 0xFFFFFFFFFFFFFFFF DUP2 GT ISZERO PUSH2 0xF6F JUMPI PUSH2 0xF6E PUSH2 0x166B JUMP JUMPDEST JUMPDEST PUSH1 0x40 MLOAD SWAP1 DUP1 DUP3 MSTORE DUP1 PUSH1 0x1F ADD PUSH1 0x1F NOT AND PUSH1 0x20 ADD DUP3 ADD PUSH1 0x40 MSTORE DUP1 ISZERO PUSH2 0xFA1 JUMPI DUP2 PUSH1 0x20 ADD PUSH1 0x1 DUP3 MUL DUP1 CALLDATASIZE DUP4 CALLDATACOPY DUP1 DUP3 ADD SWAP2 POP POP SWAP1 POP JUMPDEST POP SWAP1 POP JUMPDEST PUSH0 DUP6 EQ PUSH2 0x102C JUMPI PUSH1 0x1 DUP3 PUSH2 0xFB9 SWAP2 SWAP1 PUSH2 0x2291 JUMP JUMPDEST SWAP2 POP PUSH1 0xA DUP6 PUSH2 0xFC8 SWAP2 SWAP1 PUSH2 0x22C4 JUMP JUMPDEST PUSH1 0x30 PUSH2 0xFD4 SWAP2 SWAP1 PUSH2 0x2042 JUMP JUMPDEST PUSH1 0xF8 SHL DUP2 DUP4 DUP2 MLOAD DUP2 LT PUSH2 0xFEA JUMPI PUSH2 0xFE9 PUSH2 0x1F5A JUMP JUMPDEST JUMPDEST PUSH1 0x20 ADD ADD SWAP1 PUSH31 0xFFFFFFFFFFFFFFFFFFFFFFFFFFFFFFFFFFFFFFFFFFFFFFFFFFFFFFFFFFFFFF NOT AND SWAP1 DUP2 PUSH0 BYTE SWAP1 MSTORE8 POP PUSH1 0xA DUP6 PUSH2 0x1025 SWAP2 SWAP1 PUSH2 0x2261 JUMP JUMPDEST SWAP5 POP PUSH2 0xFA5 JUMP JUMPDEST DUP1 SWAP4 POP POP POP POP JUMPDEST SWAP2 SWAP1 POP JUMP JUMPDEST PUSH2 0x1057 DUP5 PUSH20 0xFFFFFFFFFFFFFFFFFFFFFFFFFFFFFFFFFFFFFFFF AND PUSH2 0x13E4 JUMP JUMPDEST ISZERO PUSH2 0x1206 JUMPI DUP4 PUSH20 0xFFFFFFFFFFFFFFFFFFFFFFFFFFFFFFFFFFFFFFFF AND PUSH4 0xBC197C81 DUP8 DUP8 DUP7 DUP7 DUP7 PUSH1 0x40 MLOAD DUP7 PUSH4 0xFFFFFFFF AND PUSH1 0xE0 SHL DUP2 MSTORE PUSH1 0x4 ADD PUSH2 0x109D SWAP6 SWAP5 SWAP4 SWAP3 SWAP2 SWAP1 PUSH2 0x2355 JUMP JUMPDEST PUSH1 0x20 PUSH1 0x40 MLOAD DUP1 DUP4 SUB DUP2 PUSH0 DUP8 GAS CALL SWAP3 POP POP POP DUP1 ISZERO PUSH2 0x10D8 JUMPI POP PUSH1 0x40 MLOAD RETURNDATASIZE PUSH1 0x1F NOT PUSH1 0x1F DUP3 ADD AND DUP3 ADD DUP1 PUSH1 0x40 MSTORE POP DUP2 ADD SWAP1 PUSH2 0x10D5 SWAP2 SWAP1 PUSH2 0x23CF JUMP JUMPDEST PUSH1 0x1 JUMPDEST PUSH2 0x117D JUMPI PUSH2 0x10E4 PUSH2 0x2406 JUMP JUMPDEST DUP1 PUSH4 0x8C379A0 SUB PUSH2 0x1140 JUMPI POP PUSH2 0x10F8 PUSH2 0x2425 JUMP JUMPDEST DUP1 PUSH2 0x1103 JUMPI POP PUSH2 0x1142 JUMP JUMPDEST DUP1 PUSH1 0x40 MLOAD PUSH32 0x8C379A000000000000000000000000000000000000000000000000000000000 DUP2 MSTORE PUSH1 0x4 ADD PUSH2 0x1137 SWAP2 SWAP1 PUSH2 0x161C JUMP JUMPDEST PUSH1 0x40 MLOAD DUP1 SWAP2 SUB SWAP1 REVERT JUMPDEST POP JUMPDEST PUSH1 0x40 MLOAD PUSH32 0x8C379A000000000000000000000000000000000000000000000000000000000 DUP2 MSTORE PUSH1 0x4 ADD PUSH2 0x1174 SWAP1 PUSH2 0x2524 JUMP JUMPDEST PUSH1 0x40 MLOAD DUP1 SWAP2 SUB SWAP1 REVERT JUMPDEST PUSH4 0xBC197C81 PUSH1 0xE0 SHL PUSH28 0xFFFFFFFFFFFFFFFFFFFFFFFFFFFFFFFFFFFFFFFFFFFFFFFFFFFFFFFF NOT AND DUP2 PUSH28 0xFFFFFFFFFFFFFFFFFFFFFFFFFFFFFFFFFFFFFFFFFFFFFFFFFFFFFFFF NOT AND EQ PUSH2 0x1204 JUMPI PUSH1 0x40 MLOAD PUSH32 0x8C379A000000000000000000000000000000000000000000000000000000000 DUP2 MSTORE PUSH1 0x4 ADD PUSH2 0x11FB SWAP1 PUSH2 0x25B2 JUMP JUMPDEST PUSH1 0x40 MLOAD DUP1 SWAP2 SUB SWAP1 REVERT JUMPDEST POP JUMPDEST POP POP POP POP POP POP JUMP JUMPDEST PUSH2 0x122D DUP5 PUSH20 0xFFFFFFFFFFFFFFFFFFFFFFFFFFFFFFFFFFFFFFFF AND PUSH2 0x13E4 JUMP JUMPDEST ISZERO PUSH2 0x13DC JUMPI DUP4 PUSH20 0xFFFFFFFFFFFFFFFFFFFFFFFFFFFFFFFFFFFFFFFF AND PUSH4 0xF23A6E61 DUP8 DUP8 DUP7 DUP7 DUP7 PUSH1 0x40 MLOAD DUP7 PUSH4 0xFFFFFFFF AND PUSH1 0xE0 SHL DUP2 MSTORE PUSH1 0x4 ADD PUSH2 0x1273 SWAP6 SWAP5 SWAP4 SWAP3 SWAP2 SWAP1 PUSH2 0x25D0 JUMP JUMPDEST PUSH1 0x20 PUSH1 0x40 MLOAD DUP1 DUP4 SUB DUP2 PUSH0 DUP8 GAS CALL SWAP3 POP POP POP DUP1 ISZERO PUSH2 0x12AE JUMPI POP PUSH1 0x40 MLOAD RETURNDATASIZE PUSH1 0x1F NOT PUSH1 0x1F DUP3 ADD AND DUP3 ADD DUP1 PUSH1 0x40 MSTORE POP DUP2 ADD SWAP1 PUSH2 0x12AB SWAP2 SWAP1 PUSH2 0x23CF JUMP JUMPDEST PUSH1 0x1 JUMPDEST PUSH2 0x1353 JUMPI PUSH2 0x12BA PUSH2 0x2406 JUMP JUMPDEST DUP1 PUSH4 0x8C379A0 SUB PUSH2 0x1316 JUMPI POP PUSH2 0x12CE PUSH2 0x2425 JUMP JUMPDEST DUP1 PUSH2 0x12D9 JUMPI POP PUSH2 0x1318 JUMP JUMPDEST DUP1 PUSH1 0x40 MLOAD PUSH32 0x8C379A000000000000000000000000000000000000000000000000000000000 DUP2 MSTORE PUSH1 0x4 ADD PUSH2 0x130D SWAP2 SWAP1 PUSH2 0x161C JUMP JUMPDEST PUSH1 0x40 MLOAD DUP1 SWAP2 SUB SWAP1 REVERT JUMPDEST POP JUMPDEST PUSH1 0x40 MLOAD PUSH32 0x8C379A000000000000000000000000000000000000000000000000000000000 DUP2 MSTORE PUSH1 0x4 ADD PUSH2 0x134A SWAP1 PUSH2 0x2524 JUMP JUMPDEST PUSH1 0x40 MLOAD DUP1 SWAP2 SUB SWAP1 REVERT JUMPDEST PUSH4 0xF23A6E61 PUSH1 0xE0 SHL PUSH28 0xFFFFFFFFFFFFFFFFFFFFFFFFFFFFFFFFFFFFFFFFFFFFFFFFFFFFFFFF NOT AND DUP2 PUSH28 0xFFFFFFFFFFFFFFFFFFFFFFFFFFFFFFFFFFFFFFFFFFFFFFFFFFFFFFFF NOT AND EQ PUSH2 0x13DA JUMPI PUSH1 0x40 MLOAD PUSH32 0x8C379A000000000000000000000000000000000000000000000000000000000 DUP2 MSTORE PUSH1 0x4 ADD PUSH2 0x13D1 SWAP1 PUSH2 0x25B2 JUMP JUMPDEST PUSH1 0x40 MLOAD DUP1 SWAP2 SUB SWAP1 REVERT JUMPDEST POP JUMPDEST POP POP POP POP POP POP JUMP JUMPDEST PUSH0 DUP1 DUP3 EXTCODESIZE SWAP1 POP PUSH0 DUP2 GT SWAP2 POP POP SWAP2 SWAP1 POP JUMP JUMPDEST PUSH0 PUSH1 0x40 MLOAD SWAP1 POP SWAP1 JUMP JUMPDEST PUSH0 DUP1 REVERT JUMPDEST PUSH0 DUP1 REVERT JUMPDEST PUSH0 PUSH20 0xFFFFFFFFFFFFFFFFFFFFFFFFFFFFFFFFFFFFFFFF DUP3 AND SWAP1 POP SWAP2 SWAP1 POP JUMP JUMPDEST PUSH0 PUSH2 0x142F DUP3 PUSH2 0x1406 JUMP JUMPDEST SWAP1 POP SWAP2 SWAP1 POP JUMP JUMPDEST PUSH2 0x143F DUP2 PUSH2 0x1425 JUMP JUMPDEST DUP2 EQ PUSH2 0x1449 JUMPI PUSH0 DUP1 REVERT JUMPDEST POP JUMP JUMPDEST PUSH0 DUP2 CALLDATALOAD SWAP1 POP PUSH2 0x145A DUP2 PUSH2 0x1436 JUMP JUMPDEST SWAP3 SWAP2 POP POP JUMP JUMPDEST PUSH0 DUP2 SWAP1 POP SWAP2 SWAP1 POP JUMP JUMPDEST PUSH2 0x1472 DUP2 PUSH2 0x1460 JUMP JUMPDEST DUP2 EQ PUSH2 0x147C JUMPI PUSH0 DUP1 REVERT JUMPDEST POP JUMP JUMPDEST PUSH0 DUP2 CALLDATALOAD SWAP1 POP PUSH2 0x148D DUP2 PUSH2 0x1469 JUMP JUMPDEST SWAP3 SWAP2 POP POP JUMP JUMPDEST PUSH0 DUP1 PUSH1 0x40 DUP4 DUP6 SUB SLT ISZERO PUSH2 0x14A9 JUMPI PUSH2 0x14A8 PUSH2 0x13FE JUMP JUMPDEST JUMPDEST PUSH0 PUSH2 0x14B6 DUP6 DUP3 DUP7 ADD PUSH2 0x144C JUMP JUMPDEST SWAP3 POP POP PUSH1 0x20 PUSH2 0x14C7 DUP6 DUP3 DUP7 ADD PUSH2 0x147F JUMP JUMPDEST SWAP2 POP POP SWAP3 POP SWAP3 SWAP1 POP JUMP JUMPDEST PUSH2 0x14DA DUP2 PUSH2 0x1460 JUMP JUMPDEST DUP3 MSTORE POP POP JUMP JUMPDEST PUSH0 PUSH1 0x20 DUP3 ADD SWAP1 POP PUSH2 0x14F3 PUSH0 DUP4 ADD DUP5 PUSH2 0x14D1 JUMP JUMPDEST SWAP3 SWAP2 POP POP JUMP JUMPDEST PUSH0 PUSH32 0xFFFFFFFF00000000000000000000000000000000000000000000000000000000 DUP3 AND SWAP1 POP SWAP2 SWAP1 POP JUMP JUMPDEST PUSH2 0x152D DUP2 PUSH2 0x14F9 JUMP JUMPDEST DUP2 EQ PUSH2 0x1537 JUMPI PUSH0 DUP1 REVERT JUMPDEST POP JUMP JUMPDEST PUSH0 DUP2 CALLDATALOAD SWAP1 POP PUSH2 0x1548 DUP2 PUSH2 0x1524 JUMP JUMPDEST SWAP3 SWAP2 POP POP JUMP JUMPDEST PUSH0 PUSH1 0x20 DUP3 DUP5 SUB SLT ISZERO PUSH2 0x1563 JUMPI PUSH2 0x1562 PUSH2 0x13FE JUMP JUMPDEST JUMPDEST PUSH0 PUSH2 0x1570 DUP5 DUP3 DUP6 ADD PUSH2 0x153A JUMP JUMPDEST SWAP2 POP POP SWAP3 SWAP2 POP POP JUMP JUMPDEST PUSH0 DUP2 ISZERO ISZERO SWAP1 POP SWAP2 SWAP1 POP JUMP JUMPDEST PUSH2 0x158D DUP2 PUSH2 0x1579 JUMP JUMPDEST DUP3 MSTORE POP POP JUMP JUMPDEST PUSH0 PUSH1 0x20 DUP3 ADD SWAP1 POP PUSH2 0x15A6 PUSH0 DUP4 ADD DUP5 PUSH2 0x1584 JUMP JUMPDEST SWAP3 SWAP2 POP POP JUMP JUMPDEST PUSH0 DUP2 MLOAD SWAP1 POP SWAP2 SWAP1 POP JUMP JUMPDEST PUSH0 DUP3 DUP3 MSTORE PUSH1 0x20 DUP3 ADD SWAP1 POP SWAP3 SWAP2 POP POP JUMP JUMPDEST DUP3 DUP2 DUP4 MCOPY PUSH0 DUP4 DUP4 ADD MSTORE POP POP POP JUMP JUMPDEST PUSH0 PUSH1 0x1F NOT PUSH1 0x1F DUP4 ADD AND SWAP1 POP SWAP2 SWAP1 POP JUMP JUMPDEST PUSH0 PUSH2 0x15EE DUP3 PUSH2 0x15AC JUMP JUMPDEST PUSH2 0x15F8 DUP2 DUP6 PUSH2 0x15B6 JUMP JUMPDEST SWAP4 POP PUSH2 0x1608 DUP2 DUP6 PUSH1 0x20 DUP7 ADD PUSH2 0x15C6 JUMP JUMPDEST PUSH2 0x1611 DUP2 PUSH2 0x15D4 JUMP JUMPDEST DUP5 ADD SWAP2 POP POP SWAP3 SWAP2 POP POP JUMP JUMPDEST PUSH0 PUSH1 0x20 DUP3 ADD SWAP1 POP DUP2 DUP2 SUB PUSH0 DUP4 ADD MSTORE PUSH2 0x1634 DUP2 DUP5 PUSH2 0x15E4 JUMP JUMPDEST SWAP1 POP SWAP3 SWAP2 POP POP JUMP JUMPDEST PUSH0 PUSH1 0x20 DUP3 DUP5 SUB SLT ISZERO PUSH2 0x1651 JUMPI PUSH2 0x1650 PUSH2 0x13FE JUMP JUMPDEST JUMPDEST PUSH0 PUSH2 0x165E DUP5 DUP3 DUP6 ADD PUSH2 0x147F JUMP JUMPDEST SWAP2 POP POP SWAP3 SWAP2 POP POP JUMP JUMPDEST PUSH0 DUP1 REVERT JUMPDEST PUSH32 0x4E487B7100000000000000000000000000000000000000000000000000000000 PUSH0 MSTORE PUSH1 0x41 PUSH1 0x4 MSTORE PUSH1 0x24 PUSH0 REVERT JUMPDEST PUSH2 0x16A1 DUP3 PUSH2 0x15D4 JUMP JUMPDEST DUP2 ADD DUP2 DUP2 LT PUSH8 0xFFFFFFFFFFFFFFFF DUP3 GT OR ISZERO PUSH2 0x16C0 JUMPI PUSH2 0x16BF PUSH2 0x166B JUMP JUMPDEST JUMPDEST DUP1 PUSH1 0x40 MSTORE POP POP POP JUMP JUMPDEST PUSH0 PUSH2 0x16D2 PUSH2 0x13F5 JUMP JUMPDEST SWAP1 POP PUSH2 0x16DE DUP3 DUP3 PUSH2 0x1698 JUMP JUMPDEST SWAP2 SWAP1 POP JUMP JUMPDEST PUSH0 PUSH8 0xFFFFFFFFFFFFFFFF DUP3 GT ISZERO PUSH2 0x16FD JUMPI PUSH2 0x16FC PUSH2 0x166B JUMP JUMPDEST JUMPDEST PUSH1 0x20 DUP3 MUL SWAP1 POP PUSH1 0x20 DUP2 ADD SWAP1 POP SWAP2 SWAP1 POP JUMP JUMPDEST PUSH0 DUP1 REVERT JUMPDEST PUSH0 PUSH2 0x1724 PUSH2 0x171F DUP5 PUSH2 0x16E3 JUMP JUMPDEST PUSH2 0x16C9 JUMP JUMPDEST SWAP1 POP DUP1 DUP4 DUP3 MSTORE PUSH1 0x20 DUP3 ADD SWAP1 POP PUSH1 0x20 DUP5 MUL DUP4 ADD DUP6 DUP2 GT ISZERO PUSH2 0x1747 JUMPI PUSH2 0x1746 PUSH2 0x170E JUMP JUMPDEST JUMPDEST DUP4 JUMPDEST DUP2 DUP2 LT ISZERO PUSH2 0x1770 JUMPI DUP1 PUSH2 0x175C DUP9 DUP3 PUSH2 0x147F JUMP JUMPDEST DUP5 MSTORE PUSH1 0x20 DUP5 ADD SWAP4 POP POP PUSH1 0x20 DUP2 ADD SWAP1 POP PUSH2 0x1749 JUMP JUMPDEST POP POP POP SWAP4 SWAP3 POP POP POP JUMP JUMPDEST PUSH0 DUP3 PUSH1 0x1F DUP4 ADD SLT PUSH2 0x178E JUMPI PUSH2 0x178D PUSH2 0x1667 JUMP JUMPDEST JUMPDEST DUP2 CALLDATALOAD PUSH2 0x179E DUP5 DUP3 PUSH1 0x20 DUP7 ADD PUSH2 0x1712 JUMP JUMPDEST SWAP2 POP POP SWAP3 SWAP2 POP POP JUMP JUMPDEST PUSH0 DUP1 REVERT JUMPDEST PUSH0 PUSH8 0xFFFFFFFFFFFFFFFF DUP3 GT ISZERO PUSH2 0x17C5 JUMPI PUSH2 0x17C4 PUSH2 0x166B JUMP JUMPDEST JUMPDEST PUSH2 0x17CE DUP3 PUSH2 0x15D4 JUMP JUMPDEST SWAP1 POP PUSH1 0x20 DUP2 ADD SWAP1 POP SWAP2 SWAP1 POP JUMP JUMPDEST DUP3 DUP2 DUP4 CALLDATACOPY PUSH0 DUP4 DUP4 ADD MSTORE POP POP POP JUMP JUMPDEST PUSH0 PUSH2 0x17FB PUSH2 0x17F6 DUP5 PUSH2 0x17AB JUMP JUMPDEST PUSH2 0x16C9 JUMP JUMPDEST SWAP1 POP DUP3 DUP2 MSTORE PUSH1 0x20 DUP2 ADD DUP5 DUP5 DUP5 ADD GT ISZERO PUSH2 0x1817 JUMPI PUSH2 0x1816 PUSH2 0x17A7 JUMP JUMPDEST JUMPDEST PUSH2 0x1822 DUP5 DUP3 DUP6 PUSH2 0x17DB JUMP JUMPDEST POP SWAP4 SWAP3 POP POP POP JUMP JUMPDEST PUSH0 DUP3 PUSH1 0x1F DUP4 ADD SLT PUSH2 0x183E JUMPI PUSH2 0x183D PUSH2 0x1667 JUMP JUMPDEST JUMPDEST DUP2 CALLDATALOAD PUSH2 0x184E DUP5 DUP3 PUSH1 0x20 DUP7 ADD PUSH2 0x17E9 JUMP JUMPDEST SWAP2 POP POP SWAP3 SWAP2 POP POP JUMP JUMPDEST PUSH0 DUP1 PUSH0 DUP1 PUSH0 PUSH1 0xA0 DUP7 DUP9 SUB SLT ISZERO PUSH2 0x1870 JUMPI PUSH2 0x186F PUSH2 0x13FE JUMP JUMPDEST JUMPDEST PUSH0 PUSH2 0x187D DUP9 DUP3 DUP10 ADD PUSH2 0x144C JUMP JUMPDEST SWAP6 POP POP PUSH1 0x20 PUSH2 0x188E DUP9 DUP3 DUP10 ADD PUSH2 0x144C JUMP JUMPDEST SWAP5 POP POP PUSH1 0x40 DUP7 ADD CALLDATALOAD PUSH8 0xFFFFFFFFFFFFFFFF DUP2 GT ISZERO PUSH2 0x18AF JUMPI PUSH2 0x18AE PUSH2 0x1402 JUMP JUMPDEST JUMPDEST PUSH2 0x18BB DUP9 DUP3 DUP10 ADD PUSH2 0x177A JUMP JUMPDEST SWAP4 POP POP PUSH1 0x60 DUP7 ADD CALLDATALOAD PUSH8 0xFFFFFFFFFFFFFFFF DUP2 GT ISZERO PUSH2 0x18DC JUMPI PUSH2 0x18DB PUSH2 0x1402 JUMP JUMPDEST JUMPDEST PUSH2 0x18E8 DUP9 DUP3 DUP10 ADD PUSH2 0x177A JUMP JUMPDEST SWAP3 POP POP PUSH1 0x80 DUP7 ADD CALLDATALOAD PUSH8 0xFFFFFFFFFFFFFFFF DUP2 GT ISZERO PUSH2 0x1909 JUMPI PUSH2 0x1908 PUSH2 0x1402 JUMP JUMPDEST JUMPDEST PUSH2 0x1915 DUP9 DUP3 DUP10 ADD PUSH2 0x182A JUMP JUMPDEST SWAP2 POP POP SWAP3 SWAP6 POP SWAP3 SWAP6 SWAP1 SWAP4 POP JUMP JUMPDEST PUSH0 PUSH8 0xFFFFFFFFFFFFFFFF DUP3 GT ISZERO PUSH2 0x193C JUMPI PUSH2 0x193B PUSH2 0x166B JUMP JUMPDEST JUMPDEST PUSH1 0x20 DUP3 MUL SWAP1 POP PUSH1 0x20 DUP2 ADD SWAP1 POP SWAP2 SWAP1 POP JUMP JUMPDEST PUSH0 PUSH2 0x195F PUSH2 0x195A DUP5 PUSH2 0x1922 JUMP JUMPDEST PUSH2 0x16C9 JUMP JUMPDEST SWAP1 POP DUP1 DUP4 DUP3 MSTORE PUSH1 0x20 DUP3 ADD SWAP1 POP PUSH1 0x20 DUP5 MUL DUP4 ADD DUP6 DUP2 GT ISZERO PUSH2 0x1982 JUMPI PUSH2 0x1981 PUSH2 0x170E JUMP JUMPDEST JUMPDEST DUP4 JUMPDEST DUP2 DUP2 LT ISZERO PUSH2 0x19AB JUMPI DUP1 PUSH2 0x1997 DUP9 DUP3 PUSH2 0x144C JUMP JUMPDEST DUP5 MSTORE PUSH1 0x20 DUP5 ADD SWAP4 POP POP PUSH1 0x20 DUP2 ADD SWAP1 POP PUSH2 0x1984 JUMP JUMPDEST POP POP POP SWAP4 SWAP3 POP POP POP JUMP JUMPDEST PUSH0 DUP3 PUSH1 0x1F DUP4 ADD SLT PUSH2 0x19C9 JUMPI PUSH2 0x19C8 PUSH2 0x1667 JUMP JUMPDEST JUMPDEST DUP2 CALLDATALOAD PUSH2 0x19D9 DUP5 DUP3 PUSH1 0x20 DUP7 ADD PUSH2 0x194D JUMP JUMPDEST SWAP2 POP POP SWAP3 SWAP2 POP POP JUMP JUMPDEST PUSH0 DUP1 PUSH1 0x40 DUP4 DUP6 SUB SLT ISZERO PUSH2 0x19F8 JUMPI PUSH2 0x19F7 PUSH2 0x13FE JUMP JUMPDEST JUMPDEST PUSH0 DUP4 ADD CALLDATALOAD PUSH8 0xFFFFFFFFFFFFFFFF DUP2 GT ISZERO PUSH2 0x1A15 JUMPI PUSH2 0x1A14 PUSH2 0x1402 JUMP JUMPDEST JUMPDEST PUSH2 0x1A21 DUP6 DUP3 DUP7 ADD PUSH2 0x19B5 JUMP JUMPDEST SWAP3 POP POP PUSH1 0x20 DUP4 ADD CALLDATALOAD PUSH8 0xFFFFFFFFFFFFFFFF DUP2 GT ISZERO PUSH2 0x1A42 JUMPI PUSH2 0x1A41 PUSH2 0x1402 JUMP JUMPDEST JUMPDEST PUSH2 0x1A4E DUP6 DUP3 DUP7 ADD PUSH2 0x177A JUMP JUMPDEST SWAP2 POP POP SWAP3 POP SWAP3 SWAP1 POP JUMP JUMPDEST PUSH0 DUP2 MLOAD SWAP1 POP SWAP2 SWAP1 POP JUMP JUMPDEST PUSH0 DUP3 DUP3 MSTORE PUSH1 0x20 DUP3 ADD SWAP1 POP SWAP3 SWAP2 POP POP JUMP JUMPDEST PUSH0 DUP2 SWAP1 POP PUSH1 0x20 DUP3 ADD SWAP1 POP SWAP2 SWAP1 POP JUMP JUMPDEST PUSH2 0x1A8A DUP2 PUSH2 0x1460 JUMP JUMPDEST DUP3 MSTORE POP POP JUMP JUMPDEST PUSH0 PUSH2 0x1A9B DUP4 DUP4 PUSH2 0x1A81 JUMP JUMPDEST PUSH1 0x20 DUP4 ADD SWAP1 POP SWAP3 SWAP2 POP POP JUMP JUMPDEST PUSH0 PUSH1 0x20 DUP3 ADD SWAP1 POP SWAP2 SWAP1 POP JUMP JUMPDEST PUSH0 PUSH2 0x1ABD DUP3 PUSH2 0x1A58 JUMP JUMPDEST PUSH2 0x1AC7 DUP2 DUP6 PUSH2 0x1A62 JUMP JUMPDEST SWAP4 POP PUSH2 0x1AD2 DUP4 PUSH2 0x1A72 JUMP JUMPDEST DUP1 PUSH0 JUMPDEST DUP4 DUP2 LT ISZERO PUSH2 0x1B02 JUMPI DUP2 MLOAD PUSH2 0x1AE9 DUP9 DUP3 PUSH2 0x1A90 JUMP JUMPDEST SWAP8 POP PUSH2 0x1AF4 DUP4 PUSH2 0x1AA7 JUMP JUMPDEST SWAP3 POP POP PUSH1 0x1 DUP2 ADD SWAP1 POP PUSH2 0x1AD5 JUMP JUMPDEST POP DUP6 SWAP4 POP POP POP POP SWAP3 SWAP2 POP POP JUMP JUMPDEST PUSH0 PUSH1 0x20 DUP3 ADD SWAP1 POP DUP2 DUP2 SUB PUSH0 DUP4 ADD MSTORE PUSH2 0x1B27 DUP2 DUP5 PUSH2 0x1AB3 JUMP JUMPDEST SWAP1 POP SWAP3 SWAP2 POP POP JUMP JUMPDEST PUSH2 0x1B38 DUP2 PUSH2 0x1579 JUMP JUMPDEST DUP2 EQ PUSH2 0x1B42 JUMPI PUSH0 DUP1 REVERT JUMPDEST POP JUMP JUMPDEST PUSH0 DUP2 CALLDATALOAD SWAP1 POP PUSH2 0x1B53 DUP2 PUSH2 0x1B2F JUMP JUMPDEST SWAP3 SWAP2 POP POP JUMP JUMPDEST PUSH0 DUP1 PUSH1 0x40 DUP4 DUP6 SUB SLT ISZERO PUSH2 0x1B6F JUMPI PUSH2 0x1B6E PUSH2 0x13FE JUMP JUMPDEST JUMPDEST PUSH0 PUSH2 0x1B7C DUP6 DUP3 DUP7 ADD PUSH2 0x144C JUMP JUMPDEST SWAP3 POP POP PUSH1 0x20 PUSH2 0x1B8D DUP6 DUP3 DUP7 ADD PUSH2 0x1B45 JUMP JUMPDEST SWAP2 POP POP SWAP3 POP SWAP3 SWAP1 POP JUMP JUMPDEST PUSH0 DUP1 PUSH1 0x40 DUP4 DUP6 SUB SLT ISZERO PUSH2 0x1BAD JUMPI PUSH2 0x1BAC PUSH2 0x13FE JUMP JUMPDEST JUMPDEST PUSH0 PUSH2 0x1BBA DUP6 DUP3 DUP7 ADD PUSH2 0x144C JUMP JUMPDEST SWAP3 POP POP PUSH1 0x20 PUSH2 0x1BCB DUP6 DUP3 DUP7 ADD PUSH2 0x144C JUMP JUMPDEST SWAP2 POP POP SWAP3 POP SWAP3 SWAP1 POP JUMP JUMPDEST PUSH0 DUP1 PUSH0 DUP1 PUSH0 PUSH1 0xA0 DUP7 DUP9 SUB SLT ISZERO PUSH2 0x1BEE JUMPI PUSH2 0x1BED PUSH2 0x13FE JUMP JUMPDEST JUMPDEST PUSH0 PUSH2 0x1BFB DUP9 DUP3 DUP10 ADD PUSH2 0x144C JUMP JUMPDEST SWAP6 POP POP PUSH1 0x20 PUSH2 0x1C0C DUP9 DUP3 DUP10 ADD PUSH2 0x144C JUMP JUMPDEST SWAP5 POP POP PUSH1 0x40 PUSH2 0x1C1D DUP9 DUP3 DUP10 ADD PUSH2 0x147F JUMP JUMPDEST SWAP4 POP POP PUSH1 0x60 PUSH2 0x1C2E DUP9 DUP3 DUP10 ADD PUSH2 0x147F JUMP JUMPDEST SWAP3 POP POP PUSH1 0x80 DUP7 ADD CALLDATALOAD PUSH8 0xFFFFFFFFFFFFFFFF DUP2 GT ISZERO PUSH2 0x1C4F JUMPI PUSH2 0x1C4E PUSH2 0x1402 JUMP JUMPDEST JUMPDEST PUSH2 0x1C5B DUP9 DUP3 DUP10 ADD PUSH2 0x182A JUMP JUMPDEST SWAP2 POP POP SWAP3 SWAP6 POP SWAP3 SWAP6 SWAP1 SWAP4 POP JUMP JUMPDEST PUSH32 0x455243313135353A2061646472657373207A65726F206973206E6F7420612076 PUSH0 DUP3 ADD MSTORE PUSH32 0x616C6964206F776E657200000000000000000000000000000000000000000000 PUSH1 0x20 DUP3 ADD MSTORE POP JUMP JUMPDEST PUSH0 PUSH2 0x1CC2 PUSH1 0x2A DUP4 PUSH2 0x15B6 JUMP JUMPDEST SWAP2 POP PUSH2 0x1CCD DUP3 PUSH2 0x1C68 JUMP JUMPDEST PUSH1 0x40 DUP3 ADD SWAP1 POP SWAP2 SWAP1 POP JUMP JUMPDEST PUSH0 PUSH1 0x20 DUP3 ADD SWAP1 POP DUP2 DUP2 SUB PUSH0 DUP4 ADD MSTORE PUSH2 0x1CEF DUP2 PUSH2 0x1CB6 JUMP JUMPDEST SWAP1 POP SWAP2 SWAP1 POP JUMP JUMPDEST PUSH32 0x4E487B7100000000000000000000000000000000000000000000000000000000 PUSH0 MSTORE PUSH1 0x22 PUSH1 0x4 MSTORE PUSH1 0x24 PUSH0 REVERT JUMPDEST PUSH0 PUSH1 0x2 DUP3 DIV SWAP1 POP PUSH1 0x1 DUP3 AND DUP1 PUSH2 0x1D3A JUMPI PUSH1 0x7F DUP3 AND SWAP2 POP JUMPDEST PUSH1 0x20 DUP3 LT DUP2 SUB PUSH2 0x1D4D JUMPI PUSH2 0x1D4C PUSH2 0x1CF6 JUMP JUMPDEST JUMPDEST POP SWAP2 SWAP1 POP JUMP JUMPDEST PUSH0 DUP2 SWAP1 POP SWAP3 SWAP2 POP POP JUMP JUMPDEST PUSH0 PUSH2 0x1D67 DUP3 PUSH2 0x15AC JUMP JUMPDEST PUSH2 0x1D71 DUP2 DUP6 PUSH2 0x1D53 JUMP JUMPDEST SWAP4 POP PUSH2 0x1D81 DUP2 DUP6 PUSH1 0x20 DUP7 ADD PUSH2 0x15C6 JUMP JUMPDEST DUP1 DUP5 ADD SWAP2 POP POP SWAP3 SWAP2 POP POP JUMP JUMPDEST PUSH0 PUSH2 0x1D98 DUP3 DUP6 PUSH2 0x1D5D JUMP JUMPDEST SWAP2 POP PUSH2 0x1DA4 DUP3 DUP5 PUSH2 0x1D5D JUMP JUMPDEST SWAP2 POP DUP2 SWAP1 POP SWAP4 SWAP3 POP POP POP JUMP JUMPDEST PUSH32 0x455243313135353A2063616C6C6572206973206E6F7420746F6B656E206F776E PUSH0 DUP3 ADD MSTORE PUSH32 0x6572206E6F7220617070726F7665640000000000000000000000000000000000 PUSH1 0x20 DUP3 ADD MSTORE POP JUMP JUMPDEST PUSH0 PUSH2 0x1E0A PUSH1 0x2F DUP4 PUSH2 0x15B6 JUMP JUMPDEST SWAP2 POP PUSH2 0x1E15 DUP3 PUSH2 0x1DB0 JUMP JUMPDEST PUSH1 0x40 DUP3 ADD SWAP1 POP SWAP2 SWAP1 POP JUMP JUMPDEST PUSH0 PUSH1 0x20 DUP3 ADD SWAP1 POP DUP2 DUP2 SUB PUSH0 DUP4 ADD MSTORE PUSH2 0x1E37 DUP2 PUSH2 0x1DFE JUMP JUMPDEST SWAP1 POP SWAP2 SWAP1 POP JUMP JUMPDEST PUSH32 0x455243313135353A2069647320616E6420616D6F756E7473206C656E67746820 PUSH0 DUP3 ADD MSTORE PUSH32 0x6D69736D61746368000000000000000000000000000000000000000000000000 PUSH1 0x20 DUP3 ADD MSTORE POP JUMP JUMPDEST PUSH0 PUSH2 0x1E98 PUSH1 0x28 DUP4 PUSH2 0x15B6 JUMP JUMPDEST SWAP2 POP PUSH2 0x1EA3 DUP3 PUSH2 0x1E3E JUMP JUMPDEST PUSH1 0x40 DUP3 ADD SWAP1 POP SWAP2 SWAP1 POP JUMP JUMPDEST PUSH0 PUSH1 0x20 DUP3 ADD SWAP1 POP DUP2 DUP2 SUB PUSH0 DUP4 ADD MSTORE PUSH2 0x1EC5 DUP2 PUSH2 0x1E8C JUMP JUMPDEST SWAP1 POP SWAP2 SWAP1 POP JUMP JUMPDEST PUSH32 0x455243313135353A207472616E7366657220746F20746865207A65726F206164 PUSH0 DUP3 ADD MSTORE PUSH32 0x6472657373000000000000000000000000000000000000000000000000000000 PUSH1 0x20 DUP3 ADD MSTORE POP JUMP JUMPDEST PUSH0 PUSH2 0x1F26 PUSH1 0x25 DUP4 PUSH2 0x15B6 JUMP JUMPDEST SWAP2 POP PUSH2 0x1F31 DUP3 PUSH2 0x1ECC JUMP JUMPDEST PUSH1 0x40 DUP3 ADD SWAP1 POP SWAP2 SWAP1 POP JUMP JUMPDEST PUSH0 PUSH1 0x20 DUP3 ADD SWAP1 POP DUP2 DUP2 SUB PUSH0 DUP4 ADD MSTORE PUSH2 0x1F53 DUP2 PUSH2 0x1F1A JUMP JUMPDEST SWAP1 POP SWAP2 SWAP1 POP JUMP JUMPDEST PUSH32 0x4E487B7100000000000000000000000000000000000000000000000000000000 PUSH0 MSTORE PUSH1 0x32 PUSH1 0x4 MSTORE PUSH1 0x24 PUSH0 REVERT JUMPDEST PUSH32 0x455243313135353A20696E73756666696369656E742062616C616E636520666F PUSH0 DUP3 ADD MSTORE PUSH32 0x72207472616E7366657200000000000000000000000000000000000000000000 PUSH1 0x20 DUP3 ADD MSTORE POP JUMP JUMPDEST PUSH0 PUSH2 0x1FE1 PUSH1 0x2A DUP4 PUSH2 0x15B6 JUMP JUMPDEST SWAP2 POP PUSH2 0x1FEC DUP3 PUSH2 0x1F87 JUMP JUMPDEST PUSH1 0x40 DUP3 ADD SWAP1 POP SWAP2 SWAP1 POP JUMP JUMPDEST PUSH0 PUSH1 0x20 DUP3 ADD SWAP1 POP DUP2 DUP2 SUB PUSH0 DUP4 ADD MSTORE PUSH2 0x200E DUP2 PUSH2 0x1FD5 JUMP JUMPDEST SWAP1 POP SWAP2 SWAP1 POP JUMP JUMPDEST PUSH32 0x4E487B7100000000000000000000000000000000000000000000000000000000 PUSH0 MSTORE PUSH1 0x11 PUSH1 0x4 MSTORE PUSH1 0x24 PUSH0 REVERT JUMPDEST PUSH0 PUSH2 0x204C DUP3 PUSH2 0x1460 JUMP JUMPDEST SWAP2 POP PUSH2 0x2057 DUP4 PUSH2 0x1460 JUMP JUMPDEST SWAP3 POP DUP3 DUP3 ADD SWAP1 POP DUP1 DUP3 GT ISZERO PUSH2 0x206F JUMPI PUSH2 0x206E PUSH2 0x2015 JUMP JUMPDEST JUMPDEST SWAP3 SWAP2 POP POP JUMP JUMPDEST PUSH0 PUSH1 0x40 DUP3 ADD SWAP1 POP DUP2 DUP2 SUB PUSH0 DUP4 ADD MSTORE PUSH2 0x208D DUP2 DUP6 PUSH2 0x1AB3 JUMP JUMPDEST SWAP1 POP DUP2 DUP2 SUB PUSH1 0x20 DUP4 ADD MSTORE PUSH2 0x20A1 DUP2 DUP5 PUSH2 0x1AB3 JUMP JUMPDEST SWAP1 POP SWAP4 SWAP3 POP POP POP JUMP JUMPDEST PUSH32 0x455243313135353A206163636F756E747320616E6420696473206C656E677468 PUSH0 DUP3 ADD MSTORE PUSH32 0x206D69736D617463680000000000000000000000000000000000000000000000 PUSH1 0x20 DUP3 ADD MSTORE POP JUMP JUMPDEST PUSH0 PUSH2 0x2104 PUSH1 0x29 DUP4 PUSH2 0x15B6 JUMP JUMPDEST SWAP2 POP PUSH2 0x210F DUP3 PUSH2 0x20AA JUMP JUMPDEST PUSH1 0x40 DUP3 ADD SWAP1 POP SWAP2 SWAP1 POP JUMP JUMPDEST PUSH0 PUSH1 0x20 DUP3 ADD SWAP1 POP DUP2 DUP2 SUB PUSH0 DUP4 ADD MSTORE PUSH2 0x2131 DUP2 PUSH2 0x20F8 JUMP JUMPDEST SWAP1 POP SWAP2 SWAP1 POP JUMP JUMPDEST PUSH32 0x455243313135353A2073657474696E6720617070726F76616C20737461747573 PUSH0 DUP3 ADD MSTORE PUSH32 0x20666F722073656C660000000000000000000000000000000000000000000000 PUSH1 0x20 DUP3 ADD MSTORE POP JUMP JUMPDEST PUSH0 PUSH2 0x2192 PUSH1 0x29 DUP4 PUSH2 0x15B6 JUMP JUMPDEST SWAP2 POP PUSH2 0x219D DUP3 PUSH2 0x2138 JUMP JUMPDEST PUSH1 0x40 DUP3 ADD SWAP1 POP SWAP2 SWAP1 POP JUMP JUMPDEST PUSH0 PUSH1 0x20 DUP3 ADD SWAP1 POP DUP2 DUP2 SUB PUSH0 DUP4 ADD MSTORE PUSH2 0x21BF DUP2 PUSH2 0x2186 JUMP JUMPDEST SWAP1 POP SWAP2 SWAP1 POP JUMP JUMPDEST PUSH0 PUSH1 0x40 DUP3 ADD SWAP1 POP PUSH2 0x21D9 PUSH0 DUP4 ADD DUP6 PUSH2 0x14D1 JUMP JUMPDEST PUSH2 0x21E6 PUSH1 0x20 DUP4 ADD DUP5 PUSH2 0x14D1 JUMP JUMPDEST SWAP4 SWAP3 POP POP POP JUMP JUMPDEST PUSH0 PUSH2 0x21F7 DUP3 PUSH2 0x1460 JUMP JUMPDEST SWAP2 POP PUSH32 0xFFFFFFFFFFFFFFFFFFFFFFFFFFFFFFFFFFFFFFFFFFFFFFFFFFFFFFFFFFFFFFFF DUP3 SUB PUSH2 0x2229 JUMPI PUSH2 0x2228 PUSH2 0x2015 JUMP JUMPDEST JUMPDEST PUSH1 0x1 DUP3 ADD SWAP1 POP SWAP2 SWAP1 POP JUMP JUMPDEST PUSH32 0x4E487B7100000000000000000000000000000000000000000000000000000000 PUSH0 MSTORE PUSH1 0x12 PUSH1 0x4 MSTORE PUSH1 0x24 PUSH0 REVERT JUMPDEST PUSH0 PUSH2 0x226B DUP3 PUSH2 0x1460 JUMP JUMPDEST SWAP2 POP PUSH2 0x2276 DUP4 PUSH2 0x1460 JUMP JUMPDEST SWAP3 POP DUP3 PUSH2 0x2286 JUMPI PUSH2 0x2285 PUSH2 0x2234 JUMP JUMPDEST JUMPDEST DUP3 DUP3 DIV SWAP1 POP SWAP3 SWAP2 POP POP JUMP JUMPDEST PUSH0 PUSH2 0x229B DUP3 PUSH2 0x1460 JUMP JUMPDEST SWAP2 POP PUSH2 0x22A6 DUP4 PUSH2 0x1460 JUMP JUMPDEST SWAP3 POP DUP3 DUP3 SUB SWAP1 POP DUP2 DUP2 GT ISZERO PUSH2 0x22BE JUMPI PUSH2 0x22BD PUSH2 0x2015 JUMP JUMPDEST JUMPDEST SWAP3 SWAP2 POP POP JUMP JUMPDEST PUSH0 PUSH2 0x22CE DUP3 PUSH2 0x1460 JUMP JUMPDEST SWAP2 POP PUSH2 0x22D9 DUP4 PUSH2 0x1460 JUMP JUMPDEST SWAP3 POP DUP3 PUSH2 0x22E9 JUMPI PUSH2 0x22E8 PUSH2 0x2234 JUMP JUMPDEST JUMPDEST DUP3 DUP3 MOD SWAP1 POP SWAP3 SWAP2 POP POP JUMP JUMPDEST PUSH2 0x22FD DUP2 PUSH2 0x1425 JUMP JUMPDEST DUP3 MSTORE POP POP JUMP JUMPDEST PUSH0 DUP2 MLOAD SWAP1 POP SWAP2 SWAP1 POP JUMP JUMPDEST PUSH0 DUP3 DUP3 MSTORE PUSH1 0x20 DUP3 ADD SWAP1 POP SWAP3 SWAP2 POP POP JUMP JUMPDEST PUSH0 PUSH2 0x2327 DUP3 PUSH2 0x2303 JUMP JUMPDEST PUSH2 0x2331 DUP2 DUP6 PUSH2 0x230D JUMP JUMPDEST SWAP4 POP PUSH2 0x2341 DUP2 DUP6 PUSH1 0x20 DUP7 ADD PUSH2 0x15C6 JUMP JUMPDEST PUSH2 0x234A DUP2 PUSH2 0x15D4 JUMP JUMPDEST DUP5 ADD SWAP2 POP POP SWAP3 SWAP2 POP POP JUMP JUMPDEST PUSH0 PUSH1 0xA0 DUP3 ADD SWAP1 POP PUSH2 0x2368 PUSH0 DUP4 ADD DUP9 PUSH2 0x22F4 JUMP JUMPDEST PUSH2 0x2375 PUSH1 0x20 DUP4 ADD DUP8 PUSH2 0x22F4 JUMP JUMPDEST DUP2 DUP2 SUB PUSH1 0x40 DUP4 ADD MSTORE PUSH2 0x2387 DUP2 DUP7 PUSH2 0x1AB3 JUMP JUMPDEST SWAP1 POP DUP2 DUP2 SUB PUSH1 0x60 DUP4 ADD MSTORE PUSH2 0x239B DUP2 DUP6 PUSH2 0x1AB3 JUMP JUMPDEST SWAP1 POP DUP2 DUP2 SUB PUSH1 0x80 DUP4 ADD MSTORE PUSH2 0x23AF DUP2 DUP5 PUSH2 0x231D JUMP JUMPDEST SWAP1 POP SWAP7 SWAP6 POP POP POP POP POP POP JUMP JUMPDEST PUSH0 DUP2 MLOAD SWAP1 POP PUSH2 0x23C9 DUP2 PUSH2 0x1524 JUMP JUMPDEST SWAP3 SWAP2 POP POP JUMP JUMPDEST PUSH0 PUSH1 0x20 DUP3 DUP5 SUB SLT ISZERO PUSH2 0x23E4 JUMPI PUSH2 0x23E3 PUSH2 0x13FE JUMP JUMPDEST JUMPDEST PUSH0 PUSH2 0x23F1 DUP5 DUP3 DUP6 ADD PUSH2 0x23BB JUMP JUMPDEST SWAP2 POP POP SWAP3 SWAP2 POP POP JUMP JUMPDEST PUSH0 DUP2 PUSH1 0xE0 SHR SWAP1 POP SWAP2 SWAP1 POP JUMP JUMPDEST PUSH0 PUSH1 0x3 RETURNDATASIZE GT ISZERO PUSH2 0x2422 JUMPI PUSH1 0x4 PUSH0 DUP1 RETURNDATACOPY PUSH2 0x241F PUSH0 MLOAD PUSH2 0x23FA JUMP JUMPDEST SWAP1 POP JUMPDEST SWAP1 JUMP JUMPDEST PUSH0 PUSH1 0x44 RETURNDATASIZE LT PUSH2 0x24B1 JUMPI PUSH2 0x2436 PUSH2 0x13F5 JUMP JUMPDEST PUSH1 0x4 RETURNDATASIZE SUB PUSH1 0x4 DUP3 RETURNDATACOPY DUP1 MLOAD RETURNDATASIZE PUSH1 0x24 DUP3 ADD GT PUSH8 0xFFFFFFFFFFFFFFFF DUP3 GT OR ISZERO PUSH2 0x245E JUMPI POP POP PUSH2 0x24B1 JUMP JUMPDEST DUP1 DUP3 ADD DUP1 MLOAD PUSH8 0xFFFFFFFFFFFFFFFF DUP2 GT ISZERO PUSH2 0x247C JUMPI POP POP POP POP PUSH2 0x24B1 JUMP JUMPDEST DUP1 PUSH1 0x20 DUP4 ADD ADD PUSH1 0x4 RETURNDATASIZE SUB DUP6 ADD DUP2 GT ISZERO PUSH2 0x2499 JUMPI POP POP POP POP POP PUSH2 0x24B1 JUMP JUMPDEST PUSH2 0x24A8 DUP3 PUSH1 0x20 ADD DUP6 ADD DUP7 PUSH2 0x1698 JUMP JUMPDEST DUP3 SWAP6 POP POP POP POP POP POP JUMPDEST SWAP1 JUMP JUMPDEST PUSH32 0x455243313135353A207472616E7366657220746F206E6F6E2D45524331313535 PUSH0 DUP3 ADD MSTORE PUSH32 0x526563656976657220696D706C656D656E746572000000000000000000000000 PUSH1 0x20 DUP3 ADD MSTORE POP JUMP JUMPDEST PUSH0 PUSH2 0x250E PUSH1 0x34 DUP4 PUSH2 0x15B6 JUMP JUMPDEST SWAP2 POP PUSH2 0x2519 DUP3 PUSH2 0x24B4 JUMP JUMPDEST PUSH1 0x40 DUP3 ADD SWAP1 POP SWAP2 SWAP1 POP JUMP JUMPDEST PUSH0 PUSH1 0x20 DUP3 ADD SWAP1 POP DUP2 DUP2 SUB PUSH0 DUP4 ADD MSTORE PUSH2 0x253B DUP2 PUSH2 0x2502 JUMP JUMPDEST SWAP1 POP SWAP2 SWAP1 POP JUMP JUMPDEST PUSH32 0x455243313135353A204552433131353552656365697665722072656A65637465 PUSH0 DUP3 ADD MSTORE PUSH32 0x6420746F6B656E73000000000000000000000000000000000000000000000000 PUSH1 0x20 DUP3 ADD MSTORE POP JUMP JUMPDEST PUSH0 PUSH2 0x259C PUSH1 0x28 DUP4 PUSH2 0x15B6 JUMP JUMPDEST SWAP2 POP PUSH2 0x25A7 DUP3 PUSH2 0x2542 JUMP JUMPDEST PUSH1 0x40 DUP3 ADD SWAP1 POP SWAP2 SWAP1 POP JUMP JUMPDEST PUSH0 PUSH1 0x20 DUP3 ADD SWAP1 POP DUP2 DUP2 SUB PUSH0 DUP4 ADD MSTORE PUSH2 0x25C9 DUP2 PUSH2 0x2590 JUMP JUMPDEST SWAP1 POP SWAP2 SWAP1 POP JUMP JUMPDEST PUSH0 PUSH1 0xA0 DUP3 ADD SWAP1 POP PUSH2 0x25E3 PUSH0 DUP4 ADD DUP9 PUSH2 0x22F4 JUMP JUMPDEST PUSH2 0x25F0 PUSH1 0x20 DUP4 ADD DUP8 PUSH2 0x22F4 JUMP JUMPDEST PUSH2 0x25FD PUSH1 0x40 DUP4 ADD DUP7 PUSH2 0x14D1 JUMP JUMPDEST PUSH2 0x260A PUSH1 0x60 DUP4 ADD DUP6 PUSH2 0x14D1 JUMP JUMPDEST DUP2 DUP2 SUB PUSH1 0x80 DUP4 ADD MSTORE PUSH2 0x261C DUP2 DUP5 PUSH2 0x231D JUMP JUMPDEST SWAP1 POP SWAP7 SWAP6 POP POP POP POP POP POP JUMP INVALID LOG2 PUSH5 0x6970667358 0x22 SLT KECCAK256 EXTCODESIZE PUSH24 0x6FE27768F497CADA6F4E1D770938105589AA1EC47CD79CDE 0xC1 MUL 0xAF LOG0 0xCF CHAINID PUSH5 0x736F6C6343 STOP ADDMOD BYTE STOP CALLER "
				},
				"gasEstimates": {
					"creation": {
						"codeDepositCost": "1964400",
						"executionCost": "infinite",
						"totalCost": "infinite"
					},
					"external": {
						"balanceOf(address,uint256)": "infinite",
						"balanceOfBatch(address[],uint256[])": "infinite",
						"isApprovedForAll(address,address)": "infinite",
						"name()": "infinite",
						"safeBatchTransferFrom(address,address,uint256[],uint256[],bytes)": "infinite",
						"safeTransferFrom(address,address,uint256,uint256,bytes)": "infinite",
						"setApprovalForAll(address,bool)": "infinite",
						"supportsInterface(bytes4)": "744",
						"symbol()": "infinite",
						"uri(uint256)": "infinite"
					},
					"internal": {
						"_baseURI()": "infinite",
						"_burn(address,uint256,uint256)": "infinite",
						"_burnBatch(address,uint256[] memory,uint256[] memory)": "infinite",
						"_doSafeBatchTransferAcceptanceCheck(address,address,address,uint256[] memory,uint256[] memory,bytes memory)": "infinite",
						"_doSafeTransferAcceptanceCheck(address,address,address,uint256,uint256,bytes memory)": "infinite",
						"_mint(address,uint256,uint256,bytes memory)": "infinite",
						"_mintBatch(address,uint256[] memory,uint256[] memory,bytes memory)": "infinite"
					}
				},
				"methodIdentifiers": {
					"balanceOf(address,uint256)": "00fdd58e",
					"balanceOfBatch(address[],uint256[])": "4e1273f4",
					"isApprovedForAll(address,address)": "e985e9c5",
					"name()": "06fdde03",
					"safeBatchTransferFrom(address,address,uint256[],uint256[],bytes)": "2eb2c2d6",
					"safeTransferFrom(address,address,uint256,uint256,bytes)": "f242432a",
					"setApprovalForAll(address,bool)": "a22cb465",
					"supportsInterface(bytes4)": "01ffc9a7",
					"symbol()": "95d89b41",
					"uri(uint256)": "0e89341c"
				}
			},
			"storageLayout": {
				"storage": [
					{
						"astId": 282,
						"contract": "contracts/IERC1155/ERC1155.sol:ERC1155",
						"label": "name",
						"offset": 0,
						"slot": "0",
						"type": "t_string_storage"
					},
					{
						"astId": 284,
						"contract": "contracts/IERC1155/ERC1155.sol:ERC1155",
						"label": "symbol",
						"offset": 0,
						"slot": "1",
						"type": "t_string_storage"
					},
					{
						"astId": 290,
						"contract": "contracts/IERC1155/ERC1155.sol:ERC1155",
						"label": "_balances",
						"offset": 0,
						"slot": "2",
						"type": "t_mapping(t_uint256,t_mapping(t_address,t_uint256))"
					},
					{
						"astId": 296,
						"contract": "contracts/IERC1155/ERC1155.sol:ERC1155",
						"label": "_operatorApprovals",
						"offset": 0,
						"slot": "3",
						"type": "t_mapping(t_address,t_mapping(t_address,t_bool))"
					}
				],
				"types": {
					"t_address": {
						"encoding": "inplace",
						"label": "address",
						"numberOfBytes": "20"
					},
					"t_bool": {
						"encoding": "inplace",
						"label": "bool",
						"numberOfBytes": "1"
					},
					"t_mapping(t_address,t_bool)": {
						"encoding": "mapping",
						"key": "t_address",
						"label": "mapping(address => bool)",
						"numberOfBytes": "32",
						"value": "t_bool"
					},
					"t_mapping(t_address,t_mapping(t_address,t_bool))": {
						"encoding": "mapping",
						"key": "t_address",
						"label": "mapping(address => mapping(address => bool))",
						"numberOfBytes": "32",
						"value": "t_mapping(t_address,t_bool)"
					},
					"t_mapping(t_address,t_uint256)": {
						"encoding": "mapping",
						"key": "t_address",
						"label": "mapping(address => uint256)",
						"numberOfBytes": "32",
						"value": "t_uint256"
					},
					"t_mapping(t_uint256,t_mapping(t_address,t_uint256))": {
						"encoding": "mapping",
						"key": "t_uint256",
						"label": "mapping(uint256 => mapping(address => uint256))",
						"numberOfBytes": "32",
						"value": "t_mapping(t_address,t_uint256)"
					},
					"t_string_storage": {
						"encoding": "bytes",
						"label": "string",
						"numberOfBytes": "32"
					},
					"t_uint256": {
						"encoding": "inplace",
						"label": "uint256",
						"numberOfBytes": "32"
					}
				}
			},
			"userdoc": {
				"kind": "user",
				"methods": {
					"constructor": {
						"notice": "构造函数，初始化`name` 和`symbol`, uri_"
					}
				},
				"version": 1
			}
		}
	}
}