{
	"contracts/103.sol": {
		"Airdrop": {
			"abi": [
				{
					"inputs": [
						{
							"internalType": "uint256[]",
							"name": "_arr",
							"type": "uint256[]"
						}
					],
					"name": "getSum",
					"outputs": [
						{
							"internalType": "uint256",
							"name": "sum",
							"type": "uint256"
						}
					],
					"stateMutability": "pure",
					"type": "function"
				},
				{
					"inputs": [
						{
							"internalType": "address payable[]",
							"name": "_addresses",
							"type": "address[]"
						},
						{
							"internalType": "uint256[]",
							"name": "_amounts",
							"type": "uint256[]"
						}
					],
					"name": "multiTransETH",
					"outputs": [],
					"stateMutability": "payable",
					"type": "function"
				},
				{
					"inputs": [
						{
							"internalType": "address",
							"name": "_token",
							"type": "address"
						},
						{
							"internalType": "address[]",
							"name": "_addresses",
							"type": "address[]"
						},
						{
							"internalType": "uint256[]",
							"name": "_amounts",
							"type": "uint256[]"
						}
					],
					"name": "multiTransferToken",
					"outputs": [],
					"stateMutability": "nonpayable",
					"type": "function"
				}
			],
			"devdoc": {
				"kind": "dev",
				"methods": {},
				"version": 1
			},
			"evm": {
				"assembly": "    /* \"contracts/103.sol\":3861:6191  contract Airdrop{... */\n  mstore(0x40, 0x80)\n  callvalue\n  dup1\n  iszero\n  tag_1\n  jumpi\n  0x00\n  dup1\n  revert\ntag_1:\n  pop\n  dataSize(sub_0)\n  dup1\n  dataOffset(sub_0)\n  0x00\n  codecopy\n  0x00\n  return\nstop\n\nsub_0: assembly {\n        /* \"contracts/103.sol\":3861:6191  contract Airdrop{... */\n      mstore(0x40, 0x80)\n      jumpi(tag_1, lt(calldatasize, 0x04))\n      shr(0xe0, calldataload(0x00))\n      dup1\n      0x41ed24a2\n      eq\n      tag_2\n      jumpi\n      dup1\n      0x48d26ade\n      eq\n      tag_3\n      jumpi\n      dup1\n      0xccb8c1e0\n      eq\n      tag_4\n      jumpi\n    tag_1:\n      0x00\n      dup1\n      revert\n        /* \"contracts/103.sol\":4214:5045  function multiTransferToken(... */\n    tag_2:\n      callvalue\n      dup1\n      iszero\n      tag_5\n      jumpi\n      0x00\n      dup1\n      revert\n    tag_5:\n      pop\n      tag_6\n      0x04\n      dup1\n      calldatasize\n      sub\n      dup2\n      add\n      swap1\n      tag_7\n      swap2\n      swap1\n      tag_8\n      jump\t// in\n    tag_7:\n      tag_9\n      jump\t// in\n    tag_6:\n      stop\n        /* \"contracts/103.sol\":5090:6188  function multiTransETH(... */\n    tag_3:\n      tag_10\n      0x04\n      dup1\n      calldatasize\n      sub\n      dup2\n      add\n      swap1\n      tag_11\n      swap2\n      swap1\n      tag_12\n      jump\t// in\n    tag_11:\n      tag_13\n      jump\t// in\n    tag_10:\n      stop\n        /* \"contracts/103.sol\":3973:4144  function getSum(uint256[] calldata _arr) public pure returns(uint sum){... */\n    tag_4:\n      callvalue\n      dup1\n      iszero\n      tag_14\n      jumpi\n      0x00\n      dup1\n      revert\n    tag_14:\n      pop\n      tag_15\n      0x04\n      dup1\n      calldatasize\n      sub\n      dup2\n      add\n      swap1\n      tag_16\n      swap2\n      swap1\n      tag_17\n      jump\t// in\n    tag_16:\n      tag_18\n      jump\t// in\n    tag_15:\n      mload(0x40)\n      tag_19\n      swap2\n      swap1\n      tag_20\n      jump\t// in\n    tag_19:\n      mload(0x40)\n      dup1\n      swap2\n      sub\n      swap1\n      return\n        /* \"contracts/103.sol\":4214:5045  function multiTransferToken(... */\n    tag_9:\n        /* \"contracts/103.sol\":4532:4540  _amounts */\n      dup2\n      dup2\n        /* \"contracts/103.sol\":4532:4547  _amounts.length */\n      swap1\n      pop\n        /* \"contracts/103.sol\":4511:4521  _addresses */\n      dup5\n      dup5\n        /* \"contracts/103.sol\":4511:4528  _addresses.length */\n      swap1\n      pop\n        /* \"contracts/103.sol\":4511:4547  _addresses.length == _amounts.length */\n      eq\n        /* \"contracts/103.sol\":4503:4594  require(_addresses.length == _amounts.length, \"length of addresses and amounts not equal!\") */\n      tag_22\n      jumpi\n      mload(0x40)\n      0x08c379a000000000000000000000000000000000000000000000000000000000\n      dup2\n      mstore\n      0x04\n      add\n      tag_23\n      swap1\n      tag_24\n      jump\t// in\n    tag_23:\n      mload(0x40)\n      dup1\n      swap2\n      sub\n      swap1\n      revert\n    tag_22:\n        /* \"contracts/103.sol\":4605:4617  IERC20 token */\n      0x00\n        /* \"contracts/103.sol\":4627:4633  _token */\n      dup6\n        /* \"contracts/103.sol\":4605:4634  IERC20 token = IERC20(_token) */\n      swap1\n      pop\n        /* \"contracts/103.sol\":4686:4701  uint _amountSum */\n      0x00\n        /* \"contracts/103.sol\":4704:4720  getSum(_amounts) */\n      tag_25\n        /* \"contracts/103.sol\":4711:4719  _amounts */\n      dup5\n      dup5\n        /* \"contracts/103.sol\":4704:4710  getSum */\n      tag_18\n        /* \"contracts/103.sol\":4704:4720  getSum(_amounts) */\n      jump\t// in\n    tag_25:\n        /* \"contracts/103.sol\":4686:4720  uint _amountSum = getSum(_amounts) */\n      swap1\n      pop\n        /* \"contracts/103.sol\":4867:4877  _amountSum */\n      dup1\n        /* \"contracts/103.sol\":4822:4827  token */\n      dup3\n        /* \"contracts/103.sol\":4822:4837  token.allowance */\n      0xffffffffffffffffffffffffffffffffffffffff\n      and\n      0xdd62ed3e\n        /* \"contracts/103.sol\":4838:4848  msg.sender */\n      caller\n        /* \"contracts/103.sol\":4858:4862  this */\n      address\n        /* \"contracts/103.sol\":4822:4864  token.allowance(msg.sender, address(this)) */\n      mload(0x40)\n      dup4\n      0xffffffff\n      and\n      0xe0\n      shl\n      dup2\n      mstore\n      0x04\n      add\n      tag_26\n      swap3\n      swap2\n      swap1\n      tag_27\n      jump\t// in\n    tag_26:\n      0x20\n      mload(0x40)\n      dup1\n      dup4\n      sub\n      dup2\n      dup7\n      gas\n      staticcall\n      iszero\n      dup1\n      iszero\n      tag_29\n      jumpi\n      returndatasize\n      0x00\n      dup1\n      returndatacopy\n      revert(0x00, returndatasize)\n    tag_29:\n      pop\n      pop\n      pop\n      pop\n      mload(0x40)\n      returndatasize\n      not(0x1f)\n      0x1f\n      dup3\n      add\n      and\n      dup3\n      add\n      dup1\n      0x40\n      mstore\n      pop\n      dup2\n      add\n      swap1\n      tag_30\n      swap2\n      swap1\n      tag_31\n      jump\t// in\n    tag_30:\n        /* \"contracts/103.sol\":4822:4877  token.allowance(msg.sender, address(this))>= _amountSum */\n      lt\n      iszero\n        /* \"contracts/103.sol\":4814:4900  require(token.allowance(msg.sender, address(this))>= _amountSum, \"need approve token\") */\n      tag_32\n      jumpi\n      mload(0x40)\n      0x08c379a000000000000000000000000000000000000000000000000000000000\n      dup2\n      mstore\n      0x04\n      add\n      tag_33\n      swap1\n      tag_34\n      jump\t// in\n    tag_33:\n      mload(0x40)\n      dup1\n      swap2\n      sub\n      swap1\n      revert\n    tag_32:\n        /* \"contracts/103.sol\":4917:4924  uint8 i */\n      0x00\n        /* \"contracts/103.sol\":4913:5038  for(uint8 i; i < _addresses.length; i++){... */\n    tag_35:\n        /* \"contracts/103.sol\":4930:4940  _addresses */\n      dup7\n      dup7\n        /* \"contracts/103.sol\":4930:4947  _addresses.length */\n      swap1\n      pop\n        /* \"contracts/103.sol\":4926:4927  i */\n      dup2\n        /* \"contracts/103.sol\":4926:4947  i < _addresses.length */\n      0xff\n      and\n      lt\n        /* \"contracts/103.sol\":4913:5038  for(uint8 i; i < _addresses.length; i++){... */\n      iszero\n      tag_36\n      jumpi\n        /* \"contracts/103.sol\":4968:4973  token */\n      dup3\n        /* \"contracts/103.sol\":4968:4986  token.transferFrom */\n      0xffffffffffffffffffffffffffffffffffffffff\n      and\n      0x23b872dd\n        /* \"contracts/103.sol\":4987:4997  msg.sender */\n      caller\n        /* \"contracts/103.sol\":4999:5009  _addresses */\n      dup10\n      dup10\n        /* \"contracts/103.sol\":5010:5011  i */\n      dup6\n        /* \"contracts/103.sol\":4999:5012  _addresses[i] */\n      0xff\n      and\n      dup2\n      dup2\n      lt\n      tag_38\n      jumpi\n      tag_39\n      tag_40\n      jump\t// in\n    tag_39:\n    tag_38:\n      swap1\n      pop\n      0x20\n      mul\n      add\n      0x20\n      dup2\n      add\n      swap1\n      tag_41\n      swap2\n      swap1\n      tag_42\n      jump\t// in\n    tag_41:\n        /* \"contracts/103.sol\":5014:5022  _amounts */\n      dup9\n      dup9\n        /* \"contracts/103.sol\":5023:5024  i */\n      dup7\n        /* \"contracts/103.sol\":5014:5025  _amounts[i] */\n      0xff\n      and\n      dup2\n      dup2\n      lt\n      tag_43\n      jumpi\n      tag_44\n      tag_40\n      jump\t// in\n    tag_44:\n    tag_43:\n      swap1\n      pop\n      0x20\n      mul\n      add\n      calldataload\n        /* \"contracts/103.sol\":4968:5026  token.transferFrom(msg.sender, _addresses[i], _amounts[i]) */\n      mload(0x40)\n      dup5\n      0xffffffff\n      and\n      0xe0\n      shl\n      dup2\n      mstore\n      0x04\n      add\n      tag_45\n      swap4\n      swap3\n      swap2\n      swap1\n      tag_46\n      jump\t// in\n    tag_45:\n      0x20\n      mload(0x40)\n      dup1\n      dup4\n      sub\n      dup2\n      0x00\n      dup8\n      gas\n      call\n      iszero\n      dup1\n      iszero\n      tag_48\n      jumpi\n      returndatasize\n      0x00\n      dup1\n      returndatacopy\n      revert(0x00, returndatasize)\n    tag_48:\n      pop\n      pop\n      pop\n      pop\n      mload(0x40)\n      returndatasize\n      not(0x1f)\n      0x1f\n      dup3\n      add\n      and\n      dup3\n      add\n      dup1\n      0x40\n      mstore\n      pop\n      dup2\n      add\n      swap1\n      tag_49\n      swap2\n      swap1\n      tag_50\n      jump\t// in\n    tag_49:\n      pop\n        /* \"contracts/103.sol\":4949:4952  i++ */\n      dup1\n      dup1\n      tag_51\n      swap1\n      tag_52\n      jump\t// in\n    tag_51:\n      swap2\n      pop\n      pop\n        /* \"contracts/103.sol\":4913:5038  for(uint8 i; i < _addresses.length; i++){... */\n      jump(tag_35)\n    tag_36:\n      pop\n        /* \"contracts/103.sol\":4428:5045  {... */\n      pop\n      pop\n        /* \"contracts/103.sol\":4214:5045  function multiTransferToken(... */\n      pop\n      pop\n      pop\n      pop\n      pop\n      jump\t// out\n        /* \"contracts/103.sol\":5090:6188  function multiTransETH(... */\n    tag_13:\n        /* \"contracts/103.sol\":5334:5342  _amounts */\n      dup2\n      dup2\n        /* \"contracts/103.sol\":5334:5349  _amounts.length */\n      swap1\n      pop\n        /* \"contracts/103.sol\":5313:5323  _addresses */\n      dup5\n      dup5\n        /* \"contracts/103.sol\":5313:5330  _addresses.length */\n      swap1\n      pop\n        /* \"contracts/103.sol\":5313:5349  _addresses.length == _amounts.length */\n      eq\n        /* \"contracts/103.sol\":5305:5396  require(_addresses.length == _amounts.length, \"Lengths of Addresses and Amounts NOT EQUAL\") */\n      tag_54\n      jumpi\n      mload(0x40)\n      0x08c379a000000000000000000000000000000000000000000000000000000000\n      dup2\n      mstore\n      0x04\n      add\n      tag_55\n      swap1\n      tag_56\n      jump\t// in\n    tag_55:\n      mload(0x40)\n      dup1\n      swap2\n      sub\n      swap1\n      revert\n    tag_54:\n        /* \"contracts/103.sol\":5411:5426  uint _amountSum */\n      0x00\n        /* \"contracts/103.sol\":5429:5445  getSum(_amounts) */\n      tag_57\n        /* \"contracts/103.sol\":5436:5444  _amounts */\n      dup4\n      dup4\n        /* \"contracts/103.sol\":5429:5435  getSum */\n      tag_18\n        /* \"contracts/103.sol\":5429:5445  getSum(_amounts) */\n      jump\t// in\n    tag_57:\n        /* \"contracts/103.sol\":5411:5445  uint _amountSum = getSum(_amounts) */\n      swap1\n      pop\n        /* \"contracts/103.sol\":5574:5584  _amountSum */\n      dup1\n        /* \"contracts/103.sol\":5561:5570  msg.value */\n      callvalue\n        /* \"contracts/103.sol\":5561:5584  msg.value == _amountSum */\n      eq\n        /* \"contracts/103.sol\":5553:5610  require(msg.value == _amountSum, \"transfer amount error\") */\n      tag_58\n      jumpi\n      mload(0x40)\n      0x08c379a000000000000000000000000000000000000000000000000000000000\n      dup2\n      mstore\n      0x04\n      add\n      tag_59\n      swap1\n      tag_60\n      jump\t// in\n    tag_59:\n      mload(0x40)\n      dup1\n      swap2\n      sub\n      swap1\n      revert\n    tag_58:\n        /* \"contracts/103.sol\":5671:5677  uint i */\n      0x00\n        /* \"contracts/103.sol\":5666:6181  for (uint i=0; i< _addresses.length; i++){... */\n    tag_61:\n        /* \"contracts/103.sol\":5684:5694  _addresses */\n      dup6\n      dup6\n        /* \"contracts/103.sol\":5684:5701  _addresses.length */\n      swap1\n      pop\n        /* \"contracts/103.sol\":5681:5682  i */\n      dup2\n        /* \"contracts/103.sol\":5681:5701  i< _addresses.length */\n      lt\n        /* \"contracts/103.sol\":5666:6181  for (uint i=0; i< _addresses.length; i++){... */\n      iszero\n      tag_62\n      jumpi\n        /* \"contracts/103.sol\":5987:5999  bool success */\n      0x00\n        /* \"contracts/103.sol\":6005:6015  _addresses */\n      dup7\n      dup7\n        /* \"contracts/103.sol\":6016:6017  i */\n      dup4\n        /* \"contracts/103.sol\":6005:6018  _addresses[i] */\n      dup2\n      dup2\n      lt\n      tag_64\n      jumpi\n      tag_65\n      tag_40\n      jump\t// in\n    tag_65:\n    tag_64:\n      swap1\n      pop\n      0x20\n      mul\n      add\n      0x20\n      dup2\n      add\n      swap1\n      tag_66\n      swap2\n      swap1\n      tag_67\n      jump\t// in\n    tag_66:\n        /* \"contracts/103.sol\":6005:6023  _addresses[i].call */\n      0xffffffffffffffffffffffffffffffffffffffff\n      and\n        /* \"contracts/103.sol\":6031:6039  _amounts */\n      dup6\n      dup6\n        /* \"contracts/103.sol\":6040:6041  i */\n      dup5\n        /* \"contracts/103.sol\":6031:6042  _amounts[i] */\n      dup2\n      dup2\n      lt\n      tag_68\n      jumpi\n      tag_69\n      tag_40\n      jump\t// in\n    tag_69:\n    tag_68:\n      swap1\n      pop\n      0x20\n      mul\n      add\n      calldataload\n        /* \"contracts/103.sol\":6005:6047  _addresses[i].call{value: _amounts[i]}(\"\") */\n      mload(0x40)\n      tag_70\n      swap1\n      tag_71\n      jump\t// in\n    tag_70:\n      0x00\n      mload(0x40)\n      dup1\n      dup4\n      sub\n      dup2\n      dup6\n      dup8\n      gas\n      call\n      swap3\n      pop\n      pop\n      pop\n      returndatasize\n      dup1\n      0x00\n      dup2\n      eq\n      tag_74\n      jumpi\n      mload(0x40)\n      swap2\n      pop\n      and(add(returndatasize, 0x3f), not(0x1f))\n      dup3\n      add\n      0x40\n      mstore\n      returndatasize\n      dup3\n      mstore\n      returndatasize\n      0x00\n      0x20\n      dup5\n      add\n      returndatacopy\n      jump(tag_73)\n    tag_74:\n      0x60\n      swap2\n      pop\n    tag_73:\n      pop\n        /* \"contracts/103.sol\":5986:6047  (bool success, ) = _addresses[i].call{value: _amounts[i]}(\"\") */\n      pop\n      swap1\n      pop\n        /* \"contracts/103.sol\":6070:6077  success */\n      dup1\n        /* \"contracts/103.sol\":6066:6166  if(!success){... */\n      tag_75\n      jumpi\n        /* \"contracts/103.sol\":6135:6143  _amounts */\n      dup5\n      dup5\n        /* \"contracts/103.sol\":6144:6145  i */\n      dup4\n        /* \"contracts/103.sol\":6135:6146  _amounts[i] */\n      dup2\n      dup2\n      lt\n      tag_76\n      jumpi\n      tag_77\n      tag_40\n      jump\t// in\n    tag_77:\n    tag_76:\n      swap1\n      pop\n      0x20\n      mul\n      add\n      calldataload\n        /* \"contracts/103.sol\":6101:6117  failTransferList */\n      0x00\n        /* \"contracts/103.sol\":6101:6132  failTransferList[_addresses[i]] */\n      dup1\n        /* \"contracts/103.sol\":6118:6128  _addresses */\n      dup10\n      dup10\n        /* \"contracts/103.sol\":6129:6130  i */\n      dup7\n        /* \"contracts/103.sol\":6118:6131  _addresses[i] */\n      dup2\n      dup2\n      lt\n      tag_78\n      jumpi\n      tag_79\n      tag_40\n      jump\t// in\n    tag_79:\n    tag_78:\n      swap1\n      pop\n      0x20\n      mul\n      add\n      0x20\n      dup2\n      add\n      swap1\n      tag_80\n      swap2\n      swap1\n      tag_67\n      jump\t// in\n    tag_80:\n        /* \"contracts/103.sol\":6101:6132  failTransferList[_addresses[i]] */\n      0xffffffffffffffffffffffffffffffffffffffff\n      and\n      0xffffffffffffffffffffffffffffffffffffffff\n      and\n      dup2\n      mstore\n      0x20\n      add\n      swap1\n      dup2\n      mstore\n      0x20\n      add\n      0x00\n      keccak256\n        /* \"contracts/103.sol\":6101:6146  failTransferList[_addresses[i]] = _amounts[i] */\n      dup2\n      swap1\n      sstore\n      pop\n        /* \"contracts/103.sol\":6066:6166  if(!success){... */\n    tag_75:\n        /* \"contracts/103.sol\":5707:6181  {... */\n      pop\n        /* \"contracts/103.sol\":5703:5706  i++ */\n      dup1\n      dup1\n      0x01\n      add\n      swap2\n      pop\n      pop\n        /* \"contracts/103.sol\":5666:6181  for (uint i=0; i< _addresses.length; i++){... */\n      jump(tag_61)\n    tag_62:\n      pop\n        /* \"contracts/103.sol\":5221:6188  {... */\n      pop\n        /* \"contracts/103.sol\":5090:6188  function multiTransETH(... */\n      pop\n      pop\n      pop\n      pop\n      jump\t// out\n        /* \"contracts/103.sol\":3973:4144  function getSum(uint256[] calldata _arr) public pure returns(uint sum){... */\n    tag_18:\n        /* \"contracts/103.sol\":4034:4042  uint sum */\n      0x00\n        /* \"contracts/103.sol\":4058:4064  uint i */\n      dup1\n        /* \"contracts/103.sol\":4067:4068  0 */\n      0x00\n        /* \"contracts/103.sol\":4058:4068  uint i = 0 */\n      swap1\n      pop\n        /* \"contracts/103.sol\":4054:4137  for(uint i = 0; i < _arr.length; i++){... */\n    tag_82:\n        /* \"contracts/103.sol\":4074:4078  _arr */\n      dup4\n      dup4\n        /* \"contracts/103.sol\":4074:4085  _arr.length */\n      swap1\n      pop\n        /* \"contracts/103.sol\":4070:4071  i */\n      dup2\n        /* \"contracts/103.sol\":4070:4085  i < _arr.length */\n      lt\n        /* \"contracts/103.sol\":4054:4137  for(uint i = 0; i < _arr.length; i++){... */\n      iszero\n      tag_83\n      jumpi\n        /* \"contracts/103.sol\":4118:4122  _arr */\n      dup4\n      dup4\n        /* \"contracts/103.sol\":4123:4124  i */\n      dup3\n        /* \"contracts/103.sol\":4118:4125  _arr[i] */\n      dup2\n      dup2\n      lt\n      tag_85\n      jumpi\n      tag_86\n      tag_40\n      jump\t// in\n    tag_86:\n    tag_85:\n      swap1\n      pop\n      0x20\n      mul\n      add\n      calldataload\n        /* \"contracts/103.sol\":4112:4115  sum */\n      dup3\n        /* \"contracts/103.sol\":4112:4125  sum + _arr[i] */\n      tag_87\n      swap2\n      swap1\n      tag_88\n      jump\t// in\n    tag_87:\n        /* \"contracts/103.sol\":4106:4125  sum = sum + _arr[i] */\n      swap2\n      pop\n        /* \"contracts/103.sol\":4087:4090  i++ */\n      dup1\n      dup1\n      0x01\n      add\n      swap2\n      pop\n      pop\n        /* \"contracts/103.sol\":4054:4137  for(uint i = 0; i < _arr.length; i++){... */\n      jump(tag_82)\n    tag_83:\n      pop\n        /* \"contracts/103.sol\":3973:4144  function getSum(uint256[] calldata _arr) public pure returns(uint sum){... */\n      swap3\n      swap2\n      pop\n      pop\n      jump\t// out\n        /* \"#utility.yul\":88:205   */\n    tag_90:\n        /* \"#utility.yul\":197:198   */\n      0x00\n        /* \"#utility.yul\":194:195   */\n      dup1\n        /* \"#utility.yul\":187:199   */\n      revert\n        /* \"#utility.yul\":211:328   */\n    tag_91:\n        /* \"#utility.yul\":320:321   */\n      0x00\n        /* \"#utility.yul\":317:318   */\n      dup1\n        /* \"#utility.yul\":310:322   */\n      revert\n        /* \"#utility.yul\":334:460   */\n    tag_92:\n        /* \"#utility.yul\":371:378   */\n      0x00\n        /* \"#utility.yul\":411:453   */\n      0xffffffffffffffffffffffffffffffffffffffff\n        /* \"#utility.yul\":404:409   */\n      dup3\n        /* \"#utility.yul\":400:454   */\n      and\n        /* \"#utility.yul\":389:454   */\n      swap1\n      pop\n        /* \"#utility.yul\":334:460   */\n      swap2\n      swap1\n      pop\n      jump\t// out\n        /* \"#utility.yul\":466:562   */\n    tag_93:\n        /* \"#utility.yul\":503:510   */\n      0x00\n        /* \"#utility.yul\":532:556   */\n      tag_133\n        /* \"#utility.yul\":550:555   */\n      dup3\n        /* \"#utility.yul\":532:556   */\n      tag_92\n      jump\t// in\n    tag_133:\n        /* \"#utility.yul\":521:556   */\n      swap1\n      pop\n        /* \"#utility.yul\":466:562   */\n      swap2\n      swap1\n      pop\n      jump\t// out\n        /* \"#utility.yul\":568:690   */\n    tag_94:\n        /* \"#utility.yul\":641:665   */\n      tag_135\n        /* \"#utility.yul\":659:664   */\n      dup2\n        /* \"#utility.yul\":641:665   */\n      tag_93\n      jump\t// in\n    tag_135:\n        /* \"#utility.yul\":634:639   */\n      dup2\n        /* \"#utility.yul\":631:666   */\n      eq\n        /* \"#utility.yul\":621:684   */\n      tag_136\n      jumpi\n        /* \"#utility.yul\":680:681   */\n      0x00\n        /* \"#utility.yul\":677:678   */\n      dup1\n        /* \"#utility.yul\":670:682   */\n      revert\n        /* \"#utility.yul\":621:684   */\n    tag_136:\n        /* \"#utility.yul\":568:690   */\n      pop\n      jump\t// out\n        /* \"#utility.yul\":696:835   */\n    tag_95:\n        /* \"#utility.yul\":742:747   */\n      0x00\n        /* \"#utility.yul\":780:786   */\n      dup2\n        /* \"#utility.yul\":767:787   */\n      calldataload\n        /* \"#utility.yul\":758:787   */\n      swap1\n      pop\n        /* \"#utility.yul\":796:829   */\n      tag_138\n        /* \"#utility.yul\":823:828   */\n      dup2\n        /* \"#utility.yul\":796:829   */\n      tag_94\n      jump\t// in\n    tag_138:\n        /* \"#utility.yul\":696:835   */\n      swap3\n      swap2\n      pop\n      pop\n      jump\t// out\n        /* \"#utility.yul\":841:958   */\n    tag_96:\n        /* \"#utility.yul\":950:951   */\n      0x00\n        /* \"#utility.yul\":947:948   */\n      dup1\n        /* \"#utility.yul\":940:952   */\n      revert\n        /* \"#utility.yul\":964:1081   */\n    tag_97:\n        /* \"#utility.yul\":1073:1074   */\n      0x00\n        /* \"#utility.yul\":1070:1071   */\n      dup1\n        /* \"#utility.yul\":1063:1075   */\n      revert\n        /* \"#utility.yul\":1087:1204   */\n    tag_98:\n        /* \"#utility.yul\":1196:1197   */\n      0x00\n        /* \"#utility.yul\":1193:1194   */\n      dup1\n        /* \"#utility.yul\":1186:1198   */\n      revert\n        /* \"#utility.yul\":1227:1795   */\n    tag_99:\n        /* \"#utility.yul\":1300:1308   */\n      0x00\n        /* \"#utility.yul\":1310:1316   */\n      dup1\n        /* \"#utility.yul\":1360:1363   */\n      dup4\n        /* \"#utility.yul\":1353:1357   */\n      0x1f\n        /* \"#utility.yul\":1345:1351   */\n      dup5\n        /* \"#utility.yul\":1341:1358   */\n      add\n        /* \"#utility.yul\":1337:1364   */\n      slt\n        /* \"#utility.yul\":1327:1449   */\n      tag_143\n      jumpi\n        /* \"#utility.yul\":1368:1447   */\n      tag_144\n      tag_96\n      jump\t// in\n    tag_144:\n        /* \"#utility.yul\":1327:1449   */\n    tag_143:\n        /* \"#utility.yul\":1481:1487   */\n      dup3\n        /* \"#utility.yul\":1468:1488   */\n      calldataload\n        /* \"#utility.yul\":1458:1488   */\n      swap1\n      pop\n        /* \"#utility.yul\":1511:1529   */\n      0xffffffffffffffff\n        /* \"#utility.yul\":1503:1509   */\n      dup2\n        /* \"#utility.yul\":1500:1530   */\n      gt\n        /* \"#utility.yul\":1497:1614   */\n      iszero\n      tag_145\n      jumpi\n        /* \"#utility.yul\":1533:1612   */\n      tag_146\n      tag_97\n      jump\t// in\n    tag_146:\n        /* \"#utility.yul\":1497:1614   */\n    tag_145:\n        /* \"#utility.yul\":1647:1651   */\n      0x20\n        /* \"#utility.yul\":1639:1645   */\n      dup4\n        /* \"#utility.yul\":1635:1652   */\n      add\n        /* \"#utility.yul\":1623:1652   */\n      swap2\n      pop\n        /* \"#utility.yul\":1701:1704   */\n      dup4\n        /* \"#utility.yul\":1693:1697   */\n      0x20\n        /* \"#utility.yul\":1685:1691   */\n      dup3\n        /* \"#utility.yul\":1681:1698   */\n      mul\n        /* \"#utility.yul\":1671:1679   */\n      dup4\n        /* \"#utility.yul\":1667:1699   */\n      add\n        /* \"#utility.yul\":1664:1705   */\n      gt\n        /* \"#utility.yul\":1661:1789   */\n      iszero\n      tag_147\n      jumpi\n        /* \"#utility.yul\":1708:1787   */\n      tag_148\n      tag_98\n      jump\t// in\n    tag_148:\n        /* \"#utility.yul\":1661:1789   */\n    tag_147:\n        /* \"#utility.yul\":1227:1795   */\n      swap3\n      pop\n      swap3\n      swap1\n      pop\n      jump\t// out\n        /* \"#utility.yul\":1818:2386   */\n    tag_100:\n        /* \"#utility.yul\":1891:1899   */\n      0x00\n        /* \"#utility.yul\":1901:1907   */\n      dup1\n        /* \"#utility.yul\":1951:1954   */\n      dup4\n        /* \"#utility.yul\":1944:1948   */\n      0x1f\n        /* \"#utility.yul\":1936:1942   */\n      dup5\n        /* \"#utility.yul\":1932:1949   */\n      add\n        /* \"#utility.yul\":1928:1955   */\n      slt\n        /* \"#utility.yul\":1918:2040   */\n      tag_150\n      jumpi\n        /* \"#utility.yul\":1959:2038   */\n      tag_151\n      tag_96\n      jump\t// in\n    tag_151:\n        /* \"#utility.yul\":1918:2040   */\n    tag_150:\n        /* \"#utility.yul\":2072:2078   */\n      dup3\n        /* \"#utility.yul\":2059:2079   */\n      calldataload\n        /* \"#utility.yul\":2049:2079   */\n      swap1\n      pop\n        /* \"#utility.yul\":2102:2120   */\n      0xffffffffffffffff\n        /* \"#utility.yul\":2094:2100   */\n      dup2\n        /* \"#utility.yul\":2091:2121   */\n      gt\n        /* \"#utility.yul\":2088:2205   */\n      iszero\n      tag_152\n      jumpi\n        /* \"#utility.yul\":2124:2203   */\n      tag_153\n      tag_97\n      jump\t// in\n    tag_153:\n        /* \"#utility.yul\":2088:2205   */\n    tag_152:\n        /* \"#utility.yul\":2238:2242   */\n      0x20\n        /* \"#utility.yul\":2230:2236   */\n      dup4\n        /* \"#utility.yul\":2226:2243   */\n      add\n        /* \"#utility.yul\":2214:2243   */\n      swap2\n      pop\n        /* \"#utility.yul\":2292:2295   */\n      dup4\n        /* \"#utility.yul\":2284:2288   */\n      0x20\n        /* \"#utility.yul\":2276:2282   */\n      dup3\n        /* \"#utility.yul\":2272:2289   */\n      mul\n        /* \"#utility.yul\":2262:2270   */\n      dup4\n        /* \"#utility.yul\":2258:2290   */\n      add\n        /* \"#utility.yul\":2255:2296   */\n      gt\n        /* \"#utility.yul\":2252:2380   */\n      iszero\n      tag_154\n      jumpi\n        /* \"#utility.yul\":2299:2378   */\n      tag_155\n      tag_98\n      jump\t// in\n    tag_155:\n        /* \"#utility.yul\":2252:2380   */\n    tag_154:\n        /* \"#utility.yul\":1818:2386   */\n      swap3\n      pop\n      swap3\n      swap1\n      pop\n      jump\t// out\n        /* \"#utility.yul\":2392:3471   */\n    tag_8:\n        /* \"#utility.yul\":2523:2529   */\n      0x00\n        /* \"#utility.yul\":2531:2537   */\n      dup1\n        /* \"#utility.yul\":2539:2545   */\n      0x00\n        /* \"#utility.yul\":2547:2553   */\n      dup1\n        /* \"#utility.yul\":2555:2561   */\n      0x00\n        /* \"#utility.yul\":2604:2606   */\n      0x60\n        /* \"#utility.yul\":2592:2601   */\n      dup7\n        /* \"#utility.yul\":2583:2590   */\n      dup9\n        /* \"#utility.yul\":2579:2602   */\n      sub\n        /* \"#utility.yul\":2575:2607   */\n      slt\n        /* \"#utility.yul\":2572:2691   */\n      iszero\n      tag_157\n      jumpi\n        /* \"#utility.yul\":2610:2689   */\n      tag_158\n      tag_90\n      jump\t// in\n    tag_158:\n        /* \"#utility.yul\":2572:2691   */\n    tag_157:\n        /* \"#utility.yul\":2730:2731   */\n      0x00\n        /* \"#utility.yul\":2755:2808   */\n      tag_159\n        /* \"#utility.yul\":2800:2807   */\n      dup9\n        /* \"#utility.yul\":2791:2797   */\n      dup3\n        /* \"#utility.yul\":2780:2789   */\n      dup10\n        /* \"#utility.yul\":2776:2798   */\n      add\n        /* \"#utility.yul\":2755:2808   */\n      tag_95\n      jump\t// in\n    tag_159:\n        /* \"#utility.yul\":2745:2808   */\n      swap6\n      pop\n        /* \"#utility.yul\":2701:2818   */\n      pop\n        /* \"#utility.yul\":2885:2887   */\n      0x20\n        /* \"#utility.yul\":2874:2883   */\n      dup7\n        /* \"#utility.yul\":2870:2888   */\n      add\n        /* \"#utility.yul\":2857:2889   */\n      calldataload\n        /* \"#utility.yul\":2916:2934   */\n      0xffffffffffffffff\n        /* \"#utility.yul\":2908:2914   */\n      dup2\n        /* \"#utility.yul\":2905:2935   */\n      gt\n        /* \"#utility.yul\":2902:3019   */\n      iszero\n      tag_160\n      jumpi\n        /* \"#utility.yul\":2938:3017   */\n      tag_161\n      tag_91\n      jump\t// in\n    tag_161:\n        /* \"#utility.yul\":2902:3019   */\n    tag_160:\n        /* \"#utility.yul\":3051:3131   */\n      tag_162\n        /* \"#utility.yul\":3123:3130   */\n      dup9\n        /* \"#utility.yul\":3114:3120   */\n      dup3\n        /* \"#utility.yul\":3103:3112   */\n      dup10\n        /* \"#utility.yul\":3099:3121   */\n      add\n        /* \"#utility.yul\":3051:3131   */\n      tag_99\n      jump\t// in\n    tag_162:\n        /* \"#utility.yul\":3033:3131   */\n      swap5\n      pop\n      swap5\n      pop\n        /* \"#utility.yul\":2828:3141   */\n      pop\n        /* \"#utility.yul\":3208:3210   */\n      0x40\n        /* \"#utility.yul\":3197:3206   */\n      dup7\n        /* \"#utility.yul\":3193:3211   */\n      add\n        /* \"#utility.yul\":3180:3212   */\n      calldataload\n        /* \"#utility.yul\":3239:3257   */\n      0xffffffffffffffff\n        /* \"#utility.yul\":3231:3237   */\n      dup2\n        /* \"#utility.yul\":3228:3258   */\n      gt\n        /* \"#utility.yul\":3225:3342   */\n      iszero\n      tag_163\n      jumpi\n        /* \"#utility.yul\":3261:3340   */\n      tag_164\n      tag_91\n      jump\t// in\n    tag_164:\n        /* \"#utility.yul\":3225:3342   */\n    tag_163:\n        /* \"#utility.yul\":3374:3454   */\n      tag_165\n        /* \"#utility.yul\":3446:3453   */\n      dup9\n        /* \"#utility.yul\":3437:3443   */\n      dup3\n        /* \"#utility.yul\":3426:3435   */\n      dup10\n        /* \"#utility.yul\":3422:3444   */\n      add\n        /* \"#utility.yul\":3374:3454   */\n      tag_100\n      jump\t// in\n    tag_165:\n        /* \"#utility.yul\":3356:3454   */\n      swap3\n      pop\n      swap3\n      pop\n        /* \"#utility.yul\":3151:3464   */\n      pop\n        /* \"#utility.yul\":2392:3471   */\n      swap3\n      swap6\n      pop\n      swap3\n      swap6\n      swap1\n      swap4\n      pop\n      jump\t// out\n        /* \"#utility.yul\":3502:4078   */\n    tag_101:\n        /* \"#utility.yul\":3583:3591   */\n      0x00\n        /* \"#utility.yul\":3593:3599   */\n      dup1\n        /* \"#utility.yul\":3643:3646   */\n      dup4\n        /* \"#utility.yul\":3636:3640   */\n      0x1f\n        /* \"#utility.yul\":3628:3634   */\n      dup5\n        /* \"#utility.yul\":3624:3641   */\n      add\n        /* \"#utility.yul\":3620:3647   */\n      slt\n        /* \"#utility.yul\":3610:3732   */\n      tag_167\n      jumpi\n        /* \"#utility.yul\":3651:3730   */\n      tag_168\n      tag_96\n      jump\t// in\n    tag_168:\n        /* \"#utility.yul\":3610:3732   */\n    tag_167:\n        /* \"#utility.yul\":3764:3770   */\n      dup3\n        /* \"#utility.yul\":3751:3771   */\n      calldataload\n        /* \"#utility.yul\":3741:3771   */\n      swap1\n      pop\n        /* \"#utility.yul\":3794:3812   */\n      0xffffffffffffffff\n        /* \"#utility.yul\":3786:3792   */\n      dup2\n        /* \"#utility.yul\":3783:3813   */\n      gt\n        /* \"#utility.yul\":3780:3897   */\n      iszero\n      tag_169\n      jumpi\n        /* \"#utility.yul\":3816:3895   */\n      tag_170\n      tag_97\n      jump\t// in\n    tag_170:\n        /* \"#utility.yul\":3780:3897   */\n    tag_169:\n        /* \"#utility.yul\":3930:3934   */\n      0x20\n        /* \"#utility.yul\":3922:3928   */\n      dup4\n        /* \"#utility.yul\":3918:3935   */\n      add\n        /* \"#utility.yul\":3906:3935   */\n      swap2\n      pop\n        /* \"#utility.yul\":3984:3987   */\n      dup4\n        /* \"#utility.yul\":3976:3980   */\n      0x20\n        /* \"#utility.yul\":3968:3974   */\n      dup3\n        /* \"#utility.yul\":3964:3981   */\n      mul\n        /* \"#utility.yul\":3954:3962   */\n      dup4\n        /* \"#utility.yul\":3950:3982   */\n      add\n        /* \"#utility.yul\":3947:3988   */\n      gt\n        /* \"#utility.yul\":3944:4072   */\n      iszero\n      tag_171\n      jumpi\n        /* \"#utility.yul\":3991:4070   */\n      tag_172\n      tag_98\n      jump\t// in\n    tag_172:\n        /* \"#utility.yul\":3944:4072   */\n    tag_171:\n        /* \"#utility.yul\":3502:4078   */\n      swap3\n      pop\n      swap3\n      swap1\n      pop\n      jump\t// out\n        /* \"#utility.yul\":4084:5034   */\n    tag_12:\n        /* \"#utility.yul\":4214:4220   */\n      0x00\n        /* \"#utility.yul\":4222:4228   */\n      dup1\n        /* \"#utility.yul\":4230:4236   */\n      0x00\n        /* \"#utility.yul\":4238:4244   */\n      dup1\n        /* \"#utility.yul\":4287:4289   */\n      0x40\n        /* \"#utility.yul\":4275:4284   */\n      dup6\n        /* \"#utility.yul\":4266:4273   */\n      dup8\n        /* \"#utility.yul\":4262:4285   */\n      sub\n        /* \"#utility.yul\":4258:4290   */\n      slt\n        /* \"#utility.yul\":4255:4374   */\n      iszero\n      tag_174\n      jumpi\n        /* \"#utility.yul\":4293:4372   */\n      tag_175\n      tag_90\n      jump\t// in\n    tag_175:\n        /* \"#utility.yul\":4255:4374   */\n    tag_174:\n        /* \"#utility.yul\":4441:4442   */\n      0x00\n        /* \"#utility.yul\":4430:4439   */\n      dup6\n        /* \"#utility.yul\":4426:4443   */\n      add\n        /* \"#utility.yul\":4413:4444   */\n      calldataload\n        /* \"#utility.yul\":4471:4489   */\n      0xffffffffffffffff\n        /* \"#utility.yul\":4463:4469   */\n      dup2\n        /* \"#utility.yul\":4460:4490   */\n      gt\n        /* \"#utility.yul\":4457:4574   */\n      iszero\n      tag_176\n      jumpi\n        /* \"#utility.yul\":4493:4572   */\n      tag_177\n      tag_91\n      jump\t// in\n    tag_177:\n        /* \"#utility.yul\":4457:4574   */\n    tag_176:\n        /* \"#utility.yul\":4606:4694   */\n      tag_178\n        /* \"#utility.yul\":4686:4693   */\n      dup8\n        /* \"#utility.yul\":4677:4683   */\n      dup3\n        /* \"#utility.yul\":4666:4675   */\n      dup9\n        /* \"#utility.yul\":4662:4684   */\n      add\n        /* \"#utility.yul\":4606:4694   */\n      tag_101\n      jump\t// in\n    tag_178:\n        /* \"#utility.yul\":4588:4694   */\n      swap5\n      pop\n      swap5\n      pop\n        /* \"#utility.yul\":4384:4704   */\n      pop\n        /* \"#utility.yul\":4771:4773   */\n      0x20\n        /* \"#utility.yul\":4760:4769   */\n      dup6\n        /* \"#utility.yul\":4756:4774   */\n      add\n        /* \"#utility.yul\":4743:4775   */\n      calldataload\n        /* \"#utility.yul\":4802:4820   */\n      0xffffffffffffffff\n        /* \"#utility.yul\":4794:4800   */\n      dup2\n        /* \"#utility.yul\":4791:4821   */\n      gt\n        /* \"#utility.yul\":4788:4905   */\n      iszero\n      tag_179\n      jumpi\n        /* \"#utility.yul\":4824:4903   */\n      tag_180\n      tag_91\n      jump\t// in\n    tag_180:\n        /* \"#utility.yul\":4788:4905   */\n    tag_179:\n        /* \"#utility.yul\":4937:5017   */\n      tag_181\n        /* \"#utility.yul\":5009:5016   */\n      dup8\n        /* \"#utility.yul\":5000:5006   */\n      dup3\n        /* \"#utility.yul\":4989:4998   */\n      dup9\n        /* \"#utility.yul\":4985:5007   */\n      add\n        /* \"#utility.yul\":4937:5017   */\n      tag_100\n      jump\t// in\n    tag_181:\n        /* \"#utility.yul\":4919:5017   */\n      swap3\n      pop\n      swap3\n      pop\n        /* \"#utility.yul\":4714:5027   */\n      pop\n        /* \"#utility.yul\":4084:5034   */\n      swap3\n      swap6\n      swap2\n      swap5\n      pop\n      swap3\n      pop\n      jump\t// out\n        /* \"#utility.yul\":5040:5599   */\n    tag_17:\n        /* \"#utility.yul\":5126:5132   */\n      0x00\n        /* \"#utility.yul\":5134:5140   */\n      dup1\n        /* \"#utility.yul\":5183:5185   */\n      0x20\n        /* \"#utility.yul\":5171:5180   */\n      dup4\n        /* \"#utility.yul\":5162:5169   */\n      dup6\n        /* \"#utility.yul\":5158:5181   */\n      sub\n        /* \"#utility.yul\":5154:5186   */\n      slt\n        /* \"#utility.yul\":5151:5270   */\n      iszero\n      tag_183\n      jumpi\n        /* \"#utility.yul\":5189:5268   */\n      tag_184\n      tag_90\n      jump\t// in\n    tag_184:\n        /* \"#utility.yul\":5151:5270   */\n    tag_183:\n        /* \"#utility.yul\":5337:5338   */\n      0x00\n        /* \"#utility.yul\":5326:5335   */\n      dup4\n        /* \"#utility.yul\":5322:5339   */\n      add\n        /* \"#utility.yul\":5309:5340   */\n      calldataload\n        /* \"#utility.yul\":5367:5385   */\n      0xffffffffffffffff\n        /* \"#utility.yul\":5359:5365   */\n      dup2\n        /* \"#utility.yul\":5356:5386   */\n      gt\n        /* \"#utility.yul\":5353:5470   */\n      iszero\n      tag_185\n      jumpi\n        /* \"#utility.yul\":5389:5468   */\n      tag_186\n      tag_91\n      jump\t// in\n    tag_186:\n        /* \"#utility.yul\":5353:5470   */\n    tag_185:\n        /* \"#utility.yul\":5502:5582   */\n      tag_187\n        /* \"#utility.yul\":5574:5581   */\n      dup6\n        /* \"#utility.yul\":5565:5571   */\n      dup3\n        /* \"#utility.yul\":5554:5563   */\n      dup7\n        /* \"#utility.yul\":5550:5572   */\n      add\n        /* \"#utility.yul\":5502:5582   */\n      tag_100\n      jump\t// in\n    tag_187:\n        /* \"#utility.yul\":5484:5582   */\n      swap3\n      pop\n      swap3\n      pop\n        /* \"#utility.yul\":5280:5592   */\n      pop\n        /* \"#utility.yul\":5040:5599   */\n      swap3\n      pop\n      swap3\n      swap1\n      pop\n      jump\t// out\n        /* \"#utility.yul\":5605:5682   */\n    tag_102:\n        /* \"#utility.yul\":5642:5649   */\n      0x00\n        /* \"#utility.yul\":5671:5676   */\n      dup2\n        /* \"#utility.yul\":5660:5676   */\n      swap1\n      pop\n        /* \"#utility.yul\":5605:5682   */\n      swap2\n      swap1\n      pop\n      jump\t// out\n        /* \"#utility.yul\":5688:5806   */\n    tag_103:\n        /* \"#utility.yul\":5775:5799   */\n      tag_190\n        /* \"#utility.yul\":5793:5798   */\n      dup2\n        /* \"#utility.yul\":5775:5799   */\n      tag_102\n      jump\t// in\n    tag_190:\n        /* \"#utility.yul\":5770:5773   */\n      dup3\n        /* \"#utility.yul\":5763:5800   */\n      mstore\n        /* \"#utility.yul\":5688:5806   */\n      pop\n      pop\n      jump\t// out\n        /* \"#utility.yul\":5812:6034   */\n    tag_20:\n        /* \"#utility.yul\":5905:5909   */\n      0x00\n        /* \"#utility.yul\":5943:5945   */\n      0x20\n        /* \"#utility.yul\":5932:5941   */\n      dup3\n        /* \"#utility.yul\":5928:5946   */\n      add\n        /* \"#utility.yul\":5920:5946   */\n      swap1\n      pop\n        /* \"#utility.yul\":5956:6027   */\n      tag_192\n        /* \"#utility.yul\":6024:6025   */\n      0x00\n        /* \"#utility.yul\":6013:6022   */\n      dup4\n        /* \"#utility.yul\":6009:6026   */\n      add\n        /* \"#utility.yul\":6000:6006   */\n      dup5\n        /* \"#utility.yul\":5956:6027   */\n      tag_103\n      jump\t// in\n    tag_192:\n        /* \"#utility.yul\":5812:6034   */\n      swap3\n      swap2\n      pop\n      pop\n      jump\t// out\n        /* \"#utility.yul\":6040:6209   */\n    tag_104:\n        /* \"#utility.yul\":6124:6135   */\n      0x00\n        /* \"#utility.yul\":6158:6164   */\n      dup3\n        /* \"#utility.yul\":6153:6156   */\n      dup3\n        /* \"#utility.yul\":6146:6165   */\n      mstore\n        /* \"#utility.yul\":6198:6202   */\n      0x20\n        /* \"#utility.yul\":6193:6196   */\n      dup3\n        /* \"#utility.yul\":6189:6203   */\n      add\n        /* \"#utility.yul\":6174:6203   */\n      swap1\n      pop\n        /* \"#utility.yul\":6040:6209   */\n      swap3\n      swap2\n      pop\n      pop\n      jump\t// out\n        /* \"#utility.yul\":6215:6444   */\n    tag_105:\n        /* \"#utility.yul\":6355:6389   */\n      0x6c656e677468206f662061646472657373657320616e6420616d6f756e747320\n        /* \"#utility.yul\":6351:6352   */\n      0x00\n        /* \"#utility.yul\":6343:6349   */\n      dup3\n        /* \"#utility.yul\":6339:6353   */\n      add\n        /* \"#utility.yul\":6332:6390   */\n      mstore\n        /* \"#utility.yul\":6424:6436   */\n      0x6e6f7420657175616c2100000000000000000000000000000000000000000000\n        /* \"#utility.yul\":6419:6421   */\n      0x20\n        /* \"#utility.yul\":6411:6417   */\n      dup3\n        /* \"#utility.yul\":6407:6422   */\n      add\n        /* \"#utility.yul\":6400:6437   */\n      mstore\n        /* \"#utility.yul\":6215:6444   */\n      pop\n      jump\t// out\n        /* \"#utility.yul\":6450:6816   */\n    tag_106:\n        /* \"#utility.yul\":6592:6595   */\n      0x00\n        /* \"#utility.yul\":6613:6680   */\n      tag_196\n        /* \"#utility.yul\":6677:6679   */\n      0x2a\n        /* \"#utility.yul\":6672:6675   */\n      dup4\n        /* \"#utility.yul\":6613:6680   */\n      tag_104\n      jump\t// in\n    tag_196:\n        /* \"#utility.yul\":6606:6680   */\n      swap2\n      pop\n        /* \"#utility.yul\":6689:6782   */\n      tag_197\n        /* \"#utility.yul\":6778:6781   */\n      dup3\n        /* \"#utility.yul\":6689:6782   */\n      tag_105\n      jump\t// in\n    tag_197:\n        /* \"#utility.yul\":6807:6809   */\n      0x40\n        /* \"#utility.yul\":6802:6805   */\n      dup3\n        /* \"#utility.yul\":6798:6810   */\n      add\n        /* \"#utility.yul\":6791:6810   */\n      swap1\n      pop\n        /* \"#utility.yul\":6450:6816   */\n      swap2\n      swap1\n      pop\n      jump\t// out\n        /* \"#utility.yul\":6822:7241   */\n    tag_24:\n        /* \"#utility.yul\":6988:6992   */\n      0x00\n        /* \"#utility.yul\":7026:7028   */\n      0x20\n        /* \"#utility.yul\":7015:7024   */\n      dup3\n        /* \"#utility.yul\":7011:7029   */\n      add\n        /* \"#utility.yul\":7003:7029   */\n      swap1\n      pop\n        /* \"#utility.yul\":7075:7084   */\n      dup2\n        /* \"#utility.yul\":7069:7073   */\n      dup2\n        /* \"#utility.yul\":7065:7085   */\n      sub\n        /* \"#utility.yul\":7061:7062   */\n      0x00\n        /* \"#utility.yul\":7050:7059   */\n      dup4\n        /* \"#utility.yul\":7046:7063   */\n      add\n        /* \"#utility.yul\":7039:7086   */\n      mstore\n        /* \"#utility.yul\":7103:7234   */\n      tag_199\n        /* \"#utility.yul\":7229:7233   */\n      dup2\n        /* \"#utility.yul\":7103:7234   */\n      tag_106\n      jump\t// in\n    tag_199:\n        /* \"#utility.yul\":7095:7234   */\n      swap1\n      pop\n        /* \"#utility.yul\":6822:7241   */\n      swap2\n      swap1\n      pop\n      jump\t// out\n        /* \"#utility.yul\":7247:7365   */\n    tag_107:\n        /* \"#utility.yul\":7334:7358   */\n      tag_201\n        /* \"#utility.yul\":7352:7357   */\n      dup2\n        /* \"#utility.yul\":7334:7358   */\n      tag_93\n      jump\t// in\n    tag_201:\n        /* \"#utility.yul\":7329:7332   */\n      dup3\n        /* \"#utility.yul\":7322:7359   */\n      mstore\n        /* \"#utility.yul\":7247:7365   */\n      pop\n      pop\n      jump\t// out\n        /* \"#utility.yul\":7371:7703   */\n    tag_27:\n        /* \"#utility.yul\":7492:7496   */\n      0x00\n        /* \"#utility.yul\":7530:7532   */\n      0x40\n        /* \"#utility.yul\":7519:7528   */\n      dup3\n        /* \"#utility.yul\":7515:7533   */\n      add\n        /* \"#utility.yul\":7507:7533   */\n      swap1\n      pop\n        /* \"#utility.yul\":7543:7614   */\n      tag_203\n        /* \"#utility.yul\":7611:7612   */\n      0x00\n        /* \"#utility.yul\":7600:7609   */\n      dup4\n        /* \"#utility.yul\":7596:7613   */\n      add\n        /* \"#utility.yul\":7587:7593   */\n      dup6\n        /* \"#utility.yul\":7543:7614   */\n      tag_107\n      jump\t// in\n    tag_203:\n        /* \"#utility.yul\":7624:7696   */\n      tag_204\n        /* \"#utility.yul\":7692:7694   */\n      0x20\n        /* \"#utility.yul\":7681:7690   */\n      dup4\n        /* \"#utility.yul\":7677:7695   */\n      add\n        /* \"#utility.yul\":7668:7674   */\n      dup5\n        /* \"#utility.yul\":7624:7696   */\n      tag_107\n      jump\t// in\n    tag_204:\n        /* \"#utility.yul\":7371:7703   */\n      swap4\n      swap3\n      pop\n      pop\n      pop\n      jump\t// out\n        /* \"#utility.yul\":7709:7831   */\n    tag_108:\n        /* \"#utility.yul\":7782:7806   */\n      tag_206\n        /* \"#utility.yul\":7800:7805   */\n      dup2\n        /* \"#utility.yul\":7782:7806   */\n      tag_102\n      jump\t// in\n    tag_206:\n        /* \"#utility.yul\":7775:7780   */\n      dup2\n        /* \"#utility.yul\":7772:7807   */\n      eq\n        /* \"#utility.yul\":7762:7825   */\n      tag_207\n      jumpi\n        /* \"#utility.yul\":7821:7822   */\n      0x00\n        /* \"#utility.yul\":7818:7819   */\n      dup1\n        /* \"#utility.yul\":7811:7823   */\n      revert\n        /* \"#utility.yul\":7762:7825   */\n    tag_207:\n        /* \"#utility.yul\":7709:7831   */\n      pop\n      jump\t// out\n        /* \"#utility.yul\":7837:7980   */\n    tag_109:\n        /* \"#utility.yul\":7894:7899   */\n      0x00\n        /* \"#utility.yul\":7925:7931   */\n      dup2\n        /* \"#utility.yul\":7919:7932   */\n      mload\n        /* \"#utility.yul\":7910:7932   */\n      swap1\n      pop\n        /* \"#utility.yul\":7941:7974   */\n      tag_209\n        /* \"#utility.yul\":7968:7973   */\n      dup2\n        /* \"#utility.yul\":7941:7974   */\n      tag_108\n      jump\t// in\n    tag_209:\n        /* \"#utility.yul\":7837:7980   */\n      swap3\n      swap2\n      pop\n      pop\n      jump\t// out\n        /* \"#utility.yul\":7986:8337   */\n    tag_31:\n        /* \"#utility.yul\":8056:8062   */\n      0x00\n        /* \"#utility.yul\":8105:8107   */\n      0x20\n        /* \"#utility.yul\":8093:8102   */\n      dup3\n        /* \"#utility.yul\":8084:8091   */\n      dup5\n        /* \"#utility.yul\":8080:8103   */\n      sub\n        /* \"#utility.yul\":8076:8108   */\n      slt\n        /* \"#utility.yul\":8073:8192   */\n      iszero\n      tag_211\n      jumpi\n        /* \"#utility.yul\":8111:8190   */\n      tag_212\n      tag_90\n      jump\t// in\n    tag_212:\n        /* \"#utility.yul\":8073:8192   */\n    tag_211:\n        /* \"#utility.yul\":8231:8232   */\n      0x00\n        /* \"#utility.yul\":8256:8320   */\n      tag_213\n        /* \"#utility.yul\":8312:8319   */\n      dup5\n        /* \"#utility.yul\":8303:8309   */\n      dup3\n        /* \"#utility.yul\":8292:8301   */\n      dup6\n        /* \"#utility.yul\":8288:8310   */\n      add\n        /* \"#utility.yul\":8256:8320   */\n      tag_109\n      jump\t// in\n    tag_213:\n        /* \"#utility.yul\":8246:8320   */\n      swap2\n      pop\n        /* \"#utility.yul\":8202:8330   */\n      pop\n        /* \"#utility.yul\":7986:8337   */\n      swap3\n      swap2\n      pop\n      pop\n      jump\t// out\n        /* \"#utility.yul\":8343:8511   */\n    tag_110:\n        /* \"#utility.yul\":8483:8503   */\n      0x6e65656420617070726f766520746f6b656e0000000000000000000000000000\n        /* \"#utility.yul\":8479:8480   */\n      0x00\n        /* \"#utility.yul\":8471:8477   */\n      dup3\n        /* \"#utility.yul\":8467:8481   */\n      add\n        /* \"#utility.yul\":8460:8504   */\n      mstore\n        /* \"#utility.yul\":8343:8511   */\n      pop\n      jump\t// out\n        /* \"#utility.yul\":8517:8883   */\n    tag_111:\n        /* \"#utility.yul\":8659:8662   */\n      0x00\n        /* \"#utility.yul\":8680:8747   */\n      tag_216\n        /* \"#utility.yul\":8744:8746   */\n      0x12\n        /* \"#utility.yul\":8739:8742   */\n      dup4\n        /* \"#utility.yul\":8680:8747   */\n      tag_104\n      jump\t// in\n    tag_216:\n        /* \"#utility.yul\":8673:8747   */\n      swap2\n      pop\n        /* \"#utility.yul\":8756:8849   */\n      tag_217\n        /* \"#utility.yul\":8845:8848   */\n      dup3\n        /* \"#utility.yul\":8756:8849   */\n      tag_110\n      jump\t// in\n    tag_217:\n        /* \"#utility.yul\":8874:8876   */\n      0x20\n        /* \"#utility.yul\":8869:8872   */\n      dup3\n        /* \"#utility.yul\":8865:8877   */\n      add\n        /* \"#utility.yul\":8858:8877   */\n      swap1\n      pop\n        /* \"#utility.yul\":8517:8883   */\n      swap2\n      swap1\n      pop\n      jump\t// out\n        /* \"#utility.yul\":8889:9308   */\n    tag_34:\n        /* \"#utility.yul\":9055:9059   */\n      0x00\n        /* \"#utility.yul\":9093:9095   */\n      0x20\n        /* \"#utility.yul\":9082:9091   */\n      dup3\n        /* \"#utility.yul\":9078:9096   */\n      add\n        /* \"#utility.yul\":9070:9096   */\n      swap1\n      pop\n        /* \"#utility.yul\":9142:9151   */\n      dup2\n        /* \"#utility.yul\":9136:9140   */\n      dup2\n        /* \"#utility.yul\":9132:9152   */\n      sub\n        /* \"#utility.yul\":9128:9129   */\n      0x00\n        /* \"#utility.yul\":9117:9126   */\n      dup4\n        /* \"#utility.yul\":9113:9130   */\n      add\n        /* \"#utility.yul\":9106:9153   */\n      mstore\n        /* \"#utility.yul\":9170:9301   */\n      tag_219\n        /* \"#utility.yul\":9296:9300   */\n      dup2\n        /* \"#utility.yul\":9170:9301   */\n      tag_111\n      jump\t// in\n    tag_219:\n        /* \"#utility.yul\":9162:9301   */\n      swap1\n      pop\n        /* \"#utility.yul\":8889:9308   */\n      swap2\n      swap1\n      pop\n      jump\t// out\n        /* \"#utility.yul\":9314:9494   */\n    tag_40:\n        /* \"#utility.yul\":9362:9439   */\n      0x4e487b7100000000000000000000000000000000000000000000000000000000\n        /* \"#utility.yul\":9359:9360   */\n      0x00\n        /* \"#utility.yul\":9352:9440   */\n      mstore\n        /* \"#utility.yul\":9459:9463   */\n      0x32\n        /* \"#utility.yul\":9456:9457   */\n      0x04\n        /* \"#utility.yul\":9449:9464   */\n      mstore\n        /* \"#utility.yul\":9483:9487   */\n      0x24\n        /* \"#utility.yul\":9480:9481   */\n      0x00\n        /* \"#utility.yul\":9473:9488   */\n      revert\n        /* \"#utility.yul\":9500:9829   */\n    tag_42:\n        /* \"#utility.yul\":9559:9565   */\n      0x00\n        /* \"#utility.yul\":9608:9610   */\n      0x20\n        /* \"#utility.yul\":9596:9605   */\n      dup3\n        /* \"#utility.yul\":9587:9594   */\n      dup5\n        /* \"#utility.yul\":9583:9606   */\n      sub\n        /* \"#utility.yul\":9579:9611   */\n      slt\n        /* \"#utility.yul\":9576:9695   */\n      iszero\n      tag_222\n      jumpi\n        /* \"#utility.yul\":9614:9693   */\n      tag_223\n      tag_90\n      jump\t// in\n    tag_223:\n        /* \"#utility.yul\":9576:9695   */\n    tag_222:\n        /* \"#utility.yul\":9734:9735   */\n      0x00\n        /* \"#utility.yul\":9759:9812   */\n      tag_224\n        /* \"#utility.yul\":9804:9811   */\n      dup5\n        /* \"#utility.yul\":9795:9801   */\n      dup3\n        /* \"#utility.yul\":9784:9793   */\n      dup6\n        /* \"#utility.yul\":9780:9802   */\n      add\n        /* \"#utility.yul\":9759:9812   */\n      tag_95\n      jump\t// in\n    tag_224:\n        /* \"#utility.yul\":9749:9812   */\n      swap2\n      pop\n        /* \"#utility.yul\":9705:9822   */\n      pop\n        /* \"#utility.yul\":9500:9829   */\n      swap3\n      swap2\n      pop\n      pop\n      jump\t// out\n        /* \"#utility.yul\":9835:10277   */\n    tag_46:\n        /* \"#utility.yul\":9984:9988   */\n      0x00\n        /* \"#utility.yul\":10022:10024   */\n      0x60\n        /* \"#utility.yul\":10011:10020   */\n      dup3\n        /* \"#utility.yul\":10007:10025   */\n      add\n        /* \"#utility.yul\":9999:10025   */\n      swap1\n      pop\n        /* \"#utility.yul\":10035:10106   */\n      tag_226\n        /* \"#utility.yul\":10103:10104   */\n      0x00\n        /* \"#utility.yul\":10092:10101   */\n      dup4\n        /* \"#utility.yul\":10088:10105   */\n      add\n        /* \"#utility.yul\":10079:10085   */\n      dup7\n        /* \"#utility.yul\":10035:10106   */\n      tag_107\n      jump\t// in\n    tag_226:\n        /* \"#utility.yul\":10116:10188   */\n      tag_227\n        /* \"#utility.yul\":10184:10186   */\n      0x20\n        /* \"#utility.yul\":10173:10182   */\n      dup4\n        /* \"#utility.yul\":10169:10187   */\n      add\n        /* \"#utility.yul\":10160:10166   */\n      dup6\n        /* \"#utility.yul\":10116:10188   */\n      tag_107\n      jump\t// in\n    tag_227:\n        /* \"#utility.yul\":10198:10270   */\n      tag_228\n        /* \"#utility.yul\":10266:10268   */\n      0x40\n        /* \"#utility.yul\":10255:10264   */\n      dup4\n        /* \"#utility.yul\":10251:10269   */\n      add\n        /* \"#utility.yul\":10242:10248   */\n      dup5\n        /* \"#utility.yul\":10198:10270   */\n      tag_103\n      jump\t// in\n    tag_228:\n        /* \"#utility.yul\":9835:10277   */\n      swap5\n      swap4\n      pop\n      pop\n      pop\n      pop\n      jump\t// out\n        /* \"#utility.yul\":10283:10373   */\n    tag_112:\n        /* \"#utility.yul\":10317:10324   */\n      0x00\n        /* \"#utility.yul\":10360:10365   */\n      dup2\n        /* \"#utility.yul\":10353:10366   */\n      iszero\n        /* \"#utility.yul\":10346:10367   */\n      iszero\n        /* \"#utility.yul\":10335:10367   */\n      swap1\n      pop\n        /* \"#utility.yul\":10283:10373   */\n      swap2\n      swap1\n      pop\n      jump\t// out\n        /* \"#utility.yul\":10379:10495   */\n    tag_113:\n        /* \"#utility.yul\":10449:10470   */\n      tag_231\n        /* \"#utility.yul\":10464:10469   */\n      dup2\n        /* \"#utility.yul\":10449:10470   */\n      tag_112\n      jump\t// in\n    tag_231:\n        /* \"#utility.yul\":10442:10447   */\n      dup2\n        /* \"#utility.yul\":10439:10471   */\n      eq\n        /* \"#utility.yul\":10429:10489   */\n      tag_232\n      jumpi\n        /* \"#utility.yul\":10485:10486   */\n      0x00\n        /* \"#utility.yul\":10482:10483   */\n      dup1\n        /* \"#utility.yul\":10475:10487   */\n      revert\n        /* \"#utility.yul\":10429:10489   */\n    tag_232:\n        /* \"#utility.yul\":10379:10495   */\n      pop\n      jump\t// out\n        /* \"#utility.yul\":10501:10638   */\n    tag_114:\n        /* \"#utility.yul\":10555:10560   */\n      0x00\n        /* \"#utility.yul\":10586:10592   */\n      dup2\n        /* \"#utility.yul\":10580:10593   */\n      mload\n        /* \"#utility.yul\":10571:10593   */\n      swap1\n      pop\n        /* \"#utility.yul\":10602:10632   */\n      tag_234\n        /* \"#utility.yul\":10626:10631   */\n      dup2\n        /* \"#utility.yul\":10602:10632   */\n      tag_113\n      jump\t// in\n    tag_234:\n        /* \"#utility.yul\":10501:10638   */\n      swap3\n      swap2\n      pop\n      pop\n      jump\t// out\n        /* \"#utility.yul\":10644:10989   */\n    tag_50:\n        /* \"#utility.yul\":10711:10717   */\n      0x00\n        /* \"#utility.yul\":10760:10762   */\n      0x20\n        /* \"#utility.yul\":10748:10757   */\n      dup3\n        /* \"#utility.yul\":10739:10746   */\n      dup5\n        /* \"#utility.yul\":10735:10758   */\n      sub\n        /* \"#utility.yul\":10731:10763   */\n      slt\n        /* \"#utility.yul\":10728:10847   */\n      iszero\n      tag_236\n      jumpi\n        /* \"#utility.yul\":10766:10845   */\n      tag_237\n      tag_90\n      jump\t// in\n    tag_237:\n        /* \"#utility.yul\":10728:10847   */\n    tag_236:\n        /* \"#utility.yul\":10886:10887   */\n      0x00\n        /* \"#utility.yul\":10911:10972   */\n      tag_238\n        /* \"#utility.yul\":10964:10971   */\n      dup5\n        /* \"#utility.yul\":10955:10961   */\n      dup3\n        /* \"#utility.yul\":10944:10953   */\n      dup6\n        /* \"#utility.yul\":10940:10962   */\n      add\n        /* \"#utility.yul\":10911:10972   */\n      tag_114\n      jump\t// in\n    tag_238:\n        /* \"#utility.yul\":10901:10972   */\n      swap2\n      pop\n        /* \"#utility.yul\":10857:10982   */\n      pop\n        /* \"#utility.yul\":10644:10989   */\n      swap3\n      swap2\n      pop\n      pop\n      jump\t// out\n        /* \"#utility.yul\":10995:11175   */\n    tag_115:\n        /* \"#utility.yul\":11043:11120   */\n      0x4e487b7100000000000000000000000000000000000000000000000000000000\n        /* \"#utility.yul\":11040:11041   */\n      0x00\n        /* \"#utility.yul\":11033:11121   */\n      mstore\n        /* \"#utility.yul\":11140:11144   */\n      0x11\n        /* \"#utility.yul\":11137:11138   */\n      0x04\n        /* \"#utility.yul\":11130:11145   */\n      mstore\n        /* \"#utility.yul\":11164:11168   */\n      0x24\n        /* \"#utility.yul\":11161:11162   */\n      0x00\n        /* \"#utility.yul\":11154:11169   */\n      revert\n        /* \"#utility.yul\":11181:11267   */\n    tag_116:\n        /* \"#utility.yul\":11216:11223   */\n      0x00\n        /* \"#utility.yul\":11256:11260   */\n      0xff\n        /* \"#utility.yul\":11249:11254   */\n      dup3\n        /* \"#utility.yul\":11245:11261   */\n      and\n        /* \"#utility.yul\":11234:11261   */\n      swap1\n      pop\n        /* \"#utility.yul\":11181:11267   */\n      swap2\n      swap1\n      pop\n      jump\t// out\n        /* \"#utility.yul\":11273:11440   */\n    tag_52:\n        /* \"#utility.yul\":11310:11313   */\n      0x00\n        /* \"#utility.yul\":11333:11355   */\n      tag_242\n        /* \"#utility.yul\":11349:11354   */\n      dup3\n        /* \"#utility.yul\":11333:11355   */\n      tag_116\n      jump\t// in\n    tag_242:\n        /* \"#utility.yul\":11324:11355   */\n      swap2\n      pop\n        /* \"#utility.yul\":11377:11381   */\n      0xff\n        /* \"#utility.yul\":11370:11375   */\n      dup3\n        /* \"#utility.yul\":11367:11382   */\n      sub\n        /* \"#utility.yul\":11364:11405   */\n      tag_243\n      jumpi\n        /* \"#utility.yul\":11385:11403   */\n      tag_244\n      tag_115\n      jump\t// in\n    tag_244:\n        /* \"#utility.yul\":11364:11405   */\n    tag_243:\n        /* \"#utility.yul\":11432:11433   */\n      0x01\n        /* \"#utility.yul\":11425:11430   */\n      dup3\n        /* \"#utility.yul\":11421:11434   */\n      add\n        /* \"#utility.yul\":11414:11434   */\n      swap1\n      pop\n        /* \"#utility.yul\":11273:11440   */\n      swap2\n      swap1\n      pop\n      jump\t// out\n        /* \"#utility.yul\":11446:11675   */\n    tag_117:\n        /* \"#utility.yul\":11586:11620   */\n      0x4c656e67746873206f662041646472657373657320616e6420416d6f756e7473\n        /* \"#utility.yul\":11582:11583   */\n      0x00\n        /* \"#utility.yul\":11574:11580   */\n      dup3\n        /* \"#utility.yul\":11570:11584   */\n      add\n        /* \"#utility.yul\":11563:11621   */\n      mstore\n        /* \"#utility.yul\":11655:11667   */\n      0x204e4f5420455155414c00000000000000000000000000000000000000000000\n        /* \"#utility.yul\":11650:11652   */\n      0x20\n        /* \"#utility.yul\":11642:11648   */\n      dup3\n        /* \"#utility.yul\":11638:11653   */\n      add\n        /* \"#utility.yul\":11631:11668   */\n      mstore\n        /* \"#utility.yul\":11446:11675   */\n      pop\n      jump\t// out\n        /* \"#utility.yul\":11681:12047   */\n    tag_118:\n        /* \"#utility.yul\":11823:11826   */\n      0x00\n        /* \"#utility.yul\":11844:11911   */\n      tag_247\n        /* \"#utility.yul\":11908:11910   */\n      0x2a\n        /* \"#utility.yul\":11903:11906   */\n      dup4\n        /* \"#utility.yul\":11844:11911   */\n      tag_104\n      jump\t// in\n    tag_247:\n        /* \"#utility.yul\":11837:11911   */\n      swap2\n      pop\n        /* \"#utility.yul\":11920:12013   */\n      tag_248\n        /* \"#utility.yul\":12009:12012   */\n      dup3\n        /* \"#utility.yul\":11920:12013   */\n      tag_117\n      jump\t// in\n    tag_248:\n        /* \"#utility.yul\":12038:12040   */\n      0x40\n        /* \"#utility.yul\":12033:12036   */\n      dup3\n        /* \"#utility.yul\":12029:12041   */\n      add\n        /* \"#utility.yul\":12022:12041   */\n      swap1\n      pop\n        /* \"#utility.yul\":11681:12047   */\n      swap2\n      swap1\n      pop\n      jump\t// out\n        /* \"#utility.yul\":12053:12472   */\n    tag_56:\n        /* \"#utility.yul\":12219:12223   */\n      0x00\n        /* \"#utility.yul\":12257:12259   */\n      0x20\n        /* \"#utility.yul\":12246:12255   */\n      dup3\n        /* \"#utility.yul\":12242:12260   */\n      add\n        /* \"#utility.yul\":12234:12260   */\n      swap1\n      pop\n        /* \"#utility.yul\":12306:12315   */\n      dup2\n        /* \"#utility.yul\":12300:12304   */\n      dup2\n        /* \"#utility.yul\":12296:12316   */\n      sub\n        /* \"#utility.yul\":12292:12293   */\n      0x00\n        /* \"#utility.yul\":12281:12290   */\n      dup4\n        /* \"#utility.yul\":12277:12294   */\n      add\n        /* \"#utility.yul\":12270:12317   */\n      mstore\n        /* \"#utility.yul\":12334:12465   */\n      tag_250\n        /* \"#utility.yul\":12460:12464   */\n      dup2\n        /* \"#utility.yul\":12334:12465   */\n      tag_118\n      jump\t// in\n    tag_250:\n        /* \"#utility.yul\":12326:12465   */\n      swap1\n      pop\n        /* \"#utility.yul\":12053:12472   */\n      swap2\n      swap1\n      pop\n      jump\t// out\n        /* \"#utility.yul\":12478:12649   */\n    tag_119:\n        /* \"#utility.yul\":12618:12641   */\n      0x7472616e7366657220616d6f756e74206572726f720000000000000000000000\n        /* \"#utility.yul\":12614:12615   */\n      0x00\n        /* \"#utility.yul\":12606:12612   */\n      dup3\n        /* \"#utility.yul\":12602:12616   */\n      add\n        /* \"#utility.yul\":12595:12642   */\n      mstore\n        /* \"#utility.yul\":12478:12649   */\n      pop\n      jump\t// out\n        /* \"#utility.yul\":12655:13021   */\n    tag_120:\n        /* \"#utility.yul\":12797:12800   */\n      0x00\n        /* \"#utility.yul\":12818:12885   */\n      tag_253\n        /* \"#utility.yul\":12882:12884   */\n      0x15\n        /* \"#utility.yul\":12877:12880   */\n      dup4\n        /* \"#utility.yul\":12818:12885   */\n      tag_104\n      jump\t// in\n    tag_253:\n        /* \"#utility.yul\":12811:12885   */\n      swap2\n      pop\n        /* \"#utility.yul\":12894:12987   */\n      tag_254\n        /* \"#utility.yul\":12983:12986   */\n      dup3\n        /* \"#utility.yul\":12894:12987   */\n      tag_119\n      jump\t// in\n    tag_254:\n        /* \"#utility.yul\":13012:13014   */\n      0x20\n        /* \"#utility.yul\":13007:13010   */\n      dup3\n        /* \"#utility.yul\":13003:13015   */\n      add\n        /* \"#utility.yul\":12996:13015   */\n      swap1\n      pop\n        /* \"#utility.yul\":12655:13021   */\n      swap2\n      swap1\n      pop\n      jump\t// out\n        /* \"#utility.yul\":13027:13446   */\n    tag_60:\n        /* \"#utility.yul\":13193:13197   */\n      0x00\n        /* \"#utility.yul\":13231:13233   */\n      0x20\n        /* \"#utility.yul\":13220:13229   */\n      dup3\n        /* \"#utility.yul\":13216:13234   */\n      add\n        /* \"#utility.yul\":13208:13234   */\n      swap1\n      pop\n        /* \"#utility.yul\":13280:13289   */\n      dup2\n        /* \"#utility.yul\":13274:13278   */\n      dup2\n        /* \"#utility.yul\":13270:13290   */\n      sub\n        /* \"#utility.yul\":13266:13267   */\n      0x00\n        /* \"#utility.yul\":13255:13264   */\n      dup4\n        /* \"#utility.yul\":13251:13268   */\n      add\n        /* \"#utility.yul\":13244:13291   */\n      mstore\n        /* \"#utility.yul\":13308:13439   */\n      tag_256\n        /* \"#utility.yul\":13434:13438   */\n      dup2\n        /* \"#utility.yul\":13308:13439   */\n      tag_120\n      jump\t// in\n    tag_256:\n        /* \"#utility.yul\":13300:13439   */\n      swap1\n      pop\n        /* \"#utility.yul\":13027:13446   */\n      swap2\n      swap1\n      pop\n      jump\t// out\n        /* \"#utility.yul\":13452:13556   */\n    tag_121:\n        /* \"#utility.yul\":13497:13504   */\n      0x00\n        /* \"#utility.yul\":13526:13550   */\n      tag_258\n        /* \"#utility.yul\":13544:13549   */\n      dup3\n        /* \"#utility.yul\":13526:13550   */\n      tag_92\n      jump\t// in\n    tag_258:\n        /* \"#utility.yul\":13515:13550   */\n      swap1\n      pop\n        /* \"#utility.yul\":13452:13556   */\n      swap2\n      swap1\n      pop\n      jump\t// out\n        /* \"#utility.yul\":13562:13700   */\n    tag_122:\n        /* \"#utility.yul\":13643:13675   */\n      tag_260\n        /* \"#utility.yul\":13669:13674   */\n      dup2\n        /* \"#utility.yul\":13643:13675   */\n      tag_121\n      jump\t// in\n    tag_260:\n        /* \"#utility.yul\":13636:13641   */\n      dup2\n        /* \"#utility.yul\":13633:13676   */\n      eq\n        /* \"#utility.yul\":13623:13694   */\n      tag_261\n      jumpi\n        /* \"#utility.yul\":13690:13691   */\n      0x00\n        /* \"#utility.yul\":13687:13688   */\n      dup1\n        /* \"#utility.yul\":13680:13692   */\n      revert\n        /* \"#utility.yul\":13623:13694   */\n    tag_261:\n        /* \"#utility.yul\":13562:13700   */\n      pop\n      jump\t// out\n        /* \"#utility.yul\":13706:13861   */\n    tag_123:\n        /* \"#utility.yul\":13760:13765   */\n      0x00\n        /* \"#utility.yul\":13798:13804   */\n      dup2\n        /* \"#utility.yul\":13785:13805   */\n      calldataload\n        /* \"#utility.yul\":13776:13805   */\n      swap1\n      pop\n        /* \"#utility.yul\":13814:13855   */\n      tag_263\n        /* \"#utility.yul\":13849:13854   */\n      dup2\n        /* \"#utility.yul\":13814:13855   */\n      tag_122\n      jump\t// in\n    tag_263:\n        /* \"#utility.yul\":13706:13861   */\n      swap3\n      swap2\n      pop\n      pop\n      jump\t// out\n        /* \"#utility.yul\":13867:14212   */\n    tag_67:\n        /* \"#utility.yul\":13934:13940   */\n      0x00\n        /* \"#utility.yul\":13983:13985   */\n      0x20\n        /* \"#utility.yul\":13971:13980   */\n      dup3\n        /* \"#utility.yul\":13962:13969   */\n      dup5\n        /* \"#utility.yul\":13958:13981   */\n      sub\n        /* \"#utility.yul\":13954:13986   */\n      slt\n        /* \"#utility.yul\":13951:14070   */\n      iszero\n      tag_265\n      jumpi\n        /* \"#utility.yul\":13989:14068   */\n      tag_266\n      tag_90\n      jump\t// in\n    tag_266:\n        /* \"#utility.yul\":13951:14070   */\n    tag_265:\n        /* \"#utility.yul\":14109:14110   */\n      0x00\n        /* \"#utility.yul\":14134:14195   */\n      tag_267\n        /* \"#utility.yul\":14187:14194   */\n      dup5\n        /* \"#utility.yul\":14178:14184   */\n      dup3\n        /* \"#utility.yul\":14167:14176   */\n      dup6\n        /* \"#utility.yul\":14163:14185   */\n      add\n        /* \"#utility.yul\":14134:14195   */\n      tag_123\n      jump\t// in\n    tag_267:\n        /* \"#utility.yul\":14124:14195   */\n      swap2\n      pop\n        /* \"#utility.yul\":14080:14205   */\n      pop\n        /* \"#utility.yul\":13867:14212   */\n      swap3\n      swap2\n      pop\n      pop\n      jump\t// out\n        /* \"#utility.yul\":14218:14365   */\n    tag_124:\n        /* \"#utility.yul\":14319:14330   */\n      0x00\n        /* \"#utility.yul\":14356:14359   */\n      dup2\n        /* \"#utility.yul\":14341:14359   */\n      swap1\n      pop\n        /* \"#utility.yul\":14218:14365   */\n      swap3\n      swap2\n      pop\n      pop\n      jump\t// out\n        /* \"#utility.yul\":14371:14485   */\n    tag_125:\n      pop\n      jump\t// out\n        /* \"#utility.yul\":14491:14889   */\n    tag_126:\n        /* \"#utility.yul\":14650:14653   */\n      0x00\n        /* \"#utility.yul\":14671:14754   */\n      tag_271\n        /* \"#utility.yul\":14752:14753   */\n      0x00\n        /* \"#utility.yul\":14747:14750   */\n      dup4\n        /* \"#utility.yul\":14671:14754   */\n      tag_124\n      jump\t// in\n    tag_271:\n        /* \"#utility.yul\":14664:14754   */\n      swap2\n      pop\n        /* \"#utility.yul\":14763:14856   */\n      tag_272\n        /* \"#utility.yul\":14852:14855   */\n      dup3\n        /* \"#utility.yul\":14763:14856   */\n      tag_125\n      jump\t// in\n    tag_272:\n        /* \"#utility.yul\":14881:14882   */\n      0x00\n        /* \"#utility.yul\":14876:14879   */\n      dup3\n        /* \"#utility.yul\":14872:14883   */\n      add\n        /* \"#utility.yul\":14865:14883   */\n      swap1\n      pop\n        /* \"#utility.yul\":14491:14889   */\n      swap2\n      swap1\n      pop\n      jump\t// out\n        /* \"#utility.yul\":14895:15274   */\n    tag_71:\n        /* \"#utility.yul\":15079:15082   */\n      0x00\n        /* \"#utility.yul\":15101:15248   */\n      tag_274\n        /* \"#utility.yul\":15244:15247   */\n      dup3\n        /* \"#utility.yul\":15101:15248   */\n      tag_126\n      jump\t// in\n    tag_274:\n        /* \"#utility.yul\":15094:15248   */\n      swap2\n      pop\n        /* \"#utility.yul\":15265:15268   */\n      dup2\n        /* \"#utility.yul\":15258:15268   */\n      swap1\n      pop\n        /* \"#utility.yul\":14895:15274   */\n      swap2\n      swap1\n      pop\n      jump\t// out\n        /* \"#utility.yul\":15280:15471   */\n    tag_88:\n        /* \"#utility.yul\":15320:15323   */\n      0x00\n        /* \"#utility.yul\":15339:15359   */\n      tag_276\n        /* \"#utility.yul\":15357:15358   */\n      dup3\n        /* \"#utility.yul\":15339:15359   */\n      tag_102\n      jump\t// in\n    tag_276:\n        /* \"#utility.yul\":15334:15359   */\n      swap2\n      pop\n        /* \"#utility.yul\":15373:15393   */\n      tag_277\n        /* \"#utility.yul\":15391:15392   */\n      dup4\n        /* \"#utility.yul\":15373:15393   */\n      tag_102\n      jump\t// in\n    tag_277:\n        /* \"#utility.yul\":15368:15393   */\n      swap3\n      pop\n        /* \"#utility.yul\":15416:15417   */\n      dup3\n        /* \"#utility.yul\":15413:15414   */\n      dup3\n        /* \"#utility.yul\":15409:15418   */\n      add\n        /* \"#utility.yul\":15402:15418   */\n      swap1\n      pop\n        /* \"#utility.yul\":15437:15440   */\n      dup1\n        /* \"#utility.yul\":15434:15435   */\n      dup3\n        /* \"#utility.yul\":15431:15441   */\n      gt\n        /* \"#utility.yul\":15428:15464   */\n      iszero\n      tag_278\n      jumpi\n        /* \"#utility.yul\":15444:15462   */\n      tag_279\n      tag_115\n      jump\t// in\n    tag_279:\n        /* \"#utility.yul\":15428:15464   */\n    tag_278:\n        /* \"#utility.yul\":15280:15471   */\n      swap3\n      swap2\n      pop\n      pop\n      jump\t// out\n\n    auxdata: 0xa26469706673582212201a6ec324b95517f0a23694326421361d9a5f6c075af445332804a9d1386e3db764736f6c634300081a0033\n}\n",
				"bytecode": {
					"linkReferences": {},
					"object": "6080604052348015600e575f80fd5b50610ccf8061001c5f395ff3fe608060405260043610610033575f3560e01c806341ed24a21461003757806348d26ade1461005f578063ccb8c1e01461007b575b5f80fd5b348015610042575f80fd5b5061005d6004803603810190610058919061060a565b6100b7565b005b610079600480360381019061007491906106f0565b6102bd565b005b348015610086575f80fd5b506100a1600480360381019061009c919061076e565b6104a6565b6040516100ae91906107d1565b60405180910390f35b8181905084849050146100ff576040517f08c379a00000000000000000000000000000000000000000000000000000000081526004016100f69061086a565b60405180910390fd5b5f8590505f61010e84846104a6565b9050808273ffffffffffffffffffffffffffffffffffffffff1663dd62ed3e33306040518363ffffffff1660e01b815260040161014c929190610897565b602060405180830381865afa158015610167573d5f803e3d5ffd5b505050506040513d601f19601f8201168201806040525081019061018b91906108e8565b10156101cc576040517f08c379a00000000000000000000000000000000000000000000000000000000081526004016101c39061095d565b60405180910390fd5b5f5b868690508160ff1610156102b3578273ffffffffffffffffffffffffffffffffffffffff166323b872dd3389898560ff1681811061020f5761020e61097b565b5b905060200201602081019061022491906109a8565b88888660ff1681811061023a5761023961097b565b5b905060200201356040518463ffffffff1660e01b815260040161025f939291906109d3565b6020604051808303815f875af115801561027b573d5f803e3d5ffd5b505050506040513d601f19601f8201168201806040525081019061029f9190610a3d565b5080806102ab90610aa1565b9150506101ce565b5050505050505050565b818190508484905014610305576040517f08c379a00000000000000000000000000000000000000000000000000000000081526004016102fc90610b39565b60405180910390fd5b5f61031083836104a6565b9050803414610354576040517f08c379a000000000000000000000000000000000000000000000000000000000815260040161034b90610ba1565b60405180910390fd5b5f5b8585905081101561049e575f8686838181106103755761037461097b565b5b905060200201602081019061038a9190610bfa565b73ffffffffffffffffffffffffffffffffffffffff168585848181106103b3576103b261097b565b5b905060200201356040516103c690610c52565b5f6040518083038185875af1925050503d805f8114610400576040519150601f19603f3d011682016040523d82523d5f602084013e610405565b606091505b5050905080610490578484838181106104215761042061097b565b5b905060200201355f8089898681811061043d5761043c61097b565b5b90506020020160208101906104529190610bfa565b73ffffffffffffffffffffffffffffffffffffffff1673ffffffffffffffffffffffffffffffffffffffff1681526020019081526020015f20819055505b508080600101915050610356565b505050505050565b5f805f90505b838390508110156104eb578383828181106104ca576104c961097b565b5b90506020020135826104dc9190610c66565b915080806001019150506104ac565b5092915050565b5f80fd5b5f80fd5b5f73ffffffffffffffffffffffffffffffffffffffff82169050919050565b5f610523826104fa565b9050919050565b61053381610519565b811461053d575f80fd5b50565b5f8135905061054e8161052a565b92915050565b5f80fd5b5f80fd5b5f80fd5b5f8083601f84011261057557610574610554565b5b8235905067ffffffffffffffff81111561059257610591610558565b5b6020830191508360208202830111156105ae576105ad61055c565b5b9250929050565b5f8083601f8401126105ca576105c9610554565b5b8235905067ffffffffffffffff8111156105e7576105e6610558565b5b6020830191508360208202830111156106035761060261055c565b5b9250929050565b5f805f805f60608688031215610623576106226104f2565b5b5f61063088828901610540565b955050602086013567ffffffffffffffff811115610651576106506104f6565b5b61065d88828901610560565b9450945050604086013567ffffffffffffffff8111156106805761067f6104f6565b5b61068c888289016105b5565b92509250509295509295909350565b5f8083601f8401126106b0576106af610554565b5b8235905067ffffffffffffffff8111156106cd576106cc610558565b5b6020830191508360208202830111156106e9576106e861055c565b5b9250929050565b5f805f8060408587031215610708576107076104f2565b5b5f85013567ffffffffffffffff811115610725576107246104f6565b5b6107318782880161069b565b9450945050602085013567ffffffffffffffff811115610754576107536104f6565b5b610760878288016105b5565b925092505092959194509250565b5f8060208385031215610784576107836104f2565b5b5f83013567ffffffffffffffff8111156107a1576107a06104f6565b5b6107ad858286016105b5565b92509250509250929050565b5f819050919050565b6107cb816107b9565b82525050565b5f6020820190506107e45f8301846107c2565b92915050565b5f82825260208201905092915050565b7f6c656e677468206f662061646472657373657320616e6420616d6f756e7473205f8201527f6e6f7420657175616c2100000000000000000000000000000000000000000000602082015250565b5f610854602a836107ea565b915061085f826107fa565b604082019050919050565b5f6020820190508181035f83015261088181610848565b9050919050565b61089181610519565b82525050565b5f6040820190506108aa5f830185610888565b6108b76020830184610888565b9392505050565b6108c7816107b9565b81146108d1575f80fd5b50565b5f815190506108e2816108be565b92915050565b5f602082840312156108fd576108fc6104f2565b5b5f61090a848285016108d4565b91505092915050565b7f6e65656420617070726f766520746f6b656e00000000000000000000000000005f82015250565b5f6109476012836107ea565b915061095282610913565b602082019050919050565b5f6020820190508181035f8301526109748161093b565b9050919050565b7f4e487b71000000000000000000000000000000000000000000000000000000005f52603260045260245ffd5b5f602082840312156109bd576109bc6104f2565b5b5f6109ca84828501610540565b91505092915050565b5f6060820190506109e65f830186610888565b6109f36020830185610888565b610a0060408301846107c2565b949350505050565b5f8115159050919050565b610a1c81610a08565b8114610a26575f80fd5b50565b5f81519050610a3781610a13565b92915050565b5f60208284031215610a5257610a516104f2565b5b5f610a5f84828501610a29565b91505092915050565b7f4e487b71000000000000000000000000000000000000000000000000000000005f52601160045260245ffd5b5f60ff82169050919050565b5f610aab82610a95565b915060ff8203610abe57610abd610a68565b5b600182019050919050565b7f4c656e67746873206f662041646472657373657320616e6420416d6f756e74735f8201527f204e4f5420455155414c00000000000000000000000000000000000000000000602082015250565b5f610b23602a836107ea565b9150610b2e82610ac9565b604082019050919050565b5f6020820190508181035f830152610b5081610b17565b9050919050565b7f7472616e7366657220616d6f756e74206572726f7200000000000000000000005f82015250565b5f610b8b6015836107ea565b9150610b9682610b57565b602082019050919050565b5f6020820190508181035f830152610bb881610b7f565b9050919050565b5f610bc9826104fa565b9050919050565b610bd981610bbf565b8114610be3575f80fd5b50565b5f81359050610bf481610bd0565b92915050565b5f60208284031215610c0f57610c0e6104f2565b5b5f610c1c84828501610be6565b91505092915050565b5f81905092915050565b50565b5f610c3d5f83610c25565b9150610c4882610c2f565b5f82019050919050565b5f610c5c82610c32565b9150819050919050565b5f610c70826107b9565b9150610c7b836107b9565b9250828201905080821115610c9357610c92610a68565b5b9291505056fea26469706673582212201a6ec324b95517f0a23694326421361d9a5f6c075af445332804a9d1386e3db764736f6c634300081a0033",
					"opcodes": "PUSH1 0x80 PUSH1 0x40 MSTORE CALLVALUE DUP1 ISZERO PUSH1 0xE JUMPI PUSH0 DUP1 REVERT JUMPDEST POP PUSH2 0xCCF DUP1 PUSH2 0x1C PUSH0 CODECOPY PUSH0 RETURN INVALID PUSH1 0x80 PUSH1 0x40 MSTORE PUSH1 0x4 CALLDATASIZE LT PUSH2 0x33 JUMPI PUSH0 CALLDATALOAD PUSH1 0xE0 SHR DUP1 PUSH4 0x41ED24A2 EQ PUSH2 0x37 JUMPI DUP1 PUSH4 0x48D26ADE EQ PUSH2 0x5F JUMPI DUP1 PUSH4 0xCCB8C1E0 EQ PUSH2 0x7B JUMPI JUMPDEST PUSH0 DUP1 REVERT JUMPDEST CALLVALUE DUP1 ISZERO PUSH2 0x42 JUMPI PUSH0 DUP1 REVERT JUMPDEST POP PUSH2 0x5D PUSH1 0x4 DUP1 CALLDATASIZE SUB DUP2 ADD SWAP1 PUSH2 0x58 SWAP2 SWAP1 PUSH2 0x60A JUMP JUMPDEST PUSH2 0xB7 JUMP JUMPDEST STOP JUMPDEST PUSH2 0x79 PUSH1 0x4 DUP1 CALLDATASIZE SUB DUP2 ADD SWAP1 PUSH2 0x74 SWAP2 SWAP1 PUSH2 0x6F0 JUMP JUMPDEST PUSH2 0x2BD JUMP JUMPDEST STOP JUMPDEST CALLVALUE DUP1 ISZERO PUSH2 0x86 JUMPI PUSH0 DUP1 REVERT JUMPDEST POP PUSH2 0xA1 PUSH1 0x4 DUP1 CALLDATASIZE SUB DUP2 ADD SWAP1 PUSH2 0x9C SWAP2 SWAP1 PUSH2 0x76E JUMP JUMPDEST PUSH2 0x4A6 JUMP JUMPDEST PUSH1 0x40 MLOAD PUSH2 0xAE SWAP2 SWAP1 PUSH2 0x7D1 JUMP JUMPDEST PUSH1 0x40 MLOAD DUP1 SWAP2 SUB SWAP1 RETURN JUMPDEST DUP2 DUP2 SWAP1 POP DUP5 DUP5 SWAP1 POP EQ PUSH2 0xFF JUMPI PUSH1 0x40 MLOAD PUSH32 0x8C379A000000000000000000000000000000000000000000000000000000000 DUP2 MSTORE PUSH1 0x4 ADD PUSH2 0xF6 SWAP1 PUSH2 0x86A JUMP JUMPDEST PUSH1 0x40 MLOAD DUP1 SWAP2 SUB SWAP1 REVERT JUMPDEST PUSH0 DUP6 SWAP1 POP PUSH0 PUSH2 0x10E DUP5 DUP5 PUSH2 0x4A6 JUMP JUMPDEST SWAP1 POP DUP1 DUP3 PUSH20 0xFFFFFFFFFFFFFFFFFFFFFFFFFFFFFFFFFFFFFFFF AND PUSH4 0xDD62ED3E CALLER ADDRESS PUSH1 0x40 MLOAD DUP4 PUSH4 0xFFFFFFFF AND PUSH1 0xE0 SHL DUP2 MSTORE PUSH1 0x4 ADD PUSH2 0x14C SWAP3 SWAP2 SWAP1 PUSH2 0x897 JUMP JUMPDEST PUSH1 0x20 PUSH1 0x40 MLOAD DUP1 DUP4 SUB DUP2 DUP7 GAS STATICCALL ISZERO DUP1 ISZERO PUSH2 0x167 JUMPI RETURNDATASIZE PUSH0 DUP1 RETURNDATACOPY RETURNDATASIZE PUSH0 REVERT JUMPDEST POP POP POP POP PUSH1 0x40 MLOAD RETURNDATASIZE PUSH1 0x1F NOT PUSH1 0x1F DUP3 ADD AND DUP3 ADD DUP1 PUSH1 0x40 MSTORE POP DUP2 ADD SWAP1 PUSH2 0x18B SWAP2 SWAP1 PUSH2 0x8E8 JUMP JUMPDEST LT ISZERO PUSH2 0x1CC JUMPI PUSH1 0x40 MLOAD PUSH32 0x8C379A000000000000000000000000000000000000000000000000000000000 DUP2 MSTORE PUSH1 0x4 ADD PUSH2 0x1C3 SWAP1 PUSH2 0x95D JUMP JUMPDEST PUSH1 0x40 MLOAD DUP1 SWAP2 SUB SWAP1 REVERT JUMPDEST PUSH0 JUMPDEST DUP7 DUP7 SWAP1 POP DUP2 PUSH1 0xFF AND LT ISZERO PUSH2 0x2B3 JUMPI DUP3 PUSH20 0xFFFFFFFFFFFFFFFFFFFFFFFFFFFFFFFFFFFFFFFF AND PUSH4 0x23B872DD CALLER DUP10 DUP10 DUP6 PUSH1 0xFF AND DUP2 DUP2 LT PUSH2 0x20F JUMPI PUSH2 0x20E PUSH2 0x97B JUMP JUMPDEST JUMPDEST SWAP1 POP PUSH1 0x20 MUL ADD PUSH1 0x20 DUP2 ADD SWAP1 PUSH2 0x224 SWAP2 SWAP1 PUSH2 0x9A8 JUMP JUMPDEST DUP9 DUP9 DUP7 PUSH1 0xFF AND DUP2 DUP2 LT PUSH2 0x23A JUMPI PUSH2 0x239 PUSH2 0x97B JUMP JUMPDEST JUMPDEST SWAP1 POP PUSH1 0x20 MUL ADD CALLDATALOAD PUSH1 0x40 MLOAD DUP5 PUSH4 0xFFFFFFFF AND PUSH1 0xE0 SHL DUP2 MSTORE PUSH1 0x4 ADD PUSH2 0x25F SWAP4 SWAP3 SWAP2 SWAP1 PUSH2 0x9D3 JUMP JUMPDEST PUSH1 0x20 PUSH1 0x40 MLOAD DUP1 DUP4 SUB DUP2 PUSH0 DUP8 GAS CALL ISZERO DUP1 ISZERO PUSH2 0x27B JUMPI RETURNDATASIZE PUSH0 DUP1 RETURNDATACOPY RETURNDATASIZE PUSH0 REVERT JUMPDEST POP POP POP POP PUSH1 0x40 MLOAD RETURNDATASIZE PUSH1 0x1F NOT PUSH1 0x1F DUP3 ADD AND DUP3 ADD DUP1 PUSH1 0x40 MSTORE POP DUP2 ADD SWAP1 PUSH2 0x29F SWAP2 SWAP1 PUSH2 0xA3D JUMP JUMPDEST POP DUP1 DUP1 PUSH2 0x2AB SWAP1 PUSH2 0xAA1 JUMP JUMPDEST SWAP2 POP POP PUSH2 0x1CE JUMP JUMPDEST POP POP POP POP POP POP POP POP JUMP JUMPDEST DUP2 DUP2 SWAP1 POP DUP5 DUP5 SWAP1 POP EQ PUSH2 0x305 JUMPI PUSH1 0x40 MLOAD PUSH32 0x8C379A000000000000000000000000000000000000000000000000000000000 DUP2 MSTORE PUSH1 0x4 ADD PUSH2 0x2FC SWAP1 PUSH2 0xB39 JUMP JUMPDEST PUSH1 0x40 MLOAD DUP1 SWAP2 SUB SWAP1 REVERT JUMPDEST PUSH0 PUSH2 0x310 DUP4 DUP4 PUSH2 0x4A6 JUMP JUMPDEST SWAP1 POP DUP1 CALLVALUE EQ PUSH2 0x354 JUMPI PUSH1 0x40 MLOAD PUSH32 0x8C379A000000000000000000000000000000000000000000000000000000000 DUP2 MSTORE PUSH1 0x4 ADD PUSH2 0x34B SWAP1 PUSH2 0xBA1 JUMP JUMPDEST PUSH1 0x40 MLOAD DUP1 SWAP2 SUB SWAP1 REVERT JUMPDEST PUSH0 JUMPDEST DUP6 DUP6 SWAP1 POP DUP2 LT ISZERO PUSH2 0x49E JUMPI PUSH0 DUP7 DUP7 DUP4 DUP2 DUP2 LT PUSH2 0x375 JUMPI PUSH2 0x374 PUSH2 0x97B JUMP JUMPDEST JUMPDEST SWAP1 POP PUSH1 0x20 MUL ADD PUSH1 0x20 DUP2 ADD SWAP1 PUSH2 0x38A SWAP2 SWAP1 PUSH2 0xBFA JUMP JUMPDEST PUSH20 0xFFFFFFFFFFFFFFFFFFFFFFFFFFFFFFFFFFFFFFFF AND DUP6 DUP6 DUP5 DUP2 DUP2 LT PUSH2 0x3B3 JUMPI PUSH2 0x3B2 PUSH2 0x97B JUMP JUMPDEST JUMPDEST SWAP1 POP PUSH1 0x20 MUL ADD CALLDATALOAD PUSH1 0x40 MLOAD PUSH2 0x3C6 SWAP1 PUSH2 0xC52 JUMP JUMPDEST PUSH0 PUSH1 0x40 MLOAD DUP1 DUP4 SUB DUP2 DUP6 DUP8 GAS CALL SWAP3 POP POP POP RETURNDATASIZE DUP1 PUSH0 DUP2 EQ PUSH2 0x400 JUMPI PUSH1 0x40 MLOAD SWAP2 POP PUSH1 0x1F NOT PUSH1 0x3F RETURNDATASIZE ADD AND DUP3 ADD PUSH1 0x40 MSTORE RETURNDATASIZE DUP3 MSTORE RETURNDATASIZE PUSH0 PUSH1 0x20 DUP5 ADD RETURNDATACOPY PUSH2 0x405 JUMP JUMPDEST PUSH1 0x60 SWAP2 POP JUMPDEST POP POP SWAP1 POP DUP1 PUSH2 0x490 JUMPI DUP5 DUP5 DUP4 DUP2 DUP2 LT PUSH2 0x421 JUMPI PUSH2 0x420 PUSH2 0x97B JUMP JUMPDEST JUMPDEST SWAP1 POP PUSH1 0x20 MUL ADD CALLDATALOAD PUSH0 DUP1 DUP10 DUP10 DUP7 DUP2 DUP2 LT PUSH2 0x43D JUMPI PUSH2 0x43C PUSH2 0x97B JUMP JUMPDEST JUMPDEST SWAP1 POP PUSH1 0x20 MUL ADD PUSH1 0x20 DUP2 ADD SWAP1 PUSH2 0x452 SWAP2 SWAP1 PUSH2 0xBFA JUMP JUMPDEST PUSH20 0xFFFFFFFFFFFFFFFFFFFFFFFFFFFFFFFFFFFFFFFF AND PUSH20 0xFFFFFFFFFFFFFFFFFFFFFFFFFFFFFFFFFFFFFFFF AND DUP2 MSTORE PUSH1 0x20 ADD SWAP1 DUP2 MSTORE PUSH1 0x20 ADD PUSH0 KECCAK256 DUP2 SWAP1 SSTORE POP JUMPDEST POP DUP1 DUP1 PUSH1 0x1 ADD SWAP2 POP POP PUSH2 0x356 JUMP JUMPDEST POP POP POP POP POP POP JUMP JUMPDEST PUSH0 DUP1 PUSH0 SWAP1 POP JUMPDEST DUP4 DUP4 SWAP1 POP DUP2 LT ISZERO PUSH2 0x4EB JUMPI DUP4 DUP4 DUP3 DUP2 DUP2 LT PUSH2 0x4CA JUMPI PUSH2 0x4C9 PUSH2 0x97B JUMP JUMPDEST JUMPDEST SWAP1 POP PUSH1 0x20 MUL ADD CALLDATALOAD DUP3 PUSH2 0x4DC SWAP2 SWAP1 PUSH2 0xC66 JUMP JUMPDEST SWAP2 POP DUP1 DUP1 PUSH1 0x1 ADD SWAP2 POP POP PUSH2 0x4AC JUMP JUMPDEST POP SWAP3 SWAP2 POP POP JUMP JUMPDEST PUSH0 DUP1 REVERT JUMPDEST PUSH0 DUP1 REVERT JUMPDEST PUSH0 PUSH20 0xFFFFFFFFFFFFFFFFFFFFFFFFFFFFFFFFFFFFFFFF DUP3 AND SWAP1 POP SWAP2 SWAP1 POP JUMP JUMPDEST PUSH0 PUSH2 0x523 DUP3 PUSH2 0x4FA JUMP JUMPDEST SWAP1 POP SWAP2 SWAP1 POP JUMP JUMPDEST PUSH2 0x533 DUP2 PUSH2 0x519 JUMP JUMPDEST DUP2 EQ PUSH2 0x53D JUMPI PUSH0 DUP1 REVERT JUMPDEST POP JUMP JUMPDEST PUSH0 DUP2 CALLDATALOAD SWAP1 POP PUSH2 0x54E DUP2 PUSH2 0x52A JUMP JUMPDEST SWAP3 SWAP2 POP POP JUMP JUMPDEST PUSH0 DUP1 REVERT JUMPDEST PUSH0 DUP1 REVERT JUMPDEST PUSH0 DUP1 REVERT JUMPDEST PUSH0 DUP1 DUP4 PUSH1 0x1F DUP5 ADD SLT PUSH2 0x575 JUMPI PUSH2 0x574 PUSH2 0x554 JUMP JUMPDEST JUMPDEST DUP3 CALLDATALOAD SWAP1 POP PUSH8 0xFFFFFFFFFFFFFFFF DUP2 GT ISZERO PUSH2 0x592 JUMPI PUSH2 0x591 PUSH2 0x558 JUMP JUMPDEST JUMPDEST PUSH1 0x20 DUP4 ADD SWAP2 POP DUP4 PUSH1 0x20 DUP3 MUL DUP4 ADD GT ISZERO PUSH2 0x5AE JUMPI PUSH2 0x5AD PUSH2 0x55C JUMP JUMPDEST JUMPDEST SWAP3 POP SWAP3 SWAP1 POP JUMP JUMPDEST PUSH0 DUP1 DUP4 PUSH1 0x1F DUP5 ADD SLT PUSH2 0x5CA JUMPI PUSH2 0x5C9 PUSH2 0x554 JUMP JUMPDEST JUMPDEST DUP3 CALLDATALOAD SWAP1 POP PUSH8 0xFFFFFFFFFFFFFFFF DUP2 GT ISZERO PUSH2 0x5E7 JUMPI PUSH2 0x5E6 PUSH2 0x558 JUMP JUMPDEST JUMPDEST PUSH1 0x20 DUP4 ADD SWAP2 POP DUP4 PUSH1 0x20 DUP3 MUL DUP4 ADD GT ISZERO PUSH2 0x603 JUMPI PUSH2 0x602 PUSH2 0x55C JUMP JUMPDEST JUMPDEST SWAP3 POP SWAP3 SWAP1 POP JUMP JUMPDEST PUSH0 DUP1 PUSH0 DUP1 PUSH0 PUSH1 0x60 DUP7 DUP9 SUB SLT ISZERO PUSH2 0x623 JUMPI PUSH2 0x622 PUSH2 0x4F2 JUMP JUMPDEST JUMPDEST PUSH0 PUSH2 0x630 DUP9 DUP3 DUP10 ADD PUSH2 0x540 JUMP JUMPDEST SWAP6 POP POP PUSH1 0x20 DUP7 ADD CALLDATALOAD PUSH8 0xFFFFFFFFFFFFFFFF DUP2 GT ISZERO PUSH2 0x651 JUMPI PUSH2 0x650 PUSH2 0x4F6 JUMP JUMPDEST JUMPDEST PUSH2 0x65D DUP9 DUP3 DUP10 ADD PUSH2 0x560 JUMP JUMPDEST SWAP5 POP SWAP5 POP POP PUSH1 0x40 DUP7 ADD CALLDATALOAD PUSH8 0xFFFFFFFFFFFFFFFF DUP2 GT ISZERO PUSH2 0x680 JUMPI PUSH2 0x67F PUSH2 0x4F6 JUMP JUMPDEST JUMPDEST PUSH2 0x68C DUP9 DUP3 DUP10 ADD PUSH2 0x5B5 JUMP JUMPDEST SWAP3 POP SWAP3 POP POP SWAP3 SWAP6 POP SWAP3 SWAP6 SWAP1 SWAP4 POP JUMP JUMPDEST PUSH0 DUP1 DUP4 PUSH1 0x1F DUP5 ADD SLT PUSH2 0x6B0 JUMPI PUSH2 0x6AF PUSH2 0x554 JUMP JUMPDEST JUMPDEST DUP3 CALLDATALOAD SWAP1 POP PUSH8 0xFFFFFFFFFFFFFFFF DUP2 GT ISZERO PUSH2 0x6CD JUMPI PUSH2 0x6CC PUSH2 0x558 JUMP JUMPDEST JUMPDEST PUSH1 0x20 DUP4 ADD SWAP2 POP DUP4 PUSH1 0x20 DUP3 MUL DUP4 ADD GT ISZERO PUSH2 0x6E9 JUMPI PUSH2 0x6E8 PUSH2 0x55C JUMP JUMPDEST JUMPDEST SWAP3 POP SWAP3 SWAP1 POP JUMP JUMPDEST PUSH0 DUP1 PUSH0 DUP1 PUSH1 0x40 DUP6 DUP8 SUB SLT ISZERO PUSH2 0x708 JUMPI PUSH2 0x707 PUSH2 0x4F2 JUMP JUMPDEST JUMPDEST PUSH0 DUP6 ADD CALLDATALOAD PUSH8 0xFFFFFFFFFFFFFFFF DUP2 GT ISZERO PUSH2 0x725 JUMPI PUSH2 0x724 PUSH2 0x4F6 JUMP JUMPDEST JUMPDEST PUSH2 0x731 DUP8 DUP3 DUP9 ADD PUSH2 0x69B JUMP JUMPDEST SWAP5 POP SWAP5 POP POP PUSH1 0x20 DUP6 ADD CALLDATALOAD PUSH8 0xFFFFFFFFFFFFFFFF DUP2 GT ISZERO PUSH2 0x754 JUMPI PUSH2 0x753 PUSH2 0x4F6 JUMP JUMPDEST JUMPDEST PUSH2 0x760 DUP8 DUP3 DUP9 ADD PUSH2 0x5B5 JUMP JUMPDEST SWAP3 POP SWAP3 POP POP SWAP3 SWAP6 SWAP2 SWAP5 POP SWAP3 POP JUMP JUMPDEST PUSH0 DUP1 PUSH1 0x20 DUP4 DUP6 SUB SLT ISZERO PUSH2 0x784 JUMPI PUSH2 0x783 PUSH2 0x4F2 JUMP JUMPDEST JUMPDEST PUSH0 DUP4 ADD CALLDATALOAD PUSH8 0xFFFFFFFFFFFFFFFF DUP2 GT ISZERO PUSH2 0x7A1 JUMPI PUSH2 0x7A0 PUSH2 0x4F6 JUMP JUMPDEST JUMPDEST PUSH2 0x7AD DUP6 DUP3 DUP7 ADD PUSH2 0x5B5 JUMP JUMPDEST SWAP3 POP SWAP3 POP POP SWAP3 POP SWAP3 SWAP1 POP JUMP JUMPDEST PUSH0 DUP2 SWAP1 POP SWAP2 SWAP1 POP JUMP JUMPDEST PUSH2 0x7CB DUP2 PUSH2 0x7B9 JUMP JUMPDEST DUP3 MSTORE POP POP JUMP JUMPDEST PUSH0 PUSH1 0x20 DUP3 ADD SWAP1 POP PUSH2 0x7E4 PUSH0 DUP4 ADD DUP5 PUSH2 0x7C2 JUMP JUMPDEST SWAP3 SWAP2 POP POP JUMP JUMPDEST PUSH0 DUP3 DUP3 MSTORE PUSH1 0x20 DUP3 ADD SWAP1 POP SWAP3 SWAP2 POP POP JUMP JUMPDEST PUSH32 0x6C656E677468206F662061646472657373657320616E6420616D6F756E747320 PUSH0 DUP3 ADD MSTORE PUSH32 0x6E6F7420657175616C2100000000000000000000000000000000000000000000 PUSH1 0x20 DUP3 ADD MSTORE POP JUMP JUMPDEST PUSH0 PUSH2 0x854 PUSH1 0x2A DUP4 PUSH2 0x7EA JUMP JUMPDEST SWAP2 POP PUSH2 0x85F DUP3 PUSH2 0x7FA JUMP JUMPDEST PUSH1 0x40 DUP3 ADD SWAP1 POP SWAP2 SWAP1 POP JUMP JUMPDEST PUSH0 PUSH1 0x20 DUP3 ADD SWAP1 POP DUP2 DUP2 SUB PUSH0 DUP4 ADD MSTORE PUSH2 0x881 DUP2 PUSH2 0x848 JUMP JUMPDEST SWAP1 POP SWAP2 SWAP1 POP JUMP JUMPDEST PUSH2 0x891 DUP2 PUSH2 0x519 JUMP JUMPDEST DUP3 MSTORE POP POP JUMP JUMPDEST PUSH0 PUSH1 0x40 DUP3 ADD SWAP1 POP PUSH2 0x8AA PUSH0 DUP4 ADD DUP6 PUSH2 0x888 JUMP JUMPDEST PUSH2 0x8B7 PUSH1 0x20 DUP4 ADD DUP5 PUSH2 0x888 JUMP JUMPDEST SWAP4 SWAP3 POP POP POP JUMP JUMPDEST PUSH2 0x8C7 DUP2 PUSH2 0x7B9 JUMP JUMPDEST DUP2 EQ PUSH2 0x8D1 JUMPI PUSH0 DUP1 REVERT JUMPDEST POP JUMP JUMPDEST PUSH0 DUP2 MLOAD SWAP1 POP PUSH2 0x8E2 DUP2 PUSH2 0x8BE JUMP JUMPDEST SWAP3 SWAP2 POP POP JUMP JUMPDEST PUSH0 PUSH1 0x20 DUP3 DUP5 SUB SLT ISZERO PUSH2 0x8FD JUMPI PUSH2 0x8FC PUSH2 0x4F2 JUMP JUMPDEST JUMPDEST PUSH0 PUSH2 0x90A DUP5 DUP3 DUP6 ADD PUSH2 0x8D4 JUMP JUMPDEST SWAP2 POP POP SWAP3 SWAP2 POP POP JUMP JUMPDEST PUSH32 0x6E65656420617070726F766520746F6B656E0000000000000000000000000000 PUSH0 DUP3 ADD MSTORE POP JUMP JUMPDEST PUSH0 PUSH2 0x947 PUSH1 0x12 DUP4 PUSH2 0x7EA JUMP JUMPDEST SWAP2 POP PUSH2 0x952 DUP3 PUSH2 0x913 JUMP JUMPDEST PUSH1 0x20 DUP3 ADD SWAP1 POP SWAP2 SWAP1 POP JUMP JUMPDEST PUSH0 PUSH1 0x20 DUP3 ADD SWAP1 POP DUP2 DUP2 SUB PUSH0 DUP4 ADD MSTORE PUSH2 0x974 DUP2 PUSH2 0x93B JUMP JUMPDEST SWAP1 POP SWAP2 SWAP1 POP JUMP JUMPDEST PUSH32 0x4E487B7100000000000000000000000000000000000000000000000000000000 PUSH0 MSTORE PUSH1 0x32 PUSH1 0x4 MSTORE PUSH1 0x24 PUSH0 REVERT JUMPDEST PUSH0 PUSH1 0x20 DUP3 DUP5 SUB SLT ISZERO PUSH2 0x9BD JUMPI PUSH2 0x9BC PUSH2 0x4F2 JUMP JUMPDEST JUMPDEST PUSH0 PUSH2 0x9CA DUP5 DUP3 DUP6 ADD PUSH2 0x540 JUMP JUMPDEST SWAP2 POP POP SWAP3 SWAP2 POP POP JUMP JUMPDEST PUSH0 PUSH1 0x60 DUP3 ADD SWAP1 POP PUSH2 0x9E6 PUSH0 DUP4 ADD DUP7 PUSH2 0x888 JUMP JUMPDEST PUSH2 0x9F3 PUSH1 0x20 DUP4 ADD DUP6 PUSH2 0x888 JUMP JUMPDEST PUSH2 0xA00 PUSH1 0x40 DUP4 ADD DUP5 PUSH2 0x7C2 JUMP JUMPDEST SWAP5 SWAP4 POP POP POP POP JUMP JUMPDEST PUSH0 DUP2 ISZERO ISZERO SWAP1 POP SWAP2 SWAP1 POP JUMP JUMPDEST PUSH2 0xA1C DUP2 PUSH2 0xA08 JUMP JUMPDEST DUP2 EQ PUSH2 0xA26 JUMPI PUSH0 DUP1 REVERT JUMPDEST POP JUMP JUMPDEST PUSH0 DUP2 MLOAD SWAP1 POP PUSH2 0xA37 DUP2 PUSH2 0xA13 JUMP JUMPDEST SWAP3 SWAP2 POP POP JUMP JUMPDEST PUSH0 PUSH1 0x20 DUP3 DUP5 SUB SLT ISZERO PUSH2 0xA52 JUMPI PUSH2 0xA51 PUSH2 0x4F2 JUMP JUMPDEST JUMPDEST PUSH0 PUSH2 0xA5F DUP5 DUP3 DUP6 ADD PUSH2 0xA29 JUMP JUMPDEST SWAP2 POP POP SWAP3 SWAP2 POP POP JUMP JUMPDEST PUSH32 0x4E487B7100000000000000000000000000000000000000000000000000000000 PUSH0 MSTORE PUSH1 0x11 PUSH1 0x4 MSTORE PUSH1 0x24 PUSH0 REVERT JUMPDEST PUSH0 PUSH1 0xFF DUP3 AND SWAP1 POP SWAP2 SWAP1 POP JUMP JUMPDEST PUSH0 PUSH2 0xAAB DUP3 PUSH2 0xA95 JUMP JUMPDEST SWAP2 POP PUSH1 0xFF DUP3 SUB PUSH2 0xABE JUMPI PUSH2 0xABD PUSH2 0xA68 JUMP JUMPDEST JUMPDEST PUSH1 0x1 DUP3 ADD SWAP1 POP SWAP2 SWAP1 POP JUMP JUMPDEST PUSH32 0x4C656E67746873206F662041646472657373657320616E6420416D6F756E7473 PUSH0 DUP3 ADD MSTORE PUSH32 0x204E4F5420455155414C00000000000000000000000000000000000000000000 PUSH1 0x20 DUP3 ADD MSTORE POP JUMP JUMPDEST PUSH0 PUSH2 0xB23 PUSH1 0x2A DUP4 PUSH2 0x7EA JUMP JUMPDEST SWAP2 POP PUSH2 0xB2E DUP3 PUSH2 0xAC9 JUMP JUMPDEST PUSH1 0x40 DUP3 ADD SWAP1 POP SWAP2 SWAP1 POP JUMP JUMPDEST PUSH0 PUSH1 0x20 DUP3 ADD SWAP1 POP DUP2 DUP2 SUB PUSH0 DUP4 ADD MSTORE PUSH2 0xB50 DUP2 PUSH2 0xB17 JUMP JUMPDEST SWAP1 POP SWAP2 SWAP1 POP JUMP JUMPDEST PUSH32 0x7472616E7366657220616D6F756E74206572726F720000000000000000000000 PUSH0 DUP3 ADD MSTORE POP JUMP JUMPDEST PUSH0 PUSH2 0xB8B PUSH1 0x15 DUP4 PUSH2 0x7EA JUMP JUMPDEST SWAP2 POP PUSH2 0xB96 DUP3 PUSH2 0xB57 JUMP JUMPDEST PUSH1 0x20 DUP3 ADD SWAP1 POP SWAP2 SWAP1 POP JUMP JUMPDEST PUSH0 PUSH1 0x20 DUP3 ADD SWAP1 POP DUP2 DUP2 SUB PUSH0 DUP4 ADD MSTORE PUSH2 0xBB8 DUP2 PUSH2 0xB7F JUMP JUMPDEST SWAP1 POP SWAP2 SWAP1 POP JUMP JUMPDEST PUSH0 PUSH2 0xBC9 DUP3 PUSH2 0x4FA JUMP JUMPDEST SWAP1 POP SWAP2 SWAP1 POP JUMP JUMPDEST PUSH2 0xBD9 DUP2 PUSH2 0xBBF JUMP JUMPDEST DUP2 EQ PUSH2 0xBE3 JUMPI PUSH0 DUP1 REVERT JUMPDEST POP JUMP JUMPDEST PUSH0 DUP2 CALLDATALOAD SWAP1 POP PUSH2 0xBF4 DUP2 PUSH2 0xBD0 JUMP JUMPDEST SWAP3 SWAP2 POP POP JUMP JUMPDEST PUSH0 PUSH1 0x20 DUP3 DUP5 SUB SLT ISZERO PUSH2 0xC0F JUMPI PUSH2 0xC0E PUSH2 0x4F2 JUMP JUMPDEST JUMPDEST PUSH0 PUSH2 0xC1C DUP5 DUP3 DUP6 ADD PUSH2 0xBE6 JUMP JUMPDEST SWAP2 POP POP SWAP3 SWAP2 POP POP JUMP JUMPDEST PUSH0 DUP2 SWAP1 POP SWAP3 SWAP2 POP POP JUMP JUMPDEST POP JUMP JUMPDEST PUSH0 PUSH2 0xC3D PUSH0 DUP4 PUSH2 0xC25 JUMP JUMPDEST SWAP2 POP PUSH2 0xC48 DUP3 PUSH2 0xC2F JUMP JUMPDEST PUSH0 DUP3 ADD SWAP1 POP SWAP2 SWAP1 POP JUMP JUMPDEST PUSH0 PUSH2 0xC5C DUP3 PUSH2 0xC32 JUMP JUMPDEST SWAP2 POP DUP2 SWAP1 POP SWAP2 SWAP1 POP JUMP JUMPDEST PUSH0 PUSH2 0xC70 DUP3 PUSH2 0x7B9 JUMP JUMPDEST SWAP2 POP PUSH2 0xC7B DUP4 PUSH2 0x7B9 JUMP JUMPDEST SWAP3 POP DUP3 DUP3 ADD SWAP1 POP DUP1 DUP3 GT ISZERO PUSH2 0xC93 JUMPI PUSH2 0xC92 PUSH2 0xA68 JUMP JUMPDEST JUMPDEST SWAP3 SWAP2 POP POP JUMP INVALID LOG2 PUSH5 0x6970667358 0x22 SLT KECCAK256 BYTE PUSH15 0xC324B95517F0A23694326421361D9A PUSH0 PUSH13 0x75AF445332804A9D1386E3DB7 PUSH5 0x736F6C6343 STOP ADDMOD BYTE STOP CALLER "
				},
				"gasEstimates": {
					"creation": {
						"codeDepositCost": "655800",
						"executionCost": "687",
						"totalCost": "656487"
					},
					"external": {
						"getSum(uint256[])": "infinite",
						"multiTransETH(address[],uint256[])": "infinite",
						"multiTransferToken(address,address[],uint256[])": "infinite"
					}
				},
				"methodIdentifiers": {
					"getSum(uint256[])": "ccb8c1e0",
					"multiTransETH(address[],uint256[])": "48d26ade",
					"multiTransferToken(address,address[],uint256[])": "41ed24a2"
				}
			},
			"storageLayout": {
				"storage": [
					{
						"astId": 287,
						"contract": "contracts/103.sol:Airdrop",
						"label": "failTransferList",
						"offset": 0,
						"slot": "0",
						"type": "t_mapping(t_address,t_uint256)"
					}
				],
				"types": {
					"t_address": {
						"encoding": "inplace",
						"label": "address",
						"numberOfBytes": "20"
					},
					"t_mapping(t_address,t_uint256)": {
						"encoding": "mapping",
						"key": "t_address",
						"label": "mapping(address => uint256)",
						"numberOfBytes": "32",
						"value": "t_uint256"
					},
					"t_uint256": {
						"encoding": "inplace",
						"label": "uint256",
						"numberOfBytes": "32"
					}
				}
			},
			"userdoc": {
				"kind": "user",
				"methods": {
					"multiTransferToken(address,address[],uint256[])": {
						"notice": "send token to multiple address(need approve)"
					}
				},
				"notice": "airdrop contract*",
				"version": 1
			}
		}
	}
}