{
	"contracts/divingIntoChain.sol": {
		"testFunction": {
			"abi": [
				{
					"anonymous": false,
					"inputs": [
						{
							"indexed": true,
							"internalType": "address",
							"name": "from",
							"type": "address"
						},
						{
							"indexed": true,
							"internalType": "address",
							"name": "to",
							"type": "address"
						},
						{
							"indexed": false,
							"internalType": "uint256",
							"name": "value",
							"type": "uint256"
						}
					],
					"name": "Transfer",
					"type": "event"
				},
				{
					"inputs": [
						{
							"internalType": "address",
							"name": "",
							"type": "address"
						}
					],
					"name": "_balances",
					"outputs": [
						{
							"internalType": "uint256",
							"name": "",
							"type": "uint256"
						}
					],
					"stateMutability": "view",
					"type": "function"
				},
				{
					"inputs": [
						{
							"internalType": "address",
							"name": "from",
							"type": "address"
						},
						{
							"internalType": "address",
							"name": "to",
							"type": "address"
						},
						{
							"internalType": "uint256",
							"name": "amount",
							"type": "uint256"
						}
					],
					"name": "_transfer",
					"outputs": [],
					"stateMutability": "nonpayable",
					"type": "function"
				},
				{
					"inputs": [],
					"name": "add",
					"outputs": [],
					"stateMutability": "nonpayable",
					"type": "function"
				},
				{
					"inputs": [
						{
							"internalType": "uint256",
							"name": "_number",
							"type": "uint256"
						}
					],
					"name": "addNoFee",
					"outputs": [
						{
							"internalType": "uint256",
							"name": "_newNumber",
							"type": "uint256"
						}
					],
					"stateMutability": "pure",
					"type": "function"
				},
				{
					"inputs": [],
					"name": "addWithView",
					"outputs": [
						{
							"internalType": "uint256",
							"name": "_newNumber",
							"type": "uint256"
						}
					],
					"stateMutability": "view",
					"type": "function"
				},
				{
					"inputs": [],
					"name": "arrayType",
					"outputs": [],
					"stateMutability": "pure",
					"type": "function"
				},
				{
					"inputs": [
						{
							"internalType": "address",
							"name": "_newOwner",
							"type": "address"
						}
					],
					"name": "changeOwner",
					"outputs": [],
					"stateMutability": "nonpayable",
					"type": "function"
				},
				{
					"inputs": [],
					"name": "destructVariable",
					"outputs": [
						{
							"internalType": "uint256",
							"name": "_number",
							"type": "uint256"
						},
						{
							"internalType": "bool",
							"name": "_bool",
							"type": "bool"
						},
						{
							"internalType": "uint256[3]",
							"name": "_array",
							"type": "uint256[3]"
						}
					],
					"stateMutability": "view",
					"type": "function"
				},
				{
					"inputs": [],
					"name": "fGlobal",
					"outputs": [
						{
							"internalType": "address",
							"name": "",
							"type": "address"
						},
						{
							"internalType": "uint256",
							"name": "",
							"type": "uint256"
						},
						{
							"internalType": "bytes",
							"name": "",
							"type": "bytes"
						}
					],
					"stateMutability": "view",
					"type": "function"
				},
				{
					"inputs": [],
					"name": "fstorage",
					"outputs": [],
					"stateMutability": "nonpayable",
					"type": "function"
				},
				{
					"inputs": [],
					"name": "initStudent1",
					"outputs": [],
					"stateMutability": "nonpayable",
					"type": "function"
				},
				{
					"inputs": [],
					"name": "initStudent2",
					"outputs": [],
					"stateMutability": "nonpayable",
					"type": "function"
				},
				{
					"inputs": [],
					"name": "initStudent3",
					"outputs": [],
					"stateMutability": "nonpayable",
					"type": "function"
				},
				{
					"inputs": [],
					"name": "initStudent4",
					"outputs": [],
					"stateMutability": "nonpayable",
					"type": "function"
				},
				{
					"inputs": [
						{
							"internalType": "uint256[]",
							"name": "a",
							"type": "uint256[]"
						}
					],
					"name": "insertSort",
					"outputs": [
						{
							"internalType": "uint256[]",
							"name": "",
							"type": "uint256[]"
						}
					],
					"stateMutability": "pure",
					"type": "function"
				},
				{
					"inputs": [],
					"name": "minusCall",
					"outputs": [],
					"stateMutability": "nonpayable",
					"type": "function"
				},
				{
					"inputs": [],
					"name": "minusPayble",
					"outputs": [
						{
							"internalType": "uint256",
							"name": "balance",
							"type": "uint256"
						}
					],
					"stateMutability": "payable",
					"type": "function"
				},
				{
					"inputs": [],
					"name": "returnMultiple",
					"outputs": [
						{
							"internalType": "uint256",
							"name": "",
							"type": "uint256"
						},
						{
							"internalType": "bool",
							"name": "",
							"type": "bool"
						},
						{
							"internalType": "uint256[3]",
							"name": "",
							"type": "uint256[3]"
						}
					],
					"stateMutability": "pure",
					"type": "function"
				},
				{
					"inputs": [],
					"name": "returnNamed",
					"outputs": [
						{
							"internalType": "uint256",
							"name": "_number",
							"type": "uint256"
						},
						{
							"internalType": "bool",
							"name": "_bool",
							"type": "bool"
						},
						{
							"internalType": "uint256[3]",
							"name": "_array",
							"type": "uint256[3]"
						}
					],
					"stateMutability": "pure",
					"type": "function"
				}
			],
			"devdoc": {
				"kind": "dev",
				"methods": {},
				"version": 1
			},
			"evm": {
				"assembly": "    /* \"contracts/divingIntoChain.sol\":57:12423  contract testFunction{... */\n  mstore(0x40, 0x80)\n    /* \"contracts/divingIntoChain.sol\":240:241  1 */\n  0x01\n    /* \"contracts/divingIntoChain.sol\":224:241  uint thisUint = 1 */\n  0x00\n  sstore\n    /* \"contracts/divingIntoChain.sol\":4066:4085  uint[3] x = [1,2,3] */\n  mload(0x40)\n  dup1\n  0x60\n  add\n  0x40\n  mstore\n  dup1\n    /* \"contracts/divingIntoChain.sol\":4079:4080  1 */\n  0x01\n    /* \"contracts/divingIntoChain.sol\":4066:4085  uint[3] x = [1,2,3] */\n  0xff\n  and\n  dup2\n  mstore\n  0x20\n  add\n    /* \"contracts/divingIntoChain.sol\":4081:4082  2 */\n  0x02\n    /* \"contracts/divingIntoChain.sol\":4066:4085  uint[3] x = [1,2,3] */\n  0xff\n  and\n  dup2\n  mstore\n  0x20\n  add\n    /* \"contracts/divingIntoChain.sol\":4083:4084  3 */\n  0x03\n    /* \"contracts/divingIntoChain.sol\":4066:4085  uint[3] x = [1,2,3] */\n  0xff\n  and\n  dup2\n  mstore\n  pop\n  0x01\n  swap1\n  0x03\n  tag_1\n  swap3\n  swap2\n  swap1\n  tag_2\n  jump\t// in\ntag_1:\n  pop\n    /* \"contracts/divingIntoChain.sol\":57:12423  contract testFunction{... */\n  callvalue\n  dup1\n  iszero\n  tag_3\n  jumpi\n  0x00\n  dup1\n  revert\ntag_3:\n  pop\n  jump(tag_4)\ntag_2:\n  dup3\n  0x03\n  dup2\n  add\n  swap3\n  dup3\n  iszero\n  tag_5\n  jumpi\n  swap2\n  0x20\n  mul\n  dup3\n  add\ntag_6:\n  dup3\n  dup2\n  gt\n  iszero\n  tag_7\n  jumpi\n  dup3\n  mload\n  dup3\n  swap1\n  0xff\n  and\n  swap1\n  sstore\n  swap2\n  0x20\n  add\n  swap2\n  swap1\n  0x01\n  add\n  swap1\n  jump(tag_6)\ntag_7:\ntag_5:\n  pop\n  swap1\n  pop\n  tag_8\n  swap2\n  swap1\n  tag_9\n  jump\t// in\ntag_8:\n  pop\n  swap1\n  jump\t// out\ntag_9:\ntag_10:\n  dup1\n  dup3\n  gt\n  iszero\n  tag_11\n  jumpi\n  0x00\n  dup2\n  0x00\n  swap1\n  sstore\n  pop\n  0x01\n  add\n  jump(tag_10)\ntag_11:\n  pop\n  swap1\n  jump\t// out\ntag_4:\n  dataSize(sub_0)\n  dup1\n  dataOffset(sub_0)\n  0x00\n  codecopy\n  0x00\n  return\nstop\n\nsub_0: assembly {\n        /* \"contracts/divingIntoChain.sol\":57:12423  contract testFunction{... */\n      mstore(0x40, 0x80)\n      jumpi(tag_1, lt(calldatasize, 0x04))\n      shr(0xe0, calldataload(0x00))\n      dup1\n      0x5e3be076\n      gt\n      tag_21\n      jumpi\n      dup1\n      0xa8b63e6f\n      gt\n      tag_22\n      jumpi\n      dup1\n      0xa8b63e6f\n      eq\n      tag_16\n      jumpi\n      dup1\n      0xb23d97f2\n      eq\n      tag_17\n      jumpi\n      dup1\n      0xb308a0d4\n      eq\n      tag_18\n      jumpi\n      dup1\n      0xd2ea40c7\n      eq\n      tag_19\n      jumpi\n      dup1\n      0xe61e4008\n      eq\n      tag_20\n      jumpi\n      jump(tag_1)\n    tag_22:\n      dup1\n      0x5e3be076\n      eq\n      tag_11\n      jumpi\n      dup1\n      0x6ebcf607\n      eq\n      tag_12\n      jumpi\n      dup1\n      0x80b4ea08\n      eq\n      tag_13\n      jumpi\n      dup1\n      0x9ebb8d20\n      eq\n      tag_14\n      jumpi\n      dup1\n      0xa6f9dae1\n      eq\n      tag_15\n      jumpi\n      jump(tag_1)\n    tag_21:\n      dup1\n      0x351aab54\n      gt\n      tag_23\n      jumpi\n      dup1\n      0x351aab54\n      eq\n      tag_6\n      jumpi\n      dup1\n      0x3dece511\n      eq\n      tag_7\n      jumpi\n      dup1\n      0x461f4638\n      eq\n      tag_8\n      jumpi\n      dup1\n      0x4f2be91f\n      eq\n      tag_9\n      jumpi\n      dup1\n      0x5a4236b1\n      eq\n      tag_10\n      jumpi\n      jump(tag_1)\n    tag_23:\n      dup1\n      0x035cb56d\n      eq\n      tag_2\n      jumpi\n      dup1\n      0x1a8d7dc3\n      eq\n      tag_3\n      jumpi\n      dup1\n      0x209a519f\n      eq\n      tag_4\n      jumpi\n      dup1\n      0x30e0789e\n      eq\n      tag_5\n      jumpi\n    tag_1:\n      0x00\n      dup1\n      revert\n        /* \"contracts/divingIntoChain.sol\":2725:3173  function destructVariable() external view returns(uint256 _number,bool _bool,uint256[3] memory _array){... */\n    tag_2:\n      callvalue\n      dup1\n      iszero\n      tag_24\n      jumpi\n      0x00\n      dup1\n      revert\n    tag_24:\n      pop\n      tag_25\n      tag_26\n      jump\t// in\n    tag_25:\n      mload(0x40)\n      tag_27\n      swap4\n      swap3\n      swap2\n      swap1\n      tag_28\n      jump\t// in\n    tag_27:\n      mload(0x40)\n      dup1\n      swap2\n      sub\n      swap1\n      return\n        /* \"contracts/divingIntoChain.sol\":7281:7372  function initStudent2() external{... */\n    tag_3:\n      callvalue\n      dup1\n      iszero\n      tag_29\n      jumpi\n      0x00\n      dup1\n      revert\n    tag_29:\n      pop\n      tag_30\n      tag_31\n      jump\t// in\n    tag_30:\n      stop\n        /* \"contracts/divingIntoChain.sol\":473:668  function addNoFee(uint _number) external pure returns(uint _newNumber)  {... */\n    tag_4:\n      callvalue\n      dup1\n      iszero\n      tag_32\n      jumpi\n      0x00\n      dup1\n      revert\n    tag_32:\n      pop\n      tag_33\n      0x04\n      dup1\n      calldatasize\n      sub\n      dup2\n      add\n      swap1\n      tag_34\n      swap2\n      swap1\n      tag_35\n      jump\t// in\n    tag_34:\n      tag_36\n      jump\t// in\n    tag_33:\n      mload(0x40)\n      tag_37\n      swap2\n      swap1\n      tag_38\n      jump\t// in\n    tag_37:\n      mload(0x40)\n      dup1\n      swap2\n      sub\n      swap1\n      return\n        /* \"contracts/divingIntoChain.sol\":11517:11907  function _transfer(... */\n    tag_5:\n      callvalue\n      dup1\n      iszero\n      tag_39\n      jumpi\n      0x00\n      dup1\n      revert\n    tag_39:\n      pop\n      tag_40\n      0x04\n      dup1\n      calldatasize\n      sub\n      dup2\n      add\n      swap1\n      tag_41\n      swap2\n      swap1\n      tag_42\n      jump\t// in\n    tag_41:\n      tag_43\n      jump\t// in\n    tag_40:\n      stop\n        /* \"contracts/divingIntoChain.sol\":5435:6764  function arrayType() pure external {... */\n    tag_6:\n      callvalue\n      dup1\n      iszero\n      tag_44\n      jumpi\n      0x00\n      dup1\n      revert\n    tag_44:\n      pop\n      tag_45\n      tag_46\n      jump\t// in\n    tag_45:\n      stop\n        /* \"contracts/divingIntoChain.sol\":2321:2503  function returnNamed() public  pure returns(uint256 _number,bool _bool,uint256[3] memory _array){... */\n    tag_7:\n      callvalue\n      dup1\n      iszero\n      tag_47\n      jumpi\n      0x00\n      dup1\n      revert\n    tag_47:\n      pop\n      tag_48\n      tag_49\n      jump\t// in\n    tag_48:\n      mload(0x40)\n      tag_50\n      swap4\n      swap3\n      swap2\n      swap1\n      tag_28\n      jump\t// in\n    tag_50:\n      mload(0x40)\n      dup1\n      swap2\n      sub\n      swap1\n      return\n        /* \"contracts/divingIntoChain.sol\":4678:4980  function fGlobal() external view returns(address, uint, bytes memory){... */\n    tag_8:\n      callvalue\n      dup1\n      iszero\n      tag_51\n      jumpi\n      0x00\n      dup1\n      revert\n    tag_51:\n      pop\n      tag_52\n      tag_53\n      jump\t// in\n    tag_52:\n      mload(0x40)\n      tag_54\n      swap4\n      swap3\n      swap2\n      swap1\n      tag_55\n      jump\t// in\n    tag_54:\n      mload(0x40)\n      dup1\n      swap2\n      sub\n      swap1\n      return\n        /* \"contracts/divingIntoChain.sol\":303:421  function add() external   {... */\n    tag_9:\n      callvalue\n      dup1\n      iszero\n      tag_56\n      jumpi\n      0x00\n      dup1\n      revert\n    tag_56:\n      pop\n      tag_57\n      tag_58\n      jump\t// in\n    tag_57:\n      stop\n        /* \"contracts/divingIntoChain.sol\":7409:7483  function initStudent3() external {... */\n    tag_10:\n      callvalue\n      dup1\n      iszero\n      tag_59\n      jumpi\n      0x00\n      dup1\n      revert\n    tag_59:\n      pop\n      tag_60\n      tag_61\n      jump\t// in\n    tag_60:\n      stop\n        /* \"contracts/divingIntoChain.sol\":4091:4264  function fstorage() public {... */\n    tag_11:\n      callvalue\n      dup1\n      iszero\n      tag_62\n      jumpi\n      0x00\n      dup1\n      revert\n    tag_62:\n      pop\n      tag_63\n      tag_64\n      jump\t// in\n    tag_63:\n      stop\n        /* \"contracts/divingIntoChain.sol\":11427:11471  mapping(address => uint256) public _balances */\n    tag_12:\n      callvalue\n      dup1\n      iszero\n      tag_65\n      jumpi\n      0x00\n      dup1\n      revert\n    tag_65:\n      pop\n      tag_66\n      0x04\n      dup1\n      calldatasize\n      sub\n      dup2\n      add\n      swap1\n      tag_67\n      swap2\n      swap1\n      tag_68\n      jump\t// in\n    tag_67:\n      tag_69\n      jump\t// in\n    tag_66:\n      mload(0x40)\n      tag_70\n      swap2\n      swap1\n      tag_38\n      jump\t// in\n    tag_70:\n      mload(0x40)\n      dup1\n      swap2\n      sub\n      swap1\n      return\n        /* \"contracts/divingIntoChain.sol\":1159:1213  function minusCall() external {... */\n    tag_13:\n      callvalue\n      dup1\n      iszero\n      tag_71\n      jumpi\n      0x00\n      dup1\n      revert\n    tag_71:\n      pop\n      tag_72\n      tag_73\n      jump\t// in\n    tag_72:\n      stop\n        /* \"contracts/divingIntoChain.sol\":7510:7597  function initStudent4() external {... */\n    tag_14:\n      callvalue\n      dup1\n      iszero\n      tag_74\n      jumpi\n      0x00\n      dup1\n      revert\n    tag_74:\n      pop\n      tag_75\n      tag_76\n      jump\t// in\n    tag_75:\n      stop\n        /* \"contracts/divingIntoChain.sol\":10715:10868  function changeOwner(address _newOwner) external onlyOwner{... */\n    tag_15:\n      callvalue\n      dup1\n      iszero\n      tag_77\n      jumpi\n      0x00\n      dup1\n      revert\n    tag_77:\n      pop\n      tag_78\n      0x04\n      dup1\n      calldatasize\n      sub\n      dup2\n      add\n      swap1\n      tag_79\n      swap2\n      swap1\n      tag_68\n      jump\t// in\n    tag_79:\n      tag_80\n      jump\t// in\n    tag_78:\n      stop\n        /* \"contracts/divingIntoChain.sol\":7061:7232  function initStudent1() external  {... */\n    tag_16:\n      callvalue\n      dup1\n      iszero\n      tag_81\n      jumpi\n      0x00\n      dup1\n      revert\n    tag_81:\n      pop\n      tag_82\n      tag_83\n      jump\t// in\n    tag_82:\n      stop\n        /* \"contracts/divingIntoChain.sol\":9481:9852  function insertSort(uint[] memory a) external pure returns (uint[] memory){... */\n    tag_17:\n      callvalue\n      dup1\n      iszero\n      tag_84\n      jumpi\n      0x00\n      dup1\n      revert\n    tag_84:\n      pop\n      tag_85\n      0x04\n      dup1\n      calldatasize\n      sub\n      dup2\n      add\n      swap1\n      tag_86\n      swap2\n      swap1\n      tag_87\n      jump\t// in\n    tag_86:\n      tag_88\n      jump\t// in\n    tag_85:\n      mload(0x40)\n      tag_89\n      swap2\n      swap1\n      tag_90\n      jump\t// in\n    tag_89:\n      mload(0x40)\n      dup1\n      swap2\n      sub\n      swap1\n      return\n        /* \"contracts/divingIntoChain.sol\":753:945  function addWithView() external view returns(uint _newNumber){... */\n    tag_18:\n      callvalue\n      dup1\n      iszero\n      tag_91\n      jumpi\n      0x00\n      dup1\n      revert\n    tag_91:\n      pop\n      tag_92\n      tag_93\n      jump\t// in\n    tag_92:\n      mload(0x40)\n      tag_94\n      swap2\n      swap1\n      tag_38\n      jump\t// in\n    tag_94:\n      mload(0x40)\n      dup1\n      swap2\n      sub\n      swap1\n      return\n        /* \"contracts/divingIntoChain.sol\":1310:1506  function minusPayble( ) external payable returns(uint256 balance){... */\n    tag_19:\n      tag_95\n      tag_96\n      jump\t// in\n    tag_95:\n      mload(0x40)\n      tag_97\n      swap2\n      swap1\n      tag_38\n      jump\t// in\n    tag_97:\n      mload(0x40)\n      dup1\n      swap2\n      sub\n      swap1\n      return\n        /* \"contracts/divingIntoChain.sol\":1889:2016  function returnMultiple() public pure returns(uint256,bool,uint256[3] memory) {... */\n    tag_20:\n      callvalue\n      dup1\n      iszero\n      tag_98\n      jumpi\n      0x00\n      dup1\n      revert\n    tag_98:\n      pop\n      tag_99\n      tag_100\n      jump\t// in\n    tag_99:\n      mload(0x40)\n      tag_101\n      swap4\n      swap3\n      swap2\n      swap1\n      tag_28\n      jump\t// in\n    tag_101:\n      mload(0x40)\n      dup1\n      swap2\n      sub\n      swap1\n      return\n        /* \"contracts/divingIntoChain.sol\":2725:3173  function destructVariable() external view returns(uint256 _number,bool _bool,uint256[3] memory _array){... */\n    tag_26:\n        /* \"contracts/divingIntoChain.sol\":2775:2790  uint256 _number */\n      0x00\n        /* \"contracts/divingIntoChain.sol\":2791:2801  bool _bool */\n      dup1\n        /* \"contracts/divingIntoChain.sol\":2802:2826  uint256[3] memory _array */\n      tag_102\n      tag_103\n      jump\t// in\n    tag_102:\n        /* \"contracts/divingIntoChain.sol\":2952:2956  this */\n      address\n        /* \"contracts/divingIntoChain.sol\":2952:2968  this.returnNamed */\n      0xffffffffffffffffffffffffffffffffffffffff\n      and\n      0x3dece511\n        /* \"contracts/divingIntoChain.sol\":2952:2970  this.returnNamed() */\n      mload(0x40)\n      dup2\n      0xffffffff\n      and\n      0xe0\n      shl\n      dup2\n      mstore\n      0x04\n      add\n      0xa0\n      mload(0x40)\n      dup1\n      dup4\n      sub\n      dup2\n      dup7\n      gas\n      staticcall\n      iszero\n      dup1\n      iszero\n      tag_106\n      jumpi\n      returndatasize\n      0x00\n      dup1\n      returndatacopy\n      revert(0x00, returndatasize)\n    tag_106:\n      pop\n      pop\n      pop\n      pop\n      mload(0x40)\n      returndatasize\n      not(0x1f)\n      0x1f\n      dup3\n      add\n      and\n      dup3\n      add\n      dup1\n      0x40\n      mstore\n      pop\n      dup2\n      add\n      swap1\n      tag_107\n      swap2\n      swap1\n      tag_108\n      jump\t// in\n    tag_107:\n        /* \"contracts/divingIntoChain.sol\":2925:2970  (_number, _bool, _array) = this.returnNamed() */\n      dup1\n      swap4\n      pop\n      dup2\n      swap5\n      pop\n      dup3\n      swap6\n      pop\n      pop\n      pop\n      pop\n        /* \"contracts/divingIntoChain.sol\":2725:3173  function destructVariable() external view returns(uint256 _number,bool _bool,uint256[3] memory _array){... */\n      swap1\n      swap2\n      swap3\n      jump\t// out\n        /* \"contracts/divingIntoChain.sol\":7281:7372  function initStudent2() external{... */\n    tag_31:\n        /* \"contracts/divingIntoChain.sol\":7336:7337  1 */\n      0x01\n        /* \"contracts/divingIntoChain.sol\":7323:7330  student */\n      0x04\n        /* \"contracts/divingIntoChain.sol\":7323:7333  student.id */\n      0x00\n      add\n        /* \"contracts/divingIntoChain.sol\":7323:7337  student.id = 1 */\n      dup2\n      swap1\n      sstore\n      pop\n        /* \"contracts/divingIntoChain.sol\":7363:7365  80 */\n      0x50\n        /* \"contracts/divingIntoChain.sol\":7347:7354  student */\n      0x04\n        /* \"contracts/divingIntoChain.sol\":7347:7360  student.score */\n      0x01\n      add\n        /* \"contracts/divingIntoChain.sol\":7347:7365  student.score = 80 */\n      dup2\n      swap1\n      sstore\n      pop\n        /* \"contracts/divingIntoChain.sol\":7281:7372  function initStudent2() external{... */\n      jump\t// out\n        /* \"contracts/divingIntoChain.sol\":473:668  function addNoFee(uint _number) external pure returns(uint _newNumber)  {... */\n    tag_36:\n        /* \"contracts/divingIntoChain.sol\":527:542  uint _newNumber */\n      0x00\n        /* \"contracts/divingIntoChain.sol\":578:579  1 */\n      0x01\n        /* \"contracts/divingIntoChain.sol\":568:575  _number */\n      dup3\n        /* \"contracts/divingIntoChain.sol\":568:579  _number + 1 */\n      tag_111\n      swap2\n      swap1\n      tag_112\n      jump\t// in\n    tag_111:\n        /* \"contracts/divingIntoChain.sol\":555:579  _newNumber = _number + 1 */\n      swap1\n      pop\n        /* \"contracts/divingIntoChain.sol\":473:668  function addNoFee(uint _number) external pure returns(uint _newNumber)  {... */\n      swap2\n      swap1\n      pop\n      jump\t// out\n        /* \"contracts/divingIntoChain.sol\":11517:11907  function _transfer(... */\n    tag_43:\n        /* \"contracts/divingIntoChain.sol\":11653:11662  123456789 */\n      0x075bcd15\n        /* \"contracts/divingIntoChain.sol\":11635:11644  _balances */\n      0x07\n        /* \"contracts/divingIntoChain.sol\":11635:11650  _balances[from] */\n      0x00\n        /* \"contracts/divingIntoChain.sol\":11645:11649  from */\n      dup6\n        /* \"contracts/divingIntoChain.sol\":11635:11650  _balances[from] */\n      0xffffffffffffffffffffffffffffffffffffffff\n      and\n      0xffffffffffffffffffffffffffffffffffffffff\n      and\n      dup2\n      mstore\n      0x20\n      add\n      swap1\n      dup2\n      mstore\n      0x20\n      add\n      0x00\n      keccak256\n        /* \"contracts/divingIntoChain.sol\":11635:11662  _balances[from] = 123456789 */\n      dup2\n      swap1\n      sstore\n      pop\n        /* \"contracts/divingIntoChain.sol\":11732:11738  amount */\n      dup1\n        /* \"contracts/divingIntoChain.sol\":11713:11722  _balances */\n      0x07\n        /* \"contracts/divingIntoChain.sol\":11713:11728  _balances[from] */\n      0x00\n        /* \"contracts/divingIntoChain.sol\":11723:11727  from */\n      dup6\n        /* \"contracts/divingIntoChain.sol\":11713:11728  _balances[from] */\n      0xffffffffffffffffffffffffffffffffffffffff\n      and\n      0xffffffffffffffffffffffffffffffffffffffff\n      and\n      dup2\n      mstore\n      0x20\n      add\n      swap1\n      dup2\n      mstore\n      0x20\n      add\n      0x00\n      keccak256\n      0x00\n        /* \"contracts/divingIntoChain.sol\":11713:11738  _balances[from] -= amount */\n      dup3\n      dup3\n      sload\n      tag_114\n      swap2\n      swap1\n      tag_115\n      jump\t// in\n    tag_114:\n      swap3\n      pop\n      pop\n      dup2\n      swap1\n      sstore\n      pop\n        /* \"contracts/divingIntoChain.sol\":11807:11813  amount */\n      dup1\n        /* \"contracts/divingIntoChain.sol\":11790:11799  _balances */\n      0x07\n        /* \"contracts/divingIntoChain.sol\":11790:11803  _balances[to] */\n      0x00\n        /* \"contracts/divingIntoChain.sol\":11800:11802  to */\n      dup5\n        /* \"contracts/divingIntoChain.sol\":11790:11803  _balances[to] */\n      0xffffffffffffffffffffffffffffffffffffffff\n      and\n      0xffffffffffffffffffffffffffffffffffffffff\n      and\n      dup2\n      mstore\n      0x20\n      add\n      swap1\n      dup2\n      mstore\n      0x20\n      add\n      0x00\n      keccak256\n      0x00\n        /* \"contracts/divingIntoChain.sol\":11790:11813  _balances[to] += amount */\n      dup3\n      dup3\n      sload\n      tag_116\n      swap2\n      swap1\n      tag_112\n      jump\t// in\n    tag_116:\n      swap3\n      pop\n      pop\n      dup2\n      swap1\n      sstore\n      pop\n        /* \"contracts/divingIntoChain.sol\":11875:11877  to */\n      dup2\n        /* \"contracts/divingIntoChain.sol\":11861:11885  Transfer(from,to,amount) */\n      0xffffffffffffffffffffffffffffffffffffffff\n      and\n        /* \"contracts/divingIntoChain.sol\":11870:11874  from */\n      dup4\n        /* \"contracts/divingIntoChain.sol\":11861:11885  Transfer(from,to,amount) */\n      0xffffffffffffffffffffffffffffffffffffffff\n      and\n      0xddf252ad1be2c89b69c2b068fc378daa952ba7f163c4a11628f55a4df523b3ef\n        /* \"contracts/divingIntoChain.sol\":11878:11884  amount */\n      dup4\n        /* \"contracts/divingIntoChain.sol\":11861:11885  Transfer(from,to,amount) */\n      mload(0x40)\n      tag_117\n      swap2\n      swap1\n      tag_38\n      jump\t// in\n    tag_117:\n      mload(0x40)\n      dup1\n      swap2\n      sub\n      swap1\n      log3\n        /* \"contracts/divingIntoChain.sol\":11517:11907  function _transfer(... */\n      pop\n      pop\n      pop\n      jump\t// out\n        /* \"contracts/divingIntoChain.sol\":5435:6764  function arrayType() pure external {... */\n    tag_46:\n        /* \"contracts/divingIntoChain.sol\":5504:5526  uint[8] storage array1 */\n      0x00\n        /* \"contracts/divingIntoChain.sol\":5536:5560  bytes[8]  storage array2 */\n      dup1\n        /* \"contracts/divingIntoChain.sol\":5570:5597  address[100] storage array3 */\n      0x00\n        /* \"contracts/divingIntoChain.sol\":5634:5655  uint[] storage array4 */\n      dup1\n        /* \"contracts/divingIntoChain.sol\":5665:5688  bytes1[] storage array5 */\n      0x00\n        /* \"contracts/divingIntoChain.sol\":5698:5722  address[] storage array6 */\n      dup1\n        /* \"contracts/divingIntoChain.sol\":6002:6022  bytes storage array7 */\n      0x00\n        /* \"contracts/divingIntoChain.sol\":6336:6356  uint[] memory array8 */\n      dup1\n        /* \"contracts/divingIntoChain.sol\":6370:6371  5 */\n      0x05\n        /* \"contracts/divingIntoChain.sol\":6359:6372  new uint[](5) */\n      0xffffffffffffffff\n      dup2\n      gt\n      iszero\n      tag_119\n      jumpi\n      tag_120\n      tag_121\n      jump\t// in\n    tag_120:\n    tag_119:\n      mload(0x40)\n      swap1\n      dup1\n      dup3\n      mstore\n      dup1\n      0x20\n      mul\n      0x20\n      add\n      dup3\n      add\n      0x40\n      mstore\n      dup1\n      iszero\n      tag_122\n      jumpi\n      dup2\n      0x20\n      add\n      0x20\n      dup3\n      mul\n      dup1\n      calldatasize\n      dup4\n      calldatacopy\n      dup1\n      dup3\n      add\n      swap2\n      pop\n      pop\n      swap1\n      pop\n    tag_122:\n      pop\n        /* \"contracts/divingIntoChain.sol\":6336:6372  uint[] memory array8 = new uint[](5) */\n      swap1\n      pop\n        /* \"contracts/divingIntoChain.sol\":6382:6401  bytes memory array9 */\n      0x00\n        /* \"contracts/divingIntoChain.sol\":6414:6415  9 */\n      0x09\n        /* \"contracts/divingIntoChain.sol\":6404:6416  new bytes(9) */\n      0xffffffffffffffff\n      dup2\n      gt\n      iszero\n      tag_123\n      jumpi\n      tag_124\n      tag_121\n      jump\t// in\n    tag_124:\n    tag_123:\n      mload(0x40)\n      swap1\n      dup1\n      dup3\n      mstore\n      dup1\n      0x1f\n      add\n      not(0x1f)\n      and\n      0x20\n      add\n      dup3\n      add\n      0x40\n      mstore\n      dup1\n      iszero\n      tag_125\n      jumpi\n      dup2\n      0x20\n      add\n      0x01\n      dup3\n      mul\n      dup1\n      calldatasize\n      dup4\n      calldatacopy\n      dup1\n      dup3\n      add\n      swap2\n      pop\n      pop\n      swap1\n      pop\n    tag_125:\n      pop\n        /* \"contracts/divingIntoChain.sol\":6382:6416  bytes memory array9 = new bytes(9) */\n      swap1\n      pop\n        /* \"contracts/divingIntoChain.sol\":6503:6504  1 */\n      0x01\n        /* \"contracts/divingIntoChain.sol\":6491:6497  array8 */\n      dup3\n        /* \"contracts/divingIntoChain.sol\":6498:6499  0 */\n      0x00\n        /* \"contracts/divingIntoChain.sol\":6491:6500  array8[0] */\n      dup2\n      mload\n      dup2\n      lt\n      tag_126\n      jumpi\n      tag_127\n      tag_128\n      jump\t// in\n    tag_127:\n    tag_126:\n      0x20\n      mul\n      0x20\n      add\n      add\n        /* \"contracts/divingIntoChain.sol\":6491:6504  array8[0] = 1 */\n      dup2\n      dup2\n      mstore\n      pop\n      pop\n        /* \"contracts/divingIntoChain.sol\":6526:6527  2 */\n      0x02\n        /* \"contracts/divingIntoChain.sol\":6514:6520  array8 */\n      dup3\n        /* \"contracts/divingIntoChain.sol\":6521:6522  1 */\n      0x01\n        /* \"contracts/divingIntoChain.sol\":6514:6523  array8[1] */\n      dup2\n      mload\n      dup2\n      lt\n      tag_129\n      jumpi\n      tag_130\n      tag_128\n      jump\t// in\n    tag_130:\n    tag_129:\n      0x20\n      mul\n      0x20\n      add\n      add\n        /* \"contracts/divingIntoChain.sol\":6514:6527  array8[1] = 2 */\n      dup2\n      dup2\n      mstore\n      pop\n      pop\n        /* \"contracts/divingIntoChain.sol\":5470:6764  {... */\n      pop\n      pop\n      pop\n      pop\n      pop\n      pop\n      pop\n      pop\n      pop\n        /* \"contracts/divingIntoChain.sol\":5435:6764  function arrayType() pure external {... */\n      jump\t// out\n        /* \"contracts/divingIntoChain.sol\":2321:2503  function returnNamed() public  pure returns(uint256 _number,bool _bool,uint256[3] memory _array){... */\n    tag_49:\n        /* \"contracts/divingIntoChain.sol\":2365:2380  uint256 _number */\n      0x00\n        /* \"contracts/divingIntoChain.sol\":2381:2391  bool _bool */\n      dup1\n        /* \"contracts/divingIntoChain.sol\":2392:2416  uint256[3] memory _array */\n      tag_131\n      tag_103\n      jump\t// in\n    tag_131:\n        /* \"contracts/divingIntoChain.sol\":2437:2438  2 */\n      0x02\n        /* \"contracts/divingIntoChain.sol\":2427:2438  _number = 2 */\n      swap3\n      pop\n        /* \"contracts/divingIntoChain.sol\":2456:2461  false */\n      0x00\n        /* \"contracts/divingIntoChain.sol\":2448:2461  _bool = false */\n      swap2\n      pop\n        /* \"contracts/divingIntoChain.sol\":2471:2496  _array = [uint256(3),2,1] */\n      mload(0x40)\n      dup1\n      0x60\n      add\n      0x40\n      mstore\n      dup1\n        /* \"contracts/divingIntoChain.sol\":2489:2490  3 */\n      0x03\n        /* \"contracts/divingIntoChain.sol\":2471:2496  _array = [uint256(3),2,1] */\n      dup2\n      mstore\n      0x20\n      add\n        /* \"contracts/divingIntoChain.sol\":2492:2493  2 */\n      0x02\n        /* \"contracts/divingIntoChain.sol\":2471:2496  _array = [uint256(3),2,1] */\n      dup2\n      mstore\n      0x20\n      add\n        /* \"contracts/divingIntoChain.sol\":2494:2495  1 */\n      0x01\n        /* \"contracts/divingIntoChain.sol\":2471:2496  _array = [uint256(3),2,1] */\n      dup2\n      mstore\n      pop\n      swap1\n      pop\n        /* \"contracts/divingIntoChain.sol\":2321:2503  function returnNamed() public  pure returns(uint256 _number,bool _bool,uint256[3] memory _array){... */\n      swap1\n      swap2\n      swap3\n      jump\t// out\n        /* \"contracts/divingIntoChain.sol\":4678:4980  function fGlobal() external view returns(address, uint, bytes memory){... */\n    tag_53:\n        /* \"contracts/divingIntoChain.sol\":4719:4726  address */\n      0x00\n        /* \"contracts/divingIntoChain.sol\":4728:4732  uint */\n      dup1\n        /* \"contracts/divingIntoChain.sol\":4734:4746  bytes memory */\n      0x60\n        /* \"contracts/divingIntoChain.sol\":4757:4771  address sender */\n      0x00\n        /* \"contracts/divingIntoChain.sol\":4774:4784  msg.sender */\n      caller\n        /* \"contracts/divingIntoChain.sol\":4757:4784  address sender = msg.sender */\n      swap1\n      pop\n        /* \"contracts/divingIntoChain.sol\":4812:4828  uint blockNumber */\n      0x00\n        /* \"contracts/divingIntoChain.sol\":4831:4843  block.number */\n      number\n        /* \"contracts/divingIntoChain.sol\":4812:4843  uint blockNumber = block.number */\n      swap1\n      pop\n        /* \"contracts/divingIntoChain.sol\":4877:4894  bytes memory data */\n      0x00\n        /* \"contracts/divingIntoChain.sol\":4897:4905  msg.data */\n      dup1\n      calldatasize\n        /* \"contracts/divingIntoChain.sol\":4877:4905  bytes memory data = msg.data */\n      dup1\n      dup1\n      0x1f\n      add\n      0x20\n      dup1\n      swap2\n      div\n      mul\n      0x20\n      add\n      mload(0x40)\n      swap1\n      dup2\n      add\n      0x40\n      mstore\n      dup1\n      swap4\n      swap3\n      swap2\n      swap1\n      dup2\n      dup2\n      mstore\n      0x20\n      add\n      dup4\n      dup4\n      dup1\n      dup3\n      dup5\n      calldatacopy\n      0x00\n      dup2\n      dup5\n      add\n      mstore\n      not(0x1f)\n      0x1f\n      dup3\n      add\n      and\n      swap1\n      pop\n      dup1\n      dup4\n      add\n      swap3\n      pop\n      pop\n      pop\n      pop\n      pop\n      pop\n      pop\n      swap1\n      pop\n        /* \"contracts/divingIntoChain.sol\":4948:4954  sender */\n      dup3\n        /* \"contracts/divingIntoChain.sol\":4956:4967  blockNumber */\n      dup3\n        /* \"contracts/divingIntoChain.sol\":4968:4972  data */\n      dup3\n        /* \"contracts/divingIntoChain.sol\":4941:4973  return(sender, blockNumber,data) */\n      swap6\n      pop\n      swap6\n      pop\n      swap6\n      pop\n      pop\n      pop\n      pop\n        /* \"contracts/divingIntoChain.sol\":4678:4980  function fGlobal() external view returns(address, uint, bytes memory){... */\n      swap1\n      swap2\n      swap3\n      jump\t// out\n        /* \"contracts/divingIntoChain.sol\":303:421  function add() external   {... */\n    tag_58:\n        /* \"contracts/divingIntoChain.sol\":359:360  1 */\n      0x01\n        /* \"contracts/divingIntoChain.sol\":350:358  thisUint */\n      sload(0x00)\n        /* \"contracts/divingIntoChain.sol\":350:360  thisUint+1 */\n      tag_135\n      swap2\n      swap1\n      tag_112\n      jump\t// in\n    tag_135:\n        /* \"contracts/divingIntoChain.sol\":339:347  thisUint */\n      0x00\n        /* \"contracts/divingIntoChain.sol\":339:360  thisUint = thisUint+1 */\n      dup2\n      swap1\n      sstore\n      pop\n        /* \"contracts/divingIntoChain.sol\":303:421  function add() external   {... */\n      jump\t// out\n        /* \"contracts/divingIntoChain.sol\":7409:7483  function initStudent3() external {... */\n    tag_61:\n        /* \"contracts/divingIntoChain.sol\":7462:7476  Student(3, 90) */\n      mload(0x40)\n      dup1\n      0x40\n      add\n      0x40\n      mstore\n      dup1\n        /* \"contracts/divingIntoChain.sol\":7470:7471  3 */\n      0x03\n        /* \"contracts/divingIntoChain.sol\":7462:7476  Student(3, 90) */\n      dup2\n      mstore\n      0x20\n      add\n        /* \"contracts/divingIntoChain.sol\":7473:7475  90 */\n      0x5a\n        /* \"contracts/divingIntoChain.sol\":7462:7476  Student(3, 90) */\n      dup2\n      mstore\n      pop\n        /* \"contracts/divingIntoChain.sol\":7452:7459  student */\n      0x04\n        /* \"contracts/divingIntoChain.sol\":7452:7476  student = Student(3, 90) */\n      0x00\n      dup3\n      add\n      mload\n      dup2\n      0x00\n      add\n      sstore\n      0x20\n      dup3\n      add\n      mload\n      dup2\n      0x01\n      add\n      sstore\n      swap1\n      pop\n      pop\n        /* \"contracts/divingIntoChain.sol\":7409:7483  function initStudent3() external {... */\n      jump\t// out\n        /* \"contracts/divingIntoChain.sol\":4091:4264  function fstorage() public {... */\n    tag_64:\n        /* \"contracts/divingIntoChain.sol\":4202:4226  uint[3] storage xStorage */\n      0x00\n        /* \"contracts/divingIntoChain.sol\":4229:4230  x */\n      0x01\n        /* \"contracts/divingIntoChain.sol\":4202:4230  uint[3] storage xStorage = x */\n      swap1\n      pop\n        /* \"contracts/divingIntoChain.sol\":4254:4257  100 */\n      0x64\n        /* \"contracts/divingIntoChain.sol\":4240:4248  xStorage */\n      dup2\n        /* \"contracts/divingIntoChain.sol\":4249:4250  0 */\n      0x00\n        /* \"contracts/divingIntoChain.sol\":4240:4251  xStorage[0] */\n      0x03\n      dup2\n      lt\n      tag_138\n      jumpi\n      tag_139\n      tag_128\n      jump\t// in\n    tag_139:\n    tag_138:\n      add\n        /* \"contracts/divingIntoChain.sol\":4240:4257  xStorage[0] = 100 */\n      dup2\n      swap1\n      sstore\n      pop\n        /* \"contracts/divingIntoChain.sol\":4118:4264  {... */\n      pop\n        /* \"contracts/divingIntoChain.sol\":4091:4264  function fstorage() public {... */\n      jump\t// out\n        /* \"contracts/divingIntoChain.sol\":11427:11471  mapping(address => uint256) public _balances */\n    tag_69:\n      mstore(0x20, 0x07)\n      dup1\n      0x00\n      mstore\n      keccak256(0x00, 0x40)\n      0x00\n      swap2\n      pop\n      swap1\n      pop\n      sload\n      dup2\n      jump\t// out\n        /* \"contracts/divingIntoChain.sol\":1159:1213  function minusCall() external {... */\n    tag_73:\n        /* \"contracts/divingIntoChain.sol\":1199:1206  minus() */\n      tag_142\n        /* \"contracts/divingIntoChain.sol\":1199:1204  minus */\n      tag_143\n        /* \"contracts/divingIntoChain.sol\":1199:1206  minus() */\n      jump\t// in\n    tag_142:\n        /* \"contracts/divingIntoChain.sol\":1159:1213  function minusCall() external {... */\n      jump\t// out\n        /* \"contracts/divingIntoChain.sol\":7510:7597  function initStudent4() external {... */\n    tag_76:\n        /* \"contracts/divingIntoChain.sol\":7563:7590  Student({id: 4, score: 60}) */\n      mload(0x40)\n      dup1\n      0x40\n      add\n      0x40\n      mstore\n      dup1\n        /* \"contracts/divingIntoChain.sol\":7576:7577  4 */\n      0x04\n        /* \"contracts/divingIntoChain.sol\":7563:7590  Student({id: 4, score: 60}) */\n      dup2\n      mstore\n      0x20\n      add\n        /* \"contracts/divingIntoChain.sol\":7586:7588  60 */\n      0x3c\n        /* \"contracts/divingIntoChain.sol\":7563:7590  Student({id: 4, score: 60}) */\n      dup2\n      mstore\n      pop\n        /* \"contracts/divingIntoChain.sol\":7553:7560  student */\n      0x04\n        /* \"contracts/divingIntoChain.sol\":7553:7590  student = Student({id: 4, score: 60}) */\n      0x00\n      dup3\n      add\n      mload\n      dup2\n      0x00\n      add\n      sstore\n      0x20\n      dup3\n      add\n      mload\n      dup2\n      0x01\n      add\n      sstore\n      swap1\n      pop\n      pop\n        /* \"contracts/divingIntoChain.sol\":7510:7597  function initStudent4() external {... */\n      jump\t// out\n        /* \"contracts/divingIntoChain.sol\":10715:10868  function changeOwner(address _newOwner) external onlyOwner{... */\n    tag_80:\n        /* \"contracts/divingIntoChain.sol\":10573:10578  owner */\n      0x06\n      0x00\n      swap1\n      sload\n      swap1\n      0x0100\n      exp\n      swap1\n      div\n      0xffffffffffffffffffffffffffffffffffffffff\n      and\n        /* \"contracts/divingIntoChain.sol\":10559:10578  msg.sender == owner */\n      0xffffffffffffffffffffffffffffffffffffffff\n      and\n        /* \"contracts/divingIntoChain.sol\":10559:10569  msg.sender */\n      caller\n        /* \"contracts/divingIntoChain.sol\":10559:10578  msg.sender == owner */\n      0xffffffffffffffffffffffffffffffffffffffff\n      and\n      eq\n        /* \"contracts/divingIntoChain.sol\":10551:10579  require(msg.sender == owner) */\n      tag_146\n      jumpi\n      0x00\n      dup1\n      revert\n    tag_146:\n        /* \"contracts/divingIntoChain.sol\":10791:10800  _newOwner */\n      dup1\n        /* \"contracts/divingIntoChain.sol\":10783:10788  owner */\n      0x06\n      0x00\n        /* \"contracts/divingIntoChain.sol\":10783:10800  owner = _newOwner */\n      0x0100\n      exp\n      dup2\n      sload\n      dup2\n      0xffffffffffffffffffffffffffffffffffffffff\n      mul\n      not\n      and\n      swap1\n      dup4\n      0xffffffffffffffffffffffffffffffffffffffff\n      and\n      mul\n      or\n      swap1\n      sstore\n      pop\n        /* \"contracts/divingIntoChain.sol\":10715:10868  function changeOwner(address _newOwner) external onlyOwner{... */\n      pop\n      jump\t// out\n        /* \"contracts/divingIntoChain.sol\":7061:7232  function initStudent1() external  {... */\n    tag_83:\n        /* \"contracts/divingIntoChain.sol\":7105:7129  Student storage _student */\n      0x00\n        /* \"contracts/divingIntoChain.sol\":7132:7139  student */\n      0x04\n        /* \"contracts/divingIntoChain.sol\":7105:7139  Student storage _student = student */\n      swap1\n      pop\n        /* \"contracts/divingIntoChain.sol\":7192:7194  11 */\n      0x0b\n        /* \"contracts/divingIntoChain.sol\":7178:7186  _student */\n      dup2\n        /* \"contracts/divingIntoChain.sol\":7178:7189  _student.id */\n      0x00\n      add\n        /* \"contracts/divingIntoChain.sol\":7178:7194  _student.id = 11 */\n      dup2\n      swap1\n      sstore\n      pop\n        /* \"contracts/divingIntoChain.sol\":7222:7225  100 */\n      0x64\n        /* \"contracts/divingIntoChain.sol\":7205:7213  _student */\n      dup2\n        /* \"contracts/divingIntoChain.sol\":7205:7219  _student.score */\n      0x01\n      add\n        /* \"contracts/divingIntoChain.sol\":7205:7225  _student.score = 100 */\n      dup2\n      swap1\n      sstore\n      pop\n        /* \"contracts/divingIntoChain.sol\":7095:7232  {... */\n      pop\n        /* \"contracts/divingIntoChain.sol\":7061:7232  function initStudent1() external  {... */\n      jump\t// out\n        /* \"contracts/divingIntoChain.sol\":9481:9852  function insertSort(uint[] memory a) external pure returns (uint[] memory){... */\n    tag_88:\n        /* \"contracts/divingIntoChain.sol\":9541:9554  uint[] memory */\n      0x60\n        /* \"contracts/divingIntoChain.sol\":9569:9575  uint i */\n      0x00\n        /* \"contracts/divingIntoChain.sol\":9565:9826  for(uint i = 0; i<=a.length-1; i++){... */\n    tag_150:\n        /* \"contracts/divingIntoChain.sol\":9593:9594  1 */\n      0x01\n        /* \"contracts/divingIntoChain.sol\":9584:9585  a */\n      dup4\n        /* \"contracts/divingIntoChain.sol\":9584:9592  a.length */\n      mload\n        /* \"contracts/divingIntoChain.sol\":9584:9594  a.length-1 */\n      tag_153\n      swap2\n      swap1\n      tag_115\n      jump\t// in\n    tag_153:\n        /* \"contracts/divingIntoChain.sol\":9581:9582  i */\n      dup2\n        /* \"contracts/divingIntoChain.sol\":9581:9594  i<=a.length-1 */\n      gt\n        /* \"contracts/divingIntoChain.sol\":9565:9826  for(uint i = 0; i<=a.length-1; i++){... */\n      tag_151\n      jumpi\n        /* \"contracts/divingIntoChain.sol\":9618:9624  uint j */\n      0x00\n        /* \"contracts/divingIntoChain.sol\":9629:9630  1 */\n      0x01\n        /* \"contracts/divingIntoChain.sol\":9627:9628  i */\n      dup3\n        /* \"contracts/divingIntoChain.sol\":9627:9630  i+1 */\n      tag_157\n      swap2\n      swap1\n      tag_112\n      jump\t// in\n    tag_157:\n        /* \"contracts/divingIntoChain.sol\":9618:9630  uint j = i+1 */\n      swap1\n      pop\n        /* \"contracts/divingIntoChain.sol\":9614:9816  for(uint j = i+1; j<=a.length-1; j++){... */\n    tag_154:\n        /* \"contracts/divingIntoChain.sol\":9644:9645  1 */\n      0x01\n        /* \"contracts/divingIntoChain.sol\":9635:9636  a */\n      dup5\n        /* \"contracts/divingIntoChain.sol\":9635:9643  a.length */\n      mload\n        /* \"contracts/divingIntoChain.sol\":9635:9645  a.length-1 */\n      tag_158\n      swap2\n      swap1\n      tag_115\n      jump\t// in\n    tag_158:\n        /* \"contracts/divingIntoChain.sol\":9632:9633  j */\n      dup2\n        /* \"contracts/divingIntoChain.sol\":9632:9645  j<=a.length-1 */\n      gt\n        /* \"contracts/divingIntoChain.sol\":9614:9816  for(uint j = i+1; j<=a.length-1; j++){... */\n      tag_155\n      jumpi\n        /* \"contracts/divingIntoChain.sol\":9677:9678  a */\n      dup4\n        /* \"contracts/divingIntoChain.sol\":9679:9680  j */\n      dup2\n        /* \"contracts/divingIntoChain.sol\":9677:9681  a[j] */\n      dup2\n      mload\n      dup2\n      lt\n      tag_159\n      jumpi\n      tag_160\n      tag_128\n      jump\t// in\n    tag_160:\n    tag_159:\n      0x20\n      mul\n      0x20\n      add\n      add\n      mload\n        /* \"contracts/divingIntoChain.sol\":9672:9673  a */\n      dup5\n        /* \"contracts/divingIntoChain.sol\":9674:9675  i */\n      dup4\n        /* \"contracts/divingIntoChain.sol\":9672:9676  a[i] */\n      dup2\n      mload\n      dup2\n      lt\n      tag_161\n      jumpi\n      tag_162\n      tag_128\n      jump\t// in\n    tag_162:\n    tag_161:\n      0x20\n      mul\n      0x20\n      add\n      add\n      mload\n        /* \"contracts/divingIntoChain.sol\":9672:9681  a[i]>a[j] */\n      gt\n        /* \"contracts/divingIntoChain.sol\":9669:9802  if(a[i]>a[j]){... */\n      iszero\n      tag_163\n      jumpi\n        /* \"contracts/divingIntoChain.sol\":9703:9711  uint tem */\n      0x00\n        /* \"contracts/divingIntoChain.sol\":9714:9715  a */\n      dup5\n        /* \"contracts/divingIntoChain.sol\":9716:9717  i */\n      dup4\n        /* \"contracts/divingIntoChain.sol\":9714:9718  a[i] */\n      dup2\n      mload\n      dup2\n      lt\n      tag_164\n      jumpi\n      tag_165\n      tag_128\n      jump\t// in\n    tag_165:\n    tag_164:\n      0x20\n      mul\n      0x20\n      add\n      add\n      mload\n        /* \"contracts/divingIntoChain.sol\":9703:9718  uint tem = a[i] */\n      swap1\n      pop\n        /* \"contracts/divingIntoChain.sol\":9747:9748  a */\n      dup5\n        /* \"contracts/divingIntoChain.sol\":9749:9750  j */\n      dup3\n        /* \"contracts/divingIntoChain.sol\":9747:9751  a[j] */\n      dup2\n      mload\n      dup2\n      lt\n      tag_166\n      jumpi\n      tag_167\n      tag_128\n      jump\t// in\n    tag_167:\n    tag_166:\n      0x20\n      mul\n      0x20\n      add\n      add\n      mload\n        /* \"contracts/divingIntoChain.sol\":9740:9741  a */\n      dup6\n        /* \"contracts/divingIntoChain.sol\":9742:9743  i */\n      dup5\n        /* \"contracts/divingIntoChain.sol\":9740:9744  a[i] */\n      dup2\n      mload\n      dup2\n      lt\n      tag_168\n      jumpi\n      tag_169\n      tag_128\n      jump\t// in\n    tag_169:\n    tag_168:\n      0x20\n      mul\n      0x20\n      add\n      add\n        /* \"contracts/divingIntoChain.sol\":9740:9751  a[i] = a[j] */\n      dup2\n      dup2\n      mstore\n      pop\n      pop\n        /* \"contracts/divingIntoChain.sol\":9780:9783  tem */\n      dup1\n        /* \"contracts/divingIntoChain.sol\":9773:9774  a */\n      dup6\n        /* \"contracts/divingIntoChain.sol\":9775:9776  j */\n      dup4\n        /* \"contracts/divingIntoChain.sol\":9773:9777  a[j] */\n      dup2\n      mload\n      dup2\n      lt\n      tag_170\n      jumpi\n      tag_171\n      tag_128\n      jump\t// in\n    tag_171:\n    tag_170:\n      0x20\n      mul\n      0x20\n      add\n      add\n        /* \"contracts/divingIntoChain.sol\":9773:9783  a[j] = tem */\n      dup2\n      dup2\n      mstore\n      pop\n      pop\n        /* \"contracts/divingIntoChain.sol\":9682:9802  {... */\n      pop\n        /* \"contracts/divingIntoChain.sol\":9669:9802  if(a[i]>a[j]){... */\n    tag_163:\n        /* \"contracts/divingIntoChain.sol\":9647:9650  j++ */\n      dup1\n      dup1\n      tag_172\n      swap1\n      tag_173\n      jump\t// in\n    tag_172:\n      swap2\n      pop\n      pop\n        /* \"contracts/divingIntoChain.sol\":9614:9816  for(uint j = i+1; j<=a.length-1; j++){... */\n      jump(tag_154)\n    tag_155:\n      pop\n        /* \"contracts/divingIntoChain.sol\":9596:9599  i++ */\n      dup1\n      dup1\n      tag_174\n      swap1\n      tag_173\n      jump\t// in\n    tag_174:\n      swap2\n      pop\n      pop\n        /* \"contracts/divingIntoChain.sol\":9565:9826  for(uint i = 0; i<=a.length-1; i++){... */\n      jump(tag_150)\n    tag_151:\n      pop\n        /* \"contracts/divingIntoChain.sol\":9843:9844  a */\n      dup2\n        /* \"contracts/divingIntoChain.sol\":9836:9844  return a */\n      swap1\n      pop\n        /* \"contracts/divingIntoChain.sol\":9481:9852  function insertSort(uint[] memory a) external pure returns (uint[] memory){... */\n      swap2\n      swap1\n      pop\n      jump\t// out\n        /* \"contracts/divingIntoChain.sol\":753:945  function addWithView() external view returns(uint _newNumber){... */\n    tag_93:\n        /* \"contracts/divingIntoChain.sol\":798:813  uint _newNumber */\n      0x00\n        /* \"contracts/divingIntoChain.sol\":848:849  1 */\n      0x01\n        /* \"contracts/divingIntoChain.sol\":837:845  thisUint */\n      sload(0x00)\n        /* \"contracts/divingIntoChain.sol\":837:849  thisUint + 1 */\n      tag_176\n      swap2\n      swap1\n      tag_112\n      jump\t// in\n    tag_176:\n        /* \"contracts/divingIntoChain.sol\":824:849  _newNumber = thisUint + 1 */\n      swap1\n      pop\n        /* \"contracts/divingIntoChain.sol\":753:945  function addWithView() external view returns(uint _newNumber){... */\n      swap1\n      jump\t// out\n        /* \"contracts/divingIntoChain.sol\":1310:1506  function minusPayble( ) external payable returns(uint256 balance){... */\n    tag_96:\n        /* \"contracts/divingIntoChain.sol\":1359:1374  uint256 balance */\n      0x00\n        /* \"contracts/divingIntoChain.sol\":1385:1392  minus() */\n      tag_178\n        /* \"contracts/divingIntoChain.sol\":1385:1390  minus */\n      tag_143\n        /* \"contracts/divingIntoChain.sol\":1385:1392  minus() */\n      jump\t// in\n    tag_178:\n        /* \"contracts/divingIntoChain.sol\":1442:1463  address(this).balance */\n      selfbalance\n        /* \"contracts/divingIntoChain.sol\":1432:1463  balance = address(this).balance */\n      swap1\n      pop\n        /* \"contracts/divingIntoChain.sol\":1310:1506  function minusPayble( ) external payable returns(uint256 balance){... */\n      swap1\n      jump\t// out\n        /* \"contracts/divingIntoChain.sol\":1889:2016  function returnMultiple() public pure returns(uint256,bool,uint256[3] memory) {... */\n    tag_100:\n        /* \"contracts/divingIntoChain.sol\":1935:1942  uint256 */\n      0x00\n        /* \"contracts/divingIntoChain.sol\":1943:1947  bool */\n      dup1\n        /* \"contracts/divingIntoChain.sol\":1948:1965  uint256[3] memory */\n      tag_179\n      tag_103\n      jump\t// in\n    tag_179:\n        /* \"contracts/divingIntoChain.sol\":1985:1986  1 */\n      0x01\n        /* \"contracts/divingIntoChain.sol\":1987:1991  true */\n      dup1\n        /* \"contracts/divingIntoChain.sol\":1977:2009  return (1,true,[uint256(1),2,5]) */\n      mload(0x40)\n      dup1\n      0x60\n      add\n      0x40\n      mstore\n      dup1\n        /* \"contracts/divingIntoChain.sol\":2001:2002  1 */\n      0x01\n        /* \"contracts/divingIntoChain.sol\":1977:2009  return (1,true,[uint256(1),2,5]) */\n      dup2\n      mstore\n      0x20\n      add\n        /* \"contracts/divingIntoChain.sol\":2004:2005  2 */\n      0x02\n        /* \"contracts/divingIntoChain.sol\":1977:2009  return (1,true,[uint256(1),2,5]) */\n      dup2\n      mstore\n      0x20\n      add\n        /* \"contracts/divingIntoChain.sol\":2006:2007  5 */\n      0x05\n        /* \"contracts/divingIntoChain.sol\":1977:2009  return (1,true,[uint256(1),2,5]) */\n      dup2\n      mstore\n      pop\n      swap3\n      pop\n      swap3\n      pop\n      swap3\n      pop\n        /* \"contracts/divingIntoChain.sol\":1889:2016  function returnMultiple() public pure returns(uint256,bool,uint256[3] memory) {... */\n      swap1\n      swap2\n      swap3\n      jump\t// out\n        /* \"contracts/divingIntoChain.sol\":1018:1083  function minus() internal {... */\n    tag_143:\n        /* \"contracts/divingIntoChain.sol\":1075:1076  1 */\n      0x01\n        /* \"contracts/divingIntoChain.sol\":1065:1073  thisUint */\n      sload(0x00)\n        /* \"contracts/divingIntoChain.sol\":1065:1076  thisUint -1 */\n      tag_182\n      swap2\n      swap1\n      tag_115\n      jump\t// in\n    tag_182:\n        /* \"contracts/divingIntoChain.sol\":1054:1062  thisUint */\n      0x00\n        /* \"contracts/divingIntoChain.sol\":1054:1076  thisUint = thisUint -1 */\n      dup2\n      swap1\n      sstore\n      pop\n        /* \"contracts/divingIntoChain.sol\":1018:1083  function minus() internal {... */\n      jump\t// out\n    tag_103:\n      mload(0x40)\n      dup1\n      0x60\n      add\n      0x40\n      mstore\n      dup1\n      0x03\n      swap1\n      0x20\n      dup3\n      mul\n      dup1\n      calldatasize\n      dup4\n      calldatacopy\n      dup1\n      dup3\n      add\n      swap2\n      pop\n      pop\n      swap1\n      pop\n      pop\n      swap1\n      jump\t// out\n        /* \"#utility.yul\":7:84   */\n    tag_183:\n        /* \"#utility.yul\":44:51   */\n      0x00\n        /* \"#utility.yul\":73:78   */\n      dup2\n        /* \"#utility.yul\":62:78   */\n      swap1\n      pop\n        /* \"#utility.yul\":7:84   */\n      swap2\n      swap1\n      pop\n      jump\t// out\n        /* \"#utility.yul\":90:208   */\n    tag_184:\n        /* \"#utility.yul\":177:201   */\n      tag_231\n        /* \"#utility.yul\":195:200   */\n      dup2\n        /* \"#utility.yul\":177:201   */\n      tag_183\n      jump\t// in\n    tag_231:\n        /* \"#utility.yul\":172:175   */\n      dup3\n        /* \"#utility.yul\":165:202   */\n      mstore\n        /* \"#utility.yul\":90:208   */\n      pop\n      pop\n      jump\t// out\n        /* \"#utility.yul\":214:304   */\n    tag_185:\n        /* \"#utility.yul\":248:255   */\n      0x00\n        /* \"#utility.yul\":291:296   */\n      dup2\n        /* \"#utility.yul\":284:297   */\n      iszero\n        /* \"#utility.yul\":277:298   */\n      iszero\n        /* \"#utility.yul\":266:298   */\n      swap1\n      pop\n        /* \"#utility.yul\":214:304   */\n      swap2\n      swap1\n      pop\n      jump\t// out\n        /* \"#utility.yul\":310:419   */\n    tag_186:\n        /* \"#utility.yul\":391:412   */\n      tag_234\n        /* \"#utility.yul\":406:411   */\n      dup2\n        /* \"#utility.yul\":391:412   */\n      tag_185\n      jump\t// in\n    tag_234:\n        /* \"#utility.yul\":386:389   */\n      dup3\n        /* \"#utility.yul\":379:413   */\n      mstore\n        /* \"#utility.yul\":310:419   */\n      pop\n      pop\n      jump\t// out\n        /* \"#utility.yul\":425:529   */\n    tag_187:\n        /* \"#utility.yul\":490:496   */\n      0x00\n        /* \"#utility.yul\":518:522   */\n      0x03\n        /* \"#utility.yul\":508:522   */\n      swap1\n      pop\n        /* \"#utility.yul\":425:529   */\n      swap2\n      swap1\n      pop\n      jump\t// out\n        /* \"#utility.yul\":535:678   */\n    tag_188:\n        /* \"#utility.yul\":632:643   */\n      0x00\n        /* \"#utility.yul\":669:672   */\n      dup2\n        /* \"#utility.yul\":654:672   */\n      swap1\n      pop\n        /* \"#utility.yul\":535:678   */\n      swap3\n      swap2\n      pop\n      pop\n      jump\t// out\n        /* \"#utility.yul\":684:782   */\n    tag_189:\n        /* \"#utility.yul\":749:753   */\n      0x00\n        /* \"#utility.yul\":772:775   */\n      dup2\n        /* \"#utility.yul\":764:775   */\n      swap1\n      pop\n        /* \"#utility.yul\":684:782   */\n      swap2\n      swap1\n      pop\n      jump\t// out\n        /* \"#utility.yul\":788:896   */\n    tag_190:\n        /* \"#utility.yul\":865:889   */\n      tag_239\n        /* \"#utility.yul\":883:888   */\n      dup2\n        /* \"#utility.yul\":865:889   */\n      tag_183\n      jump\t// in\n    tag_239:\n        /* \"#utility.yul\":860:863   */\n      dup3\n        /* \"#utility.yul\":853:890   */\n      mstore\n        /* \"#utility.yul\":788:896   */\n      pop\n      pop\n      jump\t// out\n        /* \"#utility.yul\":902:1081   */\n    tag_191:\n        /* \"#utility.yul\":971:981   */\n      0x00\n        /* \"#utility.yul\":992:1038   */\n      tag_241\n        /* \"#utility.yul\":1034:1037   */\n      dup4\n        /* \"#utility.yul\":1026:1032   */\n      dup4\n        /* \"#utility.yul\":992:1038   */\n      tag_190\n      jump\t// in\n    tag_241:\n        /* \"#utility.yul\":1070:1074   */\n      0x20\n        /* \"#utility.yul\":1065:1068   */\n      dup4\n        /* \"#utility.yul\":1061:1075   */\n      add\n        /* \"#utility.yul\":1047:1075   */\n      swap1\n      pop\n        /* \"#utility.yul\":902:1081   */\n      swap3\n      swap2\n      pop\n      pop\n      jump\t// out\n        /* \"#utility.yul\":1087:1198   */\n    tag_192:\n        /* \"#utility.yul\":1155:1159   */\n      0x00\n        /* \"#utility.yul\":1187:1191   */\n      0x20\n        /* \"#utility.yul\":1182:1185   */\n      dup3\n        /* \"#utility.yul\":1178:1192   */\n      add\n        /* \"#utility.yul\":1170:1192   */\n      swap1\n      pop\n        /* \"#utility.yul\":1087:1198   */\n      swap2\n      swap1\n      pop\n      jump\t// out\n        /* \"#utility.yul\":1236:1930   */\n    tag_193:\n        /* \"#utility.yul\":1372:1424   */\n      tag_244\n        /* \"#utility.yul\":1418:1423   */\n      dup2\n        /* \"#utility.yul\":1372:1424   */\n      tag_187\n      jump\t// in\n    tag_244:\n        /* \"#utility.yul\":1440:1524   */\n      tag_245\n        /* \"#utility.yul\":1517:1523   */\n      dup2\n        /* \"#utility.yul\":1512:1515   */\n      dup5\n        /* \"#utility.yul\":1440:1524   */\n      tag_188\n      jump\t// in\n    tag_245:\n        /* \"#utility.yul\":1433:1524   */\n      swap3\n      pop\n        /* \"#utility.yul\":1548:1602   */\n      tag_246\n        /* \"#utility.yul\":1596:1601   */\n      dup3\n        /* \"#utility.yul\":1548:1602   */\n      tag_189\n      jump\t// in\n    tag_246:\n        /* \"#utility.yul\":1625:1632   */\n      dup1\n        /* \"#utility.yul\":1656:1657   */\n      0x00\n        /* \"#utility.yul\":1641:1923   */\n    tag_247:\n        /* \"#utility.yul\":1666:1672   */\n      dup4\n        /* \"#utility.yul\":1663:1664   */\n      dup2\n        /* \"#utility.yul\":1660:1673   */\n      lt\n        /* \"#utility.yul\":1641:1923   */\n      iszero\n      tag_249\n      jumpi\n        /* \"#utility.yul\":1742:1748   */\n      dup2\n        /* \"#utility.yul\":1736:1749   */\n      mload\n        /* \"#utility.yul\":1769:1832   */\n      tag_250\n        /* \"#utility.yul\":1828:1831   */\n      dup8\n        /* \"#utility.yul\":1813:1826   */\n      dup3\n        /* \"#utility.yul\":1769:1832   */\n      tag_191\n      jump\t// in\n    tag_250:\n        /* \"#utility.yul\":1762:1832   */\n      swap7\n      pop\n        /* \"#utility.yul\":1855:1913   */\n      tag_251\n        /* \"#utility.yul\":1906:1912   */\n      dup4\n        /* \"#utility.yul\":1855:1913   */\n      tag_192\n      jump\t// in\n    tag_251:\n        /* \"#utility.yul\":1845:1913   */\n      swap3\n      pop\n        /* \"#utility.yul\":1701:1923   */\n      pop\n        /* \"#utility.yul\":1688:1689   */\n      0x01\n        /* \"#utility.yul\":1685:1686   */\n      dup2\n        /* \"#utility.yul\":1681:1690   */\n      add\n        /* \"#utility.yul\":1676:1690   */\n      swap1\n      pop\n        /* \"#utility.yul\":1641:1923   */\n      jump(tag_247)\n    tag_249:\n        /* \"#utility.yul\":1645:1659   */\n      pop\n        /* \"#utility.yul\":1348:1930   */\n      pop\n      pop\n      pop\n        /* \"#utility.yul\":1236:1930   */\n      pop\n      pop\n      jump\t// out\n        /* \"#utility.yul\":1936:2459   */\n    tag_28:\n        /* \"#utility.yul\":2125:2129   */\n      0x00\n        /* \"#utility.yul\":2163:2166   */\n      0xa0\n        /* \"#utility.yul\":2152:2161   */\n      dup3\n        /* \"#utility.yul\":2148:2167   */\n      add\n        /* \"#utility.yul\":2140:2167   */\n      swap1\n      pop\n        /* \"#utility.yul\":2177:2248   */\n      tag_253\n        /* \"#utility.yul\":2245:2246   */\n      0x00\n        /* \"#utility.yul\":2234:2243   */\n      dup4\n        /* \"#utility.yul\":2230:2247   */\n      add\n        /* \"#utility.yul\":2221:2227   */\n      dup7\n        /* \"#utility.yul\":2177:2248   */\n      tag_184\n      jump\t// in\n    tag_253:\n        /* \"#utility.yul\":2258:2324   */\n      tag_254\n        /* \"#utility.yul\":2320:2322   */\n      0x20\n        /* \"#utility.yul\":2309:2318   */\n      dup4\n        /* \"#utility.yul\":2305:2323   */\n      add\n        /* \"#utility.yul\":2296:2302   */\n      dup6\n        /* \"#utility.yul\":2258:2324   */\n      tag_186\n      jump\t// in\n    tag_254:\n        /* \"#utility.yul\":2334:2452   */\n      tag_255\n        /* \"#utility.yul\":2448:2450   */\n      0x40\n        /* \"#utility.yul\":2437:2446   */\n      dup4\n        /* \"#utility.yul\":2433:2451   */\n      add\n        /* \"#utility.yul\":2424:2430   */\n      dup5\n        /* \"#utility.yul\":2334:2452   */\n      tag_193\n      jump\t// in\n    tag_255:\n        /* \"#utility.yul\":1936:2459   */\n      swap5\n      swap4\n      pop\n      pop\n      pop\n      pop\n      jump\t// out\n        /* \"#utility.yul\":2465:2540   */\n    tag_194:\n        /* \"#utility.yul\":2498:2504   */\n      0x00\n        /* \"#utility.yul\":2531:2533   */\n      0x40\n        /* \"#utility.yul\":2525:2534   */\n      mload\n        /* \"#utility.yul\":2515:2534   */\n      swap1\n      pop\n        /* \"#utility.yul\":2465:2540   */\n      swap1\n      jump\t// out\n        /* \"#utility.yul\":2546:2663   */\n    tag_195:\n        /* \"#utility.yul\":2655:2656   */\n      0x00\n        /* \"#utility.yul\":2652:2653   */\n      dup1\n        /* \"#utility.yul\":2645:2657   */\n      revert\n        /* \"#utility.yul\":2669:2786   */\n    tag_196:\n        /* \"#utility.yul\":2778:2779   */\n      0x00\n        /* \"#utility.yul\":2775:2776   */\n      dup1\n        /* \"#utility.yul\":2768:2780   */\n      revert\n        /* \"#utility.yul\":2792:2914   */\n    tag_197:\n        /* \"#utility.yul\":2865:2889   */\n      tag_260\n        /* \"#utility.yul\":2883:2888   */\n      dup2\n        /* \"#utility.yul\":2865:2889   */\n      tag_183\n      jump\t// in\n    tag_260:\n        /* \"#utility.yul\":2858:2863   */\n      dup2\n        /* \"#utility.yul\":2855:2890   */\n      eq\n        /* \"#utility.yul\":2845:2908   */\n      tag_261\n      jumpi\n        /* \"#utility.yul\":2904:2905   */\n      0x00\n        /* \"#utility.yul\":2901:2902   */\n      dup1\n        /* \"#utility.yul\":2894:2906   */\n      revert\n        /* \"#utility.yul\":2845:2908   */\n    tag_261:\n        /* \"#utility.yul\":2792:2914   */\n      pop\n      jump\t// out\n        /* \"#utility.yul\":2920:3059   */\n    tag_198:\n        /* \"#utility.yul\":2966:2971   */\n      0x00\n        /* \"#utility.yul\":3004:3010   */\n      dup2\n        /* \"#utility.yul\":2991:3011   */\n      calldataload\n        /* \"#utility.yul\":2982:3011   */\n      swap1\n      pop\n        /* \"#utility.yul\":3020:3053   */\n      tag_263\n        /* \"#utility.yul\":3047:3052   */\n      dup2\n        /* \"#utility.yul\":3020:3053   */\n      tag_197\n      jump\t// in\n    tag_263:\n        /* \"#utility.yul\":2920:3059   */\n      swap3\n      swap2\n      pop\n      pop\n      jump\t// out\n        /* \"#utility.yul\":3065:3394   */\n    tag_35:\n        /* \"#utility.yul\":3124:3130   */\n      0x00\n        /* \"#utility.yul\":3173:3175   */\n      0x20\n        /* \"#utility.yul\":3161:3170   */\n      dup3\n        /* \"#utility.yul\":3152:3159   */\n      dup5\n        /* \"#utility.yul\":3148:3171   */\n      sub\n        /* \"#utility.yul\":3144:3176   */\n      slt\n        /* \"#utility.yul\":3141:3260   */\n      iszero\n      tag_265\n      jumpi\n        /* \"#utility.yul\":3179:3258   */\n      tag_266\n      tag_195\n      jump\t// in\n    tag_266:\n        /* \"#utility.yul\":3141:3260   */\n    tag_265:\n        /* \"#utility.yul\":3299:3300   */\n      0x00\n        /* \"#utility.yul\":3324:3377   */\n      tag_267\n        /* \"#utility.yul\":3369:3376   */\n      dup5\n        /* \"#utility.yul\":3360:3366   */\n      dup3\n        /* \"#utility.yul\":3349:3358   */\n      dup6\n        /* \"#utility.yul\":3345:3367   */\n      add\n        /* \"#utility.yul\":3324:3377   */\n      tag_198\n      jump\t// in\n    tag_267:\n        /* \"#utility.yul\":3314:3377   */\n      swap2\n      pop\n        /* \"#utility.yul\":3270:3387   */\n      pop\n        /* \"#utility.yul\":3065:3394   */\n      swap3\n      swap2\n      pop\n      pop\n      jump\t// out\n        /* \"#utility.yul\":3400:3622   */\n    tag_38:\n        /* \"#utility.yul\":3493:3497   */\n      0x00\n        /* \"#utility.yul\":3531:3533   */\n      0x20\n        /* \"#utility.yul\":3520:3529   */\n      dup3\n        /* \"#utility.yul\":3516:3534   */\n      add\n        /* \"#utility.yul\":3508:3534   */\n      swap1\n      pop\n        /* \"#utility.yul\":3544:3615   */\n      tag_269\n        /* \"#utility.yul\":3612:3613   */\n      0x00\n        /* \"#utility.yul\":3601:3610   */\n      dup4\n        /* \"#utility.yul\":3597:3614   */\n      add\n        /* \"#utility.yul\":3588:3594   */\n      dup5\n        /* \"#utility.yul\":3544:3615   */\n      tag_184\n      jump\t// in\n    tag_269:\n        /* \"#utility.yul\":3400:3622   */\n      swap3\n      swap2\n      pop\n      pop\n      jump\t// out\n        /* \"#utility.yul\":3628:3754   */\n    tag_199:\n        /* \"#utility.yul\":3665:3672   */\n      0x00\n        /* \"#utility.yul\":3705:3747   */\n      0xffffffffffffffffffffffffffffffffffffffff\n        /* \"#utility.yul\":3698:3703   */\n      dup3\n        /* \"#utility.yul\":3694:3748   */\n      and\n        /* \"#utility.yul\":3683:3748   */\n      swap1\n      pop\n        /* \"#utility.yul\":3628:3754   */\n      swap2\n      swap1\n      pop\n      jump\t// out\n        /* \"#utility.yul\":3760:3856   */\n    tag_200:\n        /* \"#utility.yul\":3797:3804   */\n      0x00\n        /* \"#utility.yul\":3826:3850   */\n      tag_272\n        /* \"#utility.yul\":3844:3849   */\n      dup3\n        /* \"#utility.yul\":3826:3850   */\n      tag_199\n      jump\t// in\n    tag_272:\n        /* \"#utility.yul\":3815:3850   */\n      swap1\n      pop\n        /* \"#utility.yul\":3760:3856   */\n      swap2\n      swap1\n      pop\n      jump\t// out\n        /* \"#utility.yul\":3862:3984   */\n    tag_201:\n        /* \"#utility.yul\":3935:3959   */\n      tag_274\n        /* \"#utility.yul\":3953:3958   */\n      dup2\n        /* \"#utility.yul\":3935:3959   */\n      tag_200\n      jump\t// in\n    tag_274:\n        /* \"#utility.yul\":3928:3933   */\n      dup2\n        /* \"#utility.yul\":3925:3960   */\n      eq\n        /* \"#utility.yul\":3915:3978   */\n      tag_275\n      jumpi\n        /* \"#utility.yul\":3974:3975   */\n      0x00\n        /* \"#utility.yul\":3971:3972   */\n      dup1\n        /* \"#utility.yul\":3964:3976   */\n      revert\n        /* \"#utility.yul\":3915:3978   */\n    tag_275:\n        /* \"#utility.yul\":3862:3984   */\n      pop\n      jump\t// out\n        /* \"#utility.yul\":3990:4129   */\n    tag_202:\n        /* \"#utility.yul\":4036:4041   */\n      0x00\n        /* \"#utility.yul\":4074:4080   */\n      dup2\n        /* \"#utility.yul\":4061:4081   */\n      calldataload\n        /* \"#utility.yul\":4052:4081   */\n      swap1\n      pop\n        /* \"#utility.yul\":4090:4123   */\n      tag_277\n        /* \"#utility.yul\":4117:4122   */\n      dup2\n        /* \"#utility.yul\":4090:4123   */\n      tag_201\n      jump\t// in\n    tag_277:\n        /* \"#utility.yul\":3990:4129   */\n      swap3\n      swap2\n      pop\n      pop\n      jump\t// out\n        /* \"#utility.yul\":4135:4754   */\n    tag_42:\n        /* \"#utility.yul\":4212:4218   */\n      0x00\n        /* \"#utility.yul\":4220:4226   */\n      dup1\n        /* \"#utility.yul\":4228:4234   */\n      0x00\n        /* \"#utility.yul\":4277:4279   */\n      0x60\n        /* \"#utility.yul\":4265:4274   */\n      dup5\n        /* \"#utility.yul\":4256:4263   */\n      dup7\n        /* \"#utility.yul\":4252:4275   */\n      sub\n        /* \"#utility.yul\":4248:4280   */\n      slt\n        /* \"#utility.yul\":4245:4364   */\n      iszero\n      tag_279\n      jumpi\n        /* \"#utility.yul\":4283:4362   */\n      tag_280\n      tag_195\n      jump\t// in\n    tag_280:\n        /* \"#utility.yul\":4245:4364   */\n    tag_279:\n        /* \"#utility.yul\":4403:4404   */\n      0x00\n        /* \"#utility.yul\":4428:4481   */\n      tag_281\n        /* \"#utility.yul\":4473:4480   */\n      dup7\n        /* \"#utility.yul\":4464:4470   */\n      dup3\n        /* \"#utility.yul\":4453:4462   */\n      dup8\n        /* \"#utility.yul\":4449:4471   */\n      add\n        /* \"#utility.yul\":4428:4481   */\n      tag_202\n      jump\t// in\n    tag_281:\n        /* \"#utility.yul\":4418:4481   */\n      swap4\n      pop\n        /* \"#utility.yul\":4374:4491   */\n      pop\n        /* \"#utility.yul\":4530:4532   */\n      0x20\n        /* \"#utility.yul\":4556:4609   */\n      tag_282\n        /* \"#utility.yul\":4601:4608   */\n      dup7\n        /* \"#utility.yul\":4592:4598   */\n      dup3\n        /* \"#utility.yul\":4581:4590   */\n      dup8\n        /* \"#utility.yul\":4577:4599   */\n      add\n        /* \"#utility.yul\":4556:4609   */\n      tag_202\n      jump\t// in\n    tag_282:\n        /* \"#utility.yul\":4546:4609   */\n      swap3\n      pop\n        /* \"#utility.yul\":4501:4619   */\n      pop\n        /* \"#utility.yul\":4658:4660   */\n      0x40\n        /* \"#utility.yul\":4684:4737   */\n      tag_283\n        /* \"#utility.yul\":4729:4736   */\n      dup7\n        /* \"#utility.yul\":4720:4726   */\n      dup3\n        /* \"#utility.yul\":4709:4718   */\n      dup8\n        /* \"#utility.yul\":4705:4727   */\n      add\n        /* \"#utility.yul\":4684:4737   */\n      tag_198\n      jump\t// in\n    tag_283:\n        /* \"#utility.yul\":4674:4737   */\n      swap2\n      pop\n        /* \"#utility.yul\":4629:4747   */\n      pop\n        /* \"#utility.yul\":4135:4754   */\n      swap3\n      pop\n      swap3\n      pop\n      swap3\n      jump\t// out\n        /* \"#utility.yul\":4760:4878   */\n    tag_203:\n        /* \"#utility.yul\":4847:4871   */\n      tag_285\n        /* \"#utility.yul\":4865:4870   */\n      dup2\n        /* \"#utility.yul\":4847:4871   */\n      tag_200\n      jump\t// in\n    tag_285:\n        /* \"#utility.yul\":4842:4845   */\n      dup3\n        /* \"#utility.yul\":4835:4872   */\n      mstore\n        /* \"#utility.yul\":4760:4878   */\n      pop\n      pop\n      jump\t// out\n        /* \"#utility.yul\":4884:4982   */\n    tag_204:\n        /* \"#utility.yul\":4935:4941   */\n      0x00\n        /* \"#utility.yul\":4969:4974   */\n      dup2\n        /* \"#utility.yul\":4963:4975   */\n      mload\n        /* \"#utility.yul\":4953:4975   */\n      swap1\n      pop\n        /* \"#utility.yul\":4884:4982   */\n      swap2\n      swap1\n      pop\n      jump\t// out\n        /* \"#utility.yul\":4988:5156   */\n    tag_205:\n        /* \"#utility.yul\":5071:5082   */\n      0x00\n        /* \"#utility.yul\":5105:5111   */\n      dup3\n        /* \"#utility.yul\":5100:5103   */\n      dup3\n        /* \"#utility.yul\":5093:5112   */\n      mstore\n        /* \"#utility.yul\":5145:5149   */\n      0x20\n        /* \"#utility.yul\":5140:5143   */\n      dup3\n        /* \"#utility.yul\":5136:5150   */\n      add\n        /* \"#utility.yul\":5121:5150   */\n      swap1\n      pop\n        /* \"#utility.yul\":4988:5156   */\n      swap3\n      swap2\n      pop\n      pop\n      jump\t// out\n        /* \"#utility.yul\":5162:5301   */\n    tag_206:\n        /* \"#utility.yul\":5251:5257   */\n      dup3\n        /* \"#utility.yul\":5246:5249   */\n      dup2\n        /* \"#utility.yul\":5241:5244   */\n      dup4\n        /* \"#utility.yul\":5235:5258   */\n      mcopy\n        /* \"#utility.yul\":5292:5293   */\n      0x00\n        /* \"#utility.yul\":5283:5289   */\n      dup4\n        /* \"#utility.yul\":5278:5281   */\n      dup4\n        /* \"#utility.yul\":5274:5290   */\n      add\n        /* \"#utility.yul\":5267:5294   */\n      mstore\n        /* \"#utility.yul\":5162:5301   */\n      pop\n      pop\n      pop\n      jump\t// out\n        /* \"#utility.yul\":5307:5409   */\n    tag_207:\n        /* \"#utility.yul\":5348:5354   */\n      0x00\n        /* \"#utility.yul\":5399:5401   */\n      0x1f\n        /* \"#utility.yul\":5395:5402   */\n      not\n        /* \"#utility.yul\":5390:5392   */\n      0x1f\n        /* \"#utility.yul\":5383:5388   */\n      dup4\n        /* \"#utility.yul\":5379:5393   */\n      add\n        /* \"#utility.yul\":5375:5403   */\n      and\n        /* \"#utility.yul\":5365:5403   */\n      swap1\n      pop\n        /* \"#utility.yul\":5307:5409   */\n      swap2\n      swap1\n      pop\n      jump\t// out\n        /* \"#utility.yul\":5415:5788   */\n    tag_208:\n        /* \"#utility.yul\":5501:5504   */\n      0x00\n        /* \"#utility.yul\":5529:5567   */\n      tag_291\n        /* \"#utility.yul\":5561:5566   */\n      dup3\n        /* \"#utility.yul\":5529:5567   */\n      tag_204\n      jump\t// in\n    tag_291:\n        /* \"#utility.yul\":5583:5653   */\n      tag_292\n        /* \"#utility.yul\":5646:5652   */\n      dup2\n        /* \"#utility.yul\":5641:5644   */\n      dup6\n        /* \"#utility.yul\":5583:5653   */\n      tag_205\n      jump\t// in\n    tag_292:\n        /* \"#utility.yul\":5576:5653   */\n      swap4\n      pop\n        /* \"#utility.yul\":5662:5727   */\n      tag_293\n        /* \"#utility.yul\":5720:5726   */\n      dup2\n        /* \"#utility.yul\":5715:5718   */\n      dup6\n        /* \"#utility.yul\":5708:5712   */\n      0x20\n        /* \"#utility.yul\":5701:5706   */\n      dup7\n        /* \"#utility.yul\":5697:5713   */\n      add\n        /* \"#utility.yul\":5662:5727   */\n      tag_206\n      jump\t// in\n    tag_293:\n        /* \"#utility.yul\":5752:5781   */\n      tag_294\n        /* \"#utility.yul\":5774:5780   */\n      dup2\n        /* \"#utility.yul\":5752:5781   */\n      tag_207\n      jump\t// in\n    tag_294:\n        /* \"#utility.yul\":5747:5750   */\n      dup5\n        /* \"#utility.yul\":5743:5782   */\n      add\n        /* \"#utility.yul\":5736:5782   */\n      swap2\n      pop\n        /* \"#utility.yul\":5505:5788   */\n      pop\n        /* \"#utility.yul\":5415:5788   */\n      swap3\n      swap2\n      pop\n      pop\n      jump\t// out\n        /* \"#utility.yul\":5794:6323   */\n    tag_55:\n        /* \"#utility.yul\":5961:5965   */\n      0x00\n        /* \"#utility.yul\":5999:6001   */\n      0x60\n        /* \"#utility.yul\":5988:5997   */\n      dup3\n        /* \"#utility.yul\":5984:6002   */\n      add\n        /* \"#utility.yul\":5976:6002   */\n      swap1\n      pop\n        /* \"#utility.yul\":6012:6083   */\n      tag_296\n        /* \"#utility.yul\":6080:6081   */\n      0x00\n        /* \"#utility.yul\":6069:6078   */\n      dup4\n        /* \"#utility.yul\":6065:6082   */\n      add\n        /* \"#utility.yul\":6056:6062   */\n      dup7\n        /* \"#utility.yul\":6012:6083   */\n      tag_203\n      jump\t// in\n    tag_296:\n        /* \"#utility.yul\":6093:6165   */\n      tag_297\n        /* \"#utility.yul\":6161:6163   */\n      0x20\n        /* \"#utility.yul\":6150:6159   */\n      dup4\n        /* \"#utility.yul\":6146:6164   */\n      add\n        /* \"#utility.yul\":6137:6143   */\n      dup6\n        /* \"#utility.yul\":6093:6165   */\n      tag_184\n      jump\t// in\n    tag_297:\n        /* \"#utility.yul\":6212:6221   */\n      dup2\n        /* \"#utility.yul\":6206:6210   */\n      dup2\n        /* \"#utility.yul\":6202:6222   */\n      sub\n        /* \"#utility.yul\":6197:6199   */\n      0x40\n        /* \"#utility.yul\":6186:6195   */\n      dup4\n        /* \"#utility.yul\":6182:6200   */\n      add\n        /* \"#utility.yul\":6175:6223   */\n      mstore\n        /* \"#utility.yul\":6240:6316   */\n      tag_298\n        /* \"#utility.yul\":6311:6315   */\n      dup2\n        /* \"#utility.yul\":6302:6308   */\n      dup5\n        /* \"#utility.yul\":6240:6316   */\n      tag_208\n      jump\t// in\n    tag_298:\n        /* \"#utility.yul\":6232:6316   */\n      swap1\n      pop\n        /* \"#utility.yul\":5794:6323   */\n      swap5\n      swap4\n      pop\n      pop\n      pop\n      pop\n      jump\t// out\n        /* \"#utility.yul\":6329:6658   */\n    tag_68:\n        /* \"#utility.yul\":6388:6394   */\n      0x00\n        /* \"#utility.yul\":6437:6439   */\n      0x20\n        /* \"#utility.yul\":6425:6434   */\n      dup3\n        /* \"#utility.yul\":6416:6423   */\n      dup5\n        /* \"#utility.yul\":6412:6435   */\n      sub\n        /* \"#utility.yul\":6408:6440   */\n      slt\n        /* \"#utility.yul\":6405:6524   */\n      iszero\n      tag_300\n      jumpi\n        /* \"#utility.yul\":6443:6522   */\n      tag_301\n      tag_195\n      jump\t// in\n    tag_301:\n        /* \"#utility.yul\":6405:6524   */\n    tag_300:\n        /* \"#utility.yul\":6563:6564   */\n      0x00\n        /* \"#utility.yul\":6588:6641   */\n      tag_302\n        /* \"#utility.yul\":6633:6640   */\n      dup5\n        /* \"#utility.yul\":6624:6630   */\n      dup3\n        /* \"#utility.yul\":6613:6622   */\n      dup6\n        /* \"#utility.yul\":6609:6631   */\n      add\n        /* \"#utility.yul\":6588:6641   */\n      tag_202\n      jump\t// in\n    tag_302:\n        /* \"#utility.yul\":6578:6641   */\n      swap2\n      pop\n        /* \"#utility.yul\":6534:6651   */\n      pop\n        /* \"#utility.yul\":6329:6658   */\n      swap3\n      swap2\n      pop\n      pop\n      jump\t// out\n        /* \"#utility.yul\":6664:6781   */\n    tag_209:\n        /* \"#utility.yul\":6773:6774   */\n      0x00\n        /* \"#utility.yul\":6770:6771   */\n      dup1\n        /* \"#utility.yul\":6763:6775   */\n      revert\n        /* \"#utility.yul\":6787:6967   */\n    tag_121:\n        /* \"#utility.yul\":6835:6912   */\n      0x4e487b7100000000000000000000000000000000000000000000000000000000\n        /* \"#utility.yul\":6832:6833   */\n      0x00\n        /* \"#utility.yul\":6825:6913   */\n      mstore\n        /* \"#utility.yul\":6932:6936   */\n      0x41\n        /* \"#utility.yul\":6929:6930   */\n      0x04\n        /* \"#utility.yul\":6922:6937   */\n      mstore\n        /* \"#utility.yul\":6956:6960   */\n      0x24\n        /* \"#utility.yul\":6953:6954   */\n      0x00\n        /* \"#utility.yul\":6946:6961   */\n      revert\n        /* \"#utility.yul\":6973:7254   */\n    tag_210:\n        /* \"#utility.yul\":7056:7083   */\n      tag_306\n        /* \"#utility.yul\":7078:7082   */\n      dup3\n        /* \"#utility.yul\":7056:7083   */\n      tag_207\n      jump\t// in\n    tag_306:\n        /* \"#utility.yul\":7048:7054   */\n      dup2\n        /* \"#utility.yul\":7044:7084   */\n      add\n        /* \"#utility.yul\":7186:7192   */\n      dup2\n        /* \"#utility.yul\":7174:7184   */\n      dup2\n        /* \"#utility.yul\":7171:7193   */\n      lt\n        /* \"#utility.yul\":7150:7168   */\n      0xffffffffffffffff\n        /* \"#utility.yul\":7138:7148   */\n      dup3\n        /* \"#utility.yul\":7135:7169   */\n      gt\n        /* \"#utility.yul\":7132:7194   */\n      or\n        /* \"#utility.yul\":7129:7217   */\n      iszero\n      tag_307\n      jumpi\n        /* \"#utility.yul\":7197:7215   */\n      tag_308\n      tag_121\n      jump\t// in\n    tag_308:\n        /* \"#utility.yul\":7129:7217   */\n    tag_307:\n        /* \"#utility.yul\":7237:7247   */\n      dup1\n        /* \"#utility.yul\":7233:7235   */\n      0x40\n        /* \"#utility.yul\":7226:7248   */\n      mstore\n        /* \"#utility.yul\":7016:7254   */\n      pop\n        /* \"#utility.yul\":6973:7254   */\n      pop\n      pop\n      jump\t// out\n        /* \"#utility.yul\":7260:7389   */\n    tag_211:\n        /* \"#utility.yul\":7294:7300   */\n      0x00\n        /* \"#utility.yul\":7321:7341   */\n      tag_310\n      tag_194\n      jump\t// in\n    tag_310:\n        /* \"#utility.yul\":7311:7341   */\n      swap1\n      pop\n        /* \"#utility.yul\":7350:7383   */\n      tag_311\n        /* \"#utility.yul\":7378:7382   */\n      dup3\n        /* \"#utility.yul\":7370:7376   */\n      dup3\n        /* \"#utility.yul\":7350:7383   */\n      tag_210\n      jump\t// in\n    tag_311:\n        /* \"#utility.yul\":7260:7389   */\n      swap2\n      swap1\n      pop\n      jump\t// out\n        /* \"#utility.yul\":7395:7706   */\n    tag_212:\n        /* \"#utility.yul\":7472:7476   */\n      0x00\n        /* \"#utility.yul\":7562:7580   */\n      0xffffffffffffffff\n        /* \"#utility.yul\":7554:7560   */\n      dup3\n        /* \"#utility.yul\":7551:7581   */\n      gt\n        /* \"#utility.yul\":7548:7604   */\n      iszero\n      tag_313\n      jumpi\n        /* \"#utility.yul\":7584:7602   */\n      tag_314\n      tag_121\n      jump\t// in\n    tag_314:\n        /* \"#utility.yul\":7548:7604   */\n    tag_313:\n        /* \"#utility.yul\":7634:7638   */\n      0x20\n        /* \"#utility.yul\":7626:7632   */\n      dup3\n        /* \"#utility.yul\":7622:7639   */\n      mul\n        /* \"#utility.yul\":7614:7639   */\n      swap1\n      pop\n        /* \"#utility.yul\":7694:7698   */\n      0x20\n        /* \"#utility.yul\":7688:7692   */\n      dup2\n        /* \"#utility.yul\":7684:7699   */\n      add\n        /* \"#utility.yul\":7676:7699   */\n      swap1\n      pop\n        /* \"#utility.yul\":7395:7706   */\n      swap2\n      swap1\n      pop\n      jump\t// out\n        /* \"#utility.yul\":7712:7829   */\n    tag_213:\n        /* \"#utility.yul\":7821:7822   */\n      0x00\n        /* \"#utility.yul\":7818:7819   */\n      dup1\n        /* \"#utility.yul\":7811:7823   */\n      revert\n        /* \"#utility.yul\":7852:8562   */\n    tag_214:\n        /* \"#utility.yul\":7948:7953   */\n      0x00\n        /* \"#utility.yul\":7973:8054   */\n      tag_317\n        /* \"#utility.yul\":7989:8053   */\n      tag_318\n        /* \"#utility.yul\":8046:8052   */\n      dup5\n        /* \"#utility.yul\":7989:8053   */\n      tag_212\n      jump\t// in\n    tag_318:\n        /* \"#utility.yul\":7973:8054   */\n      tag_211\n      jump\t// in\n    tag_317:\n        /* \"#utility.yul\":7964:8054   */\n      swap1\n      pop\n        /* \"#utility.yul\":8074:8079   */\n      dup1\n        /* \"#utility.yul\":8103:8109   */\n      dup4\n        /* \"#utility.yul\":8096:8101   */\n      dup3\n        /* \"#utility.yul\":8089:8110   */\n      mstore\n        /* \"#utility.yul\":8137:8141   */\n      0x20\n        /* \"#utility.yul\":8130:8135   */\n      dup3\n        /* \"#utility.yul\":8126:8142   */\n      add\n        /* \"#utility.yul\":8119:8142   */\n      swap1\n      pop\n        /* \"#utility.yul\":8190:8194   */\n      0x20\n        /* \"#utility.yul\":8182:8188   */\n      dup5\n        /* \"#utility.yul\":8178:8195   */\n      mul\n        /* \"#utility.yul\":8170:8176   */\n      dup4\n        /* \"#utility.yul\":8166:8196   */\n      add\n        /* \"#utility.yul\":8219:8222   */\n      dup6\n        /* \"#utility.yul\":8211:8217   */\n      dup2\n        /* \"#utility.yul\":8208:8223   */\n      gt\n        /* \"#utility.yul\":8205:8327   */\n      iszero\n      tag_319\n      jumpi\n        /* \"#utility.yul\":8238:8317   */\n      tag_320\n      tag_213\n      jump\t// in\n    tag_320:\n        /* \"#utility.yul\":8205:8327   */\n    tag_319:\n        /* \"#utility.yul\":8353:8359   */\n      dup4\n        /* \"#utility.yul\":8336:8556   */\n    tag_321:\n        /* \"#utility.yul\":8370:8376   */\n      dup2\n        /* \"#utility.yul\":8365:8368   */\n      dup2\n        /* \"#utility.yul\":8362:8377   */\n      lt\n        /* \"#utility.yul\":8336:8556   */\n      iszero\n      tag_323\n      jumpi\n        /* \"#utility.yul\":8445:8448   */\n      dup1\n        /* \"#utility.yul\":8474:8511   */\n      tag_324\n        /* \"#utility.yul\":8507:8510   */\n      dup9\n        /* \"#utility.yul\":8495:8505   */\n      dup3\n        /* \"#utility.yul\":8474:8511   */\n      tag_198\n      jump\t// in\n    tag_324:\n        /* \"#utility.yul\":8469:8472   */\n      dup5\n        /* \"#utility.yul\":8462:8512   */\n      mstore\n        /* \"#utility.yul\":8541:8545   */\n      0x20\n        /* \"#utility.yul\":8536:8539   */\n      dup5\n        /* \"#utility.yul\":8532:8546   */\n      add\n        /* \"#utility.yul\":8525:8546   */\n      swap4\n      pop\n        /* \"#utility.yul\":8412:8556   */\n      pop\n        /* \"#utility.yul\":8396:8400   */\n      0x20\n        /* \"#utility.yul\":8391:8394   */\n      dup2\n        /* \"#utility.yul\":8387:8401   */\n      add\n        /* \"#utility.yul\":8380:8401   */\n      swap1\n      pop\n        /* \"#utility.yul\":8336:8556   */\n      jump(tag_321)\n    tag_323:\n        /* \"#utility.yul\":8340:8361   */\n      pop\n        /* \"#utility.yul\":7954:8562   */\n      pop\n      pop\n        /* \"#utility.yul\":7852:8562   */\n      swap4\n      swap3\n      pop\n      pop\n      pop\n      jump\t// out\n        /* \"#utility.yul\":8585:8955   */\n    tag_215:\n        /* \"#utility.yul\":8656:8661   */\n      0x00\n        /* \"#utility.yul\":8705:8708   */\n      dup3\n        /* \"#utility.yul\":8698:8702   */\n      0x1f\n        /* \"#utility.yul\":8690:8696   */\n      dup4\n        /* \"#utility.yul\":8686:8703   */\n      add\n        /* \"#utility.yul\":8682:8709   */\n      slt\n        /* \"#utility.yul\":8672:8794   */\n      tag_326\n      jumpi\n        /* \"#utility.yul\":8713:8792   */\n      tag_327\n      tag_209\n      jump\t// in\n    tag_327:\n        /* \"#utility.yul\":8672:8794   */\n    tag_326:\n        /* \"#utility.yul\":8830:8836   */\n      dup2\n        /* \"#utility.yul\":8817:8837   */\n      calldataload\n        /* \"#utility.yul\":8855:8949   */\n      tag_328\n        /* \"#utility.yul\":8945:8948   */\n      dup5\n        /* \"#utility.yul\":8937:8943   */\n      dup3\n        /* \"#utility.yul\":8930:8934   */\n      0x20\n        /* \"#utility.yul\":8922:8928   */\n      dup7\n        /* \"#utility.yul\":8918:8935   */\n      add\n        /* \"#utility.yul\":8855:8949   */\n      tag_214\n      jump\t// in\n    tag_328:\n        /* \"#utility.yul\":8846:8949   */\n      swap2\n      pop\n        /* \"#utility.yul\":8662:8955   */\n      pop\n        /* \"#utility.yul\":8585:8955   */\n      swap3\n      swap2\n      pop\n      pop\n      jump\t// out\n        /* \"#utility.yul\":8961:9500   */\n    tag_87:\n        /* \"#utility.yul\":9045:9051   */\n      0x00\n        /* \"#utility.yul\":9094:9096   */\n      0x20\n        /* \"#utility.yul\":9082:9091   */\n      dup3\n        /* \"#utility.yul\":9073:9080   */\n      dup5\n        /* \"#utility.yul\":9069:9092   */\n      sub\n        /* \"#utility.yul\":9065:9097   */\n      slt\n        /* \"#utility.yul\":9062:9181   */\n      iszero\n      tag_330\n      jumpi\n        /* \"#utility.yul\":9100:9179   */\n      tag_331\n      tag_195\n      jump\t// in\n    tag_331:\n        /* \"#utility.yul\":9062:9181   */\n    tag_330:\n        /* \"#utility.yul\":9248:9249   */\n      0x00\n        /* \"#utility.yul\":9237:9246   */\n      dup3\n        /* \"#utility.yul\":9233:9250   */\n      add\n        /* \"#utility.yul\":9220:9251   */\n      calldataload\n        /* \"#utility.yul\":9278:9296   */\n      0xffffffffffffffff\n        /* \"#utility.yul\":9270:9276   */\n      dup2\n        /* \"#utility.yul\":9267:9297   */\n      gt\n        /* \"#utility.yul\":9264:9381   */\n      iszero\n      tag_332\n      jumpi\n        /* \"#utility.yul\":9300:9379   */\n      tag_333\n      tag_196\n      jump\t// in\n    tag_333:\n        /* \"#utility.yul\":9264:9381   */\n    tag_332:\n        /* \"#utility.yul\":9405:9483   */\n      tag_334\n        /* \"#utility.yul\":9475:9482   */\n      dup5\n        /* \"#utility.yul\":9466:9472   */\n      dup3\n        /* \"#utility.yul\":9455:9464   */\n      dup6\n        /* \"#utility.yul\":9451:9473   */\n      add\n        /* \"#utility.yul\":9405:9483   */\n      tag_215\n      jump\t// in\n    tag_334:\n        /* \"#utility.yul\":9395:9483   */\n      swap2\n      pop\n        /* \"#utility.yul\":9191:9493   */\n      pop\n        /* \"#utility.yul\":8961:9500   */\n      swap3\n      swap2\n      pop\n      pop\n      jump\t// out\n        /* \"#utility.yul\":9506:9620   */\n    tag_216:\n        /* \"#utility.yul\":9573:9579   */\n      0x00\n        /* \"#utility.yul\":9607:9612   */\n      dup2\n        /* \"#utility.yul\":9601:9613   */\n      mload\n        /* \"#utility.yul\":9591:9613   */\n      swap1\n      pop\n        /* \"#utility.yul\":9506:9620   */\n      swap2\n      swap1\n      pop\n      jump\t// out\n        /* \"#utility.yul\":9626:9810   */\n    tag_217:\n        /* \"#utility.yul\":9725:9736   */\n      0x00\n        /* \"#utility.yul\":9759:9765   */\n      dup3\n        /* \"#utility.yul\":9754:9757   */\n      dup3\n        /* \"#utility.yul\":9747:9766   */\n      mstore\n        /* \"#utility.yul\":9799:9803   */\n      0x20\n        /* \"#utility.yul\":9794:9797   */\n      dup3\n        /* \"#utility.yul\":9790:9804   */\n      add\n        /* \"#utility.yul\":9775:9804   */\n      swap1\n      pop\n        /* \"#utility.yul\":9626:9810   */\n      swap3\n      swap2\n      pop\n      pop\n      jump\t// out\n        /* \"#utility.yul\":9816:9948   */\n    tag_218:\n        /* \"#utility.yul\":9883:9887   */\n      0x00\n        /* \"#utility.yul\":9906:9909   */\n      dup2\n        /* \"#utility.yul\":9898:9909   */\n      swap1\n      pop\n        /* \"#utility.yul\":9936:9940   */\n      0x20\n        /* \"#utility.yul\":9931:9934   */\n      dup3\n        /* \"#utility.yul\":9927:9941   */\n      add\n        /* \"#utility.yul\":9919:9941   */\n      swap1\n      pop\n        /* \"#utility.yul\":9816:9948   */\n      swap2\n      swap1\n      pop\n      jump\t// out\n        /* \"#utility.yul\":9954:10067   */\n    tag_219:\n        /* \"#utility.yul\":10024:10028   */\n      0x00\n        /* \"#utility.yul\":10056:10060   */\n      0x20\n        /* \"#utility.yul\":10051:10054   */\n      dup3\n        /* \"#utility.yul\":10047:10061   */\n      add\n        /* \"#utility.yul\":10039:10061   */\n      swap1\n      pop\n        /* \"#utility.yul\":9954:10067   */\n      swap2\n      swap1\n      pop\n      jump\t// out\n        /* \"#utility.yul\":10103:10835   */\n    tag_220:\n        /* \"#utility.yul\":10222:10225   */\n      0x00\n        /* \"#utility.yul\":10251:10305   */\n      tag_340\n        /* \"#utility.yul\":10299:10304   */\n      dup3\n        /* \"#utility.yul\":10251:10305   */\n      tag_216\n      jump\t// in\n    tag_340:\n        /* \"#utility.yul\":10321:10407   */\n      tag_341\n        /* \"#utility.yul\":10400:10406   */\n      dup2\n        /* \"#utility.yul\":10395:10398   */\n      dup6\n        /* \"#utility.yul\":10321:10407   */\n      tag_217\n      jump\t// in\n    tag_341:\n        /* \"#utility.yul\":10314:10407   */\n      swap4\n      pop\n        /* \"#utility.yul\":10431:10487   */\n      tag_342\n        /* \"#utility.yul\":10481:10486   */\n      dup4\n        /* \"#utility.yul\":10431:10487   */\n      tag_218\n      jump\t// in\n    tag_342:\n        /* \"#utility.yul\":10510:10517   */\n      dup1\n        /* \"#utility.yul\":10541:10542   */\n      0x00\n        /* \"#utility.yul\":10526:10810   */\n    tag_343:\n        /* \"#utility.yul\":10551:10557   */\n      dup4\n        /* \"#utility.yul\":10548:10549   */\n      dup2\n        /* \"#utility.yul\":10545:10558   */\n      lt\n        /* \"#utility.yul\":10526:10810   */\n      iszero\n      tag_345\n      jumpi\n        /* \"#utility.yul\":10627:10633   */\n      dup2\n        /* \"#utility.yul\":10621:10634   */\n      mload\n        /* \"#utility.yul\":10654:10717   */\n      tag_346\n        /* \"#utility.yul\":10713:10716   */\n      dup9\n        /* \"#utility.yul\":10698:10711   */\n      dup3\n        /* \"#utility.yul\":10654:10717   */\n      tag_191\n      jump\t// in\n    tag_346:\n        /* \"#utility.yul\":10647:10717   */\n      swap8\n      pop\n        /* \"#utility.yul\":10740:10800   */\n      tag_347\n        /* \"#utility.yul\":10793:10799   */\n      dup4\n        /* \"#utility.yul\":10740:10800   */\n      tag_219\n      jump\t// in\n    tag_347:\n        /* \"#utility.yul\":10730:10800   */\n      swap3\n      pop\n        /* \"#utility.yul\":10586:10810   */\n      pop\n        /* \"#utility.yul\":10573:10574   */\n      0x01\n        /* \"#utility.yul\":10570:10571   */\n      dup2\n        /* \"#utility.yul\":10566:10575   */\n      add\n        /* \"#utility.yul\":10561:10575   */\n      swap1\n      pop\n        /* \"#utility.yul\":10526:10810   */\n      jump(tag_343)\n    tag_345:\n        /* \"#utility.yul\":10530:10544   */\n      pop\n        /* \"#utility.yul\":10826:10829   */\n      dup6\n        /* \"#utility.yul\":10819:10829   */\n      swap4\n      pop\n        /* \"#utility.yul\":10227:10835   */\n      pop\n      pop\n      pop\n        /* \"#utility.yul\":10103:10835   */\n      swap3\n      swap2\n      pop\n      pop\n      jump\t// out\n        /* \"#utility.yul\":10841:11214   */\n    tag_90:\n        /* \"#utility.yul\":10984:10988   */\n      0x00\n        /* \"#utility.yul\":11022:11024   */\n      0x20\n        /* \"#utility.yul\":11011:11020   */\n      dup3\n        /* \"#utility.yul\":11007:11025   */\n      add\n        /* \"#utility.yul\":10999:11025   */\n      swap1\n      pop\n        /* \"#utility.yul\":11071:11080   */\n      dup2\n        /* \"#utility.yul\":11065:11069   */\n      dup2\n        /* \"#utility.yul\":11061:11081   */\n      sub\n        /* \"#utility.yul\":11057:11058   */\n      0x00\n        /* \"#utility.yul\":11046:11055   */\n      dup4\n        /* \"#utility.yul\":11042:11059   */\n      add\n        /* \"#utility.yul\":11035:11082   */\n      mstore\n        /* \"#utility.yul\":11099:11207   */\n      tag_349\n        /* \"#utility.yul\":11202:11206   */\n      dup2\n        /* \"#utility.yul\":11193:11199   */\n      dup5\n        /* \"#utility.yul\":11099:11207   */\n      tag_220\n      jump\t// in\n    tag_349:\n        /* \"#utility.yul\":11091:11207   */\n      swap1\n      pop\n        /* \"#utility.yul\":10841:11214   */\n      swap3\n      swap2\n      pop\n      pop\n      jump\t// out\n        /* \"#utility.yul\":11220:11363   */\n    tag_221:\n        /* \"#utility.yul\":11277:11282   */\n      0x00\n        /* \"#utility.yul\":11308:11314   */\n      dup2\n        /* \"#utility.yul\":11302:11315   */\n      mload\n        /* \"#utility.yul\":11293:11315   */\n      swap1\n      pop\n        /* \"#utility.yul\":11324:11357   */\n      tag_351\n        /* \"#utility.yul\":11351:11356   */\n      dup2\n        /* \"#utility.yul\":11324:11357   */\n      tag_197\n      jump\t// in\n    tag_351:\n        /* \"#utility.yul\":11220:11363   */\n      swap3\n      swap2\n      pop\n      pop\n      jump\t// out\n        /* \"#utility.yul\":11369:11485   */\n    tag_222:\n        /* \"#utility.yul\":11439:11460   */\n      tag_353\n        /* \"#utility.yul\":11454:11459   */\n      dup2\n        /* \"#utility.yul\":11439:11460   */\n      tag_185\n      jump\t// in\n    tag_353:\n        /* \"#utility.yul\":11432:11437   */\n      dup2\n        /* \"#utility.yul\":11429:11461   */\n      eq\n        /* \"#utility.yul\":11419:11479   */\n      tag_354\n      jumpi\n        /* \"#utility.yul\":11475:11476   */\n      0x00\n        /* \"#utility.yul\":11472:11473   */\n      dup1\n        /* \"#utility.yul\":11465:11477   */\n      revert\n        /* \"#utility.yul\":11419:11479   */\n    tag_354:\n        /* \"#utility.yul\":11369:11485   */\n      pop\n      jump\t// out\n        /* \"#utility.yul\":11491:11628   */\n    tag_223:\n        /* \"#utility.yul\":11545:11550   */\n      0x00\n        /* \"#utility.yul\":11576:11582   */\n      dup2\n        /* \"#utility.yul\":11570:11583   */\n      mload\n        /* \"#utility.yul\":11561:11583   */\n      swap1\n      pop\n        /* \"#utility.yul\":11592:11622   */\n      tag_356\n        /* \"#utility.yul\":11616:11621   */\n      dup2\n        /* \"#utility.yul\":11592:11622   */\n      tag_222\n      jump\t// in\n    tag_356:\n        /* \"#utility.yul\":11491:11628   */\n      swap3\n      swap2\n      pop\n      pop\n      jump\t// out\n        /* \"#utility.yul\":11634:11883   */\n    tag_224:\n        /* \"#utility.yul\":11709:11713   */\n      0x00\n        /* \"#utility.yul\":11799:11817   */\n      0xffffffffffffffff\n        /* \"#utility.yul\":11791:11797   */\n      dup3\n        /* \"#utility.yul\":11788:11818   */\n      gt\n        /* \"#utility.yul\":11785:11841   */\n      iszero\n      tag_358\n      jumpi\n        /* \"#utility.yul\":11821:11839   */\n      tag_359\n      tag_121\n      jump\t// in\n    tag_359:\n        /* \"#utility.yul\":11785:11841   */\n    tag_358:\n        /* \"#utility.yul\":11871:11875   */\n      0x20\n        /* \"#utility.yul\":11863:11869   */\n      dup3\n        /* \"#utility.yul\":11859:11876   */\n      mul\n        /* \"#utility.yul\":11851:11876   */\n      swap1\n      pop\n        /* \"#utility.yul\":11634:11883   */\n      swap2\n      swap1\n      pop\n      jump\t// out\n        /* \"#utility.yul\":11907:12572   */\n    tag_225:\n        /* \"#utility.yul\":12012:12017   */\n      0x00\n        /* \"#utility.yul\":12037:12116   */\n      tag_361\n        /* \"#utility.yul\":12053:12115   */\n      tag_362\n        /* \"#utility.yul\":12108:12114   */\n      dup5\n        /* \"#utility.yul\":12053:12115   */\n      tag_224\n      jump\t// in\n    tag_362:\n        /* \"#utility.yul\":12037:12116   */\n      tag_211\n      jump\t// in\n    tag_361:\n        /* \"#utility.yul\":12028:12116   */\n      swap1\n      pop\n        /* \"#utility.yul\":12136:12141   */\n      dup1\n        /* \"#utility.yul\":12189:12193   */\n      0x20\n        /* \"#utility.yul\":12181:12187   */\n      dup5\n        /* \"#utility.yul\":12177:12194   */\n      mul\n        /* \"#utility.yul\":12169:12175   */\n      dup4\n        /* \"#utility.yul\":12165:12195   */\n      add\n        /* \"#utility.yul\":12218:12221   */\n      dup6\n        /* \"#utility.yul\":12210:12216   */\n      dup2\n        /* \"#utility.yul\":12207:12222   */\n      gt\n        /* \"#utility.yul\":12204:12326   */\n      iszero\n      tag_363\n      jumpi\n        /* \"#utility.yul\":12237:12316   */\n      tag_364\n      tag_213\n      jump\t// in\n    tag_364:\n        /* \"#utility.yul\":12204:12326   */\n    tag_363:\n        /* \"#utility.yul\":12352:12358   */\n      dup4\n        /* \"#utility.yul\":12335:12566   */\n    tag_365:\n        /* \"#utility.yul\":12369:12375   */\n      dup2\n        /* \"#utility.yul\":12364:12367   */\n      dup2\n        /* \"#utility.yul\":12361:12376   */\n      lt\n        /* \"#utility.yul\":12335:12566   */\n      iszero\n      tag_367\n      jumpi\n        /* \"#utility.yul\":12444:12447   */\n      dup1\n        /* \"#utility.yul\":12473:12521   */\n      tag_368\n        /* \"#utility.yul\":12517:12520   */\n      dup9\n        /* \"#utility.yul\":12505:12515   */\n      dup3\n        /* \"#utility.yul\":12473:12521   */\n      tag_221\n      jump\t// in\n    tag_368:\n        /* \"#utility.yul\":12468:12471   */\n      dup5\n        /* \"#utility.yul\":12461:12522   */\n      mstore\n        /* \"#utility.yul\":12551:12555   */\n      0x20\n        /* \"#utility.yul\":12546:12549   */\n      dup5\n        /* \"#utility.yul\":12542:12556   */\n      add\n        /* \"#utility.yul\":12535:12556   */\n      swap4\n      pop\n        /* \"#utility.yul\":12411:12566   */\n      pop\n        /* \"#utility.yul\":12395:12399   */\n      0x20\n        /* \"#utility.yul\":12390:12393   */\n      dup2\n        /* \"#utility.yul\":12386:12400   */\n      add\n        /* \"#utility.yul\":12379:12400   */\n      swap1\n      pop\n        /* \"#utility.yul\":12335:12566   */\n      jump(tag_365)\n    tag_367:\n        /* \"#utility.yul\":12339:12360   */\n      pop\n        /* \"#utility.yul\":12018:12572   */\n      pop\n      pop\n        /* \"#utility.yul\":11907:12572   */\n      swap4\n      swap3\n      pop\n      pop\n      pop\n      jump\t// out\n        /* \"#utility.yul\":12596:12957   */\n    tag_226:\n        /* \"#utility.yul\":12676:12681   */\n      0x00\n        /* \"#utility.yul\":12725:12728   */\n      dup3\n        /* \"#utility.yul\":12718:12722   */\n      0x1f\n        /* \"#utility.yul\":12710:12716   */\n      dup4\n        /* \"#utility.yul\":12706:12723   */\n      add\n        /* \"#utility.yul\":12702:12729   */\n      slt\n        /* \"#utility.yul\":12692:12814   */\n      tag_370\n      jumpi\n        /* \"#utility.yul\":12733:12812   */\n      tag_371\n      tag_209\n      jump\t// in\n    tag_371:\n        /* \"#utility.yul\":12692:12814   */\n    tag_370:\n        /* \"#utility.yul\":12837:12841   */\n      0x03\n        /* \"#utility.yul\":12859:12951   */\n      tag_372\n        /* \"#utility.yul\":12947:12950   */\n      dup5\n        /* \"#utility.yul\":12939:12945   */\n      dup3\n        /* \"#utility.yul\":12931:12937   */\n      dup6\n        /* \"#utility.yul\":12859:12951   */\n      tag_225\n      jump\t// in\n    tag_372:\n        /* \"#utility.yul\":12850:12951   */\n      swap2\n      pop\n        /* \"#utility.yul\":12682:12957   */\n      pop\n        /* \"#utility.yul\":12596:12957   */\n      swap3\n      swap2\n      pop\n      pop\n      jump\t// out\n        /* \"#utility.yul\":12963:13667   */\n    tag_108:\n        /* \"#utility.yul\":13071:13077   */\n      0x00\n        /* \"#utility.yul\":13079:13085   */\n      dup1\n        /* \"#utility.yul\":13087:13093   */\n      0x00\n        /* \"#utility.yul\":13136:13139   */\n      0xa0\n        /* \"#utility.yul\":13124:13133   */\n      dup5\n        /* \"#utility.yul\":13115:13122   */\n      dup7\n        /* \"#utility.yul\":13111:13134   */\n      sub\n        /* \"#utility.yul\":13107:13140   */\n      slt\n        /* \"#utility.yul\":13104:13224   */\n      iszero\n      tag_374\n      jumpi\n        /* \"#utility.yul\":13143:13222   */\n      tag_375\n      tag_195\n      jump\t// in\n    tag_375:\n        /* \"#utility.yul\":13104:13224   */\n    tag_374:\n        /* \"#utility.yul\":13263:13264   */\n      0x00\n        /* \"#utility.yul\":13288:13352   */\n      tag_376\n        /* \"#utility.yul\":13344:13351   */\n      dup7\n        /* \"#utility.yul\":13335:13341   */\n      dup3\n        /* \"#utility.yul\":13324:13333   */\n      dup8\n        /* \"#utility.yul\":13320:13342   */\n      add\n        /* \"#utility.yul\":13288:13352   */\n      tag_221\n      jump\t// in\n    tag_376:\n        /* \"#utility.yul\":13278:13352   */\n      swap4\n      pop\n        /* \"#utility.yul\":13234:13362   */\n      pop\n        /* \"#utility.yul\":13401:13403   */\n      0x20\n        /* \"#utility.yul\":13427:13488   */\n      tag_377\n        /* \"#utility.yul\":13480:13487   */\n      dup7\n        /* \"#utility.yul\":13471:13477   */\n      dup3\n        /* \"#utility.yul\":13460:13469   */\n      dup8\n        /* \"#utility.yul\":13456:13478   */\n      add\n        /* \"#utility.yul\":13427:13488   */\n      tag_223\n      jump\t// in\n    tag_377:\n        /* \"#utility.yul\":13417:13488   */\n      swap3\n      pop\n        /* \"#utility.yul\":13372:13498   */\n      pop\n        /* \"#utility.yul\":13537:13539   */\n      0x40\n        /* \"#utility.yul\":13563:13650   */\n      tag_378\n        /* \"#utility.yul\":13642:13649   */\n      dup7\n        /* \"#utility.yul\":13633:13639   */\n      dup3\n        /* \"#utility.yul\":13622:13631   */\n      dup8\n        /* \"#utility.yul\":13618:13640   */\n      add\n        /* \"#utility.yul\":13563:13650   */\n      tag_226\n      jump\t// in\n    tag_378:\n        /* \"#utility.yul\":13553:13650   */\n      swap2\n      pop\n        /* \"#utility.yul\":13508:13660   */\n      pop\n        /* \"#utility.yul\":12963:13667   */\n      swap3\n      pop\n      swap3\n      pop\n      swap3\n      jump\t// out\n        /* \"#utility.yul\":13673:13853   */\n    tag_227:\n        /* \"#utility.yul\":13721:13798   */\n      0x4e487b7100000000000000000000000000000000000000000000000000000000\n        /* \"#utility.yul\":13718:13719   */\n      0x00\n        /* \"#utility.yul\":13711:13799   */\n      mstore\n        /* \"#utility.yul\":13818:13822   */\n      0x11\n        /* \"#utility.yul\":13815:13816   */\n      0x04\n        /* \"#utility.yul\":13808:13823   */\n      mstore\n        /* \"#utility.yul\":13842:13846   */\n      0x24\n        /* \"#utility.yul\":13839:13840   */\n      0x00\n        /* \"#utility.yul\":13832:13847   */\n      revert\n        /* \"#utility.yul\":13859:14050   */\n    tag_112:\n        /* \"#utility.yul\":13899:13902   */\n      0x00\n        /* \"#utility.yul\":13918:13938   */\n      tag_381\n        /* \"#utility.yul\":13936:13937   */\n      dup3\n        /* \"#utility.yul\":13918:13938   */\n      tag_183\n      jump\t// in\n    tag_381:\n        /* \"#utility.yul\":13913:13938   */\n      swap2\n      pop\n        /* \"#utility.yul\":13952:13972   */\n      tag_382\n        /* \"#utility.yul\":13970:13971   */\n      dup4\n        /* \"#utility.yul\":13952:13972   */\n      tag_183\n      jump\t// in\n    tag_382:\n        /* \"#utility.yul\":13947:13972   */\n      swap3\n      pop\n        /* \"#utility.yul\":13995:13996   */\n      dup3\n        /* \"#utility.yul\":13992:13993   */\n      dup3\n        /* \"#utility.yul\":13988:13997   */\n      add\n        /* \"#utility.yul\":13981:13997   */\n      swap1\n      pop\n        /* \"#utility.yul\":14016:14019   */\n      dup1\n        /* \"#utility.yul\":14013:14014   */\n      dup3\n        /* \"#utility.yul\":14010:14020   */\n      gt\n        /* \"#utility.yul\":14007:14043   */\n      iszero\n      tag_383\n      jumpi\n        /* \"#utility.yul\":14023:14041   */\n      tag_384\n      tag_227\n      jump\t// in\n    tag_384:\n        /* \"#utility.yul\":14007:14043   */\n    tag_383:\n        /* \"#utility.yul\":13859:14050   */\n      swap3\n      swap2\n      pop\n      pop\n      jump\t// out\n        /* \"#utility.yul\":14056:14250   */\n    tag_115:\n        /* \"#utility.yul\":14096:14100   */\n      0x00\n        /* \"#utility.yul\":14116:14136   */\n      tag_386\n        /* \"#utility.yul\":14134:14135   */\n      dup3\n        /* \"#utility.yul\":14116:14136   */\n      tag_183\n      jump\t// in\n    tag_386:\n        /* \"#utility.yul\":14111:14136   */\n      swap2\n      pop\n        /* \"#utility.yul\":14150:14170   */\n      tag_387\n        /* \"#utility.yul\":14168:14169   */\n      dup4\n        /* \"#utility.yul\":14150:14170   */\n      tag_183\n      jump\t// in\n    tag_387:\n        /* \"#utility.yul\":14145:14170   */\n      swap3\n      pop\n        /* \"#utility.yul\":14194:14195   */\n      dup3\n        /* \"#utility.yul\":14191:14192   */\n      dup3\n        /* \"#utility.yul\":14187:14196   */\n      sub\n        /* \"#utility.yul\":14179:14196   */\n      swap1\n      pop\n        /* \"#utility.yul\":14218:14219   */\n      dup2\n        /* \"#utility.yul\":14212:14216   */\n      dup2\n        /* \"#utility.yul\":14209:14220   */\n      gt\n        /* \"#utility.yul\":14206:14243   */\n      iszero\n      tag_388\n      jumpi\n        /* \"#utility.yul\":14223:14241   */\n      tag_389\n      tag_227\n      jump\t// in\n    tag_389:\n        /* \"#utility.yul\":14206:14243   */\n    tag_388:\n        /* \"#utility.yul\":14056:14250   */\n      swap3\n      swap2\n      pop\n      pop\n      jump\t// out\n        /* \"#utility.yul\":14256:14436   */\n    tag_128:\n        /* \"#utility.yul\":14304:14381   */\n      0x4e487b7100000000000000000000000000000000000000000000000000000000\n        /* \"#utility.yul\":14301:14302   */\n      0x00\n        /* \"#utility.yul\":14294:14382   */\n      mstore\n        /* \"#utility.yul\":14401:14405   */\n      0x32\n        /* \"#utility.yul\":14398:14399   */\n      0x04\n        /* \"#utility.yul\":14391:14406   */\n      mstore\n        /* \"#utility.yul\":14425:14429   */\n      0x24\n        /* \"#utility.yul\":14422:14423   */\n      0x00\n        /* \"#utility.yul\":14415:14430   */\n      revert\n        /* \"#utility.yul\":14442:14675   */\n    tag_173:\n        /* \"#utility.yul\":14481:14484   */\n      0x00\n        /* \"#utility.yul\":14504:14528   */\n      tag_392\n        /* \"#utility.yul\":14522:14527   */\n      dup3\n        /* \"#utility.yul\":14504:14528   */\n      tag_183\n      jump\t// in\n    tag_392:\n        /* \"#utility.yul\":14495:14528   */\n      swap2\n      pop\n        /* \"#utility.yul\":14550:14616   */\n      0xffffffffffffffffffffffffffffffffffffffffffffffffffffffffffffffff\n        /* \"#utility.yul\":14543:14548   */\n      dup3\n        /* \"#utility.yul\":14540:14617   */\n      sub\n        /* \"#utility.yul\":14537:14640   */\n      tag_393\n      jumpi\n        /* \"#utility.yul\":14620:14638   */\n      tag_394\n      tag_227\n      jump\t// in\n    tag_394:\n        /* \"#utility.yul\":14537:14640   */\n    tag_393:\n        /* \"#utility.yul\":14667:14668   */\n      0x01\n        /* \"#utility.yul\":14660:14665   */\n      dup3\n        /* \"#utility.yul\":14656:14669   */\n      add\n        /* \"#utility.yul\":14649:14669   */\n      swap1\n      pop\n        /* \"#utility.yul\":14442:14675   */\n      swap2\n      swap1\n      pop\n      jump\t// out\n\n    auxdata: 0xa26469706673582212201aad7d533b140774d65852c1f06e334cf3a423dd60081c1bfb452f3b6049d04b64736f6c634300081a0033\n}\n",
				"bytecode": {
					"linkReferences": {},
					"object": "608060405260015f556040518060600160405280600160ff168152602001600260ff168152602001600360ff168152506001906003603d929190604d565b503480156048575f80fd5b5060a6565b8260038101928215607e579160200282015b82811115607d578251829060ff16905591602001919060010190605f565b5b50905060899190608d565b5090565b5b8082111560a2575f815f905550600101608e565b5090565b611245806100b35f395ff3fe608060405260043610610113575f3560e01c80635e3be0761161009f578063a8b63e6f11610063578063a8b63e6f146102fd578063b23d97f214610313578063b308a0d41461034f578063d2ea40c714610379578063e61e40081461039757610113565b80635e3be076146102575780636ebcf6071461026d57806380b4ea08146102a95780639ebb8d20146102bf578063a6f9dae1146102d557610113565b8063351aab54116100e6578063351aab54146101bd5780633dece511146101d3578063461f4638146101ff5780634f2be91f1461022b5780635a4236b11461024157610113565b8063035cb56d146101175780631a8d7dc314610143578063209a519f1461015957806330e0789e14610195575b5f80fd5b348015610122575f80fd5b5061012b6103c3565b60405161013a93929190610b50565b60405180910390f35b34801561014e575f80fd5b5061015761044b565b005b348015610164575f80fd5b5061017f600480360381019061017a9190610bc0565b610462565b60405161018c9190610beb565b60405180910390f35b3480156101a0575f80fd5b506101bb60048036038101906101b69190610c5e565b610477565b005b3480156101c8575f80fd5b506101d16105cd565b005b3480156101de575f80fd5b506101e76106c0565b6040516101f693929190610b50565b60405180910390f35b34801561020a575f80fd5b506102136106f6565b60405161022293929190610d2d565b60405180910390f35b348015610236575f80fd5b5061023f61075a565b005b34801561024c575f80fd5b5061025561076f565b005b348015610262575f80fd5b5061026b61079f565b005b348015610278575f80fd5b50610293600480360381019061028e9190610d69565b6107c1565b6040516102a09190610beb565b60405180910390f35b3480156102b4575f80fd5b506102bd6107d6565b005b3480156102ca575f80fd5b506102d36107e0565b005b3480156102e0575f80fd5b506102fb60048036038101906102f69190610d69565b610810565b005b348015610308575f80fd5b506103116108ab565b005b34801561031e575f80fd5b5061033960048036038101906103349190610ed4565b6108c6565b6040516103469190610fac565b60405180910390f35b34801561035a575f80fd5b506103636109e9565b6040516103709190610beb565b60405180910390f35b6103816109fd565b60405161038e9190610beb565b60405180910390f35b3480156103a2575f80fd5b506103ab610a0c565b6040516103ba93929190610b50565b60405180910390f35b5f806103cd610a57565b3073ffffffffffffffffffffffffffffffffffffffff16633dece5116040518163ffffffff1660e01b815260040160a060405180830381865afa158015610416573d5f803e3d5ffd5b505050506040513d601f19601f8201168201806040525081019061043a91906110b8565b809350819450829550505050909192565b600160045f01819055506050600460010181905550565b5f6001826104709190611135565b9050919050565b63075bcd1560075f8573ffffffffffffffffffffffffffffffffffffffff1673ffffffffffffffffffffffffffffffffffffffff1681526020019081526020015f20819055508060075f8573ffffffffffffffffffffffffffffffffffffffff1673ffffffffffffffffffffffffffffffffffffffff1681526020019081526020015f205f8282546105099190611168565b925050819055508060075f8473ffffffffffffffffffffffffffffffffffffffff1673ffffffffffffffffffffffffffffffffffffffff1681526020019081526020015f205f82825461055c9190611135565b925050819055508173ffffffffffffffffffffffffffffffffffffffff168373ffffffffffffffffffffffffffffffffffffffff167fddf252ad1be2c89b69c2b068fc378daa952ba7f163c4a11628f55a4df523b3ef836040516105c09190610beb565b60405180910390a3505050565b5f805f805f805f80600567ffffffffffffffff8111156105f0576105ef610d98565b5b60405190808252806020026020018201604052801561061e5781602001602082028036833780820191505090505b5090505f600967ffffffffffffffff81111561063d5761063c610d98565b5b6040519080825280601f01601f19166020018201604052801561066f5781602001600182028036833780820191505090505b5090506001825f815181106106875761068661119b565b5b6020026020010181815250506002826001815181106106a9576106a861119b565b5b602002602001018181525050505050505050505050565b5f806106ca610a57565b600292505f91506040518060600160405280600381526020016002815260200160018152509050909192565b5f8060605f3390505f4390505f80368080601f0160208091040260200160405190810160405280939291908181526020018383808284375f81840152601f19601f820116905080830192505050505050509050828282955095509550505050909192565b60015f546107689190611135565b5f81905550565b604051806040016040528060038152602001605a81525060045f820151815f015560208201518160010155905050565b5f600190506064815f600381106107b9576107b861119b565b5b018190555050565b6007602052805f5260405f205f915090505481565b6107de610a42565b565b604051806040016040528060048152602001603c81525060045f820151815f015560208201518160010155905050565b60065f9054906101000a900473ffffffffffffffffffffffffffffffffffffffff1673ffffffffffffffffffffffffffffffffffffffff163373ffffffffffffffffffffffffffffffffffffffff1614610868575f80fd5b8060065f6101000a81548173ffffffffffffffffffffffffffffffffffffffff021916908373ffffffffffffffffffffffffffffffffffffffff16021790555050565b5f60049050600b815f01819055506064816001018190555050565b60605f5b600183516108d89190611168565b81116109e0575f6001826108ec9190611135565b90505b600184516108fd9190611168565b81116109cc578381815181106109165761091561119b565b5b60200260200101518483815181106109315761093061119b565b5b602002602001015111156109b9575f8483815181106109535761095261119b565b5b602002602001015190508482815181106109705761096f61119b565b5b602002602001015185848151811061098b5761098a61119b565b5b602002602001018181525050808583815181106109ab576109aa61119b565b5b602002602001018181525050505b80806109c4906111c8565b9150506108ef565b5080806109d8906111c8565b9150506108ca565b50819050919050565b5f60015f546109f89190611135565b905090565b5f610a06610a42565b47905090565b5f80610a16610a57565b600180604051806060016040528060018152602001600281526020016005815250925092509250909192565b60015f54610a509190611168565b5f81905550565b6040518060600160405280600390602082028036833780820191505090505090565b5f819050919050565b610a8b81610a79565b82525050565b5f8115159050919050565b610aa581610a91565b82525050565b5f60039050919050565b5f81905092915050565b5f819050919050565b610ad181610a79565b82525050565b5f610ae28383610ac8565b60208301905092915050565b5f602082019050919050565b610b0381610aab565b610b0d8184610ab5565b9250610b1882610abf565b805f5b83811015610b48578151610b2f8782610ad7565b9650610b3a83610aee565b925050600181019050610b1b565b505050505050565b5f60a082019050610b635f830186610a82565b610b706020830185610a9c565b610b7d6040830184610afa565b949350505050565b5f604051905090565b5f80fd5b5f80fd5b610b9f81610a79565b8114610ba9575f80fd5b50565b5f81359050610bba81610b96565b92915050565b5f60208284031215610bd557610bd4610b8e565b5b5f610be284828501610bac565b91505092915050565b5f602082019050610bfe5f830184610a82565b92915050565b5f73ffffffffffffffffffffffffffffffffffffffff82169050919050565b5f610c2d82610c04565b9050919050565b610c3d81610c23565b8114610c47575f80fd5b50565b5f81359050610c5881610c34565b92915050565b5f805f60608486031215610c7557610c74610b8e565b5b5f610c8286828701610c4a565b9350506020610c9386828701610c4a565b9250506040610ca486828701610bac565b9150509250925092565b610cb781610c23565b82525050565b5f81519050919050565b5f82825260208201905092915050565b8281835e5f83830152505050565b5f601f19601f8301169050919050565b5f610cff82610cbd565b610d098185610cc7565b9350610d19818560208601610cd7565b610d2281610ce5565b840191505092915050565b5f606082019050610d405f830186610cae565b610d4d6020830185610a82565b8181036040830152610d5f8184610cf5565b9050949350505050565b5f60208284031215610d7e57610d7d610b8e565b5b5f610d8b84828501610c4a565b91505092915050565b5f80fd5b7f4e487b71000000000000000000000000000000000000000000000000000000005f52604160045260245ffd5b610dce82610ce5565b810181811067ffffffffffffffff82111715610ded57610dec610d98565b5b80604052505050565b5f610dff610b85565b9050610e0b8282610dc5565b919050565b5f67ffffffffffffffff821115610e2a57610e29610d98565b5b602082029050602081019050919050565b5f80fd5b5f610e51610e4c84610e10565b610df6565b90508083825260208201905060208402830185811115610e7457610e73610e3b565b5b835b81811015610e9d5780610e898882610bac565b845260208401935050602081019050610e76565b5050509392505050565b5f82601f830112610ebb57610eba610d94565b5b8135610ecb848260208601610e3f565b91505092915050565b5f60208284031215610ee957610ee8610b8e565b5b5f82013567ffffffffffffffff811115610f0657610f05610b92565b5b610f1284828501610ea7565b91505092915050565b5f81519050919050565b5f82825260208201905092915050565b5f819050602082019050919050565b5f602082019050919050565b5f610f5a82610f1b565b610f648185610f25565b9350610f6f83610f35565b805f5b83811015610f9f578151610f868882610ad7565b9750610f9183610f44565b925050600181019050610f72565b5085935050505092915050565b5f6020820190508181035f830152610fc48184610f50565b905092915050565b5f81519050610fda81610b96565b92915050565b610fe981610a91565b8114610ff3575f80fd5b50565b5f8151905061100481610fe0565b92915050565b5f67ffffffffffffffff82111561102457611023610d98565b5b602082029050919050565b5f61104161103c8461100a565b610df6565b9050806020840283018581111561105b5761105a610e3b565b5b835b8181101561108457806110708882610fcc565b84526020840193505060208101905061105d565b5050509392505050565b5f82601f8301126110a2576110a1610d94565b5b60036110af84828561102f565b91505092915050565b5f805f60a084860312156110cf576110ce610b8e565b5b5f6110dc86828701610fcc565b93505060206110ed86828701610ff6565b92505060406110fe8682870161108e565b9150509250925092565b7f4e487b71000000000000000000000000000000000000000000000000000000005f52601160045260245ffd5b5f61113f82610a79565b915061114a83610a79565b925082820190508082111561116257611161611108565b5b92915050565b5f61117282610a79565b915061117d83610a79565b925082820390508181111561119557611194611108565b5b92915050565b7f4e487b71000000000000000000000000000000000000000000000000000000005f52603260045260245ffd5b5f6111d282610a79565b91507fffffffffffffffffffffffffffffffffffffffffffffffffffffffffffffffff820361120457611203611108565b5b60018201905091905056fea26469706673582212201aad7d533b140774d65852c1f06e334cf3a423dd60081c1bfb452f3b6049d04b64736f6c634300081a0033",
					"opcodes": "PUSH1 0x80 PUSH1 0x40 MSTORE PUSH1 0x1 PUSH0 SSTORE PUSH1 0x40 MLOAD DUP1 PUSH1 0x60 ADD PUSH1 0x40 MSTORE DUP1 PUSH1 0x1 PUSH1 0xFF AND DUP2 MSTORE PUSH1 0x20 ADD PUSH1 0x2 PUSH1 0xFF AND DUP2 MSTORE PUSH1 0x20 ADD PUSH1 0x3 PUSH1 0xFF AND DUP2 MSTORE POP PUSH1 0x1 SWAP1 PUSH1 0x3 PUSH1 0x3D SWAP3 SWAP2 SWAP1 PUSH1 0x4D JUMP JUMPDEST POP CALLVALUE DUP1 ISZERO PUSH1 0x48 JUMPI PUSH0 DUP1 REVERT JUMPDEST POP PUSH1 0xA6 JUMP JUMPDEST DUP3 PUSH1 0x3 DUP2 ADD SWAP3 DUP3 ISZERO PUSH1 0x7E JUMPI SWAP2 PUSH1 0x20 MUL DUP3 ADD JUMPDEST DUP3 DUP2 GT ISZERO PUSH1 0x7D JUMPI DUP3 MLOAD DUP3 SWAP1 PUSH1 0xFF AND SWAP1 SSTORE SWAP2 PUSH1 0x20 ADD SWAP2 SWAP1 PUSH1 0x1 ADD SWAP1 PUSH1 0x5F JUMP JUMPDEST JUMPDEST POP SWAP1 POP PUSH1 0x89 SWAP2 SWAP1 PUSH1 0x8D JUMP JUMPDEST POP SWAP1 JUMP JUMPDEST JUMPDEST DUP1 DUP3 GT ISZERO PUSH1 0xA2 JUMPI PUSH0 DUP2 PUSH0 SWAP1 SSTORE POP PUSH1 0x1 ADD PUSH1 0x8E JUMP JUMPDEST POP SWAP1 JUMP JUMPDEST PUSH2 0x1245 DUP1 PUSH2 0xB3 PUSH0 CODECOPY PUSH0 RETURN INVALID PUSH1 0x80 PUSH1 0x40 MSTORE PUSH1 0x4 CALLDATASIZE LT PUSH2 0x113 JUMPI PUSH0 CALLDATALOAD PUSH1 0xE0 SHR DUP1 PUSH4 0x5E3BE076 GT PUSH2 0x9F JUMPI DUP1 PUSH4 0xA8B63E6F GT PUSH2 0x63 JUMPI DUP1 PUSH4 0xA8B63E6F EQ PUSH2 0x2FD JUMPI DUP1 PUSH4 0xB23D97F2 EQ PUSH2 0x313 JUMPI DUP1 PUSH4 0xB308A0D4 EQ PUSH2 0x34F JUMPI DUP1 PUSH4 0xD2EA40C7 EQ PUSH2 0x379 JUMPI DUP1 PUSH4 0xE61E4008 EQ PUSH2 0x397 JUMPI PUSH2 0x113 JUMP JUMPDEST DUP1 PUSH4 0x5E3BE076 EQ PUSH2 0x257 JUMPI DUP1 PUSH4 0x6EBCF607 EQ PUSH2 0x26D JUMPI DUP1 PUSH4 0x80B4EA08 EQ PUSH2 0x2A9 JUMPI DUP1 PUSH4 0x9EBB8D20 EQ PUSH2 0x2BF JUMPI DUP1 PUSH4 0xA6F9DAE1 EQ PUSH2 0x2D5 JUMPI PUSH2 0x113 JUMP JUMPDEST DUP1 PUSH4 0x351AAB54 GT PUSH2 0xE6 JUMPI DUP1 PUSH4 0x351AAB54 EQ PUSH2 0x1BD JUMPI DUP1 PUSH4 0x3DECE511 EQ PUSH2 0x1D3 JUMPI DUP1 PUSH4 0x461F4638 EQ PUSH2 0x1FF JUMPI DUP1 PUSH4 0x4F2BE91F EQ PUSH2 0x22B JUMPI DUP1 PUSH4 0x5A4236B1 EQ PUSH2 0x241 JUMPI PUSH2 0x113 JUMP JUMPDEST DUP1 PUSH4 0x35CB56D EQ PUSH2 0x117 JUMPI DUP1 PUSH4 0x1A8D7DC3 EQ PUSH2 0x143 JUMPI DUP1 PUSH4 0x209A519F EQ PUSH2 0x159 JUMPI DUP1 PUSH4 0x30E0789E EQ PUSH2 0x195 JUMPI JUMPDEST PUSH0 DUP1 REVERT JUMPDEST CALLVALUE DUP1 ISZERO PUSH2 0x122 JUMPI PUSH0 DUP1 REVERT JUMPDEST POP PUSH2 0x12B PUSH2 0x3C3 JUMP JUMPDEST PUSH1 0x40 MLOAD PUSH2 0x13A SWAP4 SWAP3 SWAP2 SWAP1 PUSH2 0xB50 JUMP JUMPDEST PUSH1 0x40 MLOAD DUP1 SWAP2 SUB SWAP1 RETURN JUMPDEST CALLVALUE DUP1 ISZERO PUSH2 0x14E JUMPI PUSH0 DUP1 REVERT JUMPDEST POP PUSH2 0x157 PUSH2 0x44B JUMP JUMPDEST STOP JUMPDEST CALLVALUE DUP1 ISZERO PUSH2 0x164 JUMPI PUSH0 DUP1 REVERT JUMPDEST POP PUSH2 0x17F PUSH1 0x4 DUP1 CALLDATASIZE SUB DUP2 ADD SWAP1 PUSH2 0x17A SWAP2 SWAP1 PUSH2 0xBC0 JUMP JUMPDEST PUSH2 0x462 JUMP JUMPDEST PUSH1 0x40 MLOAD PUSH2 0x18C SWAP2 SWAP1 PUSH2 0xBEB JUMP JUMPDEST PUSH1 0x40 MLOAD DUP1 SWAP2 SUB SWAP1 RETURN JUMPDEST CALLVALUE DUP1 ISZERO PUSH2 0x1A0 JUMPI PUSH0 DUP1 REVERT JUMPDEST POP PUSH2 0x1BB PUSH1 0x4 DUP1 CALLDATASIZE SUB DUP2 ADD SWAP1 PUSH2 0x1B6 SWAP2 SWAP1 PUSH2 0xC5E JUMP JUMPDEST PUSH2 0x477 JUMP JUMPDEST STOP JUMPDEST CALLVALUE DUP1 ISZERO PUSH2 0x1C8 JUMPI PUSH0 DUP1 REVERT JUMPDEST POP PUSH2 0x1D1 PUSH2 0x5CD JUMP JUMPDEST STOP JUMPDEST CALLVALUE DUP1 ISZERO PUSH2 0x1DE JUMPI PUSH0 DUP1 REVERT JUMPDEST POP PUSH2 0x1E7 PUSH2 0x6C0 JUMP JUMPDEST PUSH1 0x40 MLOAD PUSH2 0x1F6 SWAP4 SWAP3 SWAP2 SWAP1 PUSH2 0xB50 JUMP JUMPDEST PUSH1 0x40 MLOAD DUP1 SWAP2 SUB SWAP1 RETURN JUMPDEST CALLVALUE DUP1 ISZERO PUSH2 0x20A JUMPI PUSH0 DUP1 REVERT JUMPDEST POP PUSH2 0x213 PUSH2 0x6F6 JUMP JUMPDEST PUSH1 0x40 MLOAD PUSH2 0x222 SWAP4 SWAP3 SWAP2 SWAP1 PUSH2 0xD2D JUMP JUMPDEST PUSH1 0x40 MLOAD DUP1 SWAP2 SUB SWAP1 RETURN JUMPDEST CALLVALUE DUP1 ISZERO PUSH2 0x236 JUMPI PUSH0 DUP1 REVERT JUMPDEST POP PUSH2 0x23F PUSH2 0x75A JUMP JUMPDEST STOP JUMPDEST CALLVALUE DUP1 ISZERO PUSH2 0x24C JUMPI PUSH0 DUP1 REVERT JUMPDEST POP PUSH2 0x255 PUSH2 0x76F JUMP JUMPDEST STOP JUMPDEST CALLVALUE DUP1 ISZERO PUSH2 0x262 JUMPI PUSH0 DUP1 REVERT JUMPDEST POP PUSH2 0x26B PUSH2 0x79F JUMP JUMPDEST STOP JUMPDEST CALLVALUE DUP1 ISZERO PUSH2 0x278 JUMPI PUSH0 DUP1 REVERT JUMPDEST POP PUSH2 0x293 PUSH1 0x4 DUP1 CALLDATASIZE SUB DUP2 ADD SWAP1 PUSH2 0x28E SWAP2 SWAP1 PUSH2 0xD69 JUMP JUMPDEST PUSH2 0x7C1 JUMP JUMPDEST PUSH1 0x40 MLOAD PUSH2 0x2A0 SWAP2 SWAP1 PUSH2 0xBEB JUMP JUMPDEST PUSH1 0x40 MLOAD DUP1 SWAP2 SUB SWAP1 RETURN JUMPDEST CALLVALUE DUP1 ISZERO PUSH2 0x2B4 JUMPI PUSH0 DUP1 REVERT JUMPDEST POP PUSH2 0x2BD PUSH2 0x7D6 JUMP JUMPDEST STOP JUMPDEST CALLVALUE DUP1 ISZERO PUSH2 0x2CA JUMPI PUSH0 DUP1 REVERT JUMPDEST POP PUSH2 0x2D3 PUSH2 0x7E0 JUMP JUMPDEST STOP JUMPDEST CALLVALUE DUP1 ISZERO PUSH2 0x2E0 JUMPI PUSH0 DUP1 REVERT JUMPDEST POP PUSH2 0x2FB PUSH1 0x4 DUP1 CALLDATASIZE SUB DUP2 ADD SWAP1 PUSH2 0x2F6 SWAP2 SWAP1 PUSH2 0xD69 JUMP JUMPDEST PUSH2 0x810 JUMP JUMPDEST STOP JUMPDEST CALLVALUE DUP1 ISZERO PUSH2 0x308 JUMPI PUSH0 DUP1 REVERT JUMPDEST POP PUSH2 0x311 PUSH2 0x8AB JUMP JUMPDEST STOP JUMPDEST CALLVALUE DUP1 ISZERO PUSH2 0x31E JUMPI PUSH0 DUP1 REVERT JUMPDEST POP PUSH2 0x339 PUSH1 0x4 DUP1 CALLDATASIZE SUB DUP2 ADD SWAP1 PUSH2 0x334 SWAP2 SWAP1 PUSH2 0xED4 JUMP JUMPDEST PUSH2 0x8C6 JUMP JUMPDEST PUSH1 0x40 MLOAD PUSH2 0x346 SWAP2 SWAP1 PUSH2 0xFAC JUMP JUMPDEST PUSH1 0x40 MLOAD DUP1 SWAP2 SUB SWAP1 RETURN JUMPDEST CALLVALUE DUP1 ISZERO PUSH2 0x35A JUMPI PUSH0 DUP1 REVERT JUMPDEST POP PUSH2 0x363 PUSH2 0x9E9 JUMP JUMPDEST PUSH1 0x40 MLOAD PUSH2 0x370 SWAP2 SWAP1 PUSH2 0xBEB JUMP JUMPDEST PUSH1 0x40 MLOAD DUP1 SWAP2 SUB SWAP1 RETURN JUMPDEST PUSH2 0x381 PUSH2 0x9FD JUMP JUMPDEST PUSH1 0x40 MLOAD PUSH2 0x38E SWAP2 SWAP1 PUSH2 0xBEB JUMP JUMPDEST PUSH1 0x40 MLOAD DUP1 SWAP2 SUB SWAP1 RETURN JUMPDEST CALLVALUE DUP1 ISZERO PUSH2 0x3A2 JUMPI PUSH0 DUP1 REVERT JUMPDEST POP PUSH2 0x3AB PUSH2 0xA0C JUMP JUMPDEST PUSH1 0x40 MLOAD PUSH2 0x3BA SWAP4 SWAP3 SWAP2 SWAP1 PUSH2 0xB50 JUMP JUMPDEST PUSH1 0x40 MLOAD DUP1 SWAP2 SUB SWAP1 RETURN JUMPDEST PUSH0 DUP1 PUSH2 0x3CD PUSH2 0xA57 JUMP JUMPDEST ADDRESS PUSH20 0xFFFFFFFFFFFFFFFFFFFFFFFFFFFFFFFFFFFFFFFF AND PUSH4 0x3DECE511 PUSH1 0x40 MLOAD DUP2 PUSH4 0xFFFFFFFF AND PUSH1 0xE0 SHL DUP2 MSTORE PUSH1 0x4 ADD PUSH1 0xA0 PUSH1 0x40 MLOAD DUP1 DUP4 SUB DUP2 DUP7 GAS STATICCALL ISZERO DUP1 ISZERO PUSH2 0x416 JUMPI RETURNDATASIZE PUSH0 DUP1 RETURNDATACOPY RETURNDATASIZE PUSH0 REVERT JUMPDEST POP POP POP POP PUSH1 0x40 MLOAD RETURNDATASIZE PUSH1 0x1F NOT PUSH1 0x1F DUP3 ADD AND DUP3 ADD DUP1 PUSH1 0x40 MSTORE POP DUP2 ADD SWAP1 PUSH2 0x43A SWAP2 SWAP1 PUSH2 0x10B8 JUMP JUMPDEST DUP1 SWAP4 POP DUP2 SWAP5 POP DUP3 SWAP6 POP POP POP POP SWAP1 SWAP2 SWAP3 JUMP JUMPDEST PUSH1 0x1 PUSH1 0x4 PUSH0 ADD DUP2 SWAP1 SSTORE POP PUSH1 0x50 PUSH1 0x4 PUSH1 0x1 ADD DUP2 SWAP1 SSTORE POP JUMP JUMPDEST PUSH0 PUSH1 0x1 DUP3 PUSH2 0x470 SWAP2 SWAP1 PUSH2 0x1135 JUMP JUMPDEST SWAP1 POP SWAP2 SWAP1 POP JUMP JUMPDEST PUSH4 0x75BCD15 PUSH1 0x7 PUSH0 DUP6 PUSH20 0xFFFFFFFFFFFFFFFFFFFFFFFFFFFFFFFFFFFFFFFF AND PUSH20 0xFFFFFFFFFFFFFFFFFFFFFFFFFFFFFFFFFFFFFFFF AND DUP2 MSTORE PUSH1 0x20 ADD SWAP1 DUP2 MSTORE PUSH1 0x20 ADD PUSH0 KECCAK256 DUP2 SWAP1 SSTORE POP DUP1 PUSH1 0x7 PUSH0 DUP6 PUSH20 0xFFFFFFFFFFFFFFFFFFFFFFFFFFFFFFFFFFFFFFFF AND PUSH20 0xFFFFFFFFFFFFFFFFFFFFFFFFFFFFFFFFFFFFFFFF AND DUP2 MSTORE PUSH1 0x20 ADD SWAP1 DUP2 MSTORE PUSH1 0x20 ADD PUSH0 KECCAK256 PUSH0 DUP3 DUP3 SLOAD PUSH2 0x509 SWAP2 SWAP1 PUSH2 0x1168 JUMP JUMPDEST SWAP3 POP POP DUP2 SWAP1 SSTORE POP DUP1 PUSH1 0x7 PUSH0 DUP5 PUSH20 0xFFFFFFFFFFFFFFFFFFFFFFFFFFFFFFFFFFFFFFFF AND PUSH20 0xFFFFFFFFFFFFFFFFFFFFFFFFFFFFFFFFFFFFFFFF AND DUP2 MSTORE PUSH1 0x20 ADD SWAP1 DUP2 MSTORE PUSH1 0x20 ADD PUSH0 KECCAK256 PUSH0 DUP3 DUP3 SLOAD PUSH2 0x55C SWAP2 SWAP1 PUSH2 0x1135 JUMP JUMPDEST SWAP3 POP POP DUP2 SWAP1 SSTORE POP DUP2 PUSH20 0xFFFFFFFFFFFFFFFFFFFFFFFFFFFFFFFFFFFFFFFF AND DUP4 PUSH20 0xFFFFFFFFFFFFFFFFFFFFFFFFFFFFFFFFFFFFFFFF AND PUSH32 0xDDF252AD1BE2C89B69C2B068FC378DAA952BA7F163C4A11628F55A4DF523B3EF DUP4 PUSH1 0x40 MLOAD PUSH2 0x5C0 SWAP2 SWAP1 PUSH2 0xBEB JUMP JUMPDEST PUSH1 0x40 MLOAD DUP1 SWAP2 SUB SWAP1 LOG3 POP POP POP JUMP JUMPDEST PUSH0 DUP1 PUSH0 DUP1 PUSH0 DUP1 PUSH0 DUP1 PUSH1 0x5 PUSH8 0xFFFFFFFFFFFFFFFF DUP2 GT ISZERO PUSH2 0x5F0 JUMPI PUSH2 0x5EF PUSH2 0xD98 JUMP JUMPDEST JUMPDEST PUSH1 0x40 MLOAD SWAP1 DUP1 DUP3 MSTORE DUP1 PUSH1 0x20 MUL PUSH1 0x20 ADD DUP3 ADD PUSH1 0x40 MSTORE DUP1 ISZERO PUSH2 0x61E JUMPI DUP2 PUSH1 0x20 ADD PUSH1 0x20 DUP3 MUL DUP1 CALLDATASIZE DUP4 CALLDATACOPY DUP1 DUP3 ADD SWAP2 POP POP SWAP1 POP JUMPDEST POP SWAP1 POP PUSH0 PUSH1 0x9 PUSH8 0xFFFFFFFFFFFFFFFF DUP2 GT ISZERO PUSH2 0x63D JUMPI PUSH2 0x63C PUSH2 0xD98 JUMP JUMPDEST JUMPDEST PUSH1 0x40 MLOAD SWAP1 DUP1 DUP3 MSTORE DUP1 PUSH1 0x1F ADD PUSH1 0x1F NOT AND PUSH1 0x20 ADD DUP3 ADD PUSH1 0x40 MSTORE DUP1 ISZERO PUSH2 0x66F JUMPI DUP2 PUSH1 0x20 ADD PUSH1 0x1 DUP3 MUL DUP1 CALLDATASIZE DUP4 CALLDATACOPY DUP1 DUP3 ADD SWAP2 POP POP SWAP1 POP JUMPDEST POP SWAP1 POP PUSH1 0x1 DUP3 PUSH0 DUP2 MLOAD DUP2 LT PUSH2 0x687 JUMPI PUSH2 0x686 PUSH2 0x119B JUMP JUMPDEST JUMPDEST PUSH1 0x20 MUL PUSH1 0x20 ADD ADD DUP2 DUP2 MSTORE POP POP PUSH1 0x2 DUP3 PUSH1 0x1 DUP2 MLOAD DUP2 LT PUSH2 0x6A9 JUMPI PUSH2 0x6A8 PUSH2 0x119B JUMP JUMPDEST JUMPDEST PUSH1 0x20 MUL PUSH1 0x20 ADD ADD DUP2 DUP2 MSTORE POP POP POP POP POP POP POP POP POP POP POP JUMP JUMPDEST PUSH0 DUP1 PUSH2 0x6CA PUSH2 0xA57 JUMP JUMPDEST PUSH1 0x2 SWAP3 POP PUSH0 SWAP2 POP PUSH1 0x40 MLOAD DUP1 PUSH1 0x60 ADD PUSH1 0x40 MSTORE DUP1 PUSH1 0x3 DUP2 MSTORE PUSH1 0x20 ADD PUSH1 0x2 DUP2 MSTORE PUSH1 0x20 ADD PUSH1 0x1 DUP2 MSTORE POP SWAP1 POP SWAP1 SWAP2 SWAP3 JUMP JUMPDEST PUSH0 DUP1 PUSH1 0x60 PUSH0 CALLER SWAP1 POP PUSH0 NUMBER SWAP1 POP PUSH0 DUP1 CALLDATASIZE DUP1 DUP1 PUSH1 0x1F ADD PUSH1 0x20 DUP1 SWAP2 DIV MUL PUSH1 0x20 ADD PUSH1 0x40 MLOAD SWAP1 DUP2 ADD PUSH1 0x40 MSTORE DUP1 SWAP4 SWAP3 SWAP2 SWAP1 DUP2 DUP2 MSTORE PUSH1 0x20 ADD DUP4 DUP4 DUP1 DUP3 DUP5 CALLDATACOPY PUSH0 DUP2 DUP5 ADD MSTORE PUSH1 0x1F NOT PUSH1 0x1F DUP3 ADD AND SWAP1 POP DUP1 DUP4 ADD SWAP3 POP POP POP POP POP POP POP SWAP1 POP DUP3 DUP3 DUP3 SWAP6 POP SWAP6 POP SWAP6 POP POP POP POP SWAP1 SWAP2 SWAP3 JUMP JUMPDEST PUSH1 0x1 PUSH0 SLOAD PUSH2 0x768 SWAP2 SWAP1 PUSH2 0x1135 JUMP JUMPDEST PUSH0 DUP2 SWAP1 SSTORE POP JUMP JUMPDEST PUSH1 0x40 MLOAD DUP1 PUSH1 0x40 ADD PUSH1 0x40 MSTORE DUP1 PUSH1 0x3 DUP2 MSTORE PUSH1 0x20 ADD PUSH1 0x5A DUP2 MSTORE POP PUSH1 0x4 PUSH0 DUP3 ADD MLOAD DUP2 PUSH0 ADD SSTORE PUSH1 0x20 DUP3 ADD MLOAD DUP2 PUSH1 0x1 ADD SSTORE SWAP1 POP POP JUMP JUMPDEST PUSH0 PUSH1 0x1 SWAP1 POP PUSH1 0x64 DUP2 PUSH0 PUSH1 0x3 DUP2 LT PUSH2 0x7B9 JUMPI PUSH2 0x7B8 PUSH2 0x119B JUMP JUMPDEST JUMPDEST ADD DUP2 SWAP1 SSTORE POP POP JUMP JUMPDEST PUSH1 0x7 PUSH1 0x20 MSTORE DUP1 PUSH0 MSTORE PUSH1 0x40 PUSH0 KECCAK256 PUSH0 SWAP2 POP SWAP1 POP SLOAD DUP2 JUMP JUMPDEST PUSH2 0x7DE PUSH2 0xA42 JUMP JUMPDEST JUMP JUMPDEST PUSH1 0x40 MLOAD DUP1 PUSH1 0x40 ADD PUSH1 0x40 MSTORE DUP1 PUSH1 0x4 DUP2 MSTORE PUSH1 0x20 ADD PUSH1 0x3C DUP2 MSTORE POP PUSH1 0x4 PUSH0 DUP3 ADD MLOAD DUP2 PUSH0 ADD SSTORE PUSH1 0x20 DUP3 ADD MLOAD DUP2 PUSH1 0x1 ADD SSTORE SWAP1 POP POP JUMP JUMPDEST PUSH1 0x6 PUSH0 SWAP1 SLOAD SWAP1 PUSH2 0x100 EXP SWAP1 DIV PUSH20 0xFFFFFFFFFFFFFFFFFFFFFFFFFFFFFFFFFFFFFFFF AND PUSH20 0xFFFFFFFFFFFFFFFFFFFFFFFFFFFFFFFFFFFFFFFF AND CALLER PUSH20 0xFFFFFFFFFFFFFFFFFFFFFFFFFFFFFFFFFFFFFFFF AND EQ PUSH2 0x868 JUMPI PUSH0 DUP1 REVERT JUMPDEST DUP1 PUSH1 0x6 PUSH0 PUSH2 0x100 EXP DUP2 SLOAD DUP2 PUSH20 0xFFFFFFFFFFFFFFFFFFFFFFFFFFFFFFFFFFFFFFFF MUL NOT AND SWAP1 DUP4 PUSH20 0xFFFFFFFFFFFFFFFFFFFFFFFFFFFFFFFFFFFFFFFF AND MUL OR SWAP1 SSTORE POP POP JUMP JUMPDEST PUSH0 PUSH1 0x4 SWAP1 POP PUSH1 0xB DUP2 PUSH0 ADD DUP2 SWAP1 SSTORE POP PUSH1 0x64 DUP2 PUSH1 0x1 ADD DUP2 SWAP1 SSTORE POP POP JUMP JUMPDEST PUSH1 0x60 PUSH0 JUMPDEST PUSH1 0x1 DUP4 MLOAD PUSH2 0x8D8 SWAP2 SWAP1 PUSH2 0x1168 JUMP JUMPDEST DUP2 GT PUSH2 0x9E0 JUMPI PUSH0 PUSH1 0x1 DUP3 PUSH2 0x8EC SWAP2 SWAP1 PUSH2 0x1135 JUMP JUMPDEST SWAP1 POP JUMPDEST PUSH1 0x1 DUP5 MLOAD PUSH2 0x8FD SWAP2 SWAP1 PUSH2 0x1168 JUMP JUMPDEST DUP2 GT PUSH2 0x9CC JUMPI DUP4 DUP2 DUP2 MLOAD DUP2 LT PUSH2 0x916 JUMPI PUSH2 0x915 PUSH2 0x119B JUMP JUMPDEST JUMPDEST PUSH1 0x20 MUL PUSH1 0x20 ADD ADD MLOAD DUP5 DUP4 DUP2 MLOAD DUP2 LT PUSH2 0x931 JUMPI PUSH2 0x930 PUSH2 0x119B JUMP JUMPDEST JUMPDEST PUSH1 0x20 MUL PUSH1 0x20 ADD ADD MLOAD GT ISZERO PUSH2 0x9B9 JUMPI PUSH0 DUP5 DUP4 DUP2 MLOAD DUP2 LT PUSH2 0x953 JUMPI PUSH2 0x952 PUSH2 0x119B JUMP JUMPDEST JUMPDEST PUSH1 0x20 MUL PUSH1 0x20 ADD ADD MLOAD SWAP1 POP DUP5 DUP3 DUP2 MLOAD DUP2 LT PUSH2 0x970 JUMPI PUSH2 0x96F PUSH2 0x119B JUMP JUMPDEST JUMPDEST PUSH1 0x20 MUL PUSH1 0x20 ADD ADD MLOAD DUP6 DUP5 DUP2 MLOAD DUP2 LT PUSH2 0x98B JUMPI PUSH2 0x98A PUSH2 0x119B JUMP JUMPDEST JUMPDEST PUSH1 0x20 MUL PUSH1 0x20 ADD ADD DUP2 DUP2 MSTORE POP POP DUP1 DUP6 DUP4 DUP2 MLOAD DUP2 LT PUSH2 0x9AB JUMPI PUSH2 0x9AA PUSH2 0x119B JUMP JUMPDEST JUMPDEST PUSH1 0x20 MUL PUSH1 0x20 ADD ADD DUP2 DUP2 MSTORE POP POP POP JUMPDEST DUP1 DUP1 PUSH2 0x9C4 SWAP1 PUSH2 0x11C8 JUMP JUMPDEST SWAP2 POP POP PUSH2 0x8EF JUMP JUMPDEST POP DUP1 DUP1 PUSH2 0x9D8 SWAP1 PUSH2 0x11C8 JUMP JUMPDEST SWAP2 POP POP PUSH2 0x8CA JUMP JUMPDEST POP DUP2 SWAP1 POP SWAP2 SWAP1 POP JUMP JUMPDEST PUSH0 PUSH1 0x1 PUSH0 SLOAD PUSH2 0x9F8 SWAP2 SWAP1 PUSH2 0x1135 JUMP JUMPDEST SWAP1 POP SWAP1 JUMP JUMPDEST PUSH0 PUSH2 0xA06 PUSH2 0xA42 JUMP JUMPDEST SELFBALANCE SWAP1 POP SWAP1 JUMP JUMPDEST PUSH0 DUP1 PUSH2 0xA16 PUSH2 0xA57 JUMP JUMPDEST PUSH1 0x1 DUP1 PUSH1 0x40 MLOAD DUP1 PUSH1 0x60 ADD PUSH1 0x40 MSTORE DUP1 PUSH1 0x1 DUP2 MSTORE PUSH1 0x20 ADD PUSH1 0x2 DUP2 MSTORE PUSH1 0x20 ADD PUSH1 0x5 DUP2 MSTORE POP SWAP3 POP SWAP3 POP SWAP3 POP SWAP1 SWAP2 SWAP3 JUMP JUMPDEST PUSH1 0x1 PUSH0 SLOAD PUSH2 0xA50 SWAP2 SWAP1 PUSH2 0x1168 JUMP JUMPDEST PUSH0 DUP2 SWAP1 SSTORE POP JUMP JUMPDEST PUSH1 0x40 MLOAD DUP1 PUSH1 0x60 ADD PUSH1 0x40 MSTORE DUP1 PUSH1 0x3 SWAP1 PUSH1 0x20 DUP3 MUL DUP1 CALLDATASIZE DUP4 CALLDATACOPY DUP1 DUP3 ADD SWAP2 POP POP SWAP1 POP POP SWAP1 JUMP JUMPDEST PUSH0 DUP2 SWAP1 POP SWAP2 SWAP1 POP JUMP JUMPDEST PUSH2 0xA8B DUP2 PUSH2 0xA79 JUMP JUMPDEST DUP3 MSTORE POP POP JUMP JUMPDEST PUSH0 DUP2 ISZERO ISZERO SWAP1 POP SWAP2 SWAP1 POP JUMP JUMPDEST PUSH2 0xAA5 DUP2 PUSH2 0xA91 JUMP JUMPDEST DUP3 MSTORE POP POP JUMP JUMPDEST PUSH0 PUSH1 0x3 SWAP1 POP SWAP2 SWAP1 POP JUMP JUMPDEST PUSH0 DUP2 SWAP1 POP SWAP3 SWAP2 POP POP JUMP JUMPDEST PUSH0 DUP2 SWAP1 POP SWAP2 SWAP1 POP JUMP JUMPDEST PUSH2 0xAD1 DUP2 PUSH2 0xA79 JUMP JUMPDEST DUP3 MSTORE POP POP JUMP JUMPDEST PUSH0 PUSH2 0xAE2 DUP4 DUP4 PUSH2 0xAC8 JUMP JUMPDEST PUSH1 0x20 DUP4 ADD SWAP1 POP SWAP3 SWAP2 POP POP JUMP JUMPDEST PUSH0 PUSH1 0x20 DUP3 ADD SWAP1 POP SWAP2 SWAP1 POP JUMP JUMPDEST PUSH2 0xB03 DUP2 PUSH2 0xAAB JUMP JUMPDEST PUSH2 0xB0D DUP2 DUP5 PUSH2 0xAB5 JUMP JUMPDEST SWAP3 POP PUSH2 0xB18 DUP3 PUSH2 0xABF JUMP JUMPDEST DUP1 PUSH0 JUMPDEST DUP4 DUP2 LT ISZERO PUSH2 0xB48 JUMPI DUP2 MLOAD PUSH2 0xB2F DUP8 DUP3 PUSH2 0xAD7 JUMP JUMPDEST SWAP7 POP PUSH2 0xB3A DUP4 PUSH2 0xAEE JUMP JUMPDEST SWAP3 POP POP PUSH1 0x1 DUP2 ADD SWAP1 POP PUSH2 0xB1B JUMP JUMPDEST POP POP POP POP POP POP JUMP JUMPDEST PUSH0 PUSH1 0xA0 DUP3 ADD SWAP1 POP PUSH2 0xB63 PUSH0 DUP4 ADD DUP7 PUSH2 0xA82 JUMP JUMPDEST PUSH2 0xB70 PUSH1 0x20 DUP4 ADD DUP6 PUSH2 0xA9C JUMP JUMPDEST PUSH2 0xB7D PUSH1 0x40 DUP4 ADD DUP5 PUSH2 0xAFA JUMP JUMPDEST SWAP5 SWAP4 POP POP POP POP JUMP JUMPDEST PUSH0 PUSH1 0x40 MLOAD SWAP1 POP SWAP1 JUMP JUMPDEST PUSH0 DUP1 REVERT JUMPDEST PUSH0 DUP1 REVERT JUMPDEST PUSH2 0xB9F DUP2 PUSH2 0xA79 JUMP JUMPDEST DUP2 EQ PUSH2 0xBA9 JUMPI PUSH0 DUP1 REVERT JUMPDEST POP JUMP JUMPDEST PUSH0 DUP2 CALLDATALOAD SWAP1 POP PUSH2 0xBBA DUP2 PUSH2 0xB96 JUMP JUMPDEST SWAP3 SWAP2 POP POP JUMP JUMPDEST PUSH0 PUSH1 0x20 DUP3 DUP5 SUB SLT ISZERO PUSH2 0xBD5 JUMPI PUSH2 0xBD4 PUSH2 0xB8E JUMP JUMPDEST JUMPDEST PUSH0 PUSH2 0xBE2 DUP5 DUP3 DUP6 ADD PUSH2 0xBAC JUMP JUMPDEST SWAP2 POP POP SWAP3 SWAP2 POP POP JUMP JUMPDEST PUSH0 PUSH1 0x20 DUP3 ADD SWAP1 POP PUSH2 0xBFE PUSH0 DUP4 ADD DUP5 PUSH2 0xA82 JUMP JUMPDEST SWAP3 SWAP2 POP POP JUMP JUMPDEST PUSH0 PUSH20 0xFFFFFFFFFFFFFFFFFFFFFFFFFFFFFFFFFFFFFFFF DUP3 AND SWAP1 POP SWAP2 SWAP1 POP JUMP JUMPDEST PUSH0 PUSH2 0xC2D DUP3 PUSH2 0xC04 JUMP JUMPDEST SWAP1 POP SWAP2 SWAP1 POP JUMP JUMPDEST PUSH2 0xC3D DUP2 PUSH2 0xC23 JUMP JUMPDEST DUP2 EQ PUSH2 0xC47 JUMPI PUSH0 DUP1 REVERT JUMPDEST POP JUMP JUMPDEST PUSH0 DUP2 CALLDATALOAD SWAP1 POP PUSH2 0xC58 DUP2 PUSH2 0xC34 JUMP JUMPDEST SWAP3 SWAP2 POP POP JUMP JUMPDEST PUSH0 DUP1 PUSH0 PUSH1 0x60 DUP5 DUP7 SUB SLT ISZERO PUSH2 0xC75 JUMPI PUSH2 0xC74 PUSH2 0xB8E JUMP JUMPDEST JUMPDEST PUSH0 PUSH2 0xC82 DUP7 DUP3 DUP8 ADD PUSH2 0xC4A JUMP JUMPDEST SWAP4 POP POP PUSH1 0x20 PUSH2 0xC93 DUP7 DUP3 DUP8 ADD PUSH2 0xC4A JUMP JUMPDEST SWAP3 POP POP PUSH1 0x40 PUSH2 0xCA4 DUP7 DUP3 DUP8 ADD PUSH2 0xBAC JUMP JUMPDEST SWAP2 POP POP SWAP3 POP SWAP3 POP SWAP3 JUMP JUMPDEST PUSH2 0xCB7 DUP2 PUSH2 0xC23 JUMP JUMPDEST DUP3 MSTORE POP POP JUMP JUMPDEST PUSH0 DUP2 MLOAD SWAP1 POP SWAP2 SWAP1 POP JUMP JUMPDEST PUSH0 DUP3 DUP3 MSTORE PUSH1 0x20 DUP3 ADD SWAP1 POP SWAP3 SWAP2 POP POP JUMP JUMPDEST DUP3 DUP2 DUP4 MCOPY PUSH0 DUP4 DUP4 ADD MSTORE POP POP POP JUMP JUMPDEST PUSH0 PUSH1 0x1F NOT PUSH1 0x1F DUP4 ADD AND SWAP1 POP SWAP2 SWAP1 POP JUMP JUMPDEST PUSH0 PUSH2 0xCFF DUP3 PUSH2 0xCBD JUMP JUMPDEST PUSH2 0xD09 DUP2 DUP6 PUSH2 0xCC7 JUMP JUMPDEST SWAP4 POP PUSH2 0xD19 DUP2 DUP6 PUSH1 0x20 DUP7 ADD PUSH2 0xCD7 JUMP JUMPDEST PUSH2 0xD22 DUP2 PUSH2 0xCE5 JUMP JUMPDEST DUP5 ADD SWAP2 POP POP SWAP3 SWAP2 POP POP JUMP JUMPDEST PUSH0 PUSH1 0x60 DUP3 ADD SWAP1 POP PUSH2 0xD40 PUSH0 DUP4 ADD DUP7 PUSH2 0xCAE JUMP JUMPDEST PUSH2 0xD4D PUSH1 0x20 DUP4 ADD DUP6 PUSH2 0xA82 JUMP JUMPDEST DUP2 DUP2 SUB PUSH1 0x40 DUP4 ADD MSTORE PUSH2 0xD5F DUP2 DUP5 PUSH2 0xCF5 JUMP JUMPDEST SWAP1 POP SWAP5 SWAP4 POP POP POP POP JUMP JUMPDEST PUSH0 PUSH1 0x20 DUP3 DUP5 SUB SLT ISZERO PUSH2 0xD7E JUMPI PUSH2 0xD7D PUSH2 0xB8E JUMP JUMPDEST JUMPDEST PUSH0 PUSH2 0xD8B DUP5 DUP3 DUP6 ADD PUSH2 0xC4A JUMP JUMPDEST SWAP2 POP POP SWAP3 SWAP2 POP POP JUMP JUMPDEST PUSH0 DUP1 REVERT JUMPDEST PUSH32 0x4E487B7100000000000000000000000000000000000000000000000000000000 PUSH0 MSTORE PUSH1 0x41 PUSH1 0x4 MSTORE PUSH1 0x24 PUSH0 REVERT JUMPDEST PUSH2 0xDCE DUP3 PUSH2 0xCE5 JUMP JUMPDEST DUP2 ADD DUP2 DUP2 LT PUSH8 0xFFFFFFFFFFFFFFFF DUP3 GT OR ISZERO PUSH2 0xDED JUMPI PUSH2 0xDEC PUSH2 0xD98 JUMP JUMPDEST JUMPDEST DUP1 PUSH1 0x40 MSTORE POP POP POP JUMP JUMPDEST PUSH0 PUSH2 0xDFF PUSH2 0xB85 JUMP JUMPDEST SWAP1 POP PUSH2 0xE0B DUP3 DUP3 PUSH2 0xDC5 JUMP JUMPDEST SWAP2 SWAP1 POP JUMP JUMPDEST PUSH0 PUSH8 0xFFFFFFFFFFFFFFFF DUP3 GT ISZERO PUSH2 0xE2A JUMPI PUSH2 0xE29 PUSH2 0xD98 JUMP JUMPDEST JUMPDEST PUSH1 0x20 DUP3 MUL SWAP1 POP PUSH1 0x20 DUP2 ADD SWAP1 POP SWAP2 SWAP1 POP JUMP JUMPDEST PUSH0 DUP1 REVERT JUMPDEST PUSH0 PUSH2 0xE51 PUSH2 0xE4C DUP5 PUSH2 0xE10 JUMP JUMPDEST PUSH2 0xDF6 JUMP JUMPDEST SWAP1 POP DUP1 DUP4 DUP3 MSTORE PUSH1 0x20 DUP3 ADD SWAP1 POP PUSH1 0x20 DUP5 MUL DUP4 ADD DUP6 DUP2 GT ISZERO PUSH2 0xE74 JUMPI PUSH2 0xE73 PUSH2 0xE3B JUMP JUMPDEST JUMPDEST DUP4 JUMPDEST DUP2 DUP2 LT ISZERO PUSH2 0xE9D JUMPI DUP1 PUSH2 0xE89 DUP9 DUP3 PUSH2 0xBAC JUMP JUMPDEST DUP5 MSTORE PUSH1 0x20 DUP5 ADD SWAP4 POP POP PUSH1 0x20 DUP2 ADD SWAP1 POP PUSH2 0xE76 JUMP JUMPDEST POP POP POP SWAP4 SWAP3 POP POP POP JUMP JUMPDEST PUSH0 DUP3 PUSH1 0x1F DUP4 ADD SLT PUSH2 0xEBB JUMPI PUSH2 0xEBA PUSH2 0xD94 JUMP JUMPDEST JUMPDEST DUP2 CALLDATALOAD PUSH2 0xECB DUP5 DUP3 PUSH1 0x20 DUP7 ADD PUSH2 0xE3F JUMP JUMPDEST SWAP2 POP POP SWAP3 SWAP2 POP POP JUMP JUMPDEST PUSH0 PUSH1 0x20 DUP3 DUP5 SUB SLT ISZERO PUSH2 0xEE9 JUMPI PUSH2 0xEE8 PUSH2 0xB8E JUMP JUMPDEST JUMPDEST PUSH0 DUP3 ADD CALLDATALOAD PUSH8 0xFFFFFFFFFFFFFFFF DUP2 GT ISZERO PUSH2 0xF06 JUMPI PUSH2 0xF05 PUSH2 0xB92 JUMP JUMPDEST JUMPDEST PUSH2 0xF12 DUP5 DUP3 DUP6 ADD PUSH2 0xEA7 JUMP JUMPDEST SWAP2 POP POP SWAP3 SWAP2 POP POP JUMP JUMPDEST PUSH0 DUP2 MLOAD SWAP1 POP SWAP2 SWAP1 POP JUMP JUMPDEST PUSH0 DUP3 DUP3 MSTORE PUSH1 0x20 DUP3 ADD SWAP1 POP SWAP3 SWAP2 POP POP JUMP JUMPDEST PUSH0 DUP2 SWAP1 POP PUSH1 0x20 DUP3 ADD SWAP1 POP SWAP2 SWAP1 POP JUMP JUMPDEST PUSH0 PUSH1 0x20 DUP3 ADD SWAP1 POP SWAP2 SWAP1 POP JUMP JUMPDEST PUSH0 PUSH2 0xF5A DUP3 PUSH2 0xF1B JUMP JUMPDEST PUSH2 0xF64 DUP2 DUP6 PUSH2 0xF25 JUMP JUMPDEST SWAP4 POP PUSH2 0xF6F DUP4 PUSH2 0xF35 JUMP JUMPDEST DUP1 PUSH0 JUMPDEST DUP4 DUP2 LT ISZERO PUSH2 0xF9F JUMPI DUP2 MLOAD PUSH2 0xF86 DUP9 DUP3 PUSH2 0xAD7 JUMP JUMPDEST SWAP8 POP PUSH2 0xF91 DUP4 PUSH2 0xF44 JUMP JUMPDEST SWAP3 POP POP PUSH1 0x1 DUP2 ADD SWAP1 POP PUSH2 0xF72 JUMP JUMPDEST POP DUP6 SWAP4 POP POP POP POP SWAP3 SWAP2 POP POP JUMP JUMPDEST PUSH0 PUSH1 0x20 DUP3 ADD SWAP1 POP DUP2 DUP2 SUB PUSH0 DUP4 ADD MSTORE PUSH2 0xFC4 DUP2 DUP5 PUSH2 0xF50 JUMP JUMPDEST SWAP1 POP SWAP3 SWAP2 POP POP JUMP JUMPDEST PUSH0 DUP2 MLOAD SWAP1 POP PUSH2 0xFDA DUP2 PUSH2 0xB96 JUMP JUMPDEST SWAP3 SWAP2 POP POP JUMP JUMPDEST PUSH2 0xFE9 DUP2 PUSH2 0xA91 JUMP JUMPDEST DUP2 EQ PUSH2 0xFF3 JUMPI PUSH0 DUP1 REVERT JUMPDEST POP JUMP JUMPDEST PUSH0 DUP2 MLOAD SWAP1 POP PUSH2 0x1004 DUP2 PUSH2 0xFE0 JUMP JUMPDEST SWAP3 SWAP2 POP POP JUMP JUMPDEST PUSH0 PUSH8 0xFFFFFFFFFFFFFFFF DUP3 GT ISZERO PUSH2 0x1024 JUMPI PUSH2 0x1023 PUSH2 0xD98 JUMP JUMPDEST JUMPDEST PUSH1 0x20 DUP3 MUL SWAP1 POP SWAP2 SWAP1 POP JUMP JUMPDEST PUSH0 PUSH2 0x1041 PUSH2 0x103C DUP5 PUSH2 0x100A JUMP JUMPDEST PUSH2 0xDF6 JUMP JUMPDEST SWAP1 POP DUP1 PUSH1 0x20 DUP5 MUL DUP4 ADD DUP6 DUP2 GT ISZERO PUSH2 0x105B JUMPI PUSH2 0x105A PUSH2 0xE3B JUMP JUMPDEST JUMPDEST DUP4 JUMPDEST DUP2 DUP2 LT ISZERO PUSH2 0x1084 JUMPI DUP1 PUSH2 0x1070 DUP9 DUP3 PUSH2 0xFCC JUMP JUMPDEST DUP5 MSTORE PUSH1 0x20 DUP5 ADD SWAP4 POP POP PUSH1 0x20 DUP2 ADD SWAP1 POP PUSH2 0x105D JUMP JUMPDEST POP POP POP SWAP4 SWAP3 POP POP POP JUMP JUMPDEST PUSH0 DUP3 PUSH1 0x1F DUP4 ADD SLT PUSH2 0x10A2 JUMPI PUSH2 0x10A1 PUSH2 0xD94 JUMP JUMPDEST JUMPDEST PUSH1 0x3 PUSH2 0x10AF DUP5 DUP3 DUP6 PUSH2 0x102F JUMP JUMPDEST SWAP2 POP POP SWAP3 SWAP2 POP POP JUMP JUMPDEST PUSH0 DUP1 PUSH0 PUSH1 0xA0 DUP5 DUP7 SUB SLT ISZERO PUSH2 0x10CF JUMPI PUSH2 0x10CE PUSH2 0xB8E JUMP JUMPDEST JUMPDEST PUSH0 PUSH2 0x10DC DUP7 DUP3 DUP8 ADD PUSH2 0xFCC JUMP JUMPDEST SWAP4 POP POP PUSH1 0x20 PUSH2 0x10ED DUP7 DUP3 DUP8 ADD PUSH2 0xFF6 JUMP JUMPDEST SWAP3 POP POP PUSH1 0x40 PUSH2 0x10FE DUP7 DUP3 DUP8 ADD PUSH2 0x108E JUMP JUMPDEST SWAP2 POP POP SWAP3 POP SWAP3 POP SWAP3 JUMP JUMPDEST PUSH32 0x4E487B7100000000000000000000000000000000000000000000000000000000 PUSH0 MSTORE PUSH1 0x11 PUSH1 0x4 MSTORE PUSH1 0x24 PUSH0 REVERT JUMPDEST PUSH0 PUSH2 0x113F DUP3 PUSH2 0xA79 JUMP JUMPDEST SWAP2 POP PUSH2 0x114A DUP4 PUSH2 0xA79 JUMP JUMPDEST SWAP3 POP DUP3 DUP3 ADD SWAP1 POP DUP1 DUP3 GT ISZERO PUSH2 0x1162 JUMPI PUSH2 0x1161 PUSH2 0x1108 JUMP JUMPDEST JUMPDEST SWAP3 SWAP2 POP POP JUMP JUMPDEST PUSH0 PUSH2 0x1172 DUP3 PUSH2 0xA79 JUMP JUMPDEST SWAP2 POP PUSH2 0x117D DUP4 PUSH2 0xA79 JUMP JUMPDEST SWAP3 POP DUP3 DUP3 SUB SWAP1 POP DUP2 DUP2 GT ISZERO PUSH2 0x1195 JUMPI PUSH2 0x1194 PUSH2 0x1108 JUMP JUMPDEST JUMPDEST SWAP3 SWAP2 POP POP JUMP JUMPDEST PUSH32 0x4E487B7100000000000000000000000000000000000000000000000000000000 PUSH0 MSTORE PUSH1 0x32 PUSH1 0x4 MSTORE PUSH1 0x24 PUSH0 REVERT JUMPDEST PUSH0 PUSH2 0x11D2 DUP3 PUSH2 0xA79 JUMP JUMPDEST SWAP2 POP PUSH32 0xFFFFFFFFFFFFFFFFFFFFFFFFFFFFFFFFFFFFFFFFFFFFFFFFFFFFFFFFFFFFFFFF DUP3 SUB PUSH2 0x1204 JUMPI PUSH2 0x1203 PUSH2 0x1108 JUMP JUMPDEST JUMPDEST PUSH1 0x1 DUP3 ADD SWAP1 POP SWAP2 SWAP1 POP JUMP INVALID LOG2 PUSH5 0x6970667358 0x22 SLT KECCAK256 BYTE 0xAD PUSH30 0x533B140774D65852C1F06E334CF3A423DD60081C1BFB452F3B6049D04B64 PUSH20 0x6F6C634300081A00330000000000000000000000 "
				},
				"gasEstimates": {
					"creation": {
						"codeDepositCost": "935400",
						"executionCost": "infinite",
						"totalCost": "infinite"
					},
					"external": {
						"_balances(address)": "2847",
						"_transfer(address,address,uint256)": "infinite",
						"add()": "infinite",
						"addNoFee(uint256)": "infinite",
						"addWithView()": "infinite",
						"arrayType()": "infinite",
						"changeOwner(address)": "26995",
						"destructVariable()": "infinite",
						"fGlobal()": "infinite",
						"fstorage()": "22320",
						"initStudent1()": "44416",
						"initStudent2()": "44428",
						"initStudent3()": "44563",
						"initStudent4()": "44541",
						"insertSort(uint256[])": "infinite",
						"minusCall()": "infinite",
						"minusPayble()": "infinite",
						"returnMultiple()": "infinite",
						"returnNamed()": "infinite"
					},
					"internal": {
						"minus()": "infinite"
					}
				},
				"methodIdentifiers": {
					"_balances(address)": "6ebcf607",
					"_transfer(address,address,uint256)": "30e0789e",
					"add()": "4f2be91f",
					"addNoFee(uint256)": "209a519f",
					"addWithView()": "b308a0d4",
					"arrayType()": "351aab54",
					"changeOwner(address)": "a6f9dae1",
					"destructVariable()": "035cb56d",
					"fGlobal()": "461f4638",
					"fstorage()": "5e3be076",
					"initStudent1()": "a8b63e6f",
					"initStudent2()": "1a8d7dc3",
					"initStudent3()": "5a4236b1",
					"initStudent4()": "9ebb8d20",
					"insertSort(uint256[])": "b23d97f2",
					"minusCall()": "80b4ea08",
					"minusPayble()": "d2ea40c7",
					"returnMultiple()": "e61e4008",
					"returnNamed()": "3dece511"
				}
			},
			"storageLayout": {
				"storage": [
					{
						"astId": 4,
						"contract": "contracts/divingIntoChain.sol:testFunction",
						"label": "thisUint",
						"offset": 0,
						"slot": "0",
						"type": "t_uint256"
					},
					{
						"astId": 166,
						"contract": "contracts/divingIntoChain.sol:testFunction",
						"label": "x",
						"offset": 0,
						"slot": "1",
						"type": "t_array(t_uint256)3_storage"
					},
					{
						"astId": 302,
						"contract": "contracts/divingIntoChain.sol:testFunction",
						"label": "student",
						"offset": 0,
						"slot": "4",
						"type": "t_struct(Student)299_storage"
					},
					{
						"astId": 438,
						"contract": "contracts/divingIntoChain.sol:testFunction",
						"label": "owner",
						"offset": 0,
						"slot": "6",
						"type": "t_address"
					},
					{
						"astId": 474,
						"contract": "contracts/divingIntoChain.sol:testFunction",
						"label": "_balances",
						"offset": 0,
						"slot": "7",
						"type": "t_mapping(t_address,t_uint256)"
					}
				],
				"types": {
					"t_address": {
						"encoding": "inplace",
						"label": "address",
						"numberOfBytes": "20"
					},
					"t_array(t_uint256)3_storage": {
						"base": "t_uint256",
						"encoding": "inplace",
						"label": "uint256[3]",
						"numberOfBytes": "96"
					},
					"t_mapping(t_address,t_uint256)": {
						"encoding": "mapping",
						"key": "t_address",
						"label": "mapping(address => uint256)",
						"numberOfBytes": "32",
						"value": "t_uint256"
					},
					"t_struct(Student)299_storage": {
						"encoding": "inplace",
						"label": "struct testFunction.Student",
						"members": [
							{
								"astId": 296,
								"contract": "contracts/divingIntoChain.sol:testFunction",
								"label": "id",
								"offset": 0,
								"slot": "0",
								"type": "t_uint256"
							},
							{
								"astId": 298,
								"contract": "contracts/divingIntoChain.sol:testFunction",
								"label": "score",
								"offset": 0,
								"slot": "1",
								"type": "t_uint256"
							}
						],
						"numberOfBytes": "64"
					},
					"t_uint256": {
						"encoding": "inplace",
						"label": "uint256",
						"numberOfBytes": "32"
					}
				}
			},
			"userdoc": {
				"events": {
					"Transfer(address,address,uint256)": {
						"notice": "declare event as we can see, the event of Transfer has 3 variable, from/to and value.  'indexed' represent it will be save in EVM  topics of log for index.*"
					}
				},
				"kind": "user",
				"methods": {
					"add()": {
						"notice": "read and write on contract*"
					},
					"addNoFee(uint256)": {
						"notice": "Pure cannot read or write,*"
					},
					"addWithView()": {
						"notice": "view can read, but cannot write the variability on contract*"
					},
					"arrayType()": {
						"notice": "reference Type array 1. fixed length 2. dynamic array*"
					},
					"destructVariable()": {
						"notice": "Destructuring Assignment in this case, we use destracturing assignment to destract the variable all variable will be included by '()' each variable will be separate by ','*"
					},
					"fGlobal()": {
						"notice": "scope in variable there are 3 scope in contract 1. state: saved in chain, state will be declare inside the contract but outside the function. high gas fee such as the thisUint  2. local:  saved inside the function, used in the progress of function. low gas fee. 3. global:  preserved keyword by solidity, can be used withour declaration. *"
					},
					"insertSort(uint256[])": {
						"notice": "insert sort  test [2,5,3,1]*"
					},
					"minusCall()": {
						"notice": "external visited by inside or outside on contract *"
					},
					"minusPayble()": {
						"notice": "payable give money(eth) , special function that can pay money with eth*"
					},
					"returnMultiple()": {
						"notice": "return and returns return would be used in the inside of function return would be used in the declare of function to dedicate the return of variable  BTW, we use uint256[3] to declare the quote variability and must be dec with memory. because of the [1,2,3] will be transfer to uint8, we need uint256(1) to transfer the array to uint256 *"
					},
					"returnNamed()": {
						"notice": "named return in this case, we declare the returns variability in advanced,  so we donnot need declare return inside of the function, all we need to do is give the value to the variability. but you sill can use the return in this case if you want.*"
					}
				},
				"version": 1
			}
		}
	}
}