{
	"contracts/divingIntoChain.sol": {
		"testError": {
			"abi": [
				{
					"inputs": [],
					"name": "TransferNotOwner",
					"type": "error"
				},
				{
					"inputs": [
						{
							"internalType": "uint256",
							"name": "tokenId",
							"type": "uint256"
						},
						{
							"internalType": "address",
							"name": "newOwner",
							"type": "address"
						}
					],
					"name": "transferOwner1",
					"outputs": [],
					"stateMutability": "nonpayable",
					"type": "function"
				},
				{
					"inputs": [
						{
							"internalType": "uint256",
							"name": "tokenId",
							"type": "uint256"
						},
						{
							"internalType": "address",
							"name": "newOwner",
							"type": "address"
						}
					],
					"name": "transferOwner2",
					"outputs": [],
					"stateMutability": "nonpayable",
					"type": "function"
				},
				{
					"inputs": [
						{
							"internalType": "uint256",
							"name": "tokenId",
							"type": "uint256"
						},
						{
							"internalType": "address",
							"name": "newOwner",
							"type": "address"
						}
					],
					"name": "transferOwner3",
					"outputs": [],
					"stateMutability": "nonpayable",
					"type": "function"
				}
			],
			"devdoc": {
				"kind": "dev",
				"methods": {},
				"version": 1
			},
			"evm": {
				"assembly": "    /* \"contracts/divingIntoChain.sol\":17986:19031  contract testError{... */\n  mstore(0x40, 0x80)\n  callvalue\n  dup1\n  iszero\n  tag_1\n  jumpi\n  0x00\n  dup1\n  revert\ntag_1:\n  pop\n  dataSize(sub_0)\n  dup1\n  dataOffset(sub_0)\n  0x00\n  codecopy\n  0x00\n  return\nstop\n\nsub_0: assembly {\n        /* \"contracts/divingIntoChain.sol\":17986:19031  contract testError{... */\n      mstore(0x40, 0x80)\n      callvalue\n      dup1\n      iszero\n      tag_1\n      jumpi\n      0x00\n      dup1\n      revert\n    tag_1:\n      pop\n      jumpi(tag_2, lt(calldatasize, 0x04))\n      shr(0xe0, calldataload(0x00))\n      dup1\n      0x0f4be868\n      eq\n      tag_3\n      jumpi\n      dup1\n      0x488d9f60\n      eq\n      tag_4\n      jumpi\n      dup1\n      0x83f5e67e\n      eq\n      tag_5\n      jumpi\n    tag_2:\n      0x00\n      dup1\n      revert\n        /* \"contracts/divingIntoChain.sol\":18109:18482  function transferOwner1(uint256 tokenId, address newOwner) public {... */\n    tag_3:\n      tag_6\n      0x04\n      dup1\n      calldatasize\n      sub\n      dup2\n      add\n      swap1\n      tag_7\n      swap2\n      swap1\n      tag_8\n      jump\t// in\n    tag_7:\n      tag_9\n      jump\t// in\n    tag_6:\n      stop\n        /* \"contracts/divingIntoChain.sol\":18873:19029  function transferOwner3(uint256 tokenId, address newOwner) public {... */\n    tag_4:\n      tag_10\n      0x04\n      dup1\n      calldatasize\n      sub\n      dup2\n      add\n      swap1\n      tag_11\n      swap2\n      swap1\n      tag_8\n      jump\t// in\n    tag_11:\n      tag_12\n      jump\t// in\n    tag_10:\n      stop\n        /* \"contracts/divingIntoChain.sol\":18521:18843  function transferOwner2(uint256 tokenId, address newOwner) public {... */\n    tag_5:\n      tag_13\n      0x04\n      dup1\n      calldatasize\n      sub\n      dup2\n      add\n      swap1\n      tag_14\n      swap2\n      swap1\n      tag_8\n      jump\t// in\n    tag_14:\n      tag_15\n      jump\t// in\n    tag_13:\n      stop\n        /* \"contracts/divingIntoChain.sol\":18109:18482  function transferOwner1(uint256 tokenId, address newOwner) public {... */\n    tag_9:\n        /* \"contracts/divingIntoChain.sol\":18185:18205  bytes32  randomBytes */\n      0x00\n        /* \"contracts/divingIntoChain.sol\":18235:18250  block.timestamp */\n      timestamp\n        /* \"contracts/divingIntoChain.sol\":18218:18251  abi.encodePacked(block.timestamp) */\n      add(0x20, mload(0x40))\n      tag_17\n      swap2\n      swap1\n      tag_18\n      jump\t// in\n    tag_17:\n      mload(0x40)\n      0x20\n      dup2\n      dup4\n      sub\n      sub\n      dup2\n      mstore\n      swap1\n      0x40\n      mstore\n        /* \"contracts/divingIntoChain.sol\":18208:18252  keccak256(abi.encodePacked(block.timestamp)) */\n      dup1\n      mload\n      swap1\n      0x20\n      add\n      keccak256\n        /* \"contracts/divingIntoChain.sol\":18185:18252  bytes32  randomBytes = keccak256(abi.encodePacked(block.timestamp)) */\n      swap1\n      pop\n        /* \"contracts/divingIntoChain.sol\":18301:18312  randomBytes */\n      dup1\n        /* \"contracts/divingIntoChain.sol\":18293:18313  uint256(randomBytes) */\n      0x00\n      shr\n        /* \"contracts/divingIntoChain.sol\":18262:18268  _owner */\n      0x00\n        /* \"contracts/divingIntoChain.sol\":18262:18273  _owner[256] */\n      dup1\n        /* \"contracts/divingIntoChain.sol\":18269:18272  256 */\n      0x0100\n        /* \"contracts/divingIntoChain.sol\":18262:18273  _owner[256] */\n      dup2\n      mstore\n      0x20\n      add\n      swap1\n      dup2\n      mstore\n      0x20\n      add\n      0x00\n      keccak256\n      0x00\n        /* \"contracts/divingIntoChain.sol\":18262:18315  _owner[256] =  address(uint160(uint256(randomBytes))) */\n      0x0100\n      exp\n      dup2\n      sload\n      dup2\n      0xffffffffffffffffffffffffffffffffffffffff\n      mul\n      not\n      and\n      swap1\n      dup4\n      0xffffffffffffffffffffffffffffffffffffffff\n      and\n      mul\n      or\n      swap1\n      sstore\n      pop\n        /* \"contracts/divingIntoChain.sol\":18347:18357  msg.sender */\n      caller\n        /* \"contracts/divingIntoChain.sol\":18328:18357  _owner[tokenId] != msg.sender */\n      0xffffffffffffffffffffffffffffffffffffffff\n      and\n        /* \"contracts/divingIntoChain.sol\":18328:18334  _owner */\n      0x00\n        /* \"contracts/divingIntoChain.sol\":18328:18343  _owner[tokenId] */\n      dup1\n        /* \"contracts/divingIntoChain.sol\":18335:18342  tokenId */\n      dup6\n        /* \"contracts/divingIntoChain.sol\":18328:18343  _owner[tokenId] */\n      dup2\n      mstore\n      0x20\n      add\n      swap1\n      dup2\n      mstore\n      0x20\n      add\n      0x00\n      keccak256\n      0x00\n      swap1\n      sload\n      swap1\n      0x0100\n      exp\n      swap1\n      div\n      0xffffffffffffffffffffffffffffffffffffffff\n      and\n        /* \"contracts/divingIntoChain.sol\":18328:18357  _owner[tokenId] != msg.sender */\n      0xffffffffffffffffffffffffffffffffffffffff\n      and\n      eq\n        /* \"contracts/divingIntoChain.sol\":18325:18440  if(_owner[tokenId] != msg.sender){... */\n      tag_19\n      jumpi\n        /* \"contracts/divingIntoChain.sol\":18379:18397  TransferNotOwner() */\n      mload(0x40)\n      0x3fc2482600000000000000000000000000000000000000000000000000000000\n      dup2\n      mstore\n      0x04\n      add\n      mload(0x40)\n      dup1\n      swap2\n      sub\n      swap1\n      revert\n        /* \"contracts/divingIntoChain.sol\":18325:18440  if(_owner[tokenId] != msg.sender){... */\n    tag_19:\n        /* \"contracts/divingIntoChain.sol\":18467:18475  newOwner */\n      dup2\n        /* \"contracts/divingIntoChain.sol\":18449:18455  _owner */\n      0x00\n        /* \"contracts/divingIntoChain.sol\":18449:18464  _owner[tokenId] */\n      dup1\n        /* \"contracts/divingIntoChain.sol\":18456:18463  tokenId */\n      dup6\n        /* \"contracts/divingIntoChain.sol\":18449:18464  _owner[tokenId] */\n      dup2\n      mstore\n      0x20\n      add\n      swap1\n      dup2\n      mstore\n      0x20\n      add\n      0x00\n      keccak256\n      0x00\n        /* \"contracts/divingIntoChain.sol\":18449:18475  _owner[tokenId] = newOwner */\n      0x0100\n      exp\n      dup2\n      sload\n      dup2\n      0xffffffffffffffffffffffffffffffffffffffff\n      mul\n      not\n      and\n      swap1\n      dup4\n      0xffffffffffffffffffffffffffffffffffffffff\n      and\n      mul\n      or\n      swap1\n      sstore\n      pop\n        /* \"contracts/divingIntoChain.sol\":18175:18482  {... */\n      pop\n        /* \"contracts/divingIntoChain.sol\":18109:18482  function transferOwner1(uint256 tokenId, address newOwner) public {... */\n      pop\n      pop\n      jump\t// out\n        /* \"contracts/divingIntoChain.sol\":18873:19029  function transferOwner3(uint256 tokenId, address newOwner) public {... */\n    tag_12:\n        /* \"contracts/divingIntoChain.sol\":18975:18985  msg.sender */\n      caller\n        /* \"contracts/divingIntoChain.sol\":18956:18985  _owner[tokenId] == msg.sender */\n      0xffffffffffffffffffffffffffffffffffffffff\n      and\n        /* \"contracts/divingIntoChain.sol\":18956:18962  _owner */\n      0x00\n        /* \"contracts/divingIntoChain.sol\":18956:18971  _owner[tokenId] */\n      dup1\n        /* \"contracts/divingIntoChain.sol\":18963:18970  tokenId */\n      dup5\n        /* \"contracts/divingIntoChain.sol\":18956:18971  _owner[tokenId] */\n      dup2\n      mstore\n      0x20\n      add\n      swap1\n      dup2\n      mstore\n      0x20\n      add\n      0x00\n      keccak256\n      0x00\n      swap1\n      sload\n      swap1\n      0x0100\n      exp\n      swap1\n      div\n      0xffffffffffffffffffffffffffffffffffffffff\n      and\n        /* \"contracts/divingIntoChain.sol\":18956:18985  _owner[tokenId] == msg.sender */\n      0xffffffffffffffffffffffffffffffffffffffff\n      and\n      eq\n        /* \"contracts/divingIntoChain.sol\":18949:18986  assert(_owner[tokenId] == msg.sender) */\n      tag_21\n      jumpi\n      tag_22\n      tag_23\n      jump\t// in\n    tag_22:\n    tag_21:\n        /* \"contracts/divingIntoChain.sol\":19014:19022  newOwner */\n      dup1\n        /* \"contracts/divingIntoChain.sol\":18996:19002  _owner */\n      0x00\n        /* \"contracts/divingIntoChain.sol\":18996:19011  _owner[tokenId] */\n      dup1\n        /* \"contracts/divingIntoChain.sol\":19003:19010  tokenId */\n      dup5\n        /* \"contracts/divingIntoChain.sol\":18996:19011  _owner[tokenId] */\n      dup2\n      mstore\n      0x20\n      add\n      swap1\n      dup2\n      mstore\n      0x20\n      add\n      0x00\n      keccak256\n      0x00\n        /* \"contracts/divingIntoChain.sol\":18996:19022  _owner[tokenId] = newOwner */\n      0x0100\n      exp\n      dup2\n      sload\n      dup2\n      0xffffffffffffffffffffffffffffffffffffffff\n      mul\n      not\n      and\n      swap1\n      dup4\n      0xffffffffffffffffffffffffffffffffffffffff\n      and\n      mul\n      or\n      swap1\n      sstore\n      pop\n        /* \"contracts/divingIntoChain.sol\":18873:19029  function transferOwner3(uint256 tokenId, address newOwner) public {... */\n      pop\n      pop\n      jump\t// out\n        /* \"contracts/divingIntoChain.sol\":18521:18843  function transferOwner2(uint256 tokenId, address newOwner) public {... */\n    tag_15:\n        /* \"contracts/divingIntoChain.sol\":18597:18617  bytes32  randomBytes */\n      0x00\n        /* \"contracts/divingIntoChain.sol\":18647:18662  block.timestamp */\n      timestamp\n        /* \"contracts/divingIntoChain.sol\":18630:18663  abi.encodePacked(block.timestamp) */\n      add(0x20, mload(0x40))\n      tag_25\n      swap2\n      swap1\n      tag_18\n      jump\t// in\n    tag_25:\n      mload(0x40)\n      0x20\n      dup2\n      dup4\n      sub\n      sub\n      dup2\n      mstore\n      swap1\n      0x40\n      mstore\n        /* \"contracts/divingIntoChain.sol\":18620:18664  keccak256(abi.encodePacked(block.timestamp)) */\n      dup1\n      mload\n      swap1\n      0x20\n      add\n      keccak256\n        /* \"contracts/divingIntoChain.sol\":18597:18664  bytes32  randomBytes = keccak256(abi.encodePacked(block.timestamp)) */\n      swap1\n      pop\n        /* \"contracts/divingIntoChain.sol\":18713:18724  randomBytes */\n      dup1\n        /* \"contracts/divingIntoChain.sol\":18705:18725  uint256(randomBytes) */\n      0x00\n      shr\n        /* \"contracts/divingIntoChain.sol\":18674:18680  _owner */\n      0x00\n        /* \"contracts/divingIntoChain.sol\":18674:18685  _owner[256] */\n      dup1\n        /* \"contracts/divingIntoChain.sol\":18681:18684  256 */\n      0x0100\n        /* \"contracts/divingIntoChain.sol\":18674:18685  _owner[256] */\n      dup2\n      mstore\n      0x20\n      add\n      swap1\n      dup2\n      mstore\n      0x20\n      add\n      0x00\n      keccak256\n      0x00\n        /* \"contracts/divingIntoChain.sol\":18674:18727  _owner[256] =  address(uint160(uint256(randomBytes))) */\n      0x0100\n      exp\n      dup2\n      sload\n      dup2\n      0xffffffffffffffffffffffffffffffffffffffff\n      mul\n      not\n      and\n      swap1\n      dup4\n      0xffffffffffffffffffffffffffffffffffffffff\n      and\n      mul\n      or\n      swap1\n      sstore\n      pop\n        /* \"contracts/divingIntoChain.sol\":18764:18774  msg.sender */\n      caller\n        /* \"contracts/divingIntoChain.sol\":18745:18774  _owner[tokenId] == msg.sender */\n      0xffffffffffffffffffffffffffffffffffffffff\n      and\n        /* \"contracts/divingIntoChain.sol\":18745:18751  _owner */\n      0x00\n        /* \"contracts/divingIntoChain.sol\":18745:18760  _owner[tokenId] */\n      dup1\n        /* \"contracts/divingIntoChain.sol\":18752:18759  tokenId */\n      dup6\n        /* \"contracts/divingIntoChain.sol\":18745:18760  _owner[tokenId] */\n      dup2\n      mstore\n      0x20\n      add\n      swap1\n      dup2\n      mstore\n      0x20\n      add\n      0x00\n      keccak256\n      0x00\n      swap1\n      sload\n      swap1\n      0x0100\n      exp\n      swap1\n      div\n      0xffffffffffffffffffffffffffffffffffffffff\n      and\n        /* \"contracts/divingIntoChain.sol\":18745:18774  _owner[tokenId] == msg.sender */\n      0xffffffffffffffffffffffffffffffffffffffff\n      and\n      eq\n        /* \"contracts/divingIntoChain.sol\":18737:18800  require(_owner[tokenId] == msg.sender, \"Transaction Not Owner\") */\n      tag_26\n      jumpi\n      mload(0x40)\n      0x08c379a000000000000000000000000000000000000000000000000000000000\n      dup2\n      mstore\n      0x04\n      add\n      tag_27\n      swap1\n      tag_28\n      jump\t// in\n    tag_27:\n      mload(0x40)\n      dup1\n      swap2\n      sub\n      swap1\n      revert\n    tag_26:\n        /* \"contracts/divingIntoChain.sol\":18828:18836  newOwner */\n      dup2\n        /* \"contracts/divingIntoChain.sol\":18810:18816  _owner */\n      0x00\n        /* \"contracts/divingIntoChain.sol\":18810:18825  _owner[tokenId] */\n      dup1\n        /* \"contracts/divingIntoChain.sol\":18817:18824  tokenId */\n      dup6\n        /* \"contracts/divingIntoChain.sol\":18810:18825  _owner[tokenId] */\n      dup2\n      mstore\n      0x20\n      add\n      swap1\n      dup2\n      mstore\n      0x20\n      add\n      0x00\n      keccak256\n      0x00\n        /* \"contracts/divingIntoChain.sol\":18810:18836  _owner[tokenId] = newOwner */\n      0x0100\n      exp\n      dup2\n      sload\n      dup2\n      0xffffffffffffffffffffffffffffffffffffffff\n      mul\n      not\n      and\n      swap1\n      dup4\n      0xffffffffffffffffffffffffffffffffffffffff\n      and\n      mul\n      or\n      swap1\n      sstore\n      pop\n        /* \"contracts/divingIntoChain.sol\":18587:18843  {... */\n      pop\n        /* \"contracts/divingIntoChain.sol\":18521:18843  function transferOwner2(uint256 tokenId, address newOwner) public {... */\n      pop\n      pop\n      jump\t// out\n        /* \"#utility.yul\":88:205   */\n    tag_30:\n        /* \"#utility.yul\":197:198   */\n      0x00\n        /* \"#utility.yul\":194:195   */\n      dup1\n        /* \"#utility.yul\":187:199   */\n      revert\n        /* \"#utility.yul\":334:411   */\n    tag_32:\n        /* \"#utility.yul\":371:378   */\n      0x00\n        /* \"#utility.yul\":400:405   */\n      dup2\n        /* \"#utility.yul\":389:405   */\n      swap1\n      pop\n        /* \"#utility.yul\":334:411   */\n      swap2\n      swap1\n      pop\n      jump\t// out\n        /* \"#utility.yul\":417:539   */\n    tag_33:\n        /* \"#utility.yul\":490:514   */\n      tag_50\n        /* \"#utility.yul\":508:513   */\n      dup2\n        /* \"#utility.yul\":490:514   */\n      tag_32\n      jump\t// in\n    tag_50:\n        /* \"#utility.yul\":483:488   */\n      dup2\n        /* \"#utility.yul\":480:515   */\n      eq\n        /* \"#utility.yul\":470:533   */\n      tag_51\n      jumpi\n        /* \"#utility.yul\":529:530   */\n      0x00\n        /* \"#utility.yul\":526:527   */\n      dup1\n        /* \"#utility.yul\":519:531   */\n      revert\n        /* \"#utility.yul\":470:533   */\n    tag_51:\n        /* \"#utility.yul\":417:539   */\n      pop\n      jump\t// out\n        /* \"#utility.yul\":545:684   */\n    tag_34:\n        /* \"#utility.yul\":591:596   */\n      0x00\n        /* \"#utility.yul\":629:635   */\n      dup2\n        /* \"#utility.yul\":616:636   */\n      calldataload\n        /* \"#utility.yul\":607:636   */\n      swap1\n      pop\n        /* \"#utility.yul\":645:678   */\n      tag_53\n        /* \"#utility.yul\":672:677   */\n      dup2\n        /* \"#utility.yul\":645:678   */\n      tag_33\n      jump\t// in\n    tag_53:\n        /* \"#utility.yul\":545:684   */\n      swap3\n      swap2\n      pop\n      pop\n      jump\t// out\n        /* \"#utility.yul\":690:816   */\n    tag_35:\n        /* \"#utility.yul\":727:734   */\n      0x00\n        /* \"#utility.yul\":767:809   */\n      0xffffffffffffffffffffffffffffffffffffffff\n        /* \"#utility.yul\":760:765   */\n      dup3\n        /* \"#utility.yul\":756:810   */\n      and\n        /* \"#utility.yul\":745:810   */\n      swap1\n      pop\n        /* \"#utility.yul\":690:816   */\n      swap2\n      swap1\n      pop\n      jump\t// out\n        /* \"#utility.yul\":822:918   */\n    tag_36:\n        /* \"#utility.yul\":859:866   */\n      0x00\n        /* \"#utility.yul\":888:912   */\n      tag_56\n        /* \"#utility.yul\":906:911   */\n      dup3\n        /* \"#utility.yul\":888:912   */\n      tag_35\n      jump\t// in\n    tag_56:\n        /* \"#utility.yul\":877:912   */\n      swap1\n      pop\n        /* \"#utility.yul\":822:918   */\n      swap2\n      swap1\n      pop\n      jump\t// out\n        /* \"#utility.yul\":924:1046   */\n    tag_37:\n        /* \"#utility.yul\":997:1021   */\n      tag_58\n        /* \"#utility.yul\":1015:1020   */\n      dup2\n        /* \"#utility.yul\":997:1021   */\n      tag_36\n      jump\t// in\n    tag_58:\n        /* \"#utility.yul\":990:995   */\n      dup2\n        /* \"#utility.yul\":987:1022   */\n      eq\n        /* \"#utility.yul\":977:1040   */\n      tag_59\n      jumpi\n        /* \"#utility.yul\":1036:1037   */\n      0x00\n        /* \"#utility.yul\":1033:1034   */\n      dup1\n        /* \"#utility.yul\":1026:1038   */\n      revert\n        /* \"#utility.yul\":977:1040   */\n    tag_59:\n        /* \"#utility.yul\":924:1046   */\n      pop\n      jump\t// out\n        /* \"#utility.yul\":1052:1191   */\n    tag_38:\n        /* \"#utility.yul\":1098:1103   */\n      0x00\n        /* \"#utility.yul\":1136:1142   */\n      dup2\n        /* \"#utility.yul\":1123:1143   */\n      calldataload\n        /* \"#utility.yul\":1114:1143   */\n      swap1\n      pop\n        /* \"#utility.yul\":1152:1185   */\n      tag_61\n        /* \"#utility.yul\":1179:1184   */\n      dup2\n        /* \"#utility.yul\":1152:1185   */\n      tag_37\n      jump\t// in\n    tag_61:\n        /* \"#utility.yul\":1052:1191   */\n      swap3\n      swap2\n      pop\n      pop\n      jump\t// out\n        /* \"#utility.yul\":1197:1671   */\n    tag_8:\n        /* \"#utility.yul\":1265:1271   */\n      0x00\n        /* \"#utility.yul\":1273:1279   */\n      dup1\n        /* \"#utility.yul\":1322:1324   */\n      0x40\n        /* \"#utility.yul\":1310:1319   */\n      dup4\n        /* \"#utility.yul\":1301:1308   */\n      dup6\n        /* \"#utility.yul\":1297:1320   */\n      sub\n        /* \"#utility.yul\":1293:1325   */\n      slt\n        /* \"#utility.yul\":1290:1409   */\n      iszero\n      tag_63\n      jumpi\n        /* \"#utility.yul\":1328:1407   */\n      tag_64\n      tag_30\n      jump\t// in\n    tag_64:\n        /* \"#utility.yul\":1290:1409   */\n    tag_63:\n        /* \"#utility.yul\":1448:1449   */\n      0x00\n        /* \"#utility.yul\":1473:1526   */\n      tag_65\n        /* \"#utility.yul\":1518:1525   */\n      dup6\n        /* \"#utility.yul\":1509:1515   */\n      dup3\n        /* \"#utility.yul\":1498:1507   */\n      dup7\n        /* \"#utility.yul\":1494:1516   */\n      add\n        /* \"#utility.yul\":1473:1526   */\n      tag_34\n      jump\t// in\n    tag_65:\n        /* \"#utility.yul\":1463:1526   */\n      swap3\n      pop\n        /* \"#utility.yul\":1419:1536   */\n      pop\n        /* \"#utility.yul\":1575:1577   */\n      0x20\n        /* \"#utility.yul\":1601:1654   */\n      tag_66\n        /* \"#utility.yul\":1646:1653   */\n      dup6\n        /* \"#utility.yul\":1637:1643   */\n      dup3\n        /* \"#utility.yul\":1626:1635   */\n      dup7\n        /* \"#utility.yul\":1622:1644   */\n      add\n        /* \"#utility.yul\":1601:1654   */\n      tag_38\n      jump\t// in\n    tag_66:\n        /* \"#utility.yul\":1591:1654   */\n      swap2\n      pop\n        /* \"#utility.yul\":1546:1664   */\n      pop\n        /* \"#utility.yul\":1197:1671   */\n      swap3\n      pop\n      swap3\n      swap1\n      pop\n      jump\t// out\n        /* \"#utility.yul\":1677:1756   */\n    tag_39:\n        /* \"#utility.yul\":1716:1723   */\n      0x00\n        /* \"#utility.yul\":1745:1750   */\n      dup2\n        /* \"#utility.yul\":1734:1750   */\n      swap1\n      pop\n        /* \"#utility.yul\":1677:1756   */\n      swap2\n      swap1\n      pop\n      jump\t// out\n        /* \"#utility.yul\":1762:1919   */\n    tag_40:\n        /* \"#utility.yul\":1867:1912   */\n      tag_69\n        /* \"#utility.yul\":1887:1911   */\n      tag_70\n        /* \"#utility.yul\":1905:1910   */\n      dup3\n        /* \"#utility.yul\":1887:1911   */\n      tag_32\n      jump\t// in\n    tag_70:\n        /* \"#utility.yul\":1867:1912   */\n      tag_39\n      jump\t// in\n    tag_69:\n        /* \"#utility.yul\":1862:1865   */\n      dup3\n        /* \"#utility.yul\":1855:1913   */\n      mstore\n        /* \"#utility.yul\":1762:1919   */\n      pop\n      pop\n      jump\t// out\n        /* \"#utility.yul\":1925:2181   */\n    tag_18:\n        /* \"#utility.yul\":2037:2040   */\n      0x00\n        /* \"#utility.yul\":2052:2127   */\n      tag_72\n        /* \"#utility.yul\":2123:2126   */\n      dup3\n        /* \"#utility.yul\":2114:2120   */\n      dup5\n        /* \"#utility.yul\":2052:2127   */\n      tag_40\n      jump\t// in\n    tag_72:\n        /* \"#utility.yul\":2152:2154   */\n      0x20\n        /* \"#utility.yul\":2147:2150   */\n      dup3\n        /* \"#utility.yul\":2143:2155   */\n      add\n        /* \"#utility.yul\":2136:2155   */\n      swap2\n      pop\n        /* \"#utility.yul\":2172:2175   */\n      dup2\n        /* \"#utility.yul\":2165:2175   */\n      swap1\n      pop\n        /* \"#utility.yul\":1925:2181   */\n      swap3\n      swap2\n      pop\n      pop\n      jump\t// out\n        /* \"#utility.yul\":2187:2367   */\n    tag_23:\n        /* \"#utility.yul\":2235:2312   */\n      0x4e487b7100000000000000000000000000000000000000000000000000000000\n        /* \"#utility.yul\":2232:2233   */\n      0x00\n        /* \"#utility.yul\":2225:2313   */\n      mstore\n        /* \"#utility.yul\":2332:2336   */\n      0x01\n        /* \"#utility.yul\":2329:2330   */\n      0x04\n        /* \"#utility.yul\":2322:2337   */\n      mstore\n        /* \"#utility.yul\":2356:2360   */\n      0x24\n        /* \"#utility.yul\":2353:2354   */\n      0x00\n        /* \"#utility.yul\":2346:2361   */\n      revert\n        /* \"#utility.yul\":2373:2542   */\n    tag_41:\n        /* \"#utility.yul\":2457:2468   */\n      0x00\n        /* \"#utility.yul\":2491:2497   */\n      dup3\n        /* \"#utility.yul\":2486:2489   */\n      dup3\n        /* \"#utility.yul\":2479:2498   */\n      mstore\n        /* \"#utility.yul\":2531:2535   */\n      0x20\n        /* \"#utility.yul\":2526:2529   */\n      dup3\n        /* \"#utility.yul\":2522:2536   */\n      add\n        /* \"#utility.yul\":2507:2536   */\n      swap1\n      pop\n        /* \"#utility.yul\":2373:2542   */\n      swap3\n      swap2\n      pop\n      pop\n      jump\t// out\n        /* \"#utility.yul\":2548:2719   */\n    tag_42:\n        /* \"#utility.yul\":2688:2711   */\n      0x5472616e73616374696f6e204e6f74204f776e65720000000000000000000000\n        /* \"#utility.yul\":2684:2685   */\n      0x00\n        /* \"#utility.yul\":2676:2682   */\n      dup3\n        /* \"#utility.yul\":2672:2686   */\n      add\n        /* \"#utility.yul\":2665:2712   */\n      mstore\n        /* \"#utility.yul\":2548:2719   */\n      pop\n      jump\t// out\n        /* \"#utility.yul\":2725:3091   */\n    tag_43:\n        /* \"#utility.yul\":2867:2870   */\n      0x00\n        /* \"#utility.yul\":2888:2955   */\n      tag_77\n        /* \"#utility.yul\":2952:2954   */\n      0x15\n        /* \"#utility.yul\":2947:2950   */\n      dup4\n        /* \"#utility.yul\":2888:2955   */\n      tag_41\n      jump\t// in\n    tag_77:\n        /* \"#utility.yul\":2881:2955   */\n      swap2\n      pop\n        /* \"#utility.yul\":2964:3057   */\n      tag_78\n        /* \"#utility.yul\":3053:3056   */\n      dup3\n        /* \"#utility.yul\":2964:3057   */\n      tag_42\n      jump\t// in\n    tag_78:\n        /* \"#utility.yul\":3082:3084   */\n      0x20\n        /* \"#utility.yul\":3077:3080   */\n      dup3\n        /* \"#utility.yul\":3073:3085   */\n      add\n        /* \"#utility.yul\":3066:3085   */\n      swap1\n      pop\n        /* \"#utility.yul\":2725:3091   */\n      swap2\n      swap1\n      pop\n      jump\t// out\n        /* \"#utility.yul\":3097:3516   */\n    tag_28:\n        /* \"#utility.yul\":3263:3267   */\n      0x00\n        /* \"#utility.yul\":3301:3303   */\n      0x20\n        /* \"#utility.yul\":3290:3299   */\n      dup3\n        /* \"#utility.yul\":3286:3304   */\n      add\n        /* \"#utility.yul\":3278:3304   */\n      swap1\n      pop\n        /* \"#utility.yul\":3350:3359   */\n      dup2\n        /* \"#utility.yul\":3344:3348   */\n      dup2\n        /* \"#utility.yul\":3340:3360   */\n      sub\n        /* \"#utility.yul\":3336:3337   */\n      0x00\n        /* \"#utility.yul\":3325:3334   */\n      dup4\n        /* \"#utility.yul\":3321:3338   */\n      add\n        /* \"#utility.yul\":3314:3361   */\n      mstore\n        /* \"#utility.yul\":3378:3509   */\n      tag_80\n        /* \"#utility.yul\":3504:3508   */\n      dup2\n        /* \"#utility.yul\":3378:3509   */\n      tag_43\n      jump\t// in\n    tag_80:\n        /* \"#utility.yul\":3370:3509   */\n      swap1\n      pop\n        /* \"#utility.yul\":3097:3516   */\n      swap2\n      swap1\n      pop\n      jump\t// out\n\n    auxdata: 0xa26469706673582212204bee9abf10e1101cc52b5a7b43ebd2319a2d4cedb1f1cf35d97479ad6b91648364736f6c634300081a0033\n}\n",
				"bytecode": {
					"linkReferences": {},
					"object": "6080604052348015600e575f80fd5b506106078061001c5f395ff3fe608060405234801561000f575f80fd5b506004361061003f575f3560e01c80630f4be86814610043578063488d9f601461005f57806383f5e67e1461007b575b5f80fd5b61005d600480360381019061005891906104b4565b610097565b005b610079600480360381019061007491906104b4565b6101fa565b005b610095600480360381019061009091906104b4565b6102b7565b005b5f426040516020016100a99190610512565b604051602081830303815290604052805190602001209050805f1c5f8061010081526020019081526020015f205f6101000a81548173ffffffffffffffffffffffffffffffffffffffff021916908373ffffffffffffffffffffffffffffffffffffffff1602179055503373ffffffffffffffffffffffffffffffffffffffff165f808581526020019081526020015f205f9054906101000a900473ffffffffffffffffffffffffffffffffffffffff1673ffffffffffffffffffffffffffffffffffffffff16146101a7576040517f3fc2482600000000000000000000000000000000000000000000000000000000815260040160405180910390fd5b815f808581526020019081526020015f205f6101000a81548173ffffffffffffffffffffffffffffffffffffffff021916908373ffffffffffffffffffffffffffffffffffffffff160217905550505050565b3373ffffffffffffffffffffffffffffffffffffffff165f808481526020019081526020015f205f9054906101000a900473ffffffffffffffffffffffffffffffffffffffff1673ffffffffffffffffffffffffffffffffffffffff16146102655761026461052c565b5b805f808481526020019081526020015f205f6101000a81548173ffffffffffffffffffffffffffffffffffffffff021916908373ffffffffffffffffffffffffffffffffffffffff1602179055505050565b5f426040516020016102c99190610512565b604051602081830303815290604052805190602001209050805f1c5f8061010081526020019081526020015f205f6101000a81548173ffffffffffffffffffffffffffffffffffffffff021916908373ffffffffffffffffffffffffffffffffffffffff1602179055503373ffffffffffffffffffffffffffffffffffffffff165f808581526020019081526020015f205f9054906101000a900473ffffffffffffffffffffffffffffffffffffffff1673ffffffffffffffffffffffffffffffffffffffff16146103d0576040517f08c379a00000000000000000000000000000000000000000000000000000000081526004016103c7906105b3565b60405180910390fd5b815f808581526020019081526020015f205f6101000a81548173ffffffffffffffffffffffffffffffffffffffff021916908373ffffffffffffffffffffffffffffffffffffffff160217905550505050565b5f80fd5b5f819050919050565b61043981610427565b8114610443575f80fd5b50565b5f8135905061045481610430565b92915050565b5f73ffffffffffffffffffffffffffffffffffffffff82169050919050565b5f6104838261045a565b9050919050565b61049381610479565b811461049d575f80fd5b50565b5f813590506104ae8161048a565b92915050565b5f80604083850312156104ca576104c9610423565b5b5f6104d785828601610446565b92505060206104e8858286016104a0565b9150509250929050565b5f819050919050565b61050c61050782610427565b6104f2565b82525050565b5f61051d82846104fb565b60208201915081905092915050565b7f4e487b71000000000000000000000000000000000000000000000000000000005f52600160045260245ffd5b5f82825260208201905092915050565b7f5472616e73616374696f6e204e6f74204f776e657200000000000000000000005f82015250565b5f61059d601583610559565b91506105a882610569565b602082019050919050565b5f6020820190508181035f8301526105ca81610591565b905091905056fea26469706673582212204bee9abf10e1101cc52b5a7b43ebd2319a2d4cedb1f1cf35d97479ad6b91648364736f6c634300081a0033",
					"opcodes": "PUSH1 0x80 PUSH1 0x40 MSTORE CALLVALUE DUP1 ISZERO PUSH1 0xE JUMPI PUSH0 DUP1 REVERT JUMPDEST POP PUSH2 0x607 DUP1 PUSH2 0x1C PUSH0 CODECOPY PUSH0 RETURN INVALID PUSH1 0x80 PUSH1 0x40 MSTORE CALLVALUE DUP1 ISZERO PUSH2 0xF JUMPI PUSH0 DUP1 REVERT JUMPDEST POP PUSH1 0x4 CALLDATASIZE LT PUSH2 0x3F JUMPI PUSH0 CALLDATALOAD PUSH1 0xE0 SHR DUP1 PUSH4 0xF4BE868 EQ PUSH2 0x43 JUMPI DUP1 PUSH4 0x488D9F60 EQ PUSH2 0x5F JUMPI DUP1 PUSH4 0x83F5E67E EQ PUSH2 0x7B JUMPI JUMPDEST PUSH0 DUP1 REVERT JUMPDEST PUSH2 0x5D PUSH1 0x4 DUP1 CALLDATASIZE SUB DUP2 ADD SWAP1 PUSH2 0x58 SWAP2 SWAP1 PUSH2 0x4B4 JUMP JUMPDEST PUSH2 0x97 JUMP JUMPDEST STOP JUMPDEST PUSH2 0x79 PUSH1 0x4 DUP1 CALLDATASIZE SUB DUP2 ADD SWAP1 PUSH2 0x74 SWAP2 SWAP1 PUSH2 0x4B4 JUMP JUMPDEST PUSH2 0x1FA JUMP JUMPDEST STOP JUMPDEST PUSH2 0x95 PUSH1 0x4 DUP1 CALLDATASIZE SUB DUP2 ADD SWAP1 PUSH2 0x90 SWAP2 SWAP1 PUSH2 0x4B4 JUMP JUMPDEST PUSH2 0x2B7 JUMP JUMPDEST STOP JUMPDEST PUSH0 TIMESTAMP PUSH1 0x40 MLOAD PUSH1 0x20 ADD PUSH2 0xA9 SWAP2 SWAP1 PUSH2 0x512 JUMP JUMPDEST PUSH1 0x40 MLOAD PUSH1 0x20 DUP2 DUP4 SUB SUB DUP2 MSTORE SWAP1 PUSH1 0x40 MSTORE DUP1 MLOAD SWAP1 PUSH1 0x20 ADD KECCAK256 SWAP1 POP DUP1 PUSH0 SHR PUSH0 DUP1 PUSH2 0x100 DUP2 MSTORE PUSH1 0x20 ADD SWAP1 DUP2 MSTORE PUSH1 0x20 ADD PUSH0 KECCAK256 PUSH0 PUSH2 0x100 EXP DUP2 SLOAD DUP2 PUSH20 0xFFFFFFFFFFFFFFFFFFFFFFFFFFFFFFFFFFFFFFFF MUL NOT AND SWAP1 DUP4 PUSH20 0xFFFFFFFFFFFFFFFFFFFFFFFFFFFFFFFFFFFFFFFF AND MUL OR SWAP1 SSTORE POP CALLER PUSH20 0xFFFFFFFFFFFFFFFFFFFFFFFFFFFFFFFFFFFFFFFF AND PUSH0 DUP1 DUP6 DUP2 MSTORE PUSH1 0x20 ADD SWAP1 DUP2 MSTORE PUSH1 0x20 ADD PUSH0 KECCAK256 PUSH0 SWAP1 SLOAD SWAP1 PUSH2 0x100 EXP SWAP1 DIV PUSH20 0xFFFFFFFFFFFFFFFFFFFFFFFFFFFFFFFFFFFFFFFF AND PUSH20 0xFFFFFFFFFFFFFFFFFFFFFFFFFFFFFFFFFFFFFFFF AND EQ PUSH2 0x1A7 JUMPI PUSH1 0x40 MLOAD PUSH32 0x3FC2482600000000000000000000000000000000000000000000000000000000 DUP2 MSTORE PUSH1 0x4 ADD PUSH1 0x40 MLOAD DUP1 SWAP2 SUB SWAP1 REVERT JUMPDEST DUP2 PUSH0 DUP1 DUP6 DUP2 MSTORE PUSH1 0x20 ADD SWAP1 DUP2 MSTORE PUSH1 0x20 ADD PUSH0 KECCAK256 PUSH0 PUSH2 0x100 EXP DUP2 SLOAD DUP2 PUSH20 0xFFFFFFFFFFFFFFFFFFFFFFFFFFFFFFFFFFFFFFFF MUL NOT AND SWAP1 DUP4 PUSH20 0xFFFFFFFFFFFFFFFFFFFFFFFFFFFFFFFFFFFFFFFF AND MUL OR SWAP1 SSTORE POP POP POP POP JUMP JUMPDEST CALLER PUSH20 0xFFFFFFFFFFFFFFFFFFFFFFFFFFFFFFFFFFFFFFFF AND PUSH0 DUP1 DUP5 DUP2 MSTORE PUSH1 0x20 ADD SWAP1 DUP2 MSTORE PUSH1 0x20 ADD PUSH0 KECCAK256 PUSH0 SWAP1 SLOAD SWAP1 PUSH2 0x100 EXP SWAP1 DIV PUSH20 0xFFFFFFFFFFFFFFFFFFFFFFFFFFFFFFFFFFFFFFFF AND PUSH20 0xFFFFFFFFFFFFFFFFFFFFFFFFFFFFFFFFFFFFFFFF AND EQ PUSH2 0x265 JUMPI PUSH2 0x264 PUSH2 0x52C JUMP JUMPDEST JUMPDEST DUP1 PUSH0 DUP1 DUP5 DUP2 MSTORE PUSH1 0x20 ADD SWAP1 DUP2 MSTORE PUSH1 0x20 ADD PUSH0 KECCAK256 PUSH0 PUSH2 0x100 EXP DUP2 SLOAD DUP2 PUSH20 0xFFFFFFFFFFFFFFFFFFFFFFFFFFFFFFFFFFFFFFFF MUL NOT AND SWAP1 DUP4 PUSH20 0xFFFFFFFFFFFFFFFFFFFFFFFFFFFFFFFFFFFFFFFF AND MUL OR SWAP1 SSTORE POP POP POP JUMP JUMPDEST PUSH0 TIMESTAMP PUSH1 0x40 MLOAD PUSH1 0x20 ADD PUSH2 0x2C9 SWAP2 SWAP1 PUSH2 0x512 JUMP JUMPDEST PUSH1 0x40 MLOAD PUSH1 0x20 DUP2 DUP4 SUB SUB DUP2 MSTORE SWAP1 PUSH1 0x40 MSTORE DUP1 MLOAD SWAP1 PUSH1 0x20 ADD KECCAK256 SWAP1 POP DUP1 PUSH0 SHR PUSH0 DUP1 PUSH2 0x100 DUP2 MSTORE PUSH1 0x20 ADD SWAP1 DUP2 MSTORE PUSH1 0x20 ADD PUSH0 KECCAK256 PUSH0 PUSH2 0x100 EXP DUP2 SLOAD DUP2 PUSH20 0xFFFFFFFFFFFFFFFFFFFFFFFFFFFFFFFFFFFFFFFF MUL NOT AND SWAP1 DUP4 PUSH20 0xFFFFFFFFFFFFFFFFFFFFFFFFFFFFFFFFFFFFFFFF AND MUL OR SWAP1 SSTORE POP CALLER PUSH20 0xFFFFFFFFFFFFFFFFFFFFFFFFFFFFFFFFFFFFFFFF AND PUSH0 DUP1 DUP6 DUP2 MSTORE PUSH1 0x20 ADD SWAP1 DUP2 MSTORE PUSH1 0x20 ADD PUSH0 KECCAK256 PUSH0 SWAP1 SLOAD SWAP1 PUSH2 0x100 EXP SWAP1 DIV PUSH20 0xFFFFFFFFFFFFFFFFFFFFFFFFFFFFFFFFFFFFFFFF AND PUSH20 0xFFFFFFFFFFFFFFFFFFFFFFFFFFFFFFFFFFFFFFFF AND EQ PUSH2 0x3D0 JUMPI PUSH1 0x40 MLOAD PUSH32 0x8C379A000000000000000000000000000000000000000000000000000000000 DUP2 MSTORE PUSH1 0x4 ADD PUSH2 0x3C7 SWAP1 PUSH2 0x5B3 JUMP JUMPDEST PUSH1 0x40 MLOAD DUP1 SWAP2 SUB SWAP1 REVERT JUMPDEST DUP2 PUSH0 DUP1 DUP6 DUP2 MSTORE PUSH1 0x20 ADD SWAP1 DUP2 MSTORE PUSH1 0x20 ADD PUSH0 KECCAK256 PUSH0 PUSH2 0x100 EXP DUP2 SLOAD DUP2 PUSH20 0xFFFFFFFFFFFFFFFFFFFFFFFFFFFFFFFFFFFFFFFF MUL NOT AND SWAP1 DUP4 PUSH20 0xFFFFFFFFFFFFFFFFFFFFFFFFFFFFFFFFFFFFFFFF AND MUL OR SWAP1 SSTORE POP POP POP POP JUMP JUMPDEST PUSH0 DUP1 REVERT JUMPDEST PUSH0 DUP2 SWAP1 POP SWAP2 SWAP1 POP JUMP JUMPDEST PUSH2 0x439 DUP2 PUSH2 0x427 JUMP JUMPDEST DUP2 EQ PUSH2 0x443 JUMPI PUSH0 DUP1 REVERT JUMPDEST POP JUMP JUMPDEST PUSH0 DUP2 CALLDATALOAD SWAP1 POP PUSH2 0x454 DUP2 PUSH2 0x430 JUMP JUMPDEST SWAP3 SWAP2 POP POP JUMP JUMPDEST PUSH0 PUSH20 0xFFFFFFFFFFFFFFFFFFFFFFFFFFFFFFFFFFFFFFFF DUP3 AND SWAP1 POP SWAP2 SWAP1 POP JUMP JUMPDEST PUSH0 PUSH2 0x483 DUP3 PUSH2 0x45A JUMP JUMPDEST SWAP1 POP SWAP2 SWAP1 POP JUMP JUMPDEST PUSH2 0x493 DUP2 PUSH2 0x479 JUMP JUMPDEST DUP2 EQ PUSH2 0x49D JUMPI PUSH0 DUP1 REVERT JUMPDEST POP JUMP JUMPDEST PUSH0 DUP2 CALLDATALOAD SWAP1 POP PUSH2 0x4AE DUP2 PUSH2 0x48A JUMP JUMPDEST SWAP3 SWAP2 POP POP JUMP JUMPDEST PUSH0 DUP1 PUSH1 0x40 DUP4 DUP6 SUB SLT ISZERO PUSH2 0x4CA JUMPI PUSH2 0x4C9 PUSH2 0x423 JUMP JUMPDEST JUMPDEST PUSH0 PUSH2 0x4D7 DUP6 DUP3 DUP7 ADD PUSH2 0x446 JUMP JUMPDEST SWAP3 POP POP PUSH1 0x20 PUSH2 0x4E8 DUP6 DUP3 DUP7 ADD PUSH2 0x4A0 JUMP JUMPDEST SWAP2 POP POP SWAP3 POP SWAP3 SWAP1 POP JUMP JUMPDEST PUSH0 DUP2 SWAP1 POP SWAP2 SWAP1 POP JUMP JUMPDEST PUSH2 0x50C PUSH2 0x507 DUP3 PUSH2 0x427 JUMP JUMPDEST PUSH2 0x4F2 JUMP JUMPDEST DUP3 MSTORE POP POP JUMP JUMPDEST PUSH0 PUSH2 0x51D DUP3 DUP5 PUSH2 0x4FB JUMP JUMPDEST PUSH1 0x20 DUP3 ADD SWAP2 POP DUP2 SWAP1 POP SWAP3 SWAP2 POP POP JUMP JUMPDEST PUSH32 0x4E487B7100000000000000000000000000000000000000000000000000000000 PUSH0 MSTORE PUSH1 0x1 PUSH1 0x4 MSTORE PUSH1 0x24 PUSH0 REVERT JUMPDEST PUSH0 DUP3 DUP3 MSTORE PUSH1 0x20 DUP3 ADD SWAP1 POP SWAP3 SWAP2 POP POP JUMP JUMPDEST PUSH32 0x5472616E73616374696F6E204E6F74204F776E65720000000000000000000000 PUSH0 DUP3 ADD MSTORE POP JUMP JUMPDEST PUSH0 PUSH2 0x59D PUSH1 0x15 DUP4 PUSH2 0x559 JUMP JUMPDEST SWAP2 POP PUSH2 0x5A8 DUP3 PUSH2 0x569 JUMP JUMPDEST PUSH1 0x20 DUP3 ADD SWAP1 POP SWAP2 SWAP1 POP JUMP JUMPDEST PUSH0 PUSH1 0x20 DUP3 ADD SWAP1 POP DUP2 DUP2 SUB PUSH0 DUP4 ADD MSTORE PUSH2 0x5CA DUP2 PUSH2 0x591 JUMP JUMPDEST SWAP1 POP SWAP2 SWAP1 POP JUMP INVALID LOG2 PUSH5 0x6970667358 0x22 SLT KECCAK256 0x4B 0xEE SWAP11 0xBF LT 0xE1 LT SHR 0xC5 0x2B GAS PUSH28 0x43EBD2319A2D4CEDB1F1CF35D97479AD6B91648364736F6C63430008 BYTE STOP CALLER "
				},
				"gasEstimates": {
					"creation": {
						"codeDepositCost": "308600",
						"executionCost": "347",
						"totalCost": "308947"
					},
					"external": {
						"transferOwner1(uint256,address)": "infinite",
						"transferOwner2(uint256,address)": "infinite",
						"transferOwner3(uint256,address)": "27207"
					}
				},
				"methodIdentifiers": {
					"transferOwner1(uint256,address)": "0f4be868",
					"transferOwner2(uint256,address)": "83f5e67e",
					"transferOwner3(uint256,address)": "488d9f60"
				}
			},
			"storageLayout": {
				"storage": [
					{
						"astId": 807,
						"contract": "contracts/divingIntoChain.sol:testError",
						"label": "_owner",
						"offset": 0,
						"slot": "0",
						"type": "t_mapping(t_uint256,t_address)"
					}
				],
				"types": {
					"t_address": {
						"encoding": "inplace",
						"label": "address",
						"numberOfBytes": "20"
					},
					"t_mapping(t_uint256,t_address)": {
						"encoding": "mapping",
						"key": "t_uint256",
						"label": "mapping(uint256 => address)",
						"numberOfBytes": "32",
						"value": "t_address"
					},
					"t_uint256": {
						"encoding": "inplace",
						"label": "uint256",
						"numberOfBytes": "32"
					}
				}
			},
			"userdoc": {
				"kind": "user",
				"methods": {},
				"notice": "exception 1. Error // less gas fee than others 2. require(bool,message) 3. Assert(bool)*",
				"version": 1
			}
		}
	}
}