{
	"contracts/divingIntoChain.sol": {
		"son": {
			"abi": [
				{
					"anonymous": false,
					"inputs": [
						{
							"indexed": false,
							"internalType": "string",
							"name": "myMessage",
							"type": "string"
						}
					],
					"name": "Log",
					"type": "event"
				},
				{
					"inputs": [],
					"name": "say",
					"outputs": [],
					"stateMutability": "nonpayable",
					"type": "function"
				},
				{
					"inputs": [],
					"name": "speak",
					"outputs": [],
					"stateMutability": "nonpayable",
					"type": "function"
				},
				{
					"inputs": [],
					"name": "talk",
					"outputs": [],
					"stateMutability": "nonpayable",
					"type": "function"
				}
			],
			"devdoc": {
				"kind": "dev",
				"methods": {},
				"version": 1
			},
			"evm": {
				"assembly": "    /* \"contracts/divingIntoChain.sol\":13915:14168  contract son is grantfather,grantmother{... */\n  mstore(0x40, 0x80)\n  callvalue\n  dup1\n  iszero\n  tag_1\n  jumpi\n  0x00\n  dup1\n  revert\ntag_1:\n  pop\n  dataSize(sub_0)\n  dup1\n  dataOffset(sub_0)\n  0x00\n  codecopy\n  0x00\n  return\nstop\n\nsub_0: assembly {\n        /* \"contracts/divingIntoChain.sol\":13915:14168  contract son is grantfather,grantmother{... */\n      mstore(0x40, 0x80)\n      callvalue\n      dup1\n      iszero\n      tag_1\n      jumpi\n      0x00\n      dup1\n      revert\n    tag_1:\n      pop\n      jumpi(tag_2, lt(calldatasize, 0x04))\n      shr(0xe0, calldataload(0x00))\n      dup1\n      0x50d85315\n      eq\n      tag_3\n      jumpi\n      dup1\n      0x954ab4b2\n      eq\n      tag_4\n      jumpi\n      dup1\n      0xa9731769\n      eq\n      tag_5\n      jumpi\n    tag_2:\n      0x00\n      dup1\n      revert\n        /* \"contracts/divingIntoChain.sol\":12817:12902  function speak() public virtual {... */\n    tag_3:\n      tag_6\n      tag_7\n      jump\t// in\n    tag_6:\n      stop\n        /* \"contracts/divingIntoChain.sol\":14051:14161  function say() public virtual override(grantfather,grantmother){... */\n    tag_4:\n      tag_8\n      tag_9\n      jump\t// in\n    tag_8:\n      stop\n        /* \"contracts/divingIntoChain.sol\":12911:12996  function talk() public  virtual {... */\n    tag_5:\n      tag_10\n      tag_11\n      jump\t// in\n    tag_10:\n      stop\n        /* \"contracts/divingIntoChain.sol\":12817:12902  function speak() public virtual {... */\n    tag_7:\n        /* \"contracts/divingIntoChain.sol\":12868:12891  Log(\"i am grantfather\") */\n      0xcf34ef537ac33ee1ac626ca1587a0a7e8e51561e5514f8cb36afa1c5102b3bab\n      mload(0x40)\n      tag_13\n      swap1\n      tag_14\n      jump\t// in\n    tag_13:\n      mload(0x40)\n      dup1\n      swap2\n      sub\n      swap1\n      log1\n        /* \"contracts/divingIntoChain.sol\":12817:12902  function speak() public virtual {... */\n      jump\t// out\n        /* \"contracts/divingIntoChain.sol\":14051:14161  function say() public virtual override(grantfather,grantmother){... */\n    tag_9:\n        /* \"contracts/divingIntoChain.sol\":14133:14150  Log('i am a son') */\n      0xcf34ef537ac33ee1ac626ca1587a0a7e8e51561e5514f8cb36afa1c5102b3bab\n      mload(0x40)\n      tag_16\n      swap1\n      tag_17\n      jump\t// in\n    tag_16:\n      mload(0x40)\n      dup1\n      swap2\n      sub\n      swap1\n      log1\n        /* \"contracts/divingIntoChain.sol\":14051:14161  function say() public virtual override(grantfather,grantmother){... */\n      jump\t// out\n        /* \"contracts/divingIntoChain.sol\":12911:12996  function talk() public  virtual {... */\n    tag_11:\n        /* \"contracts/divingIntoChain.sol\":12962:12985  Log(\"i am grantfather\") */\n      0xcf34ef537ac33ee1ac626ca1587a0a7e8e51561e5514f8cb36afa1c5102b3bab\n      mload(0x40)\n      tag_19\n      swap1\n      tag_14\n      jump\t// in\n    tag_19:\n      mload(0x40)\n      dup1\n      swap2\n      sub\n      swap1\n      log1\n        /* \"contracts/divingIntoChain.sol\":12911:12996  function talk() public  virtual {... */\n      jump\t// out\n        /* \"#utility.yul\":7:176   */\n    tag_20:\n        /* \"#utility.yul\":91:102   */\n      0x00\n        /* \"#utility.yul\":125:131   */\n      dup3\n        /* \"#utility.yul\":120:123   */\n      dup3\n        /* \"#utility.yul\":113:132   */\n      mstore\n        /* \"#utility.yul\":165:169   */\n      0x20\n        /* \"#utility.yul\":160:163   */\n      dup3\n        /* \"#utility.yul\":156:170   */\n      add\n        /* \"#utility.yul\":141:170   */\n      swap1\n      pop\n        /* \"#utility.yul\":7:176   */\n      swap3\n      swap2\n      pop\n      pop\n      jump\t// out\n        /* \"#utility.yul\":182:348   */\n    tag_21:\n        /* \"#utility.yul\":322:340   */\n      0x6920616d206772616e7466617468657200000000000000000000000000000000\n        /* \"#utility.yul\":318:319   */\n      0x00\n        /* \"#utility.yul\":310:316   */\n      dup3\n        /* \"#utility.yul\":306:320   */\n      add\n        /* \"#utility.yul\":299:341   */\n      mstore\n        /* \"#utility.yul\":182:348   */\n      pop\n      jump\t// out\n        /* \"#utility.yul\":354:720   */\n    tag_22:\n        /* \"#utility.yul\":496:499   */\n      0x00\n        /* \"#utility.yul\":517:584   */\n      tag_29\n        /* \"#utility.yul\":581:583   */\n      0x10\n        /* \"#utility.yul\":576:579   */\n      dup4\n        /* \"#utility.yul\":517:584   */\n      tag_20\n      jump\t// in\n    tag_29:\n        /* \"#utility.yul\":510:584   */\n      swap2\n      pop\n        /* \"#utility.yul\":593:686   */\n      tag_30\n        /* \"#utility.yul\":682:685   */\n      dup3\n        /* \"#utility.yul\":593:686   */\n      tag_21\n      jump\t// in\n    tag_30:\n        /* \"#utility.yul\":711:713   */\n      0x20\n        /* \"#utility.yul\":706:709   */\n      dup3\n        /* \"#utility.yul\":702:714   */\n      add\n        /* \"#utility.yul\":695:714   */\n      swap1\n      pop\n        /* \"#utility.yul\":354:720   */\n      swap2\n      swap1\n      pop\n      jump\t// out\n        /* \"#utility.yul\":726:1145   */\n    tag_14:\n        /* \"#utility.yul\":892:896   */\n      0x00\n        /* \"#utility.yul\":930:932   */\n      0x20\n        /* \"#utility.yul\":919:928   */\n      dup3\n        /* \"#utility.yul\":915:933   */\n      add\n        /* \"#utility.yul\":907:933   */\n      swap1\n      pop\n        /* \"#utility.yul\":979:988   */\n      dup2\n        /* \"#utility.yul\":973:977   */\n      dup2\n        /* \"#utility.yul\":969:989   */\n      sub\n        /* \"#utility.yul\":965:966   */\n      0x00\n        /* \"#utility.yul\":954:963   */\n      dup4\n        /* \"#utility.yul\":950:967   */\n      add\n        /* \"#utility.yul\":943:990   */\n      mstore\n        /* \"#utility.yul\":1007:1138   */\n      tag_32\n        /* \"#utility.yul\":1133:1137   */\n      dup2\n        /* \"#utility.yul\":1007:1138   */\n      tag_22\n      jump\t// in\n    tag_32:\n        /* \"#utility.yul\":999:1138   */\n      swap1\n      pop\n        /* \"#utility.yul\":726:1145   */\n      swap2\n      swap1\n      pop\n      jump\t// out\n        /* \"#utility.yul\":1151:1311   */\n    tag_23:\n        /* \"#utility.yul\":1291:1303   */\n      0x6920616d206120736f6e00000000000000000000000000000000000000000000\n        /* \"#utility.yul\":1287:1288   */\n      0x00\n        /* \"#utility.yul\":1279:1285   */\n      dup3\n        /* \"#utility.yul\":1275:1289   */\n      add\n        /* \"#utility.yul\":1268:1304   */\n      mstore\n        /* \"#utility.yul\":1151:1311   */\n      pop\n      jump\t// out\n        /* \"#utility.yul\":1317:1683   */\n    tag_24:\n        /* \"#utility.yul\":1459:1462   */\n      0x00\n        /* \"#utility.yul\":1480:1547   */\n      tag_35\n        /* \"#utility.yul\":1544:1546   */\n      0x0a\n        /* \"#utility.yul\":1539:1542   */\n      dup4\n        /* \"#utility.yul\":1480:1547   */\n      tag_20\n      jump\t// in\n    tag_35:\n        /* \"#utility.yul\":1473:1547   */\n      swap2\n      pop\n        /* \"#utility.yul\":1556:1649   */\n      tag_36\n        /* \"#utility.yul\":1645:1648   */\n      dup3\n        /* \"#utility.yul\":1556:1649   */\n      tag_23\n      jump\t// in\n    tag_36:\n        /* \"#utility.yul\":1674:1676   */\n      0x20\n        /* \"#utility.yul\":1669:1672   */\n      dup3\n        /* \"#utility.yul\":1665:1677   */\n      add\n        /* \"#utility.yul\":1658:1677   */\n      swap1\n      pop\n        /* \"#utility.yul\":1317:1683   */\n      swap2\n      swap1\n      pop\n      jump\t// out\n        /* \"#utility.yul\":1689:2108   */\n    tag_17:\n        /* \"#utility.yul\":1855:1859   */\n      0x00\n        /* \"#utility.yul\":1893:1895   */\n      0x20\n        /* \"#utility.yul\":1882:1891   */\n      dup3\n        /* \"#utility.yul\":1878:1896   */\n      add\n        /* \"#utility.yul\":1870:1896   */\n      swap1\n      pop\n        /* \"#utility.yul\":1942:1951   */\n      dup2\n        /* \"#utility.yul\":1936:1940   */\n      dup2\n        /* \"#utility.yul\":1932:1952   */\n      sub\n        /* \"#utility.yul\":1928:1929   */\n      0x00\n        /* \"#utility.yul\":1917:1926   */\n      dup4\n        /* \"#utility.yul\":1913:1930   */\n      add\n        /* \"#utility.yul\":1906:1953   */\n      mstore\n        /* \"#utility.yul\":1970:2101   */\n      tag_38\n        /* \"#utility.yul\":2096:2100   */\n      dup2\n        /* \"#utility.yul\":1970:2101   */\n      tag_24\n      jump\t// in\n    tag_38:\n        /* \"#utility.yul\":1962:2101   */\n      swap1\n      pop\n        /* \"#utility.yul\":1689:2108   */\n      swap2\n      swap1\n      pop\n      jump\t// out\n\n    auxdata: 0xa2646970667358221220652a9f7d255af415a393df3485462bffd7cf6f0f21308da5ed574692d515c31864736f6c634300081a0033\n}\n",
				"bytecode": {
					"linkReferences": {},
					"object": "6080604052348015600e575f80fd5b5061021c8061001c5f395ff3fe608060405234801561000f575f80fd5b506004361061003f575f3560e01c806350d8531514610043578063954ab4b21461004d578063a973176914610057575b5f80fd5b61004b610061565b005b610055610098565b005b61005f6100cf565b005b7fcf34ef537ac33ee1ac626ca1587a0a7e8e51561e5514f8cb36afa1c5102b3bab60405161008e90610160565b60405180910390a1565b7fcf34ef537ac33ee1ac626ca1587a0a7e8e51561e5514f8cb36afa1c5102b3bab6040516100c5906101c8565b60405180910390a1565b7fcf34ef537ac33ee1ac626ca1587a0a7e8e51561e5514f8cb36afa1c5102b3bab6040516100fc90610160565b60405180910390a1565b5f82825260208201905092915050565b7f6920616d206772616e74666174686572000000000000000000000000000000005f82015250565b5f61014a601083610106565b915061015582610116565b602082019050919050565b5f6020820190508181035f8301526101778161013e565b9050919050565b7f6920616d206120736f6e000000000000000000000000000000000000000000005f82015250565b5f6101b2600a83610106565b91506101bd8261017e565b602082019050919050565b5f6020820190508181035f8301526101df816101a6565b905091905056fea2646970667358221220652a9f7d255af415a393df3485462bffd7cf6f0f21308da5ed574692d515c31864736f6c634300081a0033",
					"opcodes": "PUSH1 0x80 PUSH1 0x40 MSTORE CALLVALUE DUP1 ISZERO PUSH1 0xE JUMPI PUSH0 DUP1 REVERT JUMPDEST POP PUSH2 0x21C DUP1 PUSH2 0x1C PUSH0 CODECOPY PUSH0 RETURN INVALID PUSH1 0x80 PUSH1 0x40 MSTORE CALLVALUE DUP1 ISZERO PUSH2 0xF JUMPI PUSH0 DUP1 REVERT JUMPDEST POP PUSH1 0x4 CALLDATASIZE LT PUSH2 0x3F JUMPI PUSH0 CALLDATALOAD PUSH1 0xE0 SHR DUP1 PUSH4 0x50D85315 EQ PUSH2 0x43 JUMPI DUP1 PUSH4 0x954AB4B2 EQ PUSH2 0x4D JUMPI DUP1 PUSH4 0xA9731769 EQ PUSH2 0x57 JUMPI JUMPDEST PUSH0 DUP1 REVERT JUMPDEST PUSH2 0x4B PUSH2 0x61 JUMP JUMPDEST STOP JUMPDEST PUSH2 0x55 PUSH2 0x98 JUMP JUMPDEST STOP JUMPDEST PUSH2 0x5F PUSH2 0xCF JUMP JUMPDEST STOP JUMPDEST PUSH32 0xCF34EF537AC33EE1AC626CA1587A0A7E8E51561E5514F8CB36AFA1C5102B3BAB PUSH1 0x40 MLOAD PUSH2 0x8E SWAP1 PUSH2 0x160 JUMP JUMPDEST PUSH1 0x40 MLOAD DUP1 SWAP2 SUB SWAP1 LOG1 JUMP JUMPDEST PUSH32 0xCF34EF537AC33EE1AC626CA1587A0A7E8E51561E5514F8CB36AFA1C5102B3BAB PUSH1 0x40 MLOAD PUSH2 0xC5 SWAP1 PUSH2 0x1C8 JUMP JUMPDEST PUSH1 0x40 MLOAD DUP1 SWAP2 SUB SWAP1 LOG1 JUMP JUMPDEST PUSH32 0xCF34EF537AC33EE1AC626CA1587A0A7E8E51561E5514F8CB36AFA1C5102B3BAB PUSH1 0x40 MLOAD PUSH2 0xFC SWAP1 PUSH2 0x160 JUMP JUMPDEST PUSH1 0x40 MLOAD DUP1 SWAP2 SUB SWAP1 LOG1 JUMP JUMPDEST PUSH0 DUP3 DUP3 MSTORE PUSH1 0x20 DUP3 ADD SWAP1 POP SWAP3 SWAP2 POP POP JUMP JUMPDEST PUSH32 0x6920616D206772616E7466617468657200000000000000000000000000000000 PUSH0 DUP3 ADD MSTORE POP JUMP JUMPDEST PUSH0 PUSH2 0x14A PUSH1 0x10 DUP4 PUSH2 0x106 JUMP JUMPDEST SWAP2 POP PUSH2 0x155 DUP3 PUSH2 0x116 JUMP JUMPDEST PUSH1 0x20 DUP3 ADD SWAP1 POP SWAP2 SWAP1 POP JUMP JUMPDEST PUSH0 PUSH1 0x20 DUP3 ADD SWAP1 POP DUP2 DUP2 SUB PUSH0 DUP4 ADD MSTORE PUSH2 0x177 DUP2 PUSH2 0x13E JUMP JUMPDEST SWAP1 POP SWAP2 SWAP1 POP JUMP JUMPDEST PUSH32 0x6920616D206120736F6E00000000000000000000000000000000000000000000 PUSH0 DUP3 ADD MSTORE POP JUMP JUMPDEST PUSH0 PUSH2 0x1B2 PUSH1 0xA DUP4 PUSH2 0x106 JUMP JUMPDEST SWAP2 POP PUSH2 0x1BD DUP3 PUSH2 0x17E JUMP JUMPDEST PUSH1 0x20 DUP3 ADD SWAP1 POP SWAP2 SWAP1 POP JUMP JUMPDEST PUSH0 PUSH1 0x20 DUP3 ADD SWAP1 POP DUP2 DUP2 SUB PUSH0 DUP4 ADD MSTORE PUSH2 0x1DF DUP2 PUSH2 0x1A6 JUMP JUMPDEST SWAP1 POP SWAP2 SWAP1 POP JUMP INVALID LOG2 PUSH5 0x6970667358 0x22 SLT KECCAK256 PUSH6 0x2A9F7D255AF4 ISZERO LOG3 SWAP4 0xDF CALLVALUE DUP6 CHAINID 0x2B SELFDESTRUCT 0xD7 0xCF PUSH16 0xF21308DA5ED574692D515C31864736F PUSH13 0x634300081A0033000000000000 "
				},
				"gasEstimates": {
					"creation": {
						"codeDepositCost": "108000",
						"executionCost": "151",
						"totalCost": "108151"
					},
					"external": {
						"say()": "1940",
						"speak()": "1918",
						"talk()": "1962"
					}
				},
				"methodIdentifiers": {
					"say()": "954ab4b2",
					"speak()": "50d85315",
					"talk()": "a9731769"
				}
			},
			"storageLayout": {
				"storage": [],
				"types": null
			},
			"userdoc": {
				"events": {
					"Log(string)": {
						"notice": "inheritance  'virtual' : keyword to be used in father contract, if you need rewrite it in son contract, you will need it. 'override': if son contract rewrite the father's function, you will need it.*"
					}
				},
				"kind": "user",
				"methods": {},
				"notice": "multiple inheritance 1. when inheritage from grantFather to father , you need to code roderly like 'son is father, grantfather' 2. if a function exit both in father and grantfather, it must be override  3. override a function with same name both in father and grantfather,  all father contract name must be added  'override' to the end*",
				"version": 1
			}
		}
	}
}