{
	"contracts/test.sol": {
		"CallContract": {
			"abi": [
				{
					"anonymous": false,
					"inputs": [
						{
							"indexed": false,
							"internalType": "bool",
							"name": "success",
							"type": "bool"
						},
						{
							"indexed": false,
							"internalType": "bytes",
							"name": "data",
							"type": "bytes"
						}
					],
					"name": "Response",
					"type": "event"
				},
				{
					"inputs": [
						{
							"internalType": "address payable",
							"name": "_addr",
							"type": "address"
						},
						{
							"internalType": "uint256",
							"name": "x",
							"type": "uint256"
						}
					],
					"name": "callSetX",
					"outputs": [],
					"stateMutability": "payable",
					"type": "function"
				}
			],
			"devdoc": {
				"kind": "dev",
				"methods": {},
				"version": 1
			},
			"evm": {
				"assembly": "    /* \"contracts/test.sol\":754:1184  contract CallContract{... */\n  mstore(0x40, 0x80)\n  callvalue\n  dup1\n  iszero\n  tag_1\n  jumpi\n  0x00\n  dup1\n  revert\ntag_1:\n  pop\n  dataSize(sub_0)\n  dup1\n  dataOffset(sub_0)\n  0x00\n  codecopy\n  0x00\n  return\nstop\n\nsub_0: assembly {\n        /* \"contracts/test.sol\":754:1184  contract CallContract{... */\n      mstore(0x40, 0x80)\n      jumpi(tag_1, lt(calldatasize, 0x04))\n      shr(0xe0, calldataload(0x00))\n      dup1\n      0x3ca065bb\n      eq\n      tag_2\n      jumpi\n    tag_1:\n      0x00\n      dup1\n      revert\n        /* \"contracts/test.sol\":890:1182  function callSetX(address payable _addr, uint256 x) public payable {... */\n    tag_2:\n      tag_3\n      0x04\n      dup1\n      calldatasize\n      sub\n      dup2\n      add\n      swap1\n      tag_4\n      swap2\n      swap1\n      tag_5\n      jump\t// in\n    tag_4:\n      tag_6\n      jump\t// in\n    tag_3:\n      stop\n    tag_6:\n        /* \"contracts/test.sol\":1007:1019  bool success */\n      0x00\n        /* \"contracts/test.sol\":1021:1038  bytes memory data */\n      dup1\n        /* \"contracts/test.sol\":1042:1047  _addr */\n      dup4\n        /* \"contracts/test.sol\":1042:1052  _addr.call */\n      0xffffffffffffffffffffffffffffffffffffffff\n      and\n        /* \"contracts/test.sol\":1060:1069  msg.value */\n      callvalue\n        /* \"contracts/test.sol\":1121:1122  x */\n      dup5\n        /* \"contracts/test.sol\":1080:1123  abi.encodeWithSignature(\"setX(uint256)\", x) */\n      add(0x24, mload(0x40))\n      tag_8\n      swap2\n      swap1\n      tag_9\n      jump\t// in\n    tag_8:\n      mload(0x40)\n      0x20\n      dup2\n      dup4\n      sub\n      sub\n      dup2\n      mstore\n      swap1\n      0x40\n      mstore\n      and(not(0xffffffffffffffffffffffffffffffffffffffffffffffffffffffff), 0x4018d9aa00000000000000000000000000000000000000000000000000000000)\n      0x20\n      dup3\n      add\n      dup1\n      mload\n      0xffffffffffffffffffffffffffffffffffffffffffffffffffffffff\n      dup4\n      dup2\n      dup4\n      and\n      or\n      dup4\n      mstore\n      pop\n      pop\n      pop\n      pop\n        /* \"contracts/test.sol\":1042:1129  _addr.call{value: msg.value}(... */\n      mload(0x40)\n      tag_10\n      swap2\n      swap1\n      tag_11\n      jump\t// in\n    tag_10:\n      0x00\n      mload(0x40)\n      dup1\n      dup4\n      sub\n      dup2\n      dup6\n      dup8\n      gas\n      call\n      swap3\n      pop\n      pop\n      pop\n      returndatasize\n      dup1\n      0x00\n      dup2\n      eq\n      tag_14\n      jumpi\n      mload(0x40)\n      swap2\n      pop\n      and(add(returndatasize, 0x3f), not(0x1f))\n      dup3\n      add\n      0x40\n      mstore\n      returndatasize\n      dup3\n      mstore\n      returndatasize\n      0x00\n      0x20\n      dup5\n      add\n      returndatacopy\n      jump(tag_13)\n    tag_14:\n      0x60\n      swap2\n      pop\n    tag_13:\n      pop\n        /* \"contracts/test.sol\":1006:1129  (bool success, bytes memory data) = _addr.call{value: msg.value}(... */\n      swap2\n      pop\n      swap2\n      pop\n        /* \"contracts/test.sol\":1141:1164  Response(success, data) */\n      0x13848c3e38f8886f3f5d2ad9dff80d8092c2bbb8efd5b887a99c2c6cfc09ac2a\n        /* \"contracts/test.sol\":1150:1157  success */\n      dup3\n        /* \"contracts/test.sol\":1159:1163  data */\n      dup3\n        /* \"contracts/test.sol\":1141:1164  Response(success, data) */\n      mload(0x40)\n      tag_15\n      swap3\n      swap2\n      swap1\n      tag_16\n      jump\t// in\n    tag_15:\n      mload(0x40)\n      dup1\n      swap2\n      sub\n      swap1\n      log1\n        /* \"contracts/test.sol\":957:1182  {... */\n      pop\n      pop\n        /* \"contracts/test.sol\":890:1182  function callSetX(address payable _addr, uint256 x) public payable {... */\n      pop\n      pop\n      jump\t// out\n        /* \"#utility.yul\":88:205   */\n    tag_18:\n        /* \"#utility.yul\":197:198   */\n      0x00\n        /* \"#utility.yul\":194:195   */\n      dup1\n        /* \"#utility.yul\":187:199   */\n      revert\n        /* \"#utility.yul\":334:460   */\n    tag_20:\n        /* \"#utility.yul\":371:378   */\n      0x00\n        /* \"#utility.yul\":411:453   */\n      0xffffffffffffffffffffffffffffffffffffffff\n        /* \"#utility.yul\":404:409   */\n      dup3\n        /* \"#utility.yul\":400:454   */\n      and\n        /* \"#utility.yul\":389:454   */\n      swap1\n      pop\n        /* \"#utility.yul\":334:460   */\n      swap2\n      swap1\n      pop\n      jump\t// out\n        /* \"#utility.yul\":466:570   */\n    tag_21:\n        /* \"#utility.yul\":511:518   */\n      0x00\n        /* \"#utility.yul\":540:564   */\n      tag_43\n        /* \"#utility.yul\":558:563   */\n      dup3\n        /* \"#utility.yul\":540:564   */\n      tag_20\n      jump\t// in\n    tag_43:\n        /* \"#utility.yul\":529:564   */\n      swap1\n      pop\n        /* \"#utility.yul\":466:570   */\n      swap2\n      swap1\n      pop\n      jump\t// out\n        /* \"#utility.yul\":576:714   */\n    tag_22:\n        /* \"#utility.yul\":657:689   */\n      tag_45\n        /* \"#utility.yul\":683:688   */\n      dup2\n        /* \"#utility.yul\":657:689   */\n      tag_21\n      jump\t// in\n    tag_45:\n        /* \"#utility.yul\":650:655   */\n      dup2\n        /* \"#utility.yul\":647:690   */\n      eq\n        /* \"#utility.yul\":637:708   */\n      tag_46\n      jumpi\n        /* \"#utility.yul\":704:705   */\n      0x00\n        /* \"#utility.yul\":701:702   */\n      dup1\n        /* \"#utility.yul\":694:706   */\n      revert\n        /* \"#utility.yul\":637:708   */\n    tag_46:\n        /* \"#utility.yul\":576:714   */\n      pop\n      jump\t// out\n        /* \"#utility.yul\":720:875   */\n    tag_23:\n        /* \"#utility.yul\":774:779   */\n      0x00\n        /* \"#utility.yul\":812:818   */\n      dup2\n        /* \"#utility.yul\":799:819   */\n      calldataload\n        /* \"#utility.yul\":790:819   */\n      swap1\n      pop\n        /* \"#utility.yul\":828:869   */\n      tag_48\n        /* \"#utility.yul\":863:868   */\n      dup2\n        /* \"#utility.yul\":828:869   */\n      tag_22\n      jump\t// in\n    tag_48:\n        /* \"#utility.yul\":720:875   */\n      swap3\n      swap2\n      pop\n      pop\n      jump\t// out\n        /* \"#utility.yul\":881:958   */\n    tag_24:\n        /* \"#utility.yul\":918:925   */\n      0x00\n        /* \"#utility.yul\":947:952   */\n      dup2\n        /* \"#utility.yul\":936:952   */\n      swap1\n      pop\n        /* \"#utility.yul\":881:958   */\n      swap2\n      swap1\n      pop\n      jump\t// out\n        /* \"#utility.yul\":964:1086   */\n    tag_25:\n        /* \"#utility.yul\":1037:1061   */\n      tag_51\n        /* \"#utility.yul\":1055:1060   */\n      dup2\n        /* \"#utility.yul\":1037:1061   */\n      tag_24\n      jump\t// in\n    tag_51:\n        /* \"#utility.yul\":1030:1035   */\n      dup2\n        /* \"#utility.yul\":1027:1062   */\n      eq\n        /* \"#utility.yul\":1017:1080   */\n      tag_52\n      jumpi\n        /* \"#utility.yul\":1076:1077   */\n      0x00\n        /* \"#utility.yul\":1073:1074   */\n      dup1\n        /* \"#utility.yul\":1066:1078   */\n      revert\n        /* \"#utility.yul\":1017:1080   */\n    tag_52:\n        /* \"#utility.yul\":964:1086   */\n      pop\n      jump\t// out\n        /* \"#utility.yul\":1092:1231   */\n    tag_26:\n        /* \"#utility.yul\":1138:1143   */\n      0x00\n        /* \"#utility.yul\":1176:1182   */\n      dup2\n        /* \"#utility.yul\":1163:1183   */\n      calldataload\n        /* \"#utility.yul\":1154:1183   */\n      swap1\n      pop\n        /* \"#utility.yul\":1192:1225   */\n      tag_54\n        /* \"#utility.yul\":1219:1224   */\n      dup2\n        /* \"#utility.yul\":1192:1225   */\n      tag_25\n      jump\t// in\n    tag_54:\n        /* \"#utility.yul\":1092:1231   */\n      swap3\n      swap2\n      pop\n      pop\n      jump\t// out\n        /* \"#utility.yul\":1237:1727   */\n    tag_5:\n        /* \"#utility.yul\":1313:1319   */\n      0x00\n        /* \"#utility.yul\":1321:1327   */\n      dup1\n        /* \"#utility.yul\":1370:1372   */\n      0x40\n        /* \"#utility.yul\":1358:1367   */\n      dup4\n        /* \"#utility.yul\":1349:1356   */\n      dup6\n        /* \"#utility.yul\":1345:1368   */\n      sub\n        /* \"#utility.yul\":1341:1373   */\n      slt\n        /* \"#utility.yul\":1338:1457   */\n      iszero\n      tag_56\n      jumpi\n        /* \"#utility.yul\":1376:1455   */\n      tag_57\n      tag_18\n      jump\t// in\n    tag_57:\n        /* \"#utility.yul\":1338:1457   */\n    tag_56:\n        /* \"#utility.yul\":1496:1497   */\n      0x00\n        /* \"#utility.yul\":1521:1582   */\n      tag_58\n        /* \"#utility.yul\":1574:1581   */\n      dup6\n        /* \"#utility.yul\":1565:1571   */\n      dup3\n        /* \"#utility.yul\":1554:1563   */\n      dup7\n        /* \"#utility.yul\":1550:1572   */\n      add\n        /* \"#utility.yul\":1521:1582   */\n      tag_23\n      jump\t// in\n    tag_58:\n        /* \"#utility.yul\":1511:1582   */\n      swap3\n      pop\n        /* \"#utility.yul\":1467:1592   */\n      pop\n        /* \"#utility.yul\":1631:1633   */\n      0x20\n        /* \"#utility.yul\":1657:1710   */\n      tag_59\n        /* \"#utility.yul\":1702:1709   */\n      dup6\n        /* \"#utility.yul\":1693:1699   */\n      dup3\n        /* \"#utility.yul\":1682:1691   */\n      dup7\n        /* \"#utility.yul\":1678:1700   */\n      add\n        /* \"#utility.yul\":1657:1710   */\n      tag_26\n      jump\t// in\n    tag_59:\n        /* \"#utility.yul\":1647:1710   */\n      swap2\n      pop\n        /* \"#utility.yul\":1602:1720   */\n      pop\n        /* \"#utility.yul\":1237:1727   */\n      swap3\n      pop\n      swap3\n      swap1\n      pop\n      jump\t// out\n        /* \"#utility.yul\":1733:1851   */\n    tag_27:\n        /* \"#utility.yul\":1820:1844   */\n      tag_61\n        /* \"#utility.yul\":1838:1843   */\n      dup2\n        /* \"#utility.yul\":1820:1844   */\n      tag_24\n      jump\t// in\n    tag_61:\n        /* \"#utility.yul\":1815:1818   */\n      dup3\n        /* \"#utility.yul\":1808:1845   */\n      mstore\n        /* \"#utility.yul\":1733:1851   */\n      pop\n      pop\n      jump\t// out\n        /* \"#utility.yul\":1857:2079   */\n    tag_9:\n        /* \"#utility.yul\":1950:1954   */\n      0x00\n        /* \"#utility.yul\":1988:1990   */\n      0x20\n        /* \"#utility.yul\":1977:1986   */\n      dup3\n        /* \"#utility.yul\":1973:1991   */\n      add\n        /* \"#utility.yul\":1965:1991   */\n      swap1\n      pop\n        /* \"#utility.yul\":2001:2072   */\n      tag_63\n        /* \"#utility.yul\":2069:2070   */\n      0x00\n        /* \"#utility.yul\":2058:2067   */\n      dup4\n        /* \"#utility.yul\":2054:2071   */\n      add\n        /* \"#utility.yul\":2045:2051   */\n      dup5\n        /* \"#utility.yul\":2001:2072   */\n      tag_27\n      jump\t// in\n    tag_63:\n        /* \"#utility.yul\":1857:2079   */\n      swap3\n      swap2\n      pop\n      pop\n      jump\t// out\n        /* \"#utility.yul\":2085:2183   */\n    tag_28:\n        /* \"#utility.yul\":2136:2142   */\n      0x00\n        /* \"#utility.yul\":2170:2175   */\n      dup2\n        /* \"#utility.yul\":2164:2176   */\n      mload\n        /* \"#utility.yul\":2154:2176   */\n      swap1\n      pop\n        /* \"#utility.yul\":2085:2183   */\n      swap2\n      swap1\n      pop\n      jump\t// out\n        /* \"#utility.yul\":2189:2336   */\n    tag_29:\n        /* \"#utility.yul\":2290:2301   */\n      0x00\n        /* \"#utility.yul\":2327:2330   */\n      dup2\n        /* \"#utility.yul\":2312:2330   */\n      swap1\n      pop\n        /* \"#utility.yul\":2189:2336   */\n      swap3\n      swap2\n      pop\n      pop\n      jump\t// out\n        /* \"#utility.yul\":2342:2588   */\n    tag_30:\n        /* \"#utility.yul\":2423:2424   */\n      0x00\n        /* \"#utility.yul\":2433:2546   */\n    tag_67:\n        /* \"#utility.yul\":2447:2453   */\n      dup4\n        /* \"#utility.yul\":2444:2445   */\n      dup2\n        /* \"#utility.yul\":2441:2454   */\n      lt\n        /* \"#utility.yul\":2433:2546   */\n      iszero\n      tag_69\n      jumpi\n        /* \"#utility.yul\":2532:2533   */\n      dup1\n        /* \"#utility.yul\":2527:2530   */\n      dup3\n        /* \"#utility.yul\":2523:2534   */\n      add\n        /* \"#utility.yul\":2517:2535   */\n      mload\n        /* \"#utility.yul\":2513:2514   */\n      dup2\n        /* \"#utility.yul\":2508:2511   */\n      dup5\n        /* \"#utility.yul\":2504:2515   */\n      add\n        /* \"#utility.yul\":2497:2536   */\n      mstore\n        /* \"#utility.yul\":2469:2471   */\n      0x20\n        /* \"#utility.yul\":2466:2467   */\n      dup2\n        /* \"#utility.yul\":2462:2472   */\n      add\n        /* \"#utility.yul\":2457:2472   */\n      swap1\n      pop\n        /* \"#utility.yul\":2433:2546   */\n      jump(tag_67)\n    tag_69:\n        /* \"#utility.yul\":2580:2581   */\n      0x00\n        /* \"#utility.yul\":2571:2577   */\n      dup5\n        /* \"#utility.yul\":2566:2569   */\n      dup5\n        /* \"#utility.yul\":2562:2578   */\n      add\n        /* \"#utility.yul\":2555:2582   */\n      mstore\n        /* \"#utility.yul\":2404:2588   */\n      pop\n        /* \"#utility.yul\":2342:2588   */\n      pop\n      pop\n      pop\n      jump\t// out\n        /* \"#utility.yul\":2594:2980   */\n    tag_31:\n        /* \"#utility.yul\":2698:2701   */\n      0x00\n        /* \"#utility.yul\":2726:2764   */\n      tag_71\n        /* \"#utility.yul\":2758:2763   */\n      dup3\n        /* \"#utility.yul\":2726:2764   */\n      tag_28\n      jump\t// in\n    tag_71:\n        /* \"#utility.yul\":2780:2868   */\n      tag_72\n        /* \"#utility.yul\":2861:2867   */\n      dup2\n        /* \"#utility.yul\":2856:2859   */\n      dup6\n        /* \"#utility.yul\":2780:2868   */\n      tag_29\n      jump\t// in\n    tag_72:\n        /* \"#utility.yul\":2773:2868   */\n      swap4\n      pop\n        /* \"#utility.yul\":2877:2942   */\n      tag_73\n        /* \"#utility.yul\":2935:2941   */\n      dup2\n        /* \"#utility.yul\":2930:2933   */\n      dup6\n        /* \"#utility.yul\":2923:2927   */\n      0x20\n        /* \"#utility.yul\":2916:2921   */\n      dup7\n        /* \"#utility.yul\":2912:2928   */\n      add\n        /* \"#utility.yul\":2877:2942   */\n      tag_30\n      jump\t// in\n    tag_73:\n        /* \"#utility.yul\":2967:2973   */\n      dup1\n        /* \"#utility.yul\":2962:2965   */\n      dup5\n        /* \"#utility.yul\":2958:2974   */\n      add\n        /* \"#utility.yul\":2951:2974   */\n      swap2\n      pop\n        /* \"#utility.yul\":2702:2980   */\n      pop\n        /* \"#utility.yul\":2594:2980   */\n      swap3\n      swap2\n      pop\n      pop\n      jump\t// out\n        /* \"#utility.yul\":2986:3257   */\n    tag_11:\n        /* \"#utility.yul\":3116:3119   */\n      0x00\n        /* \"#utility.yul\":3138:3231   */\n      tag_75\n        /* \"#utility.yul\":3227:3230   */\n      dup3\n        /* \"#utility.yul\":3218:3224   */\n      dup5\n        /* \"#utility.yul\":3138:3231   */\n      tag_31\n      jump\t// in\n    tag_75:\n        /* \"#utility.yul\":3131:3231   */\n      swap2\n      pop\n        /* \"#utility.yul\":3248:3251   */\n      dup2\n        /* \"#utility.yul\":3241:3251   */\n      swap1\n      pop\n        /* \"#utility.yul\":2986:3257   */\n      swap3\n      swap2\n      pop\n      pop\n      jump\t// out\n        /* \"#utility.yul\":3263:3353   */\n    tag_32:\n        /* \"#utility.yul\":3297:3304   */\n      0x00\n        /* \"#utility.yul\":3340:3345   */\n      dup2\n        /* \"#utility.yul\":3333:3346   */\n      iszero\n        /* \"#utility.yul\":3326:3347   */\n      iszero\n        /* \"#utility.yul\":3315:3347   */\n      swap1\n      pop\n        /* \"#utility.yul\":3263:3353   */\n      swap2\n      swap1\n      pop\n      jump\t// out\n        /* \"#utility.yul\":3359:3468   */\n    tag_33:\n        /* \"#utility.yul\":3440:3461   */\n      tag_78\n        /* \"#utility.yul\":3455:3460   */\n      dup2\n        /* \"#utility.yul\":3440:3461   */\n      tag_32\n      jump\t// in\n    tag_78:\n        /* \"#utility.yul\":3435:3438   */\n      dup3\n        /* \"#utility.yul\":3428:3462   */\n      mstore\n        /* \"#utility.yul\":3359:3468   */\n      pop\n      pop\n      jump\t// out\n        /* \"#utility.yul\":3474:3642   */\n    tag_34:\n        /* \"#utility.yul\":3557:3568   */\n      0x00\n        /* \"#utility.yul\":3591:3597   */\n      dup3\n        /* \"#utility.yul\":3586:3589   */\n      dup3\n        /* \"#utility.yul\":3579:3598   */\n      mstore\n        /* \"#utility.yul\":3631:3635   */\n      0x20\n        /* \"#utility.yul\":3626:3629   */\n      dup3\n        /* \"#utility.yul\":3622:3636   */\n      add\n        /* \"#utility.yul\":3607:3636   */\n      swap1\n      pop\n        /* \"#utility.yul\":3474:3642   */\n      swap3\n      swap2\n      pop\n      pop\n      jump\t// out\n        /* \"#utility.yul\":3648:3750   */\n    tag_35:\n        /* \"#utility.yul\":3689:3695   */\n      0x00\n        /* \"#utility.yul\":3740:3742   */\n      0x1f\n        /* \"#utility.yul\":3736:3743   */\n      not\n        /* \"#utility.yul\":3731:3733   */\n      0x1f\n        /* \"#utility.yul\":3724:3729   */\n      dup4\n        /* \"#utility.yul\":3720:3734   */\n      add\n        /* \"#utility.yul\":3716:3744   */\n      and\n        /* \"#utility.yul\":3706:3744   */\n      swap1\n      pop\n        /* \"#utility.yul\":3648:3750   */\n      swap2\n      swap1\n      pop\n      jump\t// out\n        /* \"#utility.yul\":3756:4129   */\n    tag_36:\n        /* \"#utility.yul\":3842:3845   */\n      0x00\n        /* \"#utility.yul\":3870:3908   */\n      tag_82\n        /* \"#utility.yul\":3902:3907   */\n      dup3\n        /* \"#utility.yul\":3870:3908   */\n      tag_28\n      jump\t// in\n    tag_82:\n        /* \"#utility.yul\":3924:3994   */\n      tag_83\n        /* \"#utility.yul\":3987:3993   */\n      dup2\n        /* \"#utility.yul\":3982:3985   */\n      dup6\n        /* \"#utility.yul\":3924:3994   */\n      tag_34\n      jump\t// in\n    tag_83:\n        /* \"#utility.yul\":3917:3994   */\n      swap4\n      pop\n        /* \"#utility.yul\":4003:4068   */\n      tag_84\n        /* \"#utility.yul\":4061:4067   */\n      dup2\n        /* \"#utility.yul\":4056:4059   */\n      dup6\n        /* \"#utility.yul\":4049:4053   */\n      0x20\n        /* \"#utility.yul\":4042:4047   */\n      dup7\n        /* \"#utility.yul\":4038:4054   */\n      add\n        /* \"#utility.yul\":4003:4068   */\n      tag_30\n      jump\t// in\n    tag_84:\n        /* \"#utility.yul\":4093:4122   */\n      tag_85\n        /* \"#utility.yul\":4115:4121   */\n      dup2\n        /* \"#utility.yul\":4093:4122   */\n      tag_35\n      jump\t// in\n    tag_85:\n        /* \"#utility.yul\":4088:4091   */\n      dup5\n        /* \"#utility.yul\":4084:4123   */\n      add\n        /* \"#utility.yul\":4077:4123   */\n      swap2\n      pop\n        /* \"#utility.yul\":3846:4129   */\n      pop\n        /* \"#utility.yul\":3756:4129   */\n      swap3\n      swap2\n      pop\n      pop\n      jump\t// out\n        /* \"#utility.yul\":4135:4542   */\n    tag_16:\n        /* \"#utility.yul\":4268:4272   */\n      0x00\n        /* \"#utility.yul\":4306:4308   */\n      0x40\n        /* \"#utility.yul\":4295:4304   */\n      dup3\n        /* \"#utility.yul\":4291:4309   */\n      add\n        /* \"#utility.yul\":4283:4309   */\n      swap1\n      pop\n        /* \"#utility.yul\":4319:4384   */\n      tag_87\n        /* \"#utility.yul\":4381:4382   */\n      0x00\n        /* \"#utility.yul\":4370:4379   */\n      dup4\n        /* \"#utility.yul\":4366:4383   */\n      add\n        /* \"#utility.yul\":4357:4363   */\n      dup6\n        /* \"#utility.yul\":4319:4384   */\n      tag_33\n      jump\t// in\n    tag_87:\n        /* \"#utility.yul\":4431:4440   */\n      dup2\n        /* \"#utility.yul\":4425:4429   */\n      dup2\n        /* \"#utility.yul\":4421:4441   */\n      sub\n        /* \"#utility.yul\":4416:4418   */\n      0x20\n        /* \"#utility.yul\":4405:4414   */\n      dup4\n        /* \"#utility.yul\":4401:4419   */\n      add\n        /* \"#utility.yul\":4394:4442   */\n      mstore\n        /* \"#utility.yul\":4459:4535   */\n      tag_88\n        /* \"#utility.yul\":4530:4534   */\n      dup2\n        /* \"#utility.yul\":4521:4527   */\n      dup5\n        /* \"#utility.yul\":4459:4535   */\n      tag_36\n      jump\t// in\n    tag_88:\n        /* \"#utility.yul\":4451:4535   */\n      swap1\n      pop\n        /* \"#utility.yul\":4135:4542   */\n      swap4\n      swap3\n      pop\n      pop\n      pop\n      jump\t// out\n\n    auxdata: 0xa26469706673582212201641c445c60b983b769e936f8d88728d977261e2a0c73bbb3f11c30f4dcc53b464736f6c63430008150033\n}\n",
				"bytecode": {
					"linkReferences": {},
					"object": "608060405234801561000f575f80fd5b506103c48061001d5f395ff3fe60806040526004361061001d575f3560e01c80633ca065bb14610021575b5f80fd5b61003b60048036038101906100369190610206565b61003d565b005b5f808373ffffffffffffffffffffffffffffffffffffffff1634846040516024016100689190610253565b6040516020818303038152906040527f4018d9aa000000000000000000000000000000000000000000000000000000007bffffffffffffffffffffffffffffffffffffffffffffffffffffffff19166020820180517bffffffffffffffffffffffffffffffffffffffffffffffffffffffff83818316178352505050506040516100f291906102d8565b5f6040518083038185875af1925050503d805f811461012c576040519150601f19603f3d011682016040523d82523d5f602084013e610131565b606091505b50915091507f13848c3e38f8886f3f5d2ad9dff80d8092c2bbb8efd5b887a99c2c6cfc09ac2a8282604051610167929190610360565b60405180910390a150505050565b5f80fd5b5f73ffffffffffffffffffffffffffffffffffffffff82169050919050565b5f6101a282610179565b9050919050565b6101b281610198565b81146101bc575f80fd5b50565b5f813590506101cd816101a9565b92915050565b5f819050919050565b6101e5816101d3565b81146101ef575f80fd5b50565b5f81359050610200816101dc565b92915050565b5f806040838503121561021c5761021b610175565b5b5f610229858286016101bf565b925050602061023a858286016101f2565b9150509250929050565b61024d816101d3565b82525050565b5f6020820190506102665f830184610244565b92915050565b5f81519050919050565b5f81905092915050565b5f5b8381101561029d578082015181840152602081019050610282565b5f8484015250505050565b5f6102b28261026c565b6102bc8185610276565b93506102cc818560208601610280565b80840191505092915050565b5f6102e382846102a8565b915081905092915050565b5f8115159050919050565b610302816102ee565b82525050565b5f82825260208201905092915050565b5f601f19601f8301169050919050565b5f6103328261026c565b61033c8185610308565b935061034c818560208601610280565b61035581610318565b840191505092915050565b5f6040820190506103735f8301856102f9565b81810360208301526103858184610328565b9050939250505056fea26469706673582212201641c445c60b983b769e936f8d88728d977261e2a0c73bbb3f11c30f4dcc53b464736f6c63430008150033",
					"opcodes": "PUSH1 0x80 PUSH1 0x40 MSTORE CALLVALUE DUP1 ISZERO PUSH2 0xF JUMPI PUSH0 DUP1 REVERT JUMPDEST POP PUSH2 0x3C4 DUP1 PUSH2 0x1D PUSH0 CODECOPY PUSH0 RETURN INVALID PUSH1 0x80 PUSH1 0x40 MSTORE PUSH1 0x4 CALLDATASIZE LT PUSH2 0x1D JUMPI PUSH0 CALLDATALOAD PUSH1 0xE0 SHR DUP1 PUSH4 0x3CA065BB EQ PUSH2 0x21 JUMPI JUMPDEST PUSH0 DUP1 REVERT JUMPDEST PUSH2 0x3B PUSH1 0x4 DUP1 CALLDATASIZE SUB DUP2 ADD SWAP1 PUSH2 0x36 SWAP2 SWAP1 PUSH2 0x206 JUMP JUMPDEST PUSH2 0x3D JUMP JUMPDEST STOP JUMPDEST PUSH0 DUP1 DUP4 PUSH20 0xFFFFFFFFFFFFFFFFFFFFFFFFFFFFFFFFFFFFFFFF AND CALLVALUE DUP5 PUSH1 0x40 MLOAD PUSH1 0x24 ADD PUSH2 0x68 SWAP2 SWAP1 PUSH2 0x253 JUMP JUMPDEST PUSH1 0x40 MLOAD PUSH1 0x20 DUP2 DUP4 SUB SUB DUP2 MSTORE SWAP1 PUSH1 0x40 MSTORE PUSH32 0x4018D9AA00000000000000000000000000000000000000000000000000000000 PUSH28 0xFFFFFFFFFFFFFFFFFFFFFFFFFFFFFFFFFFFFFFFFFFFFFFFFFFFFFFFF NOT AND PUSH1 0x20 DUP3 ADD DUP1 MLOAD PUSH28 0xFFFFFFFFFFFFFFFFFFFFFFFFFFFFFFFFFFFFFFFFFFFFFFFFFFFFFFFF DUP4 DUP2 DUP4 AND OR DUP4 MSTORE POP POP POP POP PUSH1 0x40 MLOAD PUSH2 0xF2 SWAP2 SWAP1 PUSH2 0x2D8 JUMP JUMPDEST PUSH0 PUSH1 0x40 MLOAD DUP1 DUP4 SUB DUP2 DUP6 DUP8 GAS CALL SWAP3 POP POP POP RETURNDATASIZE DUP1 PUSH0 DUP2 EQ PUSH2 0x12C JUMPI PUSH1 0x40 MLOAD SWAP2 POP PUSH1 0x1F NOT PUSH1 0x3F RETURNDATASIZE ADD AND DUP3 ADD PUSH1 0x40 MSTORE RETURNDATASIZE DUP3 MSTORE RETURNDATASIZE PUSH0 PUSH1 0x20 DUP5 ADD RETURNDATACOPY PUSH2 0x131 JUMP JUMPDEST PUSH1 0x60 SWAP2 POP JUMPDEST POP SWAP2 POP SWAP2 POP PUSH32 0x13848C3E38F8886F3F5D2AD9DFF80D8092C2BBB8EFD5B887A99C2C6CFC09AC2A DUP3 DUP3 PUSH1 0x40 MLOAD PUSH2 0x167 SWAP3 SWAP2 SWAP1 PUSH2 0x360 JUMP JUMPDEST PUSH1 0x40 MLOAD DUP1 SWAP2 SUB SWAP1 LOG1 POP POP POP POP JUMP JUMPDEST PUSH0 DUP1 REVERT JUMPDEST PUSH0 PUSH20 0xFFFFFFFFFFFFFFFFFFFFFFFFFFFFFFFFFFFFFFFF DUP3 AND SWAP1 POP SWAP2 SWAP1 POP JUMP JUMPDEST PUSH0 PUSH2 0x1A2 DUP3 PUSH2 0x179 JUMP JUMPDEST SWAP1 POP SWAP2 SWAP1 POP JUMP JUMPDEST PUSH2 0x1B2 DUP2 PUSH2 0x198 JUMP JUMPDEST DUP2 EQ PUSH2 0x1BC JUMPI PUSH0 DUP1 REVERT JUMPDEST POP JUMP JUMPDEST PUSH0 DUP2 CALLDATALOAD SWAP1 POP PUSH2 0x1CD DUP2 PUSH2 0x1A9 JUMP JUMPDEST SWAP3 SWAP2 POP POP JUMP JUMPDEST PUSH0 DUP2 SWAP1 POP SWAP2 SWAP1 POP JUMP JUMPDEST PUSH2 0x1E5 DUP2 PUSH2 0x1D3 JUMP JUMPDEST DUP2 EQ PUSH2 0x1EF JUMPI PUSH0 DUP1 REVERT JUMPDEST POP JUMP JUMPDEST PUSH0 DUP2 CALLDATALOAD SWAP1 POP PUSH2 0x200 DUP2 PUSH2 0x1DC JUMP JUMPDEST SWAP3 SWAP2 POP POP JUMP JUMPDEST PUSH0 DUP1 PUSH1 0x40 DUP4 DUP6 SUB SLT ISZERO PUSH2 0x21C JUMPI PUSH2 0x21B PUSH2 0x175 JUMP JUMPDEST JUMPDEST PUSH0 PUSH2 0x229 DUP6 DUP3 DUP7 ADD PUSH2 0x1BF JUMP JUMPDEST SWAP3 POP POP PUSH1 0x20 PUSH2 0x23A DUP6 DUP3 DUP7 ADD PUSH2 0x1F2 JUMP JUMPDEST SWAP2 POP POP SWAP3 POP SWAP3 SWAP1 POP JUMP JUMPDEST PUSH2 0x24D DUP2 PUSH2 0x1D3 JUMP JUMPDEST DUP3 MSTORE POP POP JUMP JUMPDEST PUSH0 PUSH1 0x20 DUP3 ADD SWAP1 POP PUSH2 0x266 PUSH0 DUP4 ADD DUP5 PUSH2 0x244 JUMP JUMPDEST SWAP3 SWAP2 POP POP JUMP JUMPDEST PUSH0 DUP2 MLOAD SWAP1 POP SWAP2 SWAP1 POP JUMP JUMPDEST PUSH0 DUP2 SWAP1 POP SWAP3 SWAP2 POP POP JUMP JUMPDEST PUSH0 JUMPDEST DUP4 DUP2 LT ISZERO PUSH2 0x29D JUMPI DUP1 DUP3 ADD MLOAD DUP2 DUP5 ADD MSTORE PUSH1 0x20 DUP2 ADD SWAP1 POP PUSH2 0x282 JUMP JUMPDEST PUSH0 DUP5 DUP5 ADD MSTORE POP POP POP POP JUMP JUMPDEST PUSH0 PUSH2 0x2B2 DUP3 PUSH2 0x26C JUMP JUMPDEST PUSH2 0x2BC DUP2 DUP6 PUSH2 0x276 JUMP JUMPDEST SWAP4 POP PUSH2 0x2CC DUP2 DUP6 PUSH1 0x20 DUP7 ADD PUSH2 0x280 JUMP JUMPDEST DUP1 DUP5 ADD SWAP2 POP POP SWAP3 SWAP2 POP POP JUMP JUMPDEST PUSH0 PUSH2 0x2E3 DUP3 DUP5 PUSH2 0x2A8 JUMP JUMPDEST SWAP2 POP DUP2 SWAP1 POP SWAP3 SWAP2 POP POP JUMP JUMPDEST PUSH0 DUP2 ISZERO ISZERO SWAP1 POP SWAP2 SWAP1 POP JUMP JUMPDEST PUSH2 0x302 DUP2 PUSH2 0x2EE JUMP JUMPDEST DUP3 MSTORE POP POP JUMP JUMPDEST PUSH0 DUP3 DUP3 MSTORE PUSH1 0x20 DUP3 ADD SWAP1 POP SWAP3 SWAP2 POP POP JUMP JUMPDEST PUSH0 PUSH1 0x1F NOT PUSH1 0x1F DUP4 ADD AND SWAP1 POP SWAP2 SWAP1 POP JUMP JUMPDEST PUSH0 PUSH2 0x332 DUP3 PUSH2 0x26C JUMP JUMPDEST PUSH2 0x33C DUP2 DUP6 PUSH2 0x308 JUMP JUMPDEST SWAP4 POP PUSH2 0x34C DUP2 DUP6 PUSH1 0x20 DUP7 ADD PUSH2 0x280 JUMP JUMPDEST PUSH2 0x355 DUP2 PUSH2 0x318 JUMP JUMPDEST DUP5 ADD SWAP2 POP POP SWAP3 SWAP2 POP POP JUMP JUMPDEST PUSH0 PUSH1 0x40 DUP3 ADD SWAP1 POP PUSH2 0x373 PUSH0 DUP4 ADD DUP6 PUSH2 0x2F9 JUMP JUMPDEST DUP2 DUP2 SUB PUSH1 0x20 DUP4 ADD MSTORE PUSH2 0x385 DUP2 DUP5 PUSH2 0x328 JUMP JUMPDEST SWAP1 POP SWAP4 SWAP3 POP POP POP JUMP INVALID LOG2 PUSH5 0x6970667358 0x22 SLT KECCAK256 AND COINBASE 0xC4 GASLIMIT 0xC6 SIGNEXTEND SWAP9 EXTCODESIZE PUSH23 0x9E936F8D88728D977261E2A0C73BBB3F11C30F4DCC53B4 PUSH5 0x736F6C6343 STOP ADDMOD ISZERO STOP CALLER "
				},
				"gasEstimates": {
					"creation": {
						"codeDepositCost": "192800",
						"executionCost": "236",
						"totalCost": "193036"
					},
					"external": {
						"callSetX(address,uint256)": "infinite"
					}
				},
				"methodIdentifiers": {
					"callSetX(address,uint256)": "3ca065bb"
				}
			},
			"storageLayout": {
				"storage": [],
				"types": null
			},
			"userdoc": {
				"kind": "user",
				"methods": {},
				"version": 1
			}
		}
	}
}