{
	"contracts/TimeLock.sol": {
		"Timelock": {
			"abi": [
				{
					"inputs": [
						{
							"internalType": "uint256",
							"name": "delay_",
							"type": "uint256"
						}
					],
					"stateMutability": "nonpayable",
					"type": "constructor"
				},
				{
					"anonymous": false,
					"inputs": [
						{
							"indexed": true,
							"internalType": "bytes32",
							"name": "txHash",
							"type": "bytes32"
						},
						{
							"indexed": true,
							"internalType": "address",
							"name": "target",
							"type": "address"
						},
						{
							"indexed": false,
							"internalType": "uint256",
							"name": "value",
							"type": "uint256"
						},
						{
							"indexed": false,
							"internalType": "string",
							"name": "signature",
							"type": "string"
						},
						{
							"indexed": false,
							"internalType": "bytes",
							"name": "data",
							"type": "bytes"
						},
						{
							"indexed": false,
							"internalType": "uint256",
							"name": "executeTime",
							"type": "uint256"
						}
					],
					"name": "CancelTransaction",
					"type": "event"
				},
				{
					"anonymous": false,
					"inputs": [
						{
							"indexed": true,
							"internalType": "bytes32",
							"name": "txHash",
							"type": "bytes32"
						},
						{
							"indexed": true,
							"internalType": "address",
							"name": "targret",
							"type": "address"
						},
						{
							"indexed": false,
							"internalType": "uint256",
							"name": "value",
							"type": "uint256"
						},
						{
							"indexed": false,
							"internalType": "string",
							"name": "signature",
							"type": "string"
						},
						{
							"indexed": false,
							"internalType": "bytes",
							"name": "data",
							"type": "bytes"
						},
						{
							"indexed": false,
							"internalType": "uint256",
							"name": "executeTime",
							"type": "uint256"
						}
					],
					"name": "ExecuteTransaction",
					"type": "event"
				},
				{
					"anonymous": false,
					"inputs": [
						{
							"indexed": true,
							"internalType": "address",
							"name": "newAdmin",
							"type": "address"
						}
					],
					"name": "NewAdmin",
					"type": "event"
				},
				{
					"anonymous": false,
					"inputs": [
						{
							"indexed": true,
							"internalType": "bytes32",
							"name": "txHash",
							"type": "bytes32"
						},
						{
							"indexed": true,
							"internalType": "address",
							"name": "target",
							"type": "address"
						},
						{
							"indexed": false,
							"internalType": "uint256",
							"name": "value",
							"type": "uint256"
						},
						{
							"indexed": false,
							"internalType": "string",
							"name": "signature",
							"type": "string"
						},
						{
							"indexed": false,
							"internalType": "bytes",
							"name": "data",
							"type": "bytes"
						},
						{
							"indexed": false,
							"internalType": "uint256",
							"name": "execuTime",
							"type": "uint256"
						}
					],
					"name": "QueueTransaction",
					"type": "event"
				},
				{
					"inputs": [],
					"name": "GRACE_PERIOD",
					"outputs": [
						{
							"internalType": "uint256",
							"name": "",
							"type": "uint256"
						}
					],
					"stateMutability": "view",
					"type": "function"
				},
				{
					"inputs": [],
					"name": "admin",
					"outputs": [
						{
							"internalType": "address",
							"name": "",
							"type": "address"
						}
					],
					"stateMutability": "view",
					"type": "function"
				},
				{
					"inputs": [
						{
							"internalType": "address",
							"name": "target",
							"type": "address"
						},
						{
							"internalType": "uint256",
							"name": "value",
							"type": "uint256"
						},
						{
							"internalType": "string",
							"name": "signature",
							"type": "string"
						},
						{
							"internalType": "bytes",
							"name": "data",
							"type": "bytes"
						},
						{
							"internalType": "uint256",
							"name": "executionTime",
							"type": "uint256"
						}
					],
					"name": "cancelTransaction",
					"outputs": [],
					"stateMutability": "nonpayable",
					"type": "function"
				},
				{
					"inputs": [
						{
							"internalType": "address",
							"name": "newAdmin",
							"type": "address"
						}
					],
					"name": "changeAdmin",
					"outputs": [],
					"stateMutability": "nonpayable",
					"type": "function"
				},
				{
					"inputs": [],
					"name": "delay",
					"outputs": [
						{
							"internalType": "uint256",
							"name": "",
							"type": "uint256"
						}
					],
					"stateMutability": "view",
					"type": "function"
				},
				{
					"inputs": [
						{
							"internalType": "address",
							"name": "target",
							"type": "address"
						},
						{
							"internalType": "uint256",
							"name": "value",
							"type": "uint256"
						},
						{
							"internalType": "string",
							"name": "signature",
							"type": "string"
						},
						{
							"internalType": "bytes",
							"name": "data",
							"type": "bytes"
						},
						{
							"internalType": "uint256",
							"name": "executionTime",
							"type": "uint256"
						}
					],
					"name": "executeTransaction",
					"outputs": [
						{
							"internalType": "bytes",
							"name": "",
							"type": "bytes"
						}
					],
					"stateMutability": "payable",
					"type": "function"
				},
				{
					"inputs": [],
					"name": "getBlockTimestamp",
					"outputs": [
						{
							"internalType": "uint256",
							"name": "",
							"type": "uint256"
						}
					],
					"stateMutability": "view",
					"type": "function"
				},
				{
					"inputs": [
						{
							"internalType": "address",
							"name": "target",
							"type": "address"
						},
						{
							"internalType": "uint256",
							"name": "value",
							"type": "uint256"
						},
						{
							"internalType": "string",
							"name": "signature",
							"type": "string"
						},
						{
							"internalType": "bytes",
							"name": "data",
							"type": "bytes"
						},
						{
							"internalType": "uint256",
							"name": "executeTime",
							"type": "uint256"
						}
					],
					"name": "getTxHash",
					"outputs": [
						{
							"internalType": "bytes32",
							"name": "",
							"type": "bytes32"
						}
					],
					"stateMutability": "pure",
					"type": "function"
				},
				{
					"inputs": [
						{
							"internalType": "address",
							"name": "target",
							"type": "address"
						},
						{
							"internalType": "uint256",
							"name": "value",
							"type": "uint256"
						},
						{
							"internalType": "string",
							"name": "signature",
							"type": "string"
						},
						{
							"internalType": "bytes",
							"name": "data",
							"type": "bytes"
						},
						{
							"internalType": "uint256",
							"name": "executionTime",
							"type": "uint256"
						}
					],
					"name": "queueTransaction",
					"outputs": [
						{
							"internalType": "bytes32",
							"name": "",
							"type": "bytes32"
						}
					],
					"stateMutability": "nonpayable",
					"type": "function"
				},
				{
					"inputs": [
						{
							"internalType": "bytes32",
							"name": "",
							"type": "bytes32"
						}
					],
					"name": "queueTransactions",
					"outputs": [
						{
							"internalType": "bool",
							"name": "",
							"type": "bool"
						}
					],
					"stateMutability": "view",
					"type": "function"
				}
			],
			"devdoc": {
				"kind": "dev",
				"methods": {
					"getBlockTimestamp()": {
						"details": "获取当前区块链时间戳"
					},
					"getTxHash(address,uint256,string,bytes,uint256)": {
						"details": "将一堆东西拼成交易的标识符"
					}
				},
				"version": 1
			},
			"evm": {
				"assembly": "    /* \"contracts/TimeLock.sol\":800:6243  contract Timelock{... */\n  mstore(0x40, 0x80)\n    /* \"contracts/TimeLock.sol\":2014:2100  constructor(uint delay_){... */\n  callvalue\n  dup1\n  iszero\n  tag_1\n  jumpi\n  0x00\n  dup1\n  revert\ntag_1:\n  pop\n  mload(0x40)\n  sub(codesize, bytecodeSize)\n  dup1\n  bytecodeSize\n  dup4\n  codecopy\n  dup2\n  dup2\n  add\n  0x40\n  mstore\n  dup2\n  add\n  swap1\n  tag_2\n  swap2\n  swap1\n  tag_3\n  jump\t// in\ntag_2:\n    /* \"contracts/TimeLock.sol\":2057:2063  delay_ */\n  dup1\n    /* \"contracts/TimeLock.sol\":2049:2054  delay */\n  0x01\n    /* \"contracts/TimeLock.sol\":2049:2063  delay = delay_ */\n  dup2\n  swap1\n  sstore\n  pop\n    /* \"contracts/TimeLock.sol\":2082:2092  msg.sender */\n  caller\n    /* \"contracts/TimeLock.sol\":2074:2079  admin */\n  0x00\n  dup1\n    /* \"contracts/TimeLock.sol\":2074:2092  admin = msg.sender */\n  0x0100\n  exp\n  dup2\n  sload\n  dup2\n  0xffffffffffffffffffffffffffffffffffffffff\n  mul\n  not\n  and\n  swap1\n  dup4\n  0xffffffffffffffffffffffffffffffffffffffff\n  and\n  mul\n  or\n  swap1\n  sstore\n  pop\n    /* \"contracts/TimeLock.sol\":2014:2100  constructor(uint delay_){... */\n  pop\n    /* \"contracts/TimeLock.sol\":800:6243  contract Timelock{... */\n  jump(tag_6)\n    /* \"#utility.yul\":88:205   */\ntag_8:\n    /* \"#utility.yul\":197:198   */\n  0x00\n    /* \"#utility.yul\":194:195   */\n  dup1\n    /* \"#utility.yul\":187:199   */\n  revert\n    /* \"#utility.yul\":334:411   */\ntag_10:\n    /* \"#utility.yul\":371:378   */\n  0x00\n    /* \"#utility.yul\":400:405   */\n  dup2\n    /* \"#utility.yul\":389:405   */\n  swap1\n  pop\n    /* \"#utility.yul\":334:411   */\n  swap2\n  swap1\n  pop\n  jump\t// out\n    /* \"#utility.yul\":417:539   */\ntag_11:\n    /* \"#utility.yul\":490:514   */\n  tag_19\n    /* \"#utility.yul\":508:513   */\n  dup2\n    /* \"#utility.yul\":490:514   */\n  tag_10\n  jump\t// in\ntag_19:\n    /* \"#utility.yul\":483:488   */\n  dup2\n    /* \"#utility.yul\":480:515   */\n  eq\n    /* \"#utility.yul\":470:533   */\n  tag_20\n  jumpi\n    /* \"#utility.yul\":529:530   */\n  0x00\n    /* \"#utility.yul\":526:527   */\n  dup1\n    /* \"#utility.yul\":519:531   */\n  revert\n    /* \"#utility.yul\":470:533   */\ntag_20:\n    /* \"#utility.yul\":417:539   */\n  pop\n  jump\t// out\n    /* \"#utility.yul\":545:688   */\ntag_12:\n    /* \"#utility.yul\":602:607   */\n  0x00\n    /* \"#utility.yul\":633:639   */\n  dup2\n    /* \"#utility.yul\":627:640   */\n  mload\n    /* \"#utility.yul\":618:640   */\n  swap1\n  pop\n    /* \"#utility.yul\":649:682   */\n  tag_22\n    /* \"#utility.yul\":676:681   */\n  dup2\n    /* \"#utility.yul\":649:682   */\n  tag_11\n  jump\t// in\ntag_22:\n    /* \"#utility.yul\":545:688   */\n  swap3\n  swap2\n  pop\n  pop\n  jump\t// out\n    /* \"#utility.yul\":694:1045   */\ntag_3:\n    /* \"#utility.yul\":764:770   */\n  0x00\n    /* \"#utility.yul\":813:815   */\n  0x20\n    /* \"#utility.yul\":801:810   */\n  dup3\n    /* \"#utility.yul\":792:799   */\n  dup5\n    /* \"#utility.yul\":788:811   */\n  sub\n    /* \"#utility.yul\":784:816   */\n  slt\n    /* \"#utility.yul\":781:900   */\n  iszero\n  tag_24\n  jumpi\n    /* \"#utility.yul\":819:898   */\n  tag_25\n  tag_8\n  jump\t// in\ntag_25:\n    /* \"#utility.yul\":781:900   */\ntag_24:\n    /* \"#utility.yul\":939:940   */\n  0x00\n    /* \"#utility.yul\":964:1028   */\n  tag_26\n    /* \"#utility.yul\":1020:1027   */\n  dup5\n    /* \"#utility.yul\":1011:1017   */\n  dup3\n    /* \"#utility.yul\":1000:1009   */\n  dup6\n    /* \"#utility.yul\":996:1018   */\n  add\n    /* \"#utility.yul\":964:1028   */\n  tag_12\n  jump\t// in\ntag_26:\n    /* \"#utility.yul\":954:1028   */\n  swap2\n  pop\n    /* \"#utility.yul\":910:1038   */\n  pop\n    /* \"#utility.yul\":694:1045   */\n  swap3\n  swap2\n  pop\n  pop\n  jump\t// out\n    /* \"contracts/TimeLock.sol\":800:6243  contract Timelock{... */\ntag_6:\n  dataSize(sub_0)\n  dup1\n  dataOffset(sub_0)\n  0x00\n  codecopy\n  0x00\n  return\nstop\n\nsub_0: assembly {\n        /* \"contracts/TimeLock.sol\":800:6243  contract Timelock{... */\n      mstore(0x40, 0x80)\n      jumpi(tag_1, lt(calldatasize, 0x04))\n      shr(0xe0, calldataload(0x00))\n      dup1\n      0x796b89b9\n      gt\n      tag_12\n      jumpi\n      dup1\n      0x796b89b9\n      eq\n      tag_7\n      jumpi\n      dup1\n      0x8f283970\n      eq\n      tag_8\n      jumpi\n      dup1\n      0xc1a287e2\n      eq\n      tag_9\n      jumpi\n      dup1\n      0xcf39802d\n      eq\n      tag_10\n      jumpi\n      dup1\n      0xf851a440\n      eq\n      tag_11\n      jumpi\n      jump(tag_1)\n    tag_12:\n      dup1\n      0x04a71576\n      eq\n      tag_2\n      jumpi\n      dup1\n      0x0825f38f\n      eq\n      tag_3\n      jumpi\n      dup1\n      0x3a66f901\n      eq\n      tag_4\n      jumpi\n      dup1\n      0x591fcdfe\n      eq\n      tag_5\n      jumpi\n      dup1\n      0x6a42b8f8\n      eq\n      tag_6\n      jumpi\n    tag_1:\n      0x00\n      dup1\n      revert\n        /* \"contracts/TimeLock.sol\":5947:6230  function getTxHash(... */\n    tag_2:\n      callvalue\n      dup1\n      iszero\n      tag_13\n      jumpi\n      0x00\n      dup1\n      revert\n    tag_13:\n      pop\n      tag_14\n      0x04\n      dup1\n      calldatasize\n      sub\n      dup2\n      add\n      swap1\n      tag_15\n      swap2\n      swap1\n      tag_16\n      jump\t// in\n    tag_15:\n      tag_17\n      jump\t// in\n    tag_14:\n      mload(0x40)\n      tag_18\n      swap2\n      swap1\n      tag_19\n      jump\t// in\n    tag_18:\n      mload(0x40)\n      dup1\n      swap2\n      sub\n      swap1\n      return\n        /* \"contracts/TimeLock.sol\":4134:5689  function executeTransaction(... */\n    tag_3:\n      tag_20\n      0x04\n      dup1\n      calldatasize\n      sub\n      dup2\n      add\n      swap1\n      tag_21\n      swap2\n      swap1\n      tag_16\n      jump\t// in\n    tag_21:\n      tag_22\n      jump\t// in\n    tag_20:\n      mload(0x40)\n      tag_23\n      swap2\n      swap1\n      tag_24\n      jump\t// in\n    tag_23:\n      mload(0x40)\n      dup1\n      swap2\n      sub\n      swap1\n      return\n        /* \"contracts/TimeLock.sol\":2446:3166  function queueTransaction(... */\n    tag_4:\n      callvalue\n      dup1\n      iszero\n      tag_25\n      jumpi\n      0x00\n      dup1\n      revert\n    tag_25:\n      pop\n      tag_26\n      0x04\n      dup1\n      calldatasize\n      sub\n      dup2\n      add\n      swap1\n      tag_27\n      swap2\n      swap1\n      tag_16\n      jump\t// in\n    tag_27:\n      tag_28\n      jump\t// in\n    tag_26:\n      mload(0x40)\n      tag_29\n      swap2\n      swap1\n      tag_19\n      jump\t// in\n    tag_29:\n      mload(0x40)\n      dup1\n      swap2\n      sub\n      swap1\n      return\n        /* \"contracts/TimeLock.sol\":3276:3824  function cancelTransaction(... */\n    tag_5:\n      callvalue\n      dup1\n      iszero\n      tag_30\n      jumpi\n      0x00\n      dup1\n      revert\n    tag_30:\n      pop\n      tag_31\n      0x04\n      dup1\n      calldatasize\n      sub\n      dup2\n      add\n      swap1\n      tag_32\n      swap2\n      swap1\n      tag_16\n      jump\t// in\n    tag_32:\n      tag_33\n      jump\t// in\n    tag_31:\n      stop\n        /* \"contracts/TimeLock.sol\":1516:1533  uint public delay */\n    tag_6:\n      callvalue\n      dup1\n      iszero\n      tag_34\n      jumpi\n      0x00\n      dup1\n      revert\n    tag_34:\n      pop\n      tag_35\n      tag_36\n      jump\t// in\n    tag_35:\n      mload(0x40)\n      tag_37\n      swap2\n      swap1\n      tag_38\n      jump\t// in\n    tag_37:\n      mload(0x40)\n      dup1\n      swap2\n      sub\n      swap1\n      return\n        /* \"contracts/TimeLock.sol\":5768:5865  function getBlockTimestamp() public view returns (uint) {... */\n    tag_7:\n      callvalue\n      dup1\n      iszero\n      tag_39\n      jumpi\n      0x00\n      dup1\n      revert\n    tag_39:\n      pop\n      tag_40\n      tag_41\n      jump\t// in\n    tag_40:\n      mload(0x40)\n      tag_42\n      swap2\n      swap1\n      tag_38\n      jump\t// in\n    tag_42:\n      mload(0x40)\n      dup1\n      swap2\n      sub\n      swap1\n      return\n        /* \"contracts/TimeLock.sol\":2311:2438  function changeAdmin(address newAdmin) public onlyTimeLock{... */\n    tag_8:\n      callvalue\n      dup1\n      iszero\n      tag_43\n      jumpi\n      0x00\n      dup1\n      revert\n    tag_43:\n      pop\n      tag_44\n      0x04\n      dup1\n      calldatasize\n      sub\n      dup2\n      add\n      swap1\n      tag_45\n      swap2\n      swap1\n      tag_46\n      jump\t// in\n    tag_45:\n      tag_47\n      jump\t// in\n    tag_44:\n      stop\n        /* \"contracts/TimeLock.sol\":1426:1468  uint public constant GRACE_PERIOD = 7 days */\n    tag_9:\n      callvalue\n      dup1\n      iszero\n      tag_48\n      jumpi\n      0x00\n      dup1\n      revert\n    tag_48:\n      pop\n      tag_49\n      tag_50\n      jump\t// in\n    tag_49:\n      mload(0x40)\n      tag_51\n      swap2\n      swap1\n      tag_38\n      jump\t// in\n    tag_51:\n      mload(0x40)\n      dup1\n      swap2\n      sub\n      swap1\n      return\n        /* \"contracts/TimeLock.sol\":1565:1615  mapping(bytes32 => bool ) public queueTransactions */\n    tag_10:\n      callvalue\n      dup1\n      iszero\n      tag_52\n      jumpi\n      0x00\n      dup1\n      revert\n    tag_52:\n      pop\n      tag_53\n      0x04\n      dup1\n      calldatasize\n      sub\n      dup2\n      add\n      swap1\n      tag_54\n      swap2\n      swap1\n      tag_55\n      jump\t// in\n    tag_54:\n      tag_56\n      jump\t// in\n    tag_53:\n      mload(0x40)\n      tag_57\n      swap2\n      swap1\n      tag_58\n      jump\t// in\n    tag_57:\n      mload(0x40)\n      dup1\n      swap2\n      sub\n      swap1\n      return\n        /* \"contracts/TimeLock.sol\":1399:1419  address public admin */\n    tag_11:\n      callvalue\n      dup1\n      iszero\n      tag_59\n      jumpi\n      0x00\n      dup1\n      revert\n    tag_59:\n      pop\n      tag_60\n      tag_61\n      jump\t// in\n    tag_60:\n      mload(0x40)\n      tag_62\n      swap2\n      swap1\n      tag_63\n      jump\t// in\n    tag_62:\n      mload(0x40)\n      dup1\n      swap2\n      sub\n      swap1\n      return\n        /* \"contracts/TimeLock.sol\":5947:6230  function getTxHash(... */\n    tag_17:\n        /* \"contracts/TimeLock.sol\":6129:6136  bytes32 */\n      0x00\n        /* \"contracts/TimeLock.sol\":6177:6183  target */\n      dup6\n        /* \"contracts/TimeLock.sol\":6185:6190  value */\n      dup6\n        /* \"contracts/TimeLock.sol\":6192:6201  signature */\n      dup6\n        /* \"contracts/TimeLock.sol\":6203:6207  data */\n      dup6\n        /* \"contracts/TimeLock.sol\":6209:6220  executeTime */\n      dup6\n        /* \"contracts/TimeLock.sol\":6166:6221  abi.encode(target, value, signature, data, executeTime) */\n      add(0x20, mload(0x40))\n      tag_65\n      swap6\n      swap5\n      swap4\n      swap3\n      swap2\n      swap1\n      tag_66\n      jump\t// in\n    tag_65:\n      mload(0x40)\n      0x20\n      dup2\n      dup4\n      sub\n      sub\n      dup2\n      mstore\n      swap1\n      0x40\n      mstore\n        /* \"contracts/TimeLock.sol\":6156:6222  keccak256(abi.encode(target, value, signature, data, executeTime)) */\n      dup1\n      mload\n      swap1\n      0x20\n      add\n      keccak256\n        /* \"contracts/TimeLock.sol\":6149:6222  return keccak256(abi.encode(target, value, signature, data, executeTime)) */\n      swap1\n      pop\n        /* \"contracts/TimeLock.sol\":5947:6230  function getTxHash(... */\n      swap6\n      swap5\n      pop\n      pop\n      pop\n      pop\n      pop\n      jump\t// out\n        /* \"contracts/TimeLock.sol\":4134:5689  function executeTransaction(... */\n    tag_22:\n        /* \"contracts/TimeLock.sol\":4310:4322  bytes memory */\n      0x60\n        /* \"contracts/TimeLock.sol\":1730:1735  admin */\n      0x00\n      dup1\n      sload\n      swap1\n      0x0100\n      exp\n      swap1\n      div\n      0xffffffffffffffffffffffffffffffffffffffff\n      and\n        /* \"contracts/TimeLock.sol\":1716:1735  msg.sender == admin */\n      0xffffffffffffffffffffffffffffffffffffffff\n      and\n        /* \"contracts/TimeLock.sol\":1716:1726  msg.sender */\n      caller\n        /* \"contracts/TimeLock.sol\":1716:1735  msg.sender == admin */\n      0xffffffffffffffffffffffffffffffffffffffff\n      and\n      eq\n        /* \"contracts/TimeLock.sol\":1708:1766  require(msg.sender == admin, \"TimeLock: caller not admin\") */\n      tag_68\n      jumpi\n      mload(0x40)\n      0x08c379a000000000000000000000000000000000000000000000000000000000\n      dup2\n      mstore\n      0x04\n      add\n      tag_69\n      swap1\n      tag_70\n      jump\t// in\n    tag_69:\n      mload(0x40)\n      dup1\n      swap2\n      sub\n      swap1\n      revert\n    tag_68:\n        /* \"contracts/TimeLock.sol\":4338:4352  bytes32 txHash */\n      0x00\n        /* \"contracts/TimeLock.sol\":4355:4411  getTxHash(target, value, signature, data, executionTime) */\n      tag_72\n        /* \"contracts/TimeLock.sol\":4365:4371  target */\n      dup8\n        /* \"contracts/TimeLock.sol\":4373:4378  value */\n      dup8\n        /* \"contracts/TimeLock.sol\":4380:4389  signature */\n      dup8\n        /* \"contracts/TimeLock.sol\":4391:4395  data */\n      dup8\n        /* \"contracts/TimeLock.sol\":4397:4410  executionTime */\n      dup8\n        /* \"contracts/TimeLock.sol\":4355:4364  getTxHash */\n      tag_17\n        /* \"contracts/TimeLock.sol\":4355:4411  getTxHash(target, value, signature, data, executionTime) */\n      jump\t// in\n    tag_72:\n        /* \"contracts/TimeLock.sol\":4338:4411  bytes32 txHash = getTxHash(target, value, signature, data, executionTime) */\n      swap1\n      pop\n        /* \"contracts/TimeLock.sol\":4502:4519  queueTransactions */\n      0x02\n        /* \"contracts/TimeLock.sol\":4502:4527  queueTransactions[txHash] */\n      0x00\n        /* \"contracts/TimeLock.sol\":4520:4526  txHash */\n      dup3\n        /* \"contracts/TimeLock.sol\":4502:4527  queueTransactions[txHash] */\n      dup2\n      mstore\n      0x20\n      add\n      swap1\n      dup2\n      mstore\n      0x20\n      add\n      0x00\n      keccak256\n      0x00\n      swap1\n      sload\n      swap1\n      0x0100\n      exp\n      swap1\n      div\n      0xff\n      and\n        /* \"contracts/TimeLock.sol\":4494:4591  require(queueTransactions[txHash],\"TimeLock::executeTransaction: transaction hasn't been queued\") */\n      tag_73\n      jumpi\n      mload(0x40)\n      0x08c379a000000000000000000000000000000000000000000000000000000000\n      dup2\n      mstore\n      0x04\n      add\n      tag_74\n      swap1\n      tag_75\n      jump\t// in\n    tag_74:\n      mload(0x40)\n      dup1\n      swap2\n      sub\n      swap1\n      revert\n    tag_73:\n        /* \"contracts/TimeLock.sol\":4680:4693  executionTime */\n      dup3\n        /* \"contracts/TimeLock.sol\":4657:4676  getBlockTimestamp() */\n      tag_76\n        /* \"contracts/TimeLock.sol\":4657:4674  getBlockTimestamp */\n      tag_41\n        /* \"contracts/TimeLock.sol\":4657:4676  getBlockTimestamp() */\n      jump\t// in\n    tag_76:\n        /* \"contracts/TimeLock.sol\":4657:4693  getBlockTimestamp() >= executionTime */\n      lt\n      iszero\n        /* \"contracts/TimeLock.sol\":4649:4761  require(getBlockTimestamp() >= executionTime, \"TimeLock::executeTransaction: transaction hasn't surpassed time\") */\n      tag_77\n      jumpi\n      mload(0x40)\n      0x08c379a000000000000000000000000000000000000000000000000000000000\n      dup2\n      mstore\n      0x04\n      add\n      tag_78\n      swap1\n      tag_79\n      jump\t// in\n    tag_78:\n      mload(0x40)\n      dup1\n      swap2\n      sub\n      swap1\n      revert\n    tag_77:\n        /* \"contracts/TimeLock.sol\":1462:1468  7 days */\n      0x093a80\n        /* \"contracts/TimeLock.sol\":4857:4870  executionTime */\n      dup4\n        /* \"contracts/TimeLock.sol\":4857:4885  executionTime + GRACE_PERIOD */\n      tag_80\n      swap2\n      swap1\n      tag_81\n      jump\t// in\n    tag_80:\n        /* \"contracts/TimeLock.sol\":4834:4853  getBlockTimestamp() */\n      tag_82\n        /* \"contracts/TimeLock.sol\":4834:4851  getBlockTimestamp */\n      tag_41\n        /* \"contracts/TimeLock.sol\":4834:4853  getBlockTimestamp() */\n      jump\t// in\n    tag_82:\n        /* \"contracts/TimeLock.sol\":4834:4885  getBlockTimestamp() <= executionTime + GRACE_PERIOD */\n      gt\n      iszero\n        /* \"contracts/TimeLock.sol\":4826:4942  require(getBlockTimestamp() <= executionTime + GRACE_PERIOD, \"TimeLock::executionTransaction: transaction is stale\") */\n      tag_83\n      jumpi\n      mload(0x40)\n      0x08c379a000000000000000000000000000000000000000000000000000000000\n      dup2\n      mstore\n      0x04\n      add\n      tag_84\n      swap1\n      tag_85\n      jump\t// in\n    tag_84:\n      mload(0x40)\n      dup1\n      swap2\n      sub\n      swap1\n      revert\n    tag_83:\n        /* \"contracts/TimeLock.sol\":5034:5039  false */\n      0x00\n        /* \"contracts/TimeLock.sol\":5006:5023  queueTransactions */\n      0x02\n        /* \"contracts/TimeLock.sol\":5006:5031  queueTransactions[txHash] */\n      0x00\n        /* \"contracts/TimeLock.sol\":5024:5030  txHash */\n      dup4\n        /* \"contracts/TimeLock.sol\":5006:5031  queueTransactions[txHash] */\n      dup2\n      mstore\n      0x20\n      add\n      swap1\n      dup2\n      mstore\n      0x20\n      add\n      0x00\n      keccak256\n      0x00\n        /* \"contracts/TimeLock.sol\":5006:5039  queueTransactions[txHash] = false */\n      0x0100\n      exp\n      dup2\n      sload\n      dup2\n      0xff\n      mul\n      not\n      and\n      swap1\n      dup4\n      iszero\n      iszero\n      mul\n      or\n      swap1\n      sstore\n      pop\n        /* \"contracts/TimeLock.sol\":5086:5107  bytes memory callData */\n      0x60\n        /* \"contracts/TimeLock.sol\":5152:5153  0 */\n      0x00\n        /* \"contracts/TimeLock.sol\":5131:5140  signature */\n      dup7\n        /* \"contracts/TimeLock.sol\":5125:5148  bytes(signature).length */\n      mload\n        /* \"contracts/TimeLock.sol\":5125:5153  bytes(signature).length == 0 */\n      sub\n        /* \"contracts/TimeLock.sol\":5122:5312  if(bytes(signature).length == 0){... */\n      tag_86\n      jumpi\n        /* \"contracts/TimeLock.sol\":5184:5188  data */\n      dup5\n        /* \"contracts/TimeLock.sol\":5173:5188  callData = data */\n      swap1\n      pop\n        /* \"contracts/TimeLock.sol\":5122:5312  if(bytes(signature).length == 0){... */\n      jump(tag_87)\n    tag_86:\n        /* \"contracts/TimeLock.sol\":5278:5287  signature */\n      dup6\n        /* \"contracts/TimeLock.sol\":5262:5289  keccak256(bytes(signature)) */\n      dup1\n      mload\n      swap1\n      0x20\n      add\n      keccak256\n        /* \"contracts/TimeLock.sol\":5291:5295  data */\n      dup6\n        /* \"contracts/TimeLock.sol\":5238:5296  abi.encodePacked(bytes4(keccak256(bytes(signature))),data) */\n      add(0x20, mload(0x40))\n      tag_88\n      swap3\n      swap2\n      swap1\n      tag_89\n      jump\t// in\n    tag_88:\n      mload(0x40)\n      0x20\n      dup2\n      dup4\n      sub\n      sub\n      dup2\n      mstore\n      swap1\n      0x40\n      mstore\n        /* \"contracts/TimeLock.sol\":5227:5296  callData = abi.encodePacked(bytes4(keccak256(bytes(signature))),data) */\n      swap1\n      pop\n        /* \"contracts/TimeLock.sol\":5122:5312  if(bytes(signature).length == 0){... */\n    tag_87:\n        /* \"contracts/TimeLock.sol\":5379:5391  bool success */\n      0x00\n        /* \"contracts/TimeLock.sol\":5393:5416  bytes memory returnData */\n      dup1\n        /* \"contracts/TimeLock.sol\":5420:5426  target */\n      dup10\n        /* \"contracts/TimeLock.sol\":5420:5431  target.call */\n      0xffffffffffffffffffffffffffffffffffffffff\n      and\n        /* \"contracts/TimeLock.sol\":5439:5444  value */\n      dup10\n        /* \"contracts/TimeLock.sol\":5446:5454  callData */\n      dup5\n        /* \"contracts/TimeLock.sol\":5420:5455  target.call{value: value}(callData) */\n      mload(0x40)\n      tag_90\n      swap2\n      swap1\n      tag_91\n      jump\t// in\n    tag_90:\n      0x00\n      mload(0x40)\n      dup1\n      dup4\n      sub\n      dup2\n      dup6\n      dup8\n      gas\n      call\n      swap3\n      pop\n      pop\n      pop\n      returndatasize\n      dup1\n      0x00\n      dup2\n      eq\n      tag_94\n      jumpi\n      mload(0x40)\n      swap2\n      pop\n      and(add(returndatasize, 0x3f), not(0x1f))\n      dup3\n      add\n      0x40\n      mstore\n      returndatasize\n      dup3\n      mstore\n      returndatasize\n      0x00\n      0x20\n      dup5\n      add\n      returndatacopy\n      jump(tag_93)\n    tag_94:\n      0x60\n      swap2\n      pop\n    tag_93:\n      pop\n        /* \"contracts/TimeLock.sol\":5378:5455  (bool success, bytes memory returnData) = target.call{value: value}(callData) */\n      swap2\n      pop\n      swap2\n      pop\n        /* \"contracts/TimeLock.sol\":5478:5485  success */\n      dup2\n        /* \"contracts/TimeLock.sol\":5470:5550  require(success,\"TimeLock::executeTransaction: Transaction execution reverted.\") */\n      tag_95\n      jumpi\n      mload(0x40)\n      0x08c379a000000000000000000000000000000000000000000000000000000000\n      dup2\n      mstore\n      0x04\n      add\n      tag_96\n      swap1\n      tag_97\n      jump\t// in\n    tag_96:\n      mload(0x40)\n      dup1\n      swap2\n      sub\n      swap1\n      revert\n    tag_95:\n        /* \"contracts/TimeLock.sol\":5599:5605  target */\n      dup10\n        /* \"contracts/TimeLock.sol\":5572:5645  ExecuteTransaction(txHash, target, value, signature, data, executionTime) */\n      0xffffffffffffffffffffffffffffffffffffffff\n      and\n        /* \"contracts/TimeLock.sol\":5591:5597  txHash */\n      dup5\n        /* \"contracts/TimeLock.sol\":5572:5645  ExecuteTransaction(txHash, target, value, signature, data, executionTime) */\n      0xa560e3198060a2f10670c1ec5b403077ea6ae93ca8de1c32b451dc1a943cd6e7\n        /* \"contracts/TimeLock.sol\":5607:5612  value */\n      dup12\n        /* \"contracts/TimeLock.sol\":5614:5623  signature */\n      dup12\n        /* \"contracts/TimeLock.sol\":5625:5629  data */\n      dup12\n        /* \"contracts/TimeLock.sol\":5631:5644  executionTime */\n      dup12\n        /* \"contracts/TimeLock.sol\":5572:5645  ExecuteTransaction(txHash, target, value, signature, data, executionTime) */\n      mload(0x40)\n      tag_98\n      swap5\n      swap4\n      swap3\n      swap2\n      swap1\n      tag_99\n      jump\t// in\n    tag_98:\n      mload(0x40)\n      dup1\n      swap2\n      sub\n      swap1\n      log3\n        /* \"contracts/TimeLock.sol\":5669:5679  returnData */\n      dup1\n        /* \"contracts/TimeLock.sol\":5662:5679  return returnData */\n      swap5\n      pop\n      pop\n      pop\n      pop\n      pop\n        /* \"contracts/TimeLock.sol\":4134:5689  function executeTransaction(... */\n      swap6\n      swap5\n      pop\n      pop\n      pop\n      pop\n      pop\n      jump\t// out\n        /* \"contracts/TimeLock.sol\":2446:3166  function queueTransaction(... */\n    tag_28:\n        /* \"contracts/TimeLock.sol\":2610:2617  bytes32 */\n      0x00\n        /* \"contracts/TimeLock.sol\":1730:1735  admin */\n      dup1\n      0x00\n      swap1\n      sload\n      swap1\n      0x0100\n      exp\n      swap1\n      div\n      0xffffffffffffffffffffffffffffffffffffffff\n      and\n        /* \"contracts/TimeLock.sol\":1716:1735  msg.sender == admin */\n      0xffffffffffffffffffffffffffffffffffffffff\n      and\n        /* \"contracts/TimeLock.sol\":1716:1726  msg.sender */\n      caller\n        /* \"contracts/TimeLock.sol\":1716:1735  msg.sender == admin */\n      0xffffffffffffffffffffffffffffffffffffffff\n      and\n      eq\n        /* \"contracts/TimeLock.sol\":1708:1766  require(msg.sender == admin, \"TimeLock: caller not admin\") */\n      tag_101\n      jumpi\n      mload(0x40)\n      0x08c379a000000000000000000000000000000000000000000000000000000000\n      dup2\n      mstore\n      0x04\n      add\n      tag_102\n      swap1\n      tag_70\n      jump\t// in\n    tag_102:\n      mload(0x40)\n      dup1\n      swap2\n      sub\n      swap1\n      revert\n    tag_101:\n        /* \"contracts/TimeLock.sol\":2740:2745  delay */\n      sload(0x01)\n        /* \"contracts/TimeLock.sol\":2718:2737  getBlockTimestamp() */\n      tag_104\n        /* \"contracts/TimeLock.sol\":2718:2735  getBlockTimestamp */\n      tag_41\n        /* \"contracts/TimeLock.sol\":2718:2737  getBlockTimestamp() */\n      jump\t// in\n    tag_104:\n        /* \"contracts/TimeLock.sol\":2718:2745  getBlockTimestamp() + delay */\n      tag_105\n      swap2\n      swap1\n      tag_81\n      jump\t// in\n    tag_105:\n        /* \"contracts/TimeLock.sol\":2701:2714  executionTime */\n      dup3\n        /* \"contracts/TimeLock.sol\":2701:2745  executionTime >= getBlockTimestamp() + delay */\n      lt\n      iszero\n        /* \"contracts/TimeLock.sol\":2693:2805  require(executionTime >= getBlockTimestamp() + delay, \"TimeLock:: queueTransaction: Estimated execution block \") */\n      tag_106\n      jumpi\n      mload(0x40)\n      0x08c379a000000000000000000000000000000000000000000000000000000000\n      dup2\n      mstore\n      0x04\n      add\n      tag_107\n      swap1\n      tag_108\n      jump\t// in\n    tag_107:\n      mload(0x40)\n      dup1\n      swap2\n      sub\n      swap1\n      revert\n    tag_106:\n        /* \"contracts/TimeLock.sol\":2893:2907  bytes32 txHash */\n      0x00\n        /* \"contracts/TimeLock.sol\":2910:2966  getTxHash(target, value, signature, data, executionTime) */\n      tag_109\n        /* \"contracts/TimeLock.sol\":2920:2926  target */\n      dup8\n        /* \"contracts/TimeLock.sol\":2928:2933  value */\n      dup8\n        /* \"contracts/TimeLock.sol\":2935:2944  signature */\n      dup8\n        /* \"contracts/TimeLock.sol\":2946:2950  data */\n      dup8\n        /* \"contracts/TimeLock.sol\":2952:2965  executionTime */\n      dup8\n        /* \"contracts/TimeLock.sol\":2910:2919  getTxHash */\n      tag_17\n        /* \"contracts/TimeLock.sol\":2910:2966  getTxHash(target, value, signature, data, executionTime) */\n      jump\t// in\n    tag_109:\n        /* \"contracts/TimeLock.sol\":2893:2966  bytes32 txHash = getTxHash(target, value, signature, data, executionTime) */\n      swap1\n      pop\n        /* \"contracts/TimeLock.sol\":3041:3045  true */\n      0x01\n        /* \"contracts/TimeLock.sol\":3013:3030  queueTransactions */\n      0x02\n        /* \"contracts/TimeLock.sol\":3013:3038  queueTransactions[txHash] */\n      0x00\n        /* \"contracts/TimeLock.sol\":3031:3037  txHash */\n      dup4\n        /* \"contracts/TimeLock.sol\":3013:3038  queueTransactions[txHash] */\n      dup2\n      mstore\n      0x20\n      add\n      swap1\n      dup2\n      mstore\n      0x20\n      add\n      0x00\n      keccak256\n      0x00\n        /* \"contracts/TimeLock.sol\":3013:3045  queueTransactions[txHash] = true */\n      0x0100\n      exp\n      dup2\n      sload\n      dup2\n      0xff\n      mul\n      not\n      and\n      swap1\n      dup4\n      iszero\n      iszero\n      mul\n      or\n      swap1\n      sstore\n      pop\n        /* \"contracts/TimeLock.sol\":3088:3094  target */\n      dup7\n        /* \"contracts/TimeLock.sol\":3063:3134  QueueTransaction(txHash, target, value, signature, data, executionTime) */\n      0xffffffffffffffffffffffffffffffffffffffff\n      and\n        /* \"contracts/TimeLock.sol\":3080:3086  txHash */\n      dup2\n        /* \"contracts/TimeLock.sol\":3063:3134  QueueTransaction(txHash, target, value, signature, data, executionTime) */\n      0x76e2796dc3a81d57b0e8504b647febcbeeb5f4af818e164f11eef8131a6a763f\n        /* \"contracts/TimeLock.sol\":3096:3101  value */\n      dup9\n        /* \"contracts/TimeLock.sol\":3103:3112  signature */\n      dup9\n        /* \"contracts/TimeLock.sol\":3114:3118  data */\n      dup9\n        /* \"contracts/TimeLock.sol\":3120:3133  executionTime */\n      dup9\n        /* \"contracts/TimeLock.sol\":3063:3134  QueueTransaction(txHash, target, value, signature, data, executionTime) */\n      mload(0x40)\n      tag_110\n      swap5\n      swap4\n      swap3\n      swap2\n      swap1\n      tag_99\n      jump\t// in\n    tag_110:\n      mload(0x40)\n      dup1\n      swap2\n      sub\n      swap1\n      log3\n        /* \"contracts/TimeLock.sol\":3152:3158  txHash */\n      dup1\n        /* \"contracts/TimeLock.sol\":3145:3158  return txHash */\n      swap2\n      pop\n      pop\n        /* \"contracts/TimeLock.sol\":2446:3166  function queueTransaction(... */\n      swap6\n      swap5\n      pop\n      pop\n      pop\n      pop\n      pop\n      jump\t// out\n        /* \"contracts/TimeLock.sol\":3276:3824  function cancelTransaction(... */\n    tag_33:\n        /* \"contracts/TimeLock.sol\":1730:1735  admin */\n      0x00\n      dup1\n      sload\n      swap1\n      0x0100\n      exp\n      swap1\n      div\n      0xffffffffffffffffffffffffffffffffffffffff\n      and\n        /* \"contracts/TimeLock.sol\":1716:1735  msg.sender == admin */\n      0xffffffffffffffffffffffffffffffffffffffff\n      and\n        /* \"contracts/TimeLock.sol\":1716:1726  msg.sender */\n      caller\n        /* \"contracts/TimeLock.sol\":1716:1735  msg.sender == admin */\n      0xffffffffffffffffffffffffffffffffffffffff\n      and\n      eq\n        /* \"contracts/TimeLock.sol\":1708:1766  require(msg.sender == admin, \"TimeLock: caller not admin\") */\n      tag_112\n      jumpi\n      mload(0x40)\n      0x08c379a000000000000000000000000000000000000000000000000000000000\n      dup2\n      mstore\n      0x04\n      add\n      tag_113\n      swap1\n      tag_70\n      jump\t// in\n    tag_113:\n      mload(0x40)\n      dup1\n      swap2\n      sub\n      swap1\n      revert\n    tag_112:\n        /* \"contracts/TimeLock.sol\":3536:3550  bytes32 txHash */\n      0x00\n        /* \"contracts/TimeLock.sol\":3553:3609  getTxHash(target, value, signature, data, executionTime) */\n      tag_115\n        /* \"contracts/TimeLock.sol\":3563:3569  target */\n      dup7\n        /* \"contracts/TimeLock.sol\":3571:3576  value */\n      dup7\n        /* \"contracts/TimeLock.sol\":3578:3587  signature */\n      dup7\n        /* \"contracts/TimeLock.sol\":3589:3593  data */\n      dup7\n        /* \"contracts/TimeLock.sol\":3595:3608  executionTime */\n      dup7\n        /* \"contracts/TimeLock.sol\":3553:3562  getTxHash */\n      tag_17\n        /* \"contracts/TimeLock.sol\":3553:3609  getTxHash(target, value, signature, data, executionTime) */\n      jump\t// in\n    tag_115:\n        /* \"contracts/TimeLock.sol\":3536:3609  bytes32 txHash = getTxHash(target, value, signature, data, executionTime) */\n      swap1\n      pop\n        /* \"contracts/TimeLock.sol\":3721:3726  false */\n      0x00\n        /* \"contracts/TimeLock.sol\":3693:3710  queueTransactions */\n      0x02\n        /* \"contracts/TimeLock.sol\":3693:3718  queueTransactions[txHash] */\n      0x00\n        /* \"contracts/TimeLock.sol\":3711:3717  txHash */\n      dup4\n        /* \"contracts/TimeLock.sol\":3693:3718  queueTransactions[txHash] */\n      dup2\n      mstore\n      0x20\n      add\n      swap1\n      dup2\n      mstore\n      0x20\n      add\n      0x00\n      keccak256\n      0x00\n        /* \"contracts/TimeLock.sol\":3693:3726  queueTransactions[txHash] = false */\n      0x0100\n      exp\n      dup2\n      sload\n      dup2\n      0xff\n      mul\n      not\n      and\n      swap1\n      dup4\n      iszero\n      iszero\n      mul\n      or\n      swap1\n      sstore\n      pop\n        /* \"contracts/TimeLock.sol\":3770:3776  target */\n      dup6\n        /* \"contracts/TimeLock.sol\":3744:3816  CancelTransaction(txHash, target, value, signature, data, executionTime) */\n      0xffffffffffffffffffffffffffffffffffffffff\n      and\n        /* \"contracts/TimeLock.sol\":3762:3768  txHash */\n      dup2\n        /* \"contracts/TimeLock.sol\":3744:3816  CancelTransaction(txHash, target, value, signature, data, executionTime) */\n      0x2fffc091a501fd91bfbff27141450d3acb40fb8e6d8382b243ec7a812a3aaf87\n        /* \"contracts/TimeLock.sol\":3778:3783  value */\n      dup8\n        /* \"contracts/TimeLock.sol\":3785:3794  signature */\n      dup8\n        /* \"contracts/TimeLock.sol\":3796:3800  data */\n      dup8\n        /* \"contracts/TimeLock.sol\":3802:3815  executionTime */\n      dup8\n        /* \"contracts/TimeLock.sol\":3744:3816  CancelTransaction(txHash, target, value, signature, data, executionTime) */\n      mload(0x40)\n      tag_116\n      swap5\n      swap4\n      swap3\n      swap2\n      swap1\n      tag_99\n      jump\t// in\n    tag_116:\n      mload(0x40)\n      dup1\n      swap2\n      sub\n      swap1\n      log3\n        /* \"contracts/TimeLock.sol\":3433:3824  {... */\n      pop\n        /* \"contracts/TimeLock.sol\":3276:3824  function cancelTransaction(... */\n      pop\n      pop\n      pop\n      pop\n      pop\n      jump\t// out\n        /* \"contracts/TimeLock.sol\":1516:1533  uint public delay */\n    tag_36:\n      sload(0x01)\n      dup2\n      jump\t// out\n        /* \"contracts/TimeLock.sol\":5768:5865  function getBlockTimestamp() public view returns (uint) {... */\n    tag_41:\n        /* \"contracts/TimeLock.sol\":5818:5822  uint */\n      0x00\n        /* \"contracts/TimeLock.sol\":5842:5857  block.timestamp */\n      timestamp\n        /* \"contracts/TimeLock.sol\":5835:5857  return block.timestamp */\n      swap1\n      pop\n        /* \"contracts/TimeLock.sol\":5768:5865  function getBlockTimestamp() public view returns (uint) {... */\n      swap1\n      jump\t// out\n        /* \"contracts/TimeLock.sol\":2311:2438  function changeAdmin(address newAdmin) public onlyTimeLock{... */\n    tag_47:\n        /* \"contracts/TimeLock.sol\":1886:1890  this */\n      address\n        /* \"contracts/TimeLock.sol\":1864:1891  msg.sender == address(this) */\n      0xffffffffffffffffffffffffffffffffffffffff\n      and\n        /* \"contracts/TimeLock.sol\":1864:1874  msg.sender */\n      caller\n        /* \"contracts/TimeLock.sol\":1864:1891  msg.sender == address(this) */\n      0xffffffffffffffffffffffffffffffffffffffff\n      and\n      eq\n        /* \"contracts/TimeLock.sol\":1856:1925  require(msg.sender == address(this), \"TimeLock: caller not TimeLock\") */\n      tag_119\n      jumpi\n      mload(0x40)\n      0x08c379a000000000000000000000000000000000000000000000000000000000\n      dup2\n      mstore\n      0x04\n      add\n      tag_120\n      swap1\n      tag_121\n      jump\t// in\n    tag_120:\n      mload(0x40)\n      dup1\n      swap2\n      sub\n      swap1\n      revert\n    tag_119:\n        /* \"contracts/TimeLock.sol\":2388:2396  newAdmin */\n      dup1\n        /* \"contracts/TimeLock.sol\":2380:2385  admin */\n      0x00\n      dup1\n        /* \"contracts/TimeLock.sol\":2380:2396  admin = newAdmin */\n      0x0100\n      exp\n      dup2\n      sload\n      dup2\n      0xffffffffffffffffffffffffffffffffffffffff\n      mul\n      not\n      and\n      swap1\n      dup4\n      0xffffffffffffffffffffffffffffffffffffffff\n      and\n      mul\n      or\n      swap1\n      sstore\n      pop\n        /* \"contracts/TimeLock.sol\":2421:2429  newAdmin */\n      dup1\n        /* \"contracts/TimeLock.sol\":2412:2430  NewAdmin(newAdmin) */\n      0xffffffffffffffffffffffffffffffffffffffff\n      and\n      0x71614071b88dee5e0b2ae578a9dd7b2ebbe9ae832ba419dc0242cd065a290b6c\n      mload(0x40)\n      mload(0x40)\n      dup1\n      swap2\n      sub\n      swap1\n      log2\n        /* \"contracts/TimeLock.sol\":2311:2438  function changeAdmin(address newAdmin) public onlyTimeLock{... */\n      pop\n      jump\t// out\n        /* \"contracts/TimeLock.sol\":1426:1468  uint public constant GRACE_PERIOD = 7 days */\n    tag_50:\n        /* \"contracts/TimeLock.sol\":1462:1468  7 days */\n      0x093a80\n        /* \"contracts/TimeLock.sol\":1426:1468  uint public constant GRACE_PERIOD = 7 days */\n      dup2\n      jump\t// out\n        /* \"contracts/TimeLock.sol\":1565:1615  mapping(bytes32 => bool ) public queueTransactions */\n    tag_56:\n      mstore(0x20, 0x02)\n      dup1\n      0x00\n      mstore\n      keccak256(0x00, 0x40)\n      0x00\n      swap2\n      pop\n      sload\n      swap1\n      0x0100\n      exp\n      swap1\n      div\n      0xff\n      and\n      dup2\n      jump\t// out\n        /* \"contracts/TimeLock.sol\":1399:1419  address public admin */\n    tag_61:\n      0x00\n      dup1\n      sload\n      swap1\n      0x0100\n      exp\n      swap1\n      div\n      0xffffffffffffffffffffffffffffffffffffffff\n      and\n      dup2\n      jump\t// out\n        /* \"#utility.yul\":7:82   */\n    tag_123:\n        /* \"#utility.yul\":40:46   */\n      0x00\n        /* \"#utility.yul\":73:75   */\n      0x40\n        /* \"#utility.yul\":67:76   */\n      mload\n        /* \"#utility.yul\":57:76   */\n      swap1\n      pop\n        /* \"#utility.yul\":7:82   */\n      swap1\n      jump\t// out\n        /* \"#utility.yul\":88:205   */\n    tag_124:\n        /* \"#utility.yul\":197:198   */\n      0x00\n        /* \"#utility.yul\":194:195   */\n      dup1\n        /* \"#utility.yul\":187:199   */\n      revert\n        /* \"#utility.yul\":211:328   */\n    tag_125:\n        /* \"#utility.yul\":320:321   */\n      0x00\n        /* \"#utility.yul\":317:318   */\n      dup1\n        /* \"#utility.yul\":310:322   */\n      revert\n        /* \"#utility.yul\":334:460   */\n    tag_126:\n        /* \"#utility.yul\":371:378   */\n      0x00\n        /* \"#utility.yul\":411:453   */\n      0xffffffffffffffffffffffffffffffffffffffff\n        /* \"#utility.yul\":404:409   */\n      dup3\n        /* \"#utility.yul\":400:454   */\n      and\n        /* \"#utility.yul\":389:454   */\n      swap1\n      pop\n        /* \"#utility.yul\":334:460   */\n      swap2\n      swap1\n      pop\n      jump\t// out\n        /* \"#utility.yul\":466:562   */\n    tag_127:\n        /* \"#utility.yul\":503:510   */\n      0x00\n        /* \"#utility.yul\":532:556   */\n      tag_187\n        /* \"#utility.yul\":550:555   */\n      dup3\n        /* \"#utility.yul\":532:556   */\n      tag_126\n      jump\t// in\n    tag_187:\n        /* \"#utility.yul\":521:556   */\n      swap1\n      pop\n        /* \"#utility.yul\":466:562   */\n      swap2\n      swap1\n      pop\n      jump\t// out\n        /* \"#utility.yul\":568:690   */\n    tag_128:\n        /* \"#utility.yul\":641:665   */\n      tag_189\n        /* \"#utility.yul\":659:664   */\n      dup2\n        /* \"#utility.yul\":641:665   */\n      tag_127\n      jump\t// in\n    tag_189:\n        /* \"#utility.yul\":634:639   */\n      dup2\n        /* \"#utility.yul\":631:666   */\n      eq\n        /* \"#utility.yul\":621:684   */\n      tag_190\n      jumpi\n        /* \"#utility.yul\":680:681   */\n      0x00\n        /* \"#utility.yul\":677:678   */\n      dup1\n        /* \"#utility.yul\":670:682   */\n      revert\n        /* \"#utility.yul\":621:684   */\n    tag_190:\n        /* \"#utility.yul\":568:690   */\n      pop\n      jump\t// out\n        /* \"#utility.yul\":696:835   */\n    tag_129:\n        /* \"#utility.yul\":742:747   */\n      0x00\n        /* \"#utility.yul\":780:786   */\n      dup2\n        /* \"#utility.yul\":767:787   */\n      calldataload\n        /* \"#utility.yul\":758:787   */\n      swap1\n      pop\n        /* \"#utility.yul\":796:829   */\n      tag_192\n        /* \"#utility.yul\":823:828   */\n      dup2\n        /* \"#utility.yul\":796:829   */\n      tag_128\n      jump\t// in\n    tag_192:\n        /* \"#utility.yul\":696:835   */\n      swap3\n      swap2\n      pop\n      pop\n      jump\t// out\n        /* \"#utility.yul\":841:918   */\n    tag_130:\n        /* \"#utility.yul\":878:885   */\n      0x00\n        /* \"#utility.yul\":907:912   */\n      dup2\n        /* \"#utility.yul\":896:912   */\n      swap1\n      pop\n        /* \"#utility.yul\":841:918   */\n      swap2\n      swap1\n      pop\n      jump\t// out\n        /* \"#utility.yul\":924:1046   */\n    tag_131:\n        /* \"#utility.yul\":997:1021   */\n      tag_195\n        /* \"#utility.yul\":1015:1020   */\n      dup2\n        /* \"#utility.yul\":997:1021   */\n      tag_130\n      jump\t// in\n    tag_195:\n        /* \"#utility.yul\":990:995   */\n      dup2\n        /* \"#utility.yul\":987:1022   */\n      eq\n        /* \"#utility.yul\":977:1040   */\n      tag_196\n      jumpi\n        /* \"#utility.yul\":1036:1037   */\n      0x00\n        /* \"#utility.yul\":1033:1034   */\n      dup1\n        /* \"#utility.yul\":1026:1038   */\n      revert\n        /* \"#utility.yul\":977:1040   */\n    tag_196:\n        /* \"#utility.yul\":924:1046   */\n      pop\n      jump\t// out\n        /* \"#utility.yul\":1052:1191   */\n    tag_132:\n        /* \"#utility.yul\":1098:1103   */\n      0x00\n        /* \"#utility.yul\":1136:1142   */\n      dup2\n        /* \"#utility.yul\":1123:1143   */\n      calldataload\n        /* \"#utility.yul\":1114:1143   */\n      swap1\n      pop\n        /* \"#utility.yul\":1152:1185   */\n      tag_198\n        /* \"#utility.yul\":1179:1184   */\n      dup2\n        /* \"#utility.yul\":1152:1185   */\n      tag_131\n      jump\t// in\n    tag_198:\n        /* \"#utility.yul\":1052:1191   */\n      swap3\n      swap2\n      pop\n      pop\n      jump\t// out\n        /* \"#utility.yul\":1197:1314   */\n    tag_133:\n        /* \"#utility.yul\":1306:1307   */\n      0x00\n        /* \"#utility.yul\":1303:1304   */\n      dup1\n        /* \"#utility.yul\":1296:1308   */\n      revert\n        /* \"#utility.yul\":1320:1437   */\n    tag_134:\n        /* \"#utility.yul\":1429:1430   */\n      0x00\n        /* \"#utility.yul\":1426:1427   */\n      dup1\n        /* \"#utility.yul\":1419:1431   */\n      revert\n        /* \"#utility.yul\":1443:1545   */\n    tag_135:\n        /* \"#utility.yul\":1484:1490   */\n      0x00\n        /* \"#utility.yul\":1535:1537   */\n      0x1f\n        /* \"#utility.yul\":1531:1538   */\n      not\n        /* \"#utility.yul\":1526:1528   */\n      0x1f\n        /* \"#utility.yul\":1519:1524   */\n      dup4\n        /* \"#utility.yul\":1515:1529   */\n      add\n        /* \"#utility.yul\":1511:1539   */\n      and\n        /* \"#utility.yul\":1501:1539   */\n      swap1\n      pop\n        /* \"#utility.yul\":1443:1545   */\n      swap2\n      swap1\n      pop\n      jump\t// out\n        /* \"#utility.yul\":1551:1731   */\n    tag_136:\n        /* \"#utility.yul\":1599:1676   */\n      0x4e487b7100000000000000000000000000000000000000000000000000000000\n        /* \"#utility.yul\":1596:1597   */\n      0x00\n        /* \"#utility.yul\":1589:1677   */\n      mstore\n        /* \"#utility.yul\":1696:1700   */\n      0x41\n        /* \"#utility.yul\":1693:1694   */\n      0x04\n        /* \"#utility.yul\":1686:1701   */\n      mstore\n        /* \"#utility.yul\":1720:1724   */\n      0x24\n        /* \"#utility.yul\":1717:1718   */\n      0x00\n        /* \"#utility.yul\":1710:1725   */\n      revert\n        /* \"#utility.yul\":1737:2018   */\n    tag_137:\n        /* \"#utility.yul\":1820:1847   */\n      tag_204\n        /* \"#utility.yul\":1842:1846   */\n      dup3\n        /* \"#utility.yul\":1820:1847   */\n      tag_135\n      jump\t// in\n    tag_204:\n        /* \"#utility.yul\":1812:1818   */\n      dup2\n        /* \"#utility.yul\":1808:1848   */\n      add\n        /* \"#utility.yul\":1950:1956   */\n      dup2\n        /* \"#utility.yul\":1938:1948   */\n      dup2\n        /* \"#utility.yul\":1935:1957   */\n      lt\n        /* \"#utility.yul\":1914:1932   */\n      0xffffffffffffffff\n        /* \"#utility.yul\":1902:1912   */\n      dup3\n        /* \"#utility.yul\":1899:1933   */\n      gt\n        /* \"#utility.yul\":1896:1958   */\n      or\n        /* \"#utility.yul\":1893:1981   */\n      iszero\n      tag_205\n      jumpi\n        /* \"#utility.yul\":1961:1979   */\n      tag_206\n      tag_136\n      jump\t// in\n    tag_206:\n        /* \"#utility.yul\":1893:1981   */\n    tag_205:\n        /* \"#utility.yul\":2001:2011   */\n      dup1\n        /* \"#utility.yul\":1997:1999   */\n      0x40\n        /* \"#utility.yul\":1990:2012   */\n      mstore\n        /* \"#utility.yul\":1780:2018   */\n      pop\n        /* \"#utility.yul\":1737:2018   */\n      pop\n      pop\n      jump\t// out\n        /* \"#utility.yul\":2024:2153   */\n    tag_138:\n        /* \"#utility.yul\":2058:2064   */\n      0x00\n        /* \"#utility.yul\":2085:2105   */\n      tag_208\n      tag_123\n      jump\t// in\n    tag_208:\n        /* \"#utility.yul\":2075:2105   */\n      swap1\n      pop\n        /* \"#utility.yul\":2114:2147   */\n      tag_209\n        /* \"#utility.yul\":2142:2146   */\n      dup3\n        /* \"#utility.yul\":2134:2140   */\n      dup3\n        /* \"#utility.yul\":2114:2147   */\n      tag_137\n      jump\t// in\n    tag_209:\n        /* \"#utility.yul\":2024:2153   */\n      swap2\n      swap1\n      pop\n      jump\t// out\n        /* \"#utility.yul\":2159:2467   */\n    tag_139:\n        /* \"#utility.yul\":2221:2225   */\n      0x00\n        /* \"#utility.yul\":2311:2329   */\n      0xffffffffffffffff\n        /* \"#utility.yul\":2303:2309   */\n      dup3\n        /* \"#utility.yul\":2300:2330   */\n      gt\n        /* \"#utility.yul\":2297:2353   */\n      iszero\n      tag_211\n      jumpi\n        /* \"#utility.yul\":2333:2351   */\n      tag_212\n      tag_136\n      jump\t// in\n    tag_212:\n        /* \"#utility.yul\":2297:2353   */\n    tag_211:\n        /* \"#utility.yul\":2371:2400   */\n      tag_213\n        /* \"#utility.yul\":2393:2399   */\n      dup3\n        /* \"#utility.yul\":2371:2400   */\n      tag_135\n      jump\t// in\n    tag_213:\n        /* \"#utility.yul\":2363:2400   */\n      swap1\n      pop\n        /* \"#utility.yul\":2455:2459   */\n      0x20\n        /* \"#utility.yul\":2449:2453   */\n      dup2\n        /* \"#utility.yul\":2445:2460   */\n      add\n        /* \"#utility.yul\":2437:2460   */\n      swap1\n      pop\n        /* \"#utility.yul\":2159:2467   */\n      swap2\n      swap1\n      pop\n      jump\t// out\n        /* \"#utility.yul\":2473:2621   */\n    tag_140:\n        /* \"#utility.yul\":2571:2577   */\n      dup3\n        /* \"#utility.yul\":2566:2569   */\n      dup2\n        /* \"#utility.yul\":2561:2564   */\n      dup4\n        /* \"#utility.yul\":2548:2578   */\n      calldatacopy\n        /* \"#utility.yul\":2612:2613   */\n      0x00\n        /* \"#utility.yul\":2603:2609   */\n      dup4\n        /* \"#utility.yul\":2598:2601   */\n      dup4\n        /* \"#utility.yul\":2594:2610   */\n      add\n        /* \"#utility.yul\":2587:2614   */\n      mstore\n        /* \"#utility.yul\":2473:2621   */\n      pop\n      pop\n      pop\n      jump\t// out\n        /* \"#utility.yul\":2627:3052   */\n    tag_141:\n        /* \"#utility.yul\":2705:2710   */\n      0x00\n        /* \"#utility.yul\":2730:2796   */\n      tag_216\n        /* \"#utility.yul\":2746:2795   */\n      tag_217\n        /* \"#utility.yul\":2788:2794   */\n      dup5\n        /* \"#utility.yul\":2746:2795   */\n      tag_139\n      jump\t// in\n    tag_217:\n        /* \"#utility.yul\":2730:2796   */\n      tag_138\n      jump\t// in\n    tag_216:\n        /* \"#utility.yul\":2721:2796   */\n      swap1\n      pop\n        /* \"#utility.yul\":2819:2825   */\n      dup3\n        /* \"#utility.yul\":2812:2817   */\n      dup2\n        /* \"#utility.yul\":2805:2826   */\n      mstore\n        /* \"#utility.yul\":2857:2861   */\n      0x20\n        /* \"#utility.yul\":2850:2855   */\n      dup2\n        /* \"#utility.yul\":2846:2862   */\n      add\n        /* \"#utility.yul\":2895:2898   */\n      dup5\n        /* \"#utility.yul\":2886:2892   */\n      dup5\n        /* \"#utility.yul\":2881:2884   */\n      dup5\n        /* \"#utility.yul\":2877:2893   */\n      add\n        /* \"#utility.yul\":2874:2899   */\n      gt\n        /* \"#utility.yul\":2871:2983   */\n      iszero\n      tag_218\n      jumpi\n        /* \"#utility.yul\":2902:2981   */\n      tag_219\n      tag_134\n      jump\t// in\n    tag_219:\n        /* \"#utility.yul\":2871:2983   */\n    tag_218:\n        /* \"#utility.yul\":2992:3046   */\n      tag_220\n        /* \"#utility.yul\":3039:3045   */\n      dup5\n        /* \"#utility.yul\":3034:3037   */\n      dup3\n        /* \"#utility.yul\":3029:3032   */\n      dup6\n        /* \"#utility.yul\":2992:3046   */\n      tag_140\n      jump\t// in\n    tag_220:\n        /* \"#utility.yul\":2711:3052   */\n      pop\n        /* \"#utility.yul\":2627:3052   */\n      swap4\n      swap3\n      pop\n      pop\n      pop\n      jump\t// out\n        /* \"#utility.yul\":3072:3412   */\n    tag_142:\n        /* \"#utility.yul\":3128:3133   */\n      0x00\n        /* \"#utility.yul\":3177:3180   */\n      dup3\n        /* \"#utility.yul\":3170:3174   */\n      0x1f\n        /* \"#utility.yul\":3162:3168   */\n      dup4\n        /* \"#utility.yul\":3158:3175   */\n      add\n        /* \"#utility.yul\":3154:3181   */\n      slt\n        /* \"#utility.yul\":3144:3266   */\n      tag_222\n      jumpi\n        /* \"#utility.yul\":3185:3264   */\n      tag_223\n      tag_133\n      jump\t// in\n    tag_223:\n        /* \"#utility.yul\":3144:3266   */\n    tag_222:\n        /* \"#utility.yul\":3302:3308   */\n      dup2\n        /* \"#utility.yul\":3289:3309   */\n      calldataload\n        /* \"#utility.yul\":3327:3406   */\n      tag_224\n        /* \"#utility.yul\":3402:3405   */\n      dup5\n        /* \"#utility.yul\":3394:3400   */\n      dup3\n        /* \"#utility.yul\":3387:3391   */\n      0x20\n        /* \"#utility.yul\":3379:3385   */\n      dup7\n        /* \"#utility.yul\":3375:3392   */\n      add\n        /* \"#utility.yul\":3327:3406   */\n      tag_141\n      jump\t// in\n    tag_224:\n        /* \"#utility.yul\":3318:3406   */\n      swap2\n      pop\n        /* \"#utility.yul\":3134:3412   */\n      pop\n        /* \"#utility.yul\":3072:3412   */\n      swap3\n      swap2\n      pop\n      pop\n      jump\t// out\n        /* \"#utility.yul\":3418:3725   */\n    tag_143:\n        /* \"#utility.yul\":3479:3483   */\n      0x00\n        /* \"#utility.yul\":3569:3587   */\n      0xffffffffffffffff\n        /* \"#utility.yul\":3561:3567   */\n      dup3\n        /* \"#utility.yul\":3558:3588   */\n      gt\n        /* \"#utility.yul\":3555:3611   */\n      iszero\n      tag_226\n      jumpi\n        /* \"#utility.yul\":3591:3609   */\n      tag_227\n      tag_136\n      jump\t// in\n    tag_227:\n        /* \"#utility.yul\":3555:3611   */\n    tag_226:\n        /* \"#utility.yul\":3629:3658   */\n      tag_228\n        /* \"#utility.yul\":3651:3657   */\n      dup3\n        /* \"#utility.yul\":3629:3658   */\n      tag_135\n      jump\t// in\n    tag_228:\n        /* \"#utility.yul\":3621:3658   */\n      swap1\n      pop\n        /* \"#utility.yul\":3713:3717   */\n      0x20\n        /* \"#utility.yul\":3707:3711   */\n      dup2\n        /* \"#utility.yul\":3703:3718   */\n      add\n        /* \"#utility.yul\":3695:3718   */\n      swap1\n      pop\n        /* \"#utility.yul\":3418:3725   */\n      swap2\n      swap1\n      pop\n      jump\t// out\n        /* \"#utility.yul\":3731:4154   */\n    tag_144:\n        /* \"#utility.yul\":3808:3813   */\n      0x00\n        /* \"#utility.yul\":3833:3898   */\n      tag_230\n        /* \"#utility.yul\":3849:3897   */\n      tag_231\n        /* \"#utility.yul\":3890:3896   */\n      dup5\n        /* \"#utility.yul\":3849:3897   */\n      tag_143\n      jump\t// in\n    tag_231:\n        /* \"#utility.yul\":3833:3898   */\n      tag_138\n      jump\t// in\n    tag_230:\n        /* \"#utility.yul\":3824:3898   */\n      swap1\n      pop\n        /* \"#utility.yul\":3921:3927   */\n      dup3\n        /* \"#utility.yul\":3914:3919   */\n      dup2\n        /* \"#utility.yul\":3907:3928   */\n      mstore\n        /* \"#utility.yul\":3959:3963   */\n      0x20\n        /* \"#utility.yul\":3952:3957   */\n      dup2\n        /* \"#utility.yul\":3948:3964   */\n      add\n        /* \"#utility.yul\":3997:4000   */\n      dup5\n        /* \"#utility.yul\":3988:3994   */\n      dup5\n        /* \"#utility.yul\":3983:3986   */\n      dup5\n        /* \"#utility.yul\":3979:3995   */\n      add\n        /* \"#utility.yul\":3976:4001   */\n      gt\n        /* \"#utility.yul\":3973:4085   */\n      iszero\n      tag_232\n      jumpi\n        /* \"#utility.yul\":4004:4083   */\n      tag_233\n      tag_134\n      jump\t// in\n    tag_233:\n        /* \"#utility.yul\":3973:4085   */\n    tag_232:\n        /* \"#utility.yul\":4094:4148   */\n      tag_234\n        /* \"#utility.yul\":4141:4147   */\n      dup5\n        /* \"#utility.yul\":4136:4139   */\n      dup3\n        /* \"#utility.yul\":4131:4134   */\n      dup6\n        /* \"#utility.yul\":4094:4148   */\n      tag_140\n      jump\t// in\n    tag_234:\n        /* \"#utility.yul\":3814:4154   */\n      pop\n        /* \"#utility.yul\":3731:4154   */\n      swap4\n      swap3\n      pop\n      pop\n      pop\n      jump\t// out\n        /* \"#utility.yul\":4173:4511   */\n    tag_145:\n        /* \"#utility.yul\":4228:4233   */\n      0x00\n        /* \"#utility.yul\":4277:4280   */\n      dup3\n        /* \"#utility.yul\":4270:4274   */\n      0x1f\n        /* \"#utility.yul\":4262:4268   */\n      dup4\n        /* \"#utility.yul\":4258:4275   */\n      add\n        /* \"#utility.yul\":4254:4281   */\n      slt\n        /* \"#utility.yul\":4244:4366   */\n      tag_236\n      jumpi\n        /* \"#utility.yul\":4285:4364   */\n      tag_237\n      tag_133\n      jump\t// in\n    tag_237:\n        /* \"#utility.yul\":4244:4366   */\n    tag_236:\n        /* \"#utility.yul\":4402:4408   */\n      dup2\n        /* \"#utility.yul\":4389:4409   */\n      calldataload\n        /* \"#utility.yul\":4427:4505   */\n      tag_238\n        /* \"#utility.yul\":4501:4504   */\n      dup5\n        /* \"#utility.yul\":4493:4499   */\n      dup3\n        /* \"#utility.yul\":4486:4490   */\n      0x20\n        /* \"#utility.yul\":4478:4484   */\n      dup7\n        /* \"#utility.yul\":4474:4491   */\n      add\n        /* \"#utility.yul\":4427:4505   */\n      tag_144\n      jump\t// in\n    tag_238:\n        /* \"#utility.yul\":4418:4505   */\n      swap2\n      pop\n        /* \"#utility.yul\":4234:4511   */\n      pop\n        /* \"#utility.yul\":4173:4511   */\n      swap3\n      swap2\n      pop\n      pop\n      jump\t// out\n        /* \"#utility.yul\":4517:5786   */\n    tag_16:\n        /* \"#utility.yul\":4631:4637   */\n      0x00\n        /* \"#utility.yul\":4639:4645   */\n      dup1\n        /* \"#utility.yul\":4647:4653   */\n      0x00\n        /* \"#utility.yul\":4655:4661   */\n      dup1\n        /* \"#utility.yul\":4663:4669   */\n      0x00\n        /* \"#utility.yul\":4712:4715   */\n      0xa0\n        /* \"#utility.yul\":4700:4709   */\n      dup7\n        /* \"#utility.yul\":4691:4698   */\n      dup9\n        /* \"#utility.yul\":4687:4710   */\n      sub\n        /* \"#utility.yul\":4683:4716   */\n      slt\n        /* \"#utility.yul\":4680:4800   */\n      iszero\n      tag_240\n      jumpi\n        /* \"#utility.yul\":4719:4798   */\n      tag_241\n      tag_124\n      jump\t// in\n    tag_241:\n        /* \"#utility.yul\":4680:4800   */\n    tag_240:\n        /* \"#utility.yul\":4839:4840   */\n      0x00\n        /* \"#utility.yul\":4864:4917   */\n      tag_242\n        /* \"#utility.yul\":4909:4916   */\n      dup9\n        /* \"#utility.yul\":4900:4906   */\n      dup3\n        /* \"#utility.yul\":4889:4898   */\n      dup10\n        /* \"#utility.yul\":4885:4907   */\n      add\n        /* \"#utility.yul\":4864:4917   */\n      tag_129\n      jump\t// in\n    tag_242:\n        /* \"#utility.yul\":4854:4917   */\n      swap6\n      pop\n        /* \"#utility.yul\":4810:4927   */\n      pop\n        /* \"#utility.yul\":4966:4968   */\n      0x20\n        /* \"#utility.yul\":4992:5045   */\n      tag_243\n        /* \"#utility.yul\":5037:5044   */\n      dup9\n        /* \"#utility.yul\":5028:5034   */\n      dup3\n        /* \"#utility.yul\":5017:5026   */\n      dup10\n        /* \"#utility.yul\":5013:5035   */\n      add\n        /* \"#utility.yul\":4992:5045   */\n      tag_132\n      jump\t// in\n    tag_243:\n        /* \"#utility.yul\":4982:5045   */\n      swap5\n      pop\n        /* \"#utility.yul\":4937:5055   */\n      pop\n        /* \"#utility.yul\":5122:5124   */\n      0x40\n        /* \"#utility.yul\":5111:5120   */\n      dup7\n        /* \"#utility.yul\":5107:5125   */\n      add\n        /* \"#utility.yul\":5094:5126   */\n      calldataload\n        /* \"#utility.yul\":5153:5171   */\n      0xffffffffffffffff\n        /* \"#utility.yul\":5145:5151   */\n      dup2\n        /* \"#utility.yul\":5142:5172   */\n      gt\n        /* \"#utility.yul\":5139:5256   */\n      iszero\n      tag_244\n      jumpi\n        /* \"#utility.yul\":5175:5254   */\n      tag_245\n      tag_125\n      jump\t// in\n    tag_245:\n        /* \"#utility.yul\":5139:5256   */\n    tag_244:\n        /* \"#utility.yul\":5280:5343   */\n      tag_246\n        /* \"#utility.yul\":5335:5342   */\n      dup9\n        /* \"#utility.yul\":5326:5332   */\n      dup3\n        /* \"#utility.yul\":5315:5324   */\n      dup10\n        /* \"#utility.yul\":5311:5333   */\n      add\n        /* \"#utility.yul\":5280:5343   */\n      tag_142\n      jump\t// in\n    tag_246:\n        /* \"#utility.yul\":5270:5343   */\n      swap4\n      pop\n        /* \"#utility.yul\":5065:5353   */\n      pop\n        /* \"#utility.yul\":5420:5422   */\n      0x60\n        /* \"#utility.yul\":5409:5418   */\n      dup7\n        /* \"#utility.yul\":5405:5423   */\n      add\n        /* \"#utility.yul\":5392:5424   */\n      calldataload\n        /* \"#utility.yul\":5451:5469   */\n      0xffffffffffffffff\n        /* \"#utility.yul\":5443:5449   */\n      dup2\n        /* \"#utility.yul\":5440:5470   */\n      gt\n        /* \"#utility.yul\":5437:5554   */\n      iszero\n      tag_247\n      jumpi\n        /* \"#utility.yul\":5473:5552   */\n      tag_248\n      tag_125\n      jump\t// in\n    tag_248:\n        /* \"#utility.yul\":5437:5554   */\n    tag_247:\n        /* \"#utility.yul\":5578:5640   */\n      tag_249\n        /* \"#utility.yul\":5632:5639   */\n      dup9\n        /* \"#utility.yul\":5623:5629   */\n      dup3\n        /* \"#utility.yul\":5612:5621   */\n      dup10\n        /* \"#utility.yul\":5608:5630   */\n      add\n        /* \"#utility.yul\":5578:5640   */\n      tag_145\n      jump\t// in\n    tag_249:\n        /* \"#utility.yul\":5568:5640   */\n      swap3\n      pop\n        /* \"#utility.yul\":5363:5650   */\n      pop\n        /* \"#utility.yul\":5689:5692   */\n      0x80\n        /* \"#utility.yul\":5716:5769   */\n      tag_250\n        /* \"#utility.yul\":5761:5768   */\n      dup9\n        /* \"#utility.yul\":5752:5758   */\n      dup3\n        /* \"#utility.yul\":5741:5750   */\n      dup10\n        /* \"#utility.yul\":5737:5759   */\n      add\n        /* \"#utility.yul\":5716:5769   */\n      tag_132\n      jump\t// in\n    tag_250:\n        /* \"#utility.yul\":5706:5769   */\n      swap2\n      pop\n        /* \"#utility.yul\":5660:5779   */\n      pop\n        /* \"#utility.yul\":4517:5786   */\n      swap3\n      swap6\n      pop\n      swap3\n      swap6\n      swap1\n      swap4\n      pop\n      jump\t// out\n        /* \"#utility.yul\":5792:5869   */\n    tag_146:\n        /* \"#utility.yul\":5829:5836   */\n      0x00\n        /* \"#utility.yul\":5858:5863   */\n      dup2\n        /* \"#utility.yul\":5847:5863   */\n      swap1\n      pop\n        /* \"#utility.yul\":5792:5869   */\n      swap2\n      swap1\n      pop\n      jump\t// out\n        /* \"#utility.yul\":5875:5993   */\n    tag_147:\n        /* \"#utility.yul\":5962:5986   */\n      tag_253\n        /* \"#utility.yul\":5980:5985   */\n      dup2\n        /* \"#utility.yul\":5962:5986   */\n      tag_146\n      jump\t// in\n    tag_253:\n        /* \"#utility.yul\":5957:5960   */\n      dup3\n        /* \"#utility.yul\":5950:5987   */\n      mstore\n        /* \"#utility.yul\":5875:5993   */\n      pop\n      pop\n      jump\t// out\n        /* \"#utility.yul\":5999:6221   */\n    tag_19:\n        /* \"#utility.yul\":6092:6096   */\n      0x00\n        /* \"#utility.yul\":6130:6132   */\n      0x20\n        /* \"#utility.yul\":6119:6128   */\n      dup3\n        /* \"#utility.yul\":6115:6133   */\n      add\n        /* \"#utility.yul\":6107:6133   */\n      swap1\n      pop\n        /* \"#utility.yul\":6143:6214   */\n      tag_255\n        /* \"#utility.yul\":6211:6212   */\n      0x00\n        /* \"#utility.yul\":6200:6209   */\n      dup4\n        /* \"#utility.yul\":6196:6213   */\n      add\n        /* \"#utility.yul\":6187:6193   */\n      dup5\n        /* \"#utility.yul\":6143:6214   */\n      tag_147\n      jump\t// in\n    tag_255:\n        /* \"#utility.yul\":5999:6221   */\n      swap3\n      swap2\n      pop\n      pop\n      jump\t// out\n        /* \"#utility.yul\":6227:6325   */\n    tag_148:\n        /* \"#utility.yul\":6278:6284   */\n      0x00\n        /* \"#utility.yul\":6312:6317   */\n      dup2\n        /* \"#utility.yul\":6306:6318   */\n      mload\n        /* \"#utility.yul\":6296:6318   */\n      swap1\n      pop\n        /* \"#utility.yul\":6227:6325   */\n      swap2\n      swap1\n      pop\n      jump\t// out\n        /* \"#utility.yul\":6331:6499   */\n    tag_149:\n        /* \"#utility.yul\":6414:6425   */\n      0x00\n        /* \"#utility.yul\":6448:6454   */\n      dup3\n        /* \"#utility.yul\":6443:6446   */\n      dup3\n        /* \"#utility.yul\":6436:6455   */\n      mstore\n        /* \"#utility.yul\":6488:6492   */\n      0x20\n        /* \"#utility.yul\":6483:6486   */\n      dup3\n        /* \"#utility.yul\":6479:6493   */\n      add\n        /* \"#utility.yul\":6464:6493   */\n      swap1\n      pop\n        /* \"#utility.yul\":6331:6499   */\n      swap3\n      swap2\n      pop\n      pop\n      jump\t// out\n        /* \"#utility.yul\":6505:6644   */\n    tag_150:\n        /* \"#utility.yul\":6594:6600   */\n      dup3\n        /* \"#utility.yul\":6589:6592   */\n      dup2\n        /* \"#utility.yul\":6584:6587   */\n      dup4\n        /* \"#utility.yul\":6578:6601   */\n      mcopy\n        /* \"#utility.yul\":6635:6636   */\n      0x00\n        /* \"#utility.yul\":6626:6632   */\n      dup4\n        /* \"#utility.yul\":6621:6624   */\n      dup4\n        /* \"#utility.yul\":6617:6633   */\n      add\n        /* \"#utility.yul\":6610:6637   */\n      mstore\n        /* \"#utility.yul\":6505:6644   */\n      pop\n      pop\n      pop\n      jump\t// out\n        /* \"#utility.yul\":6650:7023   */\n    tag_151:\n        /* \"#utility.yul\":6736:6739   */\n      0x00\n        /* \"#utility.yul\":6764:6802   */\n      tag_260\n        /* \"#utility.yul\":6796:6801   */\n      dup3\n        /* \"#utility.yul\":6764:6802   */\n      tag_148\n      jump\t// in\n    tag_260:\n        /* \"#utility.yul\":6818:6888   */\n      tag_261\n        /* \"#utility.yul\":6881:6887   */\n      dup2\n        /* \"#utility.yul\":6876:6879   */\n      dup6\n        /* \"#utility.yul\":6818:6888   */\n      tag_149\n      jump\t// in\n    tag_261:\n        /* \"#utility.yul\":6811:6888   */\n      swap4\n      pop\n        /* \"#utility.yul\":6897:6962   */\n      tag_262\n        /* \"#utility.yul\":6955:6961   */\n      dup2\n        /* \"#utility.yul\":6950:6953   */\n      dup6\n        /* \"#utility.yul\":6943:6947   */\n      0x20\n        /* \"#utility.yul\":6936:6941   */\n      dup7\n        /* \"#utility.yul\":6932:6948   */\n      add\n        /* \"#utility.yul\":6897:6962   */\n      tag_150\n      jump\t// in\n    tag_262:\n        /* \"#utility.yul\":6987:7016   */\n      tag_263\n        /* \"#utility.yul\":7009:7015   */\n      dup2\n        /* \"#utility.yul\":6987:7016   */\n      tag_135\n      jump\t// in\n    tag_263:\n        /* \"#utility.yul\":6982:6985   */\n      dup5\n        /* \"#utility.yul\":6978:7017   */\n      add\n        /* \"#utility.yul\":6971:7017   */\n      swap2\n      pop\n        /* \"#utility.yul\":6740:7023   */\n      pop\n        /* \"#utility.yul\":6650:7023   */\n      swap3\n      swap2\n      pop\n      pop\n      jump\t// out\n        /* \"#utility.yul\":7029:7338   */\n    tag_24:\n        /* \"#utility.yul\":7140:7144   */\n      0x00\n        /* \"#utility.yul\":7178:7180   */\n      0x20\n        /* \"#utility.yul\":7167:7176   */\n      dup3\n        /* \"#utility.yul\":7163:7181   */\n      add\n        /* \"#utility.yul\":7155:7181   */\n      swap1\n      pop\n        /* \"#utility.yul\":7227:7236   */\n      dup2\n        /* \"#utility.yul\":7221:7225   */\n      dup2\n        /* \"#utility.yul\":7217:7237   */\n      sub\n        /* \"#utility.yul\":7213:7214   */\n      0x00\n        /* \"#utility.yul\":7202:7211   */\n      dup4\n        /* \"#utility.yul\":7198:7215   */\n      add\n        /* \"#utility.yul\":7191:7238   */\n      mstore\n        /* \"#utility.yul\":7255:7331   */\n      tag_265\n        /* \"#utility.yul\":7326:7330   */\n      dup2\n        /* \"#utility.yul\":7317:7323   */\n      dup5\n        /* \"#utility.yul\":7255:7331   */\n      tag_151\n      jump\t// in\n    tag_265:\n        /* \"#utility.yul\":7247:7331   */\n      swap1\n      pop\n        /* \"#utility.yul\":7029:7338   */\n      swap3\n      swap2\n      pop\n      pop\n      jump\t// out\n        /* \"#utility.yul\":7344:7462   */\n    tag_152:\n        /* \"#utility.yul\":7431:7455   */\n      tag_267\n        /* \"#utility.yul\":7449:7454   */\n      dup2\n        /* \"#utility.yul\":7431:7455   */\n      tag_130\n      jump\t// in\n    tag_267:\n        /* \"#utility.yul\":7426:7429   */\n      dup3\n        /* \"#utility.yul\":7419:7456   */\n      mstore\n        /* \"#utility.yul\":7344:7462   */\n      pop\n      pop\n      jump\t// out\n        /* \"#utility.yul\":7468:7690   */\n    tag_38:\n        /* \"#utility.yul\":7561:7565   */\n      0x00\n        /* \"#utility.yul\":7599:7601   */\n      0x20\n        /* \"#utility.yul\":7588:7597   */\n      dup3\n        /* \"#utility.yul\":7584:7602   */\n      add\n        /* \"#utility.yul\":7576:7602   */\n      swap1\n      pop\n        /* \"#utility.yul\":7612:7683   */\n      tag_269\n        /* \"#utility.yul\":7680:7681   */\n      0x00\n        /* \"#utility.yul\":7669:7678   */\n      dup4\n        /* \"#utility.yul\":7665:7682   */\n      add\n        /* \"#utility.yul\":7656:7662   */\n      dup5\n        /* \"#utility.yul\":7612:7683   */\n      tag_152\n      jump\t// in\n    tag_269:\n        /* \"#utility.yul\":7468:7690   */\n      swap3\n      swap2\n      pop\n      pop\n      jump\t// out\n        /* \"#utility.yul\":7696:8025   */\n    tag_46:\n        /* \"#utility.yul\":7755:7761   */\n      0x00\n        /* \"#utility.yul\":7804:7806   */\n      0x20\n        /* \"#utility.yul\":7792:7801   */\n      dup3\n        /* \"#utility.yul\":7783:7790   */\n      dup5\n        /* \"#utility.yul\":7779:7802   */\n      sub\n        /* \"#utility.yul\":7775:7807   */\n      slt\n        /* \"#utility.yul\":7772:7891   */\n      iszero\n      tag_271\n      jumpi\n        /* \"#utility.yul\":7810:7889   */\n      tag_272\n      tag_124\n      jump\t// in\n    tag_272:\n        /* \"#utility.yul\":7772:7891   */\n    tag_271:\n        /* \"#utility.yul\":7930:7931   */\n      0x00\n        /* \"#utility.yul\":7955:8008   */\n      tag_273\n        /* \"#utility.yul\":8000:8007   */\n      dup5\n        /* \"#utility.yul\":7991:7997   */\n      dup3\n        /* \"#utility.yul\":7980:7989   */\n      dup6\n        /* \"#utility.yul\":7976:7998   */\n      add\n        /* \"#utility.yul\":7955:8008   */\n      tag_129\n      jump\t// in\n    tag_273:\n        /* \"#utility.yul\":7945:8008   */\n      swap2\n      pop\n        /* \"#utility.yul\":7901:8018   */\n      pop\n        /* \"#utility.yul\":7696:8025   */\n      swap3\n      swap2\n      pop\n      pop\n      jump\t// out\n        /* \"#utility.yul\":8031:8153   */\n    tag_153:\n        /* \"#utility.yul\":8104:8128   */\n      tag_275\n        /* \"#utility.yul\":8122:8127   */\n      dup2\n        /* \"#utility.yul\":8104:8128   */\n      tag_146\n      jump\t// in\n    tag_275:\n        /* \"#utility.yul\":8097:8102   */\n      dup2\n        /* \"#utility.yul\":8094:8129   */\n      eq\n        /* \"#utility.yul\":8084:8147   */\n      tag_276\n      jumpi\n        /* \"#utility.yul\":8143:8144   */\n      0x00\n        /* \"#utility.yul\":8140:8141   */\n      dup1\n        /* \"#utility.yul\":8133:8145   */\n      revert\n        /* \"#utility.yul\":8084:8147   */\n    tag_276:\n        /* \"#utility.yul\":8031:8153   */\n      pop\n      jump\t// out\n        /* \"#utility.yul\":8159:8298   */\n    tag_154:\n        /* \"#utility.yul\":8205:8210   */\n      0x00\n        /* \"#utility.yul\":8243:8249   */\n      dup2\n        /* \"#utility.yul\":8230:8250   */\n      calldataload\n        /* \"#utility.yul\":8221:8250   */\n      swap1\n      pop\n        /* \"#utility.yul\":8259:8292   */\n      tag_278\n        /* \"#utility.yul\":8286:8291   */\n      dup2\n        /* \"#utility.yul\":8259:8292   */\n      tag_153\n      jump\t// in\n    tag_278:\n        /* \"#utility.yul\":8159:8298   */\n      swap3\n      swap2\n      pop\n      pop\n      jump\t// out\n        /* \"#utility.yul\":8304:8633   */\n    tag_55:\n        /* \"#utility.yul\":8363:8369   */\n      0x00\n        /* \"#utility.yul\":8412:8414   */\n      0x20\n        /* \"#utility.yul\":8400:8409   */\n      dup3\n        /* \"#utility.yul\":8391:8398   */\n      dup5\n        /* \"#utility.yul\":8387:8410   */\n      sub\n        /* \"#utility.yul\":8383:8415   */\n      slt\n        /* \"#utility.yul\":8380:8499   */\n      iszero\n      tag_280\n      jumpi\n        /* \"#utility.yul\":8418:8497   */\n      tag_281\n      tag_124\n      jump\t// in\n    tag_281:\n        /* \"#utility.yul\":8380:8499   */\n    tag_280:\n        /* \"#utility.yul\":8538:8539   */\n      0x00\n        /* \"#utility.yul\":8563:8616   */\n      tag_282\n        /* \"#utility.yul\":8608:8615   */\n      dup5\n        /* \"#utility.yul\":8599:8605   */\n      dup3\n        /* \"#utility.yul\":8588:8597   */\n      dup6\n        /* \"#utility.yul\":8584:8606   */\n      add\n        /* \"#utility.yul\":8563:8616   */\n      tag_154\n      jump\t// in\n    tag_282:\n        /* \"#utility.yul\":8553:8616   */\n      swap2\n      pop\n        /* \"#utility.yul\":8509:8626   */\n      pop\n        /* \"#utility.yul\":8304:8633   */\n      swap3\n      swap2\n      pop\n      pop\n      jump\t// out\n        /* \"#utility.yul\":8639:8729   */\n    tag_155:\n        /* \"#utility.yul\":8673:8680   */\n      0x00\n        /* \"#utility.yul\":8716:8721   */\n      dup2\n        /* \"#utility.yul\":8709:8722   */\n      iszero\n        /* \"#utility.yul\":8702:8723   */\n      iszero\n        /* \"#utility.yul\":8691:8723   */\n      swap1\n      pop\n        /* \"#utility.yul\":8639:8729   */\n      swap2\n      swap1\n      pop\n      jump\t// out\n        /* \"#utility.yul\":8735:8844   */\n    tag_156:\n        /* \"#utility.yul\":8816:8837   */\n      tag_285\n        /* \"#utility.yul\":8831:8836   */\n      dup2\n        /* \"#utility.yul\":8816:8837   */\n      tag_155\n      jump\t// in\n    tag_285:\n        /* \"#utility.yul\":8811:8814   */\n      dup3\n        /* \"#utility.yul\":8804:8838   */\n      mstore\n        /* \"#utility.yul\":8735:8844   */\n      pop\n      pop\n      jump\t// out\n        /* \"#utility.yul\":8850:9060   */\n    tag_58:\n        /* \"#utility.yul\":8937:8941   */\n      0x00\n        /* \"#utility.yul\":8975:8977   */\n      0x20\n        /* \"#utility.yul\":8964:8973   */\n      dup3\n        /* \"#utility.yul\":8960:8978   */\n      add\n        /* \"#utility.yul\":8952:8978   */\n      swap1\n      pop\n        /* \"#utility.yul\":8988:9053   */\n      tag_287\n        /* \"#utility.yul\":9050:9051   */\n      0x00\n        /* \"#utility.yul\":9039:9048   */\n      dup4\n        /* \"#utility.yul\":9035:9052   */\n      add\n        /* \"#utility.yul\":9026:9032   */\n      dup5\n        /* \"#utility.yul\":8988:9053   */\n      tag_156\n      jump\t// in\n    tag_287:\n        /* \"#utility.yul\":8850:9060   */\n      swap3\n      swap2\n      pop\n      pop\n      jump\t// out\n        /* \"#utility.yul\":9066:9184   */\n    tag_157:\n        /* \"#utility.yul\":9153:9177   */\n      tag_289\n        /* \"#utility.yul\":9171:9176   */\n      dup2\n        /* \"#utility.yul\":9153:9177   */\n      tag_127\n      jump\t// in\n    tag_289:\n        /* \"#utility.yul\":9148:9151   */\n      dup3\n        /* \"#utility.yul\":9141:9178   */\n      mstore\n        /* \"#utility.yul\":9066:9184   */\n      pop\n      pop\n      jump\t// out\n        /* \"#utility.yul\":9190:9412   */\n    tag_63:\n        /* \"#utility.yul\":9283:9287   */\n      0x00\n        /* \"#utility.yul\":9321:9323   */\n      0x20\n        /* \"#utility.yul\":9310:9319   */\n      dup3\n        /* \"#utility.yul\":9306:9324   */\n      add\n        /* \"#utility.yul\":9298:9324   */\n      swap1\n      pop\n        /* \"#utility.yul\":9334:9405   */\n      tag_291\n        /* \"#utility.yul\":9402:9403   */\n      0x00\n        /* \"#utility.yul\":9391:9400   */\n      dup4\n        /* \"#utility.yul\":9387:9404   */\n      add\n        /* \"#utility.yul\":9378:9384   */\n      dup5\n        /* \"#utility.yul\":9334:9405   */\n      tag_157\n      jump\t// in\n    tag_291:\n        /* \"#utility.yul\":9190:9412   */\n      swap3\n      swap2\n      pop\n      pop\n      jump\t// out\n        /* \"#utility.yul\":9418:9517   */\n    tag_158:\n        /* \"#utility.yul\":9470:9476   */\n      0x00\n        /* \"#utility.yul\":9504:9509   */\n      dup2\n        /* \"#utility.yul\":9498:9510   */\n      mload\n        /* \"#utility.yul\":9488:9510   */\n      swap1\n      pop\n        /* \"#utility.yul\":9418:9517   */\n      swap2\n      swap1\n      pop\n      jump\t// out\n        /* \"#utility.yul\":9523:9692   */\n    tag_159:\n        /* \"#utility.yul\":9607:9618   */\n      0x00\n        /* \"#utility.yul\":9641:9647   */\n      dup3\n        /* \"#utility.yul\":9636:9639   */\n      dup3\n        /* \"#utility.yul\":9629:9648   */\n      mstore\n        /* \"#utility.yul\":9681:9685   */\n      0x20\n        /* \"#utility.yul\":9676:9679   */\n      dup3\n        /* \"#utility.yul\":9672:9686   */\n      add\n        /* \"#utility.yul\":9657:9686   */\n      swap1\n      pop\n        /* \"#utility.yul\":9523:9692   */\n      swap3\n      swap2\n      pop\n      pop\n      jump\t// out\n        /* \"#utility.yul\":9698:10075   */\n    tag_160:\n        /* \"#utility.yul\":9786:9789   */\n      0x00\n        /* \"#utility.yul\":9814:9853   */\n      tag_295\n        /* \"#utility.yul\":9847:9852   */\n      dup3\n        /* \"#utility.yul\":9814:9853   */\n      tag_158\n      jump\t// in\n    tag_295:\n        /* \"#utility.yul\":9869:9940   */\n      tag_296\n        /* \"#utility.yul\":9933:9939   */\n      dup2\n        /* \"#utility.yul\":9928:9931   */\n      dup6\n        /* \"#utility.yul\":9869:9940   */\n      tag_159\n      jump\t// in\n    tag_296:\n        /* \"#utility.yul\":9862:9940   */\n      swap4\n      pop\n        /* \"#utility.yul\":9949:10014   */\n      tag_297\n        /* \"#utility.yul\":10007:10013   */\n      dup2\n        /* \"#utility.yul\":10002:10005   */\n      dup6\n        /* \"#utility.yul\":9995:9999   */\n      0x20\n        /* \"#utility.yul\":9988:9993   */\n      dup7\n        /* \"#utility.yul\":9984:10000   */\n      add\n        /* \"#utility.yul\":9949:10014   */\n      tag_150\n      jump\t// in\n    tag_297:\n        /* \"#utility.yul\":10039:10068   */\n      tag_298\n        /* \"#utility.yul\":10061:10067   */\n      dup2\n        /* \"#utility.yul\":10039:10068   */\n      tag_135\n      jump\t// in\n    tag_298:\n        /* \"#utility.yul\":10034:10037   */\n      dup5\n        /* \"#utility.yul\":10030:10069   */\n      add\n        /* \"#utility.yul\":10023:10069   */\n      swap2\n      pop\n        /* \"#utility.yul\":9790:10075   */\n      pop\n        /* \"#utility.yul\":9698:10075   */\n      swap3\n      swap2\n      pop\n      pop\n      jump\t// out\n        /* \"#utility.yul\":10081:10923   */\n    tag_66:\n        /* \"#utility.yul\":10324:10328   */\n      0x00\n        /* \"#utility.yul\":10362:10365   */\n      0xa0\n        /* \"#utility.yul\":10351:10360   */\n      dup3\n        /* \"#utility.yul\":10347:10366   */\n      add\n        /* \"#utility.yul\":10339:10366   */\n      swap1\n      pop\n        /* \"#utility.yul\":10376:10447   */\n      tag_300\n        /* \"#utility.yul\":10444:10445   */\n      0x00\n        /* \"#utility.yul\":10433:10442   */\n      dup4\n        /* \"#utility.yul\":10429:10446   */\n      add\n        /* \"#utility.yul\":10420:10426   */\n      dup9\n        /* \"#utility.yul\":10376:10447   */\n      tag_157\n      jump\t// in\n    tag_300:\n        /* \"#utility.yul\":10457:10529   */\n      tag_301\n        /* \"#utility.yul\":10525:10527   */\n      0x20\n        /* \"#utility.yul\":10514:10523   */\n      dup4\n        /* \"#utility.yul\":10510:10528   */\n      add\n        /* \"#utility.yul\":10501:10507   */\n      dup8\n        /* \"#utility.yul\":10457:10529   */\n      tag_152\n      jump\t// in\n    tag_301:\n        /* \"#utility.yul\":10576:10585   */\n      dup2\n        /* \"#utility.yul\":10570:10574   */\n      dup2\n        /* \"#utility.yul\":10566:10586   */\n      sub\n        /* \"#utility.yul\":10561:10563   */\n      0x40\n        /* \"#utility.yul\":10550:10559   */\n      dup4\n        /* \"#utility.yul\":10546:10564   */\n      add\n        /* \"#utility.yul\":10539:10587   */\n      mstore\n        /* \"#utility.yul\":10604:10682   */\n      tag_302\n        /* \"#utility.yul\":10677:10681   */\n      dup2\n        /* \"#utility.yul\":10668:10674   */\n      dup7\n        /* \"#utility.yul\":10604:10682   */\n      tag_160\n      jump\t// in\n    tag_302:\n        /* \"#utility.yul\":10596:10682   */\n      swap1\n      pop\n        /* \"#utility.yul\":10729:10738   */\n      dup2\n        /* \"#utility.yul\":10723:10727   */\n      dup2\n        /* \"#utility.yul\":10719:10739   */\n      sub\n        /* \"#utility.yul\":10714:10716   */\n      0x60\n        /* \"#utility.yul\":10703:10712   */\n      dup4\n        /* \"#utility.yul\":10699:10717   */\n      add\n        /* \"#utility.yul\":10692:10740   */\n      mstore\n        /* \"#utility.yul\":10757:10833   */\n      tag_303\n        /* \"#utility.yul\":10828:10832   */\n      dup2\n        /* \"#utility.yul\":10819:10825   */\n      dup6\n        /* \"#utility.yul\":10757:10833   */\n      tag_151\n      jump\t// in\n    tag_303:\n        /* \"#utility.yul\":10749:10833   */\n      swap1\n      pop\n        /* \"#utility.yul\":10843:10916   */\n      tag_304\n        /* \"#utility.yul\":10911:10914   */\n      0x80\n        /* \"#utility.yul\":10900:10909   */\n      dup4\n        /* \"#utility.yul\":10896:10915   */\n      add\n        /* \"#utility.yul\":10887:10893   */\n      dup5\n        /* \"#utility.yul\":10843:10916   */\n      tag_152\n      jump\t// in\n    tag_304:\n        /* \"#utility.yul\":10081:10923   */\n      swap7\n      swap6\n      pop\n      pop\n      pop\n      pop\n      pop\n      pop\n      jump\t// out\n        /* \"#utility.yul\":10929:11105   */\n    tag_161:\n        /* \"#utility.yul\":11069:11097   */\n      0x54696d654c6f636b3a2063616c6c6572206e6f742061646d696e000000000000\n        /* \"#utility.yul\":11065:11066   */\n      0x00\n        /* \"#utility.yul\":11057:11063   */\n      dup3\n        /* \"#utility.yul\":11053:11067   */\n      add\n        /* \"#utility.yul\":11046:11098   */\n      mstore\n        /* \"#utility.yul\":10929:11105   */\n      pop\n      jump\t// out\n        /* \"#utility.yul\":11111:11477   */\n    tag_162:\n        /* \"#utility.yul\":11253:11256   */\n      0x00\n        /* \"#utility.yul\":11274:11341   */\n      tag_307\n        /* \"#utility.yul\":11338:11340   */\n      0x1a\n        /* \"#utility.yul\":11333:11336   */\n      dup4\n        /* \"#utility.yul\":11274:11341   */\n      tag_159\n      jump\t// in\n    tag_307:\n        /* \"#utility.yul\":11267:11341   */\n      swap2\n      pop\n        /* \"#utility.yul\":11350:11443   */\n      tag_308\n        /* \"#utility.yul\":11439:11442   */\n      dup3\n        /* \"#utility.yul\":11350:11443   */\n      tag_161\n      jump\t// in\n    tag_308:\n        /* \"#utility.yul\":11468:11470   */\n      0x20\n        /* \"#utility.yul\":11463:11466   */\n      dup3\n        /* \"#utility.yul\":11459:11471   */\n      add\n        /* \"#utility.yul\":11452:11471   */\n      swap1\n      pop\n        /* \"#utility.yul\":11111:11477   */\n      swap2\n      swap1\n      pop\n      jump\t// out\n        /* \"#utility.yul\":11483:11902   */\n    tag_70:\n        /* \"#utility.yul\":11649:11653   */\n      0x00\n        /* \"#utility.yul\":11687:11689   */\n      0x20\n        /* \"#utility.yul\":11676:11685   */\n      dup3\n        /* \"#utility.yul\":11672:11690   */\n      add\n        /* \"#utility.yul\":11664:11690   */\n      swap1\n      pop\n        /* \"#utility.yul\":11736:11745   */\n      dup2\n        /* \"#utility.yul\":11730:11734   */\n      dup2\n        /* \"#utility.yul\":11726:11746   */\n      sub\n        /* \"#utility.yul\":11722:11723   */\n      0x00\n        /* \"#utility.yul\":11711:11720   */\n      dup4\n        /* \"#utility.yul\":11707:11724   */\n      add\n        /* \"#utility.yul\":11700:11747   */\n      mstore\n        /* \"#utility.yul\":11764:11895   */\n      tag_310\n        /* \"#utility.yul\":11890:11894   */\n      dup2\n        /* \"#utility.yul\":11764:11895   */\n      tag_162\n      jump\t// in\n    tag_310:\n        /* \"#utility.yul\":11756:11895   */\n      swap1\n      pop\n        /* \"#utility.yul\":11483:11902   */\n      swap2\n      swap1\n      pop\n      jump\t// out\n        /* \"#utility.yul\":11908:12155   */\n    tag_163:\n        /* \"#utility.yul\":12048:12082   */\n      0x54696d654c6f636b3a3a657865637574655472616e73616374696f6e3a207472\n        /* \"#utility.yul\":12044:12045   */\n      0x00\n        /* \"#utility.yul\":12036:12042   */\n      dup3\n        /* \"#utility.yul\":12032:12046   */\n      add\n        /* \"#utility.yul\":12025:12083   */\n      mstore\n        /* \"#utility.yul\":12117:12147   */\n      0x616e73616374696f6e206861736e2774206265656e2071756575656400000000\n        /* \"#utility.yul\":12112:12114   */\n      0x20\n        /* \"#utility.yul\":12104:12110   */\n      dup3\n        /* \"#utility.yul\":12100:12115   */\n      add\n        /* \"#utility.yul\":12093:12148   */\n      mstore\n        /* \"#utility.yul\":11908:12155   */\n      pop\n      jump\t// out\n        /* \"#utility.yul\":12161:12527   */\n    tag_164:\n        /* \"#utility.yul\":12303:12306   */\n      0x00\n        /* \"#utility.yul\":12324:12391   */\n      tag_313\n        /* \"#utility.yul\":12388:12390   */\n      0x3c\n        /* \"#utility.yul\":12383:12386   */\n      dup4\n        /* \"#utility.yul\":12324:12391   */\n      tag_159\n      jump\t// in\n    tag_313:\n        /* \"#utility.yul\":12317:12391   */\n      swap2\n      pop\n        /* \"#utility.yul\":12400:12493   */\n      tag_314\n        /* \"#utility.yul\":12489:12492   */\n      dup3\n        /* \"#utility.yul\":12400:12493   */\n      tag_163\n      jump\t// in\n    tag_314:\n        /* \"#utility.yul\":12518:12520   */\n      0x40\n        /* \"#utility.yul\":12513:12516   */\n      dup3\n        /* \"#utility.yul\":12509:12521   */\n      add\n        /* \"#utility.yul\":12502:12521   */\n      swap1\n      pop\n        /* \"#utility.yul\":12161:12527   */\n      swap2\n      swap1\n      pop\n      jump\t// out\n        /* \"#utility.yul\":12533:12952   */\n    tag_75:\n        /* \"#utility.yul\":12699:12703   */\n      0x00\n        /* \"#utility.yul\":12737:12739   */\n      0x20\n        /* \"#utility.yul\":12726:12735   */\n      dup3\n        /* \"#utility.yul\":12722:12740   */\n      add\n        /* \"#utility.yul\":12714:12740   */\n      swap1\n      pop\n        /* \"#utility.yul\":12786:12795   */\n      dup2\n        /* \"#utility.yul\":12780:12784   */\n      dup2\n        /* \"#utility.yul\":12776:12796   */\n      sub\n        /* \"#utility.yul\":12772:12773   */\n      0x00\n        /* \"#utility.yul\":12761:12770   */\n      dup4\n        /* \"#utility.yul\":12757:12774   */\n      add\n        /* \"#utility.yul\":12750:12797   */\n      mstore\n        /* \"#utility.yul\":12814:12945   */\n      tag_316\n        /* \"#utility.yul\":12940:12944   */\n      dup2\n        /* \"#utility.yul\":12814:12945   */\n      tag_164\n      jump\t// in\n    tag_316:\n        /* \"#utility.yul\":12806:12945   */\n      swap1\n      pop\n        /* \"#utility.yul\":12533:12952   */\n      swap2\n      swap1\n      pop\n      jump\t// out\n        /* \"#utility.yul\":12958:13208   */\n    tag_165:\n        /* \"#utility.yul\":13098:13132   */\n      0x54696d654c6f636b3a3a657865637574655472616e73616374696f6e3a207472\n        /* \"#utility.yul\":13094:13095   */\n      0x00\n        /* \"#utility.yul\":13086:13092   */\n      dup3\n        /* \"#utility.yul\":13082:13096   */\n      add\n        /* \"#utility.yul\":13075:13133   */\n      mstore\n        /* \"#utility.yul\":13167:13200   */\n      0x616e73616374696f6e206861736e2774207375727061737365642074696d6500\n        /* \"#utility.yul\":13162:13164   */\n      0x20\n        /* \"#utility.yul\":13154:13160   */\n      dup3\n        /* \"#utility.yul\":13150:13165   */\n      add\n        /* \"#utility.yul\":13143:13201   */\n      mstore\n        /* \"#utility.yul\":12958:13208   */\n      pop\n      jump\t// out\n        /* \"#utility.yul\":13214:13580   */\n    tag_166:\n        /* \"#utility.yul\":13356:13359   */\n      0x00\n        /* \"#utility.yul\":13377:13444   */\n      tag_319\n        /* \"#utility.yul\":13441:13443   */\n      0x3f\n        /* \"#utility.yul\":13436:13439   */\n      dup4\n        /* \"#utility.yul\":13377:13444   */\n      tag_159\n      jump\t// in\n    tag_319:\n        /* \"#utility.yul\":13370:13444   */\n      swap2\n      pop\n        /* \"#utility.yul\":13453:13546   */\n      tag_320\n        /* \"#utility.yul\":13542:13545   */\n      dup3\n        /* \"#utility.yul\":13453:13546   */\n      tag_165\n      jump\t// in\n    tag_320:\n        /* \"#utility.yul\":13571:13573   */\n      0x40\n        /* \"#utility.yul\":13566:13569   */\n      dup3\n        /* \"#utility.yul\":13562:13574   */\n      add\n        /* \"#utility.yul\":13555:13574   */\n      swap1\n      pop\n        /* \"#utility.yul\":13214:13580   */\n      swap2\n      swap1\n      pop\n      jump\t// out\n        /* \"#utility.yul\":13586:14005   */\n    tag_79:\n        /* \"#utility.yul\":13752:13756   */\n      0x00\n        /* \"#utility.yul\":13790:13792   */\n      0x20\n        /* \"#utility.yul\":13779:13788   */\n      dup3\n        /* \"#utility.yul\":13775:13793   */\n      add\n        /* \"#utility.yul\":13767:13793   */\n      swap1\n      pop\n        /* \"#utility.yul\":13839:13848   */\n      dup2\n        /* \"#utility.yul\":13833:13837   */\n      dup2\n        /* \"#utility.yul\":13829:13849   */\n      sub\n        /* \"#utility.yul\":13825:13826   */\n      0x00\n        /* \"#utility.yul\":13814:13823   */\n      dup4\n        /* \"#utility.yul\":13810:13827   */\n      add\n        /* \"#utility.yul\":13803:13850   */\n      mstore\n        /* \"#utility.yul\":13867:13998   */\n      tag_322\n        /* \"#utility.yul\":13993:13997   */\n      dup2\n        /* \"#utility.yul\":13867:13998   */\n      tag_166\n      jump\t// in\n    tag_322:\n        /* \"#utility.yul\":13859:13998   */\n      swap1\n      pop\n        /* \"#utility.yul\":13586:14005   */\n      swap2\n      swap1\n      pop\n      jump\t// out\n        /* \"#utility.yul\":14011:14191   */\n    tag_167:\n        /* \"#utility.yul\":14059:14136   */\n      0x4e487b7100000000000000000000000000000000000000000000000000000000\n        /* \"#utility.yul\":14056:14057   */\n      0x00\n        /* \"#utility.yul\":14049:14137   */\n      mstore\n        /* \"#utility.yul\":14156:14160   */\n      0x11\n        /* \"#utility.yul\":14153:14154   */\n      0x04\n        /* \"#utility.yul\":14146:14161   */\n      mstore\n        /* \"#utility.yul\":14180:14184   */\n      0x24\n        /* \"#utility.yul\":14177:14178   */\n      0x00\n        /* \"#utility.yul\":14170:14185   */\n      revert\n        /* \"#utility.yul\":14197:14388   */\n    tag_81:\n        /* \"#utility.yul\":14237:14240   */\n      0x00\n        /* \"#utility.yul\":14256:14276   */\n      tag_325\n        /* \"#utility.yul\":14274:14275   */\n      dup3\n        /* \"#utility.yul\":14256:14276   */\n      tag_130\n      jump\t// in\n    tag_325:\n        /* \"#utility.yul\":14251:14276   */\n      swap2\n      pop\n        /* \"#utility.yul\":14290:14310   */\n      tag_326\n        /* \"#utility.yul\":14308:14309   */\n      dup4\n        /* \"#utility.yul\":14290:14310   */\n      tag_130\n      jump\t// in\n    tag_326:\n        /* \"#utility.yul\":14285:14310   */\n      swap3\n      pop\n        /* \"#utility.yul\":14333:14334   */\n      dup3\n        /* \"#utility.yul\":14330:14331   */\n      dup3\n        /* \"#utility.yul\":14326:14335   */\n      add\n        /* \"#utility.yul\":14319:14335   */\n      swap1\n      pop\n        /* \"#utility.yul\":14354:14357   */\n      dup1\n        /* \"#utility.yul\":14351:14352   */\n      dup3\n        /* \"#utility.yul\":14348:14358   */\n      gt\n        /* \"#utility.yul\":14345:14381   */\n      iszero\n      tag_327\n      jumpi\n        /* \"#utility.yul\":14361:14379   */\n      tag_328\n      tag_167\n      jump\t// in\n    tag_328:\n        /* \"#utility.yul\":14345:14381   */\n    tag_327:\n        /* \"#utility.yul\":14197:14388   */\n      swap3\n      swap2\n      pop\n      pop\n      jump\t// out\n        /* \"#utility.yul\":14394:14633   */\n    tag_168:\n        /* \"#utility.yul\":14534:14568   */\n      0x54696d654c6f636b3a3a657865637574696f6e5472616e73616374696f6e3a20\n        /* \"#utility.yul\":14530:14531   */\n      0x00\n        /* \"#utility.yul\":14522:14528   */\n      dup3\n        /* \"#utility.yul\":14518:14532   */\n      add\n        /* \"#utility.yul\":14511:14569   */\n      mstore\n        /* \"#utility.yul\":14603:14625   */\n      0x7472616e73616374696f6e206973207374616c65000000000000000000000000\n        /* \"#utility.yul\":14598:14600   */\n      0x20\n        /* \"#utility.yul\":14590:14596   */\n      dup3\n        /* \"#utility.yul\":14586:14601   */\n      add\n        /* \"#utility.yul\":14579:14626   */\n      mstore\n        /* \"#utility.yul\":14394:14633   */\n      pop\n      jump\t// out\n        /* \"#utility.yul\":14639:15005   */\n    tag_169:\n        /* \"#utility.yul\":14781:14784   */\n      0x00\n        /* \"#utility.yul\":14802:14869   */\n      tag_331\n        /* \"#utility.yul\":14866:14868   */\n      0x34\n        /* \"#utility.yul\":14861:14864   */\n      dup4\n        /* \"#utility.yul\":14802:14869   */\n      tag_159\n      jump\t// in\n    tag_331:\n        /* \"#utility.yul\":14795:14869   */\n      swap2\n      pop\n        /* \"#utility.yul\":14878:14971   */\n      tag_332\n        /* \"#utility.yul\":14967:14970   */\n      dup3\n        /* \"#utility.yul\":14878:14971   */\n      tag_168\n      jump\t// in\n    tag_332:\n        /* \"#utility.yul\":14996:14998   */\n      0x40\n        /* \"#utility.yul\":14991:14994   */\n      dup3\n        /* \"#utility.yul\":14987:14999   */\n      add\n        /* \"#utility.yul\":14980:14999   */\n      swap1\n      pop\n        /* \"#utility.yul\":14639:15005   */\n      swap2\n      swap1\n      pop\n      jump\t// out\n        /* \"#utility.yul\":15011:15430   */\n    tag_85:\n        /* \"#utility.yul\":15177:15181   */\n      0x00\n        /* \"#utility.yul\":15215:15217   */\n      0x20\n        /* \"#utility.yul\":15204:15213   */\n      dup3\n        /* \"#utility.yul\":15200:15218   */\n      add\n        /* \"#utility.yul\":15192:15218   */\n      swap1\n      pop\n        /* \"#utility.yul\":15264:15273   */\n      dup2\n        /* \"#utility.yul\":15258:15262   */\n      dup2\n        /* \"#utility.yul\":15254:15274   */\n      sub\n        /* \"#utility.yul\":15250:15251   */\n      0x00\n        /* \"#utility.yul\":15239:15248   */\n      dup4\n        /* \"#utility.yul\":15235:15252   */\n      add\n        /* \"#utility.yul\":15228:15275   */\n      mstore\n        /* \"#utility.yul\":15292:15423   */\n      tag_334\n        /* \"#utility.yul\":15418:15422   */\n      dup2\n        /* \"#utility.yul\":15292:15423   */\n      tag_169\n      jump\t// in\n    tag_334:\n        /* \"#utility.yul\":15284:15423   */\n      swap1\n      pop\n        /* \"#utility.yul\":15011:15430   */\n      swap2\n      swap1\n      pop\n      jump\t// out\n        /* \"#utility.yul\":15436:15585   */\n    tag_170:\n        /* \"#utility.yul\":15472:15479   */\n      0x00\n        /* \"#utility.yul\":15512:15578   */\n      0xffffffff00000000000000000000000000000000000000000000000000000000\n        /* \"#utility.yul\":15505:15510   */\n      dup3\n        /* \"#utility.yul\":15501:15579   */\n      and\n        /* \"#utility.yul\":15490:15579   */\n      swap1\n      pop\n        /* \"#utility.yul\":15436:15585   */\n      swap2\n      swap1\n      pop\n      jump\t// out\n        /* \"#utility.yul\":15591:15669   */\n    tag_171:\n        /* \"#utility.yul\":15629:15636   */\n      0x00\n        /* \"#utility.yul\":15658:15663   */\n      dup2\n        /* \"#utility.yul\":15647:15663   */\n      swap1\n      pop\n        /* \"#utility.yul\":15591:15669   */\n      swap2\n      swap1\n      pop\n      jump\t// out\n        /* \"#utility.yul\":15675:15828   */\n    tag_172:\n        /* \"#utility.yul\":15778:15821   */\n      tag_338\n        /* \"#utility.yul\":15797:15820   */\n      tag_339\n        /* \"#utility.yul\":15814:15819   */\n      dup3\n        /* \"#utility.yul\":15797:15820   */\n      tag_170\n      jump\t// in\n    tag_339:\n        /* \"#utility.yul\":15778:15821   */\n      tag_171\n      jump\t// in\n    tag_338:\n        /* \"#utility.yul\":15773:15776   */\n      dup3\n        /* \"#utility.yul\":15766:15822   */\n      mstore\n        /* \"#utility.yul\":15675:15828   */\n      pop\n      pop\n      jump\t// out\n        /* \"#utility.yul\":15834:15981   */\n    tag_173:\n        /* \"#utility.yul\":15935:15946   */\n      0x00\n        /* \"#utility.yul\":15972:15975   */\n      dup2\n        /* \"#utility.yul\":15957:15975   */\n      swap1\n      pop\n        /* \"#utility.yul\":15834:15981   */\n      swap3\n      swap2\n      pop\n      pop\n      jump\t// out\n        /* \"#utility.yul\":15987:16373   */\n    tag_174:\n        /* \"#utility.yul\":16091:16094   */\n      0x00\n        /* \"#utility.yul\":16119:16157   */\n      tag_342\n        /* \"#utility.yul\":16151:16156   */\n      dup3\n        /* \"#utility.yul\":16119:16157   */\n      tag_148\n      jump\t// in\n    tag_342:\n        /* \"#utility.yul\":16173:16261   */\n      tag_343\n        /* \"#utility.yul\":16254:16260   */\n      dup2\n        /* \"#utility.yul\":16249:16252   */\n      dup6\n        /* \"#utility.yul\":16173:16261   */\n      tag_173\n      jump\t// in\n    tag_343:\n        /* \"#utility.yul\":16166:16261   */\n      swap4\n      pop\n        /* \"#utility.yul\":16270:16335   */\n      tag_344\n        /* \"#utility.yul\":16328:16334   */\n      dup2\n        /* \"#utility.yul\":16323:16326   */\n      dup6\n        /* \"#utility.yul\":16316:16320   */\n      0x20\n        /* \"#utility.yul\":16309:16314   */\n      dup7\n        /* \"#utility.yul\":16305:16321   */\n      add\n        /* \"#utility.yul\":16270:16335   */\n      tag_150\n      jump\t// in\n    tag_344:\n        /* \"#utility.yul\":16360:16366   */\n      dup1\n        /* \"#utility.yul\":16355:16358   */\n      dup5\n        /* \"#utility.yul\":16351:16367   */\n      add\n        /* \"#utility.yul\":16344:16367   */\n      swap2\n      pop\n        /* \"#utility.yul\":16095:16373   */\n      pop\n        /* \"#utility.yul\":15987:16373   */\n      swap3\n      swap2\n      pop\n      pop\n      jump\t// out\n        /* \"#utility.yul\":16379:16786   */\n    tag_89:\n        /* \"#utility.yul\":16535:16538   */\n      0x00\n        /* \"#utility.yul\":16550:16623   */\n      tag_346\n        /* \"#utility.yul\":16619:16622   */\n      dup3\n        /* \"#utility.yul\":16610:16616   */\n      dup6\n        /* \"#utility.yul\":16550:16623   */\n      tag_172\n      jump\t// in\n    tag_346:\n        /* \"#utility.yul\":16648:16649   */\n      0x04\n        /* \"#utility.yul\":16643:16646   */\n      dup3\n        /* \"#utility.yul\":16639:16650   */\n      add\n        /* \"#utility.yul\":16632:16650   */\n      swap2\n      pop\n        /* \"#utility.yul\":16667:16760   */\n      tag_347\n        /* \"#utility.yul\":16756:16759   */\n      dup3\n        /* \"#utility.yul\":16747:16753   */\n      dup5\n        /* \"#utility.yul\":16667:16760   */\n      tag_174\n      jump\t// in\n    tag_347:\n        /* \"#utility.yul\":16660:16760   */\n      swap2\n      pop\n        /* \"#utility.yul\":16777:16780   */\n      dup2\n        /* \"#utility.yul\":16770:16780   */\n      swap1\n      pop\n        /* \"#utility.yul\":16379:16786   */\n      swap4\n      swap3\n      pop\n      pop\n      pop\n      jump\t// out\n        /* \"#utility.yul\":16792:17063   */\n    tag_91:\n        /* \"#utility.yul\":16922:16925   */\n      0x00\n        /* \"#utility.yul\":16944:17037   */\n      tag_349\n        /* \"#utility.yul\":17033:17036   */\n      dup3\n        /* \"#utility.yul\":17024:17030   */\n      dup5\n        /* \"#utility.yul\":16944:17037   */\n      tag_174\n      jump\t// in\n    tag_349:\n        /* \"#utility.yul\":16937:17037   */\n      swap2\n      pop\n        /* \"#utility.yul\":17054:17057   */\n      dup2\n        /* \"#utility.yul\":17047:17057   */\n      swap1\n      pop\n        /* \"#utility.yul\":16792:17063   */\n      swap3\n      swap2\n      pop\n      pop\n      jump\t// out\n        /* \"#utility.yul\":17069:17317   */\n    tag_175:\n        /* \"#utility.yul\":17209:17243   */\n      0x54696d654c6f636b3a3a657865637574655472616e73616374696f6e3a205472\n        /* \"#utility.yul\":17205:17206   */\n      0x00\n        /* \"#utility.yul\":17197:17203   */\n      dup3\n        /* \"#utility.yul\":17193:17207   */\n      add\n        /* \"#utility.yul\":17186:17244   */\n      mstore\n        /* \"#utility.yul\":17278:17309   */\n      0x616e73616374696f6e20657865637574696f6e2072657665727465642e000000\n        /* \"#utility.yul\":17273:17275   */\n      0x20\n        /* \"#utility.yul\":17265:17271   */\n      dup3\n        /* \"#utility.yul\":17261:17276   */\n      add\n        /* \"#utility.yul\":17254:17310   */\n      mstore\n        /* \"#utility.yul\":17069:17317   */\n      pop\n      jump\t// out\n        /* \"#utility.yul\":17323:17689   */\n    tag_176:\n        /* \"#utility.yul\":17465:17468   */\n      0x00\n        /* \"#utility.yul\":17486:17553   */\n      tag_352\n        /* \"#utility.yul\":17550:17552   */\n      0x3d\n        /* \"#utility.yul\":17545:17548   */\n      dup4\n        /* \"#utility.yul\":17486:17553   */\n      tag_159\n      jump\t// in\n    tag_352:\n        /* \"#utility.yul\":17479:17553   */\n      swap2\n      pop\n        /* \"#utility.yul\":17562:17655   */\n      tag_353\n        /* \"#utility.yul\":17651:17654   */\n      dup3\n        /* \"#utility.yul\":17562:17655   */\n      tag_175\n      jump\t// in\n    tag_353:\n        /* \"#utility.yul\":17680:17682   */\n      0x40\n        /* \"#utility.yul\":17675:17678   */\n      dup3\n        /* \"#utility.yul\":17671:17683   */\n      add\n        /* \"#utility.yul\":17664:17683   */\n      swap1\n      pop\n        /* \"#utility.yul\":17323:17689   */\n      swap2\n      swap1\n      pop\n      jump\t// out\n        /* \"#utility.yul\":17695:18114   */\n    tag_97:\n        /* \"#utility.yul\":17861:17865   */\n      0x00\n        /* \"#utility.yul\":17899:17901   */\n      0x20\n        /* \"#utility.yul\":17888:17897   */\n      dup3\n        /* \"#utility.yul\":17884:17902   */\n      add\n        /* \"#utility.yul\":17876:17902   */\n      swap1\n      pop\n        /* \"#utility.yul\":17948:17957   */\n      dup2\n        /* \"#utility.yul\":17942:17946   */\n      dup2\n        /* \"#utility.yul\":17938:17958   */\n      sub\n        /* \"#utility.yul\":17934:17935   */\n      0x00\n        /* \"#utility.yul\":17923:17932   */\n      dup4\n        /* \"#utility.yul\":17919:17936   */\n      add\n        /* \"#utility.yul\":17912:17959   */\n      mstore\n        /* \"#utility.yul\":17976:18107   */\n      tag_355\n        /* \"#utility.yul\":18102:18106   */\n      dup2\n        /* \"#utility.yul\":17976:18107   */\n      tag_176\n      jump\t// in\n    tag_355:\n        /* \"#utility.yul\":17968:18107   */\n      swap1\n      pop\n        /* \"#utility.yul\":17695:18114   */\n      swap2\n      swap1\n      pop\n      jump\t// out\n        /* \"#utility.yul\":18120:18851   */\n    tag_99:\n        /* \"#utility.yul\":18335:18339   */\n      0x00\n        /* \"#utility.yul\":18373:18376   */\n      0x80\n        /* \"#utility.yul\":18362:18371   */\n      dup3\n        /* \"#utility.yul\":18358:18377   */\n      add\n        /* \"#utility.yul\":18350:18377   */\n      swap1\n      pop\n        /* \"#utility.yul\":18387:18458   */\n      tag_357\n        /* \"#utility.yul\":18455:18456   */\n      0x00\n        /* \"#utility.yul\":18444:18453   */\n      dup4\n        /* \"#utility.yul\":18440:18457   */\n      add\n        /* \"#utility.yul\":18431:18437   */\n      dup8\n        /* \"#utility.yul\":18387:18458   */\n      tag_152\n      jump\t// in\n    tag_357:\n        /* \"#utility.yul\":18505:18514   */\n      dup2\n        /* \"#utility.yul\":18499:18503   */\n      dup2\n        /* \"#utility.yul\":18495:18515   */\n      sub\n        /* \"#utility.yul\":18490:18492   */\n      0x20\n        /* \"#utility.yul\":18479:18488   */\n      dup4\n        /* \"#utility.yul\":18475:18493   */\n      add\n        /* \"#utility.yul\":18468:18516   */\n      mstore\n        /* \"#utility.yul\":18533:18611   */\n      tag_358\n        /* \"#utility.yul\":18606:18610   */\n      dup2\n        /* \"#utility.yul\":18597:18603   */\n      dup7\n        /* \"#utility.yul\":18533:18611   */\n      tag_160\n      jump\t// in\n    tag_358:\n        /* \"#utility.yul\":18525:18611   */\n      swap1\n      pop\n        /* \"#utility.yul\":18658:18667   */\n      dup2\n        /* \"#utility.yul\":18652:18656   */\n      dup2\n        /* \"#utility.yul\":18648:18668   */\n      sub\n        /* \"#utility.yul\":18643:18645   */\n      0x40\n        /* \"#utility.yul\":18632:18641   */\n      dup4\n        /* \"#utility.yul\":18628:18646   */\n      add\n        /* \"#utility.yul\":18621:18669   */\n      mstore\n        /* \"#utility.yul\":18686:18762   */\n      tag_359\n        /* \"#utility.yul\":18757:18761   */\n      dup2\n        /* \"#utility.yul\":18748:18754   */\n      dup6\n        /* \"#utility.yul\":18686:18762   */\n      tag_151\n      jump\t// in\n    tag_359:\n        /* \"#utility.yul\":18678:18762   */\n      swap1\n      pop\n        /* \"#utility.yul\":18772:18844   */\n      tag_360\n        /* \"#utility.yul\":18840:18842   */\n      0x60\n        /* \"#utility.yul\":18829:18838   */\n      dup4\n        /* \"#utility.yul\":18825:18843   */\n      add\n        /* \"#utility.yul\":18816:18822   */\n      dup5\n        /* \"#utility.yul\":18772:18844   */\n      tag_152\n      jump\t// in\n    tag_360:\n        /* \"#utility.yul\":18120:18851   */\n      swap6\n      swap5\n      pop\n      pop\n      pop\n      pop\n      pop\n      jump\t// out\n        /* \"#utility.yul\":18857:19099   */\n    tag_177:\n        /* \"#utility.yul\":18997:19031   */\n      0x54696d654c6f636b3a3a2071756575655472616e73616374696f6e3a20457374\n        /* \"#utility.yul\":18993:18994   */\n      0x00\n        /* \"#utility.yul\":18985:18991   */\n      dup3\n        /* \"#utility.yul\":18981:18995   */\n      add\n        /* \"#utility.yul\":18974:19032   */\n      mstore\n        /* \"#utility.yul\":19066:19091   */\n      0x696d6174656420657865637574696f6e20626c6f636b20000000000000000000\n        /* \"#utility.yul\":19061:19063   */\n      0x20\n        /* \"#utility.yul\":19053:19059   */\n      dup3\n        /* \"#utility.yul\":19049:19064   */\n      add\n        /* \"#utility.yul\":19042:19092   */\n      mstore\n        /* \"#utility.yul\":18857:19099   */\n      pop\n      jump\t// out\n        /* \"#utility.yul\":19105:19471   */\n    tag_178:\n        /* \"#utility.yul\":19247:19250   */\n      0x00\n        /* \"#utility.yul\":19268:19335   */\n      tag_363\n        /* \"#utility.yul\":19332:19334   */\n      0x37\n        /* \"#utility.yul\":19327:19330   */\n      dup4\n        /* \"#utility.yul\":19268:19335   */\n      tag_159\n      jump\t// in\n    tag_363:\n        /* \"#utility.yul\":19261:19335   */\n      swap2\n      pop\n        /* \"#utility.yul\":19344:19437   */\n      tag_364\n        /* \"#utility.yul\":19433:19436   */\n      dup3\n        /* \"#utility.yul\":19344:19437   */\n      tag_177\n      jump\t// in\n    tag_364:\n        /* \"#utility.yul\":19462:19464   */\n      0x40\n        /* \"#utility.yul\":19457:19460   */\n      dup3\n        /* \"#utility.yul\":19453:19465   */\n      add\n        /* \"#utility.yul\":19446:19465   */\n      swap1\n      pop\n        /* \"#utility.yul\":19105:19471   */\n      swap2\n      swap1\n      pop\n      jump\t// out\n        /* \"#utility.yul\":19477:19896   */\n    tag_108:\n        /* \"#utility.yul\":19643:19647   */\n      0x00\n        /* \"#utility.yul\":19681:19683   */\n      0x20\n        /* \"#utility.yul\":19670:19679   */\n      dup3\n        /* \"#utility.yul\":19666:19684   */\n      add\n        /* \"#utility.yul\":19658:19684   */\n      swap1\n      pop\n        /* \"#utility.yul\":19730:19739   */\n      dup2\n        /* \"#utility.yul\":19724:19728   */\n      dup2\n        /* \"#utility.yul\":19720:19740   */\n      sub\n        /* \"#utility.yul\":19716:19717   */\n      0x00\n        /* \"#utility.yul\":19705:19714   */\n      dup4\n        /* \"#utility.yul\":19701:19718   */\n      add\n        /* \"#utility.yul\":19694:19741   */\n      mstore\n        /* \"#utility.yul\":19758:19889   */\n      tag_366\n        /* \"#utility.yul\":19884:19888   */\n      dup2\n        /* \"#utility.yul\":19758:19889   */\n      tag_178\n      jump\t// in\n    tag_366:\n        /* \"#utility.yul\":19750:19889   */\n      swap1\n      pop\n        /* \"#utility.yul\":19477:19896   */\n      swap2\n      swap1\n      pop\n      jump\t// out\n        /* \"#utility.yul\":19902:20081   */\n    tag_179:\n        /* \"#utility.yul\":20042:20073   */\n      0x54696d654c6f636b3a2063616c6c6572206e6f742054696d654c6f636b000000\n        /* \"#utility.yul\":20038:20039   */\n      0x00\n        /* \"#utility.yul\":20030:20036   */\n      dup3\n        /* \"#utility.yul\":20026:20040   */\n      add\n        /* \"#utility.yul\":20019:20074   */\n      mstore\n        /* \"#utility.yul\":19902:20081   */\n      pop\n      jump\t// out\n        /* \"#utility.yul\":20087:20453   */\n    tag_180:\n        /* \"#utility.yul\":20229:20232   */\n      0x00\n        /* \"#utility.yul\":20250:20317   */\n      tag_369\n        /* \"#utility.yul\":20314:20316   */\n      0x1d\n        /* \"#utility.yul\":20309:20312   */\n      dup4\n        /* \"#utility.yul\":20250:20317   */\n      tag_159\n      jump\t// in\n    tag_369:\n        /* \"#utility.yul\":20243:20317   */\n      swap2\n      pop\n        /* \"#utility.yul\":20326:20419   */\n      tag_370\n        /* \"#utility.yul\":20415:20418   */\n      dup3\n        /* \"#utility.yul\":20326:20419   */\n      tag_179\n      jump\t// in\n    tag_370:\n        /* \"#utility.yul\":20444:20446   */\n      0x20\n        /* \"#utility.yul\":20439:20442   */\n      dup3\n        /* \"#utility.yul\":20435:20447   */\n      add\n        /* \"#utility.yul\":20428:20447   */\n      swap1\n      pop\n        /* \"#utility.yul\":20087:20453   */\n      swap2\n      swap1\n      pop\n      jump\t// out\n        /* \"#utility.yul\":20459:20878   */\n    tag_121:\n        /* \"#utility.yul\":20625:20629   */\n      0x00\n        /* \"#utility.yul\":20663:20665   */\n      0x20\n        /* \"#utility.yul\":20652:20661   */\n      dup3\n        /* \"#utility.yul\":20648:20666   */\n      add\n        /* \"#utility.yul\":20640:20666   */\n      swap1\n      pop\n        /* \"#utility.yul\":20712:20721   */\n      dup2\n        /* \"#utility.yul\":20706:20710   */\n      dup2\n        /* \"#utility.yul\":20702:20722   */\n      sub\n        /* \"#utility.yul\":20698:20699   */\n      0x00\n        /* \"#utility.yul\":20687:20696   */\n      dup4\n        /* \"#utility.yul\":20683:20700   */\n      add\n        /* \"#utility.yul\":20676:20723   */\n      mstore\n        /* \"#utility.yul\":20740:20871   */\n      tag_372\n        /* \"#utility.yul\":20866:20870   */\n      dup2\n        /* \"#utility.yul\":20740:20871   */\n      tag_180\n      jump\t// in\n    tag_372:\n        /* \"#utility.yul\":20732:20871   */\n      swap1\n      pop\n        /* \"#utility.yul\":20459:20878   */\n      swap2\n      swap1\n      pop\n      jump\t// out\n\n    auxdata: 0xa264697066735822122096cd89ed260b67a71bf2c8512e747be1674eb13654a01df453bcdc2cd290186264736f6c634300081a0033\n}\n",
				"bytecode": {
					"linkReferences": {},
					"object": "6080604052348015600e575f80fd5b506040516115533803806115538339818101604052810190602e919060ab565b80600181905550335f806101000a81548173ffffffffffffffffffffffffffffffffffffffff021916908373ffffffffffffffffffffffffffffffffffffffff1602179055505060d1565b5f80fd5b5f819050919050565b608d81607d565b81146096575f80fd5b50565b5f8151905060a5816086565b92915050565b5f6020828403121560bd5760bc6079565b5b5f60c8848285016099565b91505092915050565b611475806100de5f395ff3fe608060405260043610610090575f3560e01c8063796b89b911610058578063796b89b91461018e5780638f283970146101b8578063c1a287e2146101e0578063cf39802d1461020a578063f851a4401461024657610090565b806304a71576146100945780630825f38f146100d05780633a66f90114610100578063591fcdfe1461013c5780636a42b8f814610164575b5f80fd5b34801561009f575f80fd5b506100ba60048036038101906100b59190610c22565b610270565b6040516100c79190610ce9565b60405180910390f35b6100ea60048036038101906100e59190610c22565b6102ab565b6040516100f79190610d62565b60405180910390f35b34801561010b575f80fd5b5061012660048036038101906101219190610c22565b6105c0565b6040516101339190610ce9565b60405180910390f35b348015610147575f80fd5b50610162600480360381019061015d9190610c22565b610741565b005b34801561016f575f80fd5b50610178610863565b6040516101859190610d91565b60405180910390f35b348015610199575f80fd5b506101a2610869565b6040516101af9190610d91565b60405180910390f35b3480156101c3575f80fd5b506101de60048036038101906101d99190610daa565b610870565b005b3480156101eb575f80fd5b506101f4610963565b6040516102019190610d91565b60405180910390f35b348015610215575f80fd5b50610230600480360381019061022b9190610dff565b61096a565b60405161023d9190610e44565b60405180910390f35b348015610251575f80fd5b5061025a610987565b6040516102679190610e6c565b60405180910390f35b5f858585858560405160200161028a959493929190610ed7565b60405160208183030381529060405280519060200120905095945050505050565b60605f8054906101000a900473ffffffffffffffffffffffffffffffffffffffff1673ffffffffffffffffffffffffffffffffffffffff163373ffffffffffffffffffffffffffffffffffffffff161461033a576040517f08c379a000000000000000000000000000000000000000000000000000000000815260040161033190610f80565b60405180910390fd5b5f6103488787878787610270565b905060025f8281526020019081526020015f205f9054906101000a900460ff166103a7576040517f08c379a000000000000000000000000000000000000000000000000000000000815260040161039e9061100e565b60405180910390fd5b826103b0610869565b10156103f1576040517f08c379a00000000000000000000000000000000000000000000000000000000081526004016103e89061109c565b60405180910390fd5b62093a808361040091906110e7565b610408610869565b1115610449576040517f08c379a00000000000000000000000000000000000000000000000000000000081526004016104409061118a565b60405180910390fd5b5f60025f8381526020019081526020015f205f6101000a81548160ff02191690831515021790555060605f865103610483578490506104af565b85805190602001208560405160200161049d92919061122d565b60405160208183030381529060405290505b5f808973ffffffffffffffffffffffffffffffffffffffff1689846040516104d79190611254565b5f6040518083038185875af1925050503d805f8114610511576040519150601f19603f3d011682016040523d82523d5f602084013e610516565b606091505b50915091508161055b576040517f08c379a0000000000000000000000000000000000000000000000000000000008152600401610552906112da565b60405180910390fd5b8973ffffffffffffffffffffffffffffffffffffffff16847fa560e3198060a2f10670c1ec5b403077ea6ae93ca8de1c32b451dc1a943cd6e78b8b8b8b6040516105a894939291906112f8565b60405180910390a38094505050505095945050505050565b5f805f9054906101000a900473ffffffffffffffffffffffffffffffffffffffff1673ffffffffffffffffffffffffffffffffffffffff163373ffffffffffffffffffffffffffffffffffffffff161461064f576040517f08c379a000000000000000000000000000000000000000000000000000000000815260040161064690610f80565b60405180910390fd5b60015461065a610869565b61066491906110e7565b8210156106a6576040517f08c379a000000000000000000000000000000000000000000000000000000000815260040161069d906113b9565b60405180910390fd5b5f6106b48787878787610270565b9050600160025f8381526020019081526020015f205f6101000a81548160ff0219169083151502179055508673ffffffffffffffffffffffffffffffffffffffff16817f76e2796dc3a81d57b0e8504b647febcbeeb5f4af818e164f11eef8131a6a763f8888888860405161072c94939291906112f8565b60405180910390a38091505095945050505050565b5f8054906101000a900473ffffffffffffffffffffffffffffffffffffffff1673ffffffffffffffffffffffffffffffffffffffff163373ffffffffffffffffffffffffffffffffffffffff16146107ce576040517f08c379a00000000000000000000000000000000000000000000000000000000081526004016107c590610f80565b60405180910390fd5b5f6107dc8686868686610270565b90505f60025f8381526020019081526020015f205f6101000a81548160ff0219169083151502179055508573ffffffffffffffffffffffffffffffffffffffff16817f2fffc091a501fd91bfbff27141450d3acb40fb8e6d8382b243ec7a812a3aaf878787878760405161085394939291906112f8565b60405180910390a3505050505050565b60015481565b5f42905090565b3073ffffffffffffffffffffffffffffffffffffffff163373ffffffffffffffffffffffffffffffffffffffff16146108de576040517f08c379a00000000000000000000000000000000000000000000000000000000081526004016108d590611421565b60405180910390fd5b805f806101000a81548173ffffffffffffffffffffffffffffffffffffffff021916908373ffffffffffffffffffffffffffffffffffffffff1602179055508073ffffffffffffffffffffffffffffffffffffffff167f71614071b88dee5e0b2ae578a9dd7b2ebbe9ae832ba419dc0242cd065a290b6c60405160405180910390a250565b62093a8081565b6002602052805f5260405f205f915054906101000a900460ff1681565b5f8054906101000a900473ffffffffffffffffffffffffffffffffffffffff1681565b5f604051905090565b5f80fd5b5f80fd5b5f73ffffffffffffffffffffffffffffffffffffffff82169050919050565b5f6109e4826109bb565b9050919050565b6109f4816109da565b81146109fe575f80fd5b50565b5f81359050610a0f816109eb565b92915050565b5f819050919050565b610a2781610a15565b8114610a31575f80fd5b50565b5f81359050610a4281610a1e565b92915050565b5f80fd5b5f80fd5b5f601f19601f8301169050919050565b7f4e487b71000000000000000000000000000000000000000000000000000000005f52604160045260245ffd5b610a9682610a50565b810181811067ffffffffffffffff82111715610ab557610ab4610a60565b5b80604052505050565b5f610ac76109aa565b9050610ad38282610a8d565b919050565b5f67ffffffffffffffff821115610af257610af1610a60565b5b610afb82610a50565b9050602081019050919050565b828183375f83830152505050565b5f610b28610b2384610ad8565b610abe565b905082815260208101848484011115610b4457610b43610a4c565b5b610b4f848285610b08565b509392505050565b5f82601f830112610b6b57610b6a610a48565b5b8135610b7b848260208601610b16565b91505092915050565b5f67ffffffffffffffff821115610b9e57610b9d610a60565b5b610ba782610a50565b9050602081019050919050565b5f610bc6610bc184610b84565b610abe565b905082815260208101848484011115610be257610be1610a4c565b5b610bed848285610b08565b509392505050565b5f82601f830112610c0957610c08610a48565b5b8135610c19848260208601610bb4565b91505092915050565b5f805f805f60a08688031215610c3b57610c3a6109b3565b5b5f610c4888828901610a01565b9550506020610c5988828901610a34565b945050604086013567ffffffffffffffff811115610c7a57610c796109b7565b5b610c8688828901610b57565b935050606086013567ffffffffffffffff811115610ca757610ca66109b7565b5b610cb388828901610bf5565b9250506080610cc488828901610a34565b9150509295509295909350565b5f819050919050565b610ce381610cd1565b82525050565b5f602082019050610cfc5f830184610cda565b92915050565b5f81519050919050565b5f82825260208201905092915050565b8281835e5f83830152505050565b5f610d3482610d02565b610d3e8185610d0c565b9350610d4e818560208601610d1c565b610d5781610a50565b840191505092915050565b5f6020820190508181035f830152610d7a8184610d2a565b905092915050565b610d8b81610a15565b82525050565b5f602082019050610da45f830184610d82565b92915050565b5f60208284031215610dbf57610dbe6109b3565b5b5f610dcc84828501610a01565b91505092915050565b610dde81610cd1565b8114610de8575f80fd5b50565b5f81359050610df981610dd5565b92915050565b5f60208284031215610e1457610e136109b3565b5b5f610e2184828501610deb565b91505092915050565b5f8115159050919050565b610e3e81610e2a565b82525050565b5f602082019050610e575f830184610e35565b92915050565b610e66816109da565b82525050565b5f602082019050610e7f5f830184610e5d565b92915050565b5f81519050919050565b5f82825260208201905092915050565b5f610ea982610e85565b610eb38185610e8f565b9350610ec3818560208601610d1c565b610ecc81610a50565b840191505092915050565b5f60a082019050610eea5f830188610e5d565b610ef76020830187610d82565b8181036040830152610f098186610e9f565b90508181036060830152610f1d8185610d2a565b9050610f2c6080830184610d82565b9695505050505050565b7f54696d654c6f636b3a2063616c6c6572206e6f742061646d696e0000000000005f82015250565b5f610f6a601a83610e8f565b9150610f7582610f36565b602082019050919050565b5f6020820190508181035f830152610f9781610f5e565b9050919050565b7f54696d654c6f636b3a3a657865637574655472616e73616374696f6e3a2074725f8201527f616e73616374696f6e206861736e2774206265656e2071756575656400000000602082015250565b5f610ff8603c83610e8f565b915061100382610f9e565b604082019050919050565b5f6020820190508181035f83015261102581610fec565b9050919050565b7f54696d654c6f636b3a3a657865637574655472616e73616374696f6e3a2074725f8201527f616e73616374696f6e206861736e2774207375727061737365642074696d6500602082015250565b5f611086603f83610e8f565b91506110918261102c565b604082019050919050565b5f6020820190508181035f8301526110b38161107a565b9050919050565b7f4e487b71000000000000000000000000000000000000000000000000000000005f52601160045260245ffd5b5f6110f182610a15565b91506110fc83610a15565b9250828201905080821115611114576111136110ba565b5b92915050565b7f54696d654c6f636b3a3a657865637574696f6e5472616e73616374696f6e3a205f8201527f7472616e73616374696f6e206973207374616c65000000000000000000000000602082015250565b5f611174603483610e8f565b915061117f8261111a565b604082019050919050565b5f6020820190508181035f8301526111a181611168565b9050919050565b5f7fffffffff0000000000000000000000000000000000000000000000000000000082169050919050565b5f819050919050565b6111ed6111e8826111a8565b6111d3565b82525050565b5f81905092915050565b5f61120782610d02565b61121181856111f3565b9350611221818560208601610d1c565b80840191505092915050565b5f61123882856111dc565b60048201915061124882846111fd565b91508190509392505050565b5f61125f82846111fd565b915081905092915050565b7f54696d654c6f636b3a3a657865637574655472616e73616374696f6e3a2054725f8201527f616e73616374696f6e20657865637574696f6e2072657665727465642e000000602082015250565b5f6112c4603d83610e8f565b91506112cf8261126a565b604082019050919050565b5f6020820190508181035f8301526112f1816112b8565b9050919050565b5f60808201905061130b5f830187610d82565b818103602083015261131d8186610e9f565b905081810360408301526113318185610d2a565b90506113406060830184610d82565b95945050505050565b7f54696d654c6f636b3a3a2071756575655472616e73616374696f6e3a204573745f8201527f696d6174656420657865637574696f6e20626c6f636b20000000000000000000602082015250565b5f6113a3603783610e8f565b91506113ae82611349565b604082019050919050565b5f6020820190508181035f8301526113d081611397565b9050919050565b7f54696d654c6f636b3a2063616c6c6572206e6f742054696d654c6f636b0000005f82015250565b5f61140b601d83610e8f565b9150611416826113d7565b602082019050919050565b5f6020820190508181035f830152611438816113ff565b905091905056fea264697066735822122096cd89ed260b67a71bf2c8512e747be1674eb13654a01df453bcdc2cd290186264736f6c634300081a0033",
					"opcodes": "PUSH1 0x80 PUSH1 0x40 MSTORE CALLVALUE DUP1 ISZERO PUSH1 0xE JUMPI PUSH0 DUP1 REVERT JUMPDEST POP PUSH1 0x40 MLOAD PUSH2 0x1553 CODESIZE SUB DUP1 PUSH2 0x1553 DUP4 CODECOPY DUP2 DUP2 ADD PUSH1 0x40 MSTORE DUP2 ADD SWAP1 PUSH1 0x2E SWAP2 SWAP1 PUSH1 0xAB JUMP JUMPDEST DUP1 PUSH1 0x1 DUP2 SWAP1 SSTORE POP CALLER PUSH0 DUP1 PUSH2 0x100 EXP DUP2 SLOAD DUP2 PUSH20 0xFFFFFFFFFFFFFFFFFFFFFFFFFFFFFFFFFFFFFFFF MUL NOT AND SWAP1 DUP4 PUSH20 0xFFFFFFFFFFFFFFFFFFFFFFFFFFFFFFFFFFFFFFFF AND MUL OR SWAP1 SSTORE POP POP PUSH1 0xD1 JUMP JUMPDEST PUSH0 DUP1 REVERT JUMPDEST PUSH0 DUP2 SWAP1 POP SWAP2 SWAP1 POP JUMP JUMPDEST PUSH1 0x8D DUP2 PUSH1 0x7D JUMP JUMPDEST DUP2 EQ PUSH1 0x96 JUMPI PUSH0 DUP1 REVERT JUMPDEST POP JUMP JUMPDEST PUSH0 DUP2 MLOAD SWAP1 POP PUSH1 0xA5 DUP2 PUSH1 0x86 JUMP JUMPDEST SWAP3 SWAP2 POP POP JUMP JUMPDEST PUSH0 PUSH1 0x20 DUP3 DUP5 SUB SLT ISZERO PUSH1 0xBD JUMPI PUSH1 0xBC PUSH1 0x79 JUMP JUMPDEST JUMPDEST PUSH0 PUSH1 0xC8 DUP5 DUP3 DUP6 ADD PUSH1 0x99 JUMP JUMPDEST SWAP2 POP POP SWAP3 SWAP2 POP POP JUMP JUMPDEST PUSH2 0x1475 DUP1 PUSH2 0xDE PUSH0 CODECOPY PUSH0 RETURN INVALID PUSH1 0x80 PUSH1 0x40 MSTORE PUSH1 0x4 CALLDATASIZE LT PUSH2 0x90 JUMPI PUSH0 CALLDATALOAD PUSH1 0xE0 SHR DUP1 PUSH4 0x796B89B9 GT PUSH2 0x58 JUMPI DUP1 PUSH4 0x796B89B9 EQ PUSH2 0x18E JUMPI DUP1 PUSH4 0x8F283970 EQ PUSH2 0x1B8 JUMPI DUP1 PUSH4 0xC1A287E2 EQ PUSH2 0x1E0 JUMPI DUP1 PUSH4 0xCF39802D EQ PUSH2 0x20A JUMPI DUP1 PUSH4 0xF851A440 EQ PUSH2 0x246 JUMPI PUSH2 0x90 JUMP JUMPDEST DUP1 PUSH4 0x4A71576 EQ PUSH2 0x94 JUMPI DUP1 PUSH4 0x825F38F EQ PUSH2 0xD0 JUMPI DUP1 PUSH4 0x3A66F901 EQ PUSH2 0x100 JUMPI DUP1 PUSH4 0x591FCDFE EQ PUSH2 0x13C JUMPI DUP1 PUSH4 0x6A42B8F8 EQ PUSH2 0x164 JUMPI JUMPDEST PUSH0 DUP1 REVERT JUMPDEST CALLVALUE DUP1 ISZERO PUSH2 0x9F JUMPI PUSH0 DUP1 REVERT JUMPDEST POP PUSH2 0xBA PUSH1 0x4 DUP1 CALLDATASIZE SUB DUP2 ADD SWAP1 PUSH2 0xB5 SWAP2 SWAP1 PUSH2 0xC22 JUMP JUMPDEST PUSH2 0x270 JUMP JUMPDEST PUSH1 0x40 MLOAD PUSH2 0xC7 SWAP2 SWAP1 PUSH2 0xCE9 JUMP JUMPDEST PUSH1 0x40 MLOAD DUP1 SWAP2 SUB SWAP1 RETURN JUMPDEST PUSH2 0xEA PUSH1 0x4 DUP1 CALLDATASIZE SUB DUP2 ADD SWAP1 PUSH2 0xE5 SWAP2 SWAP1 PUSH2 0xC22 JUMP JUMPDEST PUSH2 0x2AB JUMP JUMPDEST PUSH1 0x40 MLOAD PUSH2 0xF7 SWAP2 SWAP1 PUSH2 0xD62 JUMP JUMPDEST PUSH1 0x40 MLOAD DUP1 SWAP2 SUB SWAP1 RETURN JUMPDEST CALLVALUE DUP1 ISZERO PUSH2 0x10B JUMPI PUSH0 DUP1 REVERT JUMPDEST POP PUSH2 0x126 PUSH1 0x4 DUP1 CALLDATASIZE SUB DUP2 ADD SWAP1 PUSH2 0x121 SWAP2 SWAP1 PUSH2 0xC22 JUMP JUMPDEST PUSH2 0x5C0 JUMP JUMPDEST PUSH1 0x40 MLOAD PUSH2 0x133 SWAP2 SWAP1 PUSH2 0xCE9 JUMP JUMPDEST PUSH1 0x40 MLOAD DUP1 SWAP2 SUB SWAP1 RETURN JUMPDEST CALLVALUE DUP1 ISZERO PUSH2 0x147 JUMPI PUSH0 DUP1 REVERT JUMPDEST POP PUSH2 0x162 PUSH1 0x4 DUP1 CALLDATASIZE SUB DUP2 ADD SWAP1 PUSH2 0x15D SWAP2 SWAP1 PUSH2 0xC22 JUMP JUMPDEST PUSH2 0x741 JUMP JUMPDEST STOP JUMPDEST CALLVALUE DUP1 ISZERO PUSH2 0x16F JUMPI PUSH0 DUP1 REVERT JUMPDEST POP PUSH2 0x178 PUSH2 0x863 JUMP JUMPDEST PUSH1 0x40 MLOAD PUSH2 0x185 SWAP2 SWAP1 PUSH2 0xD91 JUMP JUMPDEST PUSH1 0x40 MLOAD DUP1 SWAP2 SUB SWAP1 RETURN JUMPDEST CALLVALUE DUP1 ISZERO PUSH2 0x199 JUMPI PUSH0 DUP1 REVERT JUMPDEST POP PUSH2 0x1A2 PUSH2 0x869 JUMP JUMPDEST PUSH1 0x40 MLOAD PUSH2 0x1AF SWAP2 SWAP1 PUSH2 0xD91 JUMP JUMPDEST PUSH1 0x40 MLOAD DUP1 SWAP2 SUB SWAP1 RETURN JUMPDEST CALLVALUE DUP1 ISZERO PUSH2 0x1C3 JUMPI PUSH0 DUP1 REVERT JUMPDEST POP PUSH2 0x1DE PUSH1 0x4 DUP1 CALLDATASIZE SUB DUP2 ADD SWAP1 PUSH2 0x1D9 SWAP2 SWAP1 PUSH2 0xDAA JUMP JUMPDEST PUSH2 0x870 JUMP JUMPDEST STOP JUMPDEST CALLVALUE DUP1 ISZERO PUSH2 0x1EB JUMPI PUSH0 DUP1 REVERT JUMPDEST POP PUSH2 0x1F4 PUSH2 0x963 JUMP JUMPDEST PUSH1 0x40 MLOAD PUSH2 0x201 SWAP2 SWAP1 PUSH2 0xD91 JUMP JUMPDEST PUSH1 0x40 MLOAD DUP1 SWAP2 SUB SWAP1 RETURN JUMPDEST CALLVALUE DUP1 ISZERO PUSH2 0x215 JUMPI PUSH0 DUP1 REVERT JUMPDEST POP PUSH2 0x230 PUSH1 0x4 DUP1 CALLDATASIZE SUB DUP2 ADD SWAP1 PUSH2 0x22B SWAP2 SWAP1 PUSH2 0xDFF JUMP JUMPDEST PUSH2 0x96A JUMP JUMPDEST PUSH1 0x40 MLOAD PUSH2 0x23D SWAP2 SWAP1 PUSH2 0xE44 JUMP JUMPDEST PUSH1 0x40 MLOAD DUP1 SWAP2 SUB SWAP1 RETURN JUMPDEST CALLVALUE DUP1 ISZERO PUSH2 0x251 JUMPI PUSH0 DUP1 REVERT JUMPDEST POP PUSH2 0x25A PUSH2 0x987 JUMP JUMPDEST PUSH1 0x40 MLOAD PUSH2 0x267 SWAP2 SWAP1 PUSH2 0xE6C JUMP JUMPDEST PUSH1 0x40 MLOAD DUP1 SWAP2 SUB SWAP1 RETURN JUMPDEST PUSH0 DUP6 DUP6 DUP6 DUP6 DUP6 PUSH1 0x40 MLOAD PUSH1 0x20 ADD PUSH2 0x28A SWAP6 SWAP5 SWAP4 SWAP3 SWAP2 SWAP1 PUSH2 0xED7 JUMP JUMPDEST PUSH1 0x40 MLOAD PUSH1 0x20 DUP2 DUP4 SUB SUB DUP2 MSTORE SWAP1 PUSH1 0x40 MSTORE DUP1 MLOAD SWAP1 PUSH1 0x20 ADD KECCAK256 SWAP1 POP SWAP6 SWAP5 POP POP POP POP POP JUMP JUMPDEST PUSH1 0x60 PUSH0 DUP1 SLOAD SWAP1 PUSH2 0x100 EXP SWAP1 DIV PUSH20 0xFFFFFFFFFFFFFFFFFFFFFFFFFFFFFFFFFFFFFFFF AND PUSH20 0xFFFFFFFFFFFFFFFFFFFFFFFFFFFFFFFFFFFFFFFF AND CALLER PUSH20 0xFFFFFFFFFFFFFFFFFFFFFFFFFFFFFFFFFFFFFFFF AND EQ PUSH2 0x33A JUMPI PUSH1 0x40 MLOAD PUSH32 0x8C379A000000000000000000000000000000000000000000000000000000000 DUP2 MSTORE PUSH1 0x4 ADD PUSH2 0x331 SWAP1 PUSH2 0xF80 JUMP JUMPDEST PUSH1 0x40 MLOAD DUP1 SWAP2 SUB SWAP1 REVERT JUMPDEST PUSH0 PUSH2 0x348 DUP8 DUP8 DUP8 DUP8 DUP8 PUSH2 0x270 JUMP JUMPDEST SWAP1 POP PUSH1 0x2 PUSH0 DUP3 DUP2 MSTORE PUSH1 0x20 ADD SWAP1 DUP2 MSTORE PUSH1 0x20 ADD PUSH0 KECCAK256 PUSH0 SWAP1 SLOAD SWAP1 PUSH2 0x100 EXP SWAP1 DIV PUSH1 0xFF AND PUSH2 0x3A7 JUMPI PUSH1 0x40 MLOAD PUSH32 0x8C379A000000000000000000000000000000000000000000000000000000000 DUP2 MSTORE PUSH1 0x4 ADD PUSH2 0x39E SWAP1 PUSH2 0x100E JUMP JUMPDEST PUSH1 0x40 MLOAD DUP1 SWAP2 SUB SWAP1 REVERT JUMPDEST DUP3 PUSH2 0x3B0 PUSH2 0x869 JUMP JUMPDEST LT ISZERO PUSH2 0x3F1 JUMPI PUSH1 0x40 MLOAD PUSH32 0x8C379A000000000000000000000000000000000000000000000000000000000 DUP2 MSTORE PUSH1 0x4 ADD PUSH2 0x3E8 SWAP1 PUSH2 0x109C JUMP JUMPDEST PUSH1 0x40 MLOAD DUP1 SWAP2 SUB SWAP1 REVERT JUMPDEST PUSH3 0x93A80 DUP4 PUSH2 0x400 SWAP2 SWAP1 PUSH2 0x10E7 JUMP JUMPDEST PUSH2 0x408 PUSH2 0x869 JUMP JUMPDEST GT ISZERO PUSH2 0x449 JUMPI PUSH1 0x40 MLOAD PUSH32 0x8C379A000000000000000000000000000000000000000000000000000000000 DUP2 MSTORE PUSH1 0x4 ADD PUSH2 0x440 SWAP1 PUSH2 0x118A JUMP JUMPDEST PUSH1 0x40 MLOAD DUP1 SWAP2 SUB SWAP1 REVERT JUMPDEST PUSH0 PUSH1 0x2 PUSH0 DUP4 DUP2 MSTORE PUSH1 0x20 ADD SWAP1 DUP2 MSTORE PUSH1 0x20 ADD PUSH0 KECCAK256 PUSH0 PUSH2 0x100 EXP DUP2 SLOAD DUP2 PUSH1 0xFF MUL NOT AND SWAP1 DUP4 ISZERO ISZERO MUL OR SWAP1 SSTORE POP PUSH1 0x60 PUSH0 DUP7 MLOAD SUB PUSH2 0x483 JUMPI DUP5 SWAP1 POP PUSH2 0x4AF JUMP JUMPDEST DUP6 DUP1 MLOAD SWAP1 PUSH1 0x20 ADD KECCAK256 DUP6 PUSH1 0x40 MLOAD PUSH1 0x20 ADD PUSH2 0x49D SWAP3 SWAP2 SWAP1 PUSH2 0x122D JUMP JUMPDEST PUSH1 0x40 MLOAD PUSH1 0x20 DUP2 DUP4 SUB SUB DUP2 MSTORE SWAP1 PUSH1 0x40 MSTORE SWAP1 POP JUMPDEST PUSH0 DUP1 DUP10 PUSH20 0xFFFFFFFFFFFFFFFFFFFFFFFFFFFFFFFFFFFFFFFF AND DUP10 DUP5 PUSH1 0x40 MLOAD PUSH2 0x4D7 SWAP2 SWAP1 PUSH2 0x1254 JUMP JUMPDEST PUSH0 PUSH1 0x40 MLOAD DUP1 DUP4 SUB DUP2 DUP6 DUP8 GAS CALL SWAP3 POP POP POP RETURNDATASIZE DUP1 PUSH0 DUP2 EQ PUSH2 0x511 JUMPI PUSH1 0x40 MLOAD SWAP2 POP PUSH1 0x1F NOT PUSH1 0x3F RETURNDATASIZE ADD AND DUP3 ADD PUSH1 0x40 MSTORE RETURNDATASIZE DUP3 MSTORE RETURNDATASIZE PUSH0 PUSH1 0x20 DUP5 ADD RETURNDATACOPY PUSH2 0x516 JUMP JUMPDEST PUSH1 0x60 SWAP2 POP JUMPDEST POP SWAP2 POP SWAP2 POP DUP2 PUSH2 0x55B JUMPI PUSH1 0x40 MLOAD PUSH32 0x8C379A000000000000000000000000000000000000000000000000000000000 DUP2 MSTORE PUSH1 0x4 ADD PUSH2 0x552 SWAP1 PUSH2 0x12DA JUMP JUMPDEST PUSH1 0x40 MLOAD DUP1 SWAP2 SUB SWAP1 REVERT JUMPDEST DUP10 PUSH20 0xFFFFFFFFFFFFFFFFFFFFFFFFFFFFFFFFFFFFFFFF AND DUP5 PUSH32 0xA560E3198060A2F10670C1EC5B403077EA6AE93CA8DE1C32B451DC1A943CD6E7 DUP12 DUP12 DUP12 DUP12 PUSH1 0x40 MLOAD PUSH2 0x5A8 SWAP5 SWAP4 SWAP3 SWAP2 SWAP1 PUSH2 0x12F8 JUMP JUMPDEST PUSH1 0x40 MLOAD DUP1 SWAP2 SUB SWAP1 LOG3 DUP1 SWAP5 POP POP POP POP POP SWAP6 SWAP5 POP POP POP POP POP JUMP JUMPDEST PUSH0 DUP1 PUSH0 SWAP1 SLOAD SWAP1 PUSH2 0x100 EXP SWAP1 DIV PUSH20 0xFFFFFFFFFFFFFFFFFFFFFFFFFFFFFFFFFFFFFFFF AND PUSH20 0xFFFFFFFFFFFFFFFFFFFFFFFFFFFFFFFFFFFFFFFF AND CALLER PUSH20 0xFFFFFFFFFFFFFFFFFFFFFFFFFFFFFFFFFFFFFFFF AND EQ PUSH2 0x64F JUMPI PUSH1 0x40 MLOAD PUSH32 0x8C379A000000000000000000000000000000000000000000000000000000000 DUP2 MSTORE PUSH1 0x4 ADD PUSH2 0x646 SWAP1 PUSH2 0xF80 JUMP JUMPDEST PUSH1 0x40 MLOAD DUP1 SWAP2 SUB SWAP1 REVERT JUMPDEST PUSH1 0x1 SLOAD PUSH2 0x65A PUSH2 0x869 JUMP JUMPDEST PUSH2 0x664 SWAP2 SWAP1 PUSH2 0x10E7 JUMP JUMPDEST DUP3 LT ISZERO PUSH2 0x6A6 JUMPI PUSH1 0x40 MLOAD PUSH32 0x8C379A000000000000000000000000000000000000000000000000000000000 DUP2 MSTORE PUSH1 0x4 ADD PUSH2 0x69D SWAP1 PUSH2 0x13B9 JUMP JUMPDEST PUSH1 0x40 MLOAD DUP1 SWAP2 SUB SWAP1 REVERT JUMPDEST PUSH0 PUSH2 0x6B4 DUP8 DUP8 DUP8 DUP8 DUP8 PUSH2 0x270 JUMP JUMPDEST SWAP1 POP PUSH1 0x1 PUSH1 0x2 PUSH0 DUP4 DUP2 MSTORE PUSH1 0x20 ADD SWAP1 DUP2 MSTORE PUSH1 0x20 ADD PUSH0 KECCAK256 PUSH0 PUSH2 0x100 EXP DUP2 SLOAD DUP2 PUSH1 0xFF MUL NOT AND SWAP1 DUP4 ISZERO ISZERO MUL OR SWAP1 SSTORE POP DUP7 PUSH20 0xFFFFFFFFFFFFFFFFFFFFFFFFFFFFFFFFFFFFFFFF AND DUP2 PUSH32 0x76E2796DC3A81D57B0E8504B647FEBCBEEB5F4AF818E164F11EEF8131A6A763F DUP9 DUP9 DUP9 DUP9 PUSH1 0x40 MLOAD PUSH2 0x72C SWAP5 SWAP4 SWAP3 SWAP2 SWAP1 PUSH2 0x12F8 JUMP JUMPDEST PUSH1 0x40 MLOAD DUP1 SWAP2 SUB SWAP1 LOG3 DUP1 SWAP2 POP POP SWAP6 SWAP5 POP POP POP POP POP JUMP JUMPDEST PUSH0 DUP1 SLOAD SWAP1 PUSH2 0x100 EXP SWAP1 DIV PUSH20 0xFFFFFFFFFFFFFFFFFFFFFFFFFFFFFFFFFFFFFFFF AND PUSH20 0xFFFFFFFFFFFFFFFFFFFFFFFFFFFFFFFFFFFFFFFF AND CALLER PUSH20 0xFFFFFFFFFFFFFFFFFFFFFFFFFFFFFFFFFFFFFFFF AND EQ PUSH2 0x7CE JUMPI PUSH1 0x40 MLOAD PUSH32 0x8C379A000000000000000000000000000000000000000000000000000000000 DUP2 MSTORE PUSH1 0x4 ADD PUSH2 0x7C5 SWAP1 PUSH2 0xF80 JUMP JUMPDEST PUSH1 0x40 MLOAD DUP1 SWAP2 SUB SWAP1 REVERT JUMPDEST PUSH0 PUSH2 0x7DC DUP7 DUP7 DUP7 DUP7 DUP7 PUSH2 0x270 JUMP JUMPDEST SWAP1 POP PUSH0 PUSH1 0x2 PUSH0 DUP4 DUP2 MSTORE PUSH1 0x20 ADD SWAP1 DUP2 MSTORE PUSH1 0x20 ADD PUSH0 KECCAK256 PUSH0 PUSH2 0x100 EXP DUP2 SLOAD DUP2 PUSH1 0xFF MUL NOT AND SWAP1 DUP4 ISZERO ISZERO MUL OR SWAP1 SSTORE POP DUP6 PUSH20 0xFFFFFFFFFFFFFFFFFFFFFFFFFFFFFFFFFFFFFFFF AND DUP2 PUSH32 0x2FFFC091A501FD91BFBFF27141450D3ACB40FB8E6D8382B243EC7A812A3AAF87 DUP8 DUP8 DUP8 DUP8 PUSH1 0x40 MLOAD PUSH2 0x853 SWAP5 SWAP4 SWAP3 SWAP2 SWAP1 PUSH2 0x12F8 JUMP JUMPDEST PUSH1 0x40 MLOAD DUP1 SWAP2 SUB SWAP1 LOG3 POP POP POP POP POP POP JUMP JUMPDEST PUSH1 0x1 SLOAD DUP2 JUMP JUMPDEST PUSH0 TIMESTAMP SWAP1 POP SWAP1 JUMP JUMPDEST ADDRESS PUSH20 0xFFFFFFFFFFFFFFFFFFFFFFFFFFFFFFFFFFFFFFFF AND CALLER PUSH20 0xFFFFFFFFFFFFFFFFFFFFFFFFFFFFFFFFFFFFFFFF AND EQ PUSH2 0x8DE JUMPI PUSH1 0x40 MLOAD PUSH32 0x8C379A000000000000000000000000000000000000000000000000000000000 DUP2 MSTORE PUSH1 0x4 ADD PUSH2 0x8D5 SWAP1 PUSH2 0x1421 JUMP JUMPDEST PUSH1 0x40 MLOAD DUP1 SWAP2 SUB SWAP1 REVERT JUMPDEST DUP1 PUSH0 DUP1 PUSH2 0x100 EXP DUP2 SLOAD DUP2 PUSH20 0xFFFFFFFFFFFFFFFFFFFFFFFFFFFFFFFFFFFFFFFF MUL NOT AND SWAP1 DUP4 PUSH20 0xFFFFFFFFFFFFFFFFFFFFFFFFFFFFFFFFFFFFFFFF AND MUL OR SWAP1 SSTORE POP DUP1 PUSH20 0xFFFFFFFFFFFFFFFFFFFFFFFFFFFFFFFFFFFFFFFF AND PUSH32 0x71614071B88DEE5E0B2AE578A9DD7B2EBBE9AE832BA419DC0242CD065A290B6C PUSH1 0x40 MLOAD PUSH1 0x40 MLOAD DUP1 SWAP2 SUB SWAP1 LOG2 POP JUMP JUMPDEST PUSH3 0x93A80 DUP2 JUMP JUMPDEST PUSH1 0x2 PUSH1 0x20 MSTORE DUP1 PUSH0 MSTORE PUSH1 0x40 PUSH0 KECCAK256 PUSH0 SWAP2 POP SLOAD SWAP1 PUSH2 0x100 EXP SWAP1 DIV PUSH1 0xFF AND DUP2 JUMP JUMPDEST PUSH0 DUP1 SLOAD SWAP1 PUSH2 0x100 EXP SWAP1 DIV PUSH20 0xFFFFFFFFFFFFFFFFFFFFFFFFFFFFFFFFFFFFFFFF AND DUP2 JUMP JUMPDEST PUSH0 PUSH1 0x40 MLOAD SWAP1 POP SWAP1 JUMP JUMPDEST PUSH0 DUP1 REVERT JUMPDEST PUSH0 DUP1 REVERT JUMPDEST PUSH0 PUSH20 0xFFFFFFFFFFFFFFFFFFFFFFFFFFFFFFFFFFFFFFFF DUP3 AND SWAP1 POP SWAP2 SWAP1 POP JUMP JUMPDEST PUSH0 PUSH2 0x9E4 DUP3 PUSH2 0x9BB JUMP JUMPDEST SWAP1 POP SWAP2 SWAP1 POP JUMP JUMPDEST PUSH2 0x9F4 DUP2 PUSH2 0x9DA JUMP JUMPDEST DUP2 EQ PUSH2 0x9FE JUMPI PUSH0 DUP1 REVERT JUMPDEST POP JUMP JUMPDEST PUSH0 DUP2 CALLDATALOAD SWAP1 POP PUSH2 0xA0F DUP2 PUSH2 0x9EB JUMP JUMPDEST SWAP3 SWAP2 POP POP JUMP JUMPDEST PUSH0 DUP2 SWAP1 POP SWAP2 SWAP1 POP JUMP JUMPDEST PUSH2 0xA27 DUP2 PUSH2 0xA15 JUMP JUMPDEST DUP2 EQ PUSH2 0xA31 JUMPI PUSH0 DUP1 REVERT JUMPDEST POP JUMP JUMPDEST PUSH0 DUP2 CALLDATALOAD SWAP1 POP PUSH2 0xA42 DUP2 PUSH2 0xA1E JUMP JUMPDEST SWAP3 SWAP2 POP POP JUMP JUMPDEST PUSH0 DUP1 REVERT JUMPDEST PUSH0 DUP1 REVERT JUMPDEST PUSH0 PUSH1 0x1F NOT PUSH1 0x1F DUP4 ADD AND SWAP1 POP SWAP2 SWAP1 POP JUMP JUMPDEST PUSH32 0x4E487B7100000000000000000000000000000000000000000000000000000000 PUSH0 MSTORE PUSH1 0x41 PUSH1 0x4 MSTORE PUSH1 0x24 PUSH0 REVERT JUMPDEST PUSH2 0xA96 DUP3 PUSH2 0xA50 JUMP JUMPDEST DUP2 ADD DUP2 DUP2 LT PUSH8 0xFFFFFFFFFFFFFFFF DUP3 GT OR ISZERO PUSH2 0xAB5 JUMPI PUSH2 0xAB4 PUSH2 0xA60 JUMP JUMPDEST JUMPDEST DUP1 PUSH1 0x40 MSTORE POP POP POP JUMP JUMPDEST PUSH0 PUSH2 0xAC7 PUSH2 0x9AA JUMP JUMPDEST SWAP1 POP PUSH2 0xAD3 DUP3 DUP3 PUSH2 0xA8D JUMP JUMPDEST SWAP2 SWAP1 POP JUMP JUMPDEST PUSH0 PUSH8 0xFFFFFFFFFFFFFFFF DUP3 GT ISZERO PUSH2 0xAF2 JUMPI PUSH2 0xAF1 PUSH2 0xA60 JUMP JUMPDEST JUMPDEST PUSH2 0xAFB DUP3 PUSH2 0xA50 JUMP JUMPDEST SWAP1 POP PUSH1 0x20 DUP2 ADD SWAP1 POP SWAP2 SWAP1 POP JUMP JUMPDEST DUP3 DUP2 DUP4 CALLDATACOPY PUSH0 DUP4 DUP4 ADD MSTORE POP POP POP JUMP JUMPDEST PUSH0 PUSH2 0xB28 PUSH2 0xB23 DUP5 PUSH2 0xAD8 JUMP JUMPDEST PUSH2 0xABE JUMP JUMPDEST SWAP1 POP DUP3 DUP2 MSTORE PUSH1 0x20 DUP2 ADD DUP5 DUP5 DUP5 ADD GT ISZERO PUSH2 0xB44 JUMPI PUSH2 0xB43 PUSH2 0xA4C JUMP JUMPDEST JUMPDEST PUSH2 0xB4F DUP5 DUP3 DUP6 PUSH2 0xB08 JUMP JUMPDEST POP SWAP4 SWAP3 POP POP POP JUMP JUMPDEST PUSH0 DUP3 PUSH1 0x1F DUP4 ADD SLT PUSH2 0xB6B JUMPI PUSH2 0xB6A PUSH2 0xA48 JUMP JUMPDEST JUMPDEST DUP2 CALLDATALOAD PUSH2 0xB7B DUP5 DUP3 PUSH1 0x20 DUP7 ADD PUSH2 0xB16 JUMP JUMPDEST SWAP2 POP POP SWAP3 SWAP2 POP POP JUMP JUMPDEST PUSH0 PUSH8 0xFFFFFFFFFFFFFFFF DUP3 GT ISZERO PUSH2 0xB9E JUMPI PUSH2 0xB9D PUSH2 0xA60 JUMP JUMPDEST JUMPDEST PUSH2 0xBA7 DUP3 PUSH2 0xA50 JUMP JUMPDEST SWAP1 POP PUSH1 0x20 DUP2 ADD SWAP1 POP SWAP2 SWAP1 POP JUMP JUMPDEST PUSH0 PUSH2 0xBC6 PUSH2 0xBC1 DUP5 PUSH2 0xB84 JUMP JUMPDEST PUSH2 0xABE JUMP JUMPDEST SWAP1 POP DUP3 DUP2 MSTORE PUSH1 0x20 DUP2 ADD DUP5 DUP5 DUP5 ADD GT ISZERO PUSH2 0xBE2 JUMPI PUSH2 0xBE1 PUSH2 0xA4C JUMP JUMPDEST JUMPDEST PUSH2 0xBED DUP5 DUP3 DUP6 PUSH2 0xB08 JUMP JUMPDEST POP SWAP4 SWAP3 POP POP POP JUMP JUMPDEST PUSH0 DUP3 PUSH1 0x1F DUP4 ADD SLT PUSH2 0xC09 JUMPI PUSH2 0xC08 PUSH2 0xA48 JUMP JUMPDEST JUMPDEST DUP2 CALLDATALOAD PUSH2 0xC19 DUP5 DUP3 PUSH1 0x20 DUP7 ADD PUSH2 0xBB4 JUMP JUMPDEST SWAP2 POP POP SWAP3 SWAP2 POP POP JUMP JUMPDEST PUSH0 DUP1 PUSH0 DUP1 PUSH0 PUSH1 0xA0 DUP7 DUP9 SUB SLT ISZERO PUSH2 0xC3B JUMPI PUSH2 0xC3A PUSH2 0x9B3 JUMP JUMPDEST JUMPDEST PUSH0 PUSH2 0xC48 DUP9 DUP3 DUP10 ADD PUSH2 0xA01 JUMP JUMPDEST SWAP6 POP POP PUSH1 0x20 PUSH2 0xC59 DUP9 DUP3 DUP10 ADD PUSH2 0xA34 JUMP JUMPDEST SWAP5 POP POP PUSH1 0x40 DUP7 ADD CALLDATALOAD PUSH8 0xFFFFFFFFFFFFFFFF DUP2 GT ISZERO PUSH2 0xC7A JUMPI PUSH2 0xC79 PUSH2 0x9B7 JUMP JUMPDEST JUMPDEST PUSH2 0xC86 DUP9 DUP3 DUP10 ADD PUSH2 0xB57 JUMP JUMPDEST SWAP4 POP POP PUSH1 0x60 DUP7 ADD CALLDATALOAD PUSH8 0xFFFFFFFFFFFFFFFF DUP2 GT ISZERO PUSH2 0xCA7 JUMPI PUSH2 0xCA6 PUSH2 0x9B7 JUMP JUMPDEST JUMPDEST PUSH2 0xCB3 DUP9 DUP3 DUP10 ADD PUSH2 0xBF5 JUMP JUMPDEST SWAP3 POP POP PUSH1 0x80 PUSH2 0xCC4 DUP9 DUP3 DUP10 ADD PUSH2 0xA34 JUMP JUMPDEST SWAP2 POP POP SWAP3 SWAP6 POP SWAP3 SWAP6 SWAP1 SWAP4 POP JUMP JUMPDEST PUSH0 DUP2 SWAP1 POP SWAP2 SWAP1 POP JUMP JUMPDEST PUSH2 0xCE3 DUP2 PUSH2 0xCD1 JUMP JUMPDEST DUP3 MSTORE POP POP JUMP JUMPDEST PUSH0 PUSH1 0x20 DUP3 ADD SWAP1 POP PUSH2 0xCFC PUSH0 DUP4 ADD DUP5 PUSH2 0xCDA JUMP JUMPDEST SWAP3 SWAP2 POP POP JUMP JUMPDEST PUSH0 DUP2 MLOAD SWAP1 POP SWAP2 SWAP1 POP JUMP JUMPDEST PUSH0 DUP3 DUP3 MSTORE PUSH1 0x20 DUP3 ADD SWAP1 POP SWAP3 SWAP2 POP POP JUMP JUMPDEST DUP3 DUP2 DUP4 MCOPY PUSH0 DUP4 DUP4 ADD MSTORE POP POP POP JUMP JUMPDEST PUSH0 PUSH2 0xD34 DUP3 PUSH2 0xD02 JUMP JUMPDEST PUSH2 0xD3E DUP2 DUP6 PUSH2 0xD0C JUMP JUMPDEST SWAP4 POP PUSH2 0xD4E DUP2 DUP6 PUSH1 0x20 DUP7 ADD PUSH2 0xD1C JUMP JUMPDEST PUSH2 0xD57 DUP2 PUSH2 0xA50 JUMP JUMPDEST DUP5 ADD SWAP2 POP POP SWAP3 SWAP2 POP POP JUMP JUMPDEST PUSH0 PUSH1 0x20 DUP3 ADD SWAP1 POP DUP2 DUP2 SUB PUSH0 DUP4 ADD MSTORE PUSH2 0xD7A DUP2 DUP5 PUSH2 0xD2A JUMP JUMPDEST SWAP1 POP SWAP3 SWAP2 POP POP JUMP JUMPDEST PUSH2 0xD8B DUP2 PUSH2 0xA15 JUMP JUMPDEST DUP3 MSTORE POP POP JUMP JUMPDEST PUSH0 PUSH1 0x20 DUP3 ADD SWAP1 POP PUSH2 0xDA4 PUSH0 DUP4 ADD DUP5 PUSH2 0xD82 JUMP JUMPDEST SWAP3 SWAP2 POP POP JUMP JUMPDEST PUSH0 PUSH1 0x20 DUP3 DUP5 SUB SLT ISZERO PUSH2 0xDBF JUMPI PUSH2 0xDBE PUSH2 0x9B3 JUMP JUMPDEST JUMPDEST PUSH0 PUSH2 0xDCC DUP5 DUP3 DUP6 ADD PUSH2 0xA01 JUMP JUMPDEST SWAP2 POP POP SWAP3 SWAP2 POP POP JUMP JUMPDEST PUSH2 0xDDE DUP2 PUSH2 0xCD1 JUMP JUMPDEST DUP2 EQ PUSH2 0xDE8 JUMPI PUSH0 DUP1 REVERT JUMPDEST POP JUMP JUMPDEST PUSH0 DUP2 CALLDATALOAD SWAP1 POP PUSH2 0xDF9 DUP2 PUSH2 0xDD5 JUMP JUMPDEST SWAP3 SWAP2 POP POP JUMP JUMPDEST PUSH0 PUSH1 0x20 DUP3 DUP5 SUB SLT ISZERO PUSH2 0xE14 JUMPI PUSH2 0xE13 PUSH2 0x9B3 JUMP JUMPDEST JUMPDEST PUSH0 PUSH2 0xE21 DUP5 DUP3 DUP6 ADD PUSH2 0xDEB JUMP JUMPDEST SWAP2 POP POP SWAP3 SWAP2 POP POP JUMP JUMPDEST PUSH0 DUP2 ISZERO ISZERO SWAP1 POP SWAP2 SWAP1 POP JUMP JUMPDEST PUSH2 0xE3E DUP2 PUSH2 0xE2A JUMP JUMPDEST DUP3 MSTORE POP POP JUMP JUMPDEST PUSH0 PUSH1 0x20 DUP3 ADD SWAP1 POP PUSH2 0xE57 PUSH0 DUP4 ADD DUP5 PUSH2 0xE35 JUMP JUMPDEST SWAP3 SWAP2 POP POP JUMP JUMPDEST PUSH2 0xE66 DUP2 PUSH2 0x9DA JUMP JUMPDEST DUP3 MSTORE POP POP JUMP JUMPDEST PUSH0 PUSH1 0x20 DUP3 ADD SWAP1 POP PUSH2 0xE7F PUSH0 DUP4 ADD DUP5 PUSH2 0xE5D JUMP JUMPDEST SWAP3 SWAP2 POP POP JUMP JUMPDEST PUSH0 DUP2 MLOAD SWAP1 POP SWAP2 SWAP1 POP JUMP JUMPDEST PUSH0 DUP3 DUP3 MSTORE PUSH1 0x20 DUP3 ADD SWAP1 POP SWAP3 SWAP2 POP POP JUMP JUMPDEST PUSH0 PUSH2 0xEA9 DUP3 PUSH2 0xE85 JUMP JUMPDEST PUSH2 0xEB3 DUP2 DUP6 PUSH2 0xE8F JUMP JUMPDEST SWAP4 POP PUSH2 0xEC3 DUP2 DUP6 PUSH1 0x20 DUP7 ADD PUSH2 0xD1C JUMP JUMPDEST PUSH2 0xECC DUP2 PUSH2 0xA50 JUMP JUMPDEST DUP5 ADD SWAP2 POP POP SWAP3 SWAP2 POP POP JUMP JUMPDEST PUSH0 PUSH1 0xA0 DUP3 ADD SWAP1 POP PUSH2 0xEEA PUSH0 DUP4 ADD DUP9 PUSH2 0xE5D JUMP JUMPDEST PUSH2 0xEF7 PUSH1 0x20 DUP4 ADD DUP8 PUSH2 0xD82 JUMP JUMPDEST DUP2 DUP2 SUB PUSH1 0x40 DUP4 ADD MSTORE PUSH2 0xF09 DUP2 DUP7 PUSH2 0xE9F JUMP JUMPDEST SWAP1 POP DUP2 DUP2 SUB PUSH1 0x60 DUP4 ADD MSTORE PUSH2 0xF1D DUP2 DUP6 PUSH2 0xD2A JUMP JUMPDEST SWAP1 POP PUSH2 0xF2C PUSH1 0x80 DUP4 ADD DUP5 PUSH2 0xD82 JUMP JUMPDEST SWAP7 SWAP6 POP POP POP POP POP POP JUMP JUMPDEST PUSH32 0x54696D654C6F636B3A2063616C6C6572206E6F742061646D696E000000000000 PUSH0 DUP3 ADD MSTORE POP JUMP JUMPDEST PUSH0 PUSH2 0xF6A PUSH1 0x1A DUP4 PUSH2 0xE8F JUMP JUMPDEST SWAP2 POP PUSH2 0xF75 DUP3 PUSH2 0xF36 JUMP JUMPDEST PUSH1 0x20 DUP3 ADD SWAP1 POP SWAP2 SWAP1 POP JUMP JUMPDEST PUSH0 PUSH1 0x20 DUP3 ADD SWAP1 POP DUP2 DUP2 SUB PUSH0 DUP4 ADD MSTORE PUSH2 0xF97 DUP2 PUSH2 0xF5E JUMP JUMPDEST SWAP1 POP SWAP2 SWAP1 POP JUMP JUMPDEST PUSH32 0x54696D654C6F636B3A3A657865637574655472616E73616374696F6E3A207472 PUSH0 DUP3 ADD MSTORE PUSH32 0x616E73616374696F6E206861736E2774206265656E2071756575656400000000 PUSH1 0x20 DUP3 ADD MSTORE POP JUMP JUMPDEST PUSH0 PUSH2 0xFF8 PUSH1 0x3C DUP4 PUSH2 0xE8F JUMP JUMPDEST SWAP2 POP PUSH2 0x1003 DUP3 PUSH2 0xF9E JUMP JUMPDEST PUSH1 0x40 DUP3 ADD SWAP1 POP SWAP2 SWAP1 POP JUMP JUMPDEST PUSH0 PUSH1 0x20 DUP3 ADD SWAP1 POP DUP2 DUP2 SUB PUSH0 DUP4 ADD MSTORE PUSH2 0x1025 DUP2 PUSH2 0xFEC JUMP JUMPDEST SWAP1 POP SWAP2 SWAP1 POP JUMP JUMPDEST PUSH32 0x54696D654C6F636B3A3A657865637574655472616E73616374696F6E3A207472 PUSH0 DUP3 ADD MSTORE PUSH32 0x616E73616374696F6E206861736E2774207375727061737365642074696D6500 PUSH1 0x20 DUP3 ADD MSTORE POP JUMP JUMPDEST PUSH0 PUSH2 0x1086 PUSH1 0x3F DUP4 PUSH2 0xE8F JUMP JUMPDEST SWAP2 POP PUSH2 0x1091 DUP3 PUSH2 0x102C JUMP JUMPDEST PUSH1 0x40 DUP3 ADD SWAP1 POP SWAP2 SWAP1 POP JUMP JUMPDEST PUSH0 PUSH1 0x20 DUP3 ADD SWAP1 POP DUP2 DUP2 SUB PUSH0 DUP4 ADD MSTORE PUSH2 0x10B3 DUP2 PUSH2 0x107A JUMP JUMPDEST SWAP1 POP SWAP2 SWAP1 POP JUMP JUMPDEST PUSH32 0x4E487B7100000000000000000000000000000000000000000000000000000000 PUSH0 MSTORE PUSH1 0x11 PUSH1 0x4 MSTORE PUSH1 0x24 PUSH0 REVERT JUMPDEST PUSH0 PUSH2 0x10F1 DUP3 PUSH2 0xA15 JUMP JUMPDEST SWAP2 POP PUSH2 0x10FC DUP4 PUSH2 0xA15 JUMP JUMPDEST SWAP3 POP DUP3 DUP3 ADD SWAP1 POP DUP1 DUP3 GT ISZERO PUSH2 0x1114 JUMPI PUSH2 0x1113 PUSH2 0x10BA JUMP JUMPDEST JUMPDEST SWAP3 SWAP2 POP POP JUMP JUMPDEST PUSH32 0x54696D654C6F636B3A3A657865637574696F6E5472616E73616374696F6E3A20 PUSH0 DUP3 ADD MSTORE PUSH32 0x7472616E73616374696F6E206973207374616C65000000000000000000000000 PUSH1 0x20 DUP3 ADD MSTORE POP JUMP JUMPDEST PUSH0 PUSH2 0x1174 PUSH1 0x34 DUP4 PUSH2 0xE8F JUMP JUMPDEST SWAP2 POP PUSH2 0x117F DUP3 PUSH2 0x111A JUMP JUMPDEST PUSH1 0x40 DUP3 ADD SWAP1 POP SWAP2 SWAP1 POP JUMP JUMPDEST PUSH0 PUSH1 0x20 DUP3 ADD SWAP1 POP DUP2 DUP2 SUB PUSH0 DUP4 ADD MSTORE PUSH2 0x11A1 DUP2 PUSH2 0x1168 JUMP JUMPDEST SWAP1 POP SWAP2 SWAP1 POP JUMP JUMPDEST PUSH0 PUSH32 0xFFFFFFFF00000000000000000000000000000000000000000000000000000000 DUP3 AND SWAP1 POP SWAP2 SWAP1 POP JUMP JUMPDEST PUSH0 DUP2 SWAP1 POP SWAP2 SWAP1 POP JUMP JUMPDEST PUSH2 0x11ED PUSH2 0x11E8 DUP3 PUSH2 0x11A8 JUMP JUMPDEST PUSH2 0x11D3 JUMP JUMPDEST DUP3 MSTORE POP POP JUMP JUMPDEST PUSH0 DUP2 SWAP1 POP SWAP3 SWAP2 POP POP JUMP JUMPDEST PUSH0 PUSH2 0x1207 DUP3 PUSH2 0xD02 JUMP JUMPDEST PUSH2 0x1211 DUP2 DUP6 PUSH2 0x11F3 JUMP JUMPDEST SWAP4 POP PUSH2 0x1221 DUP2 DUP6 PUSH1 0x20 DUP7 ADD PUSH2 0xD1C JUMP JUMPDEST DUP1 DUP5 ADD SWAP2 POP POP SWAP3 SWAP2 POP POP JUMP JUMPDEST PUSH0 PUSH2 0x1238 DUP3 DUP6 PUSH2 0x11DC JUMP JUMPDEST PUSH1 0x4 DUP3 ADD SWAP2 POP PUSH2 0x1248 DUP3 DUP5 PUSH2 0x11FD JUMP JUMPDEST SWAP2 POP DUP2 SWAP1 POP SWAP4 SWAP3 POP POP POP JUMP JUMPDEST PUSH0 PUSH2 0x125F DUP3 DUP5 PUSH2 0x11FD JUMP JUMPDEST SWAP2 POP DUP2 SWAP1 POP SWAP3 SWAP2 POP POP JUMP JUMPDEST PUSH32 0x54696D654C6F636B3A3A657865637574655472616E73616374696F6E3A205472 PUSH0 DUP3 ADD MSTORE PUSH32 0x616E73616374696F6E20657865637574696F6E2072657665727465642E000000 PUSH1 0x20 DUP3 ADD MSTORE POP JUMP JUMPDEST PUSH0 PUSH2 0x12C4 PUSH1 0x3D DUP4 PUSH2 0xE8F JUMP JUMPDEST SWAP2 POP PUSH2 0x12CF DUP3 PUSH2 0x126A JUMP JUMPDEST PUSH1 0x40 DUP3 ADD SWAP1 POP SWAP2 SWAP1 POP JUMP JUMPDEST PUSH0 PUSH1 0x20 DUP3 ADD SWAP1 POP DUP2 DUP2 SUB PUSH0 DUP4 ADD MSTORE PUSH2 0x12F1 DUP2 PUSH2 0x12B8 JUMP JUMPDEST SWAP1 POP SWAP2 SWAP1 POP JUMP JUMPDEST PUSH0 PUSH1 0x80 DUP3 ADD SWAP1 POP PUSH2 0x130B PUSH0 DUP4 ADD DUP8 PUSH2 0xD82 JUMP JUMPDEST DUP2 DUP2 SUB PUSH1 0x20 DUP4 ADD MSTORE PUSH2 0x131D DUP2 DUP7 PUSH2 0xE9F JUMP JUMPDEST SWAP1 POP DUP2 DUP2 SUB PUSH1 0x40 DUP4 ADD MSTORE PUSH2 0x1331 DUP2 DUP6 PUSH2 0xD2A JUMP JUMPDEST SWAP1 POP PUSH2 0x1340 PUSH1 0x60 DUP4 ADD DUP5 PUSH2 0xD82 JUMP JUMPDEST SWAP6 SWAP5 POP POP POP POP POP JUMP JUMPDEST PUSH32 0x54696D654C6F636B3A3A2071756575655472616E73616374696F6E3A20457374 PUSH0 DUP3 ADD MSTORE PUSH32 0x696D6174656420657865637574696F6E20626C6F636B20000000000000000000 PUSH1 0x20 DUP3 ADD MSTORE POP JUMP JUMPDEST PUSH0 PUSH2 0x13A3 PUSH1 0x37 DUP4 PUSH2 0xE8F JUMP JUMPDEST SWAP2 POP PUSH2 0x13AE DUP3 PUSH2 0x1349 JUMP JUMPDEST PUSH1 0x40 DUP3 ADD SWAP1 POP SWAP2 SWAP1 POP JUMP JUMPDEST PUSH0 PUSH1 0x20 DUP3 ADD SWAP1 POP DUP2 DUP2 SUB PUSH0 DUP4 ADD MSTORE PUSH2 0x13D0 DUP2 PUSH2 0x1397 JUMP JUMPDEST SWAP1 POP SWAP2 SWAP1 POP JUMP JUMPDEST PUSH32 0x54696D654C6F636B3A2063616C6C6572206E6F742054696D654C6F636B000000 PUSH0 DUP3 ADD MSTORE POP JUMP JUMPDEST PUSH0 PUSH2 0x140B PUSH1 0x1D DUP4 PUSH2 0xE8F JUMP JUMPDEST SWAP2 POP PUSH2 0x1416 DUP3 PUSH2 0x13D7 JUMP JUMPDEST PUSH1 0x20 DUP3 ADD SWAP1 POP SWAP2 SWAP1 POP JUMP JUMPDEST PUSH0 PUSH1 0x20 DUP3 ADD SWAP1 POP DUP2 DUP2 SUB PUSH0 DUP4 ADD MSTORE PUSH2 0x1438 DUP2 PUSH2 0x13FF JUMP JUMPDEST SWAP1 POP SWAP2 SWAP1 POP JUMP INVALID LOG2 PUSH5 0x6970667358 0x22 SLT KECCAK256 SWAP7 0xCD DUP10 0xED 0x26 SIGNEXTEND PUSH8 0xA71BF2C8512E747B 0xE1 PUSH8 0x4EB13654A01DF453 0xBC 0xDC 0x2C 0xD2 SWAP1 XOR PUSH3 0x64736F PUSH13 0x634300081A0033000000000000 "
				},
				"gasEstimates": {
					"creation": {
						"codeDepositCost": "1047400",
						"executionCost": "infinite",
						"totalCost": "infinite"
					},
					"external": {
						"GRACE_PERIOD()": "369",
						"admin()": "2593",
						"cancelTransaction(address,uint256,string,bytes,uint256)": "infinite",
						"changeAdmin(address)": "25931",
						"delay()": "2514",
						"executeTransaction(address,uint256,string,bytes,uint256)": "infinite",
						"getBlockTimestamp()": "331",
						"getTxHash(address,uint256,string,bytes,uint256)": "infinite",
						"queueTransaction(address,uint256,string,bytes,uint256)": "infinite",
						"queueTransactions(bytes32)": "2851"
					}
				},
				"methodIdentifiers": {
					"GRACE_PERIOD()": "c1a287e2",
					"admin()": "f851a440",
					"cancelTransaction(address,uint256,string,bytes,uint256)": "591fcdfe",
					"changeAdmin(address)": "8f283970",
					"delay()": "6a42b8f8",
					"executeTransaction(address,uint256,string,bytes,uint256)": "0825f38f",
					"getBlockTimestamp()": "796b89b9",
					"getTxHash(address,uint256,string,bytes,uint256)": "04a71576",
					"queueTransaction(address,uint256,string,bytes,uint256)": "3a66f901",
					"queueTransactions(bytes32)": "cf39802d"
				}
			},
			"storageLayout": {
				"storage": [
					{
						"astId": 50,
						"contract": "contracts/TimeLock.sol:Timelock",
						"label": "admin",
						"offset": 0,
						"slot": "0",
						"type": "t_address"
					},
					{
						"astId": 55,
						"contract": "contracts/TimeLock.sol:Timelock",
						"label": "delay",
						"offset": 0,
						"slot": "1",
						"type": "t_uint256"
					},
					{
						"astId": 59,
						"contract": "contracts/TimeLock.sol:Timelock",
						"label": "queueTransactions",
						"offset": 0,
						"slot": "2",
						"type": "t_mapping(t_bytes32,t_bool)"
					}
				],
				"types": {
					"t_address": {
						"encoding": "inplace",
						"label": "address",
						"numberOfBytes": "20"
					},
					"t_bool": {
						"encoding": "inplace",
						"label": "bool",
						"numberOfBytes": "1"
					},
					"t_bytes32": {
						"encoding": "inplace",
						"label": "bytes32",
						"numberOfBytes": "32"
					},
					"t_mapping(t_bytes32,t_bool)": {
						"encoding": "mapping",
						"key": "t_bytes32",
						"label": "mapping(bytes32 => bool)",
						"numberOfBytes": "32",
						"value": "t_bool"
					},
					"t_uint256": {
						"encoding": "inplace",
						"label": "uint256",
						"numberOfBytes": "32"
					}
				}
			},
			"userdoc": {
				"kind": "user",
				"methods": {},
				"notice": "Time Lock is a mechinism that can ensure no one can call the specific function before the end of the time. What is logics in it? - Project owner can set the period of time and own the contract when they are creating the contract - Time lock has 3 features: 1. Create Transaction, and push the time lock queue 2. Execute the transaction when the time lock is end 3. Cancel some transactions when they are regert - Project owner geneary set the time lock contract to be the most important admin, such as vault contract, and user Time Lock to call it. - the admin of time lock contract usually is the mutiple signature wallet owned by project to ensure the decentrice.*",
				"version": 1
			}
		}
	}
}