{
	"contracts/testInheritance1.sol": {
		"father": {
			"abi": [
				{
					"anonymous": false,
					"inputs": [
						{
							"indexed": false,
							"internalType": "string",
							"name": "myMessage",
							"type": "string"
						}
					],
					"name": "Log",
					"type": "event"
				},
				{
					"inputs": [],
					"name": "say",
					"outputs": [],
					"stateMutability": "nonpayable",
					"type": "function"
				},
				{
					"inputs": [],
					"name": "speak",
					"outputs": [],
					"stateMutability": "nonpayable",
					"type": "function"
				},
				{
					"inputs": [],
					"name": "talk",
					"outputs": [],
					"stateMutability": "nonpayable",
					"type": "function"
				}
			],
			"devdoc": {
				"kind": "dev",
				"methods": {},
				"version": 1
			},
			"evm": {
				"assembly": "    /* \"contracts/testInheritance1.sol\":466:835  contract father is grantfather{... */\n  mstore(0x40, 0x80)\n  callvalue\n  dup1\n  iszero\n  tag_1\n  jumpi\n  0x00\n  dup1\n  revert\ntag_1:\n  pop\n  dataSize(sub_0)\n  dup1\n  dataOffset(sub_0)\n  0x00\n  codecopy\n  0x00\n  return\nstop\n\nsub_0: assembly {\n        /* \"contracts/testInheritance1.sol\":466:835  contract father is grantfather{... */\n      mstore(0x40, 0x80)\n      callvalue\n      dup1\n      iszero\n      tag_1\n      jumpi\n      0x00\n      dup1\n      revert\n    tag_1:\n      pop\n      jumpi(tag_2, lt(calldatasize, 0x04))\n      shr(0xe0, calldataload(0x00))\n      dup1\n      0x50d85315\n      eq\n      tag_3\n      jumpi\n      dup1\n      0x954ab4b2\n      eq\n      tag_4\n      jumpi\n      dup1\n      0xa9731769\n      eq\n      tag_5\n      jumpi\n    tag_2:\n      0x00\n      dup1\n      revert\n        /* \"contracts/testInheritance1.sol\":643:732  function speak() public virtual override {... */\n    tag_3:\n      tag_6\n      tag_7\n      jump\t// in\n    tag_6:\n      stop\n        /* \"contracts/testInheritance1.sol\":545:634  function say() public virtual  override  {... */\n    tag_4:\n      tag_8\n      tag_9\n      jump\t// in\n    tag_8:\n      stop\n        /* \"contracts/testInheritance1.sol\":741:829  function talk() public virtual override {... */\n    tag_5:\n      tag_10\n      tag_11\n      jump\t// in\n    tag_10:\n      stop\n        /* \"contracts/testInheritance1.sol\":643:732  function speak() public virtual override {... */\n    tag_7:\n        /* \"contracts/testInheritance1.sol\":703:721  Log(\"i am father\") */\n      0xcf34ef537ac33ee1ac626ca1587a0a7e8e51561e5514f8cb36afa1c5102b3bab\n      mload(0x40)\n      tag_13\n      swap1\n      tag_14\n      jump\t// in\n    tag_13:\n      mload(0x40)\n      dup1\n      swap2\n      sub\n      swap1\n      log1\n        /* \"contracts/testInheritance1.sol\":643:732  function speak() public virtual override {... */\n      jump\t// out\n        /* \"contracts/testInheritance1.sol\":545:634  function say() public virtual  override  {... */\n    tag_9:\n        /* \"contracts/testInheritance1.sol\":605:623  Log(\"i am father\") */\n      0xcf34ef537ac33ee1ac626ca1587a0a7e8e51561e5514f8cb36afa1c5102b3bab\n      mload(0x40)\n      tag_16\n      swap1\n      tag_14\n      jump\t// in\n    tag_16:\n      mload(0x40)\n      dup1\n      swap2\n      sub\n      swap1\n      log1\n        /* \"contracts/testInheritance1.sol\":545:634  function say() public virtual  override  {... */\n      jump\t// out\n        /* \"contracts/testInheritance1.sol\":741:829  function talk() public virtual override {... */\n    tag_11:\n        /* \"contracts/testInheritance1.sol\":800:818  Log(\"i am father\") */\n      0xcf34ef537ac33ee1ac626ca1587a0a7e8e51561e5514f8cb36afa1c5102b3bab\n      mload(0x40)\n      tag_18\n      swap1\n      tag_14\n      jump\t// in\n    tag_18:\n      mload(0x40)\n      dup1\n      swap2\n      sub\n      swap1\n      log1\n        /* \"contracts/testInheritance1.sol\":741:829  function talk() public virtual override {... */\n      jump\t// out\n        /* \"#utility.yul\":7:176   */\n    tag_19:\n        /* \"#utility.yul\":91:102   */\n      0x00\n        /* \"#utility.yul\":125:131   */\n      dup3\n        /* \"#utility.yul\":120:123   */\n      dup3\n        /* \"#utility.yul\":113:132   */\n      mstore\n        /* \"#utility.yul\":165:169   */\n      0x20\n        /* \"#utility.yul\":160:163   */\n      dup3\n        /* \"#utility.yul\":156:170   */\n      add\n        /* \"#utility.yul\":141:170   */\n      swap1\n      pop\n        /* \"#utility.yul\":7:176   */\n      swap3\n      swap2\n      pop\n      pop\n      jump\t// out\n        /* \"#utility.yul\":182:343   */\n    tag_20:\n        /* \"#utility.yul\":322:335   */\n      0x6920616d20666174686572000000000000000000000000000000000000000000\n        /* \"#utility.yul\":318:319   */\n      0x00\n        /* \"#utility.yul\":310:316   */\n      dup3\n        /* \"#utility.yul\":306:320   */\n      add\n        /* \"#utility.yul\":299:336   */\n      mstore\n        /* \"#utility.yul\":182:343   */\n      pop\n      jump\t// out\n        /* \"#utility.yul\":349:715   */\n    tag_21:\n        /* \"#utility.yul\":491:494   */\n      0x00\n        /* \"#utility.yul\":512:579   */\n      tag_26\n        /* \"#utility.yul\":576:578   */\n      0x0b\n        /* \"#utility.yul\":571:574   */\n      dup4\n        /* \"#utility.yul\":512:579   */\n      tag_19\n      jump\t// in\n    tag_26:\n        /* \"#utility.yul\":505:579   */\n      swap2\n      pop\n        /* \"#utility.yul\":588:681   */\n      tag_27\n        /* \"#utility.yul\":677:680   */\n      dup3\n        /* \"#utility.yul\":588:681   */\n      tag_20\n      jump\t// in\n    tag_27:\n        /* \"#utility.yul\":706:708   */\n      0x20\n        /* \"#utility.yul\":701:704   */\n      dup3\n        /* \"#utility.yul\":697:709   */\n      add\n        /* \"#utility.yul\":690:709   */\n      swap1\n      pop\n        /* \"#utility.yul\":349:715   */\n      swap2\n      swap1\n      pop\n      jump\t// out\n        /* \"#utility.yul\":721:1140   */\n    tag_14:\n        /* \"#utility.yul\":887:891   */\n      0x00\n        /* \"#utility.yul\":925:927   */\n      0x20\n        /* \"#utility.yul\":914:923   */\n      dup3\n        /* \"#utility.yul\":910:928   */\n      add\n        /* \"#utility.yul\":902:928   */\n      swap1\n      pop\n        /* \"#utility.yul\":974:983   */\n      dup2\n        /* \"#utility.yul\":968:972   */\n      dup2\n        /* \"#utility.yul\":964:984   */\n      sub\n        /* \"#utility.yul\":960:961   */\n      0x00\n        /* \"#utility.yul\":949:958   */\n      dup4\n        /* \"#utility.yul\":945:962   */\n      add\n        /* \"#utility.yul\":938:985   */\n      mstore\n        /* \"#utility.yul\":1002:1133   */\n      tag_29\n        /* \"#utility.yul\":1128:1132   */\n      dup2\n        /* \"#utility.yul\":1002:1133   */\n      tag_21\n      jump\t// in\n    tag_29:\n        /* \"#utility.yul\":994:1133   */\n      swap1\n      pop\n        /* \"#utility.yul\":721:1140   */\n      swap2\n      swap1\n      pop\n      jump\t// out\n\n    auxdata: 0xa264697066735822122046eba8979e46e89dd2df3d57d338efdcaa8d371ea0a7c7a9831a206e4bfdff8c64736f6c634300081a0033\n}\n",
				"bytecode": {
					"linkReferences": {},
					"object": "6080604052348015600e575f80fd5b506101b48061001c5f395ff3fe608060405234801561000f575f80fd5b506004361061003f575f3560e01c806350d8531514610043578063954ab4b21461004d578063a973176914610057575b5f80fd5b61004b610061565b005b610055610098565b005b61005f6100cf565b005b7fcf34ef537ac33ee1ac626ca1587a0a7e8e51561e5514f8cb36afa1c5102b3bab60405161008e90610160565b60405180910390a1565b7fcf34ef537ac33ee1ac626ca1587a0a7e8e51561e5514f8cb36afa1c5102b3bab6040516100c590610160565b60405180910390a1565b7fcf34ef537ac33ee1ac626ca1587a0a7e8e51561e5514f8cb36afa1c5102b3bab6040516100fc90610160565b60405180910390a1565b5f82825260208201905092915050565b7f6920616d206661746865720000000000000000000000000000000000000000005f82015250565b5f61014a600b83610106565b915061015582610116565b602082019050919050565b5f6020820190508181035f8301526101778161013e565b905091905056fea264697066735822122046eba8979e46e89dd2df3d57d338efdcaa8d371ea0a7c7a9831a206e4bfdff8c64736f6c634300081a0033",
					"opcodes": "PUSH1 0x80 PUSH1 0x40 MSTORE CALLVALUE DUP1 ISZERO PUSH1 0xE JUMPI PUSH0 DUP1 REVERT JUMPDEST POP PUSH2 0x1B4 DUP1 PUSH2 0x1C PUSH0 CODECOPY PUSH0 RETURN INVALID PUSH1 0x80 PUSH1 0x40 MSTORE CALLVALUE DUP1 ISZERO PUSH2 0xF JUMPI PUSH0 DUP1 REVERT JUMPDEST POP PUSH1 0x4 CALLDATASIZE LT PUSH2 0x3F JUMPI PUSH0 CALLDATALOAD PUSH1 0xE0 SHR DUP1 PUSH4 0x50D85315 EQ PUSH2 0x43 JUMPI DUP1 PUSH4 0x954AB4B2 EQ PUSH2 0x4D JUMPI DUP1 PUSH4 0xA9731769 EQ PUSH2 0x57 JUMPI JUMPDEST PUSH0 DUP1 REVERT JUMPDEST PUSH2 0x4B PUSH2 0x61 JUMP JUMPDEST STOP JUMPDEST PUSH2 0x55 PUSH2 0x98 JUMP JUMPDEST STOP JUMPDEST PUSH2 0x5F PUSH2 0xCF JUMP JUMPDEST STOP JUMPDEST PUSH32 0xCF34EF537AC33EE1AC626CA1587A0A7E8E51561E5514F8CB36AFA1C5102B3BAB PUSH1 0x40 MLOAD PUSH2 0x8E SWAP1 PUSH2 0x160 JUMP JUMPDEST PUSH1 0x40 MLOAD DUP1 SWAP2 SUB SWAP1 LOG1 JUMP JUMPDEST PUSH32 0xCF34EF537AC33EE1AC626CA1587A0A7E8E51561E5514F8CB36AFA1C5102B3BAB PUSH1 0x40 MLOAD PUSH2 0xC5 SWAP1 PUSH2 0x160 JUMP JUMPDEST PUSH1 0x40 MLOAD DUP1 SWAP2 SUB SWAP1 LOG1 JUMP JUMPDEST PUSH32 0xCF34EF537AC33EE1AC626CA1587A0A7E8E51561E5514F8CB36AFA1C5102B3BAB PUSH1 0x40 MLOAD PUSH2 0xFC SWAP1 PUSH2 0x160 JUMP JUMPDEST PUSH1 0x40 MLOAD DUP1 SWAP2 SUB SWAP1 LOG1 JUMP JUMPDEST PUSH0 DUP3 DUP3 MSTORE PUSH1 0x20 DUP3 ADD SWAP1 POP SWAP3 SWAP2 POP POP JUMP JUMPDEST PUSH32 0x6920616D20666174686572000000000000000000000000000000000000000000 PUSH0 DUP3 ADD MSTORE POP JUMP JUMPDEST PUSH0 PUSH2 0x14A PUSH1 0xB DUP4 PUSH2 0x106 JUMP JUMPDEST SWAP2 POP PUSH2 0x155 DUP3 PUSH2 0x116 JUMP JUMPDEST PUSH1 0x20 DUP3 ADD SWAP1 POP SWAP2 SWAP1 POP JUMP JUMPDEST PUSH0 PUSH1 0x20 DUP3 ADD SWAP1 POP DUP2 DUP2 SUB PUSH0 DUP4 ADD MSTORE PUSH2 0x177 DUP2 PUSH2 0x13E JUMP JUMPDEST SWAP1 POP SWAP2 SWAP1 POP JUMP INVALID LOG2 PUSH5 0x6970667358 0x22 SLT KECCAK256 CHAINID 0xEB 0xA8 SWAP8 SWAP15 CHAINID 0xE8 SWAP14 0xD2 0xDF RETURNDATASIZE JUMPI 0xD3 CODESIZE 0xEF 0xDC 0xAA DUP14 CALLDATACOPY 0x1E LOG0 0xA7 0xC7 0xA9 DUP4 BYTE KECCAK256 PUSH15 0x4BFDFF8C64736F6C634300081A0033 "
				},
				"gasEstimates": {
					"creation": {
						"codeDepositCost": "87200",
						"executionCost": "133",
						"totalCost": "87333"
					},
					"external": {
						"say()": "1940",
						"speak()": "1918",
						"talk()": "1962"
					}
				},
				"methodIdentifiers": {
					"say()": "954ab4b2",
					"speak()": "50d85315",
					"talk()": "a9731769"
				}
			},
			"storageLayout": {
				"storage": [],
				"types": null
			},
			"userdoc": {
				"kind": "user",
				"methods": {},
				"version": 1
			}
		}
	}
}