{
	"data": {
		"bytecode": {
			"linkReferences": {},
			"object": "6080604052348015600e575f80fd5b5060a480601a5f395ff3fe6080604052348015600e575f80fd5b50600436106026575f3560e01c8063954ab4b214602a575b5f80fd5b60306032565b005b5f6040518060400160405280600481526020017f6d6f6d6f0000000000000000000000000000000000000000000000000000000081525090505056fea264697066735822122002bae5c89c8f1ef4cb268b0f5303e9cb1e975a7dda723f92a4367ccf306767fc64736f6c634300081a0033",
			"opcodes": "PUSH1 0x80 PUSH1 0x40 MSTORE CALLVALUE DUP1 ISZERO PUSH1 0xE JUMPI PUSH0 DUP1 REVERT JUMPDEST POP PUSH1 0xA4 DUP1 PUSH1 0x1A PUSH0 CODECOPY PUSH0 RETURN INVALID PUSH1 0x80 PUSH1 0x40 MSTORE CALLVALUE DUP1 ISZERO PUSH1 0xE JUMPI PUSH0 DUP1 REVERT JUMPDEST POP PUSH1 0x4 CALLDATASIZE LT PUSH1 0x26 JUMPI PUSH0 CALLDATALOAD PUSH1 0xE0 SHR DUP1 PUSH4 0x954AB4B2 EQ PUSH1 0x2A JUMPI JUMPDEST PUSH0 DUP1 REVERT JUMPDEST PUSH1 0x30 PUSH1 0x32 JUMP JUMPDEST STOP JUMPDEST PUSH0 PUSH1 0x40 MLOAD DUP1 PUSH1 0x40 ADD PUSH1 0x40 MSTORE DUP1 PUSH1 0x4 DUP2 MSTORE PUSH1 0x20 ADD PUSH32 0x6D6F6D6F00000000000000000000000000000000000000000000000000000000 DUP2 MSTORE POP SWAP1 POP POP JUMP INVALID LOG2 PUSH5 0x6970667358 0x22 SLT KECCAK256 MUL 0xBA 0xE5 0xC8 SWAP13 DUP16 0x1E DELEGATECALL 0xCB 0x26 DUP12 0xF MSTORE8 SUB 0xE9 0xCB 0x1E SWAP8 GAS PUSH30 0xDA723F92A4367CCF306767FC64736F6C634300081A003300000000000000 "
		},
		"gasEstimates": {
			"creation": {
				"codeDepositCost": "32800",
				"executionCost": "85",
				"totalCost": "32885"
			},
			"external": {
				"say()": "189"
			}
		},
		"methodIdentifiers": {
			"say()": "954ab4b2"
		}
	},
	"abi": [
		{
			"inputs": [],
			"name": "say",
			"outputs": [],
			"stateMutability": "nonpayable",
			"type": "function"
		}
	]
}