{
	"data": {
		"bytecode": {
			"linkReferences": {},
			"object": "6080604052348015600e575f80fd5b5060a480601a5f395ff3fe6080604052348015600e575f80fd5b50600436106026575f3560e01c8063954ab4b214602a575b5f80fd5b60306032565b005b5f6040518060400160405280600481526020017f6d6f6d6f0000000000000000000000000000000000000000000000000000000081525090505056fea264697066735822122038df9d66c3e5b7d3023af81d7370bbd60009d2fc3cffc88970770a9aae3428d064736f6c634300081a0033",
			"opcodes": "PUSH1 0x80 PUSH1 0x40 MSTORE CALLVALUE DUP1 ISZERO PUSH1 0xE JUMPI PUSH0 DUP1 REVERT JUMPDEST POP PUSH1 0xA4 DUP1 PUSH1 0x1A PUSH0 CODECOPY PUSH0 RETURN INVALID PUSH1 0x80 PUSH1 0x40 MSTORE CALLVALUE DUP1 ISZERO PUSH1 0xE JUMPI PUSH0 DUP1 REVERT JUMPDEST POP PUSH1 0x4 CALLDATASIZE LT PUSH1 0x26 JUMPI PUSH0 CALLDATALOAD PUSH1 0xE0 SHR DUP1 PUSH4 0x954AB4B2 EQ PUSH1 0x2A JUMPI JUMPDEST PUSH0 DUP1 REVERT JUMPDEST PUSH1 0x30 PUSH1 0x32 JUMP JUMPDEST STOP JUMPDEST PUSH0 PUSH1 0x40 MLOAD DUP1 PUSH1 0x40 ADD PUSH1 0x40 MSTORE DUP1 PUSH1 0x4 DUP2 MSTORE PUSH1 0x20 ADD PUSH32 0x6D6F6D6F00000000000000000000000000000000000000000000000000000000 DUP2 MSTORE POP SWAP1 POP POP JUMP INVALID LOG2 PUSH5 0x6970667358 0x22 SLT KECCAK256 CODESIZE 0xDF SWAP14 PUSH7 0xC3E5B7D3023AF8 SAR PUSH20 0x70BBD60009D2FC3CFFC88970770A9AAE3428D064 PUSH20 0x6F6C634300081A00330000000000000000000000 "
		},
		"gasEstimates": {
			"creation": {
				"codeDepositCost": "32800",
				"executionCost": "85",
				"totalCost": "32885"
			},
			"external": {
				"say()": "189"
			}
		},
		"methodIdentifiers": {
			"say()": "954ab4b2"
		}
	},
	"abi": [
		{
			"inputs": [],
			"name": "say",
			"outputs": [],
			"stateMutability": "nonpayable",
			"type": "function"
		}
	]
}