{
	"data": {
		"bytecode": {
			"linkReferences": {},
			"object": "6080604052348015600e575f80fd5b5060a48061001b5f395ff3fe6080604052348015600e575f80fd5b50600436106026575f3560e01c8063954ab4b214602a575b5f80fd5b60306032565b005b5f6040518060400160405280600481526020017f6d6f6d6f0000000000000000000000000000000000000000000000000000000081525090505056fea26469706673582212208d17ab8f75316b9feb9b3dad5363f601e23b64c9694087a34c612af43986e0ee64736f6c63430008150033",
			"opcodes": "PUSH1 0x80 PUSH1 0x40 MSTORE CALLVALUE DUP1 ISZERO PUSH1 0xE JUMPI PUSH0 DUP1 REVERT JUMPDEST POP PUSH1 0xA4 DUP1 PUSH2 0x1B PUSH0 CODECOPY PUSH0 RETURN INVALID PUSH1 0x80 PUSH1 0x40 MSTORE CALLVALUE DUP1 ISZERO PUSH1 0xE JUMPI PUSH0 DUP1 REVERT JUMPDEST POP PUSH1 0x4 CALLDATASIZE LT PUSH1 0x26 JUMPI PUSH0 CALLDATALOAD PUSH1 0xE0 SHR DUP1 PUSH4 0x954AB4B2 EQ PUSH1 0x2A JUMPI JUMPDEST PUSH0 DUP1 REVERT JUMPDEST PUSH1 0x30 PUSH1 0x32 JUMP JUMPDEST STOP JUMPDEST PUSH0 PUSH1 0x40 MLOAD DUP1 PUSH1 0x40 ADD PUSH1 0x40 MSTORE DUP1 PUSH1 0x4 DUP2 MSTORE PUSH1 0x20 ADD PUSH32 0x6D6F6D6F00000000000000000000000000000000000000000000000000000000 DUP2 MSTORE POP SWAP1 POP POP JUMP INVALID LOG2 PUSH5 0x6970667358 0x22 SLT KECCAK256 DUP14 OR 0xAB DUP16 PUSH22 0x316B9FEB9B3DAD5363F601E23B64C9694087A34C612A DELEGATECALL CODECOPY DUP7 0xE0 0xEE PUSH5 0x736F6C6343 STOP ADDMOD ISZERO STOP CALLER "
		},
		"gasEstimates": {
			"creation": {
				"codeDepositCost": "32800",
				"executionCost": "85",
				"totalCost": "32885"
			},
			"external": {
				"say()": "189"
			}
		},
		"methodIdentifiers": {
			"say()": "954ab4b2"
		}
	},
	"abi": [
		{
			"inputs": [],
			"name": "say",
			"outputs": [],
			"stateMutability": "nonpayable",
			"type": "function"
		}
	]
}