{
	"data": {
		"bytecode": {
			"linkReferences": {},
			"object": "6080604052348015600e575f80fd5b50610ba18061001c5f395ff3fe608060405234801561000f575f80fd5b5060043610610055575f3560e01c80630558495f146100595780633ec3783414610063578063e355b0ce14610093578063ead6b8bd146100c3578063f0ca01de146100f3575b5f80fd5b610061610123565b005b61007d6004803603810190610078919061043c565b610222565b60405161008a91906104b4565b60405180910390f35b6100ad60048036038101906100a891906107cc565b61028a565b6040516100ba91906104b4565b60405180910390f35b6100dd60048036038101906100d89190610916565b6102f4565b6040516100ea91906104b4565b60405180910390f35b61010d600480360381019061010891906109df565b61035b565b60405161011a91906104b4565b60405180910390f35b5f803073ffffffffffffffffffffffffffffffffffffffff167f3ec3783488bfc90ed98dc398cd67f30f42b252c8ce7d59a4dce63a149c45254860015f604051602401610171929190610adc565b604051602081830303815290604052907bffffffffffffffffffffffffffffffffffffffffffffffffffffffff19166020820180517bffffffffffffffffffffffffffffffffffffffffffffffffffffffff83818316178352505050506040516101db9190610b55565b5f604051808303815f865af19150503d805f8114610214576040519150601f19603f3d011682016040523d82523d5f602084013e610219565b606091505b50915091505050565b5f7f87c76683e354abe8640b03c72d02c9175d9a00a6c0101d5bc4be081b9b8199eb633ec3783460e01b60405161025991906104b4565b60405180910390a17f3ec3783488bfc90ed98dc398cd67f30f42b252c8ce7d59a4dce63a149c452548905092915050565b5f7f87c76683e354abe8640b03c72d02c9175d9a00a6c0101d5bc4be081b9b8199eb63e355b0ce60e01b6040516102c191906104b4565b60405180910390a17f1a6e4cc8757d26fd75977fa9fc45c5116f6c0426c245603d1088aa7886b0d5ff9050949350505050565b5f7f87c76683e354abe8640b03c72d02c9175d9a00a6c0101d5bc4be081b9b8199eb63ead6b8bd60e01b60405161032b91906104b4565b60405180910390a17fead6b8bdece33532847146a6fe63967e794ef7c18f3b888ae6fb3aebb4ef1b959050919050565b5f7f87c76683e354abe8640b03c72d02c9175d9a00a6c0101d5bc4be081b9b8199eb63f0ca01de60e01b60405161039291906104b4565b60405180910390a17ff0ca01de95639524000d6ff4e9309b96c7f67f7961bf24b33f8b20e85f6ad977905092915050565b5f604051905090565b5f80fd5b5f80fd5b5f819050919050565b6103e6816103d4565b81146103f0575f80fd5b50565b5f81359050610401816103dd565b92915050565b5f8115159050919050565b61041b81610407565b8114610425575f80fd5b50565b5f8135905061043681610412565b92915050565b5f8060408385031215610452576104516103cc565b5b5f61045f858286016103f3565b925050602061047085828601610428565b9150509250929050565b5f7fffffffff0000000000000000000000000000000000000000000000000000000082169050919050565b6104ae8161047a565b82525050565b5f6020820190506104c75f8301846104a5565b92915050565b5f73ffffffffffffffffffffffffffffffffffffffff82169050919050565b5f6104f6826104cd565b9050919050565b5f610507826104ec565b9050919050565b610517816104fd565b8114610521575f80fd5b50565b5f813590506105328161050e565b92915050565b5f80fd5b5f601f19601f8301169050919050565b7f4e487b71000000000000000000000000000000000000000000000000000000005f52604160045260245ffd5b6105828261053c565b810181811067ffffffffffffffff821117156105a1576105a061054c565b5b80604052505050565b5f6105b36103c3565b90506105bf8282610579565b919050565b5f80fd5b5f80fd5b5f80fd5b5f67ffffffffffffffff8211156105ea576105e961054c565b5b6105f38261053c565b9050602081019050919050565b828183375f83830152505050565b5f61062061061b846105d0565b6105aa565b90508281526020810184848401111561063c5761063b6105cc565b5b610647848285610600565b509392505050565b5f82601f830112610663576106626105c8565b5b813561067384826020860161060e565b91505092915050565b5f6040828403121561069157610690610538565b5b61069b60406105aa565b90505f6106aa848285016103f3565b5f83015250602082013567ffffffffffffffff8111156106cd576106cc6105c4565b5b6106d98482850161064f565b60208301525092915050565b5f67ffffffffffffffff8211156106ff576106fe61054c565b5b602082029050602081019050919050565b5f80fd5b5f610726610721846106e5565b6105aa565b9050808382526020820190506020840283018581111561074957610748610710565b5b835b81811015610772578061075e88826103f3565b84526020840193505060208101905061074b565b5050509392505050565b5f82601f8301126107905761078f6105c8565b5b81356107a0848260208601610714565b91505092915050565b600381106107b5575f80fd5b50565b5f813590506107c6816107a9565b92915050565b5f805f80608085870312156107e4576107e36103cc565b5b5f6107f187828801610524565b945050602085013567ffffffffffffffff811115610812576108116103d0565b5b61081e8782880161067c565b935050604085013567ffffffffffffffff81111561083f5761083e6103d0565b5b61084b8782880161077c565b925050606061085c878288016107b8565b91505092959194509250565b5f67ffffffffffffffff8211156108825761088161054c565b5b602082029050919050565b5f61089f61089a84610868565b6105aa565b905080602084028301858111156108b9576108b8610710565b5b835b818110156108e257806108ce88826103f3565b8452602084019350506020810190506108bb565b5050509392505050565b5f82601f830112610900576108ff6105c8565b5b600361090d84828561088d565b91505092915050565b5f6060828403121561092b5761092a6103cc565b5b5f610938848285016108ec565b91505092915050565b5f67ffffffffffffffff82111561095b5761095a61054c565b5b6109648261053c565b9050602081019050919050565b5f61098361097e84610941565b6105aa565b90508281526020810184848401111561099f5761099e6105cc565b5b6109aa848285610600565b509392505050565b5f82601f8301126109c6576109c56105c8565b5b81356109d6848260208601610971565b91505092915050565b5f80604083850312156109f5576109f46103cc565b5b5f83013567ffffffffffffffff811115610a1257610a116103d0565b5b610a1e8582860161077c565b925050602083013567ffffffffffffffff811115610a3f57610a3e6103d0565b5b610a4b858286016109b2565b9150509250929050565b5f819050919050565b5f60ff82169050919050565b5f819050919050565b5f610a8d610a88610a8384610a55565b610a6a565b610a5e565b9050919050565b610a9d81610a73565b82525050565b5f819050919050565b5f610ac6610ac1610abc84610aa3565b610a6a565b610a5e565b9050919050565b610ad681610aac565b82525050565b5f604082019050610aef5f830185610a94565b610afc6020830184610acd565b9392505050565b5f81519050919050565b5f81905092915050565b8281835e5f83830152505050565b5f610b2f82610b03565b610b398185610b0d565b9350610b49818560208601610b17565b80840191505092915050565b5f610b608284610b25565b91508190509291505056fea2646970667358221220c6f0ebe55909e627024558bcc9ccd795eb264cb0ac166b88586bcd210120b31f64736f6c634300081a0033",
			"opcodes": "PUSH1 0x80 PUSH1 0x40 MSTORE CALLVALUE DUP1 ISZERO PUSH1 0xE JUMPI PUSH0 DUP1 REVERT JUMPDEST POP PUSH2 0xBA1 DUP1 PUSH2 0x1C PUSH0 CODECOPY PUSH0 RETURN INVALID PUSH1 0x80 PUSH1 0x40 MSTORE CALLVALUE DUP1 ISZERO PUSH2 0xF JUMPI PUSH0 DUP1 REVERT JUMPDEST POP PUSH1 0x4 CALLDATASIZE LT PUSH2 0x55 JUMPI PUSH0 CALLDATALOAD PUSH1 0xE0 SHR DUP1 PUSH4 0x558495F EQ PUSH2 0x59 JUMPI DUP1 PUSH4 0x3EC37834 EQ PUSH2 0x63 JUMPI DUP1 PUSH4 0xE355B0CE EQ PUSH2 0x93 JUMPI DUP1 PUSH4 0xEAD6B8BD EQ PUSH2 0xC3 JUMPI DUP1 PUSH4 0xF0CA01DE EQ PUSH2 0xF3 JUMPI JUMPDEST PUSH0 DUP1 REVERT JUMPDEST PUSH2 0x61 PUSH2 0x123 JUMP JUMPDEST STOP JUMPDEST PUSH2 0x7D PUSH1 0x4 DUP1 CALLDATASIZE SUB DUP2 ADD SWAP1 PUSH2 0x78 SWAP2 SWAP1 PUSH2 0x43C JUMP JUMPDEST PUSH2 0x222 JUMP JUMPDEST PUSH1 0x40 MLOAD PUSH2 0x8A SWAP2 SWAP1 PUSH2 0x4B4 JUMP JUMPDEST PUSH1 0x40 MLOAD DUP1 SWAP2 SUB SWAP1 RETURN JUMPDEST PUSH2 0xAD PUSH1 0x4 DUP1 CALLDATASIZE SUB DUP2 ADD SWAP1 PUSH2 0xA8 SWAP2 SWAP1 PUSH2 0x7CC JUMP JUMPDEST PUSH2 0x28A JUMP JUMPDEST PUSH1 0x40 MLOAD PUSH2 0xBA SWAP2 SWAP1 PUSH2 0x4B4 JUMP JUMPDEST PUSH1 0x40 MLOAD DUP1 SWAP2 SUB SWAP1 RETURN JUMPDEST PUSH2 0xDD PUSH1 0x4 DUP1 CALLDATASIZE SUB DUP2 ADD SWAP1 PUSH2 0xD8 SWAP2 SWAP1 PUSH2 0x916 JUMP JUMPDEST PUSH2 0x2F4 JUMP JUMPDEST PUSH1 0x40 MLOAD PUSH2 0xEA SWAP2 SWAP1 PUSH2 0x4B4 JUMP JUMPDEST PUSH1 0x40 MLOAD DUP1 SWAP2 SUB SWAP1 RETURN JUMPDEST PUSH2 0x10D PUSH1 0x4 DUP1 CALLDATASIZE SUB DUP2 ADD SWAP1 PUSH2 0x108 SWAP2 SWAP1 PUSH2 0x9DF JUMP JUMPDEST PUSH2 0x35B JUMP JUMPDEST PUSH1 0x40 MLOAD PUSH2 0x11A SWAP2 SWAP1 PUSH2 0x4B4 JUMP JUMPDEST PUSH1 0x40 MLOAD DUP1 SWAP2 SUB SWAP1 RETURN JUMPDEST PUSH0 DUP1 ADDRESS PUSH20 0xFFFFFFFFFFFFFFFFFFFFFFFFFFFFFFFFFFFFFFFF AND PUSH32 0x3EC3783488BFC90ED98DC398CD67F30F42B252C8CE7D59A4DCE63A149C452548 PUSH1 0x1 PUSH0 PUSH1 0x40 MLOAD PUSH1 0x24 ADD PUSH2 0x171 SWAP3 SWAP2 SWAP1 PUSH2 0xADC JUMP JUMPDEST PUSH1 0x40 MLOAD PUSH1 0x20 DUP2 DUP4 SUB SUB DUP2 MSTORE SWAP1 PUSH1 0x40 MSTORE SWAP1 PUSH28 0xFFFFFFFFFFFFFFFFFFFFFFFFFFFFFFFFFFFFFFFFFFFFFFFFFFFFFFFF NOT AND PUSH1 0x20 DUP3 ADD DUP1 MLOAD PUSH28 0xFFFFFFFFFFFFFFFFFFFFFFFFFFFFFFFFFFFFFFFFFFFFFFFFFFFFFFFF DUP4 DUP2 DUP4 AND OR DUP4 MSTORE POP POP POP POP PUSH1 0x40 MLOAD PUSH2 0x1DB SWAP2 SWAP1 PUSH2 0xB55 JUMP JUMPDEST PUSH0 PUSH1 0x40 MLOAD DUP1 DUP4 SUB DUP2 PUSH0 DUP7 GAS CALL SWAP2 POP POP RETURNDATASIZE DUP1 PUSH0 DUP2 EQ PUSH2 0x214 JUMPI PUSH1 0x40 MLOAD SWAP2 POP PUSH1 0x1F NOT PUSH1 0x3F RETURNDATASIZE ADD AND DUP3 ADD PUSH1 0x40 MSTORE RETURNDATASIZE DUP3 MSTORE RETURNDATASIZE PUSH0 PUSH1 0x20 DUP5 ADD RETURNDATACOPY PUSH2 0x219 JUMP JUMPDEST PUSH1 0x60 SWAP2 POP JUMPDEST POP SWAP2 POP SWAP2 POP POP POP JUMP JUMPDEST PUSH0 PUSH32 0x87C76683E354ABE8640B03C72D02C9175D9A00A6C0101D5BC4BE081B9B8199EB PUSH4 0x3EC37834 PUSH1 0xE0 SHL PUSH1 0x40 MLOAD PUSH2 0x259 SWAP2 SWAP1 PUSH2 0x4B4 JUMP JUMPDEST PUSH1 0x40 MLOAD DUP1 SWAP2 SUB SWAP1 LOG1 PUSH32 0x3EC3783488BFC90ED98DC398CD67F30F42B252C8CE7D59A4DCE63A149C452548 SWAP1 POP SWAP3 SWAP2 POP POP JUMP JUMPDEST PUSH0 PUSH32 0x87C76683E354ABE8640B03C72D02C9175D9A00A6C0101D5BC4BE081B9B8199EB PUSH4 0xE355B0CE PUSH1 0xE0 SHL PUSH1 0x40 MLOAD PUSH2 0x2C1 SWAP2 SWAP1 PUSH2 0x4B4 JUMP JUMPDEST PUSH1 0x40 MLOAD DUP1 SWAP2 SUB SWAP1 LOG1 PUSH32 0x1A6E4CC8757D26FD75977FA9FC45C5116F6C0426C245603D1088AA7886B0D5FF SWAP1 POP SWAP5 SWAP4 POP POP POP POP JUMP JUMPDEST PUSH0 PUSH32 0x87C76683E354ABE8640B03C72D02C9175D9A00A6C0101D5BC4BE081B9B8199EB PUSH4 0xEAD6B8BD PUSH1 0xE0 SHL PUSH1 0x40 MLOAD PUSH2 0x32B SWAP2 SWAP1 PUSH2 0x4B4 JUMP JUMPDEST PUSH1 0x40 MLOAD DUP1 SWAP2 SUB SWAP1 LOG1 PUSH32 0xEAD6B8BDECE33532847146A6FE63967E794EF7C18F3B888AE6FB3AEBB4EF1B95 SWAP1 POP SWAP2 SWAP1 POP JUMP JUMPDEST PUSH0 PUSH32 0x87C76683E354ABE8640B03C72D02C9175D9A00A6C0101D5BC4BE081B9B8199EB PUSH4 0xF0CA01DE PUSH1 0xE0 SHL PUSH1 0x40 MLOAD PUSH2 0x392 SWAP2 SWAP1 PUSH2 0x4B4 JUMP JUMPDEST PUSH1 0x40 MLOAD DUP1 SWAP2 SUB SWAP1 LOG1 PUSH32 0xF0CA01DE95639524000D6FF4E9309B96C7F67F7961BF24B33F8B20E85F6AD977 SWAP1 POP SWAP3 SWAP2 POP POP JUMP JUMPDEST PUSH0 PUSH1 0x40 MLOAD SWAP1 POP SWAP1 JUMP JUMPDEST PUSH0 DUP1 REVERT JUMPDEST PUSH0 DUP1 REVERT JUMPDEST PUSH0 DUP2 SWAP1 POP SWAP2 SWAP1 POP JUMP JUMPDEST PUSH2 0x3E6 DUP2 PUSH2 0x3D4 JUMP JUMPDEST DUP2 EQ PUSH2 0x3F0 JUMPI PUSH0 DUP1 REVERT JUMPDEST POP JUMP JUMPDEST PUSH0 DUP2 CALLDATALOAD SWAP1 POP PUSH2 0x401 DUP2 PUSH2 0x3DD JUMP JUMPDEST SWAP3 SWAP2 POP POP JUMP JUMPDEST PUSH0 DUP2 ISZERO ISZERO SWAP1 POP SWAP2 SWAP1 POP JUMP JUMPDEST PUSH2 0x41B DUP2 PUSH2 0x407 JUMP JUMPDEST DUP2 EQ PUSH2 0x425 JUMPI PUSH0 DUP1 REVERT JUMPDEST POP JUMP JUMPDEST PUSH0 DUP2 CALLDATALOAD SWAP1 POP PUSH2 0x436 DUP2 PUSH2 0x412 JUMP JUMPDEST SWAP3 SWAP2 POP POP JUMP JUMPDEST PUSH0 DUP1 PUSH1 0x40 DUP4 DUP6 SUB SLT ISZERO PUSH2 0x452 JUMPI PUSH2 0x451 PUSH2 0x3CC JUMP JUMPDEST JUMPDEST PUSH0 PUSH2 0x45F DUP6 DUP3 DUP7 ADD PUSH2 0x3F3 JUMP JUMPDEST SWAP3 POP POP PUSH1 0x20 PUSH2 0x470 DUP6 DUP3 DUP7 ADD PUSH2 0x428 JUMP JUMPDEST SWAP2 POP POP SWAP3 POP SWAP3 SWAP1 POP JUMP JUMPDEST PUSH0 PUSH32 0xFFFFFFFF00000000000000000000000000000000000000000000000000000000 DUP3 AND SWAP1 POP SWAP2 SWAP1 POP JUMP JUMPDEST PUSH2 0x4AE DUP2 PUSH2 0x47A JUMP JUMPDEST DUP3 MSTORE POP POP JUMP JUMPDEST PUSH0 PUSH1 0x20 DUP3 ADD SWAP1 POP PUSH2 0x4C7 PUSH0 DUP4 ADD DUP5 PUSH2 0x4A5 JUMP JUMPDEST SWAP3 SWAP2 POP POP JUMP JUMPDEST PUSH0 PUSH20 0xFFFFFFFFFFFFFFFFFFFFFFFFFFFFFFFFFFFFFFFF DUP3 AND SWAP1 POP SWAP2 SWAP1 POP JUMP JUMPDEST PUSH0 PUSH2 0x4F6 DUP3 PUSH2 0x4CD JUMP JUMPDEST SWAP1 POP SWAP2 SWAP1 POP JUMP JUMPDEST PUSH0 PUSH2 0x507 DUP3 PUSH2 0x4EC JUMP JUMPDEST SWAP1 POP SWAP2 SWAP1 POP JUMP JUMPDEST PUSH2 0x517 DUP2 PUSH2 0x4FD JUMP JUMPDEST DUP2 EQ PUSH2 0x521 JUMPI PUSH0 DUP1 REVERT JUMPDEST POP JUMP JUMPDEST PUSH0 DUP2 CALLDATALOAD SWAP1 POP PUSH2 0x532 DUP2 PUSH2 0x50E JUMP JUMPDEST SWAP3 SWAP2 POP POP JUMP JUMPDEST PUSH0 DUP1 REVERT JUMPDEST PUSH0 PUSH1 0x1F NOT PUSH1 0x1F DUP4 ADD AND SWAP1 POP SWAP2 SWAP1 POP JUMP JUMPDEST PUSH32 0x4E487B7100000000000000000000000000000000000000000000000000000000 PUSH0 MSTORE PUSH1 0x41 PUSH1 0x4 MSTORE PUSH1 0x24 PUSH0 REVERT JUMPDEST PUSH2 0x582 DUP3 PUSH2 0x53C JUMP JUMPDEST DUP2 ADD DUP2 DUP2 LT PUSH8 0xFFFFFFFFFFFFFFFF DUP3 GT OR ISZERO PUSH2 0x5A1 JUMPI PUSH2 0x5A0 PUSH2 0x54C JUMP JUMPDEST JUMPDEST DUP1 PUSH1 0x40 MSTORE POP POP POP JUMP JUMPDEST PUSH0 PUSH2 0x5B3 PUSH2 0x3C3 JUMP JUMPDEST SWAP1 POP PUSH2 0x5BF DUP3 DUP3 PUSH2 0x579 JUMP JUMPDEST SWAP2 SWAP1 POP JUMP JUMPDEST PUSH0 DUP1 REVERT JUMPDEST PUSH0 DUP1 REVERT JUMPDEST PUSH0 DUP1 REVERT JUMPDEST PUSH0 PUSH8 0xFFFFFFFFFFFFFFFF DUP3 GT ISZERO PUSH2 0x5EA JUMPI PUSH2 0x5E9 PUSH2 0x54C JUMP JUMPDEST JUMPDEST PUSH2 0x5F3 DUP3 PUSH2 0x53C JUMP JUMPDEST SWAP1 POP PUSH1 0x20 DUP2 ADD SWAP1 POP SWAP2 SWAP1 POP JUMP JUMPDEST DUP3 DUP2 DUP4 CALLDATACOPY PUSH0 DUP4 DUP4 ADD MSTORE POP POP POP JUMP JUMPDEST PUSH0 PUSH2 0x620 PUSH2 0x61B DUP5 PUSH2 0x5D0 JUMP JUMPDEST PUSH2 0x5AA JUMP JUMPDEST SWAP1 POP DUP3 DUP2 MSTORE PUSH1 0x20 DUP2 ADD DUP5 DUP5 DUP5 ADD GT ISZERO PUSH2 0x63C JUMPI PUSH2 0x63B PUSH2 0x5CC JUMP JUMPDEST JUMPDEST PUSH2 0x647 DUP5 DUP3 DUP6 PUSH2 0x600 JUMP JUMPDEST POP SWAP4 SWAP3 POP POP POP JUMP JUMPDEST PUSH0 DUP3 PUSH1 0x1F DUP4 ADD SLT PUSH2 0x663 JUMPI PUSH2 0x662 PUSH2 0x5C8 JUMP JUMPDEST JUMPDEST DUP2 CALLDATALOAD PUSH2 0x673 DUP5 DUP3 PUSH1 0x20 DUP7 ADD PUSH2 0x60E JUMP JUMPDEST SWAP2 POP POP SWAP3 SWAP2 POP POP JUMP JUMPDEST PUSH0 PUSH1 0x40 DUP3 DUP5 SUB SLT ISZERO PUSH2 0x691 JUMPI PUSH2 0x690 PUSH2 0x538 JUMP JUMPDEST JUMPDEST PUSH2 0x69B PUSH1 0x40 PUSH2 0x5AA JUMP JUMPDEST SWAP1 POP PUSH0 PUSH2 0x6AA DUP5 DUP3 DUP6 ADD PUSH2 0x3F3 JUMP JUMPDEST PUSH0 DUP4 ADD MSTORE POP PUSH1 0x20 DUP3 ADD CALLDATALOAD PUSH8 0xFFFFFFFFFFFFFFFF DUP2 GT ISZERO PUSH2 0x6CD JUMPI PUSH2 0x6CC PUSH2 0x5C4 JUMP JUMPDEST JUMPDEST PUSH2 0x6D9 DUP5 DUP3 DUP6 ADD PUSH2 0x64F JUMP JUMPDEST PUSH1 0x20 DUP4 ADD MSTORE POP SWAP3 SWAP2 POP POP JUMP JUMPDEST PUSH0 PUSH8 0xFFFFFFFFFFFFFFFF DUP3 GT ISZERO PUSH2 0x6FF JUMPI PUSH2 0x6FE PUSH2 0x54C JUMP JUMPDEST JUMPDEST PUSH1 0x20 DUP3 MUL SWAP1 POP PUSH1 0x20 DUP2 ADD SWAP1 POP SWAP2 SWAP1 POP JUMP JUMPDEST PUSH0 DUP1 REVERT JUMPDEST PUSH0 PUSH2 0x726 PUSH2 0x721 DUP5 PUSH2 0x6E5 JUMP JUMPDEST PUSH2 0x5AA JUMP JUMPDEST SWAP1 POP DUP1 DUP4 DUP3 MSTORE PUSH1 0x20 DUP3 ADD SWAP1 POP PUSH1 0x20 DUP5 MUL DUP4 ADD DUP6 DUP2 GT ISZERO PUSH2 0x749 JUMPI PUSH2 0x748 PUSH2 0x710 JUMP JUMPDEST JUMPDEST DUP4 JUMPDEST DUP2 DUP2 LT ISZERO PUSH2 0x772 JUMPI DUP1 PUSH2 0x75E DUP9 DUP3 PUSH2 0x3F3 JUMP JUMPDEST DUP5 MSTORE PUSH1 0x20 DUP5 ADD SWAP4 POP POP PUSH1 0x20 DUP2 ADD SWAP1 POP PUSH2 0x74B JUMP JUMPDEST POP POP POP SWAP4 SWAP3 POP POP POP JUMP JUMPDEST PUSH0 DUP3 PUSH1 0x1F DUP4 ADD SLT PUSH2 0x790 JUMPI PUSH2 0x78F PUSH2 0x5C8 JUMP JUMPDEST JUMPDEST DUP2 CALLDATALOAD PUSH2 0x7A0 DUP5 DUP3 PUSH1 0x20 DUP7 ADD PUSH2 0x714 JUMP JUMPDEST SWAP2 POP POP SWAP3 SWAP2 POP POP JUMP JUMPDEST PUSH1 0x3 DUP2 LT PUSH2 0x7B5 JUMPI PUSH0 DUP1 REVERT JUMPDEST POP JUMP JUMPDEST PUSH0 DUP2 CALLDATALOAD SWAP1 POP PUSH2 0x7C6 DUP2 PUSH2 0x7A9 JUMP JUMPDEST SWAP3 SWAP2 POP POP JUMP JUMPDEST PUSH0 DUP1 PUSH0 DUP1 PUSH1 0x80 DUP6 DUP8 SUB SLT ISZERO PUSH2 0x7E4 JUMPI PUSH2 0x7E3 PUSH2 0x3CC JUMP JUMPDEST JUMPDEST PUSH0 PUSH2 0x7F1 DUP8 DUP3 DUP9 ADD PUSH2 0x524 JUMP JUMPDEST SWAP5 POP POP PUSH1 0x20 DUP6 ADD CALLDATALOAD PUSH8 0xFFFFFFFFFFFFFFFF DUP2 GT ISZERO PUSH2 0x812 JUMPI PUSH2 0x811 PUSH2 0x3D0 JUMP JUMPDEST JUMPDEST PUSH2 0x81E DUP8 DUP3 DUP9 ADD PUSH2 0x67C JUMP JUMPDEST SWAP4 POP POP PUSH1 0x40 DUP6 ADD CALLDATALOAD PUSH8 0xFFFFFFFFFFFFFFFF DUP2 GT ISZERO PUSH2 0x83F JUMPI PUSH2 0x83E PUSH2 0x3D0 JUMP JUMPDEST JUMPDEST PUSH2 0x84B DUP8 DUP3 DUP9 ADD PUSH2 0x77C JUMP JUMPDEST SWAP3 POP POP PUSH1 0x60 PUSH2 0x85C DUP8 DUP3 DUP9 ADD PUSH2 0x7B8 JUMP JUMPDEST SWAP2 POP POP SWAP3 SWAP6 SWAP2 SWAP5 POP SWAP3 POP JUMP JUMPDEST PUSH0 PUSH8 0xFFFFFFFFFFFFFFFF DUP3 GT ISZERO PUSH2 0x882 JUMPI PUSH2 0x881 PUSH2 0x54C JUMP JUMPDEST JUMPDEST PUSH1 0x20 DUP3 MUL SWAP1 POP SWAP2 SWAP1 POP JUMP JUMPDEST PUSH0 PUSH2 0x89F PUSH2 0x89A DUP5 PUSH2 0x868 JUMP JUMPDEST PUSH2 0x5AA JUMP JUMPDEST SWAP1 POP DUP1 PUSH1 0x20 DUP5 MUL DUP4 ADD DUP6 DUP2 GT ISZERO PUSH2 0x8B9 JUMPI PUSH2 0x8B8 PUSH2 0x710 JUMP JUMPDEST JUMPDEST DUP4 JUMPDEST DUP2 DUP2 LT ISZERO PUSH2 0x8E2 JUMPI DUP1 PUSH2 0x8CE DUP9 DUP3 PUSH2 0x3F3 JUMP JUMPDEST DUP5 MSTORE PUSH1 0x20 DUP5 ADD SWAP4 POP POP PUSH1 0x20 DUP2 ADD SWAP1 POP PUSH2 0x8BB JUMP JUMPDEST POP POP POP SWAP4 SWAP3 POP POP POP JUMP JUMPDEST PUSH0 DUP3 PUSH1 0x1F DUP4 ADD SLT PUSH2 0x900 JUMPI PUSH2 0x8FF PUSH2 0x5C8 JUMP JUMPDEST JUMPDEST PUSH1 0x3 PUSH2 0x90D DUP5 DUP3 DUP6 PUSH2 0x88D JUMP JUMPDEST SWAP2 POP POP SWAP3 SWAP2 POP POP JUMP JUMPDEST PUSH0 PUSH1 0x60 DUP3 DUP5 SUB SLT ISZERO PUSH2 0x92B JUMPI PUSH2 0x92A PUSH2 0x3CC JUMP JUMPDEST JUMPDEST PUSH0 PUSH2 0x938 DUP5 DUP3 DUP6 ADD PUSH2 0x8EC JUMP JUMPDEST SWAP2 POP POP SWAP3 SWAP2 POP POP JUMP JUMPDEST PUSH0 PUSH8 0xFFFFFFFFFFFFFFFF DUP3 GT ISZERO PUSH2 0x95B JUMPI PUSH2 0x95A PUSH2 0x54C JUMP JUMPDEST JUMPDEST PUSH2 0x964 DUP3 PUSH2 0x53C JUMP JUMPDEST SWAP1 POP PUSH1 0x20 DUP2 ADD SWAP1 POP SWAP2 SWAP1 POP JUMP JUMPDEST PUSH0 PUSH2 0x983 PUSH2 0x97E DUP5 PUSH2 0x941 JUMP JUMPDEST PUSH2 0x5AA JUMP JUMPDEST SWAP1 POP DUP3 DUP2 MSTORE PUSH1 0x20 DUP2 ADD DUP5 DUP5 DUP5 ADD GT ISZERO PUSH2 0x99F JUMPI PUSH2 0x99E PUSH2 0x5CC JUMP JUMPDEST JUMPDEST PUSH2 0x9AA DUP5 DUP3 DUP6 PUSH2 0x600 JUMP JUMPDEST POP SWAP4 SWAP3 POP POP POP JUMP JUMPDEST PUSH0 DUP3 PUSH1 0x1F DUP4 ADD SLT PUSH2 0x9C6 JUMPI PUSH2 0x9C5 PUSH2 0x5C8 JUMP JUMPDEST JUMPDEST DUP2 CALLDATALOAD PUSH2 0x9D6 DUP5 DUP3 PUSH1 0x20 DUP7 ADD PUSH2 0x971 JUMP JUMPDEST SWAP2 POP POP SWAP3 SWAP2 POP POP JUMP JUMPDEST PUSH0 DUP1 PUSH1 0x40 DUP4 DUP6 SUB SLT ISZERO PUSH2 0x9F5 JUMPI PUSH2 0x9F4 PUSH2 0x3CC JUMP JUMPDEST JUMPDEST PUSH0 DUP4 ADD CALLDATALOAD PUSH8 0xFFFFFFFFFFFFFFFF DUP2 GT ISZERO PUSH2 0xA12 JUMPI PUSH2 0xA11 PUSH2 0x3D0 JUMP JUMPDEST JUMPDEST PUSH2 0xA1E DUP6 DUP3 DUP7 ADD PUSH2 0x77C JUMP JUMPDEST SWAP3 POP POP PUSH1 0x20 DUP4 ADD CALLDATALOAD PUSH8 0xFFFFFFFFFFFFFFFF DUP2 GT ISZERO PUSH2 0xA3F JUMPI PUSH2 0xA3E PUSH2 0x3D0 JUMP JUMPDEST JUMPDEST PUSH2 0xA4B DUP6 DUP3 DUP7 ADD PUSH2 0x9B2 JUMP JUMPDEST SWAP2 POP POP SWAP3 POP SWAP3 SWAP1 POP JUMP JUMPDEST PUSH0 DUP2 SWAP1 POP SWAP2 SWAP1 POP JUMP JUMPDEST PUSH0 PUSH1 0xFF DUP3 AND SWAP1 POP SWAP2 SWAP1 POP JUMP JUMPDEST PUSH0 DUP2 SWAP1 POP SWAP2 SWAP1 POP JUMP JUMPDEST PUSH0 PUSH2 0xA8D PUSH2 0xA88 PUSH2 0xA83 DUP5 PUSH2 0xA55 JUMP JUMPDEST PUSH2 0xA6A JUMP JUMPDEST PUSH2 0xA5E JUMP JUMPDEST SWAP1 POP SWAP2 SWAP1 POP JUMP JUMPDEST PUSH2 0xA9D DUP2 PUSH2 0xA73 JUMP JUMPDEST DUP3 MSTORE POP POP JUMP JUMPDEST PUSH0 DUP2 SWAP1 POP SWAP2 SWAP1 POP JUMP JUMPDEST PUSH0 PUSH2 0xAC6 PUSH2 0xAC1 PUSH2 0xABC DUP5 PUSH2 0xAA3 JUMP JUMPDEST PUSH2 0xA6A JUMP JUMPDEST PUSH2 0xA5E JUMP JUMPDEST SWAP1 POP SWAP2 SWAP1 POP JUMP JUMPDEST PUSH2 0xAD6 DUP2 PUSH2 0xAAC JUMP JUMPDEST DUP3 MSTORE POP POP JUMP JUMPDEST PUSH0 PUSH1 0x40 DUP3 ADD SWAP1 POP PUSH2 0xAEF PUSH0 DUP4 ADD DUP6 PUSH2 0xA94 JUMP JUMPDEST PUSH2 0xAFC PUSH1 0x20 DUP4 ADD DUP5 PUSH2 0xACD JUMP JUMPDEST SWAP4 SWAP3 POP POP POP JUMP JUMPDEST PUSH0 DUP2 MLOAD SWAP1 POP SWAP2 SWAP1 POP JUMP JUMPDEST PUSH0 DUP2 SWAP1 POP SWAP3 SWAP2 POP POP JUMP JUMPDEST DUP3 DUP2 DUP4 MCOPY PUSH0 DUP4 DUP4 ADD MSTORE POP POP POP JUMP JUMPDEST PUSH0 PUSH2 0xB2F DUP3 PUSH2 0xB03 JUMP JUMPDEST PUSH2 0xB39 DUP2 DUP6 PUSH2 0xB0D JUMP JUMPDEST SWAP4 POP PUSH2 0xB49 DUP2 DUP6 PUSH1 0x20 DUP7 ADD PUSH2 0xB17 JUMP JUMPDEST DUP1 DUP5 ADD SWAP2 POP POP SWAP3 SWAP2 POP POP JUMP JUMPDEST PUSH0 PUSH2 0xB60 DUP3 DUP5 PUSH2 0xB25 JUMP JUMPDEST SWAP2 POP DUP2 SWAP1 POP SWAP3 SWAP2 POP POP JUMP INVALID LOG2 PUSH5 0x6970667358 0x22 SLT KECCAK256 0xC6 CREATE 0xEB 0xE5 MSIZE MULMOD 0xE6 0x27 MUL GASLIMIT PC 0xBC 0xC9 0xCC 0xD7 SWAP6 0xEB 0x26 0x4C 0xB0 0xAC AND PUSH12 0x88586BCD210120B31F64736F PUSH13 0x634300081A0033000000000000 "
		},
		"gasEstimates": {
			"creation": {
				"codeDepositCost": "595400",
				"executionCost": "630",
				"totalCost": "596030"
			},
			"external": {
				"callWithSelector()": "infinite",
				"elementaryParamSelector(uint256,bool)": "infinite",
				"fixedSizeParamSelector(uint256[3])": "infinite",
				"mappingParamSelector(address,(uint256,bytes),uint256[],uint8)": "infinite",
				"nonFixedSizeParamSelector(uint256[],string)": "infinite"
			}
		},
		"methodIdentifiers": {
			"callWithSelector()": "0558495f",
			"elementaryParamSelector(uint256,bool)": "3ec37834",
			"fixedSizeParamSelector(uint256[3])": "ead6b8bd",
			"mappingParamSelector(address,(uint256,bytes),uint256[],uint8)": "e355b0ce",
			"nonFixedSizeParamSelector(uint256[],string)": "f0ca01de"
		}
	},
	"abi": [
		{
			"anonymous": false,
			"inputs": [
				{
					"indexed": false,
					"internalType": "bytes4",
					"name": "",
					"type": "bytes4"
				}
			],
			"name": "SelectorEvent",
			"type": "event"
		},
		{
			"inputs": [],
			"name": "callWithSelector",
			"outputs": [],
			"stateMutability": "nonpayable",
			"type": "function"
		},
		{
			"inputs": [
				{
					"internalType": "uint256",
					"name": "param1",
					"type": "uint256"
				},
				{
					"internalType": "bool",
					"name": "param2",
					"type": "bool"
				}
			],
			"name": "elementaryParamSelector",
			"outputs": [
				{
					"internalType": "bytes4",
					"name": "selectorWithElementaryParam",
					"type": "bytes4"
				}
			],
			"stateMutability": "nonpayable",
			"type": "function"
		},
		{
			"inputs": [
				{
					"internalType": "uint256[3]",
					"name": "param1",
					"type": "uint256[3]"
				}
			],
			"name": "fixedSizeParamSelector",
			"outputs": [
				{
					"internalType": "bytes4",
					"name": "selectorWithFixedSizeParam",
					"type": "bytes4"
				}
			],
			"stateMutability": "nonpayable",
			"type": "function"
		},
		{
			"inputs": [
				{
					"internalType": "contract EmptyContract",
					"name": "demo",
					"type": "address"
				},
				{
					"components": [
						{
							"internalType": "uint256",
							"name": "uid",
							"type": "uint256"
						},
						{
							"internalType": "bytes",
							"name": "name",
							"type": "bytes"
						}
					],
					"internalType": "struct SelectorContract.User",
					"name": "user",
					"type": "tuple"
				},
				{
					"internalType": "uint256[]",
					"name": "count",
					"type": "uint256[]"
				},
				{
					"internalType": "enum SelectorContract.School",
					"name": "mySchool",
					"type": "uint8"
				}
			],
			"name": "mappingParamSelector",
			"outputs": [
				{
					"internalType": "bytes4",
					"name": "nonFixedSizeParamSelector",
					"type": "bytes4"
				}
			],
			"stateMutability": "nonpayable",
			"type": "function"
		},
		{
			"inputs": [
				{
					"internalType": "uint256[]",
					"name": "param1",
					"type": "uint256[]"
				},
				{
					"internalType": "string",
					"name": "param2",
					"type": "string"
				}
			],
			"name": "nonFixedSizeParamSelector",
			"outputs": [
				{
					"internalType": "bytes4",
					"name": "selectorWithNonFixedSizeParam",
					"type": "bytes4"
				}
			],
			"stateMutability": "nonpayable",
			"type": "function"
		}
	]
}